:10000000022A2BAF19EF3395E0FE22023C2A900022
:1000100052EFF0AB10AA11A91212053C6401600A5C
:100020007F011229877F01122BEE22023B57EF330B
:1000300095E0FEC3EF9401EE6480948022D3EF94A8
:100040000BEE6480948022021C5A220237220204A2
:100050000FE86480F8E933E83360110460F0ED33B1
:10006000EC337009E8FCE9FDEAFEEBFF220460DEF8
:10007000D3EB9FEA9EE99DE8C2E78CF0C2F795F0CA
:10008000400CE8CCF8E9CDF9EACEFAEBCFFB12034D
:10009000DA85D0F05804700320D5B3E80470075017
:1000A00002B2D502041992D5EC0460F7E4CCC0E0AA
:1000B000C398F8603B94186008400DD0E0FB020341
:1000C000F1E4FBFAC9FC8028E830E406E4C9FBE46B
:1000D000CAFCE830E305E4C9CACBFCE85407601069
:1000E000F8C3E913F9EA13FAEB13FBEC13FCD8F1AC
:1000F00030F52FC3E49CFCEF9BFFEE9AFEED99FDDB
:10010000D0E0FBEF4E4D4C701222DB03020416ECE4
:100110002CFCEF33FFEE33FEED33FDED30E7EB0269
:1001200003F1EF2BFFEE3AFEED39FDD0E0FB50136B
:100130000BBB0003020419ED13FDEE13FEEF13FFDA
:10014000EC13FC0203F1EC4D6011E8497017ED333C
:10015000EC3304600DE4FCFFFEFD22E933E83304D8
:1001600070F802040F1203DA58046009E4CC248109
:100170005006285009020419284003020416C0E062
:10018000EB4A7044B98006D0E0FB020405EF4E70E4
:100190001CBD8008EBFFEAFEE9FD80EBE98DF0A4D1
:1001A000FEE5F002022FE9CDF9EAFEEBFFEF89F060
:1001B000A4FCE5F0CE89F0A42EFFE435F0CD89F063
:1001C000A42DFEE435F08067EF4E7005BD80D7802A
:1001D000C3EF8BF0A4ACF0EE8BF0A42CFCE435F074
:1001E000F8EF8AF0A42CE5F038FCE433CB8DF0A4D2
:1001F0002CFCE5F03BF8EE8AF0A42CFCE5F038F896
:10020000E433CF89F0A42CFCE5F038CF3400CE895C
:10021000F0A42FFFE5F03EFEE433C98DF0A42EFEDE
:10022000E5F039CD8AF0A42FFFE5F03EFEE43DFD78
:1002300033D0E0FB50070BBB000F020419EC2CFC81
:10024000EF33FFEE33FEED33FD0203F1020419EC50
:100250005D046005E85904700302040F1203DA58C4
:100260000460F6EC4860F2EC7004FDFEFF22C8600A
:10027000DB2481C85009C398600250060204169816
:1002800050CAF582E9294B4A7005AB820204057514
:10029000F0007C1A7880C3EF9BEE9AED99400DC375
:1002A000EF9BFFEE9AFEED99FDE842F0DC23ACF007
:1002B000D0E0FFD0E0FED0E0FDAB8220E7101BEBEA
:1002C00060BAEC2CFCEF33FFEE33FEED33FD02039E
:1002D000F1E803F830E705C0F075F000EF2FFFEE0E
:1002E00033FEED33FD40B830E7C280AA74F8CC6429
:1002F00080CCC86480C8F58204604FC3EB9FF5F0E2
:10030000EA9E42F0E99D42F0E89C45F0603C501DB9
:10031000E5825FFFE582D313CB5BCBF42B5582FBE9
:1003200050280ABA002409B9002008801DE5825B24
:10033000FBE582D313CF5FCFF4C3132F5582FF5059
:10034000090EBE00050DBD00010CC3EB9FF5F0EAE0
:100350009E42F0E99D42F0E89C45F06007CC4820C1
:10036000E701B3EC2275F020800E75F01080057562
:10037000F0087D007E007F003392D530D503120750
:1003800050EC334010EF33FFEE33FEED33FDEC3332
:10039000FCD5F0ED22E5F0247EA2D513CC92E7CD7A
:1003A000CEFF22EDD2E7CD33EC3392D52481400647
:1003B000E4FFFEFDFC22FCE4CFCECDCC24E05011C6
:1003C00074FF80EDC3CC13CCCD13CDCE13CECF13A1
:1003D000CF0470F030D5DE020750E9D2E7C933E828
:1003E00033F892D5EDD2E7CD33EC33FC5002B2D5E1
:1003F00022EC30E7100FBF000C0EBE00080DBD0050
:10040000040BEB6014A2D5EB13FCED92E7FD227414
:10041000FFFCFDFEFF22E480F8A2D574FF13FC7DF3
:1004200080E480EFE709F608DFFA8046E709F20882
:10043000DFFA803E88828C83E709F0A3DFFA8032FE
:10044000E309F608DFFA8078E309F208DFFA807042
:1004500088828C83E309F0A3DFFA806489828A832F
:10046000E0A3F608DFFA805889828A83E0A3F208C5
:10047000DFFA804C80D280FA80C680D4806980F216
:100480008033801080A680EA809A80A880DA80E29B
:1004900080CA803389828A83ECFAE493A3C8C58238
:1004A000C8CCC583CCF0A3C8C582C8CCC583CCDF7B
:1004B000E9DEE7800D89828A83E493A3F608DFF9F9
:1004C000ECFAA9F0EDFB2289828A83ECFAE0A3C85A
:1004D000C582C8CCC583CCF0A3C8C582C8CCC583AF
:1004E000CCDFEADEE880DB89828A83E493A3F2082A
:1004F000DFF980CC88F0EF60010E4E60C388F0ED2C
:100500002402B4040050B9F582EB2402B404005074
:10051000AF232345822390047473C2D530F707B20A
:10052000D563F0FF05F030E70CB2D5F4048463F036
:10053000FF05F080018430D502F40422BB01068956
:10054000828A83E0225002E722BBFE02E3228982F4
:100550008A83E49322BB010CE58229F582E5833A84
:10056000F583E0225006E92582F8E622BBFE06E983
:100570002582F8E222E58229F582E5833AF583E4D3
:100580009322BB010689828A83F0225002F722BBA4
:10059000FE01F322EF8DF0A4A8F0CF8CF0A428CEBA
:1005A0008DF0A42EFE22C2D5EC30E709B2D5E4C30B
:1005B0009DFDE49CFCEE30E715B2D5E4C39FFFE45B
:1005C0009EFE120811C3E49DFDE49CFC800312080A
:1005D0001130D507C3E49FFFE49EFE22BB0110E566
:1005E0008229F582E5833AF583E0F5F0A3E0225015
:1005F00009E92582F886F008E622BBFE0AE9258291
:10060000F8E2F5F008E222E5832AF583E993F5F0B4
:10061000A3E99322BB010A89828A83F0E5F0A3F063
:10062000225006F709A7F01922BBFE06F3E5F009F0
:10063000F31922E88FF0A4CC8BF0A42CFCE98EF007
:10064000A42CFC8AF0EDA42CFCEA8EF0A4CDA8F03A
:100650008BF0A42DCC3825F0FDE98FF0A42CCD35FE
:10066000F0FCEB8EF0A4FEA9F0EB8FF0A4CFC5F068
:100670002ECD39FEE43CFCEAA42DCE35F0FDE43C61
:10068000FC2275F008758200EF2FFFEE33FECD33AC
:10069000CDCC33CCC58233C5829BED9AEC99E582F3
:1006A00098400CF582EE9BFEED9AFDEC99FC0FD57F
:1006B000F0D6E4CEFBE4CDFAE4CCF9A88222B8006F
:1006C000C1B90059BA002DEC8BF084CFCECDFCE53A
:1006D000F0CBF97818EF2FFFEE33FEED33FDEC335E
:1006E000FCEB33FB10D703994004EB99FB0FD8E5E3
:1006F000E4F9FA227818EF2FFFEE33FEED33FDEC2C
:1007000033FCC933C910D7059BE99A4007EC9BFC21
:10071000E99AF90FD8E0E4C9FAE4CCFB2275F010AD
:10072000EF2FFFEE33FEED33FDCC33CCC833C810D2
:10073000D7079BEC9AE899400AED9BFDEC9AFCE800
:1007400099F80FD5F0DAE4CDFBE4CCFAE4C8F9224D
:10075000C3E49FFFE49EFEE49DFDE49CFC22EB9F2E
:10076000F5F0EA9E42F0E99D42F0EC6480C86480B6
:100770009845F022EB9FF5F0EA9E42F0E99D42F0A9
:10078000E89C45F022E8600FECC313FCED13FDEE8E
:1007900013FEEF13FFD8F122E493FC740193FD7470
:1007A0000293FE740393FF227401FF3395E0FEFD74
:1007B000FC080808E62FFFF618E63EFEF618E63DB0
:1007C000FDF618E63CFCF622ECF0A3EDF0A3EEF00B
:1007D000A3EFF022A8828583F0D083D0821207EBAA
:1007E0001207EB1207EB1207EBE473E493A3C58344
:1007F000C5F0C583C8C582C8F0A3C583C5F0C5834D
:10080000C8C582C822A42582F582E5F03583F58328
:1008100022BC000BBE0029EF8DF084FFADF022E476
:10082000CCF875F008EF2FFFEE33FEEC33FCEE9DB5
:10083000EC984005FCEE9DFE0FD5F0E9E4CEFD22DC
:10084000EDF8F5F0EE8420D21CFEADF075F008EF67
:100850002FFFED33FD4007985006D5F0F222C398E4
:10086000FD0FD5F0EA22123BC98F26123BFE920AF9
:10087000C20B123A458E248F25900045E06009C3D3
:10088000940B7480948040069000457404F012200C
:10089000C9B40B004003020B6A9008A0F828287323
:1008A0000208DA0208C1020A6B020A06020A8C0276
:1008B0000AA0020AB3020AC6020AED020B21020BC9
:1008C00045C204200A03020B6A1237955003020B3B
:1008D0006AE4900052F0FF020975E525640545249D
:1008E0007011C204D3300301C39203900044740812
:1008F000F08018300315D3E5259400E52464809436
:10090000805005123B815003756406300303020BCF
:100910006AE52564064524700DD3300401C39204B2
:100920009000447402F0300427123C1C4003020B78
:100930006A7F667E667D4612205B6009400720065E
:10094000047F088030122055603640347F07806471
:10095000E525640145246004E52660267F9A7E999A
:100960007D3912205B6010400E3002047F0280054A
:10097000900045E0FF803D12205560044002803C1D
:100980008050E52564024524702F30060280437FA5
:10099000667E667D4612205B600740057F08020B7D
:1009A0001C1220556011400F3002047F0280059018
:1009B0000045E0FF020B1C8019300A057F03020B83
:1009C0001C1221117012122055600740057F090288
:1009D0000B1C756406020B6AE52564044524701837
:1009E000D3300201C392027F082002027F098F6484
:1009F000C20C122E70020B6A123C234003020B6AD7
:100A0000123C13020B6A7D037F011232ABAF26EF5B
:100A10003395E0FEE4FDFC123760E52564014524D2
:100A20007003123ADE200A0B1220D264014E6003DA
:100A3000020B6A7F9A7E997D3912205B6002500317
:100A4000020B6A7F043002027F02122BEE1220D2C8
:100A500064014E7003020B6A30020312388A900060
:100A600046E04440F0750E04020B6A200513122084
:100A7000D264044E70057F03122BEE120C2D120C63
:100A80004F121B52AF26121A2A020B6A7D047F01F5
:100A90001232AB120C2D120C4FAD267F05020B67E4
:100AA0007D04120C05120C57AD267F061238DE7F2E
:100AB0000480357D05120C05120C57AD267F0712F8
:100AC00038DE7F0580227D06120C19AD25AC24127C
:100AD0003760E4FD7F041238DE1220D264014E70CC
:100AE000057F03122BEE7F06123B2C807D7D0712C3
:100AF0000C19EF64014E600BE52564024524600388
:100B000030080A7F043002027F02122BEE1220D23C
:100B100064034E600512211170507F09122BEE8084
:100B2000497D09120C3C70082006057F08122BEE47
:100B3000122111700A7F043002027F02122BEEADE7
:100B4000267F0A80227D0A120C3C70082006057F51
:100B500008122BEE122111700A7F043002027F026C
:100B6000122BEEAD267F091238DE90004412207160
:100B7000400B90005BE4F0A37450F0805FAF0EEF89
:100B8000122073400A74FF90005BF0A3F0804D12B6
:100B900020C924FE601824F8602C0470323010083C
:100BA000122130FFAEF080217EFF7FFF801BC3E566
:100BB0000D9509E5081220E35006AE0CAF0D800438
:100BC000AE08AF09800312261E90005BEE8009126A
:100BD0002081FF90005BE5F0F0A3EFF0D20B123A1A
:100BE00045301608AF26EF12207350091220FAEF95
:100BF00064184E700FC216900042E004F01220C933
:100C0000FF12298722E4FF1232ABAF25AE24123B3C
:100C1000A6AF26EF3395E0FE22E4FF1232ABAF25FC
:100C2000AE24123BA6AF26EF3395E0FE22AF25AEF1
:100C300024123BA6AF26EF3395E0FE227F0112324D
:100C4000ABAF25AE24123BA6E5256402452422ADB8
:100C500025AC2412376022AD25AC24123760228FD8
:100C60002712053CFF14601514602814603D1460C1
:100C70003A2404705C1228EE12293580291228EEDD
:100C8000F5827401F52C85822DE582F4F582752EAE
:100C90000080131228EEF4F582752C0085822DED6C
:100CA000F5827401F52E85822F8026ED1229358577
:100CB000822FEDF5827401F528858229EF64047096
:100CC00007EDFF7401FE8005EDF4FF7E008E2A8F94
:100CD0002B9000011205557007EDFF7401FE800591
:100CE000EDF4FF7E008E308F3190000212055570BA
:100CF00007EDFF7401FE8005EDF4FF7E00E527148B
:100D00007003020D9B147003020E1E147003020E7A
:100D1000A124036003020F2BE528AB9A30E006E51F
:100D2000294BFD8004E5295BFD8D9AE52A30E0081A
:100D300090F009122955800690F00912295C90F074
:100D400009EDF0E52C30E005122945800690F00A07
:100D500012296390F00AEDF0E52E30E00512294DDE
:100D6000800690F00B12296A90F00BEDF0EE30E067
:100D700005122979800890F00CE0FBEF5BFD90F004
:100D80000CEDF0E53030E005122971800690F00D91
:100D9000122980AF0590F00DEDF022E528ABA130CF
:100DA000E006E5294BFD8004E5295BFD8DA1E52AE0
:100DB00030E00890F019122955800690F019122998
:100DC0005C90F019EDF0E52C30E005122945800625
:100DD00090F01A12296390F01AEDF0E52E30E0053C
:100DE00012294D800690F01B12296A90F01BEDF03D
:100DF000EE30E005122979800890F01CE0FBEF5BF3
:100E0000FD90F01CEDF0E53030E005122971800610
:100E100090F01D122980AF0590F01DEDF022E5281D
:100E2000ABA230E006E5294BFD8004E5295BFD8D92
:100E3000A2E52A30E00890F029122955800690F0AA
:100E40002912295C90F029EDF0E52C30E0051229FB
:100E500045800690F02A12296390F02AEDF0E52EE5
:100E600030E00512294D800690F02B12296A90F08F
:100E70002BEDF0EE30E005122979800890F02CE09F
:100E8000FBEF5BFD90F02CEDF0E53030E005122932
:100E900071800690F02D122980AF0590F02DEDF0B5
:100EA00022E528ABA330E006E5294BFD8004E529C7
:100EB0005BFD8DA3E52A30E00890F03912295580BA
:100EC0000690F03912295C90F039EDF0E52C30E015
:100ED00005122945800690F03A12296390F03AED08
:100EE000F0E52E30E00512294D800690F03B1229E6
:100EF0006A90F03BEDF0EE30E008A3E0FDEF4DFF2F
:100F0000800890F03CE0FDEF5DFF90F03CEFF0E5F5
:100F10003030E009A3E0FDE5314DFF800990F03D60
:100F2000E0FDE5315DFF90F03DEFF02275240075A6
:100F3000254078007C007D017BFF7A3E79827E002F
:100F40007F141204F4E4FFFE7DB07C40AB56AA553A
:100F5000A954A8531202EC5003021146122E521249
:100F6000053C6003021146C283C285C281D20A12C7
:100F70003A03D2847F057E001226D61200477F6690
:100F80007E667D867C40AB4EAA4DA94CA84B1202D2
:100F9000EC6002500DE525152570021524122E2C4B
:100FA00050D2E52545247007C2847F0102114375A4
:100FB0002400752564C2847F147E001226D6C20ADE
:100FC000123A031200477F0A7E001226D6752600C9
:100FD000752704122E25C333CE33CED8F924FCF561
:100FE0008274FF3EF583122DF8C004C005C006C010
:100FF00007122E25C333CE33CED8F9122E59D0077F
:10100000D006D005D0041207C8E5271527700215B1
:1010100026E527452670BCAF4EAE4DAD4CAC4B908F
:1010200000001207C89000141207D400000000E46A
:10103000F526F527122DF5C004C005C006C007121D
:101040002E25C333CE33CED8F9122E04D007D006C6
:10105000D005D0041200559000141207C80527E5EA
:1010600027700205266405452670C9122DF579A062
:101070007840122E639000141207C89000181207CF
:10108000D400000000E4F526F527900018122DF892
:10109000C004C005C006C007122E25C333CE33CE10
:1010A000D8F9122E04122DF5120051E4FBFAF9F8CA
:1010B0001202EC500F122E25C333CE33CED8F912C4
:1010C0002E04801A122E25C333CE33CED8F9122E19
:1010D00059122DF8E4FBFA798078BF122E46122DB2
:1010E000F5120051AB07AA06A905A804D007D0063F
:1010F000D005D0041200559000181207C80527E546
:10110000277002052664054526600302108AC3E5A0
:1011100025945D122E315013E4FFFEFD7C3F9000BC
:1011200018122E0D1202EC60025010E525152570E4
:10113000021524122E2C4003020FC3E5254524700E
:10114000057F0212000E2290001EE014B409004038
:101150000302134390116275F003A4C58325F0C503
:10116000837302117D02118B02124102126C021272
:10117000980212C30212F502132102133390001CCD
:10118000E4F0A3740EF0A37402F02290001CE0FEC1
:10119000A3E0FFD3940CEE64809480400575640353
:1011A0008023D3EF940AEE64809480400575640236
:1011B0008013D3EF9408EE64809480400575640139
:1011C0008003E4F5641220444003021343AF56AE9B
:1011D00055AD54AC5312200290005DE0FF3395E012
:1011E000FEEF64024E700990002F121F83121FF74A
:1011F00090002F121F83FF1203A3AB07AA067C00E7
:101200007D641205A6EF4E600675640902132C8AF0
:101210002C8B2DAE2CAF2D7C007D0A1205A68E2CBA
:101220008F2DE52D452C7005122014800D12204EB7
:10123000C333CE33CED8F9121FC290001E7403F010
:101240002290001CE0B4FF0AA3E0B4FF057F011266
:101250001344121F8E40027F011220084003021324
:1012600043122026740AF0A37404F022121FB24025
:101270000302134390002F121F83121FD070051218
:101280002014800D12204EC333CE33CED8F9121F56
:10129000C290001E7405F02290001CE0B4FF0AA367
:1012A000E0B4FF057F02121344121F8E40027F023A
:1012B0001220084003021343122026740AF0A3747C
:1012C00006F022121FB2507B90002F121F83121FB4
:1012D000F790002F121F83121FD070051220148068
:1012E0000D12204EC333CE33CED8F9121FC2900058
:1012F0001E7407F02290001CE0B4FF0EA3E0B4FFC0
:10130000097F0312392DE4122016121F8E40027F2E
:1013100003122008502D122026740CF0A37408F03C
:1013200022121FB2501D90002A740CF090001E74FF
:1013300009F02290002AE0700A123C234005E49054
:10134000001EF02212392DE490001CF0A3F022E5DB
:101350006270047F0680411236B3D3EF9441EE648D
:101360008094804002D208D3EF943CEE6480948055
:101370004004D206800DC3EF9432EE648094805016
:1013800002C206300805200602C208D3EF944BEED5
:101390006480948040057F0702000E1236B3123637
:1013A000D6500D900052E064077005F0FF122BEE4E
:1013B0001236CA7002C2071236B3D3EF9434EE6409
:1013C0008094804004D207801D1236D650189000B9
:1013D0004EE07002A3E0700E90004BE0B49E07A3B5
:1013E000E0B45802C20720070EE490004BF0A3F0CF
:1013F00090004EF0A3F02220150302152C1236B3F4
:10140000EF24CCFFEE34FFAB07FAD3EB9402EA648F
:101410008094804076900059E0FEA3E0780CCEA244
:10142000E713CE13D8F82401FFE43EFEAD03AC026F
:101430001205948E248F2590005EE0FEA3E0FFD37A
:1014400090005CE09FEE6480F890005BE064809820
:10145000400C90005EE0F526A3E0F527800A90009E
:101460005BE0F526A3E0F527E5272424FFE52634F5
:10147000FAFE90004EE0FCA3E0FDC3EF9DF527EEE1
:101480009CF526C31236BB503D802EC3EA6480947F
:101490008050417C007D03AF03AE021205A68E246E
:1014A0008F2590004EE0FEA3E0FFC3E49FF527E404
:1014B0009EF526D31236BB400DE02525F090004E58
:1014C000E03524F0800E90004FE02527F090004E8C
:1014D000E03526F090004DE014F0E0704F74FFF01E
:1014E000D3EB9400EA64809480401D90004CE0941B
:1014F000A890004BE0648094E1500DA3E004F070EC
:101500002B90004BE004F022C3EA64809480501CCE
:1015100090004CE0945890004BE06480941E400C86
:10152000A3E024FFF090004BE034FFF022C39000D2
:1015300029E0942C900028E0648094815071E4FFAD
:10154000FE7D7A7C44AB52AA51A950A84F120146A5
:101550001203A38F2B8E2A8D298C28900029E0045A
:10156000F07006900028E004F0121F80252BFFEE9B
:10157000352AFEED3529FDEC3528FC9000241207B4
:10158000C8121FE8C312202F500A900020E52AF04D
:10159000A3E52BF0900022121FEBD312202F500353
:1015A000021627900022E52AF0A3E52BF08078129E
:1015B0001F80FFC004C005C006C007900022E0FEE7
:1015C000A3E0FBAA06EA3395E0F9F8121FE8EF2B37
:1015D000FBEE3AFAED39F9EC38F8D007D006D00531
:1015E000D004C3EF9BFFEE9AFEED99FDEC98FC1240
:1015F0001F7AFFC006C007900029E024FEFF90007C
:1016000028E034FFAB07FA3395E0F9F8D007D006AD
:10161000123617121F7AFFEC12036512203A90005F
:101620002B1207C812397812201D64027006AC0A0A
:10163000AD0B800FAB10AA11A9129000051205DCAA
:10164000FDACF0EC12036A12203A8F278E268D250E
:101650008C247FCD7ECC7D2C121F6760054003C398
:101660008001D39219301904C218802BAF61EF3377
:1016700095E0FED3EF944BEE648094804004D21842
:101680008015AF27AE26AD25AC24121F696005403A
:1016900003C38001D392181230A7AF64EF640660D1
:1016A0004FAF64EF64086048AF64EF640960419035
:1016B0000052E06003022FCA12201D700690002A1B
:1016C000E0602190001FE014600E14600F146010A1
:1016D0002403701C75640322756402227564012260
:1016E0007564042290001EE06003021147E4F56473
:1016F000228E2D8F2E8D2F90F692E030E708E4FF9A
:10170000FEFD7C408003123356123344AC2DAD2EC7
:10171000EC12036AC004C005C006C007E4FBFA79F6
:10172000807845AF37AE36AD35AC3412024FD003BA
:10173000D002D001D0001201468F3B8E3A8D398CF9
:1017400038E52F605924FA70030217D624FE70037F
:1017500002183024FB700302185B24EE601424117D
:10176000600302189A853B5E853A5D85395C853851
:101770005B22AC2DAD2EEC12036AA804A905AA06C3
:10178000AB077F9A7E997D997C4512024F8F338EED
:10179000328D318C308F5A8E598D588C572275333B
:1017A0003575324875310312332B8F568E558D5453
:1017B0008C5390005DE0FC12036FA804A905AA06F3
:1017C000AB07AF56AE55AD54AC5312024F8F528E8D
:1017D000518D508C4F2275332D7532A675313312D1
:1017E000332B8F4E8E4D8D4C8C4BAB56AA55A95436
:1017F000A85312024FE4FBFA79C878421201468FCF
:10180000338E328D318C301203A38F61EF3395E02C
:10181000FED3EF9464EE648094804003756164AFFE
:1018200061EF3395E0C364809480506EE4F56122EB
:10183000123322123356120051C004C005C006C034
:10184000077D4812331D120146D003D002D001D0CB
:10185000001233411203A38E5F8F601233221233C2
:1018600056120051C004C005C006C0077DA5123342
:101870001D120146D003D002D001D000123341E442
:10188000FBFA797A78441201461233441203A37B9F
:10189000007A00796212213D8F4A22AF1EEF339504
:1018A000E0FEC3EF9404EE648094805007E4F524D6
:1018B000F525802890005EE0FEA3E0FFD390005C59
:1018C000E09FEE90005B122E699840068E248F25D3
:1018D000800A90005BE0F524A3E0F5251234E6D3FE
:1018E000E5259FEE6480F8E5246480984007123473
:1018F000E68E248F25900059E0FEA3E0FF65257059
:1019000003EE65247003021A29C3E5259FFFE52431
:101910009EFED3EF9470EE648094974002D2143010
:101920001474D3E5259400E5246480948040679086
:101930000059E07002A3E0700C9000597405F0A308
:1019400074DCF0803B122E5212053C24F660130426
:10195000702090005AE024B8F0900059E0340BF069
:10196000801E90005AE024F4F0900059E03401F019
:10197000800E90005AE02405F0900059E03400F009
:10198000C390005AE09525E524900059122E6998DD
:10199000400EC2148003900059E524F0A3E525F021
:1019A000900059E0FAA3E0FBD39400EA64809480AD
:1019B0005020C2849000551207D400000000C215C8
:1019C000BAFF06BBFF03D38001C39281C283C285E5
:1019D0008055C390005AE094F4900059E0648094DC
:1019E0008150028001C3920A201519A20AB3928184
:1019F000D284A20A9283A20AB392857F057E001246
:101A000026D6D215E4FFFE300A067DFA7C43800418
:101A10007DC07C3F900059E0F52AA3E0F52B12220F
:101A2000FA9000551207C8D211228F27123C23408A
:101A300005123C1C5003D38001C3920B122081126B
:101A400020DB500AAC0CAD0DAE04AF0580008E2833
:101A50008F29122130FFC3E5299FE5F06480F8E566
:101A600028648098500B300B081220BA40031221D2
:101A70003620050EAF271220D464014E7050D205D7
:101A8000804C30010A0509E509700C05088008E55D
:101A900009150970021508900003122084FFAEF0AA
:101AA000D3E5099FEE1220C05006D2018E088F099F
:101AB0001220B94005C201122136AF271220D4648A
:101AC000014E6005123B815005C205750F1E123C88
:101AD0001C500D20000A0509E509701E0508801A32
:101AE000123C23500D20000AE50915097002150863
:101AF0008008200B05300002C200123C1C50102050
:101B0000000D1220B94008750E04122136D20012C1
:101B10003C235025200022AB10AA11A912900003EB
:101B20001205DCFFAEF0D3E5099FEE1220C050098C
:101B3000750E048E088F09D200300B04E4F50F22D5
:101B4000AF0F1220D464204E7007050FC20C122E66
:101B50007022301803021BDF301903021BDFE490F0
:101B60000043F090001FE06003021C591220811214
:101B700020DB506590004AE0FD700404F08010ED19
:101B80001221229409EC648094805003021C599025
:101B9000004A7401F09000051205DCFDACF0D3E5BD
:101BA0000B9DEC6480F8E50A64809840068C0A8DF1
:101BB0000B800B7432250BF50BE4350AF50AD312B2
:101BC00020DF4009122081F50D85F00C2274FA25E2
:101BD0000DF50DE4350CF50C22E490004AF022E4FA
:101BE00090004AF09000431220FDEF4E7003748085
:101BF000F0900043E0547FF527301913FF3395E050
:101C0000FED3EF9404EE648094804003023ADEAF8A
:101C100027EF3395E0FED3EF9409EE648094804083
:101C200038D3E50D94EEE50C64809482400C740684
:101C3000250DF50D74FF350CF50CD3E50B94BEE5C1
:101C40000A6480948A400C74E7250BF50B74FF3509
:101C50000AF50A9000437480F022E549640370029B
:101C6000F549E549146042147003021D0A1470031B
:101C7000021D5124036003021D4ED20A123B42E4AE
:101C8000F528F52974A82529F582743E3528F583B1
:101C9000E493FF123310EFF00529E52970020528BF
:101CA0006406452870DE021D49E4F528F529123343
:101CB00010E0FF12335F400F1233694018EF941F9A
:101CC000EE64809480500E0529E529700205286491
:101CD00006452870D9C3E5299406E52864809480D8
:101CE0005023123310E0F52CFF3395E0FE4F6006D1
:101CF000EF64064E7005C20A123B42AF2C12353615
:101D0000754902804C754903804775300075310074
:101D100075322C7B007A00792A122839EF4E603117
:101D2000AD2CAF2BAE2A1216F1E4F528F5291233AB
:101D300010E0B52C0612331074FEF00529E5297069
:101D40000205286406452870E57549018003E4F51D
:101D500049900041E06009E54964036003021C5AB0
:101D600022300923900061E0FF3395E0FEC3EF9439
:101D70000CEE648094805005E004F0800AE490004A
:101D800061F0C2A4C2A522E564B40A004003021EA9
:101D900062901D98F8282873021DB6021DC8021D06
:101DA000BE021DC3021DCD021DCD021E08021E6211
:101DB000021E08021E08C2A4C2A5E4F56322D2A432
:101DC000D2A522C2A4D2A522D2A4C2A522C2A5E530
:101DD00063547FFFAE64EE64047E0070027E03C332
:101DE000EE6480F8EF64809850090F536380EF42EF
:101DF00063800B123C097F8060027F008F63123C7E
:101E000009C36001D392A42253637FAF64EF6409D6
:101E10006007AF64EF640870047F0680027F0AD316
:101E2000EF6480F8E5636480984008C2A5C2A4E42A
:101E3000F56422E56375F00212051AAFF0EFC36096
:101E400001D3920AAF64EF64087003C38002A20A50
:101E500092A4AF64EF64087004A20A8001C392A543
:101E6000056322201506E4900054F022900054E00F
:101E7000FF3395E0FEC3EF9404EE64809480500439
:101E8000E004F022900053E0540FF5247D901239C5
:101E90005360054003D38001C3920A7FCD7ECC7D81
:101EA0008C7C40AB52AA51A950A84F1202EC60079B
:101EB00040057F0412000E7F667E667D061239564D
:101EC000400F7F9A7E997D997C4012396D600C405D
:101ED0000A7D02123965E4F5258049E4FFFE7D8024
:101EE0007C3E12396D40097DF0123953600A40087A
:101EF000123963752501802CA21A300A01B35008EB
:101F0000123963752502801CAF24EF3395E0FED3B0
:101F1000EF9400EE648094804006E52414FF800274
:101F20007F008F24E525C454F04524900053F0AF82
:101F300024EF3395E0FEC3EF9408EE648094804074
:101F40001FE0FF7804A2E713D8FB540F24FE6007BC
:101F50000470087F0580067F0980027F0312000E4F
:101F6000227D4C7FCD7ECC7C4090002BE0F8A3E01E
:101F7000F9A3E0FAA3E0FB0202EC9000241207C8E8
:101F8000900024E0FCA3E0FDA3E0FEA3E02290008B
:101F90001CE0FAA3E0FB7C007D04FFAE021205A664
:101FA0008C2C8D2DD3E52D9401E52C648094807FBD
:101FB0000022D390001DE0940090001CE064809407
:101FC000802224FFFFEE34FF90001CF0A3EFF022EC
:101FD000FF1203A38E2C8F2D7C007D0A1205A68C88
:101FE0002C8D2DE52D452C22900020E0FEA3E0FF56
:101FF000EE3395E0FDFC22FFE4FBFA7920784112F4
:10200000014690002F0207C88F64D3EB9400EA6466
:102010008094802274FF90001CF0A3F022AB10AAE1
:1020200011A91202053CE4F56490001CF0A322AB58
:102030002BAA2AA929A82802075EE4FBFA797A7854
:102040004402024FD3EF9400EE6480948022AE2CC1
:10205000E52D7802227FCD7ECC7D2C7C4090002B1C
:10206000E0F8A3E0F9A3E0FAA3E0FB0202EC9000A1
:1020700048E0FF3395E0FED3EF9400EE6480948057
:1020800022900001AB10AA11A9120205DC75F00420
:10209000900048E0FD12051AAFF0EF3395E0F52708
:1020A0008F28D3E5282275F00AED120805EC75F0AB
:1020B0000AA42583F583E49322C3E5099529E5283D
:1020C0006480F8E50864809822AB10AA11A9120276
:1020D000053CAF26EF3395E0FEEF22FFAEF0C3E5FF
:1020E0000D9FEE6480F8E50C64809822E054C0F007
:1020F000C3ED9406EC6480948022900042E0FF33AC
:1021000095E0FE22E0FF543FF524FD3395E0FC4DC1
:1021100022E52564034524229401E5276480948008
:1021200022FD3395E0FCC3ED22EDFF3395E04F2215
:102130009000010205DC852808852909228B3C8A4C
:102140003D893E8F428E418D408C3F7FD57E2C7DD8
:10215000517C00D31239F840061239EE7FD822E4C0
:102160007FE37E0AC31239E150061239EE7F7D22E9
:1021700074011239EFE47FF57EF5D31239E140386E
:10218000E4F543F544AE43E5447802C333CE33CEA1
:10219000D8F92432F582743C3EF583120798C312B5
:1021A00039F84006E54424D8FF220544E54470028E
:1021B0000543644B454370CDE4F543F544E54425C0
:1021C000E0FFE54333FE745E2FF582743D3EF583F8
:1021D000E493FE740193FFE48F488E47F546F5457E
:1021E000E548F548E547F547E4F546F545AF42AE25
:1021F00041AD40AC3FAB48AA47A946A845D312071A
:10220000745006E5442423FF220544E5447002058A
:1022100043645B454370A61239EEFF22E4F5DE907D
:10222000F692F090004104F0E4F549FFEFFD33959C
:10223000E0FCC3ED9406EC648094805015EF339578
:10224000E0FC74332DF58274003CF58374FEF00FCE
:1022500080DA9000391207D40000000012334DF0EC
:10226000A3F07D021222E97D027F02122EE9E47DB5
:10227000011222E97D037F01122EE9E4FBFDFF122A
:102280002EE9752403E4F525F526FB7D047F031272
:1022900022DB7D047F02120C5F7B007D027F011236
:1022A00022DB7D01E4FF120C5F7B007A0079247D44
:1022B000027F03120C5FC20B7F031222F27F021215
:1022C00022F27D017F03122566C20B7D037F01127E
:1022D0002566C20BE4FD7F030225667A007924128D
:1022E0000C5F7B007A00792422FB7F03122EE9E445
:1022F000FB227D02122566C20B228F298E288D2794
:102300008C26122E52900009120555F53012053C0C
:102310006402700FAE2AAF2BFC7DCD1205A6EF250F
:1023200030F530AC2AAD2BEC12036AAB29AA28A9F0
:1023300027A826122E19797A7844122E63122E1CA1
:102340007B9D7A69795C783C12024F122E1CAB2F70
:10235000AA2EA92DA82CC000C001C002C003AC3019
:10236000EC12036FE4FBFA79C8784212024FD003F3
:10237000D002D001D000122E19C004C005C006C082
:1023800007E4FFFE7D7A7C44AB5AAA59A958A857A6
:10239000122E46D007D006D005D00412024F122EBE
:1023A0001CE4FBFA79C87842122E19E4FFFE7DC8BE
:1023B0007C42AB2FAA2EA92DA82C1202EC600A4059
:1023C00008E4FFFE7DC87C4222AF2FAE2EAD2DACBF
:1023D0002C22120047855F24856025D3E52594646F
:1023E000E524648094804010749C2525F52574FFB5
:1023F0003524F524C21B8002D21BE4FBFA74962B11
:10240000F582743E3AF583E493FF7E002404FDEEEA
:1024100033FCD3E5259DEC6480F8E5246480985076
:102420006DEF24FCFFEE34FFFEC3E5259FEE6480D4
:10243000F8E5246480984056749E2BF582743E3AE9
:10244000F583E493FF7E007C007D64120594900088
:102450005EEEF0A3123BF28005C333CE33CED8F943
:10246000FF903EA7E493FDEF5D7F0260027F039043
:10247000005D123BF28005C333CE33CED8F9FF9016
:102480003EA6E493FDEF5DC36001D3921A220BBB1D
:1024900000010AEB64084A60030223FD7F08120072
:1024A0000E22E4F524F525F526FB7F0312255C7B3F
:1024B000007F0212255C7F011225467B007A00799D
:1024C000247D01E4FF120C5F7F031225467D02127A
:1024D00025527D027F02122EE97D011225527D03D5
:1024E0007F01122EE97B01E4FDFF122EE975240322
:1024F000E4F525752601FBFD7F03122EE97B007AAA
:102500000079247D017F03120C5FD20BE4FD7F0371
:1025100012256675DF4075DE60E4F5E9F5D1F5D387
:1025200075D50F75D4FF90F69274A0F0E4F549903C
:1025300000391207D40000000012334DF0A3F0A3BD
:1025400004F043DE80227B007A0079247D02120CA5
:102550005F227B017F03122EE97B01227A0079241E
:102560007D04120C5F22EF14603814605F14700356
:102570000225F62403600302261D122918400302D7
:10258000261D300B0EA8057401088002C333D8FC49
:10259000428022A8057401088002C333D8FCF4529B
:1025A0008022122903507612290F4071300B0EA899
:1025B000057401088002C333D8FC429022A8057438
:1025C00001088002C333D8FCF45290221228E25052
:1025D0004C1229214047300B0EA8057401088002D7
:1025E000C333D8FC42A022A8057401088002C3337B
:1025F000D8FCF452A022ED1228E65021300B0EA890
:10260000057401088002C333D8FC42B022AF05A88C
:10261000077401088002C333D8FCF452B022900042
:1026200049E0B4070040030226D2902631F828285A
:102630007302264602265302266E02267C02269C40
:102640000226AA0226CA900048740BF0A37401F077
:102650000226D212208D1221184002805512212903
:1026600070709000487407F0A37402F08064122028
:102670006E505F7423F0A37403F0805675F00C1253
:102680002090940512211A400280271221297042BD
:102690009000487407F0A37404F0803612206E5046
:1026A00031740BF0A37405F0802812208D122118CC
:1026B0004007122081FFAEF02212212970149000F1
:1026C000487423F0A37406F0800812206E5003E4CF
:1026D000A3F0E4FEFF228E2E8F2FE4F534F535E5CE
:1026E0002F452E700302278B0535E5357002053422
:1026F000AE2EAF2FEE3395E0FDFCE47BA07A0FF910
:10270000F81206338F338E328D318C30C006C007FD
:10271000AE34AF35AB07AA06EA3395E0F9F8D00737
:10272000D0061206BE8F338E328D318C30E47FFF9F
:102730007EFFFDFCAB33AA32A931A830C312077467
:1027400050A6C374FF9533F53374FF9532F532E428
:102750009531F531E49530F530AF33AE32AD31AC73
:102760003078081207858F8CE533FF8F8AC20E43BD
:102770008810E58820E503300EF85388CFE535153D
:102780003570021534E535453470CE222011030230
:10279000283830131990F129E060030228387F01AE
:1027A000301201FF90F164EFF0C211C213227DC814
:1027B0007C42123B941202EC600C400A90005512CD
:1027C00007D442C80000E4FFFEFDFC123B97120252
:1027D000EC500A9000551207D400000000AF27AE5D
:1027E00026AD25AC24EC4D4E4FC36001D392127D33
:1027F000FA7C45123B94120146E4FBFA798078BFDB
:102800001200558F278E268D258C24E4FBFA79C87B
:10281000784212024F8F278E268D258C241203A317
:10282000AD07AC06ECFFEF90F141F0ED90F140F018
:10283000D21390F1297401F0228B2D8A2E892FE575
:10284000DF30E102805090003EE004F0700690001E
:102850003DE004F0900039E0F8A3E0F9A3E0FAA32A
:10286000E0FBAFDDEFFEADDCEDFFEE3395E0FDFC10
:10287000EB2FFFEA3EFEE93DFDE83CFC90003912FB
:1028800007C8C390003EE0940A90003DE064809445
:1028900080500743DF02E4FEFF22900039E0FCA3F2
:1028A000E0FDA3E0FEA3E0FFE47B0AFAF9F81236AC
:1028B000179000391207C8900039A3A3E0FFA3E0E6
:1028C000AB2DAA2EA92FCF8FF012061490003FE057
:1028D000AB30AA31A932120582E4900040F0FE7FAD
:1028E0000122EDFF7E00D394067480948022EDF4E3
:1028F000F58275830085832885822985832A8582D0
:102900002BED22EDFF7E00D394077480948022C3C8
:10291000EF94037480948022EDD3940574809480A6
:1029200022C3EF94017480948022FBE434F0FAA86F
:102930000574010822F4F58275830085832C858255
:102940002D85832E22A3E0FBE52D4BFD22A3E0FB8A
:10295000E52F4BFD22E0FBE52B4BFD22E0FBE52BB9
:102960005BFD22E0FBE52D5BFD22E0FBE52F5BFD3F
:1029700022A3E0FBE5314BFD22A3E0FBEF4BFD2260
:10298000E0FBE5315BFD228F30D20D123BB8753193
:10299000027532007F11122A1DAF3412002E401D25
:1029A00012003D5018E53414F5330532E53270025B
:1029B0000531C394FCE5316480948340D7E53064ED
:1029C000017002F530AF30EF6408600AEF6409600F
:1029D00005EF640A7011AF33EF3395E04F60058562
:1029E00033308003753004E533B530028029E53299
:1029F000B4FC10E531B4030B7531027532007F1D54
:102A0000122A1DE53004F5347B007A007934AD32AA
:102A1000AC317F1912382FC20D123BB8227B007ADD
:102A2000007934AD32AC3112382F2278FFE4F6D879
:102A3000FD9000007F007E04E4F0A3DFFCDEFA7569
:102A40008164022A80022D78E493A3F8E493A340E2
:102A500003F68001F208DFF48029E493A3F8540719
:102A6000240CC8C333C4540F4420C8834004F45614
:102A7000800146F6DFE4800B01020408102040804C
:102A80009031E1E47E019360BCA3FF543F30E5093F
:102A9000541FFEE493A360010ECF54C025E060A84C
:102AA00040B8E493A3FAE493A3F8E493A3C8C582DF
:102AB000C8CAC583CAF0A3C8C582C8CAC583CADF4D
:102AC000E9DEE780BEEF14602214603C14605624F7
:102AD0000370741229184002806DED248012292A97
:102AE0008002C333D8FC55ACFC806012290350052A
:102AF00012290F50028050ED248812292A8002C327
:102B000033D8FC55ADFC80431228E2500512292130
:102B100050028033ED249012292A8002C333D8FC5E
:102B200055AEFC8026ED1228E64002801AED24986E
:102B3000FBE434F0FAAF05A8077401088002C33340
:102B4000D8FC55AFFC8004E4FEFF22EC7003FEFFCE
:102B5000228B828A83E05403FF7E00227D087F025D
:102B600012385E403D900060E025E0F030A303E0C5
:102B700004F0900060E0FFFD7C00F46003ED702243
:102B8000E4F5B6EDF44CD37001C3921CEFF47B0175
:102B900070027B027D037F021234307D087F0212B7
:102BA0003AA2301C08E51630E703751680301C2762
:102BB000E51564857021120003D3EF9400EE648064
:102BC00094804005123AFC800BE4F519F51B75184A
:102BD00001751701E4F515201C13E5166484700DCA
:102BE000F516E5177004751A0122E4F517228F2AED
:102BF0001220C9F52F122130F52E85F02DE4F52B8A
:102C0000F52C903E1475F00AE52C120805E52B1200
:102C100020AE652A7046900049F0AE2BAF2CFC7DAB
:102C20000A12059474142FF9743E3E7510FFF511C5
:102C30008912E52F6408700DE52A64086007AF2E3D
:102C4000AE2D123246E52F700AE52A6006FF1229E2
:102C5000878005E4900042F0E4FEFF22052CE52C7D
:102C60007002052BC3940BE52B6480948040937E07
:102C7000007F0122752403E4F525752601C20B7D32
:102C800002FF1225667B007A0079247D04E4FF129E
:102C90000C5F7B127D02E4FF122EE990F120E4F03C
:102CA000A304F090F123F090F12A74FFF090F12248
:102CB000E4F090F12704F0A3F090F160E4F090F1DB
:102CC00065F090F16404F090F131741FF090F130F0
:102CD000743FF090F141E4F090F140F09000551213
:102CE00007D400000000C213C21190F166E4F09016
:102CF000F12604F0023BD912206E4003E014F012DA
:102D000020FAC3EF9418EE648094805003E004F03E
:102D100090004A122071400DEF9409EE6480948077
:102D20005003E004F0AF0FEF3395E0FEC3EF9420C3
:102D3000EE648094805002050FAF0EEF12207340B6
:102D400002150E9000441220714003E014F0900030
:102D500043E0FF30E71C547FFEEF5480F0EE122179
:102D600021940AEC6480948050010E900043E04E60
:102D7000F022E4900043F022123B6CD20B12390691
:102D800012365B1224A21223D212004A1238B61253
:102D900033D21235CD122C74123373120F2C123120
:102DA00011E4900041F043A880120047122B5C12FE
:102DB0003C3112152D12086612134F12189B122760
:102DC0008C300FE5C20F1237FD123C3012399C12C5
:102DD0002CF7122F5B1236E0123039AF1EEF33950D
:102DE000E0FEC3EF9403EE6480948040BC121D614A
:102DF000121E6380B4900014E0FCA3E0FDA3E0FE8B
:102E0000A3E0FF222400F58274003EF583E0F8A3DE
:102E1000E0F9A3E0FAA3E0FB221201468F2F8E2EE9
:102E20008D2D8C2C22AE26E527780222D3E5259421
:102E300000E5246480948022E490005BF0A3F0908D
:102E40000059F0A3F022120146A804A905AA06AB76
:102E50000722AB10AA11A912222400F58274003EA9
:102E6000F58322E4FBFA02024F6480F8E0648022DA
:102E7000D20D123BB8200C1CE4F52AF52B742C1251
:102E800037E87F1112382F052BE52B7002052A1227
:102E900037F340E98508308509317F003002027F31
:102EA000018F327A0079301237DD1235828F33206C
:102EB0000C07E533B52F02802A7B007A00792CE4D9
:102EC000FDFC7F1D12382FE4F52AF52B74301237E4
:102ED000E87F1912382F052BE52B7002052A1237CF
:102EE000F340E9C20D123BB822EBF5826402606A3E
:102EF000E58264036064E5826419605ED3E58294D0
:102F00001C748094805053EF14601414602014607B
:102F10002F240370451229185040ED2400802A12F6
:102F20002903503612290F4031ED2410800D12284C
:102F3000E250271229214022ED2420F528EE800CB2
:102F4000ED1228E65014ED2430F528E434F0F5278E
:102F5000EB541F852882852783F0221220C96069DF
:102F6000123C1C4007E4900046F080299000461275
:102F700021047007EF20E6034480F0900046122001
:102F8000EC5008E020E60405248003E4F5249000DA
:102F900046E04524F0123C234006E4900047F0222E
:102FA0009000471221047007EF20E6034480F09060
:102FB00000471220EC5008E020E60405248003E4DA
:102FC000F524900047E04524F022900050E0FEA355
:102FD000E0FFC39405EE648094805010C3EF940327
:102FE000EE64809480504EEF04F56422900052E02D
:102FF000FF7E007C007D06120594EF2405FFE43E71
:10300000FE900050E0FCA3E0FDC39FEE6480F8EC6E
:103010006480985020ED24FBFFEC34FFFE7C007DA3
:10302000031205A67C007D021205A6ED4C70047506
:103030006401228000E4F5642290001EE0700BAB76
:1030400010AA11A91212053C600775130075142807
:1030500022D3E5149400E513648094804009E514BC
:103060001514704215132290F500E4F0C20A123ACA
:10307000C0438704438702123B6CD20B12390612FD
:103080003A257F017E001226D6122B5C300F05C236
:103090000F1237FD123B8150E9D20A123AC0E49078
:1030A0000041F043A8802290001FE01460181460D3
:1030B0002E14604F240370587D6C121F6350519082
:1030C000001F7401F0227F9A7E997D79121F67603C
:1030D000074005E490001FF0121F615033802BE47D
:1030E000FFFE7D60121F676008400690001F74019C
:1030F000F07F9A7E997D39121F67501490001F74DB
:1031000003F022121F616008400690001F7402F055
:1031100022C218C219123978AF52AE51AD50AC4F1D
:1031200090002B1207C8E490001EF0F524AF24EFA6
:103130003395E0FEC3EF940AEE648094805007124A
:1031400030A7052480E712201D702EF52490005D25
:10315000E0C36480F8E52464809850107F0212393F
:103160002D7FA07E001226D6052480E17F907E016F
:103170001226D690002A740CF0227D037F02122AB8
:10318000C5EF64014E7034C21CE515547FFFE4F5B1
:1031900015E5177004E51B6007E4F51BF517803390
:1031A000EFC39405502D120003C3EF940AEE648020
:1031B0009480500205197516808018D21C75130072
:1031C000751428E51630E703751680E51520E7032A
:1031D0007515807D087F021239BF90006074AAF0D7
:1031E00022C10FC10EC110C11C016300410061006A
:1031F00041006200C117C116011CFF011E044100FD
:103200002A0042001C000042004B000042004E0019
:1032100000C10741004DFFC109C106C108C11DC160
:103220000541004300410046004100440041004781
:1032300000410048004100421941004A00C100C15C
:103240000141005300008E308F311236CA605B900E
:1032500000011205DCFFAEF04E604FAB07AA0690EE
:10326000005EE0FEA3E0FFC39BEA6480F8EE6480AA
:10327000985004AA06AB0712369E90004EE03EC35B
:1032800064809480C3EB9531FFEA9530FE90004E48
:10329000F0A3EFF0C3EE648094805007E490004EFA
:1032A000F0A3F0E490004BF0A3F0228D2720180942
:1032B000201906E4900043F022900043E0FD33958E
:1032C000E0FCED4C70037480F0900043E0547FF517
:1032D000282019057529098003752902EF60183027
:1032E0001915AF28EF3395E0FEC3EF9403EE648029
:1032F00094804003023ADED3E5296480F8E528642F
:103300008098400B9000437480F0AF27122BEE2280
:1033100074332529F58274003528F58322E4FFFEF5
:103320007C43AB3BAA3AA939A8382275303EAB336F
:10333000AA32A931A830AF3BAE3AAD39AC3802025F
:103340004F12024F8F378E368D358C3422E4900029
:103350003DF0A3F0A322AF5AAE59AD58AC5722337B
:1033600095E0FEC36480948022D3EF9416EE6480CF
:10337000948022E4F527D20D123BB87524027525FE
:10338000007B007A007926AD25AC247F1112382FFE
:10339000AF2612002E401D12003D5018E52614F5F0
:1033A000270525E52570020524C394FCE5246480E7
:1033B000948340CDAF27EF6408600AEF640960058D
:1033C000EF640A7003752704AF27122BEEC20D02BB
:1033D0003BB8E4F50EFFEF122121940BEC648094CE
:1033E00080502C903E141220A66402701FEF33957B
:1033F000E0FC903E191220A6F50A740193F50B909B
:103400003E151220A6F50C740193F50D0F80C7121E
:10341000348BE4900049F09000457404F0E490008F
:1034200052F07510FF75113E751214C203C20422CA
:10343000EBD31229115053EF146014146020146060
:103440002F240370451229185040ED2480802A1241
:103450002903503612290F4031ED2488800D12289F
:10346000E250271229214022ED2490F528EE800C0D
:10347000ED1228E65014ED2498F528E434F0F527F1
:10348000EB5403852882852783F022D20D123BB8A6
:10349000E4F524F52574262525F9E4FAFBAD25ACE1
:1034A000247F1112382F0525E52570020524C394C9
:1034B00004E5246480948040DCC20D123BB87A009D
:1034C00079261237DD123582EFB5290F852608855A
:1034D0002709E528C36001D392022212388AC2026A
:1034E000D20C122E702220070A90005BE0FEA3E0AF
:1034F000FF803012369EFF90004EE03EFEC3648097
:1035000094805003E4FEFFC390005CE09FFF9000B6
:103510005BE09EFEC3EF94DCEE6480948550047EF5
:10352000057FDC90005BE0B50608A3E0B50703C3A8
:103530008001D3920922AB077AFF900040E07041EE
:10354000EB12335F403B123369400AEF941FEE6485
:10355000809480402C9000391207D40000000012A3
:10356000334DEBF0A37401F0EB30E40543DF8080D2
:103570000353DF7F53DEF0EB540F42DEDAFE43DF0E
:1035800002228B348A3589368F3A8E398D388C37C2
:10359000E4F53BAB340536E536AA35700205351443
:1035A000F912053C623B7F08E53B30E70825E06403
:1035B00007F53B8006E53B25E0F53BDFEB7837740C
:1035C000FF1207AAEC4D4E4F70C9AF3B2275240184
:1035D000E4F525F526FB7D037F02122EE97B007AB8
:1035E0000079247D087F02120C5F7D087F02123A69
:1035F000A27B027D037F0212343043B904751300AD
:1036000075142890006074FFF0E4F515F516F518B0
:10361000F519F51AF51B22C2D5E830E70FB2D5E44B
:10362000C39BFBE49AFAE499F9E498F8EC30E717C5
:10363000B2D512364D1206BEE4C39BFBE49AFAE4FF
:1036400099F9E498F880031206BE30D50DE4C39FC3
:10365000FFE49EFEE49DFDE49CFC22752403752599
:1036600001752601C281C284C283C2857D021236E1
:103670008C7D10E4FF120C5F7D0812368C7D20E4F7
:10368000FF120C5F122E38C215C214227B007A0082
:103690007924E4FF120C5F7B007A007924229000E9
:1036A0004BE0FEA3E0FF7C007D641205A690004F76
:1036B000E02F22AF4AEF3395E0FE22E5259527E57E
:1036C000266480F8E52464809822AB10AA11A91220
:1036D000900008020555C3EF942AEE64809480227E
:1036E000900052E0FF7E0070059000508030900006
:1036F00051E004F07006900050E004F07C007D067C
:10370000120594EF240FFFE43EFEC3900051E09FAA
:10371000EE6480F8900050E06480984004E4F0A3E8
:10372000F022C0E0C0F0C083C082C0D075D000C01D
:1037300000C001C002C003C004C005C006C007121B
:10374000317A75B600D007D006D005D004D003D0AA
:1037500002D001D000D0D0D082D083D0F0D0E032DF
:10376000D3EF9DEC6480F8EE64809840028004AE54
:1037700004AF058E278F28E52864024527700820AE
:1037800006057F08122BEEE5286403452770057FA8
:1037900009122BEE22E4FFEFFD3395E0FCC3ED941C
:1037A00003EC648094805020EF3395E0FC74AE2DE0
:1037B000F582743E3CF583E493FE900052E0FDEE0A
:1037C000B50502C3220F80CFD32275F00AEF12088D
:1037D00005EE75F00AA42583F583E493227B007F30
:1037E000037E007D007C0022252BF9E4FAFBAD2B43
:1037F000AC2A22C39404E52A6480948022E5153023
:10380000E711547FFFC3940550010F531580EF4219
:10381000158003E4F515E51630E710547FFFC394D7
:103820000450010F531680EF421622E4F516228F42
:1038300035EF6419700512053CF5FEEDF5FCECFF63
:10384000EFF5FD008535FF000000000000E5FF20DA
:10385000E0FBE53564117005E5FE12058222EF14E8
:1038600060111460151460192403701CE5AC5D60D0
:1038700017D322E5AD5D6010D322E5AE5D6009D3BC
:1038800022E5AF5D6002D322C322750803750920CB
:10389000E4FFFE903E141237CA6402700D903E178A
:1038A0001237CAF508740193F5090FBF00010EEF36
:1038B000640B4E70DE22752403E4F525752601C2E3
:1038C000A4C2A5FB7D101238D47B007D201238D411
:1038D000E4F564227A0079247F02120C5F22A907A2
:1038E000900046E0FE5480FB3395E04B700BED33C7
:1038F00095E0FCED64014C700CEE547F900046F0B6
:10390000AF01122BEE22E4200B06F5C853A8DF22EC
:10391000F5CE75CB0B75CADB75CD5D75CC6643A84E
:1039200020F5C975CF80751F0475C89122EF14600A
:103930000C14600F147010C2A4D2A5800AD2A4C2C5
:10394000A58004D2A4D2A57F147E001226D6C2A4DC
:10395000C2A522E4FFFE7C40AB4EAA4DA94CA84B69
:103960000202EC7D01AF24123B148F2422AB5EAA2D
:103970005DA95CA85B0202EC900020747FF0A37448
:10398000FEF0A37480F0A37402F0E4900028F0A38A
:10399000F09000241207D40000000022121FB24051
:1039A0000CA3E024FFF090001CE034FFF090002A0C
:1039B000E0FF3395E0FE1220444003E014F022EFD4
:1039C00014600F14601114601324037013EDF4528B
:1039D000AC22EDF452AD22EDF452AE22EDF452AF32
:1039E00022FDFCAB42AA41A940A83F020774E4AB08
:1039F0003CAA3DA93E020582AB42AA41A940A83F8C
:103A000002077490F1417401F07F00300A027FFFD9
:103A100090F140EFF0123BD97F013012027F00900D
:103A2000F164EFF0227D087F021239BF90006074CC
:103A3000AAF0D21CE51630E703751680E51520E7DD
:103A40000375158022E5177004E51B6004E4FEFF92
:103A500022E51A7003FEFF22120003300B05E4F585
:103A60001AF51922E4FB7D02FF122EE9C20B7D023A
:103A7000E4FF12256690F121E4F090F126F090F138
:103A800023F02290F5007409F090F5027419F0907B
:103A9000F50CE4F090F5067438F0A37405F075B9F0
:103AA0008022EF14600E14600F1460102403700F56
:103AB000ED42AC22ED42AD22ED42AE22ED42AF220C
:103AC000300A0C1224A2122C7412365B023A83C202
:103AD0000B123906123A6412221C123BE622122003
:103AE000C9FF60179000071205556005900045EF6B
:103AF000F0E4FF122BEEE4FF12298722E4F516F51D
:103B00001AF519F517F518EF64014E7F0070027F62
:103B1000018F1B22EFFB3395E0FAC3EB9408EA64B4
:103B20008094805004EF2DFF227F0822900047E010
:103B3000FE5480FD3395E04D6007EE547FF0122B6C
:103B4000EE2253DE7F007F00200A027FA090F692D3
:103B5000EFF00043DE8022C0E075C900151FB210EF
:103B6000E51F7005751F04D20FD0E0325388CF5384
:103B700089F0438901E4F58CF58A75A80243A88091
:103B800022E5186002D322E51A6002D322E51BC3A6
:103B90006001D322E4FFFE900055E0F8A3E0F9A312
:103BA000E0FAA3E0FB22EF64014E700B2004051243
:103BB0003C1C4003123ADE22300D07C2AF0075FBF9
:103BC000AA2275FB5500D2AF222017037F00229056
:103BD0000062E0FFE4F0C2172290F1297401F09036
:103BE000F129E070FA22122E38C281C284C283C247
:103BF0008522EFF0AF037E007401A8070822E518C4
:103C00007002C322E4F518D322E5635480FF339594
:103C1000E04F2290001EE0700204F022E517C3601E
:103C200001D322E51BC36001D3225388EFD20E32A9
:103C3000222200512CD5004B1869004584570040C2
:103C40006521003BB06200375CB60033619B002FFA
:103C5000B760002C570700293A3D00265B4100233E
:103C6000B4DC0021424D001EFF45001CE7D5001AC0
:103C7000F86900192DBE001784DA0015FB06001440
:103C80008DC700133ADA0012002B0010DBD6000FAC
:103C9000CC1E000ECF6C000DE44B000D0965000C2E
:103CA0003D80000B7F7C000ACE50000A29070009E6
:103CB0008EC30008FEB50008781F0007FA520007FF
:103CC00084AE0007169D0006AF9700064F1C000546
:103CD000F4B800059FFE0005508B000506020004A5
:103CE000C00D00047E5D000440A9000406AC000382
:103CF000D02700039CE100036CA100033F370003C1
:103D000014720002EC280002C62F0002A263000217
:103D1000809F000260C3000242B10002264C0002F4
:103D20000B7B0001F2230001DA2E0001C3870001A2
:103D3000AE19000199D2000186A000017472000141
:103D4000633A000152EA00014372000134C80001E5
:103D500026DF000119AC00010D2500010141F5F538
:103D6000EB3AE107D755CE1DC558BD00B50EAD7F66
:103D7000A64C9F7098E792AC8CBB871181AA7C827D
:103D8000779772E46E676A1E6606621C5E5F5ACBA6
:103D9000575F541950F84DF84B1A485A45B84333F9
:103DA00040C83E773C3E3A1D3812361D343B326DDA
:103DB00030B22F082D6F2BE62A6C290127A4265537
:103DC000251323DD22B22193207F1F751E751D7ED2
:103DD0001C901BAC1ACF19FB192E186917AA16F3E1
:103DE0001642159714F2145313B913251296120C98
:103DF00011861105108810100F9B0F2B0EBE0E554B
:103E00000DEF0D8C0D2D0CD10C780C210BCE0B7DF4
:103E10000B2E0AE300000000000000010064010016
:103E2000000000000000006403000F00000AF00022
:103E300000320403E800000B540100450507D000E0
:103E4000000BB8010056060FA000000BEA0101604C
:103E5000071F4000000C1C0101660855F000000C13
:103E600080000169092EE000000BB8000169021F03
:103E70004003E80C1C0001450A2EE000000BB800CE
:103E800001690000000000000000000000000000C8
:103E9000000000000000524B44382F21180F91B44D
:103EA00064DCDC78B464070F1F0D080E0006050300
:013EB000040D
:00000001FF
