:100000000226CFAF19EF3395E0FE22023C0F90009D
:1000100048EFF0AB10AA11A91212053C6401600A66
:100020007F011232BF7F01122A9D22023B15D208A6
:10003000123B887B007A007924122F0AE4FDAF245A
:10004000123660122A9DC208023B880235B20204B1
:100050000FE86480F8E933E83360110460F0ED33B1
:10006000EC337009E8FCE9FDEAFEEBFF220460DEF8
:10007000D3EB9FEA9EE99DE8C2E78CF0C2F795F0CA
:10008000400CE8CCF8E9CDF9EACEFAEBCFFB12034D
:10009000DA85D0F05804700320D5B3E80470075017
:1000A00002B2D502041992D5EC0460F7E4CCC0E0AA
:1000B000C398F8603B94186008400DD0E0FB020341
:1000C000F1E4FBFAC9FC8028E830E406E4C9FBE46B
:1000D000CAFCE830E305E4C9CACBFCE85407601069
:1000E000F8C3E913F9EA13FAEB13FBEC13FCD8F1AC
:1000F00030F52FC3E49CFCEF9BFFEE9AFEED99FDDB
:10010000D0E0FBEF4E4D4C701222DB03020416ECE4
:100110002CFCEF33FFEE33FEED33FDED30E7EB0269
:1001200003F1EF2BFFEE3AFEED39FDD0E0FB50136B
:100130000BBB0003020419ED13FDEE13FEEF13FFDA
:10014000EC13FC0203F1EC4D6011E8497017ED333C
:10015000EC3304600DE4FCFFFEFD22E933E83304D8
:1001600070F802040F1203DA58046009E4CC248109
:100170005006285009020419284003020416C0E062
:10018000EB4A7044B98006D0E0FB020405EF4E70E4
:100190001CBD8008EBFFEAFEE9FD80EBE98DF0A4D1
:1001A000FEE5F002022FE9CDF9EAFEEBFFEF89F060
:1001B000A4FCE5F0CE89F0A42EFFE435F0CD89F063
:1001C000A42DFEE435F08067EF4E7005BD80D7802A
:1001D000C3EF8BF0A4ACF0EE8BF0A42CFCE435F074
:1001E000F8EF8AF0A42CE5F038FCE433CB8DF0A4D2
:1001F0002CFCE5F03BF8EE8AF0A42CFCE5F038F896
:10020000E433CF89F0A42CFCE5F038CF3400CE895C
:10021000F0A42FFFE5F03EFEE433C98DF0A42EFEDE
:10022000E5F039CD8AF0A42FFFE5F03EFEE43DFD78
:1002300033D0E0FB50070BBB000F020419EC2CFC81
:10024000EF33FFEE33FEED33FD0203F1020419EC50
:100250005D046005E85904700302040F1203DA58C4
:100260000460F6EC4860F2EC7004FDFEFF22C8600A
:10027000DB2481C85009C398600250060204169816
:1002800050CAF582E9294B4A7005AB820204057514
:10029000F0007C1A7880C3EF9BEE9AED99400DC375
:1002A000EF9BFFEE9AFEED99FDE842F0DC23ACF007
:1002B000D0E0FFD0E0FED0E0FDAB8220E7101BEBEA
:1002C00060BAEC2CFCEF33FFEE33FEED33FD02039E
:1002D000F1E803F830E705C0F075F000EF2FFFEE0E
:1002E00033FEED33FD40B830E7C280AA74F8CC6429
:1002F00080CCC86480C8F58204604FC3EB9FF5F0E2
:10030000EA9E42F0E99D42F0E89C45F0603C501DB9
:10031000E5825FFFE582D313CB5BCBF42B5582FBE9
:1003200050280ABA002409B9002008801DE5825B24
:10033000FBE582D313CF5FCFF4C3132F5582FF5059
:10034000090EBE00050DBD00010CC3EB9FF5F0EAE0
:100350009E42F0E99D42F0E89C45F06007CC4820C1
:10036000E701B3EC2275F020800E75F01080057562
:10037000F0087D007E007F003392D530D503120750
:1003800050EC334010EF33FFEE33FEED33FDEC3332
:10039000FCD5F0ED22E5F0247EA2D513CC92E7CD7A
:1003A000CEFF22EDD2E7CD33EC3392D52481400647
:1003B000E4FFFEFDFC22FCE4CFCECDCC24E05011C6
:1003C00074FF80EDC3CC13CCCD13CDCE13CECF13A1
:1003D000CF0470F030D5DE020750E9D2E7C933E828
:1003E00033F892D5EDD2E7CD33EC33FC5002B2D5E1
:1003F00022EC30E7100FBF000C0EBE00080DBD0050
:10040000040BEB6014A2D5EB13FCED92E7FD227414
:10041000FFFCFDFEFF22E480F8A2D574FF13FC7DF3
:1004200080E480EFE709F608DFFA8046E709F20882
:10043000DFFA803E88828C83E709F0A3DFFA8032FE
:10044000E309F608DFFA8078E309F208DFFA807042
:1004500088828C83E309F0A3DFFA806489828A832F
:10046000E0A3F608DFFA805889828A83E0A3F208C5
:10047000DFFA804C80D280FA80C680D4806980F216
:100480008033801080A680EA809A80A880DA80E29B
:1004900080CA803389828A83ECFAE493A3C8C58238
:1004A000C8CCC583CCF0A3C8C582C8CCC583CCDF7B
:1004B000E9DEE7800D89828A83E493A3F608DFF9F9
:1004C000ECFAA9F0EDFB2289828A83ECFAE0A3C85A
:1004D000C582C8CCC583CCF0A3C8C582C8CCC583AF
:1004E000CCDFEADEE880DB89828A83E493A3F2082A
:1004F000DFF980CC88F0EF60010E4E60C388F0ED2C
:100500002402B4040050B9F582EB2402B404005074
:10051000AF232345822390047473C2D530F707B20A
:10052000D563F0FF05F030E70CB2D5F4048463F036
:10053000FF05F080018430D502F40422BB01068956
:10054000828A83E0225002E722BBFE02E3228982F4
:100550008A83E49322BB010CE58229F582E5833A84
:10056000F583E0225006E92582F8E622BBFE06E983
:100570002582F8E222E58229F582E5833AF583E4D3
:100580009322BB010689828A83F0225002F722BBA4
:10059000FE01F322EF8DF0A4A8F0CF8CF0A428CEBA
:1005A0008DF0A42EFE22C2D5EC30E709B2D5E4C30B
:1005B0009DFDE49CFCEE30E715B2D5E4C39FFFE45B
:1005C0009EFE120811C3E49DFDE49CFC800312080A
:1005D0001130D507C3E49FFFE49EFE22BB0110E566
:1005E0008229F582E5833AF583E0F5F0A3E0225015
:1005F00009E92582F886F008E622BBFE0AE9258291
:10060000F8E2F5F008E222E5832AF583E993F5F0B4
:10061000A3E99322BB010A89828A83F0E5F0A3F063
:10062000225006F709A7F01922BBFE06F3E5F009F0
:10063000F31922E88FF0A4CC8BF0A42CFCE98EF007
:10064000A42CFC8AF0EDA42CFCEA8EF0A4CDA8F03A
:100650008BF0A42DCC3825F0FDE98FF0A42CCD35FE
:10066000F0FCEB8EF0A4FEA9F0EB8FF0A4CFC5F068
:100670002ECD39FEE43CFCEAA42DCE35F0FDE43C61
:10068000FC2275F008758200EF2FFFEE33FECD33AC
:10069000CDCC33CCC58233C5829BED9AEC99E582F3
:1006A00098400CF582EE9BFEED9AFDEC99FC0FD57F
:1006B000F0D6E4CEFBE4CDFAE4CCF9A88222B8006F
:1006C000C1B90059BA002DEC8BF084CFCECDFCE53A
:1006D000F0CBF97818EF2FFFEE33FEED33FDEC335E
:1006E000FCEB33FB10D703994004EB99FB0FD8E5E3
:1006F000E4F9FA227818EF2FFFEE33FEED33FDEC2C
:1007000033FCC933C910D7059BE99A4007EC9BFC21
:10071000E99AF90FD8E0E4C9FAE4CCFB2275F010AD
:10072000EF2FFFEE33FEED33FDCC33CCC833C810D2
:10073000D7079BEC9AE899400AED9BFDEC9AFCE800
:1007400099F80FD5F0DAE4CDFBE4CCFAE4C8F9224D
:10075000C3E49FFFE49EFEE49DFDE49CFC22EB9F2E
:10076000F5F0EA9E42F0E99D42F0EC6480C86480B6
:100770009845F022EB9FF5F0EA9E42F0E99D42F0A9
:10078000E89C45F022E8600FECC313FCED13FDEE8E
:1007900013FEEF13FFD8F122E493FC740193FD7470
:1007A0000293FE740393FF227401FF3395E0FEFD74
:1007B000FC080808E62FFFF618E63EFEF618E63DB0
:1007C000FDF618E63CFCF622ECF0A3EDF0A3EEF00B
:1007D000A3EFF022A8828583F0D083D0821207EBAA
:1007E0001207EB1207EB1207EBE473E493A3C58344
:1007F000C5F0C583C8C582C8F0A3C583C5F0C5834D
:10080000C8C582C822A42582F582E5F03583F58328
:1008100022BC000BBE0029EF8DF084FFADF022E476
:10082000CCF875F008EF2FFFEE33FEEC33FCEE9DB5
:10083000EC984005FCEE9DFE0FD5F0E9E4CEFD22DC
:10084000EDF8F5F0EE8420D21CFEADF075F008EF67
:100850002FFFED33FD4007985006D5F0F222C398E4
:10086000FD0FD5F0EA22123B998F26C206123A03F9
:100870008E248F25900042E06009C3940B7480940D
:100880008040069000427404F0C21E12223CB40B59
:10089000004003020AC790089DF82828730208D96F
:1008A0000208BE0209F5020992020A16020A25028E
:1008B0000A38020A4B020A72020AA9020AB5C204E5
:1008C000123BCF4003020AC71236985003020AC7F0
:1008D000E4900048F0FF020AA4E525640545247071
:1008E00011C204D3300301C392039000417408F095
:1008F0008018300315D3E5259400E52464809480A6
:100900005005123B3F5003756706300303020AC7C8
:10091000E52564064524700DD3300401C39204908C
:1009200000417402F0300416123C014003020AC771
:100930007D027C007F027E0012344B020AC7E5254F
:10094000640145246004E526600512384B800EE5FD
:1009500026FD3395E0FCAF25AE2412344B123BCF7D
:1009600050057F03122A9DE525640445247015D3A4
:10097000300201C392027F082002027F098F67C202
:1009800007122B19123C084003020AC7123BF80257
:100990000AC7D21E7D037F0112303CAF26EF33958C
:1009A000E0FEE4FDFC12344BE525640145247003B0
:1009B000123A9C123BCF400B12225564014E600349
:1009C000020AC71221F160025003020AC77F0430F5
:1009D00002027F02122A9D12225564014E70030208
:1009E0000AC730020312381F900043E04440F075FC
:1009F0000E04020AC720051312225564044E700526
:100A00007F03122A9D120BF7120C06121AD2AF2680
:100A100012176C020AC77D04120BCF120C06AD260A
:100A20007F05020AC47D04120BBB120C0EAD267F9B
:100A3000061238A07F0480357D05120BBB120C0E08
:100A4000AD267F071238A07F0580227D06120BE3BA
:100A5000AD25AC2412344BE4FD7F041238A01222E1
:100A60005564014E70057F03122A9D7F06123AEAF3
:100A700080557D07120BE3EF64014E600BE52564A2
:100A80000245246003300D0A7F043002027F021207
:100A90002A9D12225564034E6008E525640345240F
:100AA00070257F09122A9D801E7D09120BCF120C22
:100AB000167F0A800F7D0A7F0112303C120BF7125D
:100AC0000C167F091238A012220A400C900051E443
:100AD000F0A37432F0020B8CAF0EEF12220F400223
:100AE000807012223CFB24F66003047060AF63EF59
:100AF0003395E0FE746B2FF582743E3EF583E493EC
:100B0000FF7E007C007D641205948E248F25EB64AB
:100B10000A7005122A1D800F2011067EFF7FFF80BC
:100B20000612221DFFAEF0900051EEF0A3EFF0D3BD
:100B3000900052E09525E5246480F8900051E0642F
:100B400080984048E524F0A3E525F0803F123876F0
:100B5000500A74FF900051F0A3F0803012223C64E0
:100B600002701CC3E50D9509E5081222665006AE19
:100B70000CAF0D8004AE08AF09900051EE80091251
:100B800022A6FF900051E5F0F0A3EFF0D206123A52
:100B900003301708AF26EF12220F500F90003FE0EE
:100BA000FF3395E0FEEF64184E700FC21790003FC0
:100BB000E004F012223CFF1232BF22E4FF12303C6C
:100BC000AF25AE24123B64AF26EF3395E0FE227FC3
:100BD0000112303CAF25AE24123B64AF26EF3395B3
:100BE000E0FE22E4FF12303CAF25AE24123B64AF9E
:100BF00026EF3395E0FE22AF25AE24123B64AF26EC
:100C0000EF3395E0FE22AD25AC2412344B22AD2506
:100C1000AC2412344B22AD25AC24123765AD26220C
:100C20008F2712053CFF14601514602814603D14D2
:100C3000603A2404705C12263612267D8029122622
:100C400036F5827401F52C85822DE582F4F58275E6
:100C50002E008013122636F4F582752C0085822D25
:100C6000EDF5827401F52E85822F8026ED12267D0A
:100C700085822FEDF5827401F528858229EF6404C1
:100C80007007EDFF7401FE8005EDF4FF7E008E2AF3
:100C90008F2B9000011205557007EDFF7401FE8047
:100CA00005EDF4FF7E008E308F3190000212055565
:100CB0007007EDFF7401FE8005EDF4FF7E00E5276F
:100CC000147003020D5C147003020DDF1470030234
:100CD0000E6224036003020EECE528AB9A30E006B6
:100CE000E5294BFD8004E5295BFD8D9AE52A30E07E
:100CF0000890F00912269D800690F0091226A49013
:100D0000F009EDF0E52C30E00512268D800690F01C
:100D10000A1226AB90F00AEDF0E52E30E00512261F
:100D200095800690F00B1226B290F00BEDF0EE30AD
:100D3000E0051226C1800890F00CE0FBEF5BFD900F
:100D4000F00CEDF0E53030E0051226B9800690F0A9
:100D50000D1226C8AF0590F00DEDF022E528ABA1ED
:100D600030E006E5294BFD8004E5295BFD8DA1E51A
:100D70002A30E00890F01912269D800690F0191292
:100D800026A490F019EDF0E52C30E00512268D80B8
:100D90000690F01A1226AB90F01AEDF0E52E30E036
:100DA00005122695800690F01B1226B290F01BEDDE
:100DB000F0EE30E0051226C1800890F01CE0FBEF59
:100DC0005BFD90F01CEDF0E53030E0051226B980B7
:100DD0000690F01D1226C8AF0590F01DEDF022E53B
:100DE00028ABA230E006E5294BFD8004E5295BFD38
:100DF0008DA2E52A30E00890F02912269D80069009
:100E0000F0291226A490F029EDF0E52C30E005122F
:100E1000268D800690F02A1226AB90F02AEDF0E5A0
:100E20002E30E005122695800690F02B1226B29007
:100E3000F02BEDF0EE30E0051226C1800890F02C8A
:100E4000E0FBEF5BFD90F02CEDF0E53030E00512BB
:100E500026B9800690F02D1226C8AF0590F02DED32
:100E6000F022E528ABA330E006E5294BFD8004E540
:100E7000295BFD8DA3E52A30E00890F03912269D0C
:100E8000800690F0391226A490F039EDF0E52C3070
:100E9000E00512268D800690F03A1226AB90F03ACB
:100EA000EDF0E52E30E005122695800690F03B121D
:100EB00026B290F03BEDF0EE30E008A3E0FDEF4D00
:100EC000FF800890F03CE0FDEF5DFF90F03CEFF01C
:100ED000E53030E009A3E0FDE5314DFF800990F0F9
:100EE0003DE0FDE5315DFF90F03DEFF0227524001F
:100EF00075254078007C007D017BFF7A3E796F7E0E
:100F0000007F141204F4E4FFFE7DB07C40AB56AACF
:100F100055A954A8531202EC5003021107122E8354
:100F200012053C6003021107C283C285C281D2064A
:100F3000123914D2847F057E0012236B123C157F78
:100F4000667E667D867C40AB4EAA4DA94CA84B12AE
:100F500002EC6002500DE525152570021524122EB5
:100F60006B50D2E52545247007C2847F010211042D
:100F7000752400752564C2847F147E0012236BC221
:100F800006123914123C157F0A7E0012236B752657
:100F900000752704122E64C333CE33CED8F924FC57
:100FA000F58274FF3EF583122E37C004C005C006DB
:100FB000C007122E64C333CE33CED8F9122E8AD096
:100FC00007D006D005D0041207C8E5271527700200
:100FD0001526E527452670BCAF4EAE4DAD4CAC4B4B
:100FE0009000001207C89000141207D400000000FF
:100FF000E4F526F527122E34C004C005C006C0074C
:10100000122E64C333CE33CED8F9122E43D007D07C
:1010100006D005D0041200559000141207C8052709
:10102000E527700205266405452670C9122E34791D
:10103000A07840122E949000141207C89000181245
:1010400007D400000000E4F526F527900018122EC2
:1010500037C004C005C006C007122E64C333CE33A8
:10106000CED8F9122E43122E34120051E4FBFAF9B5
:10107000F81202EC500F122E64C333CE33CED8F9DF
:10108000122E43801A122E64C333CE33CED8F912F7
:101090002E8A122E37E4FBFA798078BF122E77124F
:1010A0002E34120051AB07AA06A905A804D007D018
:1010B00006D005D0041200559000181207C8052765
:1010C000E5277002052664054526600302104BC320
:1010D000E525945D122E705013E4FFFEFD7C3F90D9
:1010E0000018122E4C1202EC60025010E525152556
:1010F00070021524122E6B4003020F84E52545244F
:1011000070057F0212000E22E56270047F068041A6
:1011100012363DD3EF9441EE648094804002D20DAC
:10112000D3EF943CEE648094804004D20B800DC3D6
:10113000EF9432EE648094805002C20B300D052093
:101140000B02C20DD3EF944BEE6480948040057F78
:101150000702000E12363DC3EF9429EE648094809E
:10116000500D900048E064077005F0FF122A9D12B0
:1011700036547002C20C12363DD3EF9433EE6480C5
:1011800094804004D20C8023C3EF942AEE648094B0
:10119000805018900055E07002A3E0700E9000534C
:1011A000E0B49E07A3E0B45802C20C200C0CE490FB
:1011B0000053F0A3F0A3F0A3F0222016030212ECD8
:1011C00012363DEF24CDFFEE34FFAB07FAD3EB949C
:1011D00001EA64809480407690004FE0FEA3E078BE
:1011E0000CCEA2E713CE13D8F82401FFE43EFEADE7
:1011F00003AC021205948E248F25900058E0FEA3C4
:10120000E0FFD3900052E09FEE6480F8900051E040
:10121000648098400C900058E0F526A3E0F5278004
:101220000A900051E0F526A3E0F527E5272424FFE6
:10123000E52634FAFE900055E0FCA3E0FDC3EF9DE7
:10124000F527EE9CF526C3123645503D802EC3EAA5
:101250006480948050417C007D03AF03AE02120590
:10126000A68E248F25900055E0FEA3E0FFC3E49FE7
:10127000F527E49EF526D3123645400DE02525F0EE
:10128000900055E03524F0800E900056E02527F0C0
:10129000900055E03526F01568E568704F7568FFD9
:1012A000D3EB9400EA64809480401D900054E09455
:1012B000A8900053E0648094E1500DA3E004F07026
:1012C0002B900053E004F022C3EA64809480501C09
:1012D000900054E09458900053E06480941E400CB9
:1012E000A3E024FFF0900053E034FFF0228E2D8F16
:1012F0002E8D2F90F692E030E708E4FFFEFD7C4053
:10130000800312301F12300DAC2DAD2EEC12036A8B
:10131000C004C005C006C007E4FBFA79807845AF79
:1013200037AE36AD35AC3412024FD003D002D00107
:10133000D0001201468F3B8E3A8D398C38E52F60F4
:101340005924FA70030213D224FE700302142C24D1
:10135000FB700302145724EE60142411600302147E
:1013600096853B5E853A5D85395C85385B22AC2D80
:10137000AD2EEC12036AA804A905AA06AB077F9A52
:101380007E997D997C4512024F8F338E328D318C40
:10139000308F5A8E598D588C572275333575324897
:1013A000753103122FF48F568E558D548C53900047
:1013B00057E0FC12036FA804A905AA06AB07AF56B5
:1013C000AE55AD54AC5312024F8F528E518D508C8E
:1013D0004F2275332D7532A6753133122FF48F4E8F
:1013E0008E4D8D4C8C4BAB56AA55A954A853120266
:1013F0004FE4FBFA79C878421201468F338E328D62
:10140000318C301203A38F61EF3395E0FED3EF945C
:1014100064EE648094804003756164AF61EF33953E
:10142000E0C364809480506EE4F56122122FEB12C9
:10143000301F120051C004C005C006C0077D48120D
:101440002FE6120146D003D002D001D00012300A9C
:101450001203A38E5F8F60122FEB12301F12005108
:10146000C004C005C006C0077DA5122FE6120146C4
:10147000D003D002D001D00012300AE4FBFA797A0E
:10148000784412014612300D1203A37B007A0079D2
:1014900062121DE08F4A22AF1EEF3395E0FEC3EFCC
:1014A0009404EE648094805007E4F524F5258028A8
:1014B000900058E0FEA3E0FFD3900052E09FEE9032
:1014C0000051122E9A9840068E248F25800A900093
:1014D00051E0F524A3E0F525123314D3E5259FEE62
:1014E0006480F8E52464809840071233148E248FBA
:1014F0002590004FE0FEA3E0FF65257003EE652414
:101500007003021625C3E5259FFFE5249EFED3EF59
:101510009470EE648094974002D215301574D3E530
:10152000259400E52464809480406790004FE0702B
:1015300002A3E0700C90004F7405F0A374DCF080FF
:101540003B122E8312053C24F66013047020900099
:1015500050E024B8F090004FE0340BF0801E900073
:1015600050E024F4F090004FE03401F0800E900041
:1015700050E02414F090004FE03400F0C39000508D
:10158000E09525E52490004F122E9A98400EC21542
:10159000800390004FE524F0A3E525F090004FE094
:1015A000FAA3E0FBD39400EA648094805020C284C4
:1015B00090004B1207D400000000C216BAFF06BB11
:1015C000FF03D38001C39281C283C2858055C3903B
:1015D0000050E0947890004FE06480948050028046
:1015E00001C39206201619A206B39281D284A206E4
:1015F0009283A206B392857F057E0012236BD216DA
:10160000E4FFFE3006067DFA7C4380047DC07C3F0B
:1016100090004FE0F52AA3E0F52B121EBF90004B7F
:101620001207C8D2122290001EE014B40900400331
:1016300002176B90164175F003A4C58325F0C5838E
:101640007302165C02166A02170D021713021721A5
:1016500002172702174702174E02175D90001CE47D
:10166000F0A3740EF0A37402F02290001CE0FEA31D
:10167000E0FFD3940CEE648094804005756703808E
:1016800023D3EF940AEE648094804005756702804E
:1016900013D3EF9408EE6480948040057567018051
:1016A00003E4F567122966400302176BAF56AE5587
:1016B000AD54AC5390002C1207C8900057E0FF3394
:1016C00095E0FEEF64024E701790002C12293CFF4B
:1016D000E4FBFA7920784112014690002C1207C8E9
:1016E00090002C12293CFF1203A3AB07AA067C0032
:1016F0007D641205A6EF4E600575670980587C0071
:101700007D0AAF03AE021205A67D0380377D047FFC
:1017100001803890002C12293CFF1229797D058028
:10172000237D067F028024E4FFFE7D207C41900023
:101730002CE0F8A3E0F9A3E0FAA3E0FB12014612C3
:1017400029797D070237C67D087F03023267122997
:1017500047501875640C90001E7409F022E56470FF
:101760000A123C084005E490001EF0228F27123C2C
:10177000084005123C015003D38001C39206122297
:101780001D12225E500AAC0CAD0DAE04AF058000F8
:101790008E288F291222A6FFC3E5299FE5F06480D9
:1017A000F8E528648098500B300608122246400362
:1017B0001222AC20050EAF2712225764014E705042
:1017C000D205804C30010A0509E509700C05088036
:1017D00008E509150970021508900003122220FF80
:1017E000AEF0D3E5099FEE12224C5006D2018E08CE
:1017F0008F091222454005C2011222ACAF271222E6
:101800005764014E6005123B3F5005C205750F1E1F
:10181000123C01500D20000A0509E509701E05085B
:10182000801A123C08500D20000AE50915097002C3
:1018300015088008200605300002C200123C015045
:101840001020000D1222454008750E041222ACD261
:1018500000123C085025200022AB10AA11A91290BA
:1018600000031205DCFFAEF0D3E5099FEE12224C17
:101870005009750E048E088F09D200300604E4F575
:101880000F22AF0F12225764204E7007050FC207B8
:10189000122B1922900027E0C39428748094805062
:1018A00069E4FFFE7D7A7C44AB52AA51A950A84F4F
:1018B0001201461203A38F278E268D258C249000BB
:1018C00027E004F01229392527FFEE3526FEED35F5
:1018D00025FDEC3524FC9000231207C8122957C3BC
:1018E000122988500A90001FE526F0A3E527F09002
:1018F000002112295AD3122988500302197D900021
:1019000021E526F0A3E527F08073122939FFC004F2
:10191000C005C006C007900021E0FEA3E0FBAA06B8
:10192000EA3395E0F9F8122957EF2BFBEE3AFAED7E
:1019300039F9EC38F8D007D006D005D004C3EF9BB6
:10194000FFEE9AFEED99FDEC98FC122933FFC006DC
:10195000C007A3E024FEFFE434FFAB07FA3395E0B1
:10196000F9F8D007D00612352C122933FFEC1203F8
:10197000651229939000281207C81239A0AF65EFAD
:101980003395E0FEEF64784E7005756501800712AF
:10199000296640020565122947400CA3E024FFF0A8
:1019A00090001CE034FFF0AF64EF3395E0FE1229A5
:1019B000664002156422300E2590005DE0FF3395ED
:1019C000E0FEC3EF940CEE648094805005E004F0D8
:1019D000800CE490005DF0C209C20A021ACEE567ED
:1019E000B40A004003021AC39019EFF828287302C2
:1019F0001A0D021A25021A17021A1E021A2C021AAE
:101A00002C021A68021AC3021A68021A68C207C2B4
:101A100008E4F566021AC3D207D208021AC3C20745
:101A2000D208021AC3D207C208021AC3C208E56666
:101A3000547FFFAE67EE64047E0070027E03C3EE47
:101A40006480F8EF64809850090F536680EF426617
:101A5000800B123BDA7F8060027F008F66123BDAD8
:101A6000C36001D39207805B53667FAF67EF640961
:101A70006007AF67EF640870047F0680027F0AD3B7
:101A8000EF6480F8E5666480984009C208C207E404
:101A9000F567802FE56675F00212051AAFF0EFC307
:101AA0006001D39206AF67EF64087003C38002A29F
:101AB000069207AF67EF64087004A2068001C39224
:101AC0000805661235F0A2079209A208920A123997
:101AD000C222301903021B5D301A03021B5DE49021
:101AE0000040F0E5636003021BDA12221D12225E41
:101AF0005065900045E0FD700404F08010ED122266
:101B00009F9409EC648094805003021BDA90004596
:101B10007401F09000051205DCFDACF0D3E50B9DDF
:101B2000EC6480F8E50A64809840068C0A8D0B808E
:101B30000B7432250BF50BE4350AF50AD312226239
:101B4000400912221DF50D85F00C2274FA250DF5C1
:101B50000DE4350CF50C22E4900045F022E49000F1
:101B600045F0900040E0FF3395E0FEEF4E700374C7
:101B700080F0900040E0547FF527301A13FF339532
:101B8000E0FED3EF9404EE648094804003023A9C1C
:101B9000AF27EF3395E0FED3EF9409EE6480948095
:101BA0004038D3E50D94EEE50C64809482400C74CB
:101BB00006250DF50D74FF350CF50CD3E50B94BE21
:101BC000E50A6480948A400C74E7250BF50B74FFDA
:101BD000350AF50A9000407480F022E549640370EC
:101BE00002F549E549146042147003021C8B14701D
:101BF00003021CD224036003021CCFD206123B0056
:101C0000E4F528F52974952529F582743E3528F5E3
:101C100083E493FF122FD9EFF00529E5297002051F
:101C2000286406452870DE021CCAE4F528F529124E
:101C30002FD9E0FF123028400F1230324018EF94B5
:101C40001FEE64809480500E0529E5297002052856
:101C50006406452870D9C3E5299406E52864809474
:101C6000805023122FD9E0F52CFF3395E0FE4F6012
:101C700006EF64064E7005C206123B00AF2C12330D
:101C8000FF754902804C75490380477530007531F6
:101C90000075322C7B007A00792A122581EF4E6084
:101CA00031AD2CAF2BAE2A1212EDE4F528F5291236
:101CB0002FD9E0B52C06122FD974FEF00529E5299D
:101CC000700205286406452870E57549018003E423
:101CD000F54990003EE06009E54964036003021B9A
:101CE000DB22201606E490004AF02290004AE0FF32
:101CF0003395E0FEC3EF9404EE648094805004E0DA
:101D000004F022900049E0540FF5247D901238EF42
:101D100060054003D38001C392067FCD7ECC7D8CCD
:101D20007C40AB52AA51A950A84F1202EC60074068
:101D3000057F0412000E7F667E667D061238F24033
:101D40000F7F9A7E997D997C40123909600C400A78
:101D50007D02123901E4F5258049E4FFFE7D807C97
:101D60003E12390940097DF01238EF600A4008122E
:101D700038FF752501802CA21B300601B3500812D4
:101D800038FF752502801CAF24EF3395E0FED3EFBA
:101D90009400EE648094804006E52414FF80027F66
:101DA000008F24E525C454F04524900049F0AF2469
:101DB000EF3395E0FEC3EF9408EE64809480401FFB
:101DC000E0FF7804A2E713D8FB540F24FE60070459
:101DD00070087F0580067F0980027F0312000E22B3
:101DE0008B3C8A3D893E8F428E418D408C3F7FD512
:101DF0007E2C7D517C00D3123995400612398B7FA1
:101E0000D822E47FE37E0AC312397E500612398B52
:101E10007F7D22740112398CE47FF57EF5D312396F
:101E20007E4038E4F543F544AE43E5447802C333DD
:101E3000CE33CED8F9241BF582743C3EF5831207CD
:101E400098C31239954006E54424D8FF220544E59D
:101E50004470020543644B454370CDE4F543F544BB
:101E6000E54425E0FFE54333FE74472FF582743DDA
:101E70003EF583E493FE740193FFE48F488E47F5AB
:101E800046F545E548F548E547F547E4F546F545A7
:101E9000AF42AE41AD40AC3FAB48AA47A946A845CA
:101EA000D31207745006E5442423FF220544E54479
:101EB00070020543645B454370A612398BFF228F85
:101EC000298E288D278C26122E8390000912055505
:101ED000F53012053C6402700FAE2AAF2BFC7DCDAD
:101EE0001205A6EF2530F530AC2AAD2BEC12036AB3
:101EF000AB29AA28A927A826122E58797A78441245
:101F00002E94122E5B7B9D7A69795C783C12024F8D
:101F1000122E5BAB2FAA2EA92DA82CC000C001C089
:101F200002C003AC30EC12036FE4FBFA79C87842CC
:101F300012024FD003D002D001D000122E58C0049C
:101F4000C005C006C007E4FFFE7D7A7C44AB5AAAF8
:101F500059A958A857122E77D007D006D005D0041B
:101F600012024F122E5BE4FBFA79C87842122E5807
:101F7000E4FFFE7DC87C42AB2FAA2EA92DA82C120F
:101F800002EC600A4008E4FFFE7DC87C4222AF2FCD
:101F9000AE2EAD2DAC2C22123C15855F248560251C
:101FA000D3E5259464E524648094804010749C25D6
:101FB00025F52574FF3524F524C21C8002D21CE4CB
:101FC000FBFA74832BF582743E3AF583E493FF7E2B
:101FD000002404FDEE33FCD3E5259DEC6480F8E598
:101FE00024648098506DEF24FCFFEE34FFFEC3E5BF
:101FF000259FEE6480F8E5246480984056748B2B0E
:10200000F582743E3AF583E493FF7E007C007D64A4
:10201000120594900058EEF0A3123BB78005C3332D
:10202000CE33CED8F9FF903E94E493FDEF5D7F026E
:1020300060027F03900057123BB78005C333CE3355
:10204000CED8F9FF903E93E493FDEF5DC36001D3DA
:10205000921B220BBB00010AEB64084A6003021FBB
:10206000C27F0812000E2212297064027006AC0AA8
:10207000AD0B800FAB10AA11A9129000051205DC60
:10208000FDACF0EC12036A1229938F278E268D2562
:102090008C247FCD7ECC7D2C12292060054003C38B
:1020A0008001D3921A301A04C219802BAF61EF332A
:1020B00095E0FED3EF944BEE648094804004D219F7
:1020C0008015AF27AE26AD25AC241229226005402D
:1020D00003C38001D3921912320DAF67EF6406601B
:1020E0004BAF67EF64086044AF67EF6409603D90F1
:1020F0000048E06003022D571229707004E5646007
:102100001FE56314600E14600F1460102403701C2C
:1021100075670322756702227567012275670422BD
:1021200090001EE06003021626E4F56722E4F52421
:10213000F525F526FB7F031221E77B007F021221A4
:10214000E77F011221D17B007A0079247D01E4FF31
:10215000120C207F031221D17D021221DD7D027F2E
:1021600002122C077D011221DD7D037F01122C0755
:102170007B01E4FDFF122C07752403E4F525752689
:1021800001FBFD7F03122C077B007A0079247D017F
:102190007F03120C20D207E4FD7F031222B375DF08
:1021A0004075DE60E4F5E9F5D1F5D375D50F75D44A
:1021B000FF90F69274A0F0E4F5499000361207D42F
:1021C00000000000123016F0A3F0A304F043DE80FC
:1021D000227B007A0079247D02120C20227B017F71
:1021E00003122C077B01227A0079247D04120C2033
:1021F000227F9A7E997D397C40900028E0F8A3E008
:10220000F9A3E0FAA3E0FB0202EC900041E0FF3307
:1022100095E0FED3EF9400EE64809480229000015C
:10222000AB10AA11A9120205DC75F00AED1208051F
:10223000EC75F00AA42583F583E49322AB10AA1170
:10224000A91202053CC3E5099529E5286480F8E553
:102250000864809822AF26EF3395E0FEEF22FFAEB0
:10226000F0C3E50D9FEE6480F8E50C64809822EFE2
:102270003395E0FEC3EF22E054C0F0C3ED9406ECCA
:102280006480948022E0FF543FF524FD3395E0FC08
:102290004D22D3EF9DEC6480F8EE64809822FD33EC
:1022A00095E0FCC3ED229000010205DC852808853D
:1022B000290922EF14603814605F1470030223436D
:1022C0002403600302236A122660400302236A305B
:1022D000070EA8057401088002C333D8FC4280228F
:1022E000A8057401088002C333D8FCF4528022127E
:1022F000264B5076122657407130070EA805740100
:10230000088002C333D8FC429022A80574010880DB
:1023100002C333D8FCF452902212262A504C1226C3
:1023200069404730070EA8057401088002C333D8FE
:10233000FC42A022A8057401088002C333D8FCF433
:1023400052A022ED12262E502130070EA80574014E
:10235000088002C333D8FC42B022AF05A80774013D
:10236000088002C333D8FCF452B0228E2A8F2BE4AB
:10237000F530F531E52B452A70030224200531E5BF
:102380003170020530AE2AAF2BEE3395E0FDFCE450
:102390007BA07A0FF9F81206338F2F8E2E8D2D8C9D
:1023A0002CC006C007AE30AF31AB07AA06EA3395A2
:1023B000E0F9F8D007D0061206BE8F2F8E2E8D2D95
:1023C0008C2CE47FFF7EFFFDFCAB2FAA2EA92DA84D
:1023D0002CC312077450A6C374FF952FF52F74FFFA
:1023E000952EF52EE4952DF52DE4952CF52CAF2F9B
:1023F000AE2EAD2DAC2C78081207858F8CE52FFF03
:102400008F8AC20F438810E58820E503300FF85308
:1024100088CFE531153170021530E531453070CE89
:10242000222012030224D330141E90F129E030E060
:10243000030224D390F164E030130554FEF08003CE
:102440004401F0C212C214227DC87C42123B5212D7
:1024500002EC600C400A90004B1207D442C8000006
:10246000E4FFFEFDFC123B551202EC500A90004BBB
:102470001207D400000000AF27AE26AD25AC24EC37
:102480004D4E4FC36001D392137DFA7C45123B52EF
:10249000120146E4FBFA798078BF1200558F278E2F
:1024A000268D258C24E4FBFA79C8784212024F8FDE
:1024B000278E268D258C241203A3AD07AC06ECFFD6
:1024C000EF90F141F0ED90F140F0D21490F129E05D
:1024D0004401F022E4F5DE90F692F090003E04F024
:1024E000E4F549FFEFFD3395E0FCC3ED9406EC64A1
:1024F0008094805015EF3395E0FC74302DF5827494
:10250000003CF58374FEF00F80DA9000361207D499
:1025100000000000123016F0A3F0FB7D027F0312D2
:102520002C07E4FB7D037F01122C07E4FBFDFF1267
:102530002C07752403E4F525F526FB7D047F0312A3
:1025400025777D027F011225777A0079247D01E4C9
:10255000FF120C20C2077D027F031222B3C207E4E0
:10256000FDFF1222B3C2077D037F011222B3C2070F
:10257000E4FD7F030222B37A007924120C207B0051
:10258000228B2D8A2E892FE5DF30E10280509000CA
:102590003BE004F0700690003AE004F0900036E072
:1025A000F8A3E0F9A3E0FAA3E0FBAFDDEFFEADDCBA
:1025B000EDFFEE3395E0FDFCEB2FFFEA3EFEE93D3B
:1025C000FDE83CFC9000361207C8C390003BE09445
:1025D0000A90003AE064809480500743DF02E4FEF2
:1025E000FF22900036E0FCA3E0FDA3E0FEA3E0FFA5
:1025F000E47B0AFAF9F812352C9000361207C890DD
:102600000036A3A3E0FFA3E0AB2DAA2EA92FCF8F06
:10261000F012061490003CE0AB30AA31A93212054A
:1026200082E490003DF0FE7F0122EDFF7E00D39416
:10263000067480948022EDF4F582758300858328EA
:1026400085822985832A85822BED22EDFF7E00D3AA
:1026500094077480948022C3EF9403748094802242
:10266000EDD394057480948022C3EF940174809418
:102670008022FBE434F0FAA80574010822F4F58204
:1026800075830085832C85822D85832E22A3E0FB14
:10269000E52D4BFD22A3E0FBE52F4BFD22E0FBE502
:1026A0002B4BFD22E0FBE52B5BFD22E0FBE52D5BE8
:1026B000FD22E0FBE52F5BFD22A3E0FBE5314BFDB6
:1026C00022A3E0FBEF4BFD22E0FBE5315BFD22782E
:1026D000FFE4F6D8FD9000007F007E04E4F0A3DF65
:1026E000FCDEFA75816802272402299DE493A3F891
:1026F000E493A34003F68001F208DFF48029E49319
:10270000A3F85407240CC8C333C4540F4420C8830F
:102710004004F456800146F6DFE4800B0102040811
:1027200010204080903364E47E019360BCA3FF548A
:102730003F30E509541FFEE493A360010ECF54C05F
:1027400025E060A840B8E493A3FAE493A3F8E493E7
:10275000A3C8C582C8CAC583CAF0A3C8C582C8CAEF
:10276000C583CADFE9DEE780BEEF14602214603C57
:10277000146056240370741226604002806DED24AC
:10278000801226728002C333D8FC55ACFC806012E4
:10279000264B500512265750028050ED24881226F1
:1027A000728002C333D8FC55ADFC804312262A50F8
:1027B0000512266950028033ED24901226728002A1
:1027C000C333D8FC55AEFC8026ED12262E40028085
:1027D0001AED2498FBE434F0FAAF05A80774010859
:1027E0008002C333D8FC55AFFC8004E4FEFF22EC2A
:1027F0007003FEFF228B828A83E05403FF7E002257
:102800007D087F021237F3403D90005CE025E0F048
:1028100030A303E004F090005CE0FFFD7C00F46076
:1028200003ED7022E4F5B6EDF44CD37001C3921DB4
:10283000EFF47B0170027B027D037F021231577D32
:10284000087F02123A60301D08E51630E70375165E
:1028500080301D27E51564857021120003D3EF94A5
:1028600000EE648094804005123ABA800BE4F519BA
:10287000F51B751801751701E4F515201D13E516F4
:102880006484700DF516E5177004751A0122E4F5DD
:102890001722752403E4F525752601C2077D02FF82
:1028A0001222B37B007A0079247D04E4FF120C200D
:1028B0007B127D02E4FF122C0790F120E4F0A37458
:1028C0000DF090F1237401F090F12A74FFF090F173
:1028D00022E4F090F127740DF0A3F090F160E4F0A1
:1028E00090F165F090F164740DF090F131741FF087
:1028F00090F130743FF090F141E4F090F140F090AD
:10290000004B1207D400000000C214C21290F166FE
:10291000E4F090F12604F0023BA97D4C7FCD7ECC03
:102920007C40900028E0F8A3E0F9A3E0FAA3E0FBE4
:102930000202EC9000231207C8900023E0FCA3E001
:10294000FDA3E0FEA3E022D390001DE094009000E0
:102950001CE0648094802290001FE0FEA3E0FFEE64
:102960003395E0FDFC22D3EF9400EE648094802246
:10297000AB10AA11A91202053C1203A37C007D0A28
:102980001205A6AE04AF0522AB27AA26A925A824C6
:1029900002075EE4FBFA797A784402024F123B2A7E
:1029A000D2071238C81233B212212D121F97123CCF
:1029B00018122892122C791230FB1234E212002ED7
:1029C000120EED122EA1E490003EF043A880123CBE
:1029D00015122800123C1A122067120866121108FC
:1029E0001214971224213010E5C210123733123C12
:1029F00019121894123B76122B92122CE812357091
:102A0000122DC6AF1EEF3395E0FEC3EF9403EE64C4
:102A100080948040B91219B6121CE280B190005B1C
:102A2000E0B407005073902A2DF8282873022A4238
:102A3000022A4D022A6A022A70022A8D022A4D02B7
:102A40002A93E490005AF07D0B7F0180497F0212A7
:102A500039385002802190005BE0640170067D07E8
:102A60007F0280327D237F06802C7D237F0380269A
:102A70007F061239385010AB10AA11A9129000012C
:102A80001205DCFFAEF0227D077F0480097D0B7FFD
:102A9000058003E4FDFF123BC3E4FEFF228F2A12F0
:102AA000223CF52E1222A6F52D85F02CE4F52BAF55
:102AB0002B12226F940BEE64809480505B903DFD4E
:102AC00075F00AEF120805EE122231652A704512E0
:102AD0003BE4AF2BEF3395E0FE7C007D0A120594BA
:102AE00074FD2FF9743D3E7510FFF5118912E52E26
:102AF0006408700DE52A64086007AF2DAE2C123013
:102B00009DE52E700AE52A6006FF1232BF8005E4BB
:102B100090003FF0052B809722D208123B882007B7
:102B20001CE4F52AF52B742C12371E7F11123797EF
:102B3000052BE52B7002052A12372940E98508305C
:102B40008509317F003002027F018F327A007930AF
:102B50001237131234978F33200707E533B52F024E
:102B6000802A7B007A00792CE4FDFC7F1D123797C8
:102B7000E4F52AF52B743012371E7F1912379705AA
:102B80002BE52B7002052A12372940E9C208123BB7
:102B9000882290003FE0FF1222709418EE64809427
:102BA000805003E004F090004512220D400DEF9498
:102BB00009EE648094805003E004F0AF0F12226F9E
:102BC0009420EE648094805002050FAF0EEF122225
:102BD0000F4002150E12220A4003E014F09000404C
:102BE000E0FF30E71C547FFEEF5480F0EE12229E8F
:102BF000940AEC6480948050010E900040E04EF006
:102C000022E4900040F022EBF5826402606AE582E3
:102C100064036064E5826419605ED3E582941C7489
:102C20008094805053EF14601414602014602F249B
:102C30000370451226605040ED2400802A12264B76
:102C400050361226574031ED2410800D12262A509E
:102C5000271226694022ED2420F528EE800CED1283
:102C6000262E5014ED2430F528E434F0F527EB54EB
:102C70001F852882852783F022752403E4F52575B6
:102C8000260190005DF0F56790F12404F090F12C9E
:102C900074FFF0A3F090F1357409F090F134745F93
:102CA000F090F1377409F090F136745FF090F126EE
:102CB000E0440CF01235F090F129E0540C70F8FB70
:102CC0007D10122CDE7B007D20122CDE7B147D0417
:102CD0007F02122C077B157D057F02022C077A00EC
:102CE00079247F02120C202212223C6069123C01DE
:102CF0004007E4900043F080299000431222857041
:102D000007EF20E6034480F090004312227750083A
:102D1000E020E60405248003E4F524900043E04528
:102D200024F0123C084006E4900044F02290004455
:102D30001222857007EF20E6034480F090004412D1
:102D400022775008E020E60405248003E4F524906F
:102D50000044E04524F022900046E0FEA3E0FFC3DB
:102D60009405EE648094805010C3EF9403EE648069
:102D70009480504EEF04F56722900048E0FF7E00FB
:102D80007C007D06120594EF2405FFE43EFE9000D2
:102D900046E0FCA3E0FDC39FEE6480F8EC648098FD
:102DA0005020ED24FBFFEC34FFFE7C007D03120578
:102DB000A67C007D021205A6ED4C70047567012209
:102DC0008000E4F5672290001EE0700BAB10AA11A2
:102DD000A91212053C600775130075142822D3E56B
:102DE000149400E513648094804009E51415147070
:102DF0004215132290F500E4F0C206123A7E438792
:102E000004438702123B2AD2071238C81239E37FE3
:102E1000017E0012236B122800301005C2101237F9
:102E200033123B3F50E9D206123A7EE490003EF066
:102E300043A88022900014E0FCA3E0FDA3E0FEA3E1
:102E4000E0FF222400F58274003EF583E0F8A3E061
:102E5000F9A3E0FAA3E0FB221201468F2F8E2E8DFC
:102E60002D8C2C22AE26E527780222D3E52594006E
:102E7000E5246480948022120146A804A905AA06CC
:102E8000AB0722AB10AA11A912222400F58274000C
:102E90003EF58322E4FBFA02024F6480F8E064808E
:102EA00022C219C21A122970702BF524900057E023
:102EB000C36480F8E52464809850107F021236CDF8
:102EC0007FA07E0012236B052480E17F907E01129B
:102ED000236B75640C1239A0E490001EF0F524AF4A
:102EE00024EF3395E0FEC3EF9406EE6480948050A7
:102EF00018123C15AF52AE51AD50AC4F9000281295
:102F000007C812320D052480D6228B348A358936C3
:102F10007537027538007B007A007939AD38AC37E7
:102F20007F11123797AF39EF3395E0FEC3EF94016D
:102F3000EE648094804036D3EF940BEE64809480EE
:102F400040028029E53914AB34AA35A9361205822E
:102F50000538E53870020537C394FCE53764809482
:102F60008340B3AB34AA35A936E4120582AE37AF3D
:102F700038227D037F02122769EF64014E7034C24C
:102F80001DE515547FFFE4F515E5177004E51B609A
:102F900007E4F51BF5178033EFC39405502D12009D
:102FA00003C3EF940AEE64809480500205197516ED
:102FB000808018D21D751300751428E51630E703BC
:102FC000751680E51520E7037515807D087F0212D0
:102FD000395C90005C74AAF02274302529F5827463
:102FE000003528F58322E4FFFE7C43AB3BAA3AA9D7
:102FF00039A8382275303EAB33AA32A931A830AF98
:103000003BAE3AAD39AC3802024F12024F8F378EC9
:10301000368D358C3422E490003AF0A3F0A322AF31
:103020005AAE59AD58AC57223395E0FEC364809434
:103030008022D3EF9416EE64809480228D2720198D
:1030400009201A06E4900040F022900040E0FD3391
:1030500095E0FCED4C70037480F0900040E0547FEC
:10306000F528201A057529098003752902EF6014D7
:10307000301A29AF2812226F9403EE6480948040A6
:103080001B023A9CD3E5296480F8E52864809840C7
:103090000B9000407480F0AF27122A9D228E2F8F54
:1030A0003012365460549000011205DCFBAAF090F7
:1030B0000058E0FEA3E0FFC39BEA6480F8EE648062
:1030C000985004AA06AB07123628900055E03EC37C
:1030D00064809480C3EB9530FFEA952FFE900055F5
:1030E000F0A3EFF0C3EE648094805007E4900055A5
:1030F000F0A3F0E4900053F0A3F022E4F50EFFEF0C
:1031000012229E940BEC64809480502C903DFD1212
:1031100022296402701FEF3395E0FC903E021222D8
:1031200029F50A740193F50B903DFE122229F50C46
:10313000740193F50D0F80C71231B2123BE4900079
:10314000427404F0E4900048F07510FF75113D756D
:1031500012FDC203C20422EBD31226595053EF14BE
:10316000601414602014602F2403704512266050F0
:1031700040ED2480802A12264B50361226574031CB
:10318000ED2488800D12262A50271226694022ED50
:103190002490F528EE800CED12262E5014ED249884
:1031A000F528E434F0F527EB54038528828527833E
:1031B000F022D208123B88E4F524F5257426252553
:1031C000F9E4FAFBAD25AC247F111237970525E50C
:1031D0002570020524C39404E5246480948040DCB7
:1031E000C208123B887A007926123713123497EFFF
:1031F000B5290F852608852709E528C36001D392E4
:10320000022212381FC202D207122B1922E56314C0
:1032100060151460291460442403704A7D6C1229DF
:103220001C5043756301227F9A7E997D7912292073
:1032300060054003E4F56312291A502A8025E4FF53
:10324000FE7D60122920600540037563017F9A7E30
:10325000997D39122920500E7563032212291A60B4
:10326000054003756302228F288D2990001CE0B46D
:10327000FF0FA3E0B4FF0A1236CDE490001CF0A3C8
:10328000F090001CE0FAA3E0FB7C007D04FFAE029E
:103290001205A6D3ED9401EC648094807F00400277
:1032A000AF288F67D3EB9400EA64809480500FE4DA
:1032B000F56790001CF0A3740AF0A3E529F0228FB3
:1032C0002FD208123B887B007A007932122F0A8EA7
:1032D000308F31AD32AF2F123660E532B52F02801C
:1032E0001FE531B4FC10E530B4030B7530027531C5
:1032F000007F1D123306E52F04F5337F19123306C4
:10330000C208123B88227B007A007933AD31AC30A1
:1033100012379722200C0A900051E0FEA3E0FF80B4
:1033200030123628FF900055E03EFEC36480948042
:103330005003E4FEFFC3900052E09FFF900051E075
:103340009EFEC3EF94DCEE6480948550047E057F7E
:10335000DC900051E0B50608A3E0B50703C3800187
:10336000D3920E22C110C10FC111C11D41005E00D8
:10337000C118C117011CFF011E0442005300004286
:1033800000550000C10C0168FFC10EC10BC10DC189
:10339000054100400041004300410041004100441C
:1033A0000041003F1941004500C100C101410049F1
:1033B0000000752403752501752601C281C284C2EF
:1033C00083C2857D021233ED7D10E4FF120C207D57
:1033D000081233ED7D20E4FF120C20E4900051F040
:1033E000A3F090004FF0A3F0C216C215227B007A22
:1033F000007924E4FF120C207B007A00792422ABB0
:10340000077AFF90003DE07041EB123028403B12FC
:103410003032400AEF941FEE64809480402C90007C
:10342000361207D400000000123016EBF0A374012E
:10343000F0EB30E40543DF80800353DF7F53DEF0A1
:10344000EB540F42DEDAFE43DF02221222924002E8
:103450008004AE04AF058E278F28E5286402452737
:1034600070177F667E667D461221F7600940077FF0
:1034700008122A9D800312384BE528640345277003
:10348000157FCD7ECC7D2C1221F7600740057F098A
:10349000022A9D756706228B348A3589368F3A8ECB
:1034A000398D388C37E4F53BAB340536E536AA3533
:1034B0007002053514F912053C623B7F08E53B308C
:1034C000E70825E06407F53B8006E53B25E0F53B92
:1034D000DFEB783774FF1207AAEC4D4E4F70C9AF7F
:1034E0003B22752401E4F525F526FB7D037F0212BE
:1034F0002C077B007A0079247D087F02120C207D46
:10350000087F02123A607B027D037F02123157432B
:10351000B90475130075142890005C74FFF0E4F58D
:1035200015F516F518F519F51AF51B22C2D5E83070
:10353000E70FB2D5E4C39BFBE49AFAE499F9E49867
:10354000F8EC30E717B2D51235621206BEE4C39B21
:10355000FBE49AFAE499F9E498F880031206BE3085
:10356000D50DE4C39FFFE49EFEE49DFDE49CFC2298
:10357000900048E0FF7E007005900046803090008B
:1035800047E004F07006900046E004F07C007D0601
:10359000120594EF240FFFE43EFEC3900047E09F26
:1035A000EE6480F8900046E06480984004E4F0A364
:1035B000F022C0E0C0F0C083C082C0D075D000C08F
:1035C00000C001C002C003C004C005C006C007128D
:1035D0002F7275B600D007D006D005D004D003D026
:1035E00002D001D000D0D0D082D083D0F0D0E03251
:1035F0007F05301E027F0090F145EFF07F78301E8E
:10360000027FFA90F144EFF07F05301E027F0090B8
:10361000F147EFF07F78301E027FFA90F146EFF02D
:1036200090F129E0440CF022900053E0FEA3E0FF6B
:103630007C007D641205A6900056E02F22AF4AEF71
:103640003395E0FE22E5259527E5266480F8E524FC
:1036500064809822AB10AA11A912900008020555A7
:10366000EF64017002FF22E4FEEEFB3395E0FAC343
:10367000EB9403EA64809480501DEE3395E0FA7475
:103680009E2BF582743E3AF583E493B50706ED7FF1
:10369000046001FF0E80D222E4FFEFFD3395E0FCD1
:1036A000C3ED9403EC648094805020EF3395E0FCEC
:1036B000749B2DF582743E3CF583E493FE900048A4
:1036C000E0FDEEB50502C3220F80CFD322EF1460D8
:1036D0000C14600F147010C206D207800AD206C202
:1036E000078004D206D207A2069209A207920A1204
:1036F00039C27F147E0012236BC209C20A0239C28A
:1037000075F00AEF120805EE75F00AA42583F5831B
:10371000E493227B007F037E007D007C0022252B2A
:10372000F9E4FAFBAD2BAC2A22C39404E52A6480A9
:10373000948022E51530E711547FFFC394055001B2
:103740000F531580EF42158003E4F515E51630E7B9
:1037500010547FFFC3940450010F531680EF42169C
:1037600022E4F5162212229240028004AE04AF0534
:103770008E278F28E528640245277008200B057FD7
:1037800008122A9DE52864034527700A7F04300249
:10379000027F02122A9D228F3AEF641970051205EA
:1037A0003CF5FEEDF5FCECFFEFF5FD00853AFF0082
:1037B0000000000000E5FF20E0FBE53A6411700521
:1037C000E5FE120582221229475027EF4E7007743A
:1037D000FFF0A3F08017EF7802C333CE33CED8F9D1
:1037E00024FFFFEE34FF90001CF0A3EFF090001ECA
:1037F000EDF022EF146011146015146019240370A9
:103800001CE5AC5D6017D322E5AD5D6010D322E509
:10381000AE5D6009D322E5AF5D6002D322C322759D
:103820000803750920E4FFFE903DFD123700640295
:10383000700D903E00123700F508740193F5090FE2
:10384000BF00010EEF640B4E70DE221221F16010FA
:10385000400E3002047F028016900042E0FF800F8D
:103860007FCD7ECC7D2C1221F7600740057F0302BF
:103870002A9D75670622E56364036005E4F56580AB
:103880001DE56570057565018014AF65EF3395E042
:10389000FED3EF9474EE648094804002D322C3225E
:1038A000A907900043E0FE5480FB3395E04B700B7A
:1038B000ED3395E0FCED64014C700CEE547F90000C
:1038C00043F0AF01122A9D22E4200706F5C853A851
:1038D000DF22F5CE75CB0B75CADB75CD5D75CC6679
:1038E00043A820F5C975CF80751F0475C89122E4DF
:1038F000FFFE7C40AB4EAA4DA94CA84B0202EC7DCA
:1039000001AF24123AD28F2422AB5EAA5DA95CA833
:103910005B0202EC90F1417401F07F003006027FFF
:10392000FF90F140EFF0123BA990F164E0301304F6
:1039300054FEF0224401F022AB07EB3395E0FEEF9A
:1039400025E0FDEE33FC123BEE1205A6EB14D3642A
:1039500080F8ED6480984002D322C322EF14600FF8
:1039600014601114601324037013EDF452AC22EDB3
:10397000F452AD22EDF452AE22EDF452AF22FDFC32
:10398000AB42AA41A940A83F020774E4AB3CAA3D60
:10399000A93E020582AB42AA41A940A83F02077492
:1039A00090001F747FF0A374FEF0A37480F0A374E2
:1039B00002F0E4900027F09000231207D4000000EA
:1039C000002290F164E0FF3009055307FB800343B8
:1039D0000704300A055307F7800343070890F16492
:1039E000EFF0227D087F0212395C90005C74AAF02F
:1039F000D21DE51630E703751680E51520E703753F
:103A0000158022E5177004E51B6004E4FEFF22E543
:103A10001A7003FEFF22120003300605E4F51AF5C2
:103A20001922E4FB7D02FF122C07C2077D02E4FF8E
:103A30001222B390F121E4F090F126F090F123F0FE
:103A40002290F5007409F090F5027419F090F50CCD
:103A5000E4F090F5067438F0A37405F075B980228F
:103A6000EF14600E14600F1460102403700FED4209
:103A7000AC22ED42AD22ED42AE22ED42AF22300645
:103A80000F12212D122892122C791233B2023A41D0
:103A9000C2071238C8123A221224D42212223CFF42
:103AA00060179000071205556005900042EFF0E4A2
:103AB000FF122A9DE4FF1232BF22E4F516F51AF533
:103AC00019F517F518EF64014E7F0070027F018F22
:103AD0001B22EFFB3395E0FAC3EB9408EA64809471
:103AE000805004EF2DFF227F0822900044E0FE5416
:103AF00080FD3395E04D6007EE547FF0122A9D2241
:103B000053DE7F007F002006027FA090F692EFF048
:103B10000043DE8022C0E075C900151FB211E51F09
:103B20007005751F04D210D0E0325388CF5389F04E
:103B3000438901E4F58CF58A75A80243A88022E543
:103B4000186002D322E51A6002D322E51BC360018C
:103B5000D322E4FFFE90004BE0F8A3E0F9A3E0FAE3
:103B6000A3E0FB22EF64014E700B200405123C0120
:103B70004003123A9C22123BEED3EF9400EE648095
:103B800094804003E014F022300807C2AF0075FBB8
:103B9000AA2275FB5500D2AF222018037F00229085
:103BA000005EE0FFE4F0C2182290F1297401F09069
:103BB000F129E020E0F922EFF0AF037E007401A8C4
:103BC00007082290005AE07005EDF0A3EFF022E51F
:103BD000187002C322E4F518D322E5665480FF333F
:103BE00095E04F22E490005BF090005AF0229000A4
:103BF0005AE0FF3395E0FE2290001EE0700204F0D0
:103C000022E517C36001D322E51BC36001D3225311
:103C100088EFD20F32021BDB22222200512CD5006A
:103C20004B18690045845700406521003BB0620095
:103C3000375CB60033619B002FB760002C5707003C
:103C4000293A3D00265B410023B4DC0021424D00AF
:103C50001EFF45001CE7D5001AF86900192DBE00AB
:103C60001784DA0015FB0600148DC700133ADA003A
:103C700012002B0010DBD6000FCC1E000ECF6C0004
:103C80000DE44B000D0965000C3D80000B7F7C00AE
:103C90000ACE50000A290700098EC30008FEB500AD
:103CA00008781F0007FA52000784AE0007169D002F
:103CB00006AF9700064F1C0005F4B800059FFE00F4
:103CC00005508B000506020004C00D00047E5D0057
:103CD0000440A9000406AC0003D02700039CE100C7
:103CE000036CA100033F37000314720002EC2800AC
:103CF00002C62F0002A2630002809F000260C30080
:103D00000242B10002264C00020B7B0001F22300AC
:103D100001DA2E0001C3870001AE19000199D2001B
:103D20000186A0000174720001633A000152EA00AA
:103D3000014372000134C8000126DF000119AC0004
:103D4000010D2500010141F5F5EB3AE107D755CE0C
:103D50001DC558BD00B50EAD7FA64C9F7098E7926B
:103D6000AC8CBB871181AA7C82779772E46E676AFC
:103D70001E6606621C5E5F5ACB575F541950F84DA1
:103D8000F84B1A485A45B8433340C83E773C3E3A50
:103D90001D3812361D343B326D30B22F082D6F2B7B
:103DA000E62A6C290127A42655251323DD22B221FA
:103DB00093207F1F751E751D7E1C901BAC1ACF199A
:103DC000FB192E186917AA16F31642159714F21448
:103DD0005313B913251296120C1186110510881071
:103DE000100F9B0F2B0EBE0E550DEF0D8C0D2D0CD5
:103DF000D10C780C210BCE0B7D0B2E0AE3000000BA
:103E0000000000000100640100000000000000004C
:103E10006403000F00000AF00000320403E8000011
:103E20000B540100450507D000000BB801005606F1
:103E30000FA000000BEA010160071F4000000C1CEE
:103E40000101660859D800000C8000016A092EE0C3
:103E5000000009C4000169021F4003E80C80000152
:103E6000450A2EE0000009C400016978502D0100C8
:103E70000000000000000000000000000000000042
:103E8000000000524B44382F21180F91B464E6E62D
:103E900078B464070F1F0D080E0006050304080917
:013EA0000A17
:00000001FF
