:0A000000022482E515C36001D3223B
:10000B00023DDD900041EFF0AB10AA11A9121205D1
:10001B00646401600A7F0112318F7F01122859221B
:10002B00023C7ED207123CF07B007A007924122E20
:10003B0088E4FDAF241235F1122859C207023CF0B7
:10004B00023505E4FFFE7C40AB4DAA4CA94BA84AF8
:10005B000203147D01AF24123C518F2422AB5DAA05
:10006B005CA95BA85A0203140239C5020437E86481
:10007B0080F8E933E83360110460F0ED33EC337052
:10008B0009E8FCE9FDEAFEEBFF220460DED3EB9FFF
:10009B00EA9EE99DE8C2E78CF0C2F795F0400CE8C8
:1000AB00CCF8E9CDF9EACEFAEBCFFB12040285D0FE
:1000BB00F05804700320D5B3E80470075002B2D592
:1000CB0002044192D5EC0460F7E4CCC0E0C398F88D
:1000DB00603B94186008400DD0E0FB020419E4FB70
:1000EB00FAC9FC8028E830E406E4C9FBE4CAFCE862
:1000FB0030E305E4C9CACBFCE854076010F8C3E948
:10010B0013F9EA13FAEB13FBEC13FCD8F130F52FD0
:10011B00C3E49CFCEF9BFFEE9AFEED99FDD0E0FB58
:10012B00EF4E4D4C701222DB0302043EEC2CFCEF25
:10013B0033FFEE33FEED33FDED30E7EB020419EF49
:10014B002BFFEE3AFEED39FDD0E0FB50130BBB005D
:10015B0003020441ED13FDEE13FEEF13FFEC13FC52
:10016B00020419EC4D6011E8497017ED33EC3304C0
:10017B00600DE4FCFFFEFD22E933E8330470F80266
:10018B00043712040258046009E4CC248150062879
:10019B00500902044128400302043EC0E0EB4A70C0
:1001AB0044B98006D0E0FB02042DEF4E701CBD80DD
:1001BB0008EBFFEAFEE9FD80EBE98DF0A4FEE5F02C
:1001CB00020257E9CDF9EAFEEBFFEF89F0A4FCE55B
:1001DB00F0CE89F0A42EFFE435F0CD89F0A42DFEEE
:1001EB00E435F08067EF4E7005BD80D780C3EF8B91
:1001FB00F0A4ACF0EE8BF0A42CFCE435F0F8EF8A15
:10020B00F0A42CE5F038FCE433CB8DF0A42CFCE50A
:10021B00F03BF8EE8AF0A42CFCE5F038F8E433CF91
:10022B0089F0A42CFCE5F038CF3400CE89F0A42F54
:10023B00FFE5F03EFEE433C98DF0A42EFEE5F03968
:10024B00CD8AF0A42FFFE5F03EFEE43DFD33D0E078
:10025B00FB50070BBB000F020441EC2CFCEF33FFF0
:10026B00EE33FEED33FD020419020441EC5D046034
:10027B0005E859047003020437120402580460F6AF
:10028B00EC4860F2EC7004FDFEFF22C860DB2481B9
:10029B00C85009C3986002500602043E9850CAF534
:1002AB0082E9294B4A7005AB8202042D75F0007C64
:1002BB001A7880C3EF9BEE9AED99400DC3EF9BFF2D
:1002CB00EE9AFEED99FDE842F0DC23ACF0D0E0FFB6
:1002DB00D0E0FED0E0FDAB8220E7101BEB60BAEC68
:1002EB002CFCEF33FFEE33FEED33FD020419E80374
:1002FB00F830E705C0F075F000EF2FFFEE33FEEDA1
:10030B0033FD40B830E7C280AA74F8CC6480CCC807
:10031B006480C8F58204604FC3EB9FF5F0EA9E4200
:10032B00F0E99D42F0E89C45F0603C501DE5825F92
:10033B00FFE582D313CB5BCBF42B5582FB50280A02
:10034B00BA002409B9002008801DE5825BFBE58219
:10035B00D313CF5FCFF4C3132F5582FF50090EBEBB
:10036B0000050DBD00010CC3EB9FF5F0EA9E42F0BA
:10037B00E99D42F0E89C45F06007CC4820E701B3CB
:10038B00EC2275F020800E75F010800575F0087D5D
:10039B00007E007F003392D530D503120778EC3303
:1003AB004010EF33FFEE33FEED33FDEC33FCD5F0B5
:1003BB00ED22E5F0247EA2D513CC92E7CDCEFF2221
:1003CB00EDD2E7CD33EC3392D524814006E4FFFE2A
:1003DB00FDFC22FCE4CFCECDCC24E0501174FF8089
:1003EB00EDC3CC13CCCD13CDCE13CECF13CF047026
:1003FB00F030D5DE020778E9D2E7C933E833F8925B
:10040B00D5EDD2E7CD33EC33FC5002B2D522EC3034
:10041B00E7100FBF000C0EBE00080DBD00040BEB68
:10042B006014A2D5EB13FCED92E7FD2274FFFCFDEB
:10043B00FEFF22E480F8A2D574FF13FC7D80E480DC
:10044B00EFE709F608DFFA8046E709F208DFFA80E2
:10045B003E88828C83E709F0A3DFFA8032E309F64A
:10046B0008DFFA8078E309F208DFFA807088828C63
:10047B0083E309F0A3DFFA806489828A83E0A3F621
:10048B0008DFFA805889828A83E0A3F208DFFA80BA
:10049B004C80D280FA80C680D4806980F280338011
:1004AB001080A680EA809A80A880DA80E280CA80D9
:1004BB003389828A83ECFAE493A3C8C582C8CCC57E
:1004CB0083CCF0A3C8C582C8CCC583CCDFE9DEE7FB
:1004DB00800D89828A83E493A3F608DFF9ECFAA9ED
:1004EB00F0EDFB2289828A83ECFAE0A3C8C582C8AF
:1004FB00CCC583CCF0A3C8C582C8CCC583CCDFEAFE
:10050B00DEE880DB89828A83E493A3F208DFF9803B
:10051B00CC88F0EF60010E4E60C388F0ED2402B47E
:10052B00040050B9F582EB2402B4040050AF23232E
:10053B0045822390049C73C2D530F707B2D563F084
:10054B00FF05F030E70CB2D5F4048463F0FF05F03F
:10055B0080018430D502F40422BB010689828A8390
:10056B00E0225002E722BBFE02E32289828A83E467
:10057B009322BB010CE58229F582E5833AF583E0F2
:10058B00225006E92582F8E622BBFE06E92582F811
:10059B00E222E58229F582E5833AF583E49322BBD7
:1005AB00010689828A83F0225002F722BBFE01F3F7
:1005BB0022EF8DF0A4A8F0CF8CF0A428CE8DF0A460
:1005CB002EFE22C2D5EC30E709B2D5E4C39DFDE483
:1005DB009CFCEE30E715B2D5E4C39FFFE49EFE1200
:1005EB000839C3E49DFDE49CFC800312083930D527
:1005FB0007C3E49FFFE49EFE22BB0110E58229F5B1
:10060B0082E5833AF583E0F5F0A3E0225009E92572
:10061B0082F886F008E622BBFE0AE92582F8E2F5AD
:10062B00F008E222E5832AF583E993F5F0A3E99339
:10063B0022BB010A89828A83F0E5F0A3F0225006DF
:10064B00F709A7F01922BBFE06F3E5F009F319220F
:10065B00E88FF0A4CC8BF0A42CFCE98EF0A42CFC3E
:10066B008AF0EDA42CFCEA8EF0A4CDA8F08BF0A4BC
:10067B002DCC3825F0FDE98FF0A42CCD35F0FCEB1B
:10068B008EF0A4FEA9F0EB8FF0A4CFC5F02ECD39E0
:10069B00FEE43CFCEAA42DCE35F0FDE43CFC2275D7
:1006AB00F008758200EF2FFFEE33FECD33CDCC3348
:1006BB00CCC58233C5829BED9AEC99E58298400CB0
:1006CB00F582EE9BFEED9AFDEC99FC0FD5F0D6E48E
:1006DB00CEFBE4CDFAE4CCF9A88222B800C1B90074
:1006EB0059BA002DEC8BF084CFCECDFCE5F0CBF9D5
:1006FB007818EF2FFFEE33FEED33FDEC33FCEB33CD
:10070B00FB10D703994004EB99FB0FD8E5E4F9FAFA
:10071B00227818EF2FFFEE33FEED33FDEC33FCC9DF
:10072B0033C910D7059BE99A4007EC9BFCE99AF972
:10073B000FD8E0E4C9FAE4CCFB2275F010EF2FFFE1
:10074B00EE33FEED33FDCC33CCC833C810D7079B4B
:10075B00EC9AE899400AED9BFDEC9AFCE899F80FAE
:10076B00D5F0DAE4CDFBE4CCFAE4C8F922C3E49F7C
:10077B00FFE49EFEE49DFDE49CFC22EB9FF5F0EA7A
:10078B009E42F0E99D42F0EC6480C864809845F08D
:10079B0022EB9FF5F0EA9E42F0E99D42F0E89C4582
:1007AB00F022E8600FECC313FCED13FDEE13FEEF2C
:1007BB0013FFD8F122E493FC740193FD740293FEB2
:1007CB00740393FF227401FF3395E0FEFDFC0808D0
:1007DB0008E62FFFF618E63EFEF618E63DFDF61886
:1007EB00E63CFCF622ECF0A3EDF0A3EEF0A3EFF069
:1007FB0022A8828583F0D083D082120813120813AB
:10080B00120813120813E473E493A3C583C5F0C550
:10081B0083C8C582C8F0A3C583C5F0C583C8C5828C
:10082B00C822A42582F582E5F03583F58322BC002E
:10083B000BBE0029EF8DF084FFADF022E4CCF875F0
:10084B00F008EF2FFFEE33FEEC33FCEE9DEC9840FF
:10085B0005FCEE9DFE0FD5F0E9E4CEFD22EDF8F59B
:10086B00F0EE8420D21CFEADF075F008EF2FFFEDFB
:10087B0033FD4007985006D5F0F222C398FD0FD5F3
:10088B00F0EA22E4F525E5687005123D238F25C2B9
:10089B0005123C398F24900052E06009C3940B740D
:1008AB0080948040069000527404F0C21D1228D52B
:1008BB00B40B004003020A8D9008CAF82828730273
:1008CB0009040208EB0209AC0209620209CA020917
:1008DB00D90209EA0209FB020A20020A69020A7715
:1008EB00E4F568123D6A4003020A8D1236965003F6
:1008FB00020A8D123DCB020A8DAF241227D8E56870
:10090B006003020A8DAF241228E064014E6004E5F7
:10091B0025600A900052E0FF1239768007AD25AFB3
:10092B00241233AA123D6A50057F03122859AF24B3
:10093B001228E064044E7010B20C7F09300C027F59
:10094B00088F63C206122A3A123BD2EF7003020AD7
:10095B008D123C20020A8DD21D7D03120B9F123883
:10096B007BE4FDAF251233AA123D6A400B1228DE41
:10097B0064014E6003020A8D7F041239761228D56A
:10098B0064037003020A8D300C0312358090005300
:10099B00E04440F0E5256003020A8D750E04020A5F
:1009AB008D200D101228DE64044E70057F03122873
:1009BB0059120BAC121AA1AF25121791020A8D7D99
:1009CB0004120B7B1233AAAD257F05020A8A7D0424
:1009DB00120B8F120BBE7F0612394E7F0480317DB6
:1009EB0005120B8F120BBE7F0712394E7F0580202D
:1009FB007D06E4FF123360120BACE4FD7F04123969
:100A0B004E1228DE64014E70057F031228597F06B3
:100A1B00123D4F806D7D07E4FF123360AF24EF333F
:100A2B0095E0FE12387B1228DE64014E600DAF2478
:100A3B001228E064024E600330030A7F04300C027C
:100A4B007F021228591228DE64034E600AAF24126B
:100A5B0028E064034E702B7F0912285980247D09EE
:100A6B00120B7B123768AD257F0A80137D0A120BA0
:100A7B009F12387BAD24AF25123768AD257F091245
:100A8B00394E1229175003301E0C90004AE4F0A384
:100A9B007432F0020B50AF0EEF12291C4002806D26
:100AAB001228D524F6600304705EE51C146017143D
:100ABB0060201460292403702E123ADC90004AEE59
:100ACB00F0A3EFF0802190004A7427F0A37410F08C
:100ADB00801590004A7413F0A37488F0800990007D
:100AEB004AE4F0A3746EF01228D5FF7E00640970FF
:100AFB000920100690004AF0A3F0EF640A4E7045EF
:100B0B00122AADEF703F80061239245009E4900091
:100B1B004AF0A3F0802F1228D56402701DC3E50D97
:100B2B009509E5086480F8E50C6480985006AE0CD6
:100B3B00AF0D8009AE08AF098003123ADC90004A72
:100B4B00EEF0A3EFF0D205123C39301604E5257018
:100B5B000F900050E0FF3395E0FEEF64184E700FDE
:100B6B00C216900050E004F01228D5FF12318F22EC
:100B7B007F01123360AF24EF3395E0FE12387BAD6B
:100B8B0024AF2522E4FF123360AF24EF3395E0FE50
:100B9B0012387B227F01123360AF24EF3395E0FED6
:100BAB0022AF24EF3395E0FE12387BAD24AF251234
:100BBB0033AA22AD24AF251233AAAD25228F2712DB
:100BCB000564FF14601514602814603D14603A240A
:100BDB0004705C1222B01222F780291222B0F58227
:100BEB007401F52C85822DE582F4F582752E00803B
:100BFB00131222B0F4F582752C0085822DEDF5824F
:100C0B007401F52E85822F8026ED1222F785822F17
:100C1B00EDF5827401F528858229EF64047007EDE8
:100C2B00FF7401FE8005EDF4FF7E008E2A8F2B9062
:100C3B00000112057D7007EDFF7401FE8005EDF4D8
:100C4B00FF7E008E308F3190000212057D7007ED14
:100C5B00FF7401FE8005EDF4FF7E00E527147003A1
:100C6B00020D04147003020D87147003020E0A2484
:100C7B00036003020E94E528AB9A30E006E5294B9E
:100C8B00FD8004E5295BFD8D9AE52A30E00890F0A4
:100C9B0009122317800690F00912231E90F009ED1C
:100CAB00F0E52C30E005122307800690F00A1223A2
:100CBB002590F00AEDF0E52E30E00512230F8006AB
:100CCB0090F00B12232C90F00BEDF0EE30E00512B0
:100CDB00233B800890F00CE0FBEF5BFD90F00CEDFC
:100CEB00F0E53030E005122333800690F00D12232F
:100CFB0042AF0590F00DEDF022E528ABA130E006F8
:100D0B00E5294BFD8004E5295BFD8DA1E52A30E04B
:100D1B000890F019122317800690F01912231E90D9
:100D2B00F019EDF0E52C30E005122307800690F06A
:100D3B001A12232590F01AEDF0E52E30E005122360
:100D4B000F800690F01B12232C90F01BEDF0EE3071
:100D5B00E00512233B800890F01CE0FBEF5BFD905D
:100D6B00F01CEDF0E53030E005122333800690F0F7
:100D7B001D122342AF0590F01DEDF022E528ABA22A
:100D8B0030E006E5294BFD8004E5295BFD8DA2E5EE
:100D9B002A30E00890F029122317800690F02912D0
:100DAB00231E90F029EDF0E52C30E005122307808F
:100DBB000690F02A12232590F02AEDF0E52E30E074
:100DCB000512230F800690F02B12232C90F02BEDA5
:100DDB00F0EE30E00512233B800890F02CE0FBEFA7
:100DEB005BFD90F02CEDF0E53030E0051223338005
:100DFB000690F02D122342AF0590F02DEDF022E579
:100E0B0028ABA330E006E5294BFD8004E5295BFD0B
:100E1B008DA3E52A30E00890F03912231780069055
:100E2B00F03912231E90F039EDF0E52C30E005126D
:100E3B002307800690F03A12232590F03AEDF0E567
:100E4B002E30E00512230F800690F03B12232C90DE
:100E5B00F03BEDF0EE30E008A3E0FDEF4DFF800836
:100E6B0090F03CE0FDEF5DFF90F03CEFF0E53030B3
:100E7B00E009A3E0FDE5314DFF800990F03DE0FD79
:100E8B00E5315DFF90F03DEFF022752400752540B4
:100E9B0078007C007D017BFF7A3F79CE7E007F144A
:100EAB0012051CE4FFFE7DB07C40AB55AA54A95340
:100EBB00A85212031450030210A6122E57600302FD
:100ECB0010A6D2051239ECD2847F057E0012209237
:100EDB00123DE37F667E667D867C40AB4DAA4CA9B6
:100EEB004BA84A1203146002500DE525152570021C
:100EFB001524122E6050D2E52545247007C2847F3D
:100F0B00010210A3752400752564C2847F147E0032
:100F1B00122092C2051239EC123DE37F0A7E0012B9
:100F2B002092752600752704122E50C333CE33CE74
:100F3B00D8F924FCF58274FF3EF583122E23C004EE
:100F4B00C005C006C007122E50C333CE33CED8F91E
:100F5B00122E78D007D006D005D0041207F0E52763
:100F6B00152770021526E527452670BCAF4DAE4CF4
:100F7B00AD4BAC4A9000001207F09000141207FC26
:100F8B0000000000E4F526F527122E20C004C00552
:100F9B00C006C007122E50C333CE33CED8F9122E53
:100FAB002FD007D006D005D00412007D900014126C
:100FBB0007F00527E527700205266405452670C94D
:100FCB00122E2079A07840122E829000141207F076
:100FDB009000181207FC00000000E4F526F527909E
:100FEB000018122E23C004C005C006C007122E50D5
:100FFB00C333CE33CED8F9122E2F122E20120079F6
:10100B00E4FBFAF9F8120314500F122E50C333CE2F
:10101B0033CED8F9122E2F801A122E50C333CE3363
:10102B00CED8F9122E78122E23E4FBFA798078BFF2
:10103B00122E6C122E20120079AB07AA06A905A856
:10104B0004D007D006D005D00412007D90001812F2
:10105B0007F00527E5277002052664054526600382
:10106B00020FEAC3E525945D122E655013E4FFFED3
:10107B00FD7C3F900018122E3812031460025010A2
:10108B00E525152570021524122E604003020F234F
:10109B00E525452470057F0212000E228E2C8F2D24
:1010AB008D2E90F692E030E708E4FFFEFD7C408049
:1010BB00031229A7122995AC2CAD2DEC120392C06B
:1010CB0004C005C006C007E4FBFA79807845AF364B
:1010DB00AE35AD34AC33120277D003D002D001D091
:1010EB000012016E8F3A8E398D388C37E52E605990
:1010FB0024FA700302118C24FE70030211E624FB08
:10110B00700302121124EE601424116003021252B8
:10111B00853A5D85395C85385B85375A22AC2CADB9
:10112B002DEC120392A804A905AA06AB077F9A7EA1
:10113B00997D997C451202778F328E318D308C2FB1
:10114B008F598E588D578C5622753235753148759F
:10115B00300312297C8F558E548D538C5290005432
:10116B00E0FC120397A804A905AA06AB07AF55AE7E
:10117B0054AD53AC521202778F518E508D4F8C4E13
:10118B002275322D7531A675303312297C8F4D8E19
:10119B004C8D4B8C4AAB55AA54A953A852120277CB
:1011AB00E4FBFA79C8784212016E8F328E318D30A2
:1011BB008C2F1203CB8F60EF3395E0FED3EF94644B
:1011CB00EE648094804003756064AF60EF3395E00C
:1011DB00C3648094805070E4F56022122973122945
:1011EB00A7120079C004C005C006C0077D481229AC
:1011FB006E12016ED003D002D001D00012299212D0
:10120B0003CB8E5E8F5F1229731229A7120079C050
:10121B0004C005C006C0077DA512296E12016ED051
:10122B0003D002D001D000122992E4FBFA797A782C
:10123B004412016E1229951203CB7B007A0079615F
:10124B00121C7F8E488F4922AF1BEF3395E0FEC3F4
:10125B00EF9404EE648094805007E4F524F5258028
:10126B000A90004AE0F524A3E0F525122DB6900074
:10127B0055E0FCA3E0FDC39FEE6480F8EC6480981E
:10128B005004AE04AF05D3E5259FEE6480F8E5244A
:10129B0064809840048E248F25900048E0FEA3E0E4
:1012AB00FF65257003EE652470030213D7D3E52584
:1012BB009400E5246480948050030213BAE5259FC3
:1012CB00FFE5249EFED3EF9470EE6480949740026A
:1012DB00D214E568706A301467900048E07002A37E
:1012EB00E0700C9000487405F0A374DCF0803812A9
:1012FB002E5724F66013047020900049E024B8F0B8
:10130B00900048E0340BF0801E900049E024F4F08C
:10131B00900048E03401F0800E900049E02414F076
:10132B00900048E03400F0C3900049E09525E52497
:10133B006480F8900048E0648098400EC2148003EB
:10134B00900048E524F0A3E525F0D3900049E09404
:10135B0078900048E0648094804003D38001C3926E
:10136B0005201526A2059281D284D3300501C392A4
:10137B0083A2059285122E5764097005FE7F0280A9
:10138B00047E007F0A122092D215E4FFFE30050680
:10139B007DC07C3F80047DFA7C43900048E0F52AB9
:1013AB00A3E0F52B121D6C9000441207F0801BC2BA
:1013BB00849000441207FC00000000C215C281C2D9
:1013CB0083C285E4900048F0A3F0D2112290001E56
:1013DB00E014B4090040030215329013F375F003C7
:1013EB00A4C58325F0C5837302140E0214280214BE
:1013FB00D10214D70214E50214EB02150302150AED
:10140B0002152190001CE07002A3E060030215326C
:10141B0090001CF0A3740EF0A37402F02290001C39
:10142B00E0FEA3E0FFD3940CEE648094804005753E
:10143B0063038023D3EF940AEE6480948040057598
:10144B0063028013D3EF9408EE648094804005759B
:10145B0063018003E4F563D3EF9400EE6480948022
:10146B004003021532AF55AE54AD53AC5290002C25
:10147B001207F0900054E0FF3395E0FEEF64024E4C
:10148B00701790002C122C92FFE4FBFA7920784114
:10149B0012016E90002C1207F090002C122C92FF70
:1014AB001203CBAB07AA067C007D641205CEEF4E70
:1014BB00600575630980587C007D0AAF03AE02128C
:1014CB0005CE7D03802F7D047F01803090002C1290
:1014DB002C92FF122CC57D05801B7D067F02801C84
:1014EB00E4FFFE7D207C4190002C122C7D12016EBE
:1014FB00122CC57D070237F67D087F0302313712A8
:10150B002CB55023122C9D7F0C60027F008F1D90F9
:10151B00001E7409F022E51D6003023B3A123BD218
:10152B00EF700490001EF02220020A123758A3F02D
:10153B00A3F0C2042220150D123751120564640961
:10154B006003021669123CA7AB07AA06D3E5499BB9
:10155B00EA123739500302160EE5499BF525E5488B
:10156B009AF524756518D3E5259402E524648094D7
:10157B0080407C9000487C087DFC123749EF2401A9
:10158B00FBE43EFAD3E549943AE548648094804005
:10159B000F7C007D05AF03AE021205BCAA06AB079C
:1015AB00AC24AD25AF03AE021205BC90004FE02F6B
:1015BB00F090004EE03EF0900056E0243CFF90008F
:1015CB0055E034F6FED390004FE09FEE6480F89028
:1015DB00004EE06480984014900056E0243CFE904E
:1015EB000055E034F690004EF0A3CEF075653C123A
:1015FB00376094FD5068A3E004F0700690004CE057
:10160B0004F022C3E5499BEA1237395051C3EB95DD
:10161B0049F525EA9548F524E565600415658024B0
:10162B00E525547E600FC390004FE09525F09000A8
:10163B004EE09524F0C390004EE0648094805004FB
:10164B00E4F0A3F0D390004DE094001237619403C3
:10165B00400CA3E024FFF090004CE034FFF022900C
:10166B000027E0C39428748094805069E4FFFE7DCA
:10167B007A7C44AB51AA50A94FA84E12016E1203AB
:10168B00CB8F278E268D258C24900027E004F0121B
:10169B002C8F2527FFEE3526FEED3525FDEC352469
:1016AB00FC9000231207F0122CA6C3122CD4500A64
:1016BB0090001FE526F0A3E527F0900021122CA93E
:1016CB00D3122CD4500302175A900021E526F0A315
:1016DB00E527F0807A122C8FFFC004C005C006C02E
:1016EB0007900021E0FEA3E0FBAA06EA3395E0F9A0
:1016FB00F8122CA6EF2BFBEE3AFAED39F9EC38F891
:10170B00D007D006D005D004C3EF9BFFEE9AFEEDB9
:10171B0099FDEC98FC122C89FFC006C007A3E024AE
:10172B00FEFFE434FFAB07FA3395E0F9F8D007D0AE
:10173B000612347F122C89FFEC12038DE4FBFA792D
:10174B007A78441202779000281207F0123A79AF98
:10175B001EEF3395E0FEEF64784E7005751E018029
:10176B0006E51E6002051E90001CE07002A3E060FF
:10177B000E90001DE024FFF090001CE034FFF0E51C
:10178B001D6002151D228F26123DC240051200035B
:10179B005003D38001C3920512292AFFAEF0C3E593
:1017AB000D9FEE6480F8E50C648098500AAC0CAD8C
:1017BB000DAE04AF0580008E278F28122930FFC392
:1017CB00E5289FE5F06480F8E527648098500E309B
:1017DB00050B12293F1228FB4003122946200D0E40
:1017EB00AF261228E064014E703FD20D803B300BC8
:1017FB000A0509E509700C05088008E5091509704B
:10180B000215081228E75006D20B8E088F091229F1
:10181B003E1228FB4005C20B122946E52670051225
:10182B003D5D5005C20D750F1E120003501F200A9F
:10183B001C12293E1228FB500A0509E509703805D0
:10184B00088034750E04122946D20A802A123DC232
:10185B00501D200A1A1228E7400AE50915097002E3
:10186B0015088013750E048E088F09D20A80082084
:10187B000505300A02C20A300504E4F50F22AF0F4A
:10188B001228E064204E7007050FC206122A3A2276
:10189B00C206C207AF63C3EF9407748094805014E1
:1018AB001233F35008D21DD207D2068007123A34F6
:1018BB005002D206300603021993E563B40A0040C6
:1018CB00030219959018D6F82828730218F40219F8
:1018DB00060218FA02190102190B02190B021995CB
:1018EB00021945021945021945E4F562021995D210
:1018FB0006D207021995D207021995D2060219953D
:10190B00E562547FFFAE63EE64047E0070027E03DB
:10191B00C3EE6480F8EF64809850090F536280EF38
:10192B004262800B123D9A7F8060027F008F6212B1
:10193B003D9AC36001D39206805053627FAF63EF31
:10194B0064096007AF63EF640870047F0680027F51
:10195B000AD3EF6480F8E5626480984005E4F56390
:10196B008028E56275F002120542AFF0EFC360010B
:10197B00D39205AF63EF64087006A205920780044B
:10198B00A205920605628002C2061235B9A2069222
:10199B0008A2079209023A9B201506E4900043F037
:1019AB0022900043E0FF3395E0FEC3EF9404EE6416
:1019BB008094805004E004F022900042E0540FF534
:1019CB00247D9012004E60054003D38001C3920525
:1019DB007FCD7ECC7D8C7C40AB51AA50A94FA84EBD
:1019EB00120314600740057F0412000E7F667E66AB
:1019FB007D06120051400F7F9A7E997D997C401293
:101A0B000068600C400A7D02120060E4F5258049F5
:101A1B00E4FFFE7D807C3E12006840097DF01200E1
:101A2B004E600A400812005E752501802CA21A3008
:101A3B000501B3500812005E752502801CAF24EF20
:101A4B003395E0FED3EF9400EE648094804006E57E
:101A5B002414FF80027F008F24E525C454F0452415
:101A6B00900042F0AF24EF3395E0FEC3EF9408EE05
:101A7B0064809480401FE0FF7804A2E713D8FB54E6
:101A8B000F24FE60070470087F0580067F09800223
:101A9B007F0312000E22301803021B33301903028E
:101AAB001B33E4900059F0E51C6003021B911236C6
:101ABB00E7FFAEF0C31236F3506890005AE0FD70AA
:101ACB000404F08013ED3395E0FCC3ED9409EC6452
:101ADB008094805003021B9190005A7401F0900087
:101AEB0005120604FDACF0D3E50B9DEC6480F8E524
:101AFB000A64809840068C0A8D0B800B7432250B80
:101B0B00F50BE4350AF50AD31236F340091236E722
:101B1B00F50D85F00C2274FA250DF50DE4350CF559
:101B2B000C22E490005AF022E490005AF0123DD4BB
:101B3B0030190F1236CB9404EE648094804003026C
:101B4B003BB41236CB940AEE648094804038D3E5D4
:101B5B000D94EEE50C64809482400C7406250DF513
:101B6B000D74FF350CF50CD3E50B94BEE50A6480C0
:101B7B00948A400C74E7250BF50B74FF350AF50AB4
:101B8B009000597401F022E54764037002F547E5B4
:101B9B004714603E147003021C2F147003021C6F59
:101BAB0024036003021C6CD205123C69E4F52B1272
:101BBB00294D501BEF3395E0FE74F42FF582743FE3
:101BCB003EF583E493FD122963EDF0052B80E002D3
:101BDB001C67E4F52B12294D501D12295EE0FF12F4
:101BEB0029B0400F1229BA400EEF941FEE64809477
:101BFB00805004052B80DE12294D502312295EE004
:101C0B00F52AFF3395E0FE4F6006EF64064E700534
:101C1B00C205123C69AF2A12327E754702804575A8
:101C2B0047038040752F0075300075312A7B007A91
:101C3B000079281221FBEF4E602AAD2AAF29AE287E
:101C4B001210A7E4F52B12294D501112295EE0B5A5
:101C5B002A0612296374FEF0052B80EA7547018072
:101C6B0003E4F54790003EE06009E5476403600339
:101C7B00021B92228B3B8A3C893D8F418E408D3FCC
:101C8B008C3E7FBE7E2D7D197C00D31238EF400831
:101C9B001238DD7EFF7FE822E47F427E16C31238C6
:101CAB00D050071238DDFE7F642274011238DEE457
:101CBB007FF57EF5D31238D0403DE4F5421238E77C
:101CCB00C3EF943BEE64809480502CEF7802C333C7
:101CDB00CE33CED8F924E6F582743D3EF583120758
:101CEB00C0C31238EF400C1238E7EF24E8FFEE3494
:101CFB00FFFE22054280C6E4F5421238E7C3EF949B
:101D0B0047EE648094805053EF25E0FFEE33FE7472
:101D1B00D22FF582743E3EF583E493FE740193FF5C
:101D2B00E48F468E45F544F543E546F546E545F526
:101D3B0045E4F544F543AF41AE40AD3FAC3EAB4659
:101D4B00AA45A944A843D312079C500B1238E7EFBE
:101D5B002423FFE43EFE220542809F1238DDFEFF66
:101D6B00228F298E288D278C26AB10AA11A91290B1
:101D7B00000912057DF5301205646402700FAE2A5E
:101D8B00AF2BFC7DCD1205CEEF2530F530AC2AAD57
:101D9B002BEC120392AB29AA28A927A826122E44B2
:101DAB00797A7844122E82122E477B9D7A69795C60
:101DBB00783C120277122E47AB2FAA2EA92DA82CF6
:101DCB00C000C001C002C003AC30EC120397E4FBAF
:101DDB00FA79C87842120277D003D002D001D00032
:101DEB00122E44C004C005C006C007E4FFFE7D7A76
:101DFB007C44AB59AA58A957A856122E6CD007D0C1
:101E0B0006D005D004120277122E47E4FBFA79C8EC
:101E1B007842122E44E4FFFE7DC87C42AB2FAA2EE3
:101E2B00A92DA82C120314600A4008E4FFFE7DC8FC
:101E3B007C4222AF2FAE2EAD2DAC2C22123DE38572
:101E4B005E24855F25D3E5259464E5246480948026
:101E5B004010749C2525F52574FF3524F524C21BF1
:101E6B008002D21BE4FBFA74E22BF582743F3AF545
:101E7B0083E493FF7E002404FDEE33FCD3E5259D24
:101E8B00EC6480F8E524648098506DEF24FCFFEE41
:101E9B0034FFFEC3E5259FEE6480F8E5246480984B
:101EAB00405674EA2BF582743F3AF583E493FF7E38
:101EBB00007C007D641205BC900055EEF0A3123D32
:101ECB00778005C333CE33CED8F9FF903FF3E4933D
:101EDB00FDEF5D7F0260027F03900054123D77801F
:101EEB0005C333CE33CED8F9FF903FF2E493FDEF29
:101EFB005DC36001D3921A220BBB00010AEB64088D
:101F0B004A6003021E727F0812000E22E4F524F5CC
:101F1B0025F526FB7A0079247D047F02120BC87FFE
:101F2B0001121FB87B007A0079247D01E4FF120BAC
:101F3B00C87F03121FB87524027D04121FC47D02D3
:101F4B00121FD07D027F02122B207D01121FD07D2C
:101F5B00037F01122B207B01E4FDFF122B20752444
:101F6B0003752601E4FBFD7F03122B207D01121F5D
:101F7B00C4D206E4FD7F03121FDA75DF4075DE6005
:101F8B00E4F5E9F5D1F5D375D50F75D4FF90F6923D
:101F9B0074A0F0E4F5479000361207FC0000000037
:101FAB0012299EF0A3F0A304F043DE80227B007A7B
:101FBB000079247D02120BC8227B007A0079247FE2
:101FCB0003120BC8227B017F03122B207B0122EF14
:101FDB0014603814605F14700302206A24036003DA
:101FEB000220911222DA400302209130060EA8053E
:101FFB007401088002C333D8FC428022A805740107
:10200B00088002C333D8FCF45280221222C55076CA
:10201B001222D1407130060EA8057401088002C34C
:10202B0033D8FC429022A8057401088002C333D830
:10203B00FCF45290221222A4504C1222E34047305F
:10204B00060EA8057401088002C333D8FC42A022F7
:10205B00A8057401088002C333D8FCF452A022ED0A
:10206B001222A8502130060EA8057401088002C365
:10207B0033D8FC42B022AF05A8077401088002C315
:10208B0033D8FCF452B0228E288F29E4F52EF52F8D
:10209B00E52945287003022147052FE52F7002051E
:1020AB002EAE28AF29EE3395E0FDFCE47BA07A0F32
:1020BB00F9F812065B8F2D8E2C8D2B8C2AC006C047
:1020CB0007AE2EAF2FAB07AA06EA3395E0F9F8D08F
:1020DB0007D0061206E68F2D8E2C8D2B8C2AE47FD3
:1020EB00FF7EFFFDFCAB2DAA2CA92BA82AC3120740
:1020FB009C50A6C374FF952DF52D74FF952CF52CD4
:10210B00E4952BF52BE4952AF52AAF2DAE2CAD2BB0
:10211B00AC2A78081207AD8F8CE52DFF8F8AC20E83
:10212B00438810E58820E503300EF85388CFE52F60
:10213B00152F7002152EE52F452E70CE2220110380
:10214B000221FA30131E90F129E030E0030221FA4C
:10215B0090F164E030120554FEF080034401F0C2AC
:10216B0011C213227DC87C42123CCC120314600CAA
:10217B00400A9000441207FC42C80000E4FFFEFD39
:10218B00FC123CCF120314500A9000441207FC00BF
:10219B00000000AF27AE26AD25AC24EC4D4E4FC34F
:1021AB006001D392127DFA7C45123CCC12016EE495
:1021BB00FBFA798078BF12007D8F278E268D258CB8
:1021CB0024E4FBFA79C878421202778F278E268D8A
:1021DB00258C241203CBAD07AC06ECFFEF90F1413D
:1021EB00F0ED90F140F0D21390F129E04401F02290
:1021FB008B2C8A2D892EE5DF30E102805090003B3D
:10220B00E004F0700690003AE004F0900036E0F83D
:10221B00A3E0F9A3E0FAA3E0FBAFDDEFFEADDCED4D
:10222B00FFEE3395E0FDFCEB2FFFEA3EFEE93DFDB3
:10223B00E83CFC9000361207F0C390003BE0940A98
:10224B0090003AE064809480500743DF02E4FEFF85
:10225B0022900036E0FCA3E0FDA3E0FEA3E0FFE448
:10226B007B0AFAF9F812347F9000361207F09000CF
:10227B0036A3A3E0FFA3E0AB2CAA2DA92ECF8FF0A2
:10228B0012063C90003CE0AB2FAA30A9311205AAF4
:10229B00E490003DF0FE7F0122EDFF7E00D394061B
:1022AB007480948022EDF4F58275830085832885F4
:1022BB00822985832A85822BED22EDFF7E00D39424
:1022CB00077480948022C3EF94037480948022ED72
:1022DB00D394057480948022C3EF9401748094800E
:1022EB0022FBE434F0FAA80574010822F4F5827598
:1022FB00830085832C85822D85832E22A3E0FBE52D
:10230B002D4BFD22A3E0FBE52F4BFD22E0FBE52B44
:10231B004BFD22E0FBE52B5BFD22E0FBE52D5BFD9E
:10232B0022E0FBE52F5BFD22A3E0FBE5314BFD2219
:10233B00A3E0FBEF4BFD22E0FBE5315BFD227D08CB
:10234B007F02123823404490005BE025E0F030A37D
:10235B0003E004F090005BE0F524AF24EFF460039E
:10236B00EF7028123C93E4F5B6AF24FEEFF4D37074
:10237B0001C3921CEFF44E7B0170027B027D037F45
:10238B00021230DC7D087F02123B78301C08E5140A
:10239B0030E703751480E5687F8270027F858F2498
:1023AB00301C21E513B5241CAF16EF3395E0123D1D
:1023BB008F4005123D338009E4F51675180175152C
:1023CB0001E4F513201C13E5146484700DF514E57A
:1023DB0015700475170122E4F51522122C9D640269
:1023EB007008850A24850B25800B900005120604C6
:1023FB00F52585F024E4FFFE7D7A7C44122C7A12BD
:10240B00016E1203CBD3EF948CEE6480948A40025E
:10241B008001D39219301904C218802AAD60ED33B4
:10242B0095E0FCD3ED944BEC648094804004D2187F
:10243B008014D3EF9525E5246480F8EE64809840F2
:10244B00028001D39218122CDFAF63D3EF94067482
:10245B008094805021900041E06003022C03900097
:10246B001EE060030213D8122C9D7004E51D60035F
:10247B00023B3AE4F5632278FFE4F6D8FD900000C6
:10248B007F007E04E4F0A3DFFCDEFA758168022492
:10249B00D7022753E493A3F8E493A34003F68001F8
:1024AB00F208DFF48029E493A3F85407240CC8C383
:1024BB0033C4540F4420C8834004F456800146F6BD
:1024CB00DFE4800B01020408102040809038A6E462
:1024DB007E019360BCA3FF543F30E509541FFEE41B
:1024EB0093A360010ECF54C025E060A840B8E493DD
:1024FB00A3FAE493A3F8E493A3C8C582C8CAC5831F
:10250B00CAF0A3C8C582C8CAC583CADFE9DEE780A3
:10251B00BEEF14602214603C1460562403707412D6
:10252B0022DA4002806DED24801222EC8002C3334C
:10253B00D8FC55ACFC80601222C550051222D1503C
:10254B00028050ED24881222EC8002C333D8FC5554
:10255B00ADFC80431222A450051222E350028033BB
:10256B00ED24901222EC8002C333D8FC55AEFC80D4
:10257B0026ED1222A84002801AED2498FBE434F0D9
:10258B00FAAF05A8077401088002C333D8FC55AF16
:10259B00FC8004E4FEFF22EC7003FEFF228B828A98
:1025AB0083E05403FF7E0022E4F5DE90F692F09078
:1025BB00003E04F0E4F547FFEFFD3395E0FCC3ED7F
:1025CB009406EC648094805015EF3395E0FC7430E6
:1025DB002DF58274003CF58374FEF00F80DA9000C9
:1025EB00361207FC0000000012299EF0A3F0FB7DC1
:1025FB00037F01122B20E4FBFDFF122B207524031C
:10260B00E4F525F526FB7A0079247D027F01120B78
:10261B00C87B007A0079247D01E4FF120BC8C20647
:10262B00E4FDFF121FDAC2067D037F01121FDAC21F
:10263B0006E4FD7F03021FDA752403E4F5257526F6
:10264B0001C2067D02FF121FDA7B007A0079247D1E
:10265B0004E4FF120BC87B127D02E4FF122B2090C7
:10266B00F120E4F0A3740DF090F1237401F090F1DC
:10267B002A74FFF090F122E4F090F127740DF0A38F
:10268B00F090F160E4F090F165F090F164740DF06E
:10269B0090F131741FF090F130743FF090F141E400
:1026AB00F090F140F09000441207FC00000000C2D3
:1026BB0013C21190F166E4F090F126740DF0023D17
:1026CB0041E56170057F0602000EA2039206752498
:1026DB0046752535123B599203A200920675243F8D
:1026EB00752535123B599200A2019206752450753F
:1026FB002528123B5992013001077F0712000E80EB
:10270B000B900041E064077003123DCB12375190E0
:10271B00000812057D7003C20222123CA78F24A26F
:10272B0002920675252D123B599205300503D202F4
:10273B002220051390004EE07002A3E070091237BF
:10274B006094805002C20222123CBAD20612399E09
:10275B001231E4121F17121E4712307F122643123A
:10276B002D4B12302112343A12002E120E95122FCD
:10277B00BCE490003EF0D2AF123DE3122349123776
:10278B00001223E612088E1226CC12125312214885
:10279B00300FE5C20F1215331235431229C412162E
:1027AB006A123CDE123660123629122EF01234C336
:1027BB00122B92AF1BEF3395E0FEC3EF9403EE6445
:1027CB0080948040B312189B1219A380AB8F26C242
:1027DB001EE5681460201460391460362403706D94
:1027EB0012386864054E7003123D01123868640696
:1027FB004E705A023D1212386864054E7003023D4A
:10280B00011200035003D21E22123D5D503F75632F
:10281B00072212386864064E7003123D1212386894
:10282B0064024E7014E56864027008756803756382
:10283B00088006756802756309120003500FE5687E
:10284B0064037F0270027F03E4FD1233AA228F29F7
:10285B001228D5F52D122930F52C85F02BE4F52A0D
:10286B00AF2A122936940BEE64809480505B903F14
:10287B006075F00AEF12082DEE12290C65297045D0
:10288B00123DAEAF2AEF3395E0FE7C007D0A1205B8
:10289B00BC74602FF9743F3E7510FFF5118912E57A
:1028AB002D6408700DE52964086007AF2CAE2B1260
:1028BB0032CAE52D700AE5296006FF12318F8005BB
:1028CB00E4900050F0052A809722AB10AA11A912B0
:1028DB00020564AF25EF3395E0FEEF22AB10AA1192
:1028EB00A912900003120604FFAEF0D3E5099FEE88
:1028FB006480F8E5086480982275F00AED12082DC3
:10290B00EC75F00AA42583F583E49322900051E043
:10291B00FF3395E0FED3EF9400EE6480948022ABFE
:10292B0010AA11A912900001020604EF3395E0FEE4
:10293B00C3EF22C3E5099528E527228527088528BB
:10294B000922AF2BEF3395E0FEC3EF9406EE6480C4
:10295B00948022EF3395E0FE74302FF58274003EA5
:10296B00F58322E4FFFE7C43AB3AAA39A938A8379A
:10297B0022752F3EAB32AA31A930A82FAF3AAE3910
:10298B00AD38AC370202771202778F368E358D3425
:10299B008C3322E490003AF0A3F0A322AF59AE5847
:1029AB00AD57AC56223395E0FEC36480948022D39E
:1029BB00EF9416EE6480948022AB10AA11A9121228
:1029CB00056460046401701190F508E4F090F50063
:1029DB00E0547FF0E4F51A802DAF1A123BED500452
:1029EB00051A8022EF64034E701C7F9A7E997DB985
:1029FB007C40AB55AA54A953A8521203146005404E
:102A0B0003123C07051AAF1B123BED5003051B22AB
:102A1B00EF64034E7018051B90005CE0FF3395E0EC
:102A2B00FED3EF9400EE648094804002D21722D242
:102A3B0007123CF0200619E4F5291237C750117420
:102A4B002A2529F9E4FAFB7F11123798052980EA28
:102A5B0085082E85092F7F00300C027F018F307A7D
:102A6B0000792E1237EB1233158F31200607E53123
:102A7B00B52D0280277B007A00792AE4FDFC7F1DAF
:102A8B00123798E4F5291237C75011742E2529F9FE
:102A9B00E4FAFB7F19123798052980EAC207123C2A
:102AAB00F022900058E0B407005067902ABDF82838
:102ABB002873022AD2022ADD022AFB022B01022BE7
:102ACB0011022ADD022B17E4900057F07D0B7F01DA
:102ADB00803D7F02123A1050037F0122900058E094
:102AEB00640170067D077F0280257D237F06801F92
:102AFB007D237F0380197F06123A1050037F01223A
:102B0B007D077F0480097D0B7F058003E4FDFF12A9
:102B1B003D837F0022EBF5826402606AE5826403E9
:102B2B006064E5826419605ED3E582941C748094C2
:102B3B00805053EF14601414602014602F24037022
:102B4B00451222DA5040ED2400802A1222C550365D
:102B5B001222D14031ED2410800D1222A4502712E5
:102B6B0022E34022ED2420F528EE800CED1222A862
:102B7B005014ED2430F528E434F0F527EB541F8581
:102B8B002882852783F02290001EE0700BAB10AAE1
:102B9B0011A9121205646003123C93D3E5679400EC
:102BAB00E566648094804009E56715677049156692
:102BBB0022123DA44003E4F56890F500E4F0C20551
:102BCB00123B96438704438702123CBAD206123952
:102BDB009E123ABC7F017E00122092122349300FC5
:102BEB0005C20F123543123D5D50E9D205123B96DB
:102BFB00E490003EF0D2AF2290003FE0FEA3E0FF56
:102C0B00C39405EE648094805010C3EF9403EE647C
:102C1B00809480504EEF04F56322900041E0FF7EDC
:102C2B00007C007D061205BCEF2405FFE43EFE9000
:102C3B00003FE0FCA3E0FDC39FEE6480F8EC6480F2
:102C4B00985020ED24FBFFEC34FFFE7C007D03123B
:102C5B0005CE7C007D021205CEED4C700475630130
:102C6B00228000E4F563227D4C7FCD7ECC7C4090AE
:102C7B000028E0F8A3E0F9A3E0FAA3E0FB22900020
:102C8B00231207F0900023E0FCA3E0FDA3E0FEA3DA
:102C9B00E022AB10AA11A91202056490001FE0FEFE
:102CAB00A3E0FFEE3395E0FDFC22D390001DE094F2
:102CBB000090001CE064809480221203CB7C007D8A
:102CCB000A1205CEAE04AF0522AB27AA26A925A86A
:102CDB0024020786E51C1460181460321460532418
:102CEB0003705C7D6C122C741203145052751C0112
:102CFB00227F9A7E997D79122C78120314600540FD
:102D0B0003E4F51C122C721203145033802EE4FFD3
:102D1B00FE7D60122C7812031460054003751C01B4
:102D2B007F9A7E997D39122C781203145011751CE1
:102D3B000322122C7212031460054003751C02222D
:102D4B00752403E4F525752601F56390F12404F051
:102D5B0090F12C74FFF0A3F090F1357409F090F121
:102D6B0034745FF090F1377409F090F136745FF0C2
:102D7B0090F126E0440CF01235B990F129E0540C97
:102D8B0070F8FB7D10122DAC7B007D20122DAC7BDF
:102D9B00147D047F02122B207B157D057F02022BF5
:102DAB00207A0079247F02120BC82220020A90009D
:102DBB004AE0FEA3E0FF804A12374290004FE02F1B
:102DCB00FF90004EE03EFEC3648094805003E4FE0F
:102DDB00FFC390004BE09FFF90004AE09EFEC3EFC5
:102DEB0094C4EE648094895019A3E0243CFE9000B7
:102DFB004AE034F690004EF0A3CEF01237587E091D
:102E0B007FC490004AE0B50608A3E0B50703C38072
:102E1B0001D3920422900014E0FCA3E0FDA3E0FE9A
:102E2B00A3E0FF222400F58274003EF583E0F8A3B3
:102E3B00E0F9A3E0FAA3E0FB2212016E8F2F8E2E96
:102E4B008D2D8C2C22AE26E527780222AB10AA11F1
:102E5B00A912020564D3E5259400E52464809480CF
:102E6B002212016EA804A905AA06AB07222400F5BD
:102E7B008274003EF58322E4FBFA0202778B338ADD
:102E8B003489357536027537007B007A007938AD99
:102E9B0037AC367F11123798AF38EF3395E0FEC35E
:102EAB00EF9401EE648094804036D3EF940BEE6484
:102EBB0080948040028029E53814AB33AA34A935BD
:102ECB001205AA0537E53770020536C394FCE536C3
:102EDB006480948340B3AB33AA34A935E41205AABA
:102EEB00AE36AF3722E568700F300C02800A120045
:102EFB0003400B123DC24006E4900053F0229000B9
:102F0B0053E0FF541FF524FD3395E04D7016EF2071
:102F1B00E612C007123DC27E8050027E20D0E04EEA
:102F2B00900053F0900053E054E0F0AF2412293698
:102F3B009406EE648094805008E020E6040524801B
:102F4B0003E4F524900053E04524F0227D037F0237
:102F5B0012251CEF64014E7038C21CE513547FFF21
:102F6B00E4F513E5157004E5186007E4F518F5159D
:102F7B008031EFC39405502BAF16EF3395E0FEC3B2
:102F8B00EF940AEE648094805002051675148080CD
:102F9B0012D21CE51430E703751480E51320E70308
:102FAB007513807D087F02123A5790005B74AAF06C
:102FBB0022123A79E490001EF0F524AF24EF3395FA
:102FCB00E0FEC3EF9406EE648094805018123DE34C
:102FDB00AF51AE50AD4FAC4E9000281207F0122CF3
:102FEB00DF052480D6122C9D702BF524900054E025
:102FFB00C36480F8E52464809850107F021238FA7D
:10300B007FA07E00122092052480E17F907E01122A
:10301B002092751D0C22E4F50EFFEFFD3395E0FCBD
:10302B00C3ED940BEC64809480502C903F6012297C
:10303B00046402701FEF3395E0FC903F6512290486
:10304B00F50A740193F50B903F61122904F50C748A
:10305B000193F50D0F80C3123231123DAE90005229
:10306B007404F0E4900041F07510FF75113F751278
:10307B0060F56822D205123B1BE4F51B301B517522
:10308B00241E90F500E04480F07F077E0012209212
:10309B00123BFC30E7020519AF19EFF47006D205AD
:1030AB0015248018E519541F701275241E30050C59
:1030BB00D216F51990005CE004F0C205E52470C946
:1030CB007F043016027F038F1B90F500E0547FF0D6
:1030DB0022EBD31222D35053EF146014146020143C
:1030EB00602F240370451222DA5040ED2480802A91
:1030FB001222C550361222D14031ED2488800D1298
:10310B0022A450271222E34022ED2490F528EE80D2
:10311B000CED1222A85014ED2498F528E434F0F5A8
:10312B0027EB5403852882852783F0228F268D2752
:10313B0090001CE0B4FF0FA3E0B4FF0A1238FAE4CE
:10314B0090001CF0A3F090001CE0FAA3E0FB7C00C5
:10315B007D04FFAE021205CED3ED9401EC64809496
:10316B00807F004002AF268F63D3EB9400EA64802C
:10317B009480500FE4F56390001CF0A3740AF0A345
:10318B00E527F0228F2ED207123CF07B007A0079D4
:10319B0031122E888E2F8F30AD31AF2E1235F1E5D7
:1031AB0031B52E02801FE530B4FC10E52FB4030BB4
:1031BB00752F027530007F1D1231D6E52E04F532C6
:1031CB007F191231D6C207123CF0227B007A0079AC
:1031DB0032AD30AC2F12379822752403752501754B
:1031EB002601C281C284C283C2857D0212321F7D39
:1031FB0010E4FF120BC87D0812321F7D20E4FF1272
:10320B000BC8E490004AF0A3F0900048F0A3F0C282
:10321B0015C214227B007A007924E4FF120BC87BC1
:10322B00007A00792422D207123CF0E4F524E5243D
:10323B001237C9501174252524F9E4FAFB7F1112BA
:10324B003798052480E8C207123CF07A00792512E2
:10325B0037EB123315EFB5280F852508852609E5C1
:10326B0027C36001D3920C22123580C20CD20612F6
:10327B002A3A22AB077AFF90003DE07041EB12290E
:10328B00B0403B1229BA400AEF941FEE6480948041
:10329B00402C9000361207FC0000000012299EEB18
:1032AB00F0A37401F0EB30E40543DF80800353DFC0
:1032BB007F53DEF0EB540F42DEDAFE43DF02228E49
:1032CB002E8F2F12375190000812057D603B123A5A
:1032DB00DCAB07AA0612374290004FE02F90004E4E
:1032EB00E03EC364809480C3EB952FFFEA952EFEDE
:1032FB0090004EF0A3EFF0C3EE648094805007E48F
:10330B0090004EF0A3F0123758228B328A33893457
:10331B008F388E378D368C35E4F539AB320534E585
:10332B0034AA337002053314F912056462397F082D
:10333B00E53930E70825E06407F5398006E53925DE
:10334B00E0F539DFEB783574FF1207D2EC4D4E4FB9
:10335B0070C9AF39228F268D27123DC24004C2059A
:10336B008005120003920520191075280A301803E6
:10337B0030050AE4900059F08006752802123DD4FE
:10338B00E526700330050B3019141236D7400F02A7
:10339B003BB41236D74007E4F0AF2712285922125C
:1033AB00387140028002AF058F2712386A64024ED3
:1033BB00701C7F667E667D46123855600940077F1C
:1033CB00081228598008900052E0FF123976AF2777
:1033DB0012386A64034E700F12384F600740057F36
:1033EB000902285975630722AB10AA11A9121205FD
:1033FB0064700DAF68FEC3EF940274809480500725
:10340B00E490005DF0802690005DE004F0E0FD3379
:10341B0095E0FCED640E4C7008EF64034E7002D324
:10342B0022ED64104C700690005DF0D322C3227520
:10343B002401E4F525F526FB7D037F02122B207B6F
:10344B00007A0079247D087F02120BC87D087F0269
:10345B00123B787B027D037F021230DC43B90412EE
:10346B003C9390005B74FFF0E4F513F514F516F53F
:10347B0017F51822C2D5E830E70FB2D5E4C39BFB92
:10348B00E49AFAE499F9E498F8EC30E717B2D5121C
:10349B0034B51206E6E4C39BFBE49AFAE499F9E42B
:1034AB0098F880031206E630D50DE4C39FFFE49E27
:1034BB00FEE49DFDE49CFC22900041E0FF7E007049
:1034CB000590003F8030900040E004F070069000C3
:1034DB003FE004F07C007D061205BCEF240FFFE4F7
:1034EB003EFEC3900040E09FEE6480F890003FE00A
:1034FB006480984004E4F0A3F022C0E0C0F0C083E5
:10350B00C082C0D075D000C000C001C002C003C0D3
:10351B0004C005C006C007122F5775B600D007D0E0
:10352B0006D005D004D003D002D001D000D0D0D02B
:10353B0082D083D0F0D0E032E4FEEEC394027480EC
:10354B009480503074132EF8E630E725547FFDEE4F
:10355B00700CE5687C0560027C02AF0480027F047E
:10356B00EDC39F50010DE65480F674132EF8E64D13
:10357B00F60E80C622750803750920E4FFEFFD33B4
:10358B0095E0FCC3ED940BEC64809480501F903F4E
:10359B00601237D864027012EF3395E0FC903F63F2
:1035AB001237D8F508740193F5090F80D0227F05E7
:1035BB00301D027F0090F145EFF07F78301D027FC8
:1035CB00FA90F144EFF07F05301D027F0090F14738
:1035DB00EFF07F78301D027FFA90F146EFF090F11B
:1035EB0029E0440CF022EF64017002FF22E4FEEEAE
:1035FB00FB3395E0FAC3EB9403EA64809480501D8F
:10360B00EE3395E0FA74FD2BF582743F3AF583E4C3
:10361B0093B50706ED7F046001FF0E80D222900068
:10362B0050E0FF1229379418EE648094805003E029
:10363B0004F0AF0F1229369420EE64809480500270
:10364B00050FAF0EEF12291C4002150E1229174061
:10365B0003E014F02290005A1236CE9400EE6480F0
:10366B009480400DEF9409EE648094805003E00445
:10367B00F01236CB9400EE64809480400DEF940BE7
:10368B00EE648094805003E004F022E4FFEFFD33FE
:10369B0095E0FCC3ED9403EC648094805020EF33F1
:1036AB0095E0FC74FA2DF582743F3CF583E493FEB0
:1036BB00900041E0FDEEB50502C3220F80CFD3226F
:1036CB00900059E0FF3395E0FED3EF22900059E0D4
:1036DB00FFD3E5286480F8EF64809822AB10AA1121
:1036EB00A912900001020604E50D9FEE6480F8E537
:1036FB000C6480982290F500E030E72CE5197028D7
:10370B007F057E00122092123BFC30E7020519AFB9
:10371B0019EFF470EB90F166F090F126740DF090C8
:10372B00005CE004F0E4F51B22FEE5499FEE6480AB
:10373B00F8E5486480982290004C7C007D10E0FEF8
:10374B00A3E0FF0205CEAB10AA11A91222E4900050
:10375B004CF0A3F022C390004CE06480221238712D
:10376B0040028002AF058F2612386A64024E700841
:10377B002000057F08122859AF2612386A64034EC1
:10378B00700A7F04300C027F02122859228F39EF06
:10379B0064197005120564F5FEEDF5FCECFFEFF511
:1037AB00FD008539FF000000000000E5FF20E0FB75
:1037BB00E53964117005E5FE1205AA22E529FD33F2
:1037CB0095E0FCC3ED9404EC648094802275F00AC0
:1037DB00ED12082DEC75F00AA42583F583E49322F2
:1037EB007B007F037E007D007C0022122CB55027CE
:1037FB00EF4E700774FFF0A3F08017EF7802C3331E
:10380B00CE33CED8F924FFFFEE34FF90001CF0A38B
:10381B00EFF090001EEDF022EF1460111460151400
:10382B0060192403701CE5AC5D6017D322E5AD5D18
:10383B006010D322E5AE5D6009D322E5AF5D600277
:10384B00D322C3227FCD7ECC7D2C7C40900028E000
:10385B00F8A3E0F9A3E0FAA3E0FB020314AF26EF11
:10386B003395E0FEEF22D3ED6480F8EF648098226D
:10387B008E268F27123BD21228E064024E70031261
:10388B003C20E5687008E52764014526700CE56867
:10389B0060051200034003123BB422C10FC110415B
:1038AB00005C00C117C1160119FFC10D4100510089
:1038BB0041005019C10AC10B41004200410059009F
:1038CB0041005A0000FDFCAB41AA40A93FA83E02B3
:1038DB00079CE4AB3BAA3CA93D0205AAAF42EF33E0
:1038EB0095E0FE22AB41AA40A93FA83E02079CEF00
:1038FB0014600A14600D14701FC2088008D208C22D
:10390B00098004D208D209123A9B7F147E00122040
:10391B0092C208C209123A9B22E51C64036005E4BB
:10392B00F51E801DE51E7005751E018014AF1EEF80
:10393B003395E0FED3EF9474EE648094804002D311
:10394B0022C322A907900053E0FE5480FB3395E07D
:10395B004B700BED3395E0FCED64014C700CEE54A9
:10396B007F900053F0AF01122859228F287F9A7E47
:10397B00997D39123855600B4009AF28300C027F06
:10398B0002800912384F600740057F0302285975E2
:10399B00630722E4200606F5C853A8DF22F5CE758F
:1039AB00CB0B75CADB75CD5D75CC6643A820F5C90D
:1039BB0075CF80751F0475C89122C0E0C083C0828B
:1039CB005380DF5380F75380FD5380EF53A0EF53A9
:1039DB00A0DF75190090F509E4F0D082D083D0E018
:1039EB003290F1417401F07F003005027FFF90F1BE
:1039FB0040EFF0123D4190F164E030120454FEF0C0
:103A0B00224401F022AB07EB3395E0FEEF25E0FDFE
:103A1B00EE33FC123DB81205CEEB14D36480F8EDF7
:103A2B006480984002D322C32230040690001EE02B
:103A3B006005E4F56480130564AF64EF3395E0FE35
:103A4B00EF640C4E7004F564D322C322EF14600FA5
:103A5B0014601114601324037013EDF452AC22EDB7
:103A6B00F452AD22EDF452AE22EDF452AF2290009F
:103A7B001F747FF0A374FEF0A37480F0A37402F0A4
:103A8B00E4900027F09000231207FC0000000022B6
:103A9B0090F164E0FF3008055307FB8003430704F4
:103AAB003009055307F7800343070890F164EFF0E3
:103ABB00227D087F02123A5790005B74AAF0D21C49
:103ACB00E51430E703751480E51320E703751380C5
:103ADB002212292AFFAEF0900055E0FCA3E0FDD3A3
:103AEB009FEE6480F8EC648098400122AE04AF0531
:103AFB0022E4FB7D02FF122B20C2067D02E4FF12A3
:103B0B001FDA90F121E4F090F126F090F123F022EE
:103B1B0090F5007409F090F5027419F090F50CE42F
:103B2B00F090F5067438F0A37405F075B98022E5B2
:103B3B001C14600E14600F1460102403700F756357
:103B4B000322756302227563012275630422AF247D
:103B5B00EF3395E0D31237344002D322AF25EF3346
:103B6B0095E0C31237345002C322A20622EF146031
:103B7B000E14600F1460102403700FED42AC22ED95
:103B8B0042AD22ED42AE22ED42AF2230050F121FA5
:103B9B0017122643122D4B1231E4023B1BC20612A5
:103BAB00399E123AFC1225B3221228D5FF601790CA
:103BBB00000712057D6005900052EFF0E4FF12281C
:103BCB0059E4FF12318F22AF18EF3395E0FEEF244B
:103BDB00FFFFEE34FF123D8F4005E51814FF227FE7
:103BEB000022EF3395E0FEC3EF9403EE64809480E4
:103BFB0022E51925E0F51990F501E02290F500E09A
:103C0B004480F07F147E0012209290F509E4F0902E
:103C1B00F50804F02290001EE0701204F0122C9DA7
:103C2B00600BE4F56390001CF0A37408F022E51818
:103C3B0060037F0022E5177002FF22AF16300505E7
:103C4B00E4F517F51622EFFB3395E0FAC3EB940876
:103C5B00EA648094805004EF2DFF227F082253DE0C
:103C6B007F007F002005027FA090F692EFF00043CB
:103C7B00DE8022C0E075C900151FB210E51F70056C
:103C8B00751F04D20FD0E032123DA440067E127F86
:103C9B00C080047E007F288E668F672212375112F8
:103CAB00056464087004FE7F37227E007F32225346
:103CBB0088CF5389F0438901E4F58CF58A75A88286
:103CCB0022E4FFFE900044E0F8A3E0F9A3E0FAA39E
:103CDB00E0FB22123DB8D3EF9400EE648094804059
:103CEB0003E014F022300707C2AF0075FBAA227560
:103CFB00FB5500D2AF229000517408F0E5687F00AD
:103D0B0070027F018F68229000517402F0E5687F8A
:103D1B000070027F028F68222017037F0022900021
:103D2B005CE0FFE4F0C21722E4F514F517F516F585
:103D3B0015EF04F5182290F1297401F090F129E0A8
:103D4B0020E0F922900053E030E50654DFF0122812
:103D5B005922E5186002D322E517C36001D322E58F
:103D6B001864016002C322E4F518D322EFF0AF030D
:103D7B007E007401A8070822900057E07005EDF053
:103D8B00A3EFF022FED3EF9400EE6480948022E543
:103D9B00625480FF3395E04F22D3E5689401748021
:103DAB00948022E4900058F0900057F02290005736
:103DBB00E0FF3395E0FE22E5186402C37001D322C5
:103DCB00E4900041F0FF022859900059E070020482
:103DDB00F0225388EFD20E32021B9200192DBE0037
:103DEB001784DA0015FB0600148DC700133ADA00AE
:103DFB0012002B0010DBD6000FCC1E000ECF6C0078
:103E0B000DE44B000D0965000C3D80000B7F7C0021
:103E1B000ACE50000A290700098EC30008FEB50020
:103E2B0008781F0007FA52000784AE0007169D00A2
:103E3B0006AF9700064F1C0005F4B800059FFE0067
:103E4B0005508B000506020004C00D00047E5D00CA
:103E5B000440A9000406AC0003D02700039CE1003A
:103E6B00036CA100033F37000314720002EC28001F
:103E7B0002C62F0002A2630002809F000260C300F3
:103E8B000242B10002264C00020B7B0001F2230020
:103E9B0001DA2E0001C3870001AE19000199D2008F
:103EAB000186A0000174720001633A000152EA001E
:103EBB00014372000134C8000126DF000119AC0078
:103ECB00010D2500010141F5F5EB3AE107D755CE80
:103EDB001DC558BD00B50EAD7FA64C9F7098E792DF
:103EEB00AC8CBB871181AA7C82779772E46E676A70
:103EFB001E6606621C5E5F5ACB575F541950F84D15
:103F0B00F84B1A485A45B8433340C83E773C3E3AC3
:103F1B001D3812361D343B326D30B22F082D6F2BEE
:103F2B00E62A6C290127A42655251323DD22B2216D
:103F3B0093207F1F751E751D7E1C901BAC1ACF190D
:103F4B00FB192E186917AA16F31642000000000081
:103F5B0000000000000000000000000001006401F0
:103F6B0000000000000000006403000F00000AF0D6
:103F7B000000320403E800000B540100450507D094
:103F8B0000000BB8010056060FA000000BEA010160
:103F9B0060071F4000000C1C0101660859D8000087
:103FAB000C8000016A0955F0000009C40001690288
:103FBB001F4003E80C800001450A2EE0000009C4F5
:103FCB00000169000000000000000000000000007C
:103FDB0000000000000000524B44382F21180F91B5
:103FEB00B464E6E678B464070F1F0D080E000605EF
:053FFB00030408090A9F
:00000001FF
