:10000000022B52AF5BEF3395E0FE22023D3FE58EBF
:10001000541FF5634363C085638EC2AF007596AA13
:0A00200075965543970200D2AF22F7
:10002B00023638C2AF007596AA759655859764004F
:0F003B00D2AFE56430E203D38001C322021D8CF3
:10004B00023794EF14600F146011146013240370C3
:10005B0013EDF452AC22EDF452AD22EDF452AE227C
:05006B00EDF452AF228C
:10007300023A9B020437E86480F8E933E8336011FD
:100083000460F0ED33EC337009E8FCE9FDEAFEEBC4
:10009300FF220460DED3EB9FEA9EE99DE8C2E78C72
:1000A300F0C2F795F0400CE8CCF8E9CDF9EACEFAC6
:1000B300EBCFFB12040285D0F05804700320D5B3B4
:1000C300E80470075002B2D502044192D5EC0460F3
:1000D300F7E4CCC0E0C398F8603B94186008400D87
:1000E300D0E0FB020419E4FBFAC9FC8028E830E401
:1000F30006E4C9FBE4CAFCE830E305E4C9CACBFC67
:10010300E854076010F8C3E913F9EA13FAEB13FB99
:10011300EC13FCD8F130F52FC3E49CFCEF9BFFEE0E
:100123009AFEED99FDD0E0FBEF4E4D4C701222DBB1
:100133000302043EEC2CFCEF33FFEE33FEED33FD04
:10014300ED30E7EB020419EF2BFFEE3AFEED39FD3C
:10015300D0E0FB50130BBB0003020441ED13FDEE93
:1001630013FEEF13FFEC13FC020419EC4D6011E8CE
:10017300497017ED33EC3304600DE4FCFFFEFD2200
:10018300E933E8330470F8020437120402580460B8
:1001930009E4CC2481500628500902044128400375
:1001A30002043EC0E0EB4A7044B98006D0E0FB0293
:1001B300042DEF4E701CBD8008EBFFEAFEE9FD80C5
:1001C300EBE98DF0A4FEE5F0020257E9CDF9EAFE72
:1001D300EBFFEF89F0A4FCE5F0CE89F0A42EFFE459
:1001E30035F0CD89F0A42DFEE435F08067EF4E7035
:1001F30005BD80D780C3EF8BF0A4ACF0EE8BF0A4E9
:100203002CFCE435F0F8EF8AF0A42CE5F038FCE49C
:1002130033CB8DF0A42CFCE5F03BF8EE8AF0A42C54
:10022300FCE5F038F8E433CF89F0A42CFCE5F03892
:10023300CF3400CE89F0A42FFFE5F03EFEE433C9AE
:100243008DF0A42EFEE5F039CD8AF0A42FFFE5F062
:100253003EFEE43DFD33D0E0FB50070BBB000F0235
:100263000441EC2CFCEF33FFEE33FEED33FD0204CF
:1002730019020441EC5D046005E8590470030204AB
:1002830037120402580460F6EC4860F2EC7004FD87
:10029300FEFF22C860DB2481C85009C39860025066
:1002A3000602043E9850CAF582E9294B4A7005AB11
:1002B3008202042D75F0007C1A7880C3EF9BEE9ABE
:1002C300ED99400DC3EF9BFFEE9AFEED99FDE842D9
:1002D300F0DC23ACF0D0E0FFD0E0FED0E0FDAB8259
:1002E30020E7101BEB60BAEC2CFCEF33FFEE33FE80
:1002F300ED33FD020419E803F830E705C0F075F0AB
:1003030000EF2FFFEE33FEED33FD40B830E7C28040
:10031300AA74F8CC6480CCC86480C8F58204604FAA
:10032300C3EB9FF5F0EA9E42F0E99D42F0E89C455D
:10033300F0603C501DE5825FFFE582D313CB5BCBBE
:10034300F42B5582FB50280ABA002409B90020086F
:10035300801DE5825BFBE582D313CF5FCFF4C3132C
:100363002F5582FF50090EBE00050DBD00010CC3C1
:10037300EB9FF5F0EA9E42F0E99D42F0E89C45F0E0
:100383006007CC4820E701B3EC2275F020800E759E
:10039300F010800575F0087D007E007F003392D554
:1003A30030D503120778EC334010EF33FFEE33FE02
:1003B300ED33FDEC33FCD5F0ED22E5F0247EA2D540
:1003C30013CC92E7CDCEFF22EDD2E7CD33EC3392BF
:1003D300D524814006E4FFFEFDFC22FCE4CFCECD14
:1003E300CC24E0501174FF80EDC3CC13CCCD13CDDE
:1003F300CE13CECF13CF0470F030D5DE020778E9E9
:10040300D2E7C933E833F892D5EDD2E7CD33EC33F5
:10041300FC5002B2D522EC30E7100FBF000C0EBE29
:1004230000080DBD00040BEB6014A2D5EB13FCED2B
:1004330092E7FD2274FFFCFDFEFF22E480F8A2D5C3
:1004430074FF13FC7D80E480EFE709F608DFFA8090
:1004530046E709F208DFFA803E88828C83E709F0D9
:10046300A3DFFA8032E309F608DFFA8078E309F2C2
:1004730008DFFA807088828C83E309F0A3DFFA80B7
:100483006489828A83E0A3F608DFFA805889828A26
:1004930083E0A3F208DFFA804C80D280FA80C68022
:1004A300D4806980F28033801080A680EA809A80AD
:1004B300A880DA80E280CA803389828A83ECFAE4F6
:1004C30093A3C8C582C8CCC583CCF0A3C8C582C8D2
:1004D300CCC583CCDFE9DEE7800D89828A83E49390
:1004E300A3F608DFF9ECFAA9F0EDFB2289828A83EF
:1004F300ECFAE0A3C8C582C8CCC583CCF0A3C8C5B9
:1005030082C8CCC583CCDFEADEE880DB89828A83BC
:10051300E493A3F208DFF980CC88F0EF60010E4E7C
:1005230060C388F0ED2402B4040050B9F582EB24D3
:1005330002B4040050AF232345822390049C73C26A
:10054300D530F707B2D563F0FF05F030E70CB2D52D
:10055300F4048463F0FF05F080018430D502F404D1
:1005630022BB010689828A83E0225002E722BBFE76
:1005730002E32289828A83E49322BB010CE5822968
:10058300F582E5833AF583E0225006E92582F8E611
:1005930022BBFE06E92582F8E222E58229F582E5FF
:1005A300833AF583E49322BB010689828A83F0228E
:1005B3005002F722BBFE01F322EF8DF0A4A8F0CF87
:1005C3008CF0A428CE8DF0A42EFE22C2D5EC30E709
:1005D30009B2D5E4C39DFDE49CFCEE30E715B2D52A
:1005E300E4C39FFFE49EFE120819C3E49DFDE49C4F
:1005F300FC800312081930D507C3E49FFFE49EFE75
:1006030022BB0110E58229F582E5833AF583E0F503
:10061300F0A3E0225009E92582F886F008E622BB20
:10062300FE0AE92582F8E2F5F008E222E5832AF5DD
:1006330083E993F5F0A3E99322BB010A89828A83B4
:10064300F0E5F0A3F0225006F709A7F01922BBFE4C
:1006530006F3E5F009F31922E88FF0A4CC8BF0A49C
:100663002CFCE98EF0A42CFC8AF0EDA42CFCEA8E81
:10067300F0A4CDA8F08BF0A42DCC3825F0FDE98FA4
:10068300F0A42CCD35F0FCEB8EF0A4FEA9F0EB8F9B
:10069300F0A4CFC5F02ECD39FEE43CFCEAA42DCE68
:1006A30035F0FDE43CFC2275F008758200EF2FFF66
:1006B300EE33FECD33CDCC33CCC58233C5829BED37
:1006C3009AEC99E58298400CF582EE9BFEED9AFD3B
:1006D300EC99FC0FD5F0D6E4CEFBE4CDFAE4CCF9EB
:1006E300A88222B800C1B90059BA002DEC8BF0845E
:1006F300CFCECDFCE5F0CBF97818EF2FFFEE33FE2C
:10070300ED33FDEC33FCEB33FB10D703994004EBE3
:1007130099FB0FD8E5E4F9FA227818EF2FFFEE33AF
:10072300FEED33FDEC33FCC933C910D7059BE99AC1
:100733004007EC9BFCE99AF90FD8E0E4C9FAE4CC52
:10074300FB2275F010EF2FFFEE33FEED33FDCC33BC
:10075300CCC833C810D7079BEC9AE899400AED9BA5
:10076300FDEC9AFCE899F80FD5F0DAE4CDFBE4CC84
:10077300FAE4C8F922C3E49FFFE49EFEE49DFDE48E
:100783009CFC22EB9FF5F0EA9E42F0E99D42F0ECDF
:100793006480C864809845F022EB9FF5F0EA9E429E
:1007A300F0E99D42F0E89C45F022E8600FECC313AA
:1007B300FCED13FDEE13FEEF13FFD8F122E493FCDF
:1007C300740193FD740293FE740393FF22ECF0A370
:1007D300EDF0A3EEF0A3EFF022A8828583F0D0839F
:1007E300D0821207F31207F31207F31207F3E4732D
:1007F300E493A3C583C5F0C583C8C582C8F0A3C568
:1008030083C5F0C583C8C582C822A42582F582E5C5
:10081300F03583F58322BC000BBE0029EF8DF084F5
:10082300FFADF022E4CCF875F008EF2FFFEE33FEB6
:10083300EC33FCEE9DEC984005FCEE9DFE0FD5F0ED
:10084300E9E4CEFD22EDF8F5F0EE8420D21CFEADF6
:10085300F075F008EF2FFFED33FD4007985006D5F4
:10086300F0F222C398FD0FD5F0EA22123CE08F2666
:10087300123D0C9207C208123B6E8E248F25900006
:1008830045E06009C3940B74809480400690004552
:100893007404F01221FFEF64184E700AE004F012A2
:1008A30021A0FF122A10900046E0FF6401700302AA
:1008B3000C75EF64027003020C751221A0B40B00D7
:1008C3004003020BC29008CFF828287302090902DB
:1008D30008F0020AA3020A31020AE4020AF8020B30
:1008E3000B020B1E020B45020B79020B9DC2052066
:1008F3000703020BC2900046E064067003020BC2BA
:10090300E4F0FF0209A0E525640545247011C20542
:10091300D3300401C392049000447408F08018306B
:100923000415D3E5259400E52464809480500512D2
:100933003C785003756206300403020BC2E525645C
:10094300064524700DD3300501C39205900044740D
:1009530002F0300527123D2A4003020BC27F667E58
:10096300667D4612216E600940072011047F0880CE
:100973002C122168603240307F078060E5256401D6
:10098300452470267F9A7E997D3912216E6010402E
:100993000E3002047F028005900045E0FF803D1287
:1009A300216860044002803C8050E52564024524B0
:1009B300702F30110280437F667E667D4612216E62
:1009C300600740057F08020B741221686011400F15
:1009D3003002047F028005900045E0FF020B748023
:1009E300193007057F03020B74122224701212219F
:1009F30068600740057F09020B74756206020BC22B
:100A0300E525640445247018D3300201C392027FA4
:100A1300082002027F098F62C209123039020BC219
:100A2300123D314003020BC2123D21020BC27D0372
:100A33007F011233B5E52564014524700D300305AC
:100A4300C209123039C203123BE9300303020BC25D
:100A5300E525640445247002D20320070B1221D537
:100A630064014E6003020BC27F9A7E997D39122185
:100A73006E60025003020BC27F043002027F021237
:100A830032171221D564014E7003020BC2300203E8
:100A93001239A4900048E04440F0755004020BC2A0
:100AA3002006331221D564044E70057F03123217DA
:100AB3001221D564054E70187F04123217C2027FCB
:100AC300082002027F098F62755008C2091230396B
:100AD300120C9E120CC0121C84AF26121929020B91
:100AE300C27D047F011233B5120C9E120CC0AD26D9
:100AF3007F05020BBF7D04120C76120CC8AD267F56
:100B030006123A4C7F0480357D05120C76120CC810
:100B1300AD267F07123A4C7F0580227D06120C8A90
:100B2300AD25AC24123535E4FD7F04123A4C122175
:100B3300D564014E70057F031232177F06123C38CD
:100B4300807D7D07120C8AEF64014E600BE52564FE
:100B5300024524600330130A7F043002027F02122D
:100B630032171221D564034E600512222470507F80
:100B73000912321780497D09120CAD700820110546
:100B83007F08123217122224700A7F043002027F78
:100B930002123217AD267F0A80227D0A120CAD7035
:100BA300082011057F08123217122224700A7F04CD
:100BB3003002027F02123217AD267F09123A4C909F
:100BC3000044122184400C9000001207DC42A00074
:100BD30000807EAF50EF122186400C900000120778
:100BE300DCBF800000806A1221A024FE602514600F
:100BF3004724F9603A047049300D0E900001120643
:100C030004FFAEF0AC06FD803E7EFF7FFF7CFF7DE0
:100C1300FF8034C3E54F954BE54A1221F65006AEEB
:100C23004EAF4F8004AE4AAF4BAC06AD07801812EF
:100C3300249FAC06AD07800F123884AC06AD078045
:100C430006122194FDACF0EC1203929000001207FF
:100C5300D0D208123B6E900000E0FCA3E0FDA3E0BD
:100C6300FEA3E0FF1203CB121B70900057EEF0A31C
:100C7300EFF022E4FF1233B5AF25AE24123C8BAF65
:100C830026EF3395E0FE22E4FF1233B5AF25AE2401
:100C9300123C8BAF26EF3395E0FE22AF25AE241234
:100CA3003C8BAF26EF3395E0FE227F011233B5AFC5
:100CB30025AE24123C8BE5256402452422AD25ACE8
:100CC3002412353522AD25AC24123535228F291255
:100CD3000564FF14601514602814603D14603A2401
:100CE30004705C1228D312291A80291228D3F582A2
:100CF3007401F52E85822FE582F4F582753000802C
:100D0300131228D3F4F582752E0085822FEDF58218
:100D13007401F5308582318026ED12291A858231DE
:100D2300EDF5827401F52A85822BEF64047007EDDB
:100D3300FF7401FE8005EDF4FF7E008E2C8F2D9055
:100D4300000112057D7007EDFF7401FE8005EDF4CF
:100D5300FF7E008E328F3390000212057D7007ED07
:100D6300FF7401FE8005EDF4FF7E00E52914700396
:100D7300020E0C147003020E8F147003020F122460
:100D8300036003020F9CE52AAB9A30E006E52B4B88
:100D9300FD8004E52B5BFD8D9AE52C30E00890F097
:100DA3000912293A800690F00912294190F009EDC1
:100DB300F0E52E30E00512292A800690F00A122968
:100DC3004890F00AEDF0E53030E005122932800654
:100DD30090F00B12294F90F00BEDF0EE30E005127E
:100DE300295E800890F00CE0FBEF5BFD90F00CEDCA
:100DF300F0E53230E005122956800690F00D1229F5
:100E030065AF0590F00DEDF022E52AABA130E006C9
:100E1300E52B4BFD8004E52B5BFD8DA1E52C30E03C
:100E23000890F01912293A800690F019122941907E
:100E3300F019EDF0E52E30E00512292A800690F036
:100E43001A12294890F01AEDF0E53030E005122926
:100E530032800690F01B12294F90F01BEDF0EE301C
:100E6300E00512295E800890F01CE0FBEF5BFD902B
:100E7300F01CEDF0E53230E005122956800690F0C3
:100E83001D122965AF0590F01DEDF022E52AABA2F6
:100E930030E006E52B4BFD8004E52B5BFD8DA2E5E1
:100EA3002C30E00890F02912293A800690F029129C
:100EB300294190F029EDF0E52E30E00512292A8032
:100EC3000690F02A12294890F02AEDF0E53030E040
:100ED30005122932800690F02B12294F90F02BED4A
:100EE300F0EE30E00512295E800890F02CE0FBEF75
:100EF3005BFD90F02CEDF0E53230E00512295680D1
:100F03000690F02D122965AF0590F02DEDF022E546
:100F13002AABA330E006E52B4BFD8004E52B5BFDFC
:100F23008DA3E52C30E00890F03912293A80069021
:100F3300F03912294190F039EDF0E52E30E0051239
:100F4300292A800690F03A12294890F03AEDF0E50C
:100F53003030E005122932800690F03B12294F9081
:100F6300F03BEDF0EE30E008A3E0FDEF4DFF80082D
:100F730090F03CE0FDEF5DFF90F03CEFF0E53230A8
:100F8300E009A3E0FDE5334DFF800990F03DE0FD6E
:100F9300E5335DFF90F03DEFF022C390002AE0942B
:100FA3002C900029E0648094815071E4FFFE7D7AE7
:100FB3007C44AB11AA10A90FA80E12016E1203CB29
:100FC3008F2D8E2C8D2B8C2A90002AE004F0700636
:100FD300900029E004F0121A95252DFFEE352CFE22
:100FE300ED352BFDEC352AFC9000251207D0121AA3
:100FF300FFC3121B4D500A900021E52CF0A3E52DF1
:10100300F0900023121B02D3121B4D500302109EBB
:10101300900023E52CF0A3E52DF0807F121A95FFB5
:10102300C004C005C006C007900023E0FEA3E0FB98
:10103300AA06EA3395E0F9F8121AFFEF2BFBEE3A12
:10104300FAED39F9EC38F8D007D006D005D004C34F
:10105300EF9BFFEE9AFEED99FDEC98FC121A8FFFC1
:10106300C006C00790002AE024FEFF900029E03468
:10107300FFAB07FA3395E0F9F8D007D0061236CD67
:10108300121A8FFFEC12038D121B5890002C1207BB
:10109300D0121AB31207DC00000000121B3A9000B2
:1010A3000512060445F07006C214C21580751205B8
:1010B3006464027006AC4CAD4D800C121B3A900078
:1010C30005120604FDACF0EC120392121B588F2993
:1010D3008E288D278C26AB15AA14A913A812AF0D41
:1010E300AE0CAD0BAC0A1202777B527AB8795E78FC
:1010F3003F1203145004D2148015AF29AE28AD2734
:10110300AC26121A5A60054003C38001D392147DA2
:101113002C121A5460054003C38001D39215301575
:1011230002C21490001FE014601614603214605160
:10113300240370707D6C121A545069121B69806409
:101143007F9A7E997D79121A5860074005E49000D2
:101153001FF07FCD7ECC7D4C121A585047803FE460
:10116300FFFE7D60121A5860054003121B697F9AC7
:101173007E997D39121A58502B90001F7403F0800A
:1011830023E4FFFE7D60121A5860074005E49000D7
:101193001FF0E4FFFE7D40121A58600840069000DD
:1011A3001F7402F0AF62EF64066051AF62EF640830
:1011B300604AAF62EF64096043900046E060030257
:1011C30030B8121B3A1205647005121B416021905E
:1011D300001FE014600E14600F1460102403701CD1
:1011E300756201227562042275620222756203220E
:1011F30090001EE06003021425E4F56222752400CA
:1012030075254078007C007D017BFF7A3F798A7EDB
:10121300007F1412051C12002E50057F08021421B2
:10122300E4FFFE7DB07C40AB15AA14A913A81212EB
:1012330003145003021424122EA26003021424C2C6
:1012430083C285C281D207123B0BD2847F057E0005
:101253001225571200477F667E667D867C40AB0D64
:10126300AA0CA90BA80A1203146002500DE5251558
:101273002570021524122E6850D2E52545247007E7
:10128300C2847F01021421752400752564C2847F02
:10129300147E00122557C207123B0B1200477F0A28
:1012A3007E00122557752600752704122E61C3335D
:1012B300CE33CED8F924FCF58274FF3EF583122E8B
:1012C30034C004C005C006C007122E61C333CE3339
:1012D300CED8F9122EABD007D006D005D004120712
:1012E300D0E527152770021526E527452670BCAFE4
:1012F3000DAE0CAD0BAC0A9000001207D090001499
:101303001207DC00000000E4F526F527122E31C099
:1013130004C005C006C007122E61C333CE33CED836
:10132300F9122E40D007D006D005D00412007D90CC
:1013330000141207D00527E527700205266405452A
:101343002670C9122E31E4FBFA79A0784012027795
:101353009000141207D09000181207DC0000000060
:10136300E4F526F527900018122E34C004C005C0FA
:1013730006C007122E61C333CE33CED8F9122E40E6
:10138300122E31120079E4FBFAF9F8120314500F0C
:10139300122E61C333CE33CED8F9122E40801A12E7
:1013A3002E61C333CE33CED8F9122EAB122E34E4D2
:1013B300FBFA798078BF122E96122E31120079AB88
:1013C30007AA06A905A804D007D006D005D00412A1
:1013D300007D9000181207D00527E5277002052627
:1013E300640545266003021368C3E525945D122E48
:1013F3006D5013E4FFFEFD7C3F900018122E49123E
:10140300031460025010E525152570021524122ED1
:1014130068400302129EE525452470057F02123CB5
:101423009D2290001EE014B40900400302160A90A6
:10143300144075F003A4C58325F0C5837302145BC0
:1014430002146E0214F302151E02154E02157902E0
:1014530015BD0215E90215FBE4F562121B1A900093
:101463001CE4F0A3740EF0A37402F090001CE0FEE1
:10147300A3E0FFD3940CEE64809480400575620171
:101483008023D3EF940AEE64809480400575620450
:101493008013D3EF9408EE64809480400575620254
:1014A3008003E4F562D3EF9400EE648094804003FC
:1014B30002160A900030121A98FF1203CB7D6412B1
:1014C3001ADAAE2EAF2F7C007D0A1205CE8E2E8F38
:1014D3002FE52F452E7005121B28800D121B62C3AA
:1014E30033CE33CED8F9121AE490001E7403F022DF
:1014F30090001CE0B4FF0AA3E0B4FF057F021216BC
:101503000B121A6B40027F02121B0E400302160AD3
:10151300121B31740AF0A37404F022121AA34003BD
:1015230002160A900030121A98121AD0E52F452E8F
:101533007005121B28800D121B62C333CE33CED825
:10154300F9121AE490001E7405F02290001CE0B416
:10155300FF0AA3E0B4FF057F0412160B121A6B40B7
:10156300027F04121B0E400302160A121B31740A77
:10157300F0A37406F022121AA3400302160A900085
:1015830030121A98FFE4FBFA7920784112016E12A7
:101593001B22900030121A98121AD0E52F452E7094
:1015A30005121B28800D121B62C333CE33CED8F92C
:1015B300121AE490001E7407F02290001CE0B4FF9E
:1015C3000EA3E0B4FF097F011239FBE4121B2A12B8
:1015D3001A6B40027F01121B0E502C121B31740C2C
:1015E300F0A37408F022121AA3501C90002B7480ED
:1015F300F090001E7409F022121B41700A123D3153
:101603004005E490001EF0221239FBE490001CF028
:10161300A3F022E51A70047F0580411239EAD3EF63
:101623009441EE648094804002D213D3EF943CEE55
:10163300648094804004D211800DC3EF9432EE6431
:101643008094805002C211301305201102C213D3BB
:10165300EF944BEE6480948040057F06023C9D121C
:1016630039EAC3EF9437EE64809480500D900046BE
:10167300E064067005F0FF123217AB52AA53A95467
:1016830090000812057D7004C212801F1239EAD33C
:10169300EF9432EE648094804004D212800DC3EF45
:1016A3009428EE648094805002C21220120AE4F55A
:1016B3001BF51CF51DF51E22D3900058E0940090F5
:1016C3000057E06480948050030217AA1239EAEFAE
:1016D30024CEFFEE34FFAB07FAD3EB9400EA648029
:1016E30094804004AE02801AC3E49BFFE49AFED3C5
:1016F300EF9401EE648094807E0040047F018002B9
:101703007F00EF4E6042900057E0FEA3E0FF7C179E
:101713007D701205CED3EF9400EE64809480400276
:10172300801D900057E0FEA3E0FFC3E49FFFE49E0B
:10173300FE7C177D701205CEEF2401FFE43EFEAD63
:1017430003AC021205BC80047E007F00EF251EF56A
:101753001EEE351DF51DD3E51E9450E51D648094E2
:10176300C64006751D46751E50C3E51D64809480F2
:101773005005E4F51DF51EEB251CF51CEA351BF59C
:101783001BD3E51C94E0E51B648094AE4006751BF7
:101793002E751CE0C3E51C9420E51B648094515016
:1017A30006751BD1751C20228E2E8F2F8D3090F63F
:1017B30092E030E708E4FFFEFD7C408008AF19AEFD
:1017C30018AD17AC161234A5AC2EAD2FEC12039244
:1017D300C004C005C006C007E4FBFA79807845AFB2
:1017E30038AE37AD36AC35120277D003D002D00114
:1017F300D00012016E8F3C8E3B8D3A8C39E5306000
:101803004124FA700302189D24F970030218D224AC
:10181300EE6003021928AC2EAD2FEC120392A8043C
:10182300A905AA06AB077F9A7E997D997C4512028A
:10183300778F348E338D328C318F198E188D178CB0
:1018430016227534357533487532031234868F1575
:101853008E148D138C12AB15AA14A913A81212346B
:10186300B95013AF15AE14AD13AC121234AE8F15BD
:101873008E148D138C12900020E0FC120397A804A1
:10188300A905AA06AB07AF15AE14AD13AC1212022D
:10189300778F118E108D0F8C0E2275342D7533A614
:1018A3007532331234868F0D8E0C8D0B8C0AAB0D73
:1018B300AA0CA90BA80A1234B9506AAF0DAE0CAD2D
:1018C3000BAC0A1234AE8F0D8E0C8D0B8C0A22AB2F
:1018D3003CAA3BA93AA839AF19AE18AD17AC1612FA
:1018E3000079C004C005C006C007E4FFFE7DA57CE7
:1018F30043AB3CAA3BA93AA83912016ED003D002EC
:10190300D001D0001202771234A5E4FBFA797A7879
:101913004412016E1234A51203CB7B007A00791AAC
:1019230012224A8F09228F27123D314005123D2A88
:101933005003D38001C392081221941221EE500A5E
:10194300AC4EAD4FAE04AF0580008E288F299000BA
:1019530001120604FFC3E5299FE5F06480F8E5283A
:10196300648098500B3008081221DF400312224391
:1019730020060EAF271221D764014E7050D2068085
:101983004C30010A054BE54B700C054A8008E54BCA
:10199300154B7002154A900003122197FFAEF0D346
:1019A300E54B9FEE1221E55006D2018E4A8F4B1272
:1019B30021DE4005C201122243AF271221D7640161
:1019C3004E6005123C785005C20675511E123D2A21
:1019D300500D20000A054BE54B701E054A801A1274
:1019E3003D31500D20000AE54B154B7002154A801E
:1019F30008200805300002C200123D2A50102000C2
:101A03000D1221DE4008755004122243D200123D0C
:101A1300315025200022AB52AA53A954900003123F
:101A23000604FFAEF0D3E54B9FEE1221E550097596
:101A330050048E4A8F4BD200300804E4F55122AF94
:101A4300511221D764204E70070551C20912303953
:101A5300227FCD7ECC7C4090002CE0F8A3E0F9A35C
:101A6300E0FAA3E0FB02031490001CE0FAA3E0FBFE
:101A73007C007D04FFAE021205CE8C2E8D2FD3E5A4
:101A83002F9401E52E648094807F0022900025121C
:101A930007D0900025E0FCA3E0FDA3E0FEA3E02235
:101AA300D390001DE0940090001CE0648094802299
:101AB300900021747FF0A374FEF0A37480F0A374EC
:101AC30002F0E4900029F0A3F090002522FF120316
:101AD300CB8E2E8F2F7D0A7C001205CE8C2E8D2F60
:101AE3002224FFFFEE34FF90001CF0A3EFF0227CD2
:101AF30040AB11AA10A90FA80E020314900021E015
:101B0300FEA3E0FFEE3395E0FDFC228F62D3EB945E
:101B130000EA6480948022AF15AE14AD13AC12902A
:101B230000300207D074FF90001CF0A3F022E4F50C
:101B33006290001CF0A322AB52AA53A95422900036
:101B43002BE05480FF3395E04F22AB2DAA2CA92B19
:101B5300A82A020786E4FBFA797A7844020277AE70
:101B63002EE52F78022290001F7401F0228E278F1A
:101B73002830120DD3E5289400E527648094805023
:101B830005AE27AF2822AC1DAD1EEC1203927B00DD
:101B93007AA0798C78461202771239F2E4FBFA794B
:101BA300C8784212016E1239F2AC1BAD1CEC120361
:101BB300927B007A80793B78461202778F348E339A
:101BC3008D328C311239E1C000C001C002C003E480
:101BD300FFFE7D207C41AB34AA33A932A831120128
:101BE3006ED003D002D001D00012007D1239F2E48E
:101BF300FFFEFDFC1239E11203145009E4F52CF544
:101C03002BF52AF529E4FFFE7DC87C421239E11247
:101C13000314600D400BE4F52CF52B752AC87529C8
:101C230042C3E5289484E5276480948350057E03AA
:101C33007F8422AC27AD28EC12039278C41239D0EA
:101C4300E4FBFA79C878421202771239D8AB30AA8A
:101C53002FA92EA82DC000C001C002C0031239E174
:101C6300E4FFFE7DC87C42120079D003D002D0018C
:101C7300D00012016E1239D878441239D01203CB36
:101C830022301403021D11301503021D11E49000CC
:101C930042F090001FE06003021D8B122194122179
:101CA300EE506590004CE0FD700404F08010ED12DE
:101CB30022359409EC648094805003021D8B9000BC
:101CC3004C7401F0900005120604FDACF0D3E54D11
:101CD3009DEC6480F8E54C64809840068C4C8D4DF7
:101CE300800B7432254DF54DE4354CF54CD3122160
:101CF300F24009122194F54F85F04E2274FA254FD4
:101D0300F54FE4354EF54E22E490004CF022E4907A
:101D1300004CF0900042122202EF4E70037480F0E8
:101D2300900042E0547FF527301513FF3395E0FE12
:101D3300D3EF9404EE648094804003023BE9AF2721
:101D4300EF3395E0FED3EF9409EE6480948040383E
:101D5300D3E54F94EEE54E64809482400C740625DF
:101D63004FF54F74FF354EF54ED3E54D94BEE54C1C
:101D73006480948A400C74E7254DF54D74FF354C0F
:101D8300F54C9000427480F022E50864037002F57C
:101D930008E508146042147003021E3C1470030229
:101DA3001E8324036003021E80D208123C4EE4F516
:101DB30029F52A749E252AF582743F3529F583E493
:101DC30093FF123479EFF0052AE52A70020529649E
:101DD30004452970DE021E7BE4F529F52A123479C5
:101DE300E0FF1234C3400F1234CD4018EF941FEEBE
:101DF30064809480500E052AE52A70020529640444
:101E0300452970D9C3E52A9404E529648094805058
:101E130023123479E0F52DFF3395E0FE4F6006EF92
:101E230064064E7005C208123C4EAF2D1235EC7598
:101E33000802804C750803804775310075320075C0
:101E4300332D7B007A00792B122776EF4E6031AD6C
:101E53002DAF2CAE2B1217ABE4F529F52A123479EA
:101E6300E0B52D0612347974FEF0052AE52A7002D6
:101E730005296404452970E57508018003E4F50824
:101E8300900040E06009E50864036003021D8C22B2
:101E930030122390005FE0FF3395E0FEC3EF940C14
:101EA300EE648094805005E004F0800AE490005FC3
:101EB300F0C2A4C2A522E562B40A004003021F9443
:101EC300901ECAF8282873021EE8021EF5021EFAA5
:101ED300021EFF021EF0021EFF021F3A021F94029F
:101EE3001F3A021F3AC2A4C2A5E4F56122D2A4D2CA
:101EF300A522C2A4D2A522D2A4C2A522C2A5E5616D
:101F0300547FFFAE62EE64037E0070027E03C3EE75
:101F13006480F8EF64809850090F536180EF426149
:101F2300800B123D177F8060027F008F61123D1787
:101F3300C36001D392A42253617FAF62EF6409604F
:101F430007AF62EF640870047F0680027F0AD3EF55
:101F53006480F8E5616480984008C2A5C2A4E4F5F2
:101F63006222E56175F002120542AFF0EFC3600132
:101F7300D39207AF62EF64087003C38002A2079293
:101F8300A4AF62EF64087004A2078001C392A505A1
:101F93006122900059E0600A200E0714F0E07002FD
:101FA300D284AF60EF3395E0FEC3EF9403EE648019
:101FB30094805007E4900057F0A3F0900057E0FEA0
:101FC300A3E0FF900055E06E7003A3E06F7003027F
:101FD3002077900055EEF0A3EFF0D39400EE6480E9
:101FE30094805029122EA26409600C90005A1207A3
:101FF300DC00000000D20E900055E0B4FF08A3E01F
:10200300B4FF03D38001C39281122E8F2290005517
:10201300E0FEA3E0FFC394F4EE64809481502A8E23
:10202300288F29E4F52DF52C752B80752A3FFFFEAB
:102033007DC87C42122078C28120840690005974A6
:10204300FAF0D283C285D20E22900055E0F528A380
:10205300E0F529752DC3752CF5752B88752A3F7FFF
:10206300007E007D407C40122078D281D284C283DE
:10207300D285D20E2212281F90005A1207D0227541
:102083002601E4F527752801FB7D027F021231A5A5
:1020930012215A7F057E001225577F0230A2027F4C
:1020A30003900020EFF0C2A275260312215A1200FA
:1020B300477F9A7E997D39121AF2500890001F7457
:1020C30003F080277FCD7ECC7D4C121AF25008900E
:1020D300001F7402F080147466FFFEFD121AF250A2
:1020E30005121B698005E490001FF0C214C215128B
:1020F3001AB31207DC00000000AF11AE10AD0FAC35
:102103000E90002C1207D0121B1AE490001EF0123E
:102113001B3A120564703FF524F525900020E0FF7B
:102123003395E0FEC3E5259FEE6480F8E5246480E3
:102133009850167F041239FB7FA07E0012255705A5
:1021430025E52570D6052480D27F907E0112255780
:1021530090002B7480F0227B007A0079267D047F27
:1021630002120CD0227FCD7ECC7D2C7C4090002CA3
:10217300E0F8A3E0F9A3E0FAA3E0FB020314900064
:102183004AE0FF3395E0FED3EF9400EE6480948041
:1021930022900001AB52AA53A954020604AB52AADF
:1021A30053A95402056475F00490004AE0FD12053A
:1021B30042AFF0EF3395E0F5278F28D3E52822755A
:1021C300F009ED12080DEC75F009A42583F583E4FD
:1021D3009322AF26EF3395E0FEEF22C3E54B95291B
:1021E300E5286480F8E54A64809822FFAEF0C3E5F1
:1021F3004F9FEE6480F8E54E64809822900041E0A2
:10220300FF3395E0FE22E054C0F0C3ED9406EC6486
:1022130080948022E0FF543FF524FD3395E0FC4D8C
:1022230022E52564034524229401E52764809480F4
:1022330022FD3395E0FCC3ED22EDFF3395E04F2201
:1022430085284A85294B228B3D8A3E893F8F438EC1
:10225300428D418C407FD57E2C7D517C00D3123B37
:10226300004006123AF67FD822E47FE37E0AC312C7
:102273003AE95006123AF67F7D227401123AF7E4E6
:102283007FF57EF5D3123AE94038E4F544F545AEDF
:1022930044E5457802C333CE33CED8F92445F582DD
:1022A300743D3EF5831207C0C3123B004006E5456B
:1022B30024D8FF220545E54570020544644B454497
:1022C30070CDE4F544F545E54525E0FFE54433FEEF
:1022D30074712FF582743E3EF583E493FE7401938B
:1022E300FFE48F498E48F547F546E549F549E5484A
:1022F300F548E4F547F546AF43AE42AD41AC40ABDC
:1023030049AA48A947A846D312079C5006E5452485
:1023130023FF220545E54570020544645B4544708F
:10232300A6123AF6FF22123AE06012AF60EF33953D
:10233300E0FEC3EF9403EE648094805006E49000C3
:1023430054F022D3900058E09400900057E064804A
:10235300948050030223E6900054E0547FF524E474
:10236300FFFE7D90123AD35019123AC25007E5246A
:102373002402FF80027F088F24900054E0547FF0F2
:1023830080417F9A7E997DE9123AD3601A401812F0
:102393003AC25006E52404FF80027F088F24900090
:1023A30054E04480F0801CAF24EF3395E0FED3EF7C
:1023B3009400EE648094804006E52414FF80027F3D
:1023C300008F24900054E05480F04524F0123AC268
:1023D3004011E05480FF3395E04F7F0360027F0498
:1023E300123C9D22EF14603814605F1470030224C2
:1023F300772403600302249E1228FD400302249ED7
:1024030030080EA8057401088002C333D8FC42804B
:1024130022A8057401088002C333D8FCF452802239
:102423001228E850761228F4407130080EA805747B
:1024330001088002C333D8FC429022A80574010826
:102443008002C333D8FCF45290221228C7504C1296
:102453002906404730080EA8057401088002C333DB
:10246300D8FC42A022A8057401088002C333D8FC1B
:10247300F452A022ED1228CB502130080EA8057487
:1024830001088002C333D8FC42B022AF05A8077409
:1024930001088002C333D8FCF452B02290004BE011
:1024A300B4070040030225539024B2F8282873028E
:1024B30024C70224D40224EF0224FD02251D022591
:1024C3002B02254B90004A740BF0A37401F00225F4
:1024D300531221A912222B4002805512223C707004
:1024E30090004A7407F0A37402F0806412218150B3
:1024F3005F7423F0A37403F0805675F00C1221ACC3
:10250300940512222D4002802712223C7042900033
:102513004A7407F0A37404F0803612218150317499
:102523000BF0A37405F080281221A912222B400777
:10253300122194FFAEF02212223C701490004A74D0
:1025430023F0A37406F080081221815003E4A3F062
:10255300E4FEFF228E308F31E4F536F537E5314561
:1025630030700302260C0537E53770020536AE30AE
:10257300AF31EE3395E0FDFCE47BA07A0FF9F8125E
:10258300065B8F358E348D338C32C006C007AE3672
:10259300AF37AB07AA06EA3395E0F9F8D007D006C0
:1025A3001206E68F358E348D338C32E47FFF7EFF47
:1025B300FDFCAB35AA34A933A832C312079C50A63D
:1025C300C374FF9535F53574FF9534F534E49533CD
:1025D300F533E49532F532AF35AE34AD33AC327802
:1025E300081207AD8F8CE535FF8F8AC20B43881025
:1025F300E58820E503300BF85388CFE537153770AE
:10260300021536E537453670CE228B378A3889393D
:102613008F3D8E3C8D3B8C3AE4F53EF546F545F512
:1026230044F543AB3DAA3CA93BA83A1238375003C3
:102633000226BFAB37AA38A939854682854583125E
:10264300057D623EE4754208F541F540F53FAB4236
:10265300AA41A940A83F123837402DE53E30E7088C
:1026630025E06407F53E8006E53E25E0F53E74FF70
:102673002542F542E54134FFF541E54034FFF5409D
:10268300E53F34FFF53F80C6E4FAF9F8E546240157
:10269300F546EA3545F545E93544F544E83543F56E
:1026A3004374FF253DF53DE53C34FFF53CE53B3404
:1026B300FFF53BE53A34FFF53A022626AF3E2220EA
:1026C3000E0302277530101990F129E060030227E9
:1026D300757F01300F01FF90F164EFF0C20EC2105D
:1026E30022E4FFFE7DC87C42123CF0120314600C0E
:1026F300400A90005A1207DC42C80000E4FFFEFDC6
:10270300FC123CF0120314500A90005A1207DC002A
:10271300000000AF27AE26AD25AC24EC4D4E4FC3D1
:102723006001D3920F7F007E807DBB7C45123CF01D
:1027330012016EE4FBFA798078BF12007D8F278E39
:10274300268D258C24E4FBFA79C878421202778F10
:10275300278E268D258C241203CBAD07AC06ECFF08
:10276300EF90F141F0ED90F140F0D21090F1297427
:1027730001F0228B2E8A2F8930E5DF30E102805071
:1027830090003DE004F0700690003CE004F09000FF
:1027930038E0F8A3E0F9A3E0FAA3E0FBAFDDEFFE36
:1027A300ADDCEDFFEE3395E0FDFCEB2FFFEA3EFEE3
:1027B300E93DFDE83CFC9000381207D0C390003D92
:1027C300E0940A90003CE064809480500743DF0269
:1027D300E4FEFF22900038E0FCA3E0FDA3E0FEA3AB
:1027E300E0FFE47B0AFAF9F81236CD9000381207BD
:1027F300D0900038A3A3E0FFA3E0AB2EAA2FA9300B
:10280300CF8FF012063C90003EE0AB31AA32A933E1
:102813001205AAE490003FF0FE7F01228F278E2647
:102823008D258C24AC28AD29EC120392AB27AA2664
:10283300A925A824122E55E4FBFA797A78441202CA
:1028430077122E587B9D7A69795C783C1202771255
:102853002E58AB2DAA2CA92BA82A122E55C004C082
:1028630005C006C007E4FFFE7D7A7C44AB19AA18B5
:10287300A917A816122E96D007D006D005D0041299
:102883000277122E58E4FBFA79C87842122E55E4E7
:10289300FFFE7DC87C42122E74600D400BE4F531BF
:1028A300F530752FC8752E42E4FFFEFDFC122E7421
:1028B3005009E4F531F530F52FF52EAF31AE30ADDB
:1028C3002FAC2E22EDFF7E00D394067480948022D9
:1028D300EDF4F58275830085832A85822B85832C0D
:1028E30085822DED22EDFF7E00D3940774809480C2
:1028F30022C3EF94037480948022EDD394057480F3
:10290300948022C3EF94017480948022FBE434F01A
:10291300FAA80574010822F4F58275830085832ED5
:1029230085822F85833022A3E0FBE52F4BFD22A375
:10293300E0FBE5314BFD22E0FBE52D4BFD22E0FB07
:10294300E52D5BFD22E0FBE52F5BFD22E0FBE5319E
:102953005BFD22A3E0FBE5334BFD22A3E0FBEF4B42
:10296300FD22E0FBE5335BFD227D087F0212394C3B
:10297300404F90005EE025E0F030A306E04401F014
:10298300800790005EE054FEF090005EE0FF540F7D
:10299300FEFD7C00640F6003EF7026E4F5B4ED6484
:1029A3000F4CD37001C39216AF06EF640F7B017017
:1029B300027B027D037F021235917D087F02123B69
:1029C300CB301608E55830E703755880301627E5F5
:1029D3005764857021120003D3EF9400EE64809452
:1029E300804005123C20800BE4F55BF55D755A01D0
:1029F300755901E4F557201613E5586484700DF5F5
:102A030058E5597004755C0122E4F559228F2FEFC4
:102A130064017003022AA5D20A123CAF7530027515
:102A230031007F11122AA6AF33123C07401D123C1E
:102A3300165018E53314F5320531E53170020530CF
:102A4300C394FCE5306480948340D7AF2FEF6408D0
:102A5300600AEF64096005EF640A7011AF32EF3367
:102A630095E04F600585322F8003752F04E532B55D
:102A73002F028029E531B4FC10E530B4030B753027
:102A8300027531007F1D122AA6E52F04F5337B0062
:102A93007A007933AD31AC307F1912391DC20A1275
:102AA3003CAF227B007A007933AD31AC3012391D53
:102AB30022E4F526F527F528FB7A0079267D027FA7
:102AC30001120CD07B007A0079267D01E4FF120C01
:102AD300D07D02122B467B017D017F031231A57B42
:102AE300017D037F011231A57B01E4FDFF1231A5B6
:102AF300752603E4F527752801FBFD7F031231A535
:102B03007D01122B46D208E4FD7F031223E775DF14
:102B13004075DE60E4F5E9F5D1F5D375D50F75D4CD
:102B2300FF90F69274A0F0E4F5089000381207DCE9
:102B33000000000012349CF0A3F0A304F043DE80F5
:102B43000200477B007A0079267F03120CD022789B
:102B5300FFE4F6D8FD9000007F007E04E4F0A3DFDD
:102B6300FCDEFA758164022BA7022FB9E493A3F864
:102B7300E493A34003F68001F208DFF48029E49391
:102B8300A3F85407240CC8C333C4540F4420C88388
:102B93004004F456800146F6DFE4800B010204088A
:102BA300102040809032E9E47E019360BCA3FF547F
:102BB3003F30E509541FFEE493A360010ECF54C0D8
:102BC30025E060A840B8E493A3FAE493A3F8E49360
:102BD300A3C8C582C8CAC583CAF0A3C8C582C8CA68
:102BE300C583CADFE9DEE780BEEF14602214603CD0
:102BF300146056240370741228FD4002806DED2486
:102C03008012290F8002C333D8FC55ACFC806012BC
:102C130028E850051228F450028050ED2488122928
:102C23000F8002C333D8FC55ADFC80431228C75034
:102C33000512290650028033ED249012290F8002D9
:102C4300C333D8FC55AEFC8026ED1228CB4002805E
:102C53001AED2498FBE434F0FAAF05A807740108D1
:102C63008002C333D8FC55AFFC8004E4FEFF22ECA2
:102C73007003FEFF228B828A83E05403FF7E0022CF
:102C8300E4F5DE90F692F090004004F0E4F508FFDE
:102C9300EFFD3395E0FCC3ED9404EC648094805025
:102CA30015EF3395E0FC74342DF58274003CF58305
:102CB30074FEF00F80DA9000381207DC0000000089
:102CC30012349CF0A3F0FB7D017F031231A5E4FBDA
:102CD3007D037F011231A5752603E4F527F528FB53
:102CE3007A0079267D027F03120CD07B007A00796B
:102CF300267D087F01120CD0C2087D017F031223B9
:102D0300E7C2087D037F011223E7C208E4FD7F03C6
:102D13000223E790001EE0700BAB52AA53A9541292
:102D23000564600775550075562822D3E55694004F
:102D3300E555648094804009E55615567002155593
:102D43002290F500E4F0C2071239784387044387E1
:102D530002123C63D208123A74123B4E7F017E008A
:102D630012255712296C123C7850F1D20712397888
:102D7300E4F524F525120047120F9D3015130525A0
:102D8300E52570020524C39403E524648094804000
:102D9300E4E525640345247005F55575560FE49065
:102DA3000040F022AB52AA53A95412056460046494
:102DB30001701190F508E4F090F500E0547FF0E421
:102DC300F55F8036AF5FEF3395E0FEC3EF9403EE1C
:102DD300648094805004055F8020EF64034E701A72
:102DE30090F500E04480F07F147E0012255790F5A3
:102DF30009E4F090F50804F0055FAF60EF3395E068
:102E0300FEC3EF9402EE648094805003056022EFCA
:102E130064024E70180560900060E0FF3395E0FE99
:102E2300D3EF9400EE648094804002D21722900086
:102E330014E0FCA3E0FDA3E0FEA3E0FF222400F5E1
:102E43008274003EF583E0F8A3E0F9A3E0FAA3E07F
:102E5300FB2212016E8F318E308D2F8C2E22AE26E7
:102E6300E527780222D3E5259400E5246480948045
:102E730022AB31AA30A92FA82E020314E4900057E5
:102E8300F0A3F0900055F0A3F022C281C284C28364
:102E9300C2852212016EA804A905AA06AB0722ABBC
:102EA30052AA53A9540205642400F58274003EF526
:102EB3008322752603E4F527752801C2087D02FFE6
:102EC3001223E77B007A0079267D04E4FF120CD0FD
:102ED3007B127D02E4FF1231A590F120E4F0A304FC
:102EE300F090F123F090F12A74FFF090F122E4F0D6
:102EF30090F12704F0A3F090F160E4F090F165F015
:102F030090F16404F090F1317417F090F130746F24
:102F1300F090F141E4F090F140F090005A1207DC98
:102F230000000000C210C20E90F166E4F090F1269A
:102F330004F0023CFF1221814003E014F01221FF50
:102F4300C3EF9418EE648094805003E004F0900083
:102F53004C122184400DEF9409EE64809480500359
:102F6300E004F0AF51EF3395E0FEC3EF9420EE643D
:102F730080948050020551AF50EF12218640021514
:102F8300509000441221844003E014F0900042E08A
:102F9300FF30E71C547FFEEF5480F0EE122234948E
:102FA3000AEC6480948050010E900042E04EF022BF
:102FB300E4900042F022123C63D208123A74123AAF
:102FC30024122AB4123B2D1234D7123683123BAC8F
:102FD300122EB512384A12341A121200122082121B
:102FE300000EE4900040F012004712296C1238B82A
:102FF300120F9D12086E121616121F951226C2305A
:103003000CE5C20C123CD0122DA71237D2122F3866
:10301300123131123711123753122D16AF60EF33BD
:1030230095E0FED3EF9402EE648094804003121E79
:103033009312232980B1D20A123CAF20091CE4F574
:103043002BF52C742D12382C7F1112391D052CE50C
:103053002C7002052B12384040E9900047E0F5350B
:10306300854A32854B337F003002027F018F347AE9
:1030730000793212382112260D8F36200907E536E2
:10308300B53102802A7B007A00792DE4FDFC7F1D97
:1030930012391DE4F52BF52C743212382C7F1912DA
:1030A300391D052CE52C7002052B12384040E9C26E
:1030B3000A123CAF2290004DE0FEA3E0FFC394054B
:1030C300EE64809480501AEE7015EF14600B146058
:1030D3000C240270557562012275620422804580BA
:1030E30049900046E0FF7E007C007D061205BCEFA0
:1030F3002405FFE43EFE90004DE0FCA3E0FDC39FEA
:10310300EE6480F8EC6480985020ED24FBFFEC34EF
:10311300FFFE7C007D031205CE7C007D021205CEEE
:10312300ED4C7004756202228000E4F56222123DC8
:103133002A50051221A07007E4900048F0802990DE
:1031430000481222177007EF20E6034480F0900036
:10315300481222095008E020E60405248003E4F520
:1031630024900048E04524F0123D3150051221A07F
:103173007006E4900049F02290004912221770076C
:10318300EF20E6034480F09000491222095008E042
:1031930020E60405248003E4F524900049E0452457
:1031A300F022EBF5826402606AE58264036064E501
:1031B300826419605ED3E582941C748094805053BA
:1031C300EF14601414602014602F24037045122838
:1031D300FD5040ED2400802A1228E850361228F4CE
:1031E3004031ED2410800D1228C7502712290640C4
:1031F30022ED2420F52AEE800CED1228CB5014ED9D
:103203002430F52AE434F0F529EB541F852A82850E
:103213002983F0228F2B1221A0F52EE4F52CF52D16
:10322300903F2775F009E52D12080DE52C1221CAF0
:10323300652B703390004BF0AE2CAF2DFC7D091243
:1032430005BC74272FF9743F3E7552FFF55389541B
:10325300E52E700AE52B6006FF122A108005E49024
:103263000041F0E4FEFF22052DE52D7002052CC37D
:10327300940BE52C6480948040A67E007F01227D20
:10328300037F02122BECEF64014E7034C216E55734
:10329300547FFFE4F557E5597004E55D6007E4F5F5
:1032A3005DF5598033EFC39405502D120003C3EF2E
:1032B300940AEE648094805002055B7558808018F0
:1032C300D216755500755628E55830E703755880B2
:1032D300E55720E7037557807D087F0212004E9063
:1032E300005E740AF022C10CC10BC10DC11601614D
:1032F3000041005F004100590041006000015F0090
:10330300C117015EFF01600341002B004100200350
:1033130042001C0000021B0000021D0000C112C17C
:1033230011C113C118C106410042004100480041C8
:10333300004400410049004100430041004A00416C
:1033430000411941004C00C100C10100D20A123CE6
:10335300AFE4F524F52574262525F9E4FAFBAD251C
:10336300AC247F1112391D0525E52570020524C300
:103373009405E5246480948040DCC20A123CAF7A51
:1033830000792612382112260DEFB52A1590004731
:10339300E529F085264A85274BE528C36001D392AA
:1033A3000222E4900047F01239A4C202D20912307B
:1033B30039228D27201409201506E4900042F022BB
:1033C300900042E0FD3395E0FCED4C70037480F017
:1033D300900042E0547FF5282015057529098003E4
:1033E300752902EF6018301515AF28EF3395E0FE0D
:1033F300C3EF9403EE648094804003023BE9D3E57A
:10340300296480F8E528648098400B90004274801A
:10341300F0AF2712321722E4F527D20A123CAF7518
:1034230024027525007B007A007926AD25AC247F24
:103433001112391DAF26123C07401D123C165018BD
:10344300E52614F5270525E52570020524C394FC1C
:10345300E5246480948340CDAF27EF6408600AEFCE
:1034630064096005EF640A7003752704AF271232FD
:1034730017C20A023CAF7434252AF5827400352939
:10348300F5832275313EAB34AA33A932A831AF3C60
:10349300AE3BAD3AAC39020277E490003CF0A3F0C6
:1034A300A3228F388E378D368C35227BCD7ACC791B
:1034B300CC783D020079E4FFFE7D407C400203149A
:1034C3003395E0FEC36480948022D3EF9416EE64B8
:1034D30080948022E4F550FFEF122234940BEC64C5
:1034E300809480502C903F271221C26402701FEFFA
:1034F3003395E0FC903F2C1221C2F54C740193F5F7
:103503004D903F281221C2F54E740193F54F0F8061
:10351300C712334FE490004BF09000457404F0E47D
:10352300A3F07552FF75533F755427C204C203C2FB
:1035330005228E278F288C298D2AE52864054527A7
:10354300701E20021B7F02123217D2021239A47599
:1035530050087F082002027F098F62C209123039A6
:10356300E528640245276008E52A640245297008B6
:103573002011057F08123217E528640345276008E8
:10358300E52A6403452970057F0912321722EBD31C
:103593001228F65053EF14601414602014602F2483
:1035A3000370451228FD5040ED2480802A1228E83C
:1035B30050361228F44031ED2488800D1228C7506C
:1035C300271229064022ED2490F528EE800CED12F7
:1035D30028CB5014ED2498F528E434F0F527EB5468
:1035E30003852882852783F022AB077AFF90003F6B
:1035F300E07041EB1234C3403B1234CD400AEF94E8
:103603001FEE64809480402C9000381207DC000089
:10361300000012349CEBF0A37401F0EB30E405439B
:10362300DF80800353DF7F53DEF0EB540F42DEDA9B
:10363300FE43DF0222C0E0C0F0C083C082C0D07569
:10364300D000C000C001C002C003C004C005C00652
:10365300C00775C900151FB20DE51F7008751F045B
:10366300D20C1238EBD007D006D005D004D003D04B
:1036730002D001D000D0D0D082D083D0F0D0E032BD
:10368300752401E4F525F526FB7D037F021231A5A0
:103693007B007A0079247D087F02120CD07D087F9D
:1036A30002123BCB7B027D037F0212359143B904A7
:1036B30075550075562890005E74FFF0E4F557F5D4
:1036C30058F55AF55BF55CF55D22C2D5E830E70F96
:1036D300B2D5E4C39BFBE49AFAE499F9E498F8ECD5
:1036E30030E717B2D51237031206E6E4C39BFBE4B7
:1036F3009AFAE499F9E498F880031206E630D50DB6
:10370300E4C39FFFE49EFEE49DFDE49CFC22900045
:1037130046E0FF7E00700590004D803090004EE043
:1037230004F0700690004DE004F07C007D06120565
:10373300BCEF240FFFE43EFEC390004EE09FEE6417
:1037430080F890004DE06480984004E4F0A3F022F8
:103753003003071221A064036006E4900043F022C3
:10376300900043E004F0122202C3EF9410EE648051
:103773009480401CE4F0900047E0FF94057480942B
:103783008050060FBF00008002E4FF900047EFF077
:1037930022C0E0C0F0C083C082C0D075D000C0009A
:1037A300C001C002C003C004C005C006C007123276
:1037B3008275B600D007D006D005D004D003D0025E
:1037C300D001D000D0D0D082D083D0F0D0E032125C
:1037D3001AA3400CA3E024FFF090001CE034FFF098
:1037E30090002BE0FF30E71D547FFEEF5480F0EE96
:1037F300FD3395E0FCC3ED940CEC6480948050059C
:103803000EE04EF022E490002BF02275F009EF1247
:10381300080DEE75F009A42583F583E493227B005C
:103823007F047E007D007C0022252CF9E4FAFBADA9
:103833002CAC2B22E4FFFEFDFCD3020786C39405C8
:10384300E52B648094802275260375270175280172
:10385300122E8D7D021238727D10E4FF120CD07D82
:10386300081238727D20E4FF120CD0122E7F227BC7
:10387300007A007926E4FF120CD07B007A007926C7
:1038830022900047E0146012146014146016146050
:1038930018240470197E007F0A227E007F19227E7D
:1038A300007F32227E007F64227E007FC8221221A5
:1038B30094FFAEF022E55E702E7F057E0012255741
:1038C300E55E25E0F55E90F501E030E702055EAFC9
:1038D3005EEFF470E490F166F090F12604F090004E
:1038E30060E004F0E4F56022E55730E711547FFF10
:1038F300C3940550010F535780EF42578003E4F5FB
:1039030057E55830E710547FFFC3940450010F5319
:103913005880EF425822E4F558228F37EF6419702C
:1039230005120564F5FEEDF5FCECFFEFF5FD0085F2
:1039330037FF000000000000E5FF20E0FBE53764EF
:10394300117005E5FE1205AA22EF1460111460152B
:103953001460192403701CE5AC5D6017D322E5AD38
:103963005D6010D322E5AE5D6009D322E5AF5D60F3
:1039730002D322C322300717123A24122AB4122E7A
:10398300B512384AE490001EF012000E023BAC124E
:103993003CC0C208123A74123B8D122C83123D387C
:1039A30022754A03754B20E4FFFE903F2712380E21
:1039B3006402700D903F2A12380EF54A740193F594
:1039C3004B0FBF00010EEF640B4E70DE22E4FBFAD7
:1039D300796112007D8F308E2F8D2E8C2D22AB2C92
:1039E300AA2BA92AA82922AF09EF3395E0FE228F3B
:1039F3002C8E2B8D2A8C2922EF24FE600E24FE6050
:103A03001024037010C2A4D2A5800AD2A4C2A58038
:103A130004D2A4D2A57F147E00122557C2A4C2A546
:103A230022752603E4F527752801C2A4C2A5FB7DF0
:103A330010123A427B007D20123A42E4F562227A68
:103A43000079267F02120CD022A907900048E0FEDD
:103A53005480FB3395E04B700BED3395E0FCED6444
:103A6300014C700CEE547F900048F0AF01123217F6
:103A730022E4200806F5C853A8DF22F5CE75CB0B48
:103A830075CADB75CD5D75CC6643A820F5C975CFC6
:103A930080751F0475C89122C0E0C083C082538023
:103AA300DF5380F75380FD5380EF53A0EF53A0DF24
:103AB300755E0090F509E4F0D082D083D0E032AF98
:103AC30024EF3395E0FEC3EF9408EE6480948022E4
:103AD3007C40AB0DAA0CA90BA80A020314AB52AA93
:103AE30053A954020564FDFCAB43AA42A941A84073
:103AF30002079CE4AB3DAA3EA93F0205AAAB43AA39
:103B030042A941A84002079C90F1417401F07F0053
:103B13003007027FFF90F140EFF0123CFF7F01304E
:103B23000F027F0090F164EFF0227524407F0A7E3C
:103B330000122557120047E51A7003D524EFE52438
:103B43007008756204121E9380FE227D087F0212A4
:103B5300004E90005E74AAF0D216E55830E7037564
:103B63005880E55720E70375578022E5597004E52F
:103B73005D6004E4FEFF22E55C7003FEFF22120099
:103B830003300805E4F55CF55B22E4FB7D02FF12DC
:103B930031A5C2087D02E4FF1223E790F121E4F08E
:103BA30090F126F090F123F02290F5007409F09043
:103BB300F5027419F090F50CE4F090F5067438F002
:103BC300A37405F075B98022EF14600E14600F140E
:103BD30060102403700FED42AC22ED42AD22ED42A2
:103BE300AE22ED42AF221221A0FF60179000071210
:103BF300057D6005900045EFF0E4FF123217E4FF06
:103C0300122A1022EF3395E0FEC3EF9401EE648095
:103C1300948022D3EF940BEE6480948022E4F558D1
:103C2300F55CF55BF559F55AEF64014E7F007002C0
:103C33007F018F5D22900049E0FE5480FD3395E0C3
:103C43004D6007EE547FF01232172253DE7F007F60
:103C5300002008027FA090F692EFF00043DE80225E
:103C63005388CF5389F0438901E4F58CF58A75A80D
:103C73000243A88022E55A6002D322E55C6002D3A6
:103C830022E55DC36001D322EF64014E700B200572
:103C930005123D2A4003123BE922900046EFF01241
:103CA3003AE0640160057F0112321722300A07C22D
:103CB300AF0075FBAA2275FB5500D2AF22C2AF003D
:103CC3007596AA7596555397FD00D2AF22C2AF00E1
:103CD3007596AA75965543970100D2AF2220170314
:103CE3007F0022900060E0FFE4F0C2172290005AA8
:103CF300E0F8A3E0F9A3E0FAA3E0FB2290F1297432
:103D030001F090F129E070FA22E55A7002C322E42F
:103D1300F55AD322E5615480FF3395E04F2290009A
:103D23001EE0700204F022E559C36001D322E55D71
:103D3300C36001D322122E7F122E8D225388EFD21D
:103D43000B3200512CD5004B1869004584570040B5
:103D53006521003BB06200375CB60033619B002FE6
:103D6300B760002C570700293A3D00265B4100232A
:103D7300B4DC0021424D001EFF45001CE7D5001AAC
:103D8300F86900192DBE001784DA0015FB0600142C
:103D93008DC700133ADA0012002B0010DBD6000F98
:103DA300CC1E000ECF6C000DE44B000D0965000C1A
:103DB3003D80000B7F7C000ACE50000A29070009D2
:103DC3008EC30008FEB50008781F0007FA520007EB
:103DD30084AE0007169D0006AF9700064F1C000532
:103DE300F4B800059FFE0005508B00050602000491
:103DF300C00D00047E5D000440A9000406AC00036E
:103E0300D02700039CE100036CA100033F370003AC
:103E130014720002EC280002C62F0002A263000203
:103E2300809F000260C3000242B10002264C0002E0
:103E33000B7B0001F2230001DA2E0001C38700018E
:103E4300AE19000199D2000186A00001747200012D
:103E5300633A000152EA00014372000134C80001D1
:103E630026DF000119AC00010D2500010141F5F524
:103E7300EB3AE107D755CE1DC558BD00B50EAD7F52
:103E8300A64C9F7098E792AC8CBB871181AA7C8269
:103E9300779772E46E676A1E6606621C5E5F5ACB92
:103EA300575F541950F84DF84B1A485A45B84333E5
:103EB30040C83E773C3E3A1D3812361D343B326DC6
:103EC30030B22F082D6F2BE62A6C290127A4265523
:103ED300251323DD22B22193207F1F751E751D7EBE
:103EE3001C901BAC1ACF19FB192E186917AA16F3CD
:103EF3001642159714F2145313B913251296120C84
:103F030011861105108810100F9B0F2B0EBE0E5536
:103F13000DEF0D8C0D2D0CD10C780C210BCE0B7DE0
:103F23000B2E0AE300000000000000010001000066
:103F330000000000000003015E00000AF00000041E
:103F4300032000000B5401000505DC00000BB80141
:103F530000060BB800000BEA0101071D4C00000C22
:103F63001C0101083A9800000C8000010927100089
:103F7300000BB80001021D4C01F40C1C00010A27C0
:103F83001000000BB800010000000000000000005A
:0F3F930000000000000000000000001F0D0006ED
:00000001FF
