:100000000227E8AF19EF3395E0FE22023C3690005C
:100010004DEFF0AB10AA11A91212053C6401600A61
:100020007F011227447F01122A3322023B30EF3333
:1000300095E0FEC3EF9401EE6480948022D3EF94A8
:100040000BEE6480948022021B1C2202362B0204D9
:100050000FE86480F8E933E83360110460F0ED33B1
:10006000EC337009E8FCE9FDEAFEEBFF220460DEF8
:10007000D3EB9FEA9EE99DE8C2E78CF0C2F795F0CA
:10008000400CE8CCF8E9CDF9EACEFAEBCFFB12034D
:10009000DA85D0F05804700320D5B3E80470075017
:1000A00002B2D502041992D5EC0460F7E4CCC0E0AA
:1000B000C398F8603B94186008400DD0E0FB020341
:1000C000F1E4FBFAC9FC8028E830E406E4C9FBE46B
:1000D000CAFCE830E305E4C9CACBFCE85407601069
:1000E000F8C3E913F9EA13FAEB13FBEC13FCD8F1AC
:1000F00030F52FC3E49CFCEF9BFFEE9AFEED99FDDB
:10010000D0E0FBEF4E4D4C701222DB03020416ECE4
:100110002CFCEF33FFEE33FEED33FDED30E7EB0269
:1001200003F1EF2BFFEE3AFEED39FDD0E0FB50136B
:100130000BBB0003020419ED13FDEE13FEEF13FFDA
:10014000EC13FC0203F1EC4D6011E8497017ED333C
:10015000EC3304600DE4FCFFFEFD22E933E83304D8
:1001600070F802040F1203DA58046009E4CC248109
:100170005006285009020419284003020416C0E062
:10018000EB4A7044B98006D0E0FB020405EF4E70E4
:100190001CBD8008EBFFEAFEE9FD80EBE98DF0A4D1
:1001A000FEE5F002022FE9CDF9EAFEEBFFEF89F060
:1001B000A4FCE5F0CE89F0A42EFFE435F0CD89F063
:1001C000A42DFEE435F08067EF4E7005BD80D7802A
:1001D000C3EF8BF0A4ACF0EE8BF0A42CFCE435F074
:1001E000F8EF8AF0A42CE5F038FCE433CB8DF0A4D2
:1001F0002CFCE5F03BF8EE8AF0A42CFCE5F038F896
:10020000E433CF89F0A42CFCE5F038CF3400CE895C
:10021000F0A42FFFE5F03EFEE433C98DF0A42EFEDE
:10022000E5F039CD8AF0A42FFFE5F03EFEE43DFD78
:1002300033D0E0FB50070BBB000F020419EC2CFC81
:10024000EF33FFEE33FEED33FD0203F1020419EC50
:100250005D046005E85904700302040F1203DA58C4
:100260000460F6EC4860F2EC7004FDFEFF22C8600A
:10027000DB2481C85009C398600250060204169816
:1002800050CAF582E9294B4A7005AB820204057514
:10029000F0007C1A7880C3EF9BEE9AED99400DC375
:1002A000EF9BFFEE9AFEED99FDE842F0DC23ACF007
:1002B000D0E0FFD0E0FED0E0FDAB8220E7101BEBEA
:1002C00060BAEC2CFCEF33FFEE33FEED33FD02039E
:1002D000F1E803F830E705C0F075F000EF2FFFEE0E
:1002E00033FEED33FD40B830E7C280AA74F8CC6429
:1002F00080CCC86480C8F58204604FC3EB9FF5F0E2
:10030000EA9E42F0E99D42F0E89C45F0603C501DB9
:10031000E5825FFFE582D313CB5BCBF42B5582FBE9
:1003200050280ABA002409B9002008801DE5825B24
:10033000FBE582D313CF5FCFF4C3132F5582FF5059
:10034000090EBE00050DBD00010CC3EB9FF5F0EAE0
:100350009E42F0E99D42F0E89C45F06007CC4820C1
:10036000E701B3EC2275F020800E75F01080057562
:10037000F0087D007E007F003392D530D503120750
:1003800050EC334010EF33FFEE33FEED33FDEC3332
:10039000FCD5F0ED22E5F0247EA2D513CC92E7CD7A
:1003A000CEFF22EDD2E7CD33EC3392D52481400647
:1003B000E4FFFEFDFC22FCE4CFCECDCC24E05011C6
:1003C00074FF80EDC3CC13CCCD13CDCE13CECF13A1
:1003D000CF0470F030D5DE020750E9D2E7C933E828
:1003E00033F892D5EDD2E7CD33EC33FC5002B2D5E1
:1003F00022EC30E7100FBF000C0EBE00080DBD0050
:10040000040BEB6014A2D5EB13FCED92E7FD227414
:10041000FFFCFDFEFF22E480F8A2D574FF13FC7DF3
:1004200080E480EFE709F608DFFA8046E709F20882
:10043000DFFA803E88828C83E709F0A3DFFA8032FE
:10044000E309F608DFFA8078E309F208DFFA807042
:1004500088828C83E309F0A3DFFA806489828A832F
:10046000E0A3F608DFFA805889828A83E0A3F208C5
:10047000DFFA804C80D280FA80C680D4806980F216
:100480008033801080A680EA809A80A880DA80E29B
:1004900080CA803389828A83ECFAE493A3C8C58238
:1004A000C8CCC583CCF0A3C8C582C8CCC583CCDF7B
:1004B000E9DEE7800D89828A83E493A3F608DFF9F9
:1004C000ECFAA9F0EDFB2289828A83ECFAE0A3C85A
:1004D000C582C8CCC583CCF0A3C8C582C8CCC583AF
:1004E000CCDFEADEE880DB89828A83E493A3F2082A
:1004F000DFF980CC88F0EF60010E4E60C388F0ED2C
:100500002402B4040050B9F582EB2402B404005074
:10051000AF232345822390047473C2D530F707B20A
:10052000D563F0FF05F030E70CB2D5F4048463F036
:10053000FF05F080018430D502F40422BB01068956
:10054000828A83E0225002E722BBFE02E3228982F4
:100550008A83E49322BB010CE58229F582E5833A84
:10056000F583E0225006E92582F8E622BBFE06E983
:100570002582F8E222E58229F582E5833AF583E4D3
:100580009322BB010689828A83F0225002F722BBA4
:10059000FE01F322EF8DF0A4A8F0CF8CF0A428CEBA
:1005A0008DF0A42EFE22C2D5EC30E709B2D5E4C30B
:1005B0009DFDE49CFCEE30E715B2D5E4C39FFFE45B
:1005C0009EFE120811C3E49DFDE49CFC800312080A
:1005D0001130D507C3E49FFFE49EFE22BB0110E566
:1005E0008229F582E5833AF583E0F5F0A3E0225015
:1005F00009E92582F886F008E622BBFE0AE9258291
:10060000F8E2F5F008E222E5832AF583E993F5F0B4
:10061000A3E99322BB010A89828A83F0E5F0A3F063
:10062000225006F709A7F01922BBFE06F3E5F009F0
:10063000F31922E88FF0A4CC8BF0A42CFCE98EF007
:10064000A42CFC8AF0EDA42CFCEA8EF0A4CDA8F03A
:100650008BF0A42DCC3825F0FDE98FF0A42CCD35FE
:10066000F0FCEB8EF0A4FEA9F0EB8FF0A4CFC5F068
:100670002ECD39FEE43CFCEAA42DCE35F0FDE43C61
:10068000FC2275F008758200EF2FFFEE33FECD33AC
:10069000CDCC33CCC58233C5829BED9AEC99E582F3
:1006A00098400CF582EE9BFEED9AFDEC99FC0FD57F
:1006B000F0D6E4CEFBE4CDFAE4CCF9A88222B8006F
:1006C000C1B90059BA002DEC8BF084CFCECDFCE53A
:1006D000F0CBF97818EF2FFFEE33FEED33FDEC335E
:1006E000FCEB33FB10D703994004EB99FB0FD8E5E3
:1006F000E4F9FA227818EF2FFFEE33FEED33FDEC2C
:1007000033FCC933C910D7059BE99A4007EC9BFC21
:10071000E99AF90FD8E0E4C9FAE4CCFB2275F010AD
:10072000EF2FFFEE33FEED33FDCC33CCC833C810D2
:10073000D7079BEC9AE899400AED9BFDEC9AFCE800
:1007400099F80FD5F0DAE4CDFBE4CCFAE4C8F9224D
:10075000C3E49FFFE49EFEE49DFDE49CFC22EB9F2E
:10076000F5F0EA9E42F0E99D42F0EC6480C86480B6
:100770009845F022EB9FF5F0EA9E42F0E99D42F0A9
:10078000E89C45F022E8600FECC313FCED13FDEE8E
:1007900013FEEF13FFD8F122E493FC740193FD7470
:1007A0000293FE740393FF227401FF3395E0FEFD74
:1007B000FC080808E62FFFF618E63EFEF618E63DB0
:1007C000FDF618E63CFCF622ECF0A3EDF0A3EEF00B
:1007D000A3EFF022A8828583F0D083D0821207EBAA
:1007E0001207EB1207EB1207EBE473E493A3C58344
:1007F000C5F0C583C8C582C8F0A3C583C5F0C5834D
:10080000C8C582C822A42582F582E5F03583F58328
:1008100022BC000BBE0029EF8DF084FFADF022E476
:10082000CCF875F008EF2FFFEE33FEEC33FCEE9DB5
:10083000EC984005FCEE9DFE0FD5F0E9E4CEFD22DC
:10084000EDF8F5F0EE8420D21CFEADF075F008EF67
:100850002FFFED33FD4007985006D5F0F222C398E4
:10086000FD0FD5F0EA22123BB48F26123BF692061A
:10087000C207123A3C8E248F25900042E06009C3E3
:10088000940B7480948040069000427404F0C21E61
:10089000122371B40B004003020B6E9008A2F828DB
:1008A00028730208DC0208C3020A6F020A08020A5F
:1008B00090020AA4020AB7020ACA020AF1020B2530
:1008C000020B49C204200603020B6E12370E5003BE
:1008D000020B6EE490004DF0FF020977E5256405F8
:1008E00045247011C204D3300301C3920390004128
:1008F0007408F08018300315D3E5259400E52464CE
:100900008094805005123B5A5003756706300303EC
:10091000020B6EE52564064524700DD3300401C337
:1009200092049000417402F0300427123C284003E6
:10093000020B6E7F667E667D4612231C60094007AF
:10094000200B047F088030122316603640347F0766
:100950008064E525640145246004E52660267F9ACD
:100960007E997D3912231C6010400E3002047F02F4
:100970008005900042E0FF803D1223166004400293
:10098000803C8050E52564024524702F300B0280A6
:10099000437F667E667D4612231C600740057F0804
:1009A000020B201223166011400F3002047F0280D8
:1009B00005900042E0FF020B2080193006057F03FE
:1009C000020B201223B97012122316600740057F14
:1009D00009020B20756706020B6EE52564044524A9
:1009E0007018D3300201C392027F082002027F09EF
:1009F0008F67C208122CB7020B6E123C2F40030205
:100A00000B6E123C1F020B6ED21E7D037F01123053
:100A100099AF26EF3395E0FEE4FDFC1236D9E525CB
:100A2000640145247003123AB720060B12237A643E
:100A3000014E6003020B6E7F9A7E997D3912231C52
:100A400060025003020B6E7F043002027F02122A02
:100A50003312237A64014E7003020B6E30020312CC
:100A60003863900043E04440F0750E04020B6E20A2
:100A7000051312237A64044E70057F03122A331281
:100A80000C33120C55121C23AF261217B6020B6E34
:100A90007D047F01123099120C33120C55AD267F64
:100AA00005020B6B7D04120C0B120C5DAD267F064C
:100AB0001238B87F0480357D05120C0B120C5DAD29
:100AC000267F071238B87F0580227D06120C1FADE5
:100AD00025AC241236D9E4FD7F041238B812237AEB
:100AE00064014E70057F03122A337F06123B058096
:100AF0007D7D07120C1FEF64014E600BE52564023B
:100B000045246003300D0A7F043002027F02122A5E
:100B10003312237A64034E60051223B970507F09A3
:100B2000122A3380497D09120C427008200B057F80
:100B300008122A331223B9700A7F043002027F029E
:100B4000122A33AD267F0A80227D0A120C427008D9
:100B5000200B057F08122A331223B9700A7F043054
:100B600002027F02122A33AD267F091238B81223FF
:100B70002F400B900056E4F0A37450F08064AF0E49
:100B8000EF122334500512388F500A74FF9000562C
:100B9000F0A3F0804D12237124FE601824F8602C1D
:100BA0000470323011081223C8FFAEF080217EFF9E
:100BB0007FFF801BC3E50D9509E50812238B5006C6
:100BC000AE0CAF0D8004AE08AF098003122BBC90B1
:100BD0000056EE8009122342FF900056E5F0F0A384
:100BE000EFF0D207123A3C301708AF26EF12233449
:100BF00050091223A2EF64184E700FC21790003FE5
:100C0000E004F0122371FF12274422E4FF1230990E
:100C1000AF25AE24123B7FAF26EF3395E0FE22E4F2
:100C2000FF123099AF25AE24123B7FAF26EF3395EC
:100C3000E0FE22AF25AE24123B7FAF26EF3395E0D6
:100C4000FE227F01123099AF25AE24123B7FE525AD
:100C50006402452422AD25AC241236D922AD25AC40
:100C6000241236D9228F2712053CFF146015146018
:100C70002814603D14603A2404705C1226AB1226DE
:100C8000F280291226ABF5827401F52C85822DE5C0
:100C900082F4F582752E0080131226ABF4F582756E
:100CA0002C0085822DEDF5827401F52E85822F8032
:100CB00026ED1226F285822FEDF5827401F5288546
:100CC0008229EF64047007EDFF7401FE8005EDF4E6
:100CD000FF7E008E2A8F2B9000011205557007EDC4
:100CE000FF7401FE8005EDF4FF7E008E308F3190A1
:100CF00000021205557007EDFF7401FE8005EDF44A
:100D0000FF7E00E527147003020DA1147003020E8C
:100D100024147003020EA724036003020F31E52898
:100D2000AB9A30E006E5294BFD8004E5295BFD8D9B
:100D30009AE52A30E00890F009122712800690F018
:100D40000912271990F009EDF0E52C30E005122783
:100D500002800690F00A12272090F00AEDF0E52EAE
:100D600030E00512270A800690F00B12272790F03A
:100D70000BEDF0EE30E005122736800890F00CE025
:100D8000FBEF5BFD90F00CEDF0E53030E005122755
:100D90002E800690F00D12273DAF0590F00DEDF07E
:100DA00022E528ABA130E006E5294BFD8004E529CA
:100DB0005BFD8DA1E52A30E00890F0191227128022
:100DC0000690F01912271990F019EDF0E52C30E09B
:100DD00005122702800690F01A12272090F01AEDD3
:100DE000F0E52E30E00512270A800690F01B12274E
:100DF0002790F01BEDF0EE30E005122736800890CA
:100E0000F01CE0FBEF5BFD90F01CEDF0E53030E016
:100E10000512272E800690F01D12273DAF0590F099
:100E20001DEDF022E528ABA230E006E5294BFD8060
:100E300004E5295BFD8DA2E52A30E00890F0291237
:100E40002712800690F02912271990F029EDF0E57D
:100E50002C30E005122702800690F02A12272090FD
:100E6000F02AEDF0E52E30E00512270A800690F01A
:100E70002B12272790F02BEDF0EE30E005122736ED
:100E8000800890F02CE0FBEF5BFD90F02CEDF0E59E
:100E90003030E00512272E800690F02D12273DAF4E
:100EA0000590F02DEDF022E528ABA330E006E52912
:100EB0004BFD8004E5295BFD8DA3E52A30E0089019
:100EC000F039122712800690F03912271990F03964
:100ED000EDF0E52C30E005122702800690F03A1282
:100EE000272090F03AEDF0E52E30E00512270A8039
:100EF0000690F03B12272790F03BEDF0EE30E00833
:100F0000A3E0FDEF4DFF800890F03CE0FDEF5DFFBA
:100F100090F03CEFF0E53030E009A3E0FDE5314D25
:100F2000FF800990F03DE0FDE5315DFF90F03DEF81
:100F3000F02275240075254078007C007D017BFF40
:100F40007A3E798E7E007F141204F4E4FFFE7DB0B9
:100F50007C40AB56AA55A954A8531202EC50030288
:100F6000114C122C9912053C600302114CC283C231
:100F700085C281D20612392CD2847F057E001224CC
:100F80008D1200477F667E667D867C40AB4EAA4D03
:100F9000A94CA84B1202EC6002500DE525152570F6
:100FA000021524122C7350D2E52545247007C28403
:100FB0007F01021149752400752564C2847F147E67
:100FC0000012248DC20612392C1200477F0A7E00BF
:100FD00012248D752600752704122C6CC333CE3372
:100FE000CED8F924FCF58274FF3EF583122C3FC065
:100FF00004C005C006C007122C6CC333CE33CED854
:10100000F9122CA0D007D006D005D0041207C8E5ED
:1010100027152770021526E527452670BCAF4EAE72
:101020004DAD4CAC4B9000001207C8900014120755
:10103000D400000000E4F526F527122C3CC004C0C3
:1010400005C006C007122C6CC333CE33CED8F912BC
:101050002C4BD007D006D005D004120055900014B8
:101060001207C80527E52770020526640545267086
:10107000C9122C3C79A07840122CAA9000141207B7
:10108000C89000181207D400000000E4F526F527E8
:10109000900018122C3FC004C005C006C007122CD7
:1010A0006CC333CE33CED8F9122C4B122C3C120029
:1010B00051E4FBFAF9F81202EC500F122C6CC33316
:1010C000CE33CED8F9122C4B801A122C6CC333CEEF
:1010D00033CED8F9122CA0122C3FE4FBFA79807899
:1010E000BF122C8D122C3C120051AB07AA06A90589
:1010F000A804D007D006D005D004120055900018DF
:101100001207C80527E527700205266405452660F5
:1011100003021090C3E525945D122C785013E4FF70
:10112000FEFD7C3F900018122C541202EC6002501D
:1011300010E525152570021524122C734003020FAB
:10114000C9E525452470057F0212000E22E5627074
:10115000047F0680411236B6D3EF9441EE6480944A
:10116000804002D20DD3EF943CEE64809480400422
:10117000D20B800DC3EF9432EE648094805002C293
:101180000B300D05200B02C20DD3EF944BEE6480A3
:10119000948040057F0702000E1236B6C3EF9429F3
:1011A000EE64809480500D90004DE064077005F06F
:1011B000FF122A331236CD7002C20C1236B6D3EFAC
:1011C0009433EE648094804004D20C8023C3EF9467
:1011D0002AEE648094805018900049E07002A3E0E9
:1011E000700E900046E0B49E07A3E0B45802C20C13
:1011F000200C0EE4900046F0A3F0900049F0A3F01C
:10120000222016030213361236B6EF24CDFFEE3439
:10121000FFAB07FAD3EB9401EA64809480407690A8
:101220000054E0FEA3E0780CCEA2E713CE13D8F86A
:101230002401FFE43EFEAD03AC021205948E248F20
:1012400025900059E0FEA3E0FFD3900057E09FEE09
:101250006480F8900056E0648098400C900059E05B
:10126000F526A3E0F527800A900056E0F526A3E0D6
:10127000F527E5272424FFE52634FAFE900049E00F
:10128000FCA3E0FDC3EF9DF527EE9CF526C31236C7
:10129000BE503D802EC3EA6480948050417C007D26
:1012A00003AF03AE021205A68E248F25900049E0FD
:1012B000FEA3E0FFC3E49FF527E49EF526D3123694
:1012C000BE400DE02525F0900049E03524F0800E69
:1012D00090004AE02527F0900049E03526F0900084
:1012E00048E014F0E0704F74FFF0D3EB9400EA6430
:1012F000809480401D900047E094A8900046E064F0
:101300008094E1500DA3E004F0702B900046E004BF
:10131000F022C3EA64809480501C900047E0945807
:10132000900046E06480941E400CA3E024FFF090FF
:101330000046E034FFF0228E2D8F2E8D2F90F692F6
:10134000E030E708E4FFFEFD7C40800312314412E8
:101350003132AC2DAD2EEC12036AC004C005C006BC
:10136000C007E4FBFA79807845AF37AE36AD35ACCF
:101370003412024FD003D002D001D0001201468FA8
:101380003B8E3A8D398C38E52F605924FA70030270
:10139000141C24FE700302147624FB70030214A1B3
:1013A00024EE6014241160030214E0853B5E853A4C
:1013B0005D85395C85385B22AC2DAD2EEC12036A5D
:1013C000A804A905AA06AB077F9A7E997D997C455A
:1013D00012024F8F338E328D318C308F5A8E598D51
:1013E000588C5722753335753248753103123119CF
:1013F0008F568E558D548C53900058E0FC12036F1D
:10140000A804A905AA06AB07AF56AE55AD54AC5318
:1014100012024F8F528E518D508C4F2275332D7585
:1014200032A67531331231198F4E8E4D8D4C8C4B47
:10143000AB56AA55A954A85312024FE4FBFA79C837
:1014400078421201468F338E328D318C301203A3D5
:101450008F61EF3395E0FED3EF9464EE6480948067
:101460004003756164AF61EF3395E0C3648094809D
:10147000506EE4F56122123110123144120051C055
:1014800004C005C006C0077D4812310B120146D0CA
:1014900003D002D001D00012312F1203A38E5F8F30
:1014A00060123110123144120051C004C005C00650
:1014B000C0077DA512310B120146D003D002D00126
:1014C000D00012312FE4FBFA797A784412014612E7
:1014D00031321203A37B007A007962121E278F4AF1
:1014E00022AF1EEF3395E0FEC3EF9404EE648094C8
:1014F000805007E4F524F5258028900059E0FEA3EC
:10150000E0FFD3900057E09FEE900056122CB09869
:1015100040068E248F25800A900056E0F524A3E033
:10152000F5251233E2D3E5259FEE6480F8E52464C7
:10153000809840071233E28E248F25900054E0FEFD
:10154000A3E0FF65257003EE6524700302166FC3E8
:10155000E5259FFFE5249EFED3EF9470EE64809412
:10156000974002D215301574D3E5259400E5246424
:101570008094804067900054E07002A3E0700C906B
:1015800000547405F0A374DCF0803B122C99120512
:101590003C24F66013047020900055E024B8F090CD
:1015A0000054E0340BF0801E900055E024F4F090DD
:1015B0000054E03401F0800E900055E02414F090C7
:1015C0000054E03400F0C3900055E09525E52490E8
:1015D0000054122CB098400EC2158003900054E5C0
:1015E00024F0A3E525F0900054E0FAA3E0FBD394A7
:1015F00000EA648094805020C2849000501207D486
:1016000000000000C216BAFF06BBFF03D38001C36F
:101610009281C283C2858055C3900055E094F490B6
:101620000054E06480948150028001C39206201629
:1016300019A206B39281D284A2069283A206B39223
:10164000857F057E0012248DD216E4FFFE3006064B
:101650007DFA7C4380047DC07C3F900054E0F52AF5
:10166000A3E0F52B121FE49000501207C8D21222FB
:1016700090001EE014B4090040030217B590168BC9
:1016800075F003A4C58325F0C583730216A6021660
:10169000B402175702175D02176B021771021791F8
:1016A0000217980217A790001CE4F0A3740EF0A391
:1016B0007402F02290001CE0FEA3E0FFD3940CEE35
:1016C0006480948040057567038023D3EF940AEE0D
:1016D0006480948040057567028013D3EF9408EE10
:1016E0006480948040057567018003E4F567122BE0
:1016F0000540030217B5AF56AE55AD54AC5390003C
:101700002C1207C8900058E0FF3395E0FEEF64020A
:101710004E701790002C122ADBFFE4FBFA79207838
:101720004112014690002C1207C890002C122ADBAF
:10173000FF1203A3AB07AA067C007D641205A6EF87
:101740004E600575670980587C007D0AAF03AE02C4
:101750001205A67D0380377D047F01803890002C20
:10176000122ADBFF122B187D0580237D067F028065
:1017700024E4FFFE7D207C4190002CE0F8A3E0F9FA
:10178000A3E0FAA3E0FB120146122B187D070238F2
:101790000A7D087F0302338A122AE6501875640C0A
:1017A00090001E7409F022E564700A123C2F400577
:1017B000E490001EF0228F27123C2F4005123C2897
:1017C0005003D38001C39207122342122383500A8D
:1017D000AC0CAD0DAE04AF0580008E288F2912230E
:1017E000C8FFC3E5299FE5F06480F8E52864809888
:1017F000500B30070812236240031223CE20050E3F
:10180000AF2712237C64014E7050D205804C30010A
:101810000A0509E509700C05088008E50915097035
:10182000021508900003122345FFAEF0D3E5099F8F
:10183000EE1223685006D2018E088F0912236140F0
:1018400005C2011223CEAF2712237C64014E60052E
:10185000123B5A5005C205750F1E123C28500D2030
:10186000000A0509E509701E0508801A123C2F5070
:101870000D20000AE50915097002150880082007E7
:1018800005300002C200123C28501020000D122327
:10189000614008750E041223CED200123C2F502551
:1018A000200022AB10AA11A9129000031205DCFF40
:1018B000AEF0D3E5099FEE1223685009750E048E31
:1018C000088F09D200300704E4F50F22AF0F12236E
:1018D0007C64204E7007050FC208122CB7229000BE
:1018E00027E0C39428748094805069E4FFFE7D7AD9
:1018F0007C44AB52AA51A950A84F1201461203A32F
:101900008F278E268D258C24900027E004F0122A44
:10191000D82527FFEE3526FEED3525FDEC3524FCD8
:101920009000231207C8122AF6C3122B27500A90E0
:10193000001FE526F0A3E527F0900021122AF9D335
:10194000122B2750030219C7900021E526F0A3E5CA
:1019500027F08073122AD8FFC004C005C006C00754
:10196000900021E0FEA3E0FBAA06EA3395E0F9F837
:10197000122AF6EF2BFBEE3AFAED39F9EC38F8D0F3
:1019800007D006D005D004C3EF9BFFEE9AFEED9979
:10199000FDEC98FC122AD2FFC006C007A3E024FE8B
:1019A000FFE434FFAB07FA3395E0F9F8D007D0062F
:1019B000123562122AD2FFEC120365122B3290000C
:1019C000281207C81239B8AF65EF3395E0FEEF640F
:1019D000784E70057565018007122B05400205657C
:1019E000122AE6400CA3E024FFF090001CE034FF34
:1019F000F0AF64EF3395E0FE122B05400215642230
:101A0000300E2590005EE0FF3395E0FEC3EF940CAE
:101A1000EE648094805005E004F0800CE490005E59
:101A2000F0C209C20A021B18E567B40A00400302AB
:101A30001B0D901A39F8282873021A57021A6F02E0
:101A40001A61021A68021A76021A76021AB2021B88
:101A50000D021AB2021AB2C207C208E4F566021BEE
:101A60000DD207D208021B0DC207D208021B0DD2ED
:101A700007C208021B0DC208E566547FFFAE67EE81
:101A800064047E0070027E03C3EE6480F8EF64801D
:101A90009850090F536680EF4266800B123C017F1D
:101AA0008060027F008F66123C01C36001D3920701
:101AB000805B53667FAF67EF64096007AF67EF64D1
:101AC0000870047F0680027F0AD3EF6480F8E56621
:101AD0006480984009C208C207E4F567802FE56674
:101AE00075F00212051AAFF0EFC36001D39206AF92
:101AF00067EF64087003C38002A2069207AF67EF26
:101B000064087004A2068001C39208056612366953
:101B1000A2079209A208920A1239DA22E54964035F
:101B20007002F549E549146042147003021BCC149D
:101B30007003021C1324036003021C10D206123B24
:101B40001BE4F528F52974B42529F582743E35285F
:101B5000F583E493FF1230FEEFF00529E5297002CA
:101B600005286406452870DE021C0BE4F528F529DB
:101B70001230FEE0FF12314D400F1231574018EF86
:101B8000941FEE64809480500E0529E529700205AB
:101B9000286406452870D9C3E5299406E5286480A1
:101BA000948050231230FEE0F52CFF3395E0FE4F79
:101BB0006006EF64064E7005C206123B1BAF2C1286
:101BC0003481754902804C75490380477530007532
:101BD000310075322C7B007A00792A1225F6EF4EFF
:101BE0006031AD2CAF2BAE2A121337E4F528F5295E
:101BF0001230FEE0B52C061230FE74FEF00529E529
:101C000029700205286406452870E575490180039E
:101C1000E4F54990003EE06009E549640360030291
:101C20001B1C22301903021CAE301A03021CAEE446
:101C3000900040F0E5636003021D28122342122346
:101C4000835065900045E0FD700404F08010ED12B3
:101C500023C19409EC648094805003021D289000F5
:101C6000457401F09000051205DCFDACF0D3E50BE6
:101C70009DEC6480F8E50A64809840068C0A8D0B20
:101C8000800B7432250BF50BE4350AF50AD31223C9
:101C9000874009122342F50D85F00C2274FA250DB8
:101CA000F50DE4350CF50C22E4900045F022E490AB
:101CB0000045F09000401223A5EF4E70037480F0B1
:101CC000900040E0547FF527301A13FF3395E0FE73
:101CD000D3EF9404EE648094804003023AB7AF27B8
:101CE000EF3395E0FED3EF9409EE648094804038A2
:101CF000D3E50D94EEE50C64809482400C740625C7
:101D00000DF50D74FF350CF50CD3E50B94BEE50A0B
:101D10006480948A400C74E7250BF50B74FF350A38
:101D2000F50A9000407480F022201606E490004FDF
:101D3000F02290004FE0FF3395E0FEC3EF9404EEF5
:101D4000648094805004E004F02290004EE0540F30
:101D5000F5247D9012390760054003D38001C392BA
:101D6000067FCD7ECC7D8C7C40AB52AA51A950A879
:101D70004F1202EC600740057F0412000E7F667E62
:101D8000667D0612390A400F7F9A7E997D997C40C4
:101D9000123921600C400A7D02123919E4F52580C0
:101DA00049E4FFFE7D807C3E12392140097DF0121E
:101DB0003907600A4008123917752501802CA21BCB
:101DC000300601B35008123917752502801CAF2464
:101DD000EF3395E0FED3EF9400EE648094804006EC
:101DE000E52414FF80027F008F24E525C454F045CC
:101DF0002490004EF0AF24EF3395E0FEC3EF94083B
:101E0000EE64809480401FE0FF7804A2E713D8FBC3
:101E1000540F24FE60070470087F0580067F098048
:101E2000027F0312000E228B3C8A3D893E8F428E38
:101E3000418D408C3F7FD57E2C7D517C00D3123963
:101E4000AD40061239A37FD822E47FE37E0AC31295
:101E5000399650061239A37F7D2274011239A4E409
:101E60007FF57EF5D31239964038E4F543F544AE5C
:101E700043E5447802C333CE33CED8F9243EF5820D
:101E8000743C3EF583120798C31239AD4006E54411
:101E900024D8FF220544E54470020543644B4543C2
:101EA00070CDE4F543F544E54425E0FFE54333FE1A
:101EB000746A2FF582743D3EF583E493FE740193BA
:101EC000FFE48F488E47F546F545E548F548E54778
:101ED000F547E4F546F545AF42AE41AD40AC3FAB0A
:101EE00048AA47A946A845D31207745006E54424DA
:101EF00023FF220544E54470020543645B454370BB
:101F0000A61239A3FF22E4F5DE90F692F090003E8F
:101F100004F0E4F549FFEFFD3395E0FCC3ED9406D2
:101F2000EC648094805015EF3395E0FC74302DF50F
:101F30008274003CF58374FEF00F80DA9000361254
:101F400007D40000000012313BF0A3F07D02121F05
:101F5000D37D027F02122DA6E47D01121FD37D03E3
:101F60007F01122DA6E4FBFDFF122DA6752403E4CC
:101F7000F525F526FB7D047F03121FC57D047F0236
:101F8000120C657B007D027F01121FC57D01E4FFFD
:101F9000120C657B007A0079247D027F03120C65A8
:101FA000C2077F03121FDC7F02121FDC7D017F034B
:101FB0001223D5C2077D037F011223D5C207E4FD9A
:101FC0007F030223D57A007924120C657B007A0006
:101FD000792422FB7F03122DA6E4FB227D0212232B
:101FE000D5C207228F298E288D278C26122C9990F6
:101FF0000009120555F53012053C6402700FAE2A37
:10200000AF2BFC7DCD1205A6EF2530F530AC2AAD07
:102010002BEC12036AAB29AA28A927A826122C6048
:10202000797A7844122CAA122C637B9D7A69795CA8
:10203000783C12024F122C63AB2FAA2EA92DA82C8C
:10204000C000C001C002C003AC30EC12036FE4FB5F
:10205000FA79C8784212024FD003D002D001D000E2
:10206000122C60C004C005C006C007E4FFFE7D7AE4
:102070007C44AB5AAA59A958A857122C8DD007D026
:1020800006D005D00412024F122C63E4FBFA79C883
:102090007842122C60E4FFFE7DC87C42AB2FAA2E52
:1020A000A92DA82C1202EC600A4008E4FFFE7DC8AE
:1020B0007C4222AF2FAE2EAD2DAC2C2212004785D4
:1020C0005F24856025D3E5259464E52464809480AD
:1020D0004010749C2525F52574FF3524F524C21C79
:1020E0008002D21CE4FBFA74A22BF582743E3AF50E
:1020F00083E493FF7E002404FDEE33FCD3E5259DAD
:10210000EC6480F8E524648098506DEF24FCFFEEC9
:1021100034FFFEC3E5259FEE6480F8E524648098D3
:10212000405674AA2BF582743E3AF583E493FF7E01
:10213000007C007D64120594900059EEF0A3123BE0
:10214000DE8005C333CE33CED8F9FF903EB3E4939F
:10215000FDEF5D7F0260027F03900058123BDE803E
:1021600005C333CE33CED8F9FF903EB2E493FDEFF2
:102170005DC36001D3921B220BBB00010AEB640814
:102180004A60030220E77F0812000E22122B0F6420
:10219000027006AC0AAD0B800FAB10AA11A9129009
:1021A00000051205DCFDACF0EC12036A122B328F35
:1021B000278E268D258C247FCD7ECC7D2C122ABFA8
:1021C00060054003C38001D3921A301A04C21980FB
:1021D0002BAF61EF3395E0FED3EF944BEE64809428
:1021E000804004D2198015AF27AE26AD25AC24124D
:1021F0002AC160054003C38001D39219123330AF66
:1022000067EF6406604BAF67EF64086044AF67EF49
:102210006409603D90004DE06003022E87122B0F91
:102220007004E564601FE56314600E14600F1460B1
:10223000102403701C7567032275670222756701FD
:10224000227567042290001EE06003021670E4F518
:102250006722E4F524F525F526FB7F0312230C7B8A
:10226000007F0212230C7F011222F67B007A007994
:10227000247D01E4FF120C657F031222F67D021219
:1022800023027D027F02122DA67D011223027D030F
:102290007F01122DA67B01E4FDFF122DA6752403FC
:1022A000E4F525752601FBFD7F03122DA67B007A40
:1022B0000079247D017F03120C65D207E4FD7F03C2
:1022C0001223D575DF4075DE60E4F5E9F5D1F5D36D
:1022D00075D50F75D4FF90F69274A0F0E4F549908F
:1022E00000361207D40000000012313BF0A3F0A327
:1022F00004F043DE80227B007A0079247D02120CF8
:1023000065227B017F03122DA67B01227A007924AE
:102310007D04120C65227FCD7ECC7D2C7C4090000C
:1023200028E0F8A3E0F9A3E0FAA3E0FB0202EC90B6
:102330000041E0FF3395E0FED3EF9400EE6480941B
:102340008022900001AB10AA11A9120205DC75F0E1
:102350000AED120805EC75F00AA42583F583E493D1
:1023600022C3E5099529E5286480F8E5086480988A
:1023700022AB10AA11A91202053CAF26EF3395E05B
:10238000FEEF22FFAEF0C3E50D9FEE6480F8E50C92
:1023900064809822E054C0F0C3ED9406EC6480940D
:1023A000802290003FE0FF3395E0FE22E0FF543FA3
:1023B000F524FD3395E0FC4D22E5256403452422F8
:1023C000FD3395E0FCC3ED229000010205DC852879
:1023D0000885290922EF14603814605F1470030225
:1023E00024652403600302248C1226D540030224B2
:1023F0008C30070EA8057401088002C333D8FC4254
:102400008022A8057401088002C333D8FCF45280EE
:10241000221226C050761226CC407130070EA80535
:102420007401088002C333D8FC429022A8057401CD
:10243000088002C333D8FCF452902212269F504CDD
:102440001226DE404730070EA8057401088002C33B
:1024500033D8FC42A022A8057401088002C333D8F7
:10246000FCF452A022ED1226A3502130070EA8053D
:102470007401088002C333D8FC42B022AF05A8071C
:102480007401088002C333D8FCF452B0228E2A8F24
:102490002BE4F530F531E52B452A70030225420582
:1024A00031E53170020530AE2AAF2BEE3395E0FDF9
:1024B000FCE47BA07A0FF9F81206338F2F8E2E8D55
:1024C0002D8C2CC006C007AE30AF31AB07AA06EA90
:1024D0003395E0F9F8D007D0061206BE8F2F8E2E66
:1024E0008D2D8C2CE47FFF7EFFFDFCAB2FAA2EA947
:1024F0002DA82CC312077450A6C374FF952FF52F77
:1025000074FF952EF52EE4952DF52DE4952CF52CE4
:10251000AF2FAE2EAD2DAC2C78081207858F8CE531
:102520002FFF8F8AC20F438810E58820E503300F04
:10253000F85388CFE531153170021530E53145305B
:1025400070CE222012030225F530141E90F129E0EE
:1025500030E0030225F590F164E030130554FEF0FD
:1025600080034401F0C212C214227DC87C42123B97
:102570006D1202EC600C400A9000501207D442C861
:102580000000E4FFFEFDFC123B701202EC500A90CA
:1025900000501207D400000000AF27AE26AD25ACD6
:1025A00024EC4D4E4FC36001D392137DFA7C45124B
:1025B0003B6D120146E4FBFA798078BF1200558F1B
:1025C000278E268D258C24E4FBFA79C878421202E6
:1025D0004F8F278E268D258C241203A3AD07AC06C2
:1025E000ECFFEF90F141F0ED90F140F0D21490F15A
:1025F00029E04401F0228B2D8A2E892FE5DF30E17E
:1026000002805090003BE004F0700690003AE00435
:10261000F0900036E0F8A3E0F9A3E0FAA3E0FBAF06
:10262000DDEFFEADDCEDFFEE3395E0FDFCEB2FFFC3
:10263000EA3EFEE93DFDE83CFC9000361207C8C3C7
:1026400090003BE0940A90003AE064809480500748
:1026500043DF02E4FEFF22900036E0FCA3E0FDA38E
:10266000E0FEA3E0FFE47B0AFAF9F812356290007D
:10267000361207C8900036A3A3E0FFA3E0AB2DAA53
:102680002EA92FCF8FF012061490003CE0AB30AA99
:1026900031A932120582E490003DF0FE7F0122ED67
:1026A000FF7E00D394067480948022EDF4F5827549
:1026B000830085832885822985832A85822BED22C4
:1026C000EDFF7E00D394077480948022C3EF9403BF
:1026D0007480948022EDD394057480948022C3EF9B
:1026E00094017480948022FBE434F0FAA80574010C
:1026F0000822F4F58275830085832C85822D8583DD
:102700002E22A3E0FBE52D4BFD22A3E0FBE52F4BA2
:10271000FD22E0FBE52B4BFD22E0FBE52B5BFD22E0
:10272000E0FBE52D5BFD22E0FBE52F5BFD22A3E056
:10273000FBE5314BFD22A3E0FBEF4BFD22E0FBE587
:10274000315BFD228F30D209123BA3753102753205
:10275000007F111227DAAF3412002E401D12003D07
:102760005018E53414F5330532E53270020531C3F3
:1027700094FCE5316480948340D7E53064017002B5
:10278000F530AF30EF6408600AEF64096005EF646C
:102790000A7011AF33EF3395E04F60058533308019
:1027A00003753004E533B530028029E532B4FC10FE
:1027B000E531B4030B7531027532007F1D1227DA43
:1027C000E53004F5347B007A007934AD32AC317FEA
:1027D000191237DBC209123BA3227B007A0079343D
:1027E000AD32AC311237DB2278FFE4F6D8FD900031
:1027F000007F007E04E4F0A3DFFCDEFA758167024F
:10280000283D022B3CE493A3F8E493A34003F68015
:1028100001F208DFF48029E493A3F85407240CC8DC
:10282000C333C4540F4420C8834004F45680014687
:10283000F6DFE4800B01020408102040809034325F
:10284000E47E019360BCA3FF543F30E509541FFEB2
:10285000E493A360010ECF54C025E060A840B8E423
:1028600093A3FAE493A3F8E493A3C8C582C8CAC5A6
:1028700083CAF0A3C8C582C8CAC583CADFE9DEE738
:1028800080BEEF14602214603C1460562403707400
:102890001226D54002806DED24801226E78002C307
:1028A00033D8FC55ACFC80601226C050051226CCF3
:1028B00050028050ED24881226E78002C333D8FCF2
:1028C00055ADFC804312269F50051226DE50028033
:1028D00033ED24901226E78002C333D8FC55AEFCBA
:1028E0008026ED1226A34002801AED2498FBE434E2
:1028F000F0FAAF05A8077401088002C333D8FC556D
:10290000AFFC8004E4FEFF22EC7003FEFF228B820A
:102910008A83E05403FF7E00227D087F021238374D
:10292000403D90005DE025E0F030A303E004F0902E
:10293000005DE0FFFD7C00F46003ED7022E4F5B67D
:10294000EDF44CD37001C3921DEFF47B0170027B58
:10295000027D037F0212327A7D087F02123A99309B
:102960001D08E51630E703751680301D27E5156450
:10297000857021120003D3EF9400EE6480948040B0
:1029800005123AD5800BE4F519F51B75180175177A
:1029900001E4F515201D13E5166484700DF516E5A8
:1029A000177004751A0122E4F51722752403E4F563
:1029B00025752601C2077D02FF1223D57B007A0010
:1029C00079247D04E4FF120C657B127D02E4FF1282
:1029D0002DA690F120E4F0A3740DF090F123740182
:1029E000F090F12A74FFF090F122E4F090F1277456
:1029F0000DF0A3F090F160E4F090F165F090F164D7
:102A0000740DF090F131741FF090F130743FF0903C
:102A1000F141E4F090F140F09000501207D4000032
:102A20000000C214C21290F166E4F090F12604F0A6
:102A3000023BC48F2A122371F52F1223C8F52E856D
:102A4000F02DE4F52BF52C903E2075F00AE52C12C4
:102A50000805E52B122356652A7046123C0BAE2B57
:102A6000AF2C7C007D0A12059474202FF9743E3E31
:102A70007510FFF5118912E52F6408700DE52A64C1
:102A8000086007AF2EAE2D1231C0E52F700AE52A7F
:102A90006006FF1227448005E490003FF0E4FEFF4B
:102AA00022052CE52C7002052BC3940BE52B6480CA
:102AB000948040937E007F01227D4C7FCD7ECC7C34
:102AC00040900028E0F8A3E0F9A3E0FAA3E0FB02BD
:102AD00002EC9000231207C8900023E0FCA3E0FD65
:102AE000A3E0FEA3E022D390001DE0940090001C20
:102AF000E0648094802290001FE0FEA3E0FFEE33AC
:102B000095E0FDFC22D3EF9400EE6480948022AB2C
:102B100010AA11A91202053C1203A37C007D0A121F
:102B200005A6AE04AF0522AB27AA26A925A8240234
:102B3000075EE4FBFA797A784402024F123B45D2F1
:102B4000071238E01235A61222521220BC12004A97
:102B50001229AB122F6412321E1235181231611273
:102B60000F32123033E490003EF043A88012004749
:102B7000122919123C3D12218C12086612114D12B5
:102B800014E11225433010E5C2101237A9123C3C63
:102B90001218DE123B91122D30122E181235E91246
:102BA0002EF6AF1EEF3395E0FEC3EF9403EE648084
:102BB000948040B9121A00121D2980B190005CE087
:102BC000B407005073902BCCF8282873022BE10235
:102BD0002BEC022C09022C0F022C2C022BEC022CC9
:102BE00032E490005BF07D0B7F0180497F02123957
:102BF000505002802190005CE0640170067D077FE8
:102C00000280327D237F06802C7D237F0380267FF8
:102C1000061239505010AB10AA11A91290000112DF
:102C200005DCFFAEF0227D077F0480097D0B7F0568
:102C30008003E4FDFF123BEAE4FEFF22900014E073
:102C4000FCA3E0FDA3E0FEA3E0FF222400F58274D4
:102C5000003EF583E0F8A3E0F9A3E0FAA3E0FB224D
:102C60001201468F2F8E2E8D2D8C2C22AE26E5271D
:102C7000780222D3E5259400E5246480948022E440
:102C8000900056F0A3F0900054F0A3F022120146F9
:102C9000A804A905AA06AB0722AB10AA11A9122203
:102CA0002400F58274003EF58322E4FBFA02024F11
:102CB0006480F8E0648022D209123BA320081CE45F
:102CC000F52AF52B742C1237947F111237DB052B64
:102CD000E52B7002052A12379F40E98508308509E7
:102CE000317F003002027F018F327A007930123753
:102CF000891234CD8F33200807E533B52F02802A9F
:102D00007B007A00792CE4FDFC7F1D1237DBE4F5B3
:102D10002AF52B74301237947F191237DB052BE517
:102D20002B7002052A12379F40E9C209123BA322E9
:102D30001223A2C3EF9418EE648094805003E00441
:102D4000F0900045122332400DEF9409EE64809418
:102D5000805003E004F0AF0FEF3395E0FEC3EF9433
:102D600020EE648094805002050FAF0EEF122334E2
:102D70004002150E12232F4003E014F0900040E0B3
:102D8000FF30E71C547FFEEF5480F0EE1223C09416
:102D90000AEC6480948050010E900040E04EF022D6
:102DA000E4900040F022EBF5826402606AE5826400
:102DB000036064E5826419605ED3E582941C7480CC
:102DC00094805053EF14601414602014602F240377
:102DD00070451226D55040ED2400802A1226C0509E
:102DE000361226CC4031ED2410800D12269F50273C
:102DF0001226DE4022ED2420F528EE800CED12266E
:102E0000A35014ED2430F528E434F0F527EB541FDB
:102E1000852882852783F0221223716069123C285D
:102E20004007E4900043F080299000431223AC70E7
:102E300007EF20E6034480F09000431223945008EB
:102E4000E020E60405248003E4F524900043E045F7
:102E500024F0123C2F4006E4900044F022900044FD
:102E60001223AC7007EF20E6034480F09000441278
:102E700023945008E020E60405248003E4F5249020
:102E80000044E04524F02290004BE0FEA3E0FFC3A5
:102E90009405EE648094805010C3EF9403EE648038
:102EA0009480504EEF04F5672290004DE0FF7E00C5
:102EB0007C007D06120594EF2405FFE43EFE9000A1
:102EC0004BE0FCA3E0FDC39FEE6480F8EC648098C7
:102ED0005020ED24FBFFEC34FFFE7C007D03120547
:102EE000A67C007D021205A6ED4C700475670122D8
:102EF0008000E4F5672290001EE0700BAB10AA1171
:102F0000A91212053C600775130075142822D3E539
:102F1000149400E513648094804009E5141514703E
:102F20004215132290F500E4F0C2061239FB4387E4
:102F300004438702123B45D2071238E0123A1C7F45
:102F4000017E0012248D122919301005C21012378B
:102F5000A9123B5A50E9D2061239FBE490003EF028
:102F600043A88022752403E4F525752601FB7D1016
:102F7000122FC27B007D20122FC27B147D047F02A2
:102F8000122DA67B157D057F02122DA6E490005E12
:102F9000F0F56790F12404F090F12C74FFF0A3F0A9
:102FA00090F1357409F090F134745FF090F137745A
:102FB00009F090F136745FF090F126E0440CF002D5
:102FC00036697A0079247F02120C65227D037F0224
:102FD000122882EF64014E7034C21DE515547FFF44
:102FE000E4F515E5177004E51B6007E4F51BF5171C
:102FF0008033EFC39405502D120003C3EF940AEE03
:1030000064809480500205197516808018D21D7551
:103010001300751428E51630E703751680E51520B2
:10302000E7037515807D087F0212397490005D7486
:10303000AAF022C219C21A1239B8AF52AE51AD501D
:10304000AC4F9000281207C8E490001EF0F524AFA2
:1030500024EF3395E0FEC3EF940AEE648094805031
:1030600007123330052480E7122B0F702BF52490C4
:103070000058E0C36480F8E52464809850107F0213
:103080001237437FA07E0012248D052480E17F90BB
:103090007E0112248D75640C228D27201909201AB7
:1030A00006E4900040F022900040E0FD3395E0FC03
:1030B000ED4C70037480F0900040E0547FF52820C0
:1030C0001A057529098003752902EF6018301A1551
:1030D000AF28EF3395E0FEC3EF9403EE6480948055
:1030E0004003023AB7D3E5296480F8E52864809864
:1030F000400B9000407480F0AF27122A33227430C6
:103100002529F58274003528F58322E4FFFE7C43EF
:10311000AB3BAA3AA939A8382275303EAB33AA3264
:10312000A931A830AF3BAE3AAD39AC3802024F12EC
:10313000024F8F378E368D358C3422E490003AF072
:10314000A3F0A322AF5AAE59AD58AC57223395E045
:10315000FEC36480948022D3EF9416EE6480948042
:1031600022E4F527D209123BA37524027525007BC2
:10317000007A007926AD25AC247F111237DBAF260B
:1031800012002E401D12003D5018E52614F52705AB
:1031900025E52570020524C394FCE524648094830E
:1031A00040CDAF27EF6408600AEF64096005EF6463
:1031B0000A7003752704AF27122A33C209023BA302
:1031C0008E308F311236CD60549000011205DCFB39
:1031D000AAF0900059E0FEA3E0FFC39BEA6480F8E8
:1031E000EE6480985004AA06AB071236A1900049FD
:1031F000E03EC364809480C3EB9531FFEA9530FED6
:10320000900049F0A3EFF0C3EE648094805007E48F
:10321000900049F0A3F0E4900046F0A3F022E4F51A
:103220000EFFEF1223C0940BEC64809480502C901E
:103230003E2012234E6402701FEF3395E0FC903E57
:103240002512234EF50A740193F50B903E211223AB
:103250004EF50C740193F50D0F80C71232D5123C58
:103260000B9000427404F0E490004DF07510FF756F
:10327000113E751220C203C20422EBD31226CE5097
:1032800053EF14601414602014602F24037045124F
:1032900026D55040ED2480802A1226C050361226B2
:1032A000CC4031ED2488800D12269F50271226DE57
:1032B0004022ED2490F528EE800CED1226A3501448
:1032C000ED2498F528E434F0F527EB5403852882A3
:1032D000852783F022D209123BA3E4F524F5257457
:1032E000262525F9E4FAFBAD25AC247F111237DB46
:1032F0000525E52570020524C39404E52464809423
:103300008040DCC209123BA37A0079261237891269
:1033100034CDEFB5290F852608852709E528C36038
:1033200001D3920222123863C202D208122CB722B1
:10333000E5631460151460291460442403704A7D09
:103340006C122ABB5043756301227F9A7E997D7966
:10335000122ABF60054003E4F563122AB9502A809F
:1033600025E4FFFE7D60122ABF60054003756301FE
:103370007F9A7E997D39122ABF500E7563032212FF
:103380002AB960054003756302228F288D299000B9
:103390001CE0B4FF0FA3E0B4FF0A123743E490002F
:1033A0001CF0A3F090001CE0FAA3E0FB7C007D047D
:1033B000FFAE021205A6D3ED9401EC648094807FE9
:1033C000004002AF288F67D3EB9400EA64809480BA
:1033D000500FE4F56790001CF0A3740AF0A3E529F0
:1033E000F022200C0A900056E0FEA3E0FF8030128D
:1033F00036A1FF900049E03EFEC3648094805003F4
:10340000E4FEFFC3900057E09FFF900056E09EFE51
:10341000C3EF94DCEE6480948550047E057FDC90DD
:103420000056E0B50608A3E0B50703C38001D392B8
:103430000E22C110C10FC111C11D41005F00C11892
:10344000C117011CFF011E04420046000042004952
:103450000000C10C410048FFC10EC10BC10DC105E8
:103460004100400041004300410041004100440050
:1034700041003F1941004500C100C10141004E001B
:1034800000AB077AFF90003DE07041EB12314D40F8
:103490003B123157400AEF941FEE64809480402C19
:1034A0009000361207D40000000012313BEBF0A36D
:1034B0007401F0EB30E40543DF80800353DF7F537A
:1034C000DEF0EB540F42DEDAFE43DF02228B348A59
:1034D0003589368F3A8E398D388C37E4F53BAB34ED
:1034E0000536E536AA357002053514F912053C6239
:1034F0003B7F08E53B30E70825E06407F53B8006A5
:10350000E53B25E0F53BDFEB783774FF1207AAECCB
:103510004D4E4F70C9AF3B22752401E4F525F526C9
:10352000FB7D037F02122DA67B007A0079247D08A3
:103530007F02120C657D087F02123A997B027D039F
:103540007F0212327A43B904751300751428900073
:103550005D74FFF0E4F515F516F518F519F51AF593
:103560001B22C2D5E830E70FB2D5E4C39BFBE49A37
:10357000FAE499F9E498F8EC30E717B2D5123598E7
:103580001206BEE4C39BFBE49AFAE499F9E498F8C6
:1035900080031206BE30D50DE4C39FFFE49EFEE417
:1035A0009DFDE49CFC22752403752501752601C24E
:1035B00081C284C283C2857D021235D77D10E4FFAB
:1035C000120C657D081235D77D20E4FF120C6512C0
:1035D0002C7FC216C215227B007A007924E4FF12E8
:1035E0000C657B007A0079242290004DE0FF7E007C
:1035F000700590004B803090004CE004F070069015
:10360000004BE004F07C007D06120594EF240FFFD0
:10361000E43EFEC390004CE09FEE6480F890004BC7
:10362000E06480984004E4F0A3F022C0E0C0F0C061
:1036300083C082C0D075D000C000C001C002C003EA
:10364000C004C005C006C007122FCC75B600D00755
:10365000D006D005D004D003D002D001D000D0D005
:10366000D082D083D0F0D0E0327F06301E027F02BD
:1036700090F145EFF07F3F301E027F5790F144EF0D
:10368000F07F06301E027F0290F147EFF07F3F305F
:103690001E027F5790F146EFF090F129E0440CF0C4
:1036A00022900046E0FEA3E0FF7C007D641205A6A8
:1036B00090004AE02F22AF4AEF3395E0FE22E52545
:1036C0009527E5266480F8E52464809822AB10AA4B
:1036D00011A912900008020555D3EF9DEC6480F803
:1036E000EE64809840028004AE04AF058E278F28D8
:1036F000E528640245277008200B057F08122A334D
:10370000E5286403452770057F09122A3322E4FF68
:10371000EFFD3395E0FCC3ED9403EC64809480509E
:1037200020EF3395E0FC74BA2DF582743E3CF583AE
:10373000E493FE90004DE0FDEEB50502C3220F803C
:10374000CFD322EF14600C14600F147010C206D295
:1037500007800AD206C2078004D206D207A20692C8
:1037600009A207920A1239DA7F147E0012248DC250
:1037700009C20A0239DA75F00AEF120805EE75F08F
:103780000AA42583F583E493227B007F037E007DDA
:10379000007C0022252BF9E4FAFBAD2BAC2A22C3D6
:1037A0009404E52A6480948022E51530E711547F63
:1037B000FFC3940550010F531580EF42158003E4B9
:1037C000F515E51630E710547FFFC3940450010F40
:1037D000531680EF421622E4F516228F35EF641956
:1037E000700512053CF5FEEDF5FCECFFEFF5FD0074
:1037F0008535FF000000000000E5FF20E0FBE53517
:1038000064117005E5FE12058222122AE65027EFA8
:103810004E700774FFF0A3F08017EF7802C333CE29
:1038200033CED8F924FFFFEE34FF90001CF0A3EF55
:10383000F090001EEDF022EF14601114601514607A
:10384000192403701CE5AC5D6017D322E5AD5D6003
:1038500010D322E5AE5D6009D322E5AF5D6002D3EF
:1038600022C322750803750920E4FFFE903E201252
:1038700037766402700D903E23123776F508740196
:1038800093F5090FBF00010EEF640B4E70DE22E5C9
:103890006364036005E4F565801CE5657005756586
:1038A000018013AF65EF3395E0FEC3EF9404EE643F
:1038B000809480500122C322A907900043E0FE5467
:1038C00080FB3395E04B700BED3395E0FCED64012C
:1038D0004C700CEE547F900043F0AF01122A33225B
:1038E000E4200706F5C853A8DF22F5CE75CB0B758B
:1038F000CADB75CD5D75CC6643A820F5C975CF8050
:10390000751F0475C89122E4FFFE7C40AB4EAA4DA2
:10391000A94CA84B0202EC7D01AF24123AED8F2492
:1039200022AB5EAA5DA95CA85B0202EC90F1417437
:1039300001F07F003006027FFF90F140EFF0123B74
:10394000C490F164E030130454FEF0224401F022EC
:10395000AB07EB3395E0FEEF25E0FDEE33FC123CC8
:10396000151205A6EB14D36480F8ED64809840022C
:10397000D322C322EF14600F1460111460132403C8
:103980007013EDF452AC22EDF452AD22EDF452AED0
:1039900022EDF452AF22FDFCAB42AA41A940A83F60
:1039A000020774E4AB3CAA3DA93E020582AB42AAE1
:1039B00041A940A83F02077490001F747FF0A374D0
:1039C000FEF0A37480F0A37402F0E4900027F0905E
:1039D00000231207D4000000002290F164E0FF30C1
:1039E00009055307FB8003430704300A055307F713
:1039F000800343070890F164EFF02230060F122293
:103A0000521229AB122F641235A6023A7AC207125B
:103A100038E0123A5B121F06123BD2227D087F0269
:103A200012397490005D74AAF0D21DE51630E703D8
:103A3000751680E51520E70375158022E5177004DB
:103A4000E51B6004E4FEFF22E51A7003FEFF22126C
:103A50000003300705E4F51AF51922E4FB7D02FFA7
:103A6000122DA6C2077D02E4FF1223D590F121E4B6
:103A7000F090F126F090F123F02290F5007409F017
:103A800090F5027419F090F50CE4F090F506743896
:103A9000F0A37405F075B98022EF14600E14600F66
:103AA0001460102403700FED42AC22ED42AD22ED04
:103AB00042AE22ED42AF22122371FF601790000741
:103AC0001205556005900042EFF0E4FF122A33E43E
:103AD000FF12274422E4F516F51AF519F517F51823
:103AE000EF64014E7F0070027F018F1B22EFFB33DA
:103AF00095E0FAC3EB9408EA648094805004EF2DBB
:103B0000FF227F0822900044E0FE5480FD3395E0C0
:103B10004D6007EE547FF0122A332253DE7F007F80
:103B2000002006027FA090F692EFF00043DE802294
:103B3000C0E075C900151FB211E51F7005751F049F
:103B4000D210D0E0325388CF5389F0438901E4F595
:103B50008CF58A75A80243A88022E5186002D3225A
:103B6000E51A6002D322E51BC36001D322E4FFFE05
:103B7000900050E0F8A3E0F9A3E0FAA3E0FB22EF05
:103B800064014E700B200405123C284003123AB722
:103B900022123C15D3EF9400EE648094804003E041
:103BA00014F022300907C2AF0075FBAA2275FB553D
:103BB00000D2AF222018037F002290005FE0FFE4D4
:103BC000F0C2182290F1297401F090F129E020E070
:103BD000F922122C7FC281C284C283C28522EFF0F7
:103BE000AF037E007401A807082290005BE0700517
:103BF000EDF0A3EFF022E5187002C322E4F518D32C
:103C000022E5665480FF3395E04F22E490005CF09B
:103C100090005BF02290005BE0FF3395E0FE229085
:103C2000001EE0700204F022E517C36001D322E514
:103C30001BC36001D3225388EFD20F3222220051DE
:103C40002CD5004B18690045845700406521003B86
:103C5000B06200375CB60033619B002FB760002C68
:103C6000570700293A3D00265B410023B4DC0021C0
:103C7000424D001EFF45001CE7D5001AF8690019E7
:103C80002DBE001784DA0015FB0600148DC7001343
:103C90003ADA0012002B0010DBD6000FCC1E000E0B
:103CA000CF6C000DE44B000D0965000C3D80000B4E
:103CB0007F7C000ACE50000A290700098EC3000845
:103CC000FEB50008781F0007FA52000784AE00070F
:103CD000169D0006AF9700064F1C0005F4B80005BE
:103CE0009FFE0005508B000506020004C00D000475
:103CF0007E5D000440A9000406AC0003D027000349
:103D00009CE100036CA100033F3700031472000222
:103D1000EC280002C62F0002A2630002809F00026E
:103D200060C3000242B10002264C00020B7B00017E
:103D3000F2230001DA2E0001C3870001AE19000151
:103D400099D2000186A0000174720001633A00015B
:103D500052EA00014372000134C8000126DF00016D
:103D600019AC00010D2500010141F5F5EB3AE10721
:103D7000D755CE1DC558BD00B50EAD7FA64C9F7062
:103D800098E792AC8CBB871181AA7C82779772E40A
:103D90006E676A1E6606621C5E5F5ACB575F5419D7
:103DA00050F84DF84B1A485A45B8433340C83E774F
:103DB0003C3E3A1D3812361D343B326D30B22F086E
:103DC0002D6F2BE62A6C290127A42655251323DD08
:103DD00022B22193207F1F751E751D7E1C901BAC87
:103DE0001ACF19FB192E186917AA16F31642159740
:103DF00014F2145313B913251296120C11861105DF
:103E0000108810100F9B0F2B0EBE0E550DEF0D8C52
:103E10000D2D0CD10C780C210BCE0B7D0B2E0AE353
:103E2000000000000000000100640100000000002C
:103E30000000006403000F00000AF00000320403D9
:103E4000E800000B540100450507D000000BB80145
:103E50000056060FA000000BEA010160071F40009A
:103E6000000C1C0101660859D800000C8000016A92
:103E7000092EE000000BB8000169021F4003E80CA6
:103E80001C0001450A2EE000000BB800016900008B
:103E90000000000000000000000000000000000022
:103EA0000000524B44382F21180F91B464E6E67895
:0D3EB000B464070F1F0D080E000605030483
:00000001FF
