:10000000022810AF19EF3395E0FE22023D7B9000ED
:100010004DEFF0AB10AA11A9121205646401600A39
:100020007F0112276C7F01122A5B22023C75EF339D
:1000300095E0FEC3EF9403EE6480948022E51C25D6
:10004000E0F51C90F501E022021B44023709E4FFB1
:10005000FE7C40AB4EAA4DA94CA84B0203147D0177
:10006000AF24123C328F2422AB5EAA5DA95CA85B50
:10007000020314023A18020437E86480F8E933E80E
:100080003360110460F0ED33EC337009E8FCE9FDF6
:10009000EAFEEBFF220460DED3EB9FEA9EE99DE8D7
:1000A000C2E78CF0C2F795F0400CE8CCF8E9CDF946
:1000B000EACEFAEBCFFB12040285D0F058047003AD
:1000C00020D5B3E80470075002B2D502044192D59E
:1000D000EC0460F7E4CCC0E0C398F8603B9418608F
:1000E00008400DD0E0FB020419E4FBFAC9FC8028AB
:1000F000E830E406E4C9FBE4CAFCE830E305E4C9FF
:10010000CACBFCE854076010F8C3E913F9EA13FA04
:10011000EB13FBEC13FCD8F130F52FC3E49CFCEFA0
:100120009BFFEE9AFEED99FDD0E0FBEF4E4D4C703B
:100130001222DB0302043EEC2CFCEF33FFEE33FE15
:10014000ED33FDED30E7EB020419EF2BFFEE3AFE45
:10015000ED39FDD0E0FB50130BBB0003020441ED71
:1001600013FDEE13FEEF13FFEC13FC020419EC4D2C
:100170006011E8497017ED33EC3304600DE4FCFFC7
:10018000FEFD22E933E8330470F80204371204025A
:1001900058046009E4CC2481500628500902044127
:1001A00028400302043EC0E0EB4A7044B98006D008
:1001B000E0FB02042DEF4E701CBD8008EBFFEAFE51
:1001C000E9FD80EBE98DF0A4FEE5F0020257E9CDF0
:1001D000F9EAFEEBFFEF89F0A4FCE5F0CE89F0A48C
:1001E0002EFFE435F0CD89F0A42DFEE435F08067D4
:1001F000EF4E7005BD80D780C3EF8BF0A4ACF0EE5E
:100200008BF0A42CFCE435F0F8EF8AF0A42CE5F098
:1002100038FCE433CB8DF0A42CFCE5F03BF8EE8AFF
:10022000F0A42CFCE5F038F8E433CF89F0A42CFCE2
:10023000E5F038CF3400CE89F0A42FFFE5F03EFE84
:10024000E433C98DF0A42EFEE5F039CD8AF0A42F59
:10025000FFE5F03EFEE43DFD33D0E0FB50070BBB75
:10026000000F020441EC2CFCEF33FFEE33FEED33C4
:10027000FD020419020441EC5D046005E8590470B4
:1002800003020437120402580460F6EC4860F2ECF2
:100290007004FDFEFF22C860DB2481C85009C398AA
:1002A0006002500602043E9850CAF582E9294B4A82
:1002B0007005AB8202042D75F0007C1A7880C3EFC4
:1002C0009BEE9AED99400DC3EF9BFFEE9AFEED99E0
:1002D000FDE842F0DC23ACF0D0E0FFD0E0FED0E05F
:1002E000FDAB8220E7101BEB60BAEC2CFCEF33FF78
:1002F000EE33FEED33FD020419E803F830E705C0E4
:10030000F075F000EF2FFFEE33FEED33FD40B83017
:10031000E7C280AA74F8CC6480CCC86480C8F58237
:1003200004604FC3EB9FF5F0EA9E42F0E99D42F076
:10033000E89C45F0603C501DE5825FFFE582D313E9
:10034000CB5BCBF42B5582FB50280ABA002409B9A9
:10035000002008801DE5825BFBE582D313CF5FCFD1
:10036000F4C3132F5582FF50090EBE00050DBD00CA
:10037000010CC3EB9FF5F0EA9E42F0E99D42F0E8E4
:100380009C45F06007CC4820E701B3EC2275F020D3
:10039000800E75F010800575F0087D007E007F00EE
:1003A0003392D530D503120778EC334010EF33FF8A
:1003B000EE33FEED33FDEC33FCD5F0ED22E5F02419
:1003C0007EA2D513CC92E7CDCEFF22EDD2E7CD337E
:1003D000EC3392D524814006E4FFFEFDFC22FCE4D0
:1003E000CFCECDCC24E0501174FF80EDC3CC13CC24
:1003F000CD13CDCE13CECF13CF0470F030D5DE02A7
:100400000778E9D2E7C933E833F892D5EDD2E7CDE2
:1004100033EC33FC5002B2D522EC30E7100FBF00B2
:100420000C0EBE00080DBD00040BEB6014A2D5EB52
:1004300013FCED92E7FD2274FFFCFDFEFF22E48039
:10044000F8A2D574FF13FC7D80E480EFE709F6087D
:10045000DFFA8046E709F208DFFA803E88828C8363
:10046000E709F0A3DFFA8032E309F608DFFA8078C3
:10047000E309F208DFFA807088828C83E309F0A335
:10048000DFFA806489828A83E0A3F608DFFA805865
:1004900089828A83E0A3F208DFFA804C80D280FA56
:1004A00080C680D4806980F28033801080A680EA84
:1004B000809A80A880DA80E280CA803389828A8329
:1004C000ECFAE493A3C8C582C8CCC583CCF0A3C81A
:1004D000C582C8CCC583CCDFE9DEE7800D89828A7E
:1004E00083E493A3F608DFF9ECFAA9F0EDFB228987
:1004F000828A83ECFAE0A3C8C582C8CCC583CCF05D
:10050000A3C8C582C8CCC583CCDFEADEE880DB891E
:10051000828A83E493A3F208DFF980CC88F0EF604D
:10052000010E4E60C388F0ED2402B4040050B9F50A
:1005300082EB2402B4040050AF23234582239004AD
:100540009C73C2D530F707B2D563F0FF05F030E7F2
:100550000CB2D5F4048463F0FF05F080018430D53B
:1005600002F40422BB010689828A83E0225002E75A
:1005700022BBFE02E32289828A83E49322BB010C20
:10058000E58229F582E5833AF583E0225006E925E4
:1005900082F8E622BBFE06E92582F8E222E58229FE
:1005A000F582E5833AF583E49322BB010689828ACA
:1005B00083F0225002F722BBFE01F322EF8DF0A45C
:1005C000A8F0CF8CF0A428CE8DF0A42EFE22C2D5A8
:1005D000EC30E709B2D5E4C39DFDE49CFCEE30E7C6
:1005E00015B2D5E4C39FFFE49EFE120839C3E49D13
:1005F000FDE49CFC800312083930D507C3E49FFF5B
:10060000E49EFE22BB0110E58229F582E5833AF5DE
:1006100083E0F5F0A3E0225009E92582F886F0088E
:10062000E622BBFE0AE92582F8E2F5F008E222E5BF
:10063000832AF583E993F5F0A3E99322BB010A89A4
:10064000828A83F0E5F0A3F0225006F709A7F0199B
:1006500022BBFE06F3E5F009F31922E88FF0A4CCE3
:100660008BF0A42CFCE98EF0A42CFC8AF0EDA42CD9
:10067000FCEA8EF0A4CDA8F08BF0A42DCC3825F0A8
:10068000FDE98FF0A42CCD35F0FCEB8EF0A4FEA993
:10069000F0EB8FF0A4CFC5F02ECD39FEE43CFCEAA0
:1006A000A42DCE35F0FDE43CFC2275F008758200E7
:1006B000EF2FFFEE33FECD33CDCC33CCC58233C527
:1006C000829BED9AEC99E58298400CF582EE9BFEB8
:1006D000ED9AFDEC99FC0FD5F0D6E4CEFBE4CDFA13
:1006E000E4CCF9A88222B800C1B90059BA002DECB7
:1006F0008BF084CFCECDFCE5F0CBF97818EF2FFF4F
:10070000EE33FEED33FDEC33FCEB33FB10D70399F6
:100710004004EB99FB0FD8E5E4F9FA227818EF2FA3
:10072000FFEE33FEED33FDEC33FCC933C910D705C2
:100730009BE99A4007EC9BFCE99AF90FD8E0E4C9E1
:10074000FAE4CCFB2275F010EF2FFFEE33FEED3311
:10075000FDCC33CCC833C810D7079BEC9AE899403E
:100760000AED9BFDEC9AFCE899F80FD5F0DAE4CDA0
:10077000FBE4CCFAE4C8F922C3E49FFFE49EFEE464
:100780009DFDE49CFC22EB9FF5F0EA9E42F0E99D82
:1007900042F0EC6480C864809845F022EB9FF5F04D
:1007A000EA9E42F0E99D42F0E89C45F022E8600FA5
:1007B000ECC313FCED13FDEE13FEEF13FFD8F12293
:1007C000E493FC740193FD740293FE740393FF227F
:1007D0007401FF3395E0FEFDFC080808E62FFFF6E4
:1007E00018E63EFEF618E63DFDF618E63CFCF6225D
:1007F000ECF0A3EDF0A3EEF0A3EFF022A882858346
:10080000F0D083D0821208131208131208131208B2
:1008100013E473E493A3C583C5F0C583C8C582C838
:10082000F0A3C583C5F0C583C8C582C822A42582AC
:10083000F582E5F03583F58322BC000BBE0029EF7D
:100840008DF084FFADF022E4CCF875F008EF2FFFB7
:10085000EE33FEEC33FCEE9DEC984005FCEE9DFE85
:100860000FD5F0E9E4CEFD22EDF8F5F0EE8420D2CC
:100870001CFEADF075F008EF2FFFED33FD4007983B
:100880005006D5F0F222C398FD0FD5F0EA22123CB3
:10089000F98F26123D3B9206C207123B4F8E248FE2
:1008A00025900042E06009C3940B74809480400658
:1008B0009000427404F0C21E122399B40B0040034E
:1008C000020B969008CAF82828730209040208EB64
:1008D000020A97020A30020AB8020ACC020ADF02B0
:1008E0000AF2020B19020B4D020B71C2042006031F
:1008F000020B961237EC5003020B96E490004DF079
:10090000FF02099FE525640545247011C204D33018
:100910000301C392039000417408F080183003155E
:10092000D3E5259400E524648094805005123C9F13
:100930005003756706300303020B96E525640645F0
:1009400024700DD3300401C392049000417402F06E
:10095000300427123D6D4003020B967F667E667D54
:100960004612234460094007200B047F08803012A0
:10097000233E603640347F078064E52564014524CA
:100980006004E52660267F9A7E997D3912234460B3
:1009900010400E3002047F028005900042E0FF808C
:1009A0003D12233E60044002803C8050E5256402F5
:1009B0004524702F300B0280437F667E667D461291
:1009C0002344600740057F08020B4812233E601154
:1009D000400F3002047F028005900042E0FF020BCE
:1009E0004880193006057F03020B481223E170127C
:1009F00012233E600740057F09020B487567060217
:100A00000B96E525640445247018D3300201C39287
:100A1000027F082002027F098F67C208122CDF02C2
:100A20000B96123D744003020B96123D64020B9626
:100A3000D21E7D037F011230C1AF26EF3395E0FE59
:100A4000E4FDFC1237B7E525640145247003123B31
:100A5000CA20060B1223A264014E6003020B967F8C
:100A60009A7E997D3912234460025003020B967FCF
:100A7000043002027F02122A5B1223A264014E702C
:100A800003020B96300203123974900043E0444095
:100A9000F0750E04020B962005131223A264044E77
:100AA00070057F03122A5B120C5B120C7D121C4B2B
:100AB000AF261217DE020B967D047F011230C112A1
:100AC0000C5B120C7DAD267F05020B937D04120C8E
:100AD00033120C85AD267F061239C97F0480357D1F
:100AE00005120C33120C85AD267F071239C97F051C
:100AF00080227D06120C47AD25AC241237B7E4FDE9
:100B00007F041239C91223A264014E70057F0312BB
:100B10002A5B7F06123C4A807D7D07120C47EF64FA
:100B2000014E600BE525640245246003300D0A7F09
:100B3000043002027F02122A5B1223A264034E6079
:100B4000051223E170507F09122A5B80497D09124A
:100B50000C6A7008200B057F08122A5B1223E170D3
:100B60000A7F043002027F02122A5BAD267F0A80D0
:100B7000227D0A120C6A7008200B057F08122A5B7E
:100B80001223E1700A7F043002027F02122A5BAD59
:100B9000267F091239C9122357400B900056E4F002
:100BA000A37450F08064AF0EEF12235C500512392D
:100BB000A0500A74FF900056F0A3F0804D122399C4
:100BC00024FE601824F8602C0470323011081223BF
:100BD000F0FFAEF080217EFF7FFF801BC3E50D9507
:100BE00009E5081223B35006AE0CAF0D8004AE0821
:100BF000AF098003122BE4900056EE800912236A9D
:100C0000FF900056E5F0F0A3EFF0D207123B4F3013
:100C10001708AF26EF12235C50091223CAEF64189D
:100C20004E700FC21790003FE004F0122399FF129C
:100C3000276C22E4FF1230C1AF25AE24123CC4AFB2
:100C400026EF3395E0FE22E4FF1230C1AF25AE243B
:100C5000123CC4AF26EF3395E0FE22AF25AE24123E
:100C60003CC4AF26EF3395E0FE227F011230C1AFC6
:100C700025AE24123CC4E5256402452422AD25ACF2
:100C8000241237B722AD25AC241237B7228F271292
:100C90000564FF14601514602814603D14603A2444
:100CA00004705C1226D312271A80291226D3F582EB
:100CB0007401F52C85822DE582F4F582752E008075
:100CC000131226D3F4F582752C0085822DEDF58262
:100CD0007401F52E85822F8026ED12271A85822F2A
:100CE000EDF5827401F528858229EF64047007ED23
:100CF000FF7401FE8005EDF4FF7E008E2A8F2B909D
:100D0000000112057D7007EDFF7401FE8005EDF412
:100D1000FF7E008E308F3190000212057D7007ED4E
:100D2000FF7401FE8005EDF4FF7E00E527147003DB
:100D3000020DC9147003020E4C147003020ECF246E
:100D4000036003020F59E528AB9A30E006E5294B12
:100D5000FD8004E5295BFD8D9AE52A30E00890F0DE
:100D60000912273A800690F00912274190F009ED08
:100D7000F0E52C30E00512272A800690F00A1227B1
:100D80004890F00AEDF0E52E30E00512273280069B
:100D900090F00B12274F90F00BEDF0EE30E00512C3
:100DA000275E800890F00CE0FBEF5BFD90F00CED0F
:100DB000F0E53030E005122756800690F00D12273E
:100DC00065AF0590F00DEDF022E528ABA130E0060F
:100DD000E5294BFD8004E5295BFD8DA1E52A30E086
:100DE0000890F01912273A800690F01912274190C6
:100DF000F019EDF0E52C30E00512272A800690F07E
:100E00001A12274890F01AEDF0E52E30E00512276F
:100E100032800690F01B12274F90F01BEDF0EE3061
:100E2000E00512275E800890F01CE0FBEF5BFD9070
:100E3000F01CEDF0E53030E005122756800690F00A
:100E40001D122765AF0590F01DEDF022E528ABA23D
:100E500030E006E5294BFD8004E5295BFD8DA2E528
:100E60002A30E00890F02912273A800690F02912E3
:100E7000274190F029EDF0E52C30E00512272A807B
:100E80000690F02A12274890F02AEDF0E52E30E087
:100E900005122732800690F02B12274F90F02BED91
:100EA000F0EE30E00512275E800890F02CE0FBEFBA
:100EB0005BFD90F02CEDF0E53030E0051227568018
:100EC0000690F02D122765AF0590F02DEDF022E58C
:100ED00028ABA330E006E5294BFD8004E5295BFD46
:100EE0008DA3E52A30E00890F03912273A80069069
:100EF000F03912274190F039EDF0E52C30E0051281
:100F0000272A800690F03A12274890F03AEDF0E553
:100F10002E30E005122732800690F03B12274F90CA
:100F2000F03BEDF0EE30E008A3E0FDEF4DFF800870
:100F300090F03CE0FDEF5DFF90F03CEFF0E53030ED
:100F4000E009A3E0FDE5314DFF800990F03DE0FDB3
:100F5000E5315DFF90F03DEFF022752400752540EE
:100F600078007C007D017BFF7A3F79D17E007F1481
:100F700012051CE4FFFE7DB07C40AB56AA55A95477
:100F8000A8531203145003021174122CC1120564E9
:100F90006003021174C283C285C281D206123A3F35
:100FA000D2847F057E001224B51200487F667E66DB
:100FB0007D867C40AB4EAA4DA94CA84B1203146011
:100FC00002500DE525152570021524122C9B50D2D8
:100FD000E52545247007C2847F0102117175240044
:100FE000752564C2847F147E001224B5C206123AAD
:100FF0003F1200487F0A7E001224B575260075272F
:1010000004122C94C333CE33CED8F924FCF5827469
:10101000FF3EF583122C67C004C005C006C007124E
:101020002C94C333CE33CED8F9122CC8D007D006B7
:10103000D005D0041207F0E527152770021526E524
:1010400027452670BCAF4EAE4DAD4CAC4B9000006A
:101050001207F09000141207FC00000000E4F526CF
:10106000F527122C64C004C005C006C007122C94DA
:10107000C333CE33CED8F9122C73D007D006D005A7
:10108000D00412007D9000141207F00527E52770A8
:101090000205266405452670C9122C6479A07840A3
:1010A000122CD29000141207F09000181207FC00C6
:1010B000000000E4F526F527900018122C67C00404
:1010C000C005C006C007122C94C333CE33CED8F966
:1010D000122C73122C64120079E4FBFAF9F8120353
:1010E00014500F122C94C333CE33CED8F9122C7374
:1010F000801A122C94C333CE33CED8F9122CC812D6
:101100002C67E4FBFA798078BF122CB5122C64129C
:101110000079AB07AA06A905A804D007D006D00518
:10112000D00412007D9000181207F00527E5277003
:101130000205266405452660030210B8C3E5259420
:101140005D122CA05013E4FFFEFD7C3F90001812AE
:101150002C7C12031460025010E525152570021531
:1011600024122C9B4003020FF1E525452470057FD6
:101170000212000E22E56270047F0680411237944D
:10118000D3EF9441EE648094804002D20DD3EF946B
:101190003CEE648094804004D20B800DC3EF943207
:1011A000EE648094805002C20B300D05200B02C209
:1011B0000DD3EF944BEE6480948040057F070200CE
:1011C0000E123794C3EF9429EE64809480500D90F2
:1011D000004DE064077005F0FF122A5B1237AB7018
:1011E00002C20C123794D3EF9433EE6480948040A3
:1011F00004D20C8023C3EF942AEE648094805018AC
:10120000900049E07002A3E0700E900046E0B49EAA
:1012100007A3E0B45802C20C200C0EE4900046F084
:10122000A3F0900049F0A3F02220160302135E12EF
:101230003794EF24CDFFEE34FFAB07FAD3EB9401E4
:10124000EA648094804076900054E0FEA3E0780C3D
:10125000CEA2E713CE13D8F82401FFE43EFEAD037F
:10126000AC021205BC8E248F25900059E0FEA3E04D
:10127000FFD3900057E09FEE6480F8900056E06442
:101280008098400C900059E0F526A3E0F527800AED
:10129000900056E0F526A3E0F527E5272424FFE596
:1012A0002634FAFE900049E0FCA3E0FDC3EF9DF573
:1012B00027EE9CF526C312379C503D802EC3EA646E
:1012C00080948050417C007D03AF03AE021205CEB6
:1012D0008E248F25900049E0FEA3E0FFC3E49FF534
:1012E00027E49EF526D312379C400DE02525F0908B
:1012F0000049E03524F0800E90004AE02527F09068
:101300000049E03526F0900048E014F0E0704F749A
:10131000FFF0D3EB9400EA64809480401D90004776
:10132000E094A8900046E0648094E1500DA3E004AE
:10133000F0702B900046E004F022C3EA64809480B1
:10134000501C900047E09458900046E06480941E42
:10135000400CA3E024FFF0900046E034FFF0228E22
:101360002D8F2E8D2F90F692E030E708E4FFFEFDE2
:101370007C40800312316C12315AAC2DAD2EEC1230
:101380000392C004C005C006C007E4FBFA79807868
:1013900045AF37AE36AD35AC34120277D003D0024C
:1013A000D001D00012016E8F3B8E3A8D398C38E51A
:1013B0002F605924FA700302144424FE70030214AF
:1013C0009E24FB70030214C924EE601424116003F0
:1013D000021508853B5E853A5D85395C85385B2260
:1013E000AC2DAD2EEC120392A804A905AA06AB07FA
:1013F0007F9A7E997D997C451202778F338E328D4C
:10140000318C308F5A8E598D588C572275333575E3
:1014100032487531031231418F568E558D548C539D
:10142000900058E0FC120397A804A905AA06AB0790
:10143000AF56AE55AD54AC531202778F528E518DCC
:10144000508C4F2275332D7532A6753133123141D0
:101450008F4E8E4D8D4C8C4BAB56AA55A954A8532C
:10146000120277E4FBFA79C8784212016E8F338E4C
:10147000328D318C301203CB8F61EF3395E0FED388
:10148000EF9464EE648094804003756164AF61EF13
:101490003395E0C364809480506EE4F5612212318C
:1014A0003812316C120079C004C005C006C0077D37
:1014B0004812313312016ED003D002D001D0001295
:1014C00031571203CB8E5F8F6012313812316C129C
:1014D0000079C004C005C006C0077DA512313312D3
:1014E000016ED003D002D001D000123157E4FBFAD4
:1014F000797A784412016E12315A1203CB7B007A4A
:10150000007962121E4F8F4A22AF1EEF3395E0FE24
:10151000C3EF9404EE648094805007E4F524F5252D
:101520008028900059E0FEA3E0FFD3900057E09F91
:10153000EE900056122CD89840068E248F25800AF3
:10154000900056E0F524A3E0F5251234C3D3E52539
:101550009FEE6480F8E52464809840071234C38EBF
:10156000248F25900054E0FEA3E0FF65257003EE74
:1015700065247003021697C3E5259FFFE5249EFEB0
:10158000D3EF9470EE648094974002D215301574B6
:10159000D3E5259400E5246480948040679000544E
:1015A000E07002A3E0700C9000547405F0A374DCAA
:1015B000F0803B122CC112056424F66013047020E5
:1015C000900055E024B8F0900054E0340BF0801EF9
:1015D000900055E024F4F0900054E03401F0800EC7
:1015E000900055E02414F0900054E03400F0C390D3
:1015F0000055E09525E524900054122CD898400E13
:10160000C2158003900054E524F0A3E525F0900076
:1016100054E0FAA3E0FBD39400EA64809480502065
:10162000C2849000501207FC00000000C216BAFFEE
:1016300006BBFF03D38001C39281C283C28580555C
:10164000C3900055E094F4900054E064809481507D
:10165000028001C39206201619A206B39281D28499
:10166000A2069283A206B392857F057E001224B55E
:10167000D216E4FFFE3006067DFA7C4380047DC06E
:101680007C3F900054E0F52AA3E0F52B12200C904B
:1016900000501207F0D2122290001EE014B409008C
:1016A00040030217DD9016B375F003A4C58325F03F
:1016B000C583730216CE0216DC02177F021785025D
:1016C00017930217990217B90217C00217CF90009B
:1016D0001CE4F0A3740EF0A37402F02290001CE04E
:1016E000FEA3E0FFD3940CEE648094804005756700
:1016F000038023D3EF940AEE6480948040057567DD
:10170000028013D3EF9408EE6480948040057567DF
:10171000018003E4F567122B2D40030217DDAF565D
:10172000AE55AD54AC5390002C1207F0900058E029
:10173000FF3395E0FEEF64024E701790002C122BE1
:1017400003FFE4FBFA7920784112016E90002C121D
:1017500007F090002C122B03FF1203CBAB07AA0655
:101760007C007D641205CEEF4E60057567098058D8
:101770007C007D0AAF03AE021205CE7D0380377D6B
:10178000047F01803890002C122B03FF122B407D28
:101790000580237D067F028024E4FFFE7D207C41BE
:1017A00090002CE0F8A3E0F9A3E0FAA3E0FB12011B
:1017B0006E122B407D0702391B7D087F0302346BBC
:1017C000122B0E501875640C90001E7409F022E55F
:1017D00064700A123D744005E490001EF0228F27C9
:1017E000123D744005123D6D5003D38001C3920732
:1017F00012236A1223AB500AAC0CAD0DAE04AF0538
:1018000080008E288F291223F0FFC3E5299FE5F081
:101810006480F8E528648098500B30070812238A0A
:1018200040031223F620050EAF271223A464014EB5
:101830007050D205804C30010A0509E509700C058D
:10184000088008E5091509700215089000031223A5
:101850006DFFAEF0D3E5099FEE1223905006D20142
:101860008E088F091223894005C2011223F6AF2783
:101870001223A464014E6005123C9F5005C20575F9
:101880000F1E123D6D500D20000A0509E509701E5E
:101890000508801A123D74500D20000AE50915094B
:1018A000700215088008200705300002C200123DB2
:1018B0006D501020000D1223894008750E0412236C
:1018C000F6D200123D745025200022AB10AA11A9B7
:1018D00012900003120604FFAEF0D3E5099FEE124A
:1018E00023905009750E048E088F09D2003007042A
:1018F000E4F50F22AF0F1223A464204E7007050FEA
:10190000C208122CDF22900027E0C3942874809430
:10191000805069E4FFFE7D7A7C44AB52AA51A95005
:10192000A84F12016E1203CB8F278E268D258C2493
:10193000900027E004F0122B002527FFEE3526FE4D
:10194000ED3525FDEC3524FC9000231207F0122B19
:101950001EC3122B4F500A90001FE526F0A3E52767
:10196000F0900021122B21D3122B4F50030219EFBC
:10197000900021E526F0A3E527F08073122B00FFED
:10198000C004C005C006C007900021E0FEA3E0FB34
:10199000AA06EA3395E0F9F8122B1EEF2BFBEE3A7C
:1019A000FAED39F9EC38F8D007D006D005D004C3E9
:1019B000EF9BFFEE9AFEED99FDEC98FC122AFAFFE0
:1019C000C006C007A3E024FEFFE434FFAB07FA33F0
:1019D00095E0F9F8D007D006123640122AFAFFEC4B
:1019E00012038D122B5A9000281207F0123ACBAF37
:1019F00065EF3395E0FEEF64784E70057565018004
:101A000007122B2D40020565122B0E400CA3E0247B
:101A1000FFF090001CE034FFF0AF64EF3395E0FE80
:101A2000122B2D4002156422300E2590005EE0FF3F
:101A30003395E0FEC3EF940CEE648094805005E093
:101A400004F0800CE490005EF0C209C20A021B4060
:101A5000E567B40A004003021B35901A61F8282894
:101A600073021A7F021A97021A89021A90021A9EAA
:101A7000021A9E021ADA021B35021ADA021ADAC2B6
:101A800007C208E4F566021B35D207D208021B35EF
:101A9000C207D208021B35D207C208021B35C20892
:101AA000E566547FFFAE67EE64047E0070027E033D
:101AB000C3EE6480F8EF64809850090F536680EF9E
:101AC0004266800B123D467F8060027F008F661267
:101AD0003D46C36001D39207805B53667FAF67EFDB
:101AE00064096007AF67EF640870047F0680027FB7
:101AF0000AD3EF6480F8E5666480984009C208C2A2
:101B000007E4F567802FE56675F002120542AFF035
:101B1000EFC36001D39206AF67EF64087003C38020
:101B200002A2069207AF67EF64087004A206800164
:101B3000C392080566123747A2079209A208920AC3
:101B4000123AED22E54964037002F549E549146053
:101B500042147003021BF4147003021C3B24036044
:101B600003021C38D206123C60E4F528F52974F70C
:101B70002529F582743F3528F583E493FF12312639
:101B8000EFF00529E529700205286406452870DE76
:101B9000021C33E4F528F529123126E0FF123175D5
:101BA000400F12317F4018EF941FEE6480948050F4
:101BB0000E0529E529700205286406452870D9C359
:101BC000E5299406E528648094805023123126E0AC
:101BD000F52CFF3395E0FE4F6006EF64064E70056E
:101BE000C206123C60AF2C123513754902804C7549
:101BF0004903804775300075310075322C7B007ABF
:101C000000792A12261EEF4E6031AD2CAF2BAE2A82
:101C100012135FE4F528F529123126E0B52C0612DF
:101C2000312674FEF00529E5297002052864064571
:101C30002870E57549018003E4F54990003EE060B5
:101C400009E54964036003021B4422301903021CA6
:101C5000D6301A03021CD6E4900040F0E56360031E
:101C6000021D5012236A1223AB5065900045E0FD1F
:101C7000700404F08010ED1223E99409EC64809460
:101C8000805003021D509000457401F09000051231
:101C90000604FDACF0D3E50B9DEC6480F8E50A6426
:101CA000809840068C0A8D0B800B7432250BF50B47
:101CB000E4350AF50AD31223AF400912236AF50D61
:101CC00085F00C2274FA250DF50DE4350CF50C2287
:101CD000E4900045F022E4900045F090004012238B
:101CE000CDEF4E70037480F0900040E0547FF527F4
:101CF000301A13FF3395E0FED3EF9404EE64809422
:101D0000804003023BCAAF27EF3395E0FED3EF9448
:101D100009EE648094804038D3E50D94EEE50C64C0
:101D2000809482400C7406250DF50D74FF350CF57A
:101D30000CD3E50B94BEE50A6480948A400C74E7EA
:101D4000250BF50B74FF350AF50A9000407480F0FE
:101D500022201606E490004FF02290004FE0FF335F
:101D600095E0FEC3EF9404EE648094805004E00498
:101D7000F02290004EE0540FF5247D9012004E604A
:101D8000054003D38001C392067FCD7ECC7D8C7C41
:101D900040AB52AA51A950A84F1203146007400546
:101DA0007F0412000E7F667E667D06120051400F92
:101DB0007F9A7E997D997C40120068600C400A7D74
:101DC00002120060E4F5258049E4FFFE7D807C3E40
:101DD00012006840097DF012004E600A40081200AF
:101DE0005E752501802CA21B300601B3500812003D
:101DF0005E752502801CAF24EF3395E0FED3EF948F
:101E000000EE648094804006E52414FF80027F0089
:101E10008F24E525C454F0452490004EF0AF24EF04
:101E20003395E0FEC3EF9408EE64809480401FE099
:101E3000FF7804A2E713D8FB540F24FE6007047058
:101E4000087F0580067F0980027F0312000E228B27
:101E50003C8A3D893E8F428E418D408C3F7FD57EAE
:101E60002C7D517C00D3123AC04006123AB67FD87E
:101E700022E47FE37E0AC3123AA95006123AB67FE3
:101E80007D227401123AB7E47FF57EF5D3123AA9A8
:101E90004038E4F543F544AE43E5447802C333CE1D
:101EA00033CED8F92481F582743D3EF5831207C004
:101EB000C3123AC04006E54424D8FF220544E54455
:101EC00070020543644B454370CDE4F543F544E5AA
:101ED0004425E0FFE54333FE74AD2FF582743E3EAA
:101EE000F583E493FE740193FFE48F488E47F54633
:101EF000F545E548F548E547F547E4F546F545AFCE
:101F000042AE41AD40AC3FAB48AA47A946A845D335
:101F100012079C5006E5442423FF220544E5447043
:101F2000020543645B454370A6123AB6FF22E4F50E
:101F3000DE90F692F090003E04F0E4F549FFEFFDEC
:101F40003395E0FCC3ED9406EC648094805015EF6B
:101F50003395E0FC74302DF58274003CF58374FEFB
:101F6000F00F80DA9000361207FC000000001231FA
:101F700063F0A3F07D02121FFB7D027F02122DCEC3
:101F8000E47D01121FFB7D037F01122DCEE4FBFDDA
:101F9000FF122DCE752403E4F525F526FB7D047F85
:101FA00003121FED7D047F02120C8D7B007D027FEA
:101FB00001121FED7D01E4FF120C8D7B007A007988
:101FC000247D027F03120C8DC2077F031220047F41
:101FD000021220047D017F031223FDC2077D037FCF
:101FE000011223FDC207E4FD7F030223FD7A00797D
:101FF00024120C8D7B007A00792422FB7F03122DA2
:10200000CEE4FB227D021223FDC207228F298E28F7
:102010008D278C26122CC190000912057DF53012F7
:1020200005646402700FAE2AAF2BFC7DCD1205CE85
:10203000EF2530F530AC2AAD2BEC120392AB29AA78
:1020400028A927A826122C88797A7844122CD21233
:102050002C8B7B9D7A69795C783C120277122C8BF1
:10206000AB2FAA2EA92DA82CC000C001C002C0030E
:10207000AC30EC120397E4FBFA79C878421202778D
:10208000D003D002D001D000122C88C004C005C0FB
:1020900006C007E4FFFE7D7A7C44AB5AAA59A958D2
:1020A000A857122CB5D007D006D005D0041202775D
:1020B000122C8BE4FBFA79C87842122C88E4FFFEDC
:1020C0007DC87C42AB2FAA2EA92DA82C1203146028
:1020D0000A4008E4FFFE7DC87C4222AF2FAE2EAD41
:1020E0002DAC2C22120048855F24856025D3E52580
:1020F0009464E524648094804010749C2525F52523
:1021000074FF3524F524C21C8002D21CE4FBFA744F
:10211000E52BF582743F3AF583E493FF7E002404B7
:10212000FDEE33FCD3E5259DEC6480F8E524648066
:1021300098506DEF24FCFFEE34FFFEC3E5259FEEC3
:102140006480F8E524648098405674ED2BF5827421
:102150003F3AF583E493FF7E007C007D641205BC6A
:10216000900059EEF0A3123D238005C333CE33CE49
:10217000D8F9FF903FF6E493FDEF5D7F0260027FA8
:1021800003900058123D238005C333CE33CED8F9D7
:10219000FF903FF5E493FDEF5DC36001D3921B22F6
:1021A0000BBB00010AEB64084A600302210F7F08A1
:1021B00012000E22122B3764027006AC0AAD0B809F
:1021C0000FAB10AA11A912900005120604FDACF085
:1021D000EC120392122B5A8F278E268D258C247F8A
:1021E000CD7ECC7D2C122AE760054003C38001D34D
:1021F000921A301A04C219802BAF61EF3395E0FEBA
:10220000D3EF944BEE648094804004D2198015AFD4
:1022100027AE26AD25AC24122AE960054003C38011
:1022200001D39219123411AF67EF6406604BAF67A8
:10223000EF64086044AF67EF6409603D90004DE0D3
:102240006003022EAF122B377004E564601FE56354
:1022500014600E14600F1460102403701C75670363
:102260002275670222756701227567042290001E9D
:10227000E06003021698E4F56722E4F524F525F5FD
:1022800026FB7F031223347B007F021223347F015D
:1022900012231E7B007A0079247D01E4FF120C8D4D
:1022A0007F0312231E7D0212232A7D027F02122D3C
:1022B000CE7D0112232A7D037F01122DCE7B01E406
:1022C000FDFF122DCE752403E4F525752601FBFDD7
:1022D0007F03122DCE7B007A0079247D017F0312CB
:1022E0000C8DD207E4FD7F031223FD75DF4075DE00
:1022F00060E4F5E9F5D1F5D375D50F75D4FF90F607
:102300009274A0F0E4F5499000361207FC0000003A
:1023100000123163F0A3F0A304F043DE80227B00BF
:102320007A0079247D02120C8D227B017F03122D0D
:10233000CE7B01227A0079247D04120C8D227FCD80
:102340007ECC7D2C7C40900028E0F8A3E0F9A3E04F
:10235000FAA3E0FB020314900041E0FF3395E0FE96
:10236000D3EF9400EE6480948022900001AB10AA19
:1023700011A91202060475F00AED12082DEC75F091
:102380000AA42583F583E49322C3E5099529E5286A
:102390006480F8E50864809822AB10AA11A91202A3
:1023A0000564AF26EF3395E0FEEF22FFAEF0C3E504
:1023B0000D9FEE6480F8E50C64809822E054C0F034
:1023C000C3ED9406EC648094802290003FE0FF33DC
:1023D00095E0FE22E0FF543FF524FD3395E0FC4DEF
:1023E00022E5256403452422FD3395E0FCC3ED225C
:1023F00090000102060485280885290922EF14604F
:102400003814605F14700302248D240360030224D7
:10241000B41226FD40030224B430070EA80574014F
:10242000088002C333D8FC428022A80574010880CA
:1024300002C333D8FCF45280221226E850761226CA
:10244000F4407130070EA8057401088002C333D828
:10245000FC429022A8057401088002C333D8FCF422
:102460005290221226C7504C122706404730070EC2
:10247000A8057401088002C333D8FC42A022A80535
:102480007401088002C333D8FCF452A022ED122656
:10249000CB502130070EA8057401088002C333D841
:1024A000FC42B022AF05A8077401088002C333D8EC
:1024B000FCF452B0228E2A8F2BE4F530F531E52B57
:1024C000452A700302256A0531E53170020530AEF8
:1024D0002AAF2BEE3395E0FDFCE47BA07A0FF9F8F0
:1024E00012065B8F2F8E2E8D2D8C2CC006C007AE52
:1024F00030AF31AB07AA06EA3395E0F9F8D007D040
:10250000061206E68F2F8E2E8D2D8C2CE47FFF7EFB
:10251000FFFDFCAB2FAA2EA92DA82CC312079C509F
:10252000A6C374FF952FF52F74FF952EF52EE49515
:102530002DF52DE4952CF52CAF2FAE2EAD2DAC2C1A
:1025400078081207AD8F8CE52FFF8F8AC20F438862
:1025500010E58820E503300FF85388CFE5311531B9
:1025600070021530E531453070CE2220120302266C
:102570001D30141E90F129E030E00302261D90F179
:1025800064E030130554FEF080034401F0C212C22F
:1025900014227DC87C42123CB2120314600C400A23
:1025A0009000501207FC42C80000E4FFFEFDFC1240
:1025B0003CB5120314500A9000501207FC000000B2
:1025C00000AF27AE26AD25AC24EC4D4E4FC36001C5
:1025D000D392137DFA7C45123CB212016EE4FBFAF1
:1025E000798078BF12007D8F278E268D258C24E47C
:1025F000FBFA79C878421202778F278E268D258CB8
:10260000241203CBAD07AC06ECFFEF90F141F0EDE7
:1026100090F140F0D21490F129E04401F0228B2D8A
:102620008A2E892FE5DF30E102805090003BE004E4
:10263000F0700690003AE004F0900036E0F8A3E075
:10264000F9A3E0FAA3E0FBAFDDEFFEADDCEDFFEEBA
:102650003395E0FDFCEB2FFFEA3EFEE93DFDE83C53
:10266000FC9000361207F0C390003BE0940A900003
:102670003AE064809480500743DF02E4FEFF22903A
:102680000036E0FCA3E0FDA3E0FEA3E0FFE47B0A4C
:10269000FAF9F81236409000361207F0900036A38F
:1026A000A3E0FFA3E0AB2DAA2EA92FCF8FF0120637
:1026B0003C90003CE0AB30AA31A9321205AAE4906C
:1026C000003DF0FE7F0122EDFF7E00D39406748072
:1026D000948022EDF4F58275830085832885822914
:1026E00085832A85822BED22EDFF7E00D39407742B
:1026F00080948022C3EF94037480948022EDD3945D
:10270000057480948022C3EF94017480948022FB2E
:10271000E434F0FAA80574010822F4F58275830008
:1027200085832C85822D85832E22A3E0FBE52D4B0E
:10273000FD22A3E0FBE52F4BFD22E0FBE52B4BFD4B
:1027400022E0FBE52B5BFD22E0FBE52D5BFD22E0BB
:10275000FBE52F5BFD22A3E0FBE5314BFD22A3E06F
:10276000FBEF4BFD22E0FBE5315BFD228F30D20910
:10277000123CE87531027532007F11122802AF3425
:10278000123C01401D123C105018E53414F533057D
:1027900032E53270020531C394FCE53164809483E4
:1027A00040D7E53064017002F530AF30EF64086067
:1027B0000AEF64096005EF640A7011AF33EF3395D7
:1027C000E04F60058533308003753004E533B53064
:1027D000028029E532B4FC10E531B4030B753102F7
:1027E0007532007F1D122802E53004F5347B007A33
:1027F000007934AD32AC317F191238ECC209123C89
:10280000E8227B007A007934AD32AC311238EC2208
:1028100078FFE4F6D8FD9000007F007E04E4F0A38A
:10282000DFFCDEFA758167022865022B64E493A35E
:10283000F8E493A34003F68001F208DFF48029E472
:1028400093A3F85407240CC8C333C4540F4420C8BE
:10285000834004F456800146F6DFE4800B01020455
:10286000081020408090355FE47E019360BCA3FF98
:10287000543F30E509541FFEE493A360010ECF548A
:10288000C025E060A840B8E493A3FAE493A3F8E479
:1028900093A3C8C582C8CAC583CAF0A3C8C582C8E5
:1028A000CAC583CADFE9DEE780BEEF146022146088
:1028B0003C146056240370741226FD4002806DEDB6
:1028C000248012270F8002C333D8FC55ACFC8060F3
:1028D0001226E850051226F450028050ED2488128A
:1028E000270F8002C333D8FC55ADFC80431226C7A6
:1028F000500512270650028033ED249012270F80D6
:1029000002C333D8FC55AEFC8026ED1226CB400224
:10291000801AED2498FBE434F0FAAF05A80774019F
:10292000088002C333D8FC55AFFC8004E4FEFF22CC
:10293000EC7003FEFF228B828A83E05403FF7E004B
:10294000227D087F02123948403D90005DE025E07D
:10295000F030A303E004F090005DE0FFFD7C00F4A4
:102960006003ED7022E4F5B6EDF44CD37001C39230
:102970001DEFF47B0170027B027D037F02123301A5
:102980007D087F02123BAC301D08E51630E7037569
:102990001680301D27E51564857021120003D3EFE2
:1029A0009400EE648094804005123C1A800BE4F59C
:1029B00019F51B751801751701E4F515201D13E5B0
:1029C000166484700DF516E5177004751A0122E47B
:1029D000F51722752403E4F525752601C2077D024B
:1029E000FF1223FD7B007A0079247D04E4FF120CA2
:1029F0008D7B127D02E4FF122DCE90F120E4F0A336
:102A0000740DF090F1237401F090F12A74FFF090AE
:102A1000F122E4F090F127740DF0A3F090F160E45E
:102A2000F090F165F090F164740DF090F131741F45
:102A3000F090F130743FF090F141E4F090F140F00B
:102A40009000501207FC00000000C214C21290F166
:102A500066E4F090F12604F0023D098F2A122399D2
:102A6000F52F1223F0F52E85F02DE4F52BF52C90A3
:102A70003F6375F00AE52C12082DE52B12237E65C5
:102A80002A7046123D50AE2BAF2C7C007D0A1205F9
:102A9000BC74632FF9743F3E7510FFF5118912E580
:102AA0002F6408700DE52A64086007AF2EAE2D1262
:102AB0003247E52F700AE52A6006FF12276C800571
:102AC000E490003FF0E4FEFF22052CE52C700205A7
:102AD0002BC3940BE52B6480948040937E007F0190
:102AE000227D4C7FCD7ECC7C40900028E0F8A3E096
:102AF000F9A3E0FAA3E0FB0203149000231207F00D
:102B0000900023E0FCA3E0FDA3E0FEA3E022D3902D
:102B1000001DE0940090001CE064809480229000EE
:102B20001FE0FEA3E0FFEE3395E0FDFC22D3EF941F
:102B300000EE6480948022AB10AA11A912020564F1
:102B40001203CB7C007D0A1205CEAE04AF0522AB8A
:102B500027AA26A925A824020786E4FBFA797A7811
:102B600044020277123C8AD2071239F112368412DB
:102B7000227A1220E41233B71229D3122F8C123288
:102B8000A51235F61231E8120F5A12305BE49000AC
:102B90003EF043A8801200481229411238541221F5
:102BA000B412088E12117512150912256B3010E53A
:102BB000C2101238BA123189121906123CD6122DDF
:102BC00058122E401236C7122F1EAF1EEF3395E05B
:102BD000FEC3EF9403EE6480948040B9121A281269
:102BE0001D5180B190005CE0B407005073902BF44D
:102BF000F8282873022C09022C14022C31022C37DD
:102C0000022C54022C14022C5AE490005BF07D0B31
:102C10007F0180497F02123A635002802190005C5C
:102C2000E0640170067D077F0280327D237F06808D
:102C30002C7D237F0380267F06123A635010AB1051
:102C4000AA11A912900001120604FFAEF0227D071E
:102C50007F0480097D0B7F058003E4FDFF123D2F7B
:102C6000E4FEFF22900014E0FCA3E0FDA3E0FEA33D
:102C7000E0FF222400F58274003EF583E0F8A3E033
:102C8000F9A3E0FAA3E0FB2212016E8F2F8E2E8DA6
:102C90002D8C2C22AE26E527780222D3E525940040
:102CA000E5246480948022E4900056F0A3F0900024
:102CB00054F0A3F02212016EA804A905AA06AB07DE
:102CC00022AB10AA11A912222400F58274003EF54D
:102CD0008322E4FBFA0202776480F8E0648022D267
:102CE00009123CE820081CE4F52AF52B742C123854
:102CF000A57F111238EC052BE52B7002052A12383E
:102D0000B040E98508308509317F003002027F013B
:102D10008F327A00793012389A1235AB8F3320080F
:102D200007E533B52F02802A7B007A00792CE4FD79
:102D3000FC7F1D1238ECE4F52AF52B74301238A50F
:102D40007F191238EC052BE52B7002052A1238B0DA
:102D500040E9C209123CE8221223CAC3EF9418EEDC
:102D6000648094805003E004F090004512235A40A0
:102D70000DEF9409EE648094805003E004F0AF0FEF
:102D8000EF3395E0FEC3EF9420EE64809480500210
:102D9000050FAF0EEF12235C4002150E12235740B1
:102DA00003E014F0900040E0FF30E71C547FFEEF9A
:102DB0005480F0EE1223E8940AEC64809480500171
:102DC0000E900040E04EF022E4900040F022EBF53F
:102DD000826402606AE58264036064E5826419606B
:102DE0005ED3E582941C748094805053EF14601479
:102DF00014602014602F240370451226FD5040ED0E
:102E00002400802A1226E850361226F44031ED24A0
:102E100010800D1226C750271227064022ED2420CD
:102E2000F528EE800CED1226CB5014ED2430F52859
:102E3000E434F0F527EB541F852882852783F022A0
:102E40001223996069123D6D4007E4900043F080C1
:102E5000299000431223D47007EF20E6034480F04A
:102E60009000431223BC5008E020E60405248003B0
:102E7000E4F524900043E04524F0123D744006E45C
:102E8000900044F0229000441223D47007EF20E613
:102E9000034480F09000441223BC5008E020E60474
:102EA00005248003E4F524900044E04524F02290BA
:102EB000004BE0FEA3E0FFC39405EE6480948050D5
:102EC00010C3EF9403EE64809480504EEF04F567D6
:102ED0002290004DE0FF7E007C007D061205BCEFD5
:102EE0002405FFE43EFE90004BE0FCA3E0FDC39F01
:102EF000EE6480F8EC6480985020ED24FBFFEC3405
:102F0000FFFE7C007D031205CE7C007D021205CE03
:102F1000ED4C7004756701228000E4F56722900093
:102F20001EE0700BAB10AA11A912120564600775A0
:102F3000130075142822D3E5149400E513648094DB
:102F4000804009E5141514704215132290F500E431
:102F5000F0C206123B0E438704438702123C8AD21A
:102F6000071239F1123B2F7F017E001224B512297E
:102F700041301005C2101238BA123C9F50E9D206F7
:102F8000123B0EE490003EF043A88022752403E437
:102F9000F525752601FB7D10122FEA7B007D20129E
:102FA0002FEA7B147D047F02122DCE7B157D057FD9
:102FB00002122DCEE490005EF0F56790F12404F04B
:102FC00090F12C74FFF0A3F090F1357409F090F1BA
:102FD00034745FF090F1377409F090F136745FF05B
:102FE00090F126E0440CF00237477A0079247F0202
:102FF000120C8D227D037F021228AAEF64014E700D
:1030000034C21DE515547FFFE4F515E5177004E59E
:103010001B6007E4F51BF5178033EFC39405502DB3
:10302000120003C3EF940AEE6480948050020519E5
:103030007516808018D21D751300751428E516309A
:10304000E703751680E51520E7037515807D087F79
:1030500002123A8790005D74AAF022C219C21A12B5
:103060003ACBAF52AE51AD50AC4F9000281207F0A2
:10307000E490001EF0F524AF24EF3395E0FEC3EF9B
:10308000940AEE648094805007123411052480E77E
:10309000122B37702BF524900058E0C36480F8E5BC
:1030A0002464809850107F021238217FA07E001285
:1030B00024B5052480E17F907E011224B575640C4F
:1030C000228D27201909201A06E4900040F0229052
:1030D0000040E0FD3395E0FCED4C70037480F0900F
:1030E0000040E0547FF528201A05752909800375F2
:1030F0002902EF6018301A15AF28EF3395E0FEC3B0
:10310000EF9403EE648094804003023BCAD3E52928
:103110006480F8E528648098400B9000407480F04B
:10312000AF27122A5B2274302529F58274003528D6
:10313000F58322E4FFFE7C43AB3BAA3AA939A838C9
:103140002275303EAB33AA32A931A830AF3BAE3A3C
:10315000AD39AC380202771202778F378E368D3553
:103160008C3422E490003AF0A3F0A322AF5AAE5977
:10317000AD58AC57223395E0FEC36480948022D3CF
:10318000EF9416EE6480948022AB10AA11A912125B
:10319000056460046401701190F508E4F090F50096
:1031A000E0547FF0E4F51D8016AF1D12002E500490
:1031B000051D800BEF64034E7005123BE8051DAF43
:1031C0001E12002E5003051E22EF64034E701805D8
:1031D0001E90005FE0FF3395E0FED3EF9400EE64B5
:1031E0008094804002D21822E4F527D209123CE8EC
:1031F0007524027525007B007A007926AD25AC2464
:103200007F111238ECAF26123C01401D123C1050C9
:1032100018E52614F5270525E52570020524C39435
:10322000FCE5246480948340CDAF27EF6408600AF6
:10323000EF64096005EF640A7003752704AF271275
:103240002A5BC209023CE88E308F311237AB6054E2
:10325000900001120604FBAAF0900059E0FEA3E0E2
:10326000FFC39BEA6480F8EE6480985004AA06AB22
:103270000712377F900049E03EC364809480C3EB1F
:103280009531FFEA9530FE900049F0A3EFF0C3EED0
:10329000648094805007E4900049F0A3F0E490002B
:1032A00046F0A3F022E4F50EFFEF1223E8940BECB6
:1032B00064809480502C903F631223766402701FC8
:1032C000EF3395E0FC903F68122376F50A74019382
:1032D000F50B903F64122376F50C740193F50D0FF6
:1032E00080C712335C123D509000427404F0E490A9
:1032F000004DF07510FF75113F751263C203C204D3
:1033000022EBD31226F65053EF14601414602014ED
:10331000602F240370451226FD5040ED2480802A42
:103320001226E850361226F44031ED2488800D1222
:1033300026C750271227064022ED2490F528EE805C
:103340000CED1226CB5014ED2498F528E434F0F55A
:1033500027EB5403852882852783F022D209123C6B
:10336000E8E4F524F52574262525F9E4FAFBAD25D6
:10337000AC247F111238EC0525E52570020524C325
:103380009404E5246480948040DCC209123CE87A0D
:1033900000792612389A1235ABEFB5290F85260829
:1033A000852709E528C36001D3920222123974C22D
:1033B00002D208122CDF22D206123B8DE4F51E3019
:1033C0001C4E75241E90F500E04480F07F077E00BF
:1033D0001224B512003D30E702051CAF1CEFF4705B
:1033E00006D20615248018E51C541F701275241E81
:1033F00030060CD217F51C90005FE004F0C206E521
:103400002470C9301703751E0390F500E0547FF057
:1034100022E5631460151460291460442403704A83
:103420007D6C122AE35043756301227F9A7E997D59
:1034300079122AE760054003E4F563122AE1502A75
:103440008025E4FFFE7D60122AE760054003756376
:10345000017F9A7E997D39122AE7500E7563032207
:10346000122AE160054003756302228F288D29909E
:10347000001CE0B4FF0FA3E0B4FF0A123821E4906F
:10348000001CF0A3F090001CE0FAA3E0FB7C007DA0
:1034900004FFAE021205CED3ED9401EC648094805B
:1034A0007F004002AF288F67D3EB9400EA648094DA
:1034B00080500FE4F56790001CF0A3740AF0A3E5B8
:1034C00029F022200C0A900056E0FEA3E0FF803095
:1034D00012377FFF900049E03EFEC3648094805025
:1034E00003E4FEFFC3900057E09FFF900056E09E6C
:1034F000FEC3EF94DCEE6480948550047E057FDC8F
:10350000900056E0B50608A3E0B50703C38001D3D9
:10351000920E22AB077AFF90003DE07041EB123132
:1035200075403B12317F400AEF941FEE6480948017
:10353000402C9000361207FC00000000123163EBB3
:10354000F0A37401F0EB30E40543DF80800353DF28
:103550007F53DEF0EB540F42DEDAFE43DF0222C17E
:1035600010C10FC111C11D41005F00C118C1170179
:103570001CFF42004600004200490000C10C41000F
:1035800048FFC10EC10BC10DC10541004000410003
:103590004300410041004100440041003F19410007
:1035A0004500C100C10141004E00008B348A3589BD
:1035B000368F3A8E398D388C37E4F53BAB3405368F
:1035C000E536AA357002053514F9120564623B7FB1
:1035D00008E53B30E70825E06407F53B8006E53B5E
:1035E00025E0F53BDFEB783774FF1207D2EC4D4E48
:1035F0004F70C9AF3B22752401E4F525F526FB7D0C
:10360000037F02122DCE7B007A0079247D087F0291
:10361000120C8D7D087F02123BAC7B027D037F0282
:1036200012330143B90475130075142890005D74BA
:10363000FFF0E4F515F516F518F519F51AF51B2246
:10364000C2D5E830E70FB2D5E4C39BFBE49AFAE4B5
:1036500099F9E498F8EC30E717B2D51236761206ED
:10366000E6E4C39BFBE49AFAE499F9E498F8800352
:103670001206E630D50DE4C39FFFE49EFEE49DFDF7
:10368000E49CFC22752403752501752601C281C2C4
:1036900084C283C2857D021236B57D10E4FF120C10
:1036A0008D7D081236B57D20E4FF120C8D122CA7FB
:1036B000C216C215227B007A007924E4FF120C8D19
:1036C0007B007A0079242290004DE0FF7E00700597
:1036D00090004B803090004CE004F0700690004B5E
:1036E000E004F07C007D061205BCEF240FFFE43EF1
:1036F000FEC390004CE09FEE6480F890004BE064C5
:1037000080984004E4F0A3F022C0E0C0F0C083C081
:1037100082C0D075D000C000C001C002C003C00488
:10372000C005C006C007122FF475B600D007D0063A
:10373000D005D004D003D002D001D000D0D0D082A8
:10374000D083D0F0D0E0327F06301E027F0290F1AD
:1037500045EFF07F3F301E027F5790F144EFF07F3E
:1037600006301E027F0290F147EFF07F3F301E02CD
:103770007F5790F146EFF090F129E0440CF0229051
:103780000046E0FEA3E0FF7C007D641205CE9000C1
:103790004AE02F22AF4AEF3395E0FE22E525952738
:1037A000E5266480F8E52464809822AB10AA11A96C
:1037B0001290000802057DD3EF9DEC6480F8EE6462
:1037C000809840028004AE04AF058E278F28E5283C
:1037D000640245277008200B057F08122A5BE52844
:1037E0006403452770057F09122A5B22E4FFEFFD81
:1037F0003395E0FCC3ED9403EC648094805020EF9B
:103800003395E0FC74FD2DF582743F3CF583E49321
:10381000FE90004DE0FDEEB50502C3220F80CFD330
:1038200022EF14600C14600F147010C206D20780CF
:103830000AD206C2078004D206D207A2069209A2C3
:1038400007920A123AED7F147E001224B5C209C213
:103850000A023AED90F500E030E72BE51C70277F77
:10386000057E001224B512003D30E702051CAF1C96
:10387000EFF470EB90F166F090F12604F090005FA9
:10388000E004F0E4F51E2275F00AEF12082DEE7543
:10389000F00AA42583F583E493227B007F037E0056
:1038A0007D007C0022252BF9E4FAFBAD2BAC2A220B
:1038B000C39404E52A6480948022E51530E711540E
:1038C0007FFFC3940550010F531580EF421580030D
:1038D000E4F515E51630E710547FFFC3940450015A
:1038E0000F531680EF421622E4F516228F35EF644F
:1038F000197005120564F5FEEDF5FCECFFEFF5FD22
:10390000008535FF000000000000E5FF20E0FBE53A
:103910003564117005E5FE1205AA22122B0E502700
:10392000EF4E700774FFF0A3F08017EF7802C333F7
:10393000CE33CED8F924FFFFEE34FF90001CF0A365
:10394000EFF090001EEDF022EF14601114601514DA
:1039500060192403701CE5AC5D6017D322E5AD5DF2
:103960006010D322E5AE5D6009D322E5AF5D600251
:10397000D322C322750803750920E4FFFE903F633C
:103980001238876402700D903F66123887F508740C
:103990000193F5090FBF00010EEF640B4E70DE229C
:1039A000E56364036005E4F565801CE565700575F5
:1039B00065018013AF65EF3395E0FEC3EF9404EE2D
:1039C00064809480500122C322A907900043E0FE46
:1039D0005480FB3395E04B700BED3395E0FCED64C8
:1039E000014C700CEE547F900043F0AF01122A5B43
:1039F00022E4200706F5C853A8DF22F5CE75CB0BCD
:103A000075CADB75CD5D75CC6643A820F5C975CF49
:103A100080751F0475C89122C0E0C083C0825380A6
:103A2000DF5380F75380FD5380EF53A0EF53A0DFA7
:103A3000751C0090F509E4F0D082D083D0E032907C
:103A4000F1417401F07F003006027FFF90F140EFFA
:103A5000F0123D0990F164E030130454FEF022446A
:103A600001F022AB07EB3395E0FEEF25E0FDEE33EE
:103A7000FC123D5A1205CEEB14D36480F8ED64803D
:103A8000984002D322C322EF14600F146011146017
:103A90001324037013EDF452AC22EDF452AD22ED79
:103AA000F452AE22EDF452AF22FDFCAB42AA41A982
:103AB00040A83F02079CE4AB3CAA3DA93E0205AAF0
:103AC000AB42AA41A940A83F02079C90001F747F07
:103AD000F0A374FEF0A37480F0A37402F0E49000ED
:103AE00027F09000231207FC000000002290F164F0
:103AF000E0FF3009055307FB8003430704300A0544
:103B00005307F7800343070890F164EFF022300673
:103B10000F12227A1229D3122F8C123684023B8D77
:103B2000C2071239F1123B6E121F2E123D17227D71
:103B3000087F02123A8790005D74AAF0D21DE51644
:103B400030E703751680E51520E70375158022E53B
:103B5000177004E51B6004E4FEFF22E51A7003FE03
:103B6000FF22120003300705E4F51AF51922E4FBE1
:103B70007D02FF122DCEC2077D02E4FF1223FD90CD
:103B8000F121E4F090F126F090F123F02290F5007D
:103B90007409F090F5027419F090F50CE4F090F5CA
:103BA000067438F0A37405F075B98022EF14600E26
:103BB00014600F1460102403700FED42AC22ED422C
:103BC000AD22ED42AE22ED42AF22122399FF6017E3
:103BD00090000712057D6005900042EFF0E4FF12AF
:103BE0002A5BE4FF12276C2290F500E04480F07F0E
:103BF000147E001224B590F509E4F090F50804F065
:103C000022EF3395E0FEC3EF9401EE6480948022AE
:103C1000D3EF940BEE6480948022E4F516F51AF548
:103C200019F517F518EF64014E7F0070027F018FC0
:103C30001B22EFFB3395E0FAC3EB9408EA6480940F
:103C4000805004EF2DFF227F0822900044E0FE54B4
:103C500080FD3395E04D6007EE547FF0122A5B2221
:103C600053DE7F007F002006027FA090F692EFF0E7
:103C70000043DE8022C0E075C900151FB211E51FA8
:103C80007005751F04D210D0E0325388CF5389F0ED
:103C9000438901E4F58CF58A75A80243A88022E5E2
:103CA000186002D322E51A6002D322E51BC360012B
:103CB000D322E4FFFE900050E0F8A3E0F9A3E0FA7D
:103CC000A3E0FB22EF64014E700B200405123D6D52
:103CD0004003123BCA22123D5AD3EF9400EE648097
:103CE00094804003E014F022300907C2AF0075FB56
:103CF000AA2275FB5500D2AF222018037F00229024
:103D0000005FE0FFE4F0C2182290F1297401F09006
:103D1000F129E020E0F922122CA7C281C284C283DB
:103D2000C28522EFF0AF037E007401A8070822903D
:103D3000005BE07005EDF0A3EFF022E5187002C320
:103D400022E4F518D322E5665480FF3395E04F2234
:103D5000E490005CF090005BF02290005BE0FF33A9
:103D600095E0FE2290001EE0700204F022E517C3E9
:103D70006001D322E51BC36001D3225388EFD20F29
:103D80003200512CD5004B1869004584570040651E
:103D900021003BB06200375CB60033619B002FB757
:103DA00060002C570700293A3D00265B410023B4F0
:103DB000DC0021424D001EFF45001CE7D5001AF82B
:103DC0006900192DBE001784DA0015FB0600148D5A
:103DD000C700133ADA0012002B0010DBD6000FCC1C
:103DE0001E000ECF6C000DE44B000D0965000C3D6C
:103DF00080000B7F7C000ACE50000A290700098E44
:103E0000C30008FEB50008781F0007FA52000784B7
:103E1000AE0007169D0006AF9700064F1C0005F484
:103E2000B800059FFE0005508B000506020004C087
:103E30000D00047E5D000440A9000406AC0003D020
:103E40002700039CE100036CA100033F370003142B
:103E5000720002EC280002C62F0002A2630002805A
:103E60009F000260C3000242B10002264C00020B18
:103E70007B0001F2230001DA2E0001C3870001AEAE
:103E800019000199D2000186A0000174720001633B
:103E90003A000152EA00014372000134C8000126D1
:103EA000DF000119AC00010D2500010141F5F5EB22
:103EB0003AE107D755CE1DC558BD00B50EAD7FA65A
:103EC0004C9F7098E792AC8CBB871181AA7C82775B
:103ED0009772E46E676A1E6606621C5E5F5ACB5775
:103EE0005F541950F84DF84B1A485A45B8433340BF
:103EF000C83E773C3E3A1D3812361D343B326D3099
:103F0000B22F082D6F2BE62A6C290127A4265525F0
:103F10001323DD22B22193207F1F751E751D7E1C89
:103F2000901BAC1ACF19FB192E186917AA16F31695
:103F300042159714F2145313B913251296120C114B
:103F4000861105108810100F9B0F2B0EBE0E550DFD
:103F5000EF0D8C0D2D0CD10C780C210BCE0B7D0BA5
:103F60002E0AE300000000000000010064010000D0
:103F70000000000000006403000F00000AF00000D1
:103F8000320403E800000B540100450507D000008F
:103F90000BB8010056060FA000000BEA01016007F4
:103FA0001F4000000C1C0101660859D800000C805D
:103FB00000016A092EE000000BB8000169021F40F1
:103FC00003E80C1C0001450A2EE000000BB80001BC
:103FD0006900000000000000000000000000000078
:103FE0000000000000524B44382F21180F91B46498
:103FF000E6E678B464070F1F0D080E0006050304FB
:00000001FF
