:0A000000022571E517C36001D32249
:10000B00023D70900048EFF0AB10AA11A912120537
:10001B00646401600A7F0112320A7F0112294B22AC
:10002B00023C6DD20D123CDF7B007A007924122E3C
:10003B00AFE4FDAF241236BA12294BC20D023CDFDE
:10004B000235CEE4FFFE7C40AB4CAA4BA94AA84933
:10005B000203147D01AF24123C2A8F2422AB5CAA2D
:10006B005BA95AA85902031402399F020437E864AA
:10007B0080F8E933E83360110460F0ED33EC337052
:10008B0009E8FCE9FDEAFEEBFF220460DED3EB9FFF
:10009B00EA9EE99DE8C2E78CF0C2F795F0400CE8C8
:1000AB00CCF8E9CDF9EACEFAEBCFFB12040285D0FE
:1000BB00F05804700320D5B3E80470075002B2D592
:1000CB0002044192D5EC0460F7E4CCC0E0C398F88D
:1000DB00603B94186008400DD0E0FB020419E4FB70
:1000EB00FAC9FC8028E830E406E4C9FBE4CAFCE862
:1000FB0030E305E4C9CACBFCE854076010F8C3E948
:10010B0013F9EA13FAEB13FBEC13FCD8F130F52FD0
:10011B00C3E49CFCEF9BFFEE9AFEED99FDD0E0FB58
:10012B00EF4E4D4C701222DB0302043EEC2CFCEF25
:10013B0033FFEE33FEED33FDED30E7EB020419EF49
:10014B002BFFEE3AFEED39FDD0E0FB50130BBB005D
:10015B0003020441ED13FDEE13FEEF13FFEC13FC52
:10016B00020419EC4D6011E8497017ED33EC3304C0
:10017B00600DE4FCFFFEFD22E933E8330470F80266
:10018B00043712040258046009E4CC248150062879
:10019B00500902044128400302043EC0E0EB4A70C0
:1001AB0044B98006D0E0FB02042DEF4E701CBD80DD
:1001BB0008EBFFEAFEE9FD80EBE98DF0A4FEE5F02C
:1001CB00020257E9CDF9EAFEEBFFEF89F0A4FCE55B
:1001DB00F0CE89F0A42EFFE435F0CD89F0A42DFEEE
:1001EB00E435F08067EF4E7005BD80D780C3EF8B91
:1001FB00F0A4ACF0EE8BF0A42CFCE435F0F8EF8A15
:10020B00F0A42CE5F038FCE433CB8DF0A42CFCE50A
:10021B00F03BF8EE8AF0A42CFCE5F038F8E433CF91
:10022B0089F0A42CFCE5F038CF3400CE89F0A42F54
:10023B00FFE5F03EFEE433C98DF0A42EFEE5F03968
:10024B00CD8AF0A42FFFE5F03EFEE43DFD33D0E078
:10025B00FB50070BBB000F020441EC2CFCEF33FFF0
:10026B00EE33FEED33FD020419020441EC5D046034
:10027B0005E859047003020437120402580460F6AF
:10028B00EC4860F2EC7004FDFEFF22C860DB2481B9
:10029B00C85009C3986002500602043E9850CAF534
:1002AB0082E9294B4A7005AB8202042D75F0007C64
:1002BB001A7880C3EF9BEE9AED99400DC3EF9BFF2D
:1002CB00EE9AFEED99FDE842F0DC23ACF0D0E0FFB6
:1002DB00D0E0FED0E0FDAB8220E7101BEB60BAEC68
:1002EB002CFCEF33FFEE33FEED33FD020419E80374
:1002FB00F830E705C0F075F000EF2FFFEE33FEEDA1
:10030B0033FD40B830E7C280AA74F8CC6480CCC807
:10031B006480C8F58204604FC3EB9FF5F0EA9E4200
:10032B00F0E99D42F0E89C45F0603C501DE5825F92
:10033B00FFE582D313CB5BCBF42B5582FB50280A02
:10034B00BA002409B9002008801DE5825BFBE58219
:10035B00D313CF5FCFF4C3132F5582FF50090EBEBB
:10036B0000050DBD00010CC3EB9FF5F0EA9E42F0BA
:10037B00E99D42F0E89C45F06007CC4820E701B3CB
:10038B00EC2275F020800E75F010800575F0087D5D
:10039B00007E007F003392D530D503120778EC3303
:1003AB004010EF33FFEE33FEED33FDEC33FCD5F0B5
:1003BB00ED22E5F0247EA2D513CC92E7CDCEFF2221
:1003CB00EDD2E7CD33EC3392D524814006E4FFFE2A
:1003DB00FDFC22FCE4CFCECDCC24E0501174FF8089
:1003EB00EDC3CC13CCCD13CDCE13CECF13CF047026
:1003FB00F030D5DE020778E9D2E7C933E833F8925B
:10040B00D5EDD2E7CD33EC33FC5002B2D522EC3034
:10041B00E7100FBF000C0EBE00080DBD00040BEB68
:10042B006014A2D5EB13FCED92E7FD2274FFFCFDEB
:10043B00FEFF22E480F8A2D574FF13FC7D80E480DC
:10044B00EFE709F608DFFA8046E709F208DFFA80E2
:10045B003E88828C83E709F0A3DFFA8032E309F64A
:10046B0008DFFA8078E309F208DFFA807088828C63
:10047B0083E309F0A3DFFA806489828A83E0A3F621
:10048B0008DFFA805889828A83E0A3F208DFFA80BA
:10049B004C80D280FA80C680D4806980F280338011
:1004AB001080A680EA809A80A880DA80E280CA80D9
:1004BB003389828A83ECFAE493A3C8C582C8CCC57E
:1004CB0083CCF0A3C8C582C8CCC583CCDFE9DEE7FB
:1004DB00800D89828A83E493A3F608DFF9ECFAA9ED
:1004EB00F0EDFB2289828A83ECFAE0A3C8C582C8AF
:1004FB00CCC583CCF0A3C8C582C8CCC583CCDFEAFE
:10050B00DEE880DB89828A83E493A3F208DFF9803B
:10051B00CC88F0EF60010E4E60C388F0ED2402B47E
:10052B00040050B9F582EB2402B4040050AF23232E
:10053B0045822390049C73C2D530F707B2D563F084
:10054B00FF05F030E70CB2D5F4048463F0FF05F03F
:10055B0080018430D502F40422BB010689828A8390
:10056B00E0225002E722BBFE02E32289828A83E467
:10057B009322BB010CE58229F582E5833AF583E0F2
:10058B00225006E92582F8E622BBFE06E92582F811
:10059B00E222E58229F582E5833AF583E49322BBD7
:1005AB00010689828A83F0225002F722BBFE01F3F7
:1005BB0022EF8DF0A4A8F0CF8CF0A428CE8DF0A460
:1005CB002EFE22C2D5EC30E709B2D5E4C39DFDE483
:1005DB009CFCEE30E715B2D5E4C39FFFE49EFE1200
:1005EB000839C3E49DFDE49CFC800312083930D527
:1005FB0007C3E49FFFE49EFE22BB0110E58229F5B1
:10060B0082E5833AF583E0F5F0A3E0225009E92572
:10061B0082F886F008E622BBFE0AE92582F8E2F5AD
:10062B00F008E222E5832AF583E993F5F0A3E99339
:10063B0022BB010A89828A83F0E5F0A3F0225006DF
:10064B00F709A7F01922BBFE06F3E5F009F319220F
:10065B00E88FF0A4CC8BF0A42CFCE98EF0A42CFC3E
:10066B008AF0EDA42CFCEA8EF0A4CDA8F08BF0A4BC
:10067B002DCC3825F0FDE98FF0A42CCD35F0FCEB1B
:10068B008EF0A4FEA9F0EB8FF0A4CFC5F02ECD39E0
:10069B00FEE43CFCEAA42DCE35F0FDE43CFC2275D7
:1006AB00F008758200EF2FFFEE33FECD33CDCC3348
:1006BB00CCC58233C5829BED9AEC99E58298400CB0
:1006CB00F582EE9BFEED9AFDEC99FC0FD5F0D6E48E
:1006DB00CEFBE4CDFAE4CCF9A88222B800C1B90074
:1006EB0059BA002DEC8BF084CFCECDFCE5F0CBF9D5
:1006FB007818EF2FFFEE33FEED33FDEC33FCEB33CD
:10070B00FB10D703994004EB99FB0FD8E5E4F9FAFA
:10071B00227818EF2FFFEE33FEED33FDEC33FCC9DF
:10072B0033C910D7059BE99A4007EC9BFCE99AF972
:10073B000FD8E0E4C9FAE4CCFB2275F010EF2FFFE1
:10074B00EE33FEED33FDCC33CCC833C810D7079B4B
:10075B00EC9AE899400AED9BFDEC9AFCE899F80FAE
:10076B00D5F0DAE4CDFBE4CCFAE4C8F922C3E49F7C
:10077B00FFE49EFEE49DFDE49CFC22EB9FF5F0EA7A
:10078B009E42F0E99D42F0EC6480C864809845F08D
:10079B0022EB9FF5F0EA9E42F0E99D42F0E89C4582
:1007AB00F022E8600FECC313FCED13FDEE13FEEF2C
:1007BB0013FFD8F122E493FC740193FD740293FEB2
:1007CB00740393FF227401FF3395E0FEFDFC0808D0
:1007DB0008E62FFFF618E63EFEF618E63DFDF61886
:1007EB00E63CFCF622ECF0A3EDF0A3EEF0A3EFF069
:1007FB0022A8828583F0D083D082120813120813AB
:10080B00120813120813E473E493A3C583C5F0C550
:10081B0083C8C582C8F0A3C583C5F0C583C8C5828C
:10082B00C822A42582F582E5F03583F58322BC002E
:10083B000BBE0029EF8DF084FFADF022E4CCF875F0
:10084B00F008EF2FFFEE33FEEC33FCEE9DEC9840FF
:10085B0005FCEE9DFE0FD5F0E9E4CEFD22EDF8F59B
:10086B00F0EE8420D21CFEADF075F008EF2FFFEDFB
:10087B0033FD4007985006D5F0F222C398FD0FD5F3
:10088B00F0EA22123CF08F26C20B123BC38E248F50
:10089B0025900042E06009C3940B7480948040065D
:1008AB009000427404F0C21F1220E7B40B00400307
:1008BB00020ACE9008C5F82828730208FE0208E643
:1008CB000209F60209B0020A22020A31020A4402A4
:1008DB000A57020A7E020AB5020AC1C204123D1B64
:1008EB004003020ACE1236F25003020ACE123D67C3
:1008FB00020ACEE525640545247011C204D33003EA
:10090B0001C392039000417408F0800B300308126E
:10091B003D0E5003751F06300303020ACEE5256416
:10092B00064524700DD3300401C39204900041742A
:10093B0002F03004161200034003020ACE7D027C43
:10094B00007F027E001233E2020ACEE525640145E8
:10095B00246004E526600A900042E0FF12395080C3
:10096B000EE526FD3395E0FCAF25AE241233E212E3
:10097B003D1B50057F0312294BE52564044524706C
:10098B0015D3300201C392027F082002027F098F28
:10099B001FC20C122B2C123BA7EF7003020ACE12B4
:1009AB003C11020ACED21F7D03120BB9E4FDFC12DF
:1009BB0033E2123D1B400B12211164014E60030206
:1009CB000ACE7F041239501220E764037003020A27
:1009DB00CE300203123649900043E04440F0E52646
:1009EB006003020ACE750E04020ACE20051E1221E8
:1009FB001164044E70057F0312294BAF25AE2412F0
:100A0B0038FFAF26EF3395E0FE120C09121A60AFD8
:100A1B0026121947020ACE7D04120BB9120C09AD2E
:100A2B00267F05020ACB7D04120BCD120C11AD26CD
:100A3B007F061239287F0480357D05120BCD120CF1
:100A4B0011AD267F071239287F0580227D06120BF8
:100A5B00E1AD25AC241233E2E4FD7F0412392812F8
:100A6B00211164014E70057F0312294B7F06123C46
:100A7B004280507D07120BE1EF64014E600BE525C0
:100A8B0064024524600330090A7F043002027F02AE
:100A9B0012294B12211164034E6008E525640345AE
:100AAB002470207F0912294B80197D09120BF51236
:100ABB000C197F0A800A7D0A120BF5120C197F099B
:100ACB0012392812209C400C900051E4F0A3743290
:100ADB00F0020B8AAF0EEF1220A14002806D1220A4
:100AEB00E7FB24F6600304705DAF61EF3395E0FE26
:100AFB0074C92FF582743F3EF583E493FF7E007C2F
:100B0B00007D641205BC8E248F25EB640A700512E0
:100B1B002B9F800C2012067EFF7FFF8003123AB4BE
:100B2B00900051EEF0A3EFF0D3900052E09525E545
:100B3B00246480F8900051E06480984042E524F0F2
:100B4B00A3E525F080391238D5500A74FF90005177
:100B5B00F0A3F0802A1220E764027018C3E50D950C
:100B6B0009E5081221085006AE0CAF0D8009AE083E
:100B7B00AF098003123AB4900051EEF0A3EFF0D21C
:100B8B000B123BC3301808AF26EF1220A1500F9069
:100B9B00003FE0FF3395E0FEEF64184E700FC21874
:100BAB0090003FE004F01220E7FF12320A227F018F
:100BBB00122FE3AF25AE241238FFAF26EF3395E0AB
:100BCB00FE22E4FF122FE3AF25AE241238FFAF262F
:100BDB00EF3395E0FE22E4FF122FE3AF25AE241294
:100BEB0038FFAF26EF3395E0FE227F01122FE3AFE4
:100BFB0025AE241238FFAF26EF3395E0FE22AD254C
:100C0B00AC241233E222AD25AC241233E222AD2503
:100C1B00AC241237C0AD26228F27120564FF146057
:100C2B001514602814603D14603A2404705C12247F
:100C3B00D812251F80291224D8F5827401F52C8532
:100C4B00822DE582F4F582752E0080131224D8F4E0
:100C5B00F582752C0085822DEDF5827401F52E85BC
:100C6B00822F8026ED12251F85822FEDF5827401D0
:100C7B00F528858229EF64047007EDFF7401FE806F
:100C8B0005EDF4FF7E008E2A8F2B90000112057D5F
:100C9B007007EDFF7401FE8005EDF4FF7E008E30D2
:100CAB008F3190000212057D7007EDFF7401FE80FD
:100CBB0005EDF4FF7E00E527147003020D5F147041
:100CCB0003020DE2147003020E6524036003020E8F
:100CDB00EFE528AB9A30E006E5294BFD8004E529CA
:100CEB005BFD8D9AE52A30E00890F00912253F80D4
:100CFB000690F00912254690F009EDF0E52C30E056
:100D0B000512252F800690F00A12254D90F00AED62
:100D1B00F0E52E30E005122537800690F00B1225FA
:100D2B005490F00BEDF0EE30E00512256380089047
:100D3B00F00CE0FBEF5BFD90F00CEDF0E53030E0FC
:100D4B000512255B800690F00D12256AAF0590F019
:100D5B000DEDF022E528ABA130E006E5294BFD8037
:100D6B0004E5295BFD8DA1E52A30E00890F019120E
:100D7B00253F800690F01912254690F019EDF0E50D
:100D8B002C30E00512252F800690F01A12254D907D
:100D9B00F01AEDF0E52E30E005122537800690F0C5
:100DAB001B12255490F01BEDF0EE30E0051225637D
:100DBB00800890F01CE0FBEF5BFD90F01CEDF0E584
:100DCB003030E00512255B800690F01D12256AAFCE
:100DDB000590F01DEDF022E528ABA230E006E529E9
:100DEB004BFD8004E5295BFD8DA2E52A30E00890E0
:100DFB00F02912253F800690F02912254690F02904
:100E0B00EDF0E52C30E00512252F800690F02A122C
:100E1B00254D90F02AEDF0E52E30E00512253780B8
:100E2B000690F02B12255490F02BEDF0EE30E005F0
:100E3B00122563800890F02CE0FBEF5BFD90F02C0B
:100E4B00EDF0E53030E00512255B800690F02D12B9
:100E5B00256AAF0590F02DEDF022E528ABA330E02D
:100E6B0006E5294BFD8004E5295BFD8DA3E52A30C2
:100E7B00E00890F03912253F800690F03912254694
:100E8B0090F039EDF0E52C30E00512252F8006901F
:100E9B00F03A12254D90F03AEDF0E52E30E00512C8
:100EAB002537800690F03B12255490F03BEDF0EE89
:100EBB0030E008A3E0FDEF4DFF800890F03CE0FD33
:100ECB00EF5DFF90F03CEFF0E53030E009A3E0FD83
:100EDB00E5314DFF800990F03DE0FDE5315DFF9080
:100EEB00F03DEFF02275240075254078007C007DE5
:100EFB00017BFF7A3F79CD7E007F1412051CE4FF46
:100F0B00FE7DB07C40AB54AA53A952A851120314D6
:100F1B005003021101122D9A6003021101D20B1220
:100F2B0039C6D2847F057E00122210123D767F6671
:100F3B007E667D867C40AB4CAA4BA94AA84912031E
:100F4B00146002500DE525152570021524122DA3F2
:100F5B0050D2E52545247007C2847F010210FE752F
:100F6B002400752564C2847F147E00122210C20BEC
:100F7B001239C6123D767F0A7E00122210752600AA
:100F8B00752704122D93C333CE33CED8F924FCF539
:100F9B008274FF3EF583122D66C004C005C006C0E7
:100FAB0007122D93C333CE33CED8F9122DBBD007F6
:100FBB00D006D005D0041207F0E5271527700215CF
:100FCB0026E527452670BCAF4CAE4BAD4AAC4990DD
:100FDB0000001207F09000141207FC00000000E460
:100FEB00F526F527122D63C004C005C006C00712F5
:100FFB002D93C333CE33CED8F9122D72D007D00632
:10100B00D005D00412007D9000141207F00527E5DF
:10101B0027700205266405452670C9122D6379A039
:10102B007840122DC59000141207F090001812078B
:10103B00FC00000000E4F526F527900018122D6641
:10104B00C004C005C006C007122D93C333CE33CEE8
:10105B00D8F9122D72122D63120079E4FBFAF9F80C
:10106B00120314500F122D93C333CE33CED8F91273
:10107B002D72801A122D93C333CE33CED8F9122D85
:10108B00BB122D66E4FBFA798078BF122DAF122DBF
:10109B0063120079AB07AA06A905A804D007D006EE
:1010AB00D005D00412007D9000181207F00527E53B
:1010BB002770020526640545266003021045C3E52B
:1010CB0025945D122DA85013E4FFFEFD7C3F90008C
:1010DB0018122D7B12031460025010E52515257094
:1010EB00021524122DA34003020F7EE52545247023
:1010FB00057F0212000E228E2C8F2D8D2E90F692D4
:10110B00E030E708E4FFFEFD7C408003122A241246
:10111B002A12AC2CAD2DEC120392C004C005C006F4
:10112B00C007E4FBFA79807845AF36AE35AD34AC09
:10113B0033120277D003D002D001D00012016E8F90
:10114B003A8E398D388C37E52E605924FA700302AC
:10115B0011E724FE700302124124FB700302126C90
:10116B0024EE6014241160030212AB853A5C8539BE
:10117B005B85385A85375922AC2CAD2DEC12039276
:10118B00A804A905AA06AB077F9A7E997D997C4591
:10119B001202778F328E318D308C2F8F588E578D68
:1011AB00568C55227532357531487530031229F935
:1011BB008F548E538D528C51900057E0FC12039735
:1011CB00A804A905AA06AB07AF54AE53AD52AC5158
:1011DB001202778F508E4F8D4E8C4D2275322D759E
:1011EB0031A67530331229F98F4C8E4B8D4A8C49B1
:1011FB00AB54AA53A952A851120277E4FBFA79C84F
:10120B00784212016E8F328E318D308C2F1203CBC0
:10121B008F5FEF3395E0FED3EF9464EE64809480A0
:10122B004003755F64AF5FEF3395E0C364809480D8
:10123B00506EE4F55F221229F0122A24120079C0B5
:10124B0004C005C006C0077D481229EB12016ED001
:10125B0003D002D001D000122A0F1203CB8E5D8F68
:10126B005E1229F0122A24120079C004C005C006B0
:10127B00C0077DA51229EB12016ED003D002D0015D
:10128B00D000122A0FE4FBFA797A784412016E121D
:10129B002A121203CB7B007A007960121E2F8F4823
:1012AB0022AF1DEF3395E0FEC3EF9404EE64809400
:1012BB00805007E4F524F5258028900058E0FEA324
:1012CB00E0FFD3900052E09FEE900051122DCB988F
:1012DB0040068E248F25800A900051E0F524A3E070
:1012EB00F52512325FD3E5259FEE6480F8E5246483
:1012FB008098400712325F8E248F2590004FE0FEBE
:10130B00A3E0FF65257003EE65247003021443C34D
:10131B00E5259FFFE5249EFED3EF9470EE64809449
:10132B00974002D216301671D3E5259400E524645C
:10133B00809480406490004FE07002A3E0700C90AA
:10134B00004F7405F0A374DCF08038122D9A24F64C
:10135B006013047020900050E024B8F090004FE030
:10136B00340BF0801E900050E024F4F090004FE01E
:10137B003401F0800E900050E02414F090004FE008
:10138B003400F0C3900050E09525E52490004F12F7
:10139B002DCB98400EC216800390004FE524F0A38E
:1013AB00E525F090004FE0FAA3E0FBD39400EA644C
:1013BB008094805020C28490004B1207FC000000E8
:1013CB0000C217BAFF06BBFF03D38001C39281C2D1
:1013DB0083C2858061D3900050E0947890004FE0F9
:1013EB006480948050028001C3920B201725A20BBE
:1013FB00B39281D284A20B9283A20BB39285122D4E
:10140B009A64097005FE7F0280047E007F0A122217
:10141B0010D217E4FFFE300B067DFA7C4380047D6F
:10142B00C07C3F90004FE0F52AA3E0F52B121D5432
:10143B0090004B1207F0D21322E56070057F060275
:10144B00000EA209920C752841752932123A73923B
:10145B0009A206920C75283C752932123A73920632
:10146B00A207920C75284B752925123A73920730F7
:10147B0007077F0712000E800B900048E06407708F
:10148B0003123D6712363D7004C208802F123CBB1D
:10149B008F28A208920C752929123A73920B300BE4
:1014AB0004D2088017200B14900055E07002A3E0C3
:1014BB00700AD312362194805002C20820080CE423
:1014CB00900053F0A3F0A3F0A3F022201703021512
:1014DB00AB123CBBC3E5489FF565FD3395E0FCD3F0
:1014EB00ED9402EC64809480406C90004FE0FEA37E
:1014FB00E0780CCEA2E713CE13D8F82401FFE43E1C
:10150B00FE1205BC8E248F25900058E0FEA3E0FF51
:10151B00D3900052E09FEE6480F8900051E064801D
:10152B009840068E268F27800A900051E0F526A35F
:10153B00E0F527E5272424FFE52634FAFE90005535
:10154B00E0FCA3E0FDC3EF9DF527EE9CF526C3124F
:10155B00362E503E8030AF65EF3395E0FEC364808E
:10156B009480503C7C007D051205CE8E248F2590F7
:10157B000055E0FEA3E0FFC3E49FF527E49EF526AC
:10158B00D312362E400CE02525F0900055E0352483
:10159B00F022900056E02527F0900055E03526F01C
:1015AB002290001EE014B4090040030217089015A6
:1015BB00C775F003A4C58325F0C583730215E2023A
:1015CB0015FC02169F0216A50216B30216B90216D7
:1015DB00D90216E00216F790001CE07002A3E0603F
:1015EB000302170890001CF0A3740EF0A37402F012
:1015FB002290001CE0FEA3E0FFD3940CEE648094D9
:10160B00804005751F038023D3EF940AEE6480940A
:10161B00804005751F028013D3EF9408EE6480940D
:10162B00804005751F018003E4F51F12291D40033F
:10163B00021708AF54AE53AD52AC5190002C1207A9
:10164B00F0900057E0FF3395E0FEEF64024E701709
:10165B0090002C1228EAFFE4FBFA79207841120162
:10166B006E90002C1207F090002C1228EAFF120348
:10167B00CBAB07AA067C007D641205CEEF4E60054E
:10168B00751F0980607C007D0AAF03AE021205CE88
:10169B007D0380377D047F01803890002C1228EA6F
:1016AB00FF1229277D0580237D067F028024E4FF1E
:1016BB00FE7D207C4190002CE0F8A3E0F9A3E0FA3A
:1016CB00A3E0FB12016E1229277D070238507D081B
:1016DB007F030231B21228FE50231228F57F0C60D3
:1016EB00027F008F6290001E7409F022E562600396
:1016FB00023B12123BA7EF700490001EF0229000E9
:10170B0027E0C39428748094805069E4FFFE7D7AAF
:10171B007C44AB50AA4FA94EA84D12016E1203CBBD
:10172B008F278E268D258C24900027E004F012281D
:10173B00E72527FFEE3526FEED3525FDEC3524FCA0
:10174B009000231207F012290EC3122936500A906B
:10175B00001FE526F0A3E527F0900021122911D3F5
:10176B0012293650030217F2900021E526F0A3E56B
:10177B0027F080731228E7FFC004C005C006C0071E
:10178B00900021E0FEA3E0FBAA06EA3395E0F9F80E
:10179B0012290EEF2BFBEE3AFAED39F9EC38F8D0B3
:1017AB0007D006D005D004C3EF9BFFEE9AFEED9950
:1017BB00FDEC98FC1228E1FFC006C007A3E024FE55
:1017CB00FFE434FFAB07FA3395E0F9F8D007D00606
:1017DB001235481228E1FFEC12038D1229419000BB
:1017EB00281207F0123A30AF63EF3395E0FEEF6447
:1017FB00784E7005756301800712291D4002056341
:10180B001228FE400CA3E024FFF090001CE034FFF4
:10181B00F0AF62EF3395E0FE12291D4002156222F4
:10182B00300A2590005DE0FF3395E0FEC3EF940C8A
:10183B00EE648094805005E004F0800CE490005D31
:10184B00F0C20EC20F021943E51FB40A0040030297
:10185B001938901864F828287302188202189A0213
:10186B00188C0218930218A10218A10218DD021994
:10187B00380218DD0218DDC20CC20DE4F51E021988
:10188B0038D20CD20D021938C20CD20D021938D233
:10189B000CC20D021938C20DE51E547FFFAE1FEEB0
:1018AB0064047E0070027E03C3EE6480F8EF6480F4
:1018BB009850090F531E80EF421E800B123D407F44
:1018CB008060027F008F1E123D40C36001D3920CDB
:1018DB00805B531E7FAF1FEF64096007AF1FEF6480
:1018EB000870047F0680027F0AD3EF6480F8E51E40
:1018FB006480984009C20DC20CE4F51F802FE51ED1
:10190B0075F002120542AFF0EFC36001D3920BAF3B
:10191B001FEF64087003C38002A20B920CAF1FEF82
:10192B0064087004A20B8001C3920D051E1236824F
:10193B00A20C920EA20D920F123A52228F27123D39
:10194B005E40051200035003D38001C3920B12209B
:10195B00C8122100500AAC0CAD0DAE04AF058000CF
:10196B008E288F29900001120604FFC3E5299FE5FD
:10197B00F06480F8E528648098500B300B08122037
:10198B00F1400312215120050EAF271221136401E0
:10199B004E704AD205804630010A0509E509700CE4
:1019AB0005088008E5091509700215089000031257
:1019BB0020CBFFAEF0D3E5099FEE1220F75006D2F5
:1019CB00018E088F091220F04005C201122151E54A
:1019DB00277005123D0E5005C205750F1E12000330
:1019EB00501C2000191220F0500A0509E509704C13
:1019FB0005088048750E04122151D200803E123D1D
:101A0B005E503120002EAB10AA11A91290000312C8
:101A1B000604FFAEF0D3E5099FEE1220F7400AE56E
:101A2B00091509700215088013750E048E088F09AD
:101A3B00D2008008200B05300002C200300B04E4FA
:101A4B00F50F22AF0F12211364204E7007050FC242
:101A5B000C122B2C22301A03021AEB301B03021A26
:101A6B00EBE4900040F0E5616003021B681220C8B4
:101A7B001221005065900045E0FD700404F08010C9
:101A8B00ED12214A9409EC648094805003021B6888
:101A9B009000457401F0900005120604FDACF0D3E4
:101AAB00E50B9DEC6480F8E50A64809840068C0A8F
:101ABB008D0B800B7432250BF50BE4350AF50AD32D
:101ACB0012210440091220C8F50D85F00C2274FA7E
:101ADB00250DF50DE4350CF50C22E4900045F022B4
:101AEB00E4900045F0900040E0FF3395E0FEEF4EB0
:101AFB0070037480F0900040E0547FF527301B1387
:101B0B00FF3395E0FED3EF9404EE648094804003A2
:101B1B00023B6DAF27EF3395E0FED3EF9409EE64F4
:101B2B008094804038D3E50D94EEE50C648094826C
:101B3B00400C7406250DF50D74FF350CF50CD3E533
:101B4B000B94BEE50A6480948A400C74E7250BF570
:101B5B000B74FF350AF50A9000407480F0222017B1
:101B6B0006E490004AF02290004AE0FF3395E0FE35
:101B7B00C3EF9404EE648094805004E004F0229050
:101B8B000049E0540FF5247D9012004E6005400390
:101B9B00D38001C3920B7FCD7ECC7D8C7C40AB5030
:101BAB00AA4FA94EA84D120314600740057F0412DB
:101BBB00000E7F667E667D06120051400F7F9A7E77
:101BCB00997D997C40120068600C400A7D021200DE
:101BDB0060E4F5258049E4FFFE7D807C3E120068C1
:101BEB0040097DF012004E600A400812005E752518
:101BFB0001802CA21C300B01B3500812005E75251E
:101C0B0002801CAF24EF3395E0FED3EF9400EE641B
:101C1B008094804006E52414FF80027F008F24E52A
:101C2B0025C454F04524900049F0AF24EF3395E0E0
:101C3B00FEC3EF9408EE64809480401FE0FF7804AD
:101C4B00A2E713D8FB540F24FE60070470087F052E
:101C5B0080067F0980027F0312000E22E547640392
:101C6B007002F547E54714603E147003021D04141F
:101C7B007003021D4424036003021D41D20B123C6E
:101C8B0058E4F52B1229CA501BEF3395E0FE74F381
:101C9B002FF582743F3EF583E493FD1229E0EDF0BE
:101CAB00052B80E0021D3CE4F52B1229CA501D12B6
:101CBB0029DBE0FF122A2D400F122A37400EEF943A
:101CCB001FEE648094805004052B80DE1229CA50CD
:101CDB00231229DBE0F52AFF3395E0FE4F6006EF78
:101CEB0064064E7005C20B123C58AF2A1233967520
:101CFB00470280457547038040752F00753000758E
:101D0B00312A7B007A007928122423EF4E602AAD0A
:101D1B002AAF29AE28121102E4F52B1229CA501151
:101D2B001229DBE0B52A061229E074FEF0052B80A0
:101D3B00EA7547018003E4F54790003EE06009E552
:101D4B004764036003021C67228F298E288D278C22
:101D5B0026AB10AA11A91290000912057DF53012BD
:101D6B0005646402700FAE2AAF2BFC7DCD1205CE3D
:101D7B00EF2530F530AC2AAD2BEC120392AB29AA30
:101D8B0028A927A826122D87797A7844122DC512F7
:101D9B002D8A7B9D7A69795C783C120277122D8AA9
:101DAB00AB2FAA2EA92DA82CC000C001C002C003C6
:101DBB00AC30EC120397E4FBFA79C8784212027745
:101DCB00D003D002D001D000122D87C004C005C0B3
:101DDB0006C007E4FFFE7D7A7C44AB58AA57A95690
:101DEB00A855122DAFD007D006D005D0041202771C
:101DFB00122D8AE4FBFA79C87842122D87E4FFFE94
:101E0B007DC87C42AB2FAA2EA92DA82C12031460DF
:101E1B000A4008E4FFFE7DC87C4222AF2FAE2EADF8
:101E2B002DAC2C228B3B8A3C893D8F418E408D3FC4
:101E3B008C3E7FD57E2C7D517C00D31238C0400662
:101E4B001238B67FD822E47FE37E0AC31238A9503A
:101E5B00061238B67F7D2274011238B7E47FF57E07
:101E6B00F5D31238A94035E4F5421238CB944BEE3A
:101E7B00648094805026EF7802C333CE33CED8F9EA
:101E8B002479F582743D3EF5831207C0C31238C026
:101E9B004006E54224D8FF22054280CEE4F54212EB
:101EAB0038CB945BEE64809480504EEF25E0FFEED0
:101EBB0033FE74A52FF582743E3EF583E493FE74D6
:101ECB000193FFE48F468E45F544F543E546F54611
:101EDB00E545F545E4F544F543AF41AE40AD3FACC8
:101EEB003EAB46AA45A944A843D312079C5006E52E
:101EFB00422423FF22054280A61238B6FF22123D50
:101F0B0076855D24855E25D3E5259464E524648080
:101F1B0094804010749C2525F52574FF3524F524F9
:101F2B00C21D8002D21DE4FBFA74E12BF582743FD3
:101F3B003AF583E493FF7E002404FDEE33FCD3E5F6
:101F4B00259DEC6480F8E524648098506DEF24FCAB
:101F5B00FFEE34FFFEC3E5259FEE6480F8E52464B5
:101F6B008098405674E92BF582743F3AF583E493DD
:101F7B00FF7E007C007D641205BC900058EEF0A340
:101F8B00123D288005C333CE33CED8F9FF903FF2F4
:101F9B00E493FDEF5D7F0260027F03900057123DDB
:101FAB00288005C333CE33CED8F9FF903FF1E493AD
:101FBB00FDEF5DC36001D3921C220BBB00010AEB4A
:101FCB0064084A6003021F347F0812000E22E4F5F6
:101FDB0024F525F526FB7A0079247D047F02120C6B
:101FEB00237F0112207A7B007A0079247D01E4FFA4
:101FFB00120C237F0312207A7524027D0412208693
:10200B007D021220927D027F02122C127D01122082
:10201B00927D037F01122C127B01E4FDFF122C1227
:10202B00752403752601E4FBFD7F03122C127D0141
:10203B00122086D20CE4FD7F0312215875DF407508
:10204B00DE60E4F5E9F5D1F5D375D50F75D4FF90C6
:10205B00F69274A0F0E4F5479000361207FC0000EE
:10206B000000122A1BF0A3F0A304F043DE80227BB6
:10207B00007A0079247D02120C23227B007A0079EE
:10208B00247F03120C23227B017F03122C127B0172
:10209B0022900041E0FF3395E0FED3EF9400EE6415
:1020AB00809480227FCD7ECC7D2C7C40900028E0DC
:1020BB00F8A3E0F9A3E0FAA3E0FB020314900001FC
:1020CB00AB10AA11A91202060475F00AED12082D25
:1020DB00EC75F00AA42583F583E49322AB10AA11C7
:1020EB00A912020564C3E5099529E5286480F8E582
:1020FB000864809822FFAEF0C3E50D9FEE6480F874
:10210B00E50C64809822AF26EF3395E0FEEF22EFCB
:10211B003395E0FEC3EF22E054C0F0C3ED9406EC20
:10212B006480948022E0FF543FF524FD3395E0FC5E
:10213B004D22D3EF9DEC6480F8EE64809822FD3342
:10214B0095E0FCC3ED2285280885290922EF146050
:10215B003814605F1470030221E824036003022229
:10216B000F122502400302220F300C0EA80574013A
:10217B00088002C333D8FC428022A8057401088072
:10218B0002C333D8FCF45280221224ED5076122471
:10219B00F94071300C0EA8057401088002C333D8C6
:1021AB00FC429022A8057401088002C333D8FCF4CA
:1021BB005290221224CC504C12250B4047300C0E5F
:1021CB00A8057401088002C333D8FC42A022A805DD
:1021DB007401088002C333D8FCF452A022ED122400
:1021EB00D05021300C0EA8057401088002C333D8DF
:1021FB00FC42B022AF05A8077401088002C333D894
:10220B00FCF452B0228E2A8F2BE4F530F531E52BFE
:10221B00452A70030222C50531E53170020530AE47
:10222B002AAF2BEE3395E0FDFCE47BA07A0FF9F897
:10223B0012065B8F2F8E2E8D2D8C2CC006C007AEF9
:10224B0030AF31AB07AA06EA3395E0F9F8D007D0E7
:10225B00061206E68F2F8E2E8D2D8C2CE47FFF7EA3
:10226B00FFFDFCAB2FAA2EA92DA82CC312079C5047
:10227B00A6C374FF952FF52F74FF952EF52EE495BD
:10228B002DF52DE4952CF52CAF2FAE2EAD2DAC2CC2
:10229B0078081207AD8F8CE52FFF8F8AC210438809
:1022AB0010E58820E5033010F85388CFE531153160
:1022BB0070021530E531453070CE22201303022316
:1022CB007830151E90F129E030E00302237890F16D
:1022DB0064E030140554FEF080034401F0C213C2D5
:1022EB0015227DC87C42123CA9120314600C400AD3
:1022FB0090004B1207FC42C80000E4FFFEFDFC12ED
:10230B003CAC120314500A90004B1207FC00000067
:10231B0000AF27AE26AD25AC24EC4D4E4FC360016C
:10232B00D392147DFA7C45123CA912016EE4FBFAA0
:10233B00798078BF12007D8F278E268D258C24E423
:10234B00FBFA79C878421202778F278E268D258C5F
:10235B00241203CBAD07AC06ECFFEF90F141F0ED8F
:10236B0090F140F0D21590F129E04401F0221228AF
:10237B00F564027006AC0AAD0B800FAB10AA11A965
:10238B0012900005120604FDACF0EC120392122918
:10239B00418F278E268D258C247FCD7ECC7D2C12D4
:1023AB0028CE60054003C38001D3921B301B04C2AF
:1023BB001A802BAF5FEF3395E0FED3EF944BEE64B7
:1023CB008094804004D21A8015AF27AE26AD25AC81
:1023DB00241228D060054003C38001D3921A123116
:1023EB0058AF1FEF6406602FAF1FEF64086028AF74
:1023FB001FEF64096021900048E06003022DD2902A
:10240B00001EE060030215AC1228F57004E5626053
:10241B0003023B12E4F51F228B2C8A2D892EE5DF5C
:10242B0030E102805090003BE004F0700690003ADF
:10243B00E004F0900036E0F8A3E0F9A3E0FAA3E0A3
:10244B00FBAFDDEFFEADDCEDFFEE3395E0FDFCEB1E
:10245B002FFFEA3EFEE93DFDE83CFC9000361207FB
:10246B00F0C390003BE0940A90003AE064809480C3
:10247B00500743DF02E4FEFF22900036E0FCA3E0AE
:10248B00FDA3E0FEA3E0FFE47B0AFAF9F81235485E
:10249B009000361207F0900036A3A3E0FFA3E0AB49
:1024AB002CAA2DA92ECF8FF012063C90003CE0AB4E
:1024BB002FAA30A9311205AAE490003DF0FE7F014E
:1024CB0022EDFF7E00D394067480948022EDF4F508
:1024DB008275830085832885822985832A85822BB3
:1024EB00ED22EDFF7E00D394077480948022C3EF1E
:1024FB0094037480948022EDD3940574809480228D
:10250B00C3EF94017480948022FBE434F0FAA805A5
:10251B0074010822F4F58275830085832C85822D46
:10252B0085832E22A3E0FBE52D4BFD22A3E0FBE5EB
:10253B002F4BFD22E0FBE52B4BFD22E0FBE52B5B5C
:10254B00FD22E0FBE52D5BFD22E0FBE52F5BFD2291
:10255B00A3E0FBE5314BFD22A3E0FBEF4BFD22E0BB
:10256B00FBE5315BFD2278FFE4F6D8FD9000007FA0
:10257B00007E04E4F0A3DFFCDEFA7581650225C65C
:10258B00022845E493A3F8E493A34003F68001F2F9
:10259B0008DFF48029E493A3F85407240CC8C33351
:1025AB00C4540F4420C8834004F456800146F6DF20
:1025BB00E4800B01020408102040809032AFE47ECF
:1025CB00019360BCA3FF543F30E509541FFEE49315
:1025DB00A360010ECF54C025E060A840B8E493A3DC
:1025EB00FAE493A3F8E493A3C8C582C8CAC583CA07
:1025FB00F0A3C8C582C8CAC583CADFE9DEE780BEBF
:10260B00EF14602214603C1460562403707412257E
:10261B00024002806DED24801225148002C333D852
:10262B00FC55ACFC80601224ED50051224F95002CD
:10263B008050ED24881225148002C333D8FC55AD8D
:10264B00FC80431224CC500512250B50028033ED35
:10265B0024901225148002C333D8FC55AEFC80267F
:10266B00ED1224D04002801AED2498FBE434F0FAEA
:10267B00AF05A8077401088002C333D8FC55AFFC23
:10268B008004E4FEFF22EC7003FEFF228B828A8320
:10269B00E05403FF7E0022E4F5DE90F692F090000A
:1026AB003E04F0E4F547FFEFFD3395E0FCC3ED94FA
:1026BB0006EC648094805015EF3395E0FC74302D5C
:1026CB00F58274003CF58374FEF00F80DA900036CF
:1026DB001207FC00000000122A1BF0A3F0FB7D0385
:1026EB007F01122C12E4FBFDFF122C12752403E464
:1026FB00F525F526FB7A0079247D027F01120C2348
:10270B007B007A0079247D01E4FF120C23C20CE4D8
:10271B00FDFF122158C20C7D037F01122158C20C00
:10272B00E4FD7F030221587D087F0212387D403D76
:10273B0090005CE025E0F030A303E004F090005C37
:10274B00E0FFFD7C00F46003ED7022E4F5B6EDF4E0
:10275B004CD37001C3921EEFF47B0170027B027DA0
:10276B00037F021230FD7D087F02123B31301E08C1
:10277B00E51630E703751680301E1FE5156485706E
:10278B0019123C97123C9F4005123B8B8009E4F5D4
:10279B0018751A01751701E4F515201E13E516645B
:1027AB0084700DF516E517700475190122E4F51701
:1027BB0022752403E4F525752601C20C7D02FF1258
:1027CB0021587B007A0079247D04E4FF120C237BD3
:1027DB00127D02E4FF122C1290F120E4F0A3740D91
:1027EB00F090F1237401F090F12A74FFF090F12234
:1027FB00E4F090F127740DF0A3F090F160E4F09009
:10280B00F165F090F164740DF090F131741FF0905C
:10281B00F130743FF090F141E4F090F140F0900012
:10282B004B1207FC00000000C215C21390F166E4C6
:10283B00F090F126740DF0023D00123C82D20C1286
:10284B0039781232FC121FD9121F09123044122789
:10285B00BC122CF41230A112347812002E120EF08E
:10286B00122F7EE490003EF043A880123D76122793
:10287B003212372712237912088E1214441212AC1B
:10288B001222C63011E5C21112350412378E122AEC
:10289B0041121709123CCD122AB7122C8412358C17
:1028AB00122E41AF1DEF3395E0FEC3EF9403EE64A0
:1028BB0080948040B612182B121B6980AE7D4C7F22
:1028CB00CD7ECC7C40900028E0F8A3E0F9A3E0FAA1
:1028DB00A3E0FB0203149000231207F0900023E007
:1028EB00FCA3E0FDA3E0FEA3E022AB10AA11A9120A
:1028FB00020564D390001DE0940090001CE06480FE
:10290B0094802290001FE0FEA3E0FFEE3395E0FDE4
:10291B00FC22D3EF9400EE64809480221203CB7CD4
:10292B00007D0A1205CEAE04AF0522AB27AA26A95D
:10293B0025A824020786E4FBFA797A784402027709
:10294B008F2A1220E7F52E900001120604F52D8533
:10295B00F02CE4F52BAF2B12211A940BEE64809420
:10296B0080505B903F5B75F00AEF12082DEE122042
:10297B00DC652A7045123D4AAF2BEF3395E0FE7CA8
:10298B00007D0A1205BC745B2FF9743F3E7510FF76
:10299B00F5118912E52E6408700DE52A64086007AD
:1029AB00AF2DAE2C1234C0E52E700AE52A6006FF5F
:1029BB0012320A8005E490003FF0052B809722AF7E
:1029CB002BEF3395E0FEC3EF9406EE6480948022E8
:1029DB00EF3395E0FE74302FF58274003EF58322C1
:1029EB00E4FFFE7C43AB3AAA39A938A83722752FEE
:1029FB003EAB32AA31A930A82FAF3AAE39AD38ACC5
:102A0B00370202771202778F368E358D348C332254
:102A1B00E490003AF0A3F0A322AF58AE57AD56ACFA
:102A2B0055223395E0FEC36480948022D3EF941635
:102A3B00EE6480948022AB10AA11A9121205646077
:102A4B00046401701190F508E4F090F500E0547FF8
:102A5B00F0E4F51C802DAF1C123BDE5004051C80EE
:102A6B0022EF64034E701C7F9A7E997DB97C40AB3C
:102A7B0054AA53A952A85112031460054003123BE8
:102A8B00F8051CAF1D123BDE5003051D22EF64033E
:102A9B004E7018051D90005EE0FF3395E0FED3EFFE
:102AAB009400EE648094804002D2192290003FE0A3
:102ABB00FF12211B9418EE648094805003E004F005
:102ACB0090004512209F400DEF9409EE6480948096
:102ADB005003E004F0AF0F12211A9420EE6480949F
:102AEB00805002050FAF0EEF1220A14002150E12FF
:102AFB00209C4003E014F0900040E0FF30E71C54B2
:102B0B007FFEEF5480F0EE122149940AEC6480941E
:102B1B008050010E900040E04EF022E4900040F017
:102B2B0022D20D123CDF200C19E4F52A1238215069
:102B3B0011742B252AF9E4FAFB7F111237F2052ABF
:102B4B0080EA85082F8509307F003002027F018FD4
:102B5B00317A00792F12384512342D8F32200C0721
:102B6B00E532B52E0280277B007A00792BE4FDFC41
:102B7B007F1D1237F2E4F52A1238215011742F25DC
:102B8B002AF9E4FAFB7F191237F2052A80EAC20D03
:102B9B00123CDF2290005BE0B407005066902BAF35
:102BAB00F8282873022BC4022BCF022BEC022BF23A
:102BBB00022C02022BCF022C08E490005AF07D0B62
:102BCB007F01803C7F021239EA5002802190005B2A
:102BDB00E0640170067D077F0280257D237F0680E0
:102BEB001F7D237F0380197F061239EA5003023AB7
:102BFB00B47D077F0480097D0B7F058003E4FDFF17
:102C0B00123D34E4FEFF22EBF5826402606AE5823A
:102C1B0064036064E5826419605ED3E582941C747E
:102C2B008094805053EF14601414602014602F2490
:102C3B000370451225025040ED2400802A1224ED2A
:102C4B0050361224F94031ED2410800D1224CC5053
:102C5B002712250B4022ED2420F528EE800CED12D7
:102C6B0024D05014ED2430F528E434F0F527EB5440
:102C7B001F852882852783F022120003500330041E
:102C8B0007E4900043F08029900043122130700735
:102C9B00EF20E6034480F09000431221225008E01D
:102CAB0020E60405248003E4F524900043E045244A
:102CBB00F0123D5E502D20042A90004412213070FA
:102CCB0007EF20E6034480F09000441221225008C5
:102CDB00E020E60405248003E4F524900044E0455D
:102CEB0024F022E4900044F022752403E4F52575CA
:102CFB00260190005DF0F51F90F12404F090F12C6B
:102D0B0074FFF0A3F090F1357409F090F134745F17
:102D1B00F090F1377409F090F136745FF090F12672
:102D2B00E0440CF012368290F129E0540C70F8FB61
:102D3B007D10122D597B007D20122D597B147D04A3
:102D4B007F02122C127B157D057F02022C127A005A
:102D5B0079247F02120C2322900014E0FCA3E0FDE7
:102D6B00A3E0FEA3E0FF222400F58274003EF5836E
:102D7B00E0F8A3E0F9A3E0FAA3E0FB2212016E8FC7
:102D8B002F8E2E8D2D8C2C22AE26E527780222AB92
:102D9B0010AA11A912020564D3E5259400E5246459
:102DAB008094802212016EA804A905AA06AB072203
:102DBB002400F58274003EF58322E4FBFA020277CD
:102DCB006480F8E0648022900046E0FEA3E0FFC33D
:102DDB009405EE648094805010C3EF9403EE6480EE
:102DEB009480504EEF04F51F22900048E0FF7E00C8
:102DFB007C007D061205BCEF2405FFE43EFE90002F
:102E0B0046E0FCA3E0FDC39FEE6480F8EC64809881
:102E1B005020ED24FBFFEC34FFFE7C007D031205FC
:102E2B00CE7C007D021205CEED4C7004751F012285
:102E3B008000E4F51F2290001EE0700BAB10AA116E
:102E4B00A912120564600775130075142822D3E5C7
:102E5B00149400E513648094804009E514151470F4
:102E6B004215132290F500E4F0C20B123B4F43873F
:102E7B0004438702123C82D20C123978123A947FA7
:102E8B00017E00122210122732301105C2111237A7
:102E9B008E123D0E50E9D20B123B4FE490003EF0E8
:102EAB0043A880228B348A358936753702753800F2
:102EBB007B007A007939AD38AC377F111237F2AF1E
:102ECB0039EF3395E0FEC3EF9401EE6480948040BC
:102EDB0036D3EF940BEE6480948040028029E53961
:102EEB0014AB34AA35A9361205AA0538E538700299
:102EFB000537C394FCE5376480948340B3AB34AAA5
:102F0B0035A936E41205AAAE37AF38227D037F020E
:102F1B0012260BEF64014E7034C21EE515547FFF71
:102F2B00E4F515E5177004E51A6007E4F51AF517D3
:102F3B008033EFC39405502D123C97C3EF940AEEE8
:102F4B0064809480500205187516808018D21E7507
:102F5B001300751428E51630E703751680E5152068
:102F6B00E7037515807D087F02123A0E90005C74A2
:102F7B00AAF022123A30E490001EF0F524AF24EFB1
:102F8B003395E0FEC3EF9406EE64809480501812E4
:102F9B003D76AF50AE4FAD4EAC4D9000281207F0C2
:102FAB00123158052480D61228F5702BF524900089
:102FBB0057E0C36480F8E52464809850107F0212B8
:102FCB00375B7FA07E00122210052480E17F907E6C
:102FDB000112221075620C228D27201A09201B0664
:102FEB00E4900040F022900040E0FD3395E0FCEDD2
:102FFB004C70037480F0900040E0547FF528201B48
:10300B00057529098003752902EF6014301B29AF60
:10301B002812211A9403EE64809480401B023B6DAE
:10302B00D3E5296480F8E528648098400B90004034
:10303B007480F0AF2712294B22D20B123AF3E4F52E
:10304B001D301D5175241E90F500E04480F07F0764
:10305B007E00122210123BED30E702051BAF1BEF77
:10306B00F47006D20B15248018E51B541F701275D3
:10307B00241E300B0CD218F51B90005EE004F0C23E
:10308B000BE52470C97F043018027F038F1D90F568
:10309B0000E0547FF022E4F50EFFEF122149940B70
:1030AB00EC64809480502C903F5B1220D4640270AF
:1030BB001FEF3395E0FC903F601220D4F50A7401AA
:1030CB0093F50B903F5C1220D4F50C740193F50D26
:1030DB000F80C7123349123D4A9000427404F0E44A
:1030EB00900048F07510FF75113F75125BC203C25B
:1030FB000422EBD31224FB5053EF14601414602002
:10310B0014602F240370451225025040ED2480805B
:10311B002A1224ED50361224F94031ED2488800D0B
:10312B001224CC502712250B4022ED2490F528EECB
:10313B00800CED1224D05014ED2498F528E434F0D3
:10314B00F527EB5403852882852783F022E561144C
:10315B0060151460291460442403704A7D6C122896
:10316B00CA5043756101227F9A7E997D791228CED0
:10317B0060054003E4F5611228C8502A8025E4FF5E
:10318B00FE7D601228CE600540037561017F9A7E3B
:10319B00997D391228CE500E756103221228C86012
:1031AB00054003756102228F288D2990001CE0B425
:1031BB00FF0FA3E0B4FF0A12375BE490001CF0A3EF
:1031CB00F090001CE0FAA3E0FB7C007D04FFAE0254
:1031DB001205CED3ED9401EC648094807F00400205
:1031EB00AF288F1FD3EB9400EA64809480500FE4D8
:1031FB00F51F90001CF0A3740AF0A3E529F0228FB1
:10320B002FD20D123CDF7B007A007932122EAF8E5B
:10321B00308F31AD32AF2F1236BAE532B52F028077
:10322B001FE531B4FC10E530B4030B75300275317A
:10323B00007F1D123251E52F04F5337F19123251E5
:10324B00C20D123CDF227B007A007933AD31AC30FA
:10325B001237F22220080A900051E0FEA3E0FF8013
:10326B003012360CFF900055E03EFEC36480948014
:10327B005003E4FEFFC3900052E09FFF900051E02B
:10328B009EFEC3EF94DCEE6480948550047E057F34
:10329B00DC900051E0B50608A3E0B50703C380013D
:1032AB00D3920A22C111C110C112C11E41005E008E
:1032BB00C119C118011BFF42005300004200550009
:1032CB0000C108016500C10AC106C109C107C105DA
:1032DB0041004000410043004100410041004400D7
:1032EB0041003F1941004500C100C10141004900A7
:1032FB0000752403752501752601C281C284C28322
:10330B00C2857D021233377D10E4FF120C237D083A
:10331B001233377D20E4FF120C23E4900051F0A30D
:10332B00F090004FF0A3F0C217C216227B007A0078
:10333B007924E4FF120C237B007A00792422D20D2E
:10334B00123CDFE4F524E5241238235011742525B3
:10335B0024F9E4FAFB7F111237F2052480E8C20D41
:10336B00123CDF7A00792512384512342DEFB5283F
:10337B000F852508852609E527C36001D392022214
:10338B00123649C202D20C122B2C22AB077AFF90B9
:10339B00003DE07041EB122A2D403B122A37400AC8
:1033AB00EF941FEE64809480402C9000361207FC43
:1033BB0000000000122A1BEBF0A37401F0EB30E4C9
:1033CB000543DF80800353DF7F53DEF0EB540F4266
:1033DB00DEDAFE43DF022212213D40028004AE04FE
:1033EB00AF058E278F28E52864024527701C7F6662
:1033FB007E667D461220B5600940077F0812294B77
:10340B008008900042E0FF123950E52864034527FD
:10341B00700F1220AF600740057F0902294B751F03
:10342B0006228B338A3489358F398E388D378C361B
:10343B00E4F53AAB330535E535AA3470020534149F
:10344B00F9120564623A7F08E53A30E70825E06433
:10345B0007F53A8006E53A25E0F53ADFEB78367466
:10346B00FF1207D2EC4D4E4F70C9AF3A22752401B3
:10347B00E4F525F526FB7D037F02122C127B007AE7
:10348B000079247D087F02120C237D087F02123BFA
:10349B00317B027D037F021230FD43B904751300AB
:1034AB0075142890005C74FFF0E4F515F516F5180B
:1034BB00F519F51A228E2F8F3012363D603A123ADB
:1034CB00B4AB07AA0612360C900055E03EC36480DD
:1034DB009480C3EB9530FFEA952FFE900055F0A337
:1034EB00EFF0C3EE648094805007E4900055F0A396
:1034FB00F0E4900053F0A3F022301740AF65EF33A8
:10350B0095E0FED3EF9400EE648094804013123666
:10351B002794FD500CA3E004F07006900053E004D8
:10352B00F0C3EE6480948050131236219403400C48
:10353B00A3E024FFF0900053E034FFF022C2D5E863
:10354B0030E70FB2D5E4C39BFBE49AFAE499F9E4B4
:10355B0098F8EC30E717B2D512357E1206E6E4C3C5
:10356B009BFBE49AFAE499F9E498F880031206E6D7
:10357B0030D50DE4C39FFFE49EFEE49DFDE49CFC6F
:10358B0022900048E0FF7E0070059000468030904E
:10359B000047E004F07006900046E004F07C007DEC
:1035AB00061205BCEF240FFFE43EFEC3900047E07C
:1035BB009FEE6480F8900046E06480984004E4F04D
:1035CB00A3F022C0E0C0F0C083C082C0D075D00091
:1035DB00C000C001C002C003C004C005C006C007C4
:1035EB00122F1775B600D007D006D005D004D00324
:1035FB00D002D001D000D0D0D082D083D0F0D0E098
:10360B0032900053E0FEA3E0FF7C007D141205CE48
:10361B00900056E02F22900054E09400900053E06D
:10362B00648022E5259527E5266480F8E5246480EF
:10363B009822AB10AA11A91290000802057D7508FB
:10364B0003750920E4FFEFFD3395E0FCC3ED940B0C
:10365B00EC64809480501F903F5B12383264027090
:10366B0012EF3395E0FC903F5E123832F50874018F
:10367B0093F5090F80D0227F05301F027F0090F158
:10368B0045EFF07F78301F027FFA90F144EFF07F27
:10369B0005301F027F0090F147EFF07F78301F025B
:1036AB007FFA90F146EFF090F129E0440CF022EF15
:1036BB0064017002FF22E4FEEEFB3395E0FAC3EBEC
:1036CB009403EA64809480501DEE3395E0FA74FC09
:1036DB002BF582743F3AF583E493B50706ED7F042F
:1036EB006001FF0E80D222E4FFEFFD3395E0FCC3B7
:1036FB00ED9403EC648094805020EF3395E0FC74E0
:10370B00F92DF582743F3CF583E493FE900048E07D
:10371B00FDEEB50502C3220F80CFD32290F500E05A
:10372B0030E72CE51B70287F057E00122210123B20
:10373B00ED30E702051BAF1BEFF470EB90F166F079
:10374B0090F126740DF090005EE004F0E4F51D227C
:10375B00EF14600C14600F147010C20BD20C800AA3
:10376B00D20BC20C8004D20BD20CA20B920EA20C69
:10377B00920F123A527F147E00122210C20EC20F09
:10378B00023A52E51530E711547FFFC394055001FF
:10379B000F531580EF42158003E4F515E51630E75E
:1037AB0010547FFFC3940450010F531680EF421641
:1037BB0022E4F5162212213D40028004AE04AF052F
:1037CB008E278F28E5286402452770082006057F81
:1037DB000812294BE52864034527700A7F04300241
:1037EB00027F0212294B228F3AEF641970051205E2
:1037FB0064F5FEEDF5FCECFFEFF5FD00853AFF00FF
:10380B000000000000E5FF20E0FBE53A64117005C5
:10381B00E5FE1205AA22E52AFD3395E0FCC3ED94E3
:10382B0004EC648094802275F00AED12082DEC757F
:10383B00F00AA42583F583E493227B007F037E00AB
:10384B007D007C00221228FE5027EF4E700774FF7C
:10385B00F0A3F08017EF7802C333CE33CED8F92420
:10386B00FFFFEE34FF90001CF0A3EFF090001EED75
:10387B00F022EF1460111460151460192403701CEE
:10388B00E5AC5D6017D322E5AD5D6010D322E5AEEC
:10389B005D6009D322E5AF5D6002D322C322FDFC3C
:1038AB00AB41AA40A93FA83E02079CE4AB3BAA3C14
:1038BB00A93D0205AAAB41AA40A93FA83E02079C1D
:1038CB00AF42EF3395E0FEC3EF22E5616403600581
:1038DB00E4F563801DE56370057563018014AF63C8
:1038EB00EF3395E0FED3EF9474EE64809480400246
:1038FB00D322C3228E278F28123BA71221136402D7
:10390B004E7003123C11200408E528640145277012
:10391B000B3004051200034003123B6D22A90790E4
:10392B000043E0FE5480FB3395E04B700BED339579
:10393B00E0FCED64014C700CEE547F900043F0AF53
:10394B000112294B228F297F9A7E997D391220B53E
:10395B00600B4009AF293002027F0280091220AFB1
:10396B00600740057F0302294B751F0622E4200CDC
:10397B0006F5C853A8DF22F5CE75CB0B75CADB75E0
:10398B00CD5D75CC6643A820F5C975CF80756404F1
:10399B0075C89122C0E0C083C0825380DF5380F78B
:1039AB005380FD5380EF53A0EF53A0DF751B0090A6
:1039BB00F509E4F0D082D083D0E03290F14174016C
:1039CB00F07F00300B027FFF90F140EFF0123D00D3
:1039DB0090F164E030140454FEF0224401F022AB69
:1039EB0007EB3395E0FEEF25E0FDEE33FC123D5483
:1039FB001205CEEB14D36480F8ED6480984002D3AB
:103A0B0022C322EF14600F1460111460132403708F
:103A1B0013EDF452AC22EDF452AD22EDF452AE2282
:103A2B00EDF452AF2290001F747FF0A374FEF0A34D
:103A3B007480F0A37402F0E4900027F0900023123E
:103A4B0007FC000000002290F164E0FF300E0553EC
:103A5B0007FB8003430704300F055307F78003432D
:103A6B00070890F164EFF022D3E5286480F8E5486D
:103A7B006480984002D322C3E5296480F8E548644A
:103A8B0080985002C322A20C227D087F02123A0EAC
:103A9B0090005C74AAF0D21EE51630E70375168011
:103AAB00E51520E703751580221220C8FFAEF090B4
:103ABB000058E0FCA3E0FDD39FEE6480F8EC64803B
:103ACB0098400122AE04AF0522E4FB7D02FF122CCD
:103ADB0012C20C7D02E4FF12215890F121E4F09008
:103AEB00F126F090F123F02290F5007409F090F597
:103AFB00027419F090F50CE4F090F5067438F0A30D
:103B0B007405F075B98022E56114600E14600F1412
:103B1B0060102403700F751F0322751F0222751F7F
:103B2B000122751F0422EF14600E14600F14601035
:103B3B002403700FED42AC22ED42AD22ED42AE22DA
:103B4B00ED42AF22300B0F121FD91227BC122CF4EF
:103B5B001232FC023AF3C20C123978123AD4122602
:103B6B00A2221220E7FF601790000712057D600567
:103B7B00900042EFF0E4FF12294BE4FF12320A22CD
:103B8B00E4F516F519F518F517EE700FEF24FE6036
:103B9B0007047007751A0222751A0322AF1AEF3346
:103BAB0095E0FEEF24FFFFEE34FFFE123C9F400535
:103BBB00E51A14FF227F0022E51A6004E4FEFF22BF
:103BCB00E5197003FEFF22123C97300B05E4F51943
:103BDB00F51822EF3395E0FEC3EF9403EE64809467
:103BEB008022E51B25E0F51B90F501E02290F50006
:103BFB00E04480F07F147E0012221090F509E4F06F
:103C0B0090F50804F02290001EE0701204F01228C8
:103C1B00F5600BE4F51F90001CF0A37408F022EF85
:103C2B00FB3395E0FAC3EB9408EA6480948050046C
:103C3B00EF2DFF227F0822900044E0FE5480FD33DD
:103C4B0095E04D6007EE547FF012294B2253DE7F37
:103C5B00007F00200B027FA090F692EFF00043DE76
:103C6B008022C0E075C9001564B212E56470057559
:103C7B006404D211D0E0325388CF5389F0438901C9
:103C8B00E4F58CF58A75A80243A88022AF18EF33B0
:103C9B0095E0FE22D3EF9400EE6480948022E4FF43
:103CAB00FE90004BE0F8A3E0F9A3E0FAA3E0FB22BF
:103CBB00AB10AA11A91212056464087F2F70027F42
:103CCB003422123D54D3EF9400EE64809480400371
:103CDB00E014F022300D07C2AF0075FBAA2275FB72
:103CEB005500D2AF222019037F002290005EE0FF27
:103CFB00E4F0C2192290F1297401F090F129E0202F
:103D0B00E0F922E51A6002D322E519C36001D32240
:103D1B00E51A64016002C322E4F51AD322EFF0AF77
:103D2B00037E007401A807082290005AE07005ED8D
:103D3B00F0A3EFF022E51E5480FF3395E04F22E411
:103D4B0090005BF090005AF02290005AE0FF339500
:103D5B00E0FE22E51A6402C37001D322E49000480E
:103D6B00F0FF02294B5388EFD21032021C6700512F
:103D7B002CD5004B18690045845700406521003B4A
:103D8B00B06200375CB60033619B002FB760002C2C
:103D9B00570700293A3D00265B410023B4DC002184
:103DAB00424D001EFF45001CE7D5001AF8690019AB
:103DBB002DBE001784DA0015FB0600148DC7001307
:103DCB003ADA0012002B0010DBD6000FCC1E000ECF
:103DDB00CF6C000DE44B000D0965000C3D80000B12
:103DEB007F7C000ACE50000A290700098EC3000809
:103DFB00FEB50008781F0007FA52000784AE0007D3
:103E0B00169D0006AF9700064F1C0005F4B8000581
:103E1B009FFE0005508B000506020004C00D000438
:103E2B007E5D000440A9000406AC0003D02700030C
:103E3B009CE100036CA100033F37000314720002E6
:103E4B00EC280002C62F0002A2630002809F000232
:103E5B0060C3000242B10002264C00020B7B000142
:103E6B00F2230001DA2E0001C3870001AE19000115
:103E7B0099D2000186A0000174720001633A00011F
:103E8B0052EA00014372000134C8000126DF000131
:103E9B0019AC00010D2500010141F5F5EB3AE107E5
:103EAB00D755CE1DC558BD00B50EAD7FA64C9F7026
:103EBB0098E792AC8CBB871181AA7C82779772E4CE
:103ECB006E676A1E6606621C5E5F5ACB575F54199B
:103EDB0050F84DF84B1A485A45B8433340C83E7713
:103EEB003C3E3A1D3812361D343B326D30B22F0832
:103EFB002D6F2BE62A6C290127A42655251323DDCC
:103F0B0022B22193207F1F751E751D7E1C901BAC4A
:103F1B001ACF19FB192E186917AA16F31642159703
:103F2B0014F2145313B913251296120C11861105A2
:103F3B00108810100F9B0F2B0EBE0E550DEF0D8C16
:103F4B000D2D0CD10C780C210BCE0B7D0B2E0AE317
:103F5B0000000000000000010064010000000000F0
:103F6B000000006403000F00000AF000003204039D
:103F7B00E800000B540100450507D000000BB80109
:103F8B000056060FA000000BEA010160071F40005E
:103F9B00000C1C0101660859D800000C8000016A56
:103FAB00092EE0000009C4000169021F4003E80C60
:103FBB00800001450A2EE0000009C4000169785019
:103FCB002D010000000000000000000000000000B8
:103FDB00000000000000524B44382F21180F91B401
:103FEB0064E6E678B464070F1F0D080E00060503A0
:043FFB000408090AA3
:00000001FF
