:10000000022A46AF56EF3395E0FE22023B5CE58EB6
:10001000541FF5624362C085628EC2AF007596AA16
:0A00200075965543970200D2AF22F7
:10002B000233CFC2AF007596AA75965585976300BC
:0F003B00D2AFE56330E203D38001C322021B7909
:10004B0002338302040FE86480F8E933E83360116C
:10005B000460F0ED33EC337009E8FCE9FDEAFEEBEC
:10006B00FF220460DED3EB9FEA9EE99DE8C2E78C9A
:10007B00F0C2F795F0400CE8CCF8E9CDF9EACEFAEE
:10008B00EBCFFB1203DA85D0F05804700320D5B305
:10009B00E80470075002B2D502041992D5EC046043
:1000AB00F7E4CCC0E0C398F8603B94186008400DAF
:1000BB00D0E0FB0203F1E4FBFAC9FC8028E830E452
:1000CB0006E4C9FBE4CAFCE830E305E4C9CACBFC8F
:1000DB00E854076010F8C3E913F9EA13FAEB13FBC2
:1000EB00EC13FCD8F130F52FC3E49CFCEF9BFFEE37
:1000FB009AFEED99FDD0E0FBEF4E4D4C701222DBDA
:10010B0003020416EC2CFCEF33FFEE33FEED33FD54
:10011B00ED30E7EB0203F1EF2BFFEE3AFEED39FD8D
:10012B00D0E0FB50130BBB0003020419ED13FDEEE3
:10013B0013FEEF13FFEC13FC0203F1EC4D6011E81F
:10014B00497017ED33EC3304600DE4FCFFFEFD2228
:10015B00E933E8330470F802040F1203DA58046031
:10016B0009E4CC24815006285009020419284003C5
:10017B00020416C0E0EB4A7044B98006D0E0FB02E3
:10018B000405EF4E701CBD8008EBFFEAFEE9FD8015
:10019B00EBE98DF0A4FEE5F002022FE9CDF9EAFEC2
:1001AB00EBFFEF89F0A4FCE5F0CE89F0A42EFFE481
:1001BB0035F0CD89F0A42DFEE435F08067EF4E705D
:1001CB0005BD80D780C3EF8BF0A4ACF0EE8BF0A411
:1001DB002CFCE435F0F8EF8AF0A42CE5F038FCE4C5
:1001EB0033CB8DF0A42CFCE5F03BF8EE8AF0A42C7D
:1001FB00FCE5F038F8E433CF89F0A42CFCE5F038BB
:10020B00CF3400CE89F0A42FFFE5F03EFEE433C9D6
:10021B008DF0A42EFEE5F039CD8AF0A42FFFE5F08A
:10022B003EFEE43DFD33D0E0FB50070BBB000F025D
:10023B000419EC2CFCEF33FFEE33FEED33FD020320
:10024B00F1020419EC5D046005E859047003020423
:10025B000F1203DA580460F6EC4860F2EC7004FD00
:10026B00FEFF22C860DB2481C85009C3986002508E
:10027B00060204169850CAF582E9294B4A7005AB61
:10028B008202040575F0007C1A7880C3EF9BEE9A0E
:10029B00ED99400DC3EF9BFFEE9AFEED99FDE84201
:1002AB00F0DC23ACF0D0E0FFD0E0FED0E0FDAB8281
:1002BB0020E7101BEB60BAEC2CFCEF33FFEE33FEA8
:1002CB00ED33FD0203F1E803F830E705C0F075F0FC
:1002DB0000EF2FFFEE33FEED33FD40B830E7C28069
:1002EB00AA74F8CC6480CCC86480C8F58204604FD3
:1002FB00C3EB9FF5F0EA9E42F0E99D42F0E89C4586
:10030B00F0603C501DE5825FFFE582D313CB5BCBE6
:10031B00F42B5582FB50280ABA002409B900200897
:10032B00801DE5825BFBE582D313CF5FCFF4C31354
:10033B002F5582FF50090EBE00050DBD00010CC3E9
:10034B00EB9FF5F0EA9E42F0E99D42F0E89C45F008
:10035B006007CC4820E701B3EC2275F020800E75C6
:10036B00F010800575F0087D007E007F003392D57C
:10037B0030D503120750EC334010EF33FFEE33FE52
:10038B00ED33FDEC33FCD5F0ED22E5F0247EA2D568
:10039B0013CC92E7CDCEFF22EDD2E7CD33EC3392E7
:1003AB00D524814006E4FFFEFDFC22FCE4CFCECD3C
:1003BB00CC24E0501174FF80EDC3CC13CCCD13CD06
:1003CB00CE13CECF13CF0470F030D5DE020750E939
:1003DB00D2E7C933E833F892D5EDD2E7CD33EC331E
:1003EB00FC5002B2D522EC30E7100FBF000C0EBE52
:1003FB0000080DBD00040BEB6014A2D5EB13FCED54
:10040B0092E7FD2274FFFCFDFEFF22E480F8A2D5EB
:10041B0074FF13FC7D80E480EFE709F608DFFA80B8
:10042B0046E709F208DFFA803E88828C83E709F001
:10043B00A3DFFA8032E309F608DFFA8078E309F2EA
:10044B0008DFFA807088828C83E309F0A3DFFA80DF
:10045B006489828A83E0A3F608DFFA805889828A4E
:10046B0083E0A3F208DFFA804C80D280FA80C6804A
:10047B00D4806980F28033801080A680EA809A80D5
:10048B00A880DA80E280CA803389828A83ECFAE41E
:10049B0093A3C8C582C8CCC583CCF0A3C8C582C8FA
:1004AB00CCC583CCDFE9DEE7800D89828A83E493B8
:1004BB00A3F608DFF9ECFAA9F0EDFB2289828A8317
:1004CB00ECFAE0A3C8C582C8CCC583CCF0A3C8C5E1
:1004DB0082C8CCC583CCDFEADEE880DB89828A83E5
:1004EB00E493A3F208DFF980CC88F0EF60010E4EA5
:1004FB0060C388F0ED2402B4040050B9F582EB24FC
:10050B0002B4040050AF232345822390047473C2BA
:10051B00D530F707B2D563F0FF05F030E70CB2D555
:10052B00F4048463F0FF05F080018430D502F404F9
:10053B0022BB010689828A83E0225002E722BBFE9E
:10054B0002E32289828A83E49322BB010CE5822990
:10055B00F582E5833AF583E0225006E92582F8E639
:10056B0022BBFE06E92582F8E222E58229F582E527
:10057B00833AF583E49322BB010689828A83F022B6
:10058B005002F722BBFE01F322EF8DF0A4A8F0CFAF
:10059B008CF0A428CE8DF0A42EFE22C2D5EC30E731
:1005AB0009B2D5E4C39DFDE49CFCEE30E715B2D552
:1005BB00E4C39FFFE49EFE1207F1C3E49DFDE49CA0
:1005CB00FC80031207F130D507C3E49FFFE49EFEC6
:1005DB0022BB0110E58229F582E5833AF583E0F52C
:1005EB00F0A3E0225009E92582F886F008E622BB49
:1005FB00FE0AE92582F8E2F5F008E222E5832AF506
:10060B0083E993F5F0A3E99322BB010A89828A83DC
:10061B00F0E5F0A3F0225006F709A7F01922BBFE74
:10062B0006F3E5F009F31922E88FF0A4CC8BF0A4C4
:10063B002CFCE98EF0A42CFC8AF0EDA42CFCEA8EA9
:10064B00F0A4CDA8F08BF0A42DCC3825F0FDE98FCC
:10065B00F0A42CCD35F0FCEB8EF0A4FEA9F0EB8FC3
:10066B00F0A4CFC5F02ECD39FEE43CFCEAA42DCE90
:10067B0035F0FDE43CFC2275F008758200EF2FFF8E
:10068B00EE33FECD33CDCC33CCC58233C5829BED5F
:10069B009AEC99E58298400CF582EE9BFEED9AFD63
:1006AB00EC99FC0FD5F0D6E4CEFBE4CDFAE4CCF913
:1006BB00A88222B800C1B90059BA002DEC8BF08486
:1006CB00CFCECDFCE5F0CBF97818EF2FFFEE33FE54
:1006DB00ED33FDEC33FCEB33FB10D703994004EB0C
:1006EB0099FB0FD8E5E4F9FA227818EF2FFFEE33D8
:1006FB00FEED33FDEC33FCC933C910D7059BE99AEA
:10070B004007EC9BFCE99AF90FD8E0E4C9FAE4CC7A
:10071B00FB2275F010EF2FFFEE33FEED33FDCC33E4
:10072B00CCC833C810D7079BEC9AE899400AED9BCD
:10073B00FDEC9AFCE899F80FD5F0DAE4CDFBE4CCAC
:10074B00FAE4C8F922C3E49FFFE49EFEE49DFDE4B6
:10075B009CFC22EB9FF5F0EA9E42F0E99D42F0EC07
:10076B006480C864809845F022EB9FF5F0EA9E42C6
:10077B00F0E99D42F0E89C45F022E8600FECC313D2
:10078B00FCED13FDEE13FEEF13FFD8F122E493FC07
:10079B00740193FD740293FE740393FF22ECF0A398
:1007AB00EDF0A3EEF0A3EFF022A8828583F0D083C7
:1007BB00D0821207CB1207CB1207CB1207CBE473F5
:1007CB00E493A3C583C5F0C583C8C582C8F0A3C590
:1007DB0083C5F0C583C8C582C822A42582F582E5EE
:1007EB00F03583F58322BC000BBE0029EF8DF0841E
:1007FB00FFADF022E4CCF875F008EF2FFFEE33FEDF
:10080B00EC33FCEE9DEC984005FCEE9DFE0FD5F015
:10081B00E9E4CEFD22EDF8F5F0EE8420D21CFEAD1E
:10082B00F075F008EF2FFFED33FD4007985006D51C
:10083B00F0F222C398FD0FD5F0EA22123B33920659
:10084B00D207123A398E238F2490003DE06009C302
:10085B00940B74809480400690003D7404F09000DB
:10086B003EE0FF64017003020CCAEF6402700302E6
:10087B000CCA1220FEB40B004003020BE690088F4B
:10088B00F82828730208C90208B0020A520209DDCF
:10089B00020A81020AAF020AE1020B13020B4902A0
:1008AB000B79020BABC205200603020BE690003E50
:1008BB00E064067003020BE6E4F0FF020960E52436
:1008CB00640545237011C205D3300301C392039015
:1008DB00003C7408F08018300315D3E5249400E530
:1008EB0023648094805005123AD150037561063011
:1008FB000303020BE6E52464064523700DD3300594
:10090B0001C3920590003C7402F0300527123B475F
:10091B004003020BE61220E5600940072011047F1B
:10092B000880327FCD7ECC7D2C1220EB6038403698
:10093B007F07805BE5246401452370307F9A7E99A5
:10094B007D391220EB6010400E3001047F028005D0
:10095B0090003DE0FF80387FCD7ECC7D2C1220EBCC
:10096B0060044002802F756106020BE612212C7089
:10097B0021301103020BE61220E5600740057F08CA
:10098B00020B743001047F02800590003DE0FF02F2
:10099B000B743006057F03020B7412213370057F35
:1009AB0009020B74E524640445237018D33001014C
:1009BB00C392017F082001027F098F61C207121FBA
:1009CB0047020BE6123B4E4003020BE6123B3E0284
:1009DB000BE67D03120CCB7012200203300405C210
:1009EB0007121F47C202C204123A76E5246405457A
:1009FB00237005200402D20430040312304030026D
:100A0B0003020BE6300403020BE6E52464044523E2
:100A1B007002D202200603020BE67F9A7E997D3983
:100A2B001220EB60025003020BE67F043001027FC1
:100A3B0002122E10300103123678900040E0444031
:100A4B00F0755B04020BE67D02120CCB60083005DF
:100A5B0008123B474003123A7612212C70082011E2
:100A6B00057F08122E1012213370057F09122E10EC
:100A7B00122D13020BE67D04120CE36008300508FF
:100A8B00123B474003123A7612212C7008201105B5
:100A9B007F08122E1012213370057F09122E107F42
:100AAB0005020BE37D04120CD76008300508123BDE
:100ABB00474003123A7612212C70082011057F084B
:100ACB00122E1012213370057F09122E107F061281
:100ADB003B047F0480627D05120CD760083005084B
:100AEB00123B474003123A7612212C700820110555
:100AFB007F08122E1012213370057F09122E107FE2
:100B0B0007123B047F0580307D06120CEF60083026
:100B1B000508123B474003123A7612212C7008202D
:100B2B0011057F08122E1012213370057F09122E2A
:100B3B00107F04123B047F06123B14020BE67D0769
:100B4B00120CEF6008300508123B474003123A764F
:100B5B0012212C600330130A7F043001027F021232
:100B6B002E1012213370747F09122E10806D7D09A7
:100B7B00120CE36008300508123B474003123A762B
:100B8B0012212C70082011057F08122E1012213310
:100B9B00700A7F043001027F02122E107F0A803808
:100BAB007D0A7F01123110E5246401452360083072
:100BBB000508123B474003123A7612212C7008208D
:100BCB0011057F08122E10122133700A7F04300199
:100BDB00027F02122E107F09123B0490003C122060
:100BEB00D5400D9000171207B442A00000020CAEC6
:100BFB00200D091220FE640970028008AF5BEF1212
:100C0B0020D7400D9000171207B4BF800000020CD4
:100C1B00AE1220FE64027006AC59AD5A807B1220D6
:100C2B00FE640A7009122191AC06AD07806B12208D
:100C3B00FE6403705E90003FE014601C146025148A
:100C4B00602E146037146040240570579000171203
:100C5B0007B441200000804B9000171207B441C825
:100C6B000000803F9000171207B442480000803309
:100C7B009000171207B442C800008027900017128B
:100C8B0007B443480000801B9000011205DCFDAC4B
:100C9B00F08006122120FDACF0EC12036A900017D5
:100CAB001207A8900017E0FCA3E0FDA3E0FEA3E071
:100CBB00FF1203A3121C80900052EEF0A3EFF02260
:100CCB007F01123110E5246401452322E4FF123128
:100CDB0010E52464014523227F01123110E52464C1
:100CEB0001452322E4FF123110E524640145232240
:100CFB008F2812053CFF14601514602814603D14F6
:100D0B00603A2404705C12252612256D8029122569
:100D1B0026F5827401F52D85822EE582F4F5827518
:100D2B002F008013122526F4F582752D0085822E57
:100D3B00EDF5827401F52F8582308026ED12256D3D
:100D4B00858230EDF5827401F52985822AEF6404E2
:100D5B007007EDFF7401FE8005EDF4FF7E008E2B16
:100D6B008F2C9000011205557007EDFF7401FE806A
:100D7B0005EDF4FF7E008E318F3290000212055587
:100D8B007007EDFF7401FE8005EDF4FF7E00E52892
:100D9B00147003020E37147003020EBA14700302A0
:100DAB000F3D24036003020FC7E529AB9A30E00621
:100DBB00E52A4BFD8004E52A5BFD8D9AE52B30E09F
:100DCB000890F009122595800690F00912259C9049
:100DDB00F009EDF0E52D30E00512257D800690F051
:100DEB000A1225A390F00AEDF0E52F30E00512254D
:100DFB0085800690F00B1225AA90F00BEDF0EE30EB
:100E0B00E0051225B9800890F00CE0FBEF5BFD903C
:100E1B00F00CEDF0E53130E0051225B1800690F0D5
:100E2B000D1225C0AF0590F00DEDF022E529ABA119
:100E3B0030E006E52A4BFD8004E52A5BFD8DA1E53C
:100E4B002B30E00890F019122595800690F01912BE
:100E5B00259C90F019EDF0E52D30E00512257D80F5
:100E6B000690F01A1225A390F01AEDF0E52F30E062
:100E7B0005122585800690F01B1225AA90F01BED1C
:100E8B00F0EE30E0051225B9800890F01CE0FBEF86
:100E9B005BFD90F01CEDF0E53130E0051225B180E3
:100EAB000690F01D1225C0AF0590F01DEDF022E568
:100EBB0029ABA230E006E52A4BFD8004E52A5BFD59
:100ECB008DA2E52B30E00890F02912259580069035
:100EDB00F02912259C90F029EDF0E52D30E005125C
:100EEB00257D800690F02A1225A390F02AEDF0E5DF
:100EFB002F30E005122585800690F02B1225AA9045
:100F0B00F02BEDF0EE30E0051225B9800890F02CB7
:100F1B00E0FBEF5BFD90F02CEDF0E53130E00512DE
:100F2B0025B1800690F02D1225C0AF0590F02DED68
:100F3B00F022E529ABA330E006E52A4BFD8004E562
:100F4B002A5BFD8DA3E52B30E00890F03912259537
:100F5B00800690F03912259C90F039EDF0E52D309C
:100F6B00E00512257D800690F03A1225A390F03A09
:100F7B00EDF0E52F30E005122585800690F03B1251
:100F8B0025AA90F03BEDF0EE30E008A3E0FDEF4D2D
:100F9B00FF800890F03CE0FDEF5DFF90F03CEFF040
:100FAB00E53130E009A3E0FDE5324DFF800990F01B
:100FBB003DE0FDE5325DFF90F03DEFF022C3900088
:100FCB000DE0942C90000CE0648094815071E4FF50
:100FDB00FE7D7A7C44AB11AA10A90FA80E12014614
:100FEB001203A38F288E278D268C2590000DE004ED
:100FFB00F0700690000CE004F0121AA52528FFEE05
:10100B003527FEED3526FDEC3525FC900008120743
:10101B00A8121B0FC3121B56500A900004E527F0B1
:10102B00A3E528F0900006121B12D3121B56500397
:10103B000210C9900006E527F0A3E528F0807F1287
:10104B001AA5FFC004C005C006C007900006E0FE4D
:10105B00A3E0FBAA06EA3395E0F9F8121B0FEF2B7E
:10106B00FBEE3AFAED39F9EC38F8D007D006D0059B
:10107B00D004C3EF9BFFEE9AFEED99FDEC98FC12AA
:10108B001A9FFFC006C00790000DE024FEFF9000E2
:10109B000CE034FFAB07FA3395E0F9F8D007D00634
:1010AB00123536121A9FFFEC120365121B6190006A
:1010BB000F1207A8121AC31207B400000000AB5D91
:1010CB00AA5EA95F9000051205DCFDACF04C700622
:1010DB00C214C215802CEC12036A121B61121A6A1D
:1010EB0060054003C38001D392147FCD7ECC7D2C51
:1010FB00121A6860054003C38001D39215301502A4
:10110B00C214900003E014602314604C14607A2422
:10111B000360030211BE7466FFFEFD121A684003E2
:10112B000211BE9000037401F00211BE7F337E33B7
:10113B007D73121A6860074005E4900003F07FCDC1
:10114B007ECC7D4C121A685003121B727433FFFE57
:10115B00FD121A68505D80297F667E667D76121AB5
:10116B006860074005E4900003F0121A63600740C3
:10117B0005E4900003F07F9A7E997D39121A68502E
:10118B00329000037403F0802A7F667E667D7612B0
:10119B001A6860074005E4900003F0121A636007B9
:1011AB004005E4900003F07D40121A656005400392
:1011BB00121B72AF61EF64066054AF61EF6408609D
:1011CB004DAF61EF6409604690003EE06003022D75
:1011DB0097AB5DAA5EA95F12053C7005121B4A60B6
:1011EB0021900003E014600E14600F1460102403B0
:1011FB00701C756101227561042275610222756193
:10120B000322900002E0600302145CE4F561227596
:10121B00230075244078177C007D017BFF7A3D7994
:10122B00D07E007F141204F412002E500D7408129D
:10123B0027EA700302145B021456E4FFFE7DB07CB8
:10124B0040AB15AA14A913A8121202EC50030214F6
:10125B005BC283C285C281D206123728D2847F0536
:10126B007E0012224A1200477F337E337DE37C409F
:10127B00AB0DAA0CA90BA80A1202EC6002500DE5EB
:10128B002415247002152312281550D2E52445236A
:10129B00700EC284041227EA700302145B02145608
:1012AB00752300752464C2847F147E0012224AC207
:1012BB00061237281200477F0A7E0012224A752534
:1012CB00007526041227FAC333CE33CED8F9241374
:1012DB00F5827400122821C004C005C006C0071295
:1012EB0027FAC333CE33CED8F92417F58274003ED8
:1012FB00F583D007D006D005D0041207A8E5261534
:10130B002670021525E526452570B9AF0DAE0CAD3F
:10131B000BAC0A9000171207A8E4F52AF529F5285B
:10132B00F527F525F526122801C004C005C006C017
:10133B00071227FAC333CE33CED8F91227C9D007F9
:10134B00D006D005D0041200558F2A8E298D288CFB
:10135B00270526E526700205256405452570C7126D
:10136B002801E4FBFA79A0784012024F8F2A8E29CC
:10137B008D288C27E4F52EF52DF52CF52BF525F581
:10138B0026AF2EAE2DAD2CAC2BC004C005C006C0B5
:10139B00071227FAC333CE33CED8F91227C9122836
:1013AB0001120051E4FBFAF9F81202EC500F12276C
:1013BB00FAC333CE33CED8F91227C9801D1227FAC0
:1013CB00C333CE33CED8F92417F5827400122821FB
:1013DB00E4FBFA798078BF122855122801120051CC
:1013EB00AB07AA06A905A804D007D006D005D004E0
:1013FB001200558F2E8E2D8D2C8C2B0526E52670ED
:10140B0002052564054525600302138CC3E524946E
:10141B005D12281A5015E4FFFEFD7C3FAB2EAA2D62
:10142B00A92CA82B1202EC60025010E52415247095
:10143B0002152312281540030212BFE52445237021
:10144B000F90003E74021227ED60057F01122E10E3
:10145B0022900002E014B4090040030216419014DC
:10146B007775F003A4C58325F0C58373021492022C
:10147B0014A502152A0215550215850215B0021581
:10148B00F4021620021632E4F561121B2A900000BA
:10149B00E4F0A3740EF0A37402F0900000E0FEA33E
:1014AB00E0FFD3940CEE648094804005756101805D
:1014BB0023D3EF940AEE6480948040057561048019
:1014CB0013D3EF9408EE648094804005756102801D
:1014DB0003E4F561D3EF9400EE6480948040030243
:1014EB001641900013121AA8FF1203A37D64121A5F
:1014FB00EAAE29AF2A7C007D0A1205A68E298F2A17
:10150B00E52A45297005121B38800D121B6BC3335E
:10151B00CE33CED8F9121AF49000027403F0229055
:10152B000000E0B4FF0AA3E0B4FF057F02121642ED
:10153B00121A7B40027F02121B1E4003021641123D
:10154B001B41740AF0A37404F022121AB340030275
:10155B001641900013121AA8121AE0E52A452970B9
:10156B0005121B38800D121B6BC333CE33CED8F94B
:10157B00121AF49000027405F022900000E0B4FF00
:10158B000AA3E0B4FF057F04121642121A7B400235
:10159B007F04121B1E4003021641121B41740AF0FA
:1015AB00A37406F022121AB34003021641900013E3
:1015BB00121AA8FFE4FBFA79207841120146121B9C
:1015CB0032900013121AA8121AE0E52A4529700569
:1015DB00121B38800D121B6BC333CE33CED8F912CE
:1015EB001AF49000027407F022900000E0B4FF0E92
:1015FB00A3E0B4FF097F011236B4E4121B3A121AAE
:10160B007B40027F01121B1E502C121B41740CF0ED
:10161B00A37408F022121AB3501C90000E7480F0C1
:10162B009000027409F022121B4A700A123B4E40C2
:10163B0005E4900002F0221236B4E4900000F0A30F
:10164B00F022E51A700C74051238A370030217CE42
:10165B0080491238B3D3EF9441EE648094804002FA
:10166B00D213D3EF943CEE648094804004D211806B
:10167B000DC3EF9432EE648094805002C21130138C
:10168B0005201102C213D3EF944BEE64809480407B
:10169B000F74061238A370030217CE7F01022E10AF
:1016AB001238B3C3EF9437EE64809480500D9000E2
:1016BB003EE064067005F0FF122E10AB5DAA5EA92A
:1016CB005F9000081205557004C212801F1238B3C8
:1016DB00D3EF9434EE648094804004D212800DC317
:1016EB00EF942AEE648094805002C21220120AE416
:1016FB00F51BF51CF51DF51E22D3900053E094004D
:10170B00900052E06480948050030217CE1238B3DD
:10171B00EF24CCFFEE34FFAB07FAD3EB9401EA6472
:10172B00809480403FE0FEA3E0FF7C177D701205A4
:10173B00A6D3EF9400EE648094804002801D90004D
:10174B0052E0FEA3E0FFC3E49FFFE49EFE7C177D07
:10175B00701205A6EF2401FFE43EFEAD03AC0212AE
:10176B00059480047E007F00EF251EF51EEE351DCF
:10177B00F51DD3E51E9450E51D648094C640067597
:10178B001D46751E50C3E51D648094805005E4F51D
:10179B001DF51EEB251CF51CEA351BF51BD3E51CB3
:1017AB0094E0E51B648094AE4006751B2E751CE01F
:1017BB00C3E51C9420E51B648094515006751BD126
:1017CB00751C20228E348F358D3690F692E030E7E3
:1017DB0008E4FFFEFD7C408008AF19AE18AD17ACD6
:1017EB001612319DAC34AD35EC12036AC004C00542
:1017FB00C006C007E4FBFA79807845AF3EAE3DAD3D
:10180B003CAC3B12024FD003D002D001D0001201EE
:10181B00468F428E418D408C3FE536604124FA70F5
:10182B00030218B824F970030218ED24EE600302CA
:10183B001943AC34AD35EC12036AA804A905AA060A
:10184B00AB077F9A7E997D997C4512024F8F3A8E1A
:10185B00398D388C378F198E188D178C1622753A57
:10186B003575394875380312317E8F158E148D13EB
:10187B008C12AB15AA14A913A8121231B15013AFC5
:10188B0015AE14AD13AC121231A68F158E148D1329
:10189B008C12E4FBFA79407840AF15AE14AD13AC63
:1018AB001212024F8F118E108D0F8C0E22753A2D46
:1018BB007539A675383312317E8F0D8E0C8D0B8CCE
:1018CB000AAB0DAA0CA90BA80A1231B1506AAF0DC5
:1018DB00AE0CAD0BAC0A1231A68F0D8E0C8D0B8C92
:1018EB000A22AB42AA41A940A83FAF19AE18AD17C7
:1018FB00AC16120051C004C005C006C007E4FFFEC1
:10190B007DA57C43AB42AA41A940A83F120146D01A
:10191B0003D002D001D00012024F12319DE4FBFA2A
:10192B00797A784412014612319D1203A37B007A17
:10193B0000791A121E688F0922201207E4900054B6
:10194B00F08023900054E0FF3395E0FED3EF940832
:10195B00EE648094804009C207C208E4F560F0226F
:10196B00900054E004F0E561B40A004003021A57FA
:10197B00901982F82828730219A00219AA0219B12A
:10198B000219BF0219B80219BF0219FB021A57023A
:10199B001A2B0219FBC207C208E4F560021A57C2E0
:1019AB0007D208021A57D207C208021A57D207D217
:1019BB0008021A57C208E560547FFFAE61EE64035C
:1019CB007E0070027E03C3EE6480F8EF6480985053
:1019DB00090F536080EF4260800B12352C7F8060C3
:1019EB00027F008F6012352CC36001D39207805C9D
:1019FB00C20853607FAF61EF64097F0A70027F06F4
:101A0B00D3EF6480F8E5606480984004C2078029B6
:101A1B0012351F6001D39206A20692070560802C37
:101A2B00C20753607FAF60EF3395E0FED3EF9406B0
:101A3B00EE648094804007C208E4F561800E123595
:101A4B001F6001D39206A20692080560A2079209B5
:101A5B00A208920A12378F227D60E4FFFE7C409031
:101A6B00000FE0F8A3E0F9A3E0FAA3E0FB0202EC1D
:101A7B00900000E0FAA3E0FB7C007D04FFAE0212B5
:101A8B0005A68C298D2AD3E52A9401E52964809437
:101A9B00807F00229000081207A8900008E0FCA3AA
:101AAB00E0FDA3E0FEA3E022D3900001E0940090C0
:101ABB000000E06480948022900004747FF0A37493
:101ACB00FEF0A37480F0A37402F0E490000CF0A37A
:101ADB00F090000822FF1203A38E298F2A7D0A7C27
:101AEB00001205A68C298D2A2224FFFFEE34FF90CD
:101AFB000000F0A3EFF0227C40AB11AA10A90FA8B5
:101B0B000E0202EC900004E0FEA3E0FFEE3395E042
:101B1B00FDFC228F61D3EB9400EA6480948022AFAA
:101B2B0015AE14AD13AC129000130207A874FF90FE
:101B3B000000F0A3F022E4F561900000F0A32290E6
:101B4B00000EE05480FF3395E04F22AB28AA27A963
:101B5B0026A82502075EE4FBFA797A784402024F45
:101B6B00AE29E52A7802229000037402F022E508E0
:101B7B0064037002F508E508146042147003021C3C
:101B8B0029147003021C7024036003021C6DD2071E
:101B9B00123AA7E4F52FF53074E42530F582743D45
:101BAB00352FF583E493FF123171EFF00530E530FB
:101BBB007002052F6404452F70DE021C68E4F52FBC
:101BCB00F530123171E0FF1231BB400F1231C540BD
:101BDB0018EF941FEE64809480500E0530E5307042
:101BEB0002052F6404452F70D9C3E5309404E52F0B
:101BFB00648094805023123171E0F533FF3395E00C
:101C0B00FE4F6006EF64064E7005C207123AA7AF8F
:101C1B0033123334750802804C75080380477537CF
:101C2B00007538007539337B007A00793112272023
:101C3B00EF4E6031AD33AF32AE311217CFE4F52F2B
:101C4B00F530123171E0B5330612317174FEF005C7
:101C5B0030E5307002052F6404452F70E5750801DF
:101C6B008003E4F508900037E06009E50864036041
:101C7B0003021B79228E258F2620120122AC1DAD6B
:101C8B001EEC12036A7B007AA0798C784612024F05
:101C9B008F2A8E298D288C27E4FBFA79C87842127B
:101CAB000146121D69AC1BAD1CEC12036A7B007A5A
:101CBB0080793B784612024F8F328E318D308C2FCC
:101CCB00AB2AAA29A928A827C000C001C002C003BB
:101CDB00E4FFFE7D207C41AB32AA31A930A82F1244
:101CEB000146D003D002D001D000120055121D695D
:101CFB00D3E5269484E5256480948350057E037F89
:101D0B008422E526247CFDE52534FCFC12036AE4E1
:101D1B00FBFA79C8784212024F8F2E8E2D8D2C8CA8
:101D2B002BAB2EAA2DA92CA82BC000C001C002C022
:101D3B0003AB2AAA29A928A8271238BB120051D015
:101D4B0003D002D001D0001201468F2E8E2D8D2C88
:101D5B008C2B1203A3EF2484FFEE3403FE228F2A75
:101D6B008E298D288C271237C18F2A8E298D288C8E
:101D7B0027228B3C8A3D893E8F428E418D408C3F82
:101D8B00E4F543F54BF54AF549F548E4FFFEFDFC58
:101D9B00AB42AA41A940A83FD312075E5003021ED3
:101DAB0030AB3CAA3DA93E854B82854A8312055533
:101DBB006243E4754708F546F545F544E4FFD31255
:101DCB003805402DE54330E70825E06407F54380EF
:101DDB0006E54325E0F54374FF2547F547E5463413
:101DEB00FFF546E54534FFF545E54434FFF5448002
:101DFB00CBE4FAF9F8E54B2401F54BEA354AF54A01
:101E0B00E93549F549E83548F54874FF2542F5426F
:101E1B00E54134FFF541E54034FFF540E53F34FF44
:101E2B00F53F021D96E4F547F546F545F544E47F8D
:101E3B0029C31238055023E547903DA7936243E42D
:101E4B00FAF9F8E5472401F547EA3546F546E93551
:101E5B0045F545E83544F54480D4AF43228B438A9E
:101E6B004489458F498E488D478C467FD57E2C7D86
:101E7B00517C00D31239ED40061239E37FD822E4AE
:101E8B007FE37E0AC31239D650061239E37F7D22D7
:101E9B0074011239E4E47FF57EF5D31239D640385C
:101EAB00E4F54AF54BAE4AE54B7802C333CE33CE5D
:101EBB00D8F92462F582743B3EF583120798C3125E
:101ECB0039ED4006E54B24D8FF22054BE54B70025C
:101EDB00054A644B454A70CDE4F54AF54BE54B2575
:101EEB00E0FFE54A33FE748E2FF582743C3EF5839A
:101EFB00E493FE740193FFE48F4F8E4EF54DF54C3A
:101F0B00E54FF54FE54EF54EE4F54DF54CAF49AECB
:101F1B0048AD47AC46AB4FAA4EA94DA84CD31207C0
:101F2B00745006E54B2423FF22054BE54B7002054D
:101F3B004A645B454A70A61239E3FF22C2AF0075B3
:101F4B00FBAA200733E4F52CF52DE52DF5FCE52C4C
:101F5B00FFEFF5FD0075FF11000000000000E5FF2D
:101F6B0020E0FB742E252DF8A6FE052DE52D700225
:101F7B00052C6407452C70D2900055E0F537A3E093
:101F8B00F53890003FE0F53A855935855A367F0094
:101F9B003001027F018F397A007935123813121D07
:101FAB007D8F3B200707E53BB534028054E4F5FCFD
:101FBB00F5FD0075FF1D000000000000E5FF30E09F
:101FCB0006E5FF30E5F622E4F52CF52DAF2D743543
:101FDB002FF8E6F5FEEFF5FCE52CFFEFF5FD0075B0
:101FEB00FF19000000000000E5FF30E006E5FF30C0
:101FFB00E5F622052DE52D7002052C6407452C70A6
:10200B00CB75FB5500D2AF22200E030220D130102E
:10201B002390F129E030E0030220D190F164E0300D
:10202B000F0554FEFF80034401FF90F164EFF0C2F3
:10203B000EC21022E4FFFE7DC87C42123B2412022A
:10204B00EC600C400A90004C1207B442C80000E44C
:10205B00FFFEFDFC123B241202EC500A90004C12C6
:10206B0007B400000000AF26AE25AD24AC23EC4D29
:10207B004E4FC36001D3920F7F007E807DBB7C45AA
:10208B00123B24120146E4FBFA798078BF1200550B
:10209B008F268E258D248C23E4FBFA79C878421287
:1020AB00024F8F268E258D248C231203A3AD07ACF4
:1020BB0006ECFFEF90F141F0ED90F140F0D2109073
:1020CB00F129E04401F022900042E0FF3395E0FE5D
:1020DB00D3EF9400EE64809480227F667E667D460B
:1020EB007C4090000FE0F8A3E0F9A3E0FAA3E0FB3B
:1020FB000202ECAB5DAA5EA95F02053C75F0049091
:10210B000042E0FD12051AAFF0EF3395E0F5258F95
:10211B0026D3E52622900001AB5DAA5EA95F0205DE
:10212B00DCE5246402452322E5246403452322FFD6
:10213B00AEF0E55A9FEE6480F8E55964809822E092
:10214B0054C0F0C3ED9406EC6480948022E0FF54FD
:10215B003FF523FD3395E0FC4D229401E52564808A
:10216B00948022EF3395E0FEC3EF22EDFF3395E031
:10217B004F22E0FE5480FD3395E04D22755B048EBB
:10218B00598F5AD20022900043E0B407004003025B
:10219B0022459021A4F82828730221B90221C602F6
:1021AB0021E10221EF02220F02221D02223D9000AB
:1021BB0042740BF0A37401F0022245122107122185
:1021CB00654002805512217670709000427407F0C2
:1021DB00A37402F080641220D2505F7423F0A374B6
:1021EB0003F0805675F00C12210A940512216740FA
:1021FB0002802712217670429000427407F0A3747C
:10220B0004F080361220D25031740BF0A37405F019
:10221B0080281221071221654007122120FFAEF002
:10222B002212217670149000427423F0A37406F0EE
:10223B0080081220D25003E4A3F07EFF7FFF228E92
:10224B002F8F30E4F535F536E530452F700302223C
:10225B00FF0536E53670020535AE2FAF30EE339500
:10226B00E0FDFCE47BA07A0FF9F81206338F348E75
:10227B00338D328C31C006C007AE35AF36AB07AAF3
:10228B0006EA3395E0F9F8D007D0061206BE8F3474
:10229B008E338D328C31E47FFF7EFFFDFCAB34AA95
:1022AB0033A932A831C312077450A6C374FF9534F7
:1022BB00F53474FF9533F533E49532F532E495310B
:1022CB00F531AF34AE33AD32AC3178081207858FB0
:1022DB008CE534FF8F8AC20B438810E58820E50319
:1022EB00300BF85388CFE536153670021535E536C9
:1022FB00453570CE221238E3700590004BF022D397
:10230B00900053E09400900052E06480948050035E
:10231B000223B490004BE0547FF523E4FFFE7D9045
:10232B001238EC50191238CE5007E5232402FF80E7
:10233B00027F088F2390004BE0547FF080417FCDCC
:10234B007ECC7DE41238EC601A40181238CE500661
:10235B00E52304FF80027F088F2390004BE044802D
:10236B00F0801CAF23EF3395E0FED3EF9400EE64C7
:10237B008094804006E52314FF80027F008F23901A
:10238B00004BE05480F04523F01238CE401BE05454
:10239B0080FF3395E04F7F0360027F04EF1238DF3D
:1023AB00640160057F01122E1022EF146038146057
:1023BB005F14700302244524036003022468122572
:1023CB0050400302246830070EA8057401088002F0
:1023DB00C333D8FC428022A8057401088002C333A2
:1023EB00D8FCF452802212253B5072122547406DC7
:1023FB0030070EA8057401088002C333D8FC429045
:10240B0022A8057401088002C333D8FCF452902231
:10241B0012251A5048122559404330070EA805744F
:10242B0001088002C333D8FC42A022A8057401081E
:10243B008002C333D8FCF452A022ED12251E501D8E
:10244B0030070EA8057401088002C333D8FC42B0D4
:10245B002212258D8002C333D8FCF452B022C2AFB6
:10246B000075FBAAE4F523F5248524FCE523FF8FF7
:10247B00FD0075FF11000000000000E5FF20E0FBF0
:10248B0074252524F8A6FE0524E524700205236493
:10249B0007452370D475FB5500D2AF7A007925120E
:1024AB003813121D7DEFB52B1F900055E527F0A3B8
:1024BB00E528F090003FE52AF085255985265AE559
:1024CB0029C36001D3920122E490003FF0755903B8
:1024DB00755A209000557409F0A3745FF0E4F5234E
:1024EB00F524903D441237F06402700D903D471275
:1024FB0037F0F559740193F55A0524E5247002055C
:10250B0023640B452370DBC201D207121F4722ED58
:10251B00FF7E00D394067480948022EDF4F58275CF
:10252B00830085832985822A85832B85822CED2246
:10253B00EDFF7E00D394077480948022C3EF940345
:10254B007480948022EDD394057480948022C3EF21
:10255B0094017480948022FBE434F0FAA805740192
:10256B000822F4F58275830085832D85822E858361
:10257B002F22A3E0FBE52E4BFD22A3E0FBE5304B26
:10258B00FD22AF05A80774010822E0FBE52C4BFDEB
:10259B0022E0FBE52C5BFD22E0FBE52E5BFD22E060
:1025AB00FBE5305BFD22A3E0FBE5324BFD22A3E014
:1025BB00FBEF4BFD22E0FBE5325BFD22E4F5DE9009
:1025CB00F692F090003704F0E4F508FFEFFD339539
:1025DB00E0FCC3ED9404EC648094805015EF3395CC
:1025EB00E0FC742B2DF58274003CF58374FEF00F28
:1025FB0080DA90002F1207B400000000123194F023
:10260B00A3F0FB7D017F03122EF8E4FB7D037F011A
:10261B00122EF8E4FBFDFF122EF8752503E4F526C8
:10262B00F527FB7D027F0312266A7D087F011226A8
:10263B006A7A0079257D01E4FF120CFBC2077D014C
:10264B007F031223B5C2077D037F011223B5C20797
:10265B00E4FDFF1223B5C207E4FD7F030223B57A25
:10266B00007925120CFB7B0022900052E0FEA3E0C8
:10267B00FF900050E06E7003A3E06F70030227150C
:10268B00900050EEF0A3EFF0D39400EE64809480B2
:10269B00502190004C1207B400000000900050E055
:1026AB00B4FF08A3E0B4FF03D38001C392811228C7
:1026BB004E8055900050E0FEA3E0FFC394F4EE640F
:1026CB0080948150278E278F2812283E7DC87C420C
:1026DB001227167D187C411228611202EC500280E1
:1026EB0001C39281D284D283C285801C900050E0BA
:1026FB00F527A3E0F52812283E7D407C40122716D3
:10270B00D281D284C283D285D20E221229A9900003
:10271B004C1207A8228B348A358936E5DF30E1026B
:10272B008050900034E004F07006900033E004F029
:10273B0090002FE0F8A3E0F9A3E0FAA3E0FBAFDDF4
:10274B00EFFEADDCEDFFEE3395E0FDFCEB2FFFEA8A
:10275B003EFEE93DFDE83CFC90002F1207A8C3901C
:10276B000034E0940A900033E06480948050074377
:10277B00DF02E4FEFF2290002FE0FCA3E0FDA3E0CC
:10278B00FEA3E0FFE47B0AFAF9F812353690002F2E
:10279B001207A890002FA3A3E0FFA3E0AB34AA3548
:1027AB00A936CF8FF0120614900035E0AB37AA385C
:1027BB00A939120582E4900036F0FE7F012224171E
:1027CB00F58274003EF583E0F8A3E0F9A3E0FAA3E9
:1027DB00E0FB2212024F8F308E2F8D2E8C2D2290EC
:1027EB00003EF0AB5DAA5EA95F12053C640122AE10
:1027FB0025E526780222AF2AAE29AD28AC2722ABDD
:10280B0030AA2FA92EA82D0202ECD3E5249400E5C3
:10281B002364809480223EF583E0FCA3E0FDA3E0DB
:10282B00FEA3E0FF22E4900052F0A3F0900050F0E2
:10283B00A3F022E4F52CF52B752A8075293FFFFEBA
:10284B0022C281C284C283C28522120146A804A976
:10285B0005AA06AB0722E4FFFEAB19AA18A917A815
:10286B001622E4F525F526F527FB7A0079257D025E
:10287B007F01120CFB7B007A0079257D01E4FF12AE
:10288B000CFB7D021228FF7B017D017F03122EF8CA
:10289B007B017D037F01122EF87B01E4FDFF122EDD
:1028AB00F8752503E4F526752701FBFD7F03122E32
:1028BB00F87D011228FFD207E4FD7F031223B575C3
:1028CB00DF4075DE60E4F5E9F5D1F5D375D50F750D
:1028DB00D4FF90F69274A0F0E4F50890002F120745
:1028EB00B400000000123194F0A3F0A304F043DE17
:1028FB00800200477B007A0079257F03120CFB22B4
:10290B007D087F0212384B4049900057E025E0F0DC
:10291B0030A306E04401F08007900057E054FEF02E
:10292B00900057E0FF7E00F46003EF7025E4F5B4F0
:10293B00EFF44ED37001C39216900057E0F47B0175
:10294B0070027B027D037F021231CF7D087F021262
:10295B003A58301608E55330E70375538030162785
:10296B00E55264897021120003D3EF9400EE64806A
:10297B0094804005123A8F800BE4F556F558755547
:10298B0001755401E4F552201613E5536484700D60
:10299B00F553E554700475570122E4F554228F2644
:1029AB008E258D248C23AC27AD28EC12036AAB2C1F
:1029BB00AA2BA92AA829120146AB26AA25A924A825
:1029CB00231201461227E1E4FBFA797A78441227A5
:1029DB00DE7B9D7A69795C783C1227DEC004C005EA
:1029EB00C006C0077D7A7C44122861122855D00797
:1029FB00D006D005D0041227DEE4FBFA79C8784262
:102A0B001201461227E1E4FFFE7DC87C4212280A20
:102A1B00600D400BE4F530F52F752EC8752D42E493
:102A2B00FFFEFDFC12280A5009E4F530F52FF52EB8
:102A3B00F52DAF30AE2FAD2EAC2D2278FFE4F6D8AE
:102A4B00FD9000007F007E04E4F0A3DFFCDEFA754E
:102A5B008163022A9B022F6AE493A3F8E493A340B9
:102A6B0003F68001F208DFF48029E493A3F85407FE
:102A7B00240CC8C333C4540F4420C8834004F456F9
:102A8B00800146F6DFE4800B010204081020408031
:102A9B00903462E47E019360BCA3FF543F30E509A0
:102AAB00541FFEE493A360010ECF54C025E060A831
:102ABB0040B8E493A3FAE493A3F8E493A3C8C582C4
:102ACB00C8CAC583CAF0A3C8C582C8CAC583CADF32
:102ADB00E9DEE780BEEF14602214603C14605624DC
:102AEB0003707012255040028069ED24801225621C
:102AFB008002C333D8FC55ACFC805C12253B5005DF
:102B0B001225475002804CED24881225628002C3A7
:102B1B0033D8FC55ADFC803F12251A5005122559B0
:102B2B005002802FED24901225628002C333D8FC13
:102B3B0055AEFC8022ED12251E40028016ED249826
:102B4B00FBE434F0FA12258D8002C333D8FC55AF69
:102B5B00FC8004E4FEFF22EC7003FEFF228B828AD2
:102B6B0083E05403FF7E00227B147D047F02122E30
:102B7B00F87B157D057F02122EF890F121E0440CB5
:102B8B00F090F1247401F090F12C74FFF0A3F0900D
:102B9B00F127E0440CF0A3740CF090F164E0440CCA
:102BAB00F090F1357409F090F134745FF090F137D7
:102BBB007409F090F136745FF01235119489400767
:102BCB007409F0A3745FF0C3900056E09432123591
:102BDB001894805006E4F0A37432F01234F090F1A4
:102BEB0026E0440CF090F129E0440CF090F129E040
:102BFB00540C70F822900002E0700BAB5DAA5EA93A
:102C0B005F12053C600775500075512822D3E551C2
:102C1B009400E550648094804009E5511551700291
:102C2B00155022C206123877438704438702123AA3
:102C3B00BCD207123921123A197F017E0012224AA7
:102C4B0012290B123AD150F1D206123877E4F52340
:102C5B00F524120047120FC83015130524E5247014
:102C6B00020523C39403E5236480948040E4E524A8
:102C7B00640345237005F55075510FE4900037F050
:102C8B0022752503E4F526752701C2077D02FF1285
:102C9B0023B57B007A0079257D04E4FF120CFB7BC6
:102CAB00127D02E4FF122EF890F120E4F0A304F061
:102CBB0090F123F090F12A74FFF090F122E4F09060
:102CCB00F12704F0A3F090F160E4F090F165F0903F
:102CDB00F16404F090F1317417F090F130746FF0EF
:102CEB0090F141E4F090F140F090004C1207B400E9
:102CFB00000000C210C20E90F1267401F090F12971
:102D0B00F090F129E070FA22123B47500C20000999
:102D1B007403255AF55AE48010123B4E50112000D3
:102D2B000E74FD255AF55A74FF3559F559800F125B
:102D3B003B4E400A123B474005300002C200123B9B
:102D4B0047500F20000C122120C312213A400312CE
:102D5B002187123B4E501220000F900003122123AB
:102D6B00D312213A5003122187123B474005123BE5
:102D7B004E5004E4F55C22AF5CEF3395E0FEEF645C
:102D8B00204E7007055CC207121F4722900044E0DB
:102D9B00FEA3E0FFC39405EE64809480501AEE709E
:102DAB0015EF14600B14600C240270557561012231
:102DBB00756104228045804990003EE0FF7E007CD7
:102DCB00007D06120594EF2405FFE43EFE900044BF
:102DDB00E0FCA3E0FDC39FEE6480F8EC64809850A8
:102DEB0020ED24FBFFEC34FFFE7C007D031205A6D7
:102DFB007C007D021205A6ED4C70047561022280E9
:102E0B0000E4F561228F2F1220FEF532E4F530F548
:102E1B0031903D4475F009E5311207E5E53075F069
:102E2B0009A42583F583E493652F703A900043F052
:102E3B00AE30AF31FC7D0912059474442FF9743D0B
:102E4B003E755DFFF55E895FE52F64087014E53212
:102E5B006408600EAF15AE14AD13AC1290004612A1
:102E6B0007A8E4FEFF220531E53170020530640B43
:102E7B004530709D7E007F0122123B47500512208A
:102E8B00FE7007E4900040F080299000401221581A
:102E9B007007EF20E6034480F090004012214A5067
:102EAB0008E020E60405238003E4F523900040E0CE
:102EBB004523F0123B4E50051220FE7006E49000A5
:102ECB0041F0229000411221587007EF20E6034495
:102EDB0080F090004112214A5008E020E6040523BF
:102EEB008003E4F523900041E04523F022EBF582CB
:102EFB006402606AE58264036064E5826419605E63
:102F0B00D3E582941C748094805053EF1460141496
:102F1B00602014602F240370451225505040ED247F
:102F2B0000802A12253B50361225474031ED2410E4
:102F3B00800D12251A50271225594022ED2420F519
:102F4B0029EE800CED12251E5014ED2430F529E4EA
:102F5B0034F0F528EB541F852982852883F0221243
:102F6B003ABCD20712392112396E1238F912286D78
:102F7B001239F81239481234A9122C8C1236EE126F
:102F8B00121A122FD5122B7312000EE4900037F089
:102F9B0012004712290B120FC812084612164D12B7
:102FAB002674122013300CE8C20C123AF412363C81
:102FBB0012194412322A122E8412357A1235BC128F
:102FCB002300123285122C0080C67F9A7E997D39A0
:102FDB00121B0250089000037403F080277FCD7EF4
:102FEB00CC7D4C121B025005121B7280177466FFAE
:102FFB00FEFD121B0250089000037401F08005E4E3
:10300B00900003F0C214C215121AC31207B40000C9
:10301B000000AF11AE10AD0FAC0E90000F1207A851
:10302B00121B2AE4900002F090003EE07006900024
:10303B000E7480F02290F129E0540C7060900039EE
:10304B00E014F0E070577408F0900038E07027C37C
:10305B00900056E0945F900055E064809489500E88
:10306B00A3E004F07034900055E004F0802C900045
:10307B00387401F08024D3900056E09432900055C0
:10308B00E064809480400EA3E024FFF0900055E0B4
:10309B0034FFF08005E4900038F012381E227D03D7
:1030AB007F02122AE0EF64014E7034C216E55254CF
:1030BB007FFFE4F552E5547004E5586007E4F558DA
:1030CB00F5548033EFC39409502D120003C3EF94D2
:1030DB000AEE64809480500205567553808018D296
:1030EB0016755000755128E55330E703755380E58D
:1030FB005220E7037552807D087F021239B490008D
:10310B005774AAF0228D25201409201506E490008F
:10311B003AF02290003AE0FD3395E0FCED4C700361
:10312B007480F090003AE0547FF526201505752742
:10313B00098003752702EF6014301511AF26122199
:10314B006E9403EE648094804003023A76D3E527B5
:10315B006480F8E526648098400B90003A7480F008
:10316B00AF25122E1022742B2530F5827400352FCB
:10317B00F5832275373EAB3AAA39A938A837AF4247
:10318B00AE41AD40AC3F02024FE4900033F0A3F0F0
:10319B00A3228F3E8E3D8D3C8C3B227BCD7ACC790E
:1031AB00CC783D020051E4FFFE7D407C400202ECF6
:1031BB003395E0FEC36480948022D3EF9416EE64C3
:1031CB0080948022EBD31225495053EF14601414D2
:1031DB00602014602F240370451225505040ED24BD
:1031EB0080802A12253B50361225474031ED24882A
:1031FB00800D12251A50271225594022ED2490F5E7
:10320B0027EE800CED12251E5014ED2498F527E4C3
:10321B0034F0F526EB5403852782852683F02212A2
:10322B0020D24003E014F0AF5C12216E9420EE64C8
:10323B008094805002055CAF5BEF1220D7400215E3
:10324B005B90003C1220D54003E014F090003AE074
:10325B00FF30E720547FFEEF5480F0EEFD3395E016
:10326B00FCC3ED940AEC6480948050010E90003AFC
:10327B00E04EF022E490003AF0221238E36408604A
:10328B0006E490004AF02290004AE0FF3395E0FEFE
:10329B00C3EF940AEE648094805039E004F0AB15D0
:1032AB00AA14A913A812900046E0FCA3E0FDA3E02A
:1032BB00FEA3E0FF1200517BCD7ACC794C78401203
:1032CB0002EC6002500E74071238DF640160057F58
:1032DB0001122E1022E4FEEF14601A146027146002
:1032EB00342403703CA8057401088002C333D8FC56
:1032FB0055B4FE802CA8057401088002C333D8FC9A
:10330B0055B5FE801CA8057401088002C333D8FC98
:10331B0055B6FE800C12258D8002C333D8FC55B7F1
:10332B00FEEE7F0060027F0122AB07900036E0705B
:10333B0046EB1231BB40401231C5400AEF941FEEF1
:10334B0064809480403190002F1207B4000000007D
:10335B00123194EBF0A37401F0EB30E40543DF8002
:10336B00800353DF7F53DEF0EB540F42DE7F967EFC
:10337B00001235FD43DF0222C0E0C0F0C083C082E3
:10338B00C0D075D000C000C001C002C003C004C0D3
:10339B0005C006C0077D037F021232E0EF600A1200
:1033AB0030A97D037F0212341AD007D006D005D086
:1033BB0004D003D002D001D000D0D0D082D083D0A3
:1033CB00F0D0E032C0E0C0F0C083C082C0D075D076
:1033DB0000C000C001C002C003C004C005C006C0CD
:1033EB000775C900151FB20DE51F7008751F04D2B4
:1033FB000C12375DD007D006D005D004D003D00215
:10340B00D001D000D0D0D082D083D0F0D0E032EF3A
:10341B0014601914602514603124037039A80574E5
:10342B0001088002C333D8FCF4F5B422A80574015B
:10343B00088002C333D8FCF4F5B522A80574010843
:10344B008002C333D8FCF4F5B62212258D8002C35B
:10345B0033D8FCF4F5B722C10CC10BC10DC1160159
:10346B00600041000E004200000000021B00000241
:10347B001D0000C112C111C113C11741003A004117
:10348B0000400041003C004100410041003B004135
:10349B000042004100380041003908C1000075238B
:1034AB0001E4F524F525FB7D037F02122EF87B004A
:1034BB007A0079237D087F02120CFB7D087F0212B4
:1034CB003A587B027D037F021231CF755000755144
:1034DB002890005774FFF0E4F552F553F555F55667
:1034EB00F557F55822900055E0FCA3E0FDECFFEFFB
:1034FB0090F145F0AE05ED90F144F090F147EFF00F
:10350B0090F146EEF022D3900056E0945F90005578
:10351B00E0648022E56075F00212051AAFF0EFC38C
:10352B0022E5605480FF3395E04F22C2D5E830E7A7
:10353B000FB2D5E4C39BFBE49AFAE499F9E498F84B
:10354B00EC30E717B2D512356C1206BEE4C39BFB09
:10355B00E49AFAE499F9E498F880031206BE30D5A0
:10356B000DE4C39FFFE49EFEE49DFDE49CFC2290D2
:10357B00003EE0FF7E0070059000448030900045D7
:10358B00E004F07006900044E004F07C007D06122D
:10359B000594EF240FFFE43EFEC3900045E09FEE41
:1035AB006480F8900044E06480984004E4F0A3F059
:1035BB00223002071220FE64036006E490003BF009
:1035CB002290003BE004F0E0FF12216F9410EE64B8
:1035DB00809480401CE4F090003FE0FF94057480E1
:1035EB00948050060FBF00008002E4FF90003FEF75
:1035FB00F022AD07AC06A2AF9207ED7802C333CE33
:10360B0033CED8F9FDAC06C374FF9DFD74FF9CFF50
:10361B00EFF58CAF05EFF58A53A87D438810E5884D
:10362B0030E5FB5388CF30070443A8822243A8021E
:10363B0022121AB3400CA3E024FFF0900000E034F8
:10364B00FFF090000EE0FF30E71D547FFEEF54803B
:10365B00F0EEFD3395E0FCC3ED940CEC64809480AC
:10366B0050050EE04EF022E490000EF02275590347
:10367B00755A20E4FFFE903D4475F009EF1207E503
:10368B00EE1237FA64027015903D4775F009EF1290
:10369B0007E5EE1237FAF559740193F55A0FBF008F
:1036AB00010EEF640B4E70CE22C206C207EF24FE52
:1036BB00600E24FE601024037010C206D207800A2D
:1036CB00D206C2078004D206D207A2069209A2072D
:1036DB00920A12378F7F147E0012224AC209C20A45
:1036EB0002378F75250375260175270112284C7D2E
:1036FB00021237167D10E4FF120CFB7D08123716F1
:10370B007D20E4FF120CFB122830227B007A00791B
:10371B0025E4FF120CFB7B007A0079252290F14106
:10372B007401F07F003006027FFF90F140EFF090C4
:10373B00F129E04401F090F129E020E0F990F164E7
:10374B00E0300F0554FEFF80034401FF90F164EF5E
:10375B00F022E55230E711547FFFC3940950010F5B
:10376B00535280EF42528003E4F552E55330E71099
:10377B00547FFFC3940450010F535380EF425322E5
:10378B00E4F5532290F126E0540C7009A20992A49F
:10379B00A20A92A52290F164E0FF3009055307FBC2
:1037AB008003430704300A055307F78003430708D8
:1037BB0090F164EFF0228F368E358D348C331238C6
:1037CB00BB1238C3600640041238BB22E4FFFEFD77
:1037DB00FC1238C35006E4FFFEFDFC22AF36AE35BB
:1037EB00AD34AC332275F009E5241207E5E52375FA
:1037FB00F009A42583F583E49322FEFDFCAB47AAD5
:10380B0046A945A84402075E7B007F067E007D002B
:10381B007C0022123511948940077409F0A3745F60
:10382B00F0C3900056E0943212351894805006E4A1
:10383B00F0A37432F01234F090F129E0440CF02232
:10384B00EF1460111460151460192403701CE5AC9F
:10385B005D6017D322E5AD5D6010D322E5AE5D60F0
:10386B0009D322E5AF5D6002D322C32230061712C3
:10387B0038F912286D122C8C1236EEE4900002F0FF
:10388B00122B7302000E123AE4C2071239211239BD
:10389B00911225C7123B552290003EF0AB5DAA5EFC
:1038AB00A95F12053C640122AF09EF3395E0FE22BC
:1038BB00E4FFFE7DC87C4222AB36AA35A934A8337F
:1038CB000202ECAF23EF3395E0FEC3EF9408EE64F6
:1038DB008094802290003EF0AB5DAA5EA95F02054A
:1038EB003C7C40AB0DAA0CA90BA80A0202EC752577
:1038FB0003E4F526752701C2A4C2A5FB7D1012397E
:10390B00177B007D20123917E4F561227A007925A7
:10391B007F02120CFB22E4200706F5C853A8DF2216
:10392B00F5CE75CB0B75CADB75CD5D75CC6643A833
:10393B0020F5C975CF80751F0475C89122E4F55B1E
:10394B00122469E4900043F090003D7404F0E4A36A
:10395B00F0755DFF755E3D755F44C203C202C20424
:10396B00C205227523007524FFC20C7F017E001255
:10397B00224A200C10E524152470021523E524455A
:10398B002370E880FE22E4FB7D02FF122EF8C207B3
:10399B007D02E4FF1223B590F121E4F090F126F0C3
:1039AB0090F124F090F123F022EF14600F146011CA
:1039BB0014601324037013EDF452AC22EDF452ADEA
:1039CB0022EDF452AE22EDF452AF22FDFCAB49AA2C
:1039DB0048A947A846020774E4AB43AA44A9450289
:1039EB000582AB49AA48A947A8460207747523402C
:1039FB007F0A7E0012224A120047E51A7003D52374
:103A0B00EFE523700875610412194480FE227D08CE
:103A1B007F021239B490005774AAF0D216E55330D6
:103A2B00E703755380E55220E70375528022E55476
:103A3B007004E5586004E4FEFF22E5577003FEFFB7
:103A4B0022120003300705E4F557F55622EF1460F8
:103A5B000E14600F1460102403700FED42AC22EDB6
:103A6B0042AD22ED42AE22ED42AF221220FEFF60AC
:103A7B0012900007120555600590003DEFF0E4FF32
:103A8B00122E1022E4F553F557F556F554F555EF74
:103A9B0064014E7F0070027F018F582253DE7F003E
:103AAB007F002007027FA090F692EFF00043DE80AC
:103ABB00225388CF5389F0438901E4F58CF58A753D
:103ACB00A80243A88022E5556002D322E557600285
:103ADB00D322E558C36001D322C2AF007596AA75F5
:103AEB0096555397FD00D2AF22C2AF007596AA75BB
:103AFB00965543970100D2AF2290004012217D6072
:103B0B0007EE547FF0122E102290004112217D609F
:103B1B0007EE547FF0122E102290004CE0F8A3E039
:103B2B00F9A3E0FAA3E0FB22E5557002C322E4F50A
:103B3B0055D322900002E0700204F022E554C360DA
:103B4B0001D322E558C36001D32212283012284C2E
:103B5B00225388EFD20B3200512CD5004B18690041
:103B6B0045845700406521003BB06200375CB600CE
:103B7B0033619B002FB760002C570700293A3D009B
:103B8B00265B410023B4DC0021424D001EFF4500A3
:103B9B001CE7D5001AF86900192DBE001784DA004E
:103BAB0015FB0600148DC700133ADA0012002B0028
:103BBB0010DBD6000FCC1E000ECF6C000DE44B00BB
:103BCB000D0965000C3D80000B7F7C000ACE500078
:103BDB000A290700098EC30008FEB50008781F00EC
:103BEB0007FA52000784AE0007169D0006AF970038
:103BFB00064F1C0005F4B800059FFE0005508B0016
:103C0B000506020004C00D00047E5D000440A900FF
:103C1B000406AC0003D02700039CE100036CA10059
:103C2B00033F37000314720002EC280002C62F007A
:103C3B0002A2630002809F000260C3000242B10037
:103C4B0002264C00020B7B0001F2230001DA2E004E
:103C5B0001C3870001AE19000199D2000186A000B3
:103C6B000174720001633A000152EA0001437200D1
:103C7B000134C8000126DF000119AC00010D25003D
:103C8B00010141F5F5EB3AE107D755CE1DC558BDFE
:103C9B0000B50EAD7FA64C9F7098E792AC8CBB879E
:103CAB001181AA7C82779772E46E676A1E66066240
:103CBB001C5E5F5ACB575F541950F84DF84B1A489E
:103CCB005A45B8433340C83E773C3E3A1D3812360E
:103CDB001D343B326D30B22F082D6F2BE62A6C2929
:103CEB000127A42655251323DD22B22193207F1F04
:103CFB00751E751D7E1C901BAC1ACF19FB192E1847
:103D0B006917AA16F31642159714F2145313B91325
:103D1B00251296120C11861105108810100F9B0F8F
:103D2B002B0EBE0E550DEF0D8C0D2D0CD10C780CF2
:103D3B00210BCE0B7D0B2E0AE300000000000000D0
:103D4B00010001000000000000000003015E000004
:103D5B000AF0000004032000000B5401000505DCF1
:103D6B0000000BB80100060BB800000BEA010107BD
:103D7B001D4C00000C1C01010836B000000C80002B
:103D8B000109271000000BB80001021D4C01F40BB8
:103D9B00B800010A271000000BB8000158746572B7
:103DAB006E20526970706572204C697465205631B3
:103DBB002E302042793A52656473746F6E65725F70
:103DCB0033350D0A00000000000000000000000069
:0D3DDB000000000000000000001F0D0006A9
:00000001FF
