:10000000022B4BAF5AEF3395E0FE22023D39E58ECD
:10001000541FF55F435FC0855F8EC2AF007596AA1F
:0A00200075965543970200D2AF22F7
:10002B00023557C2AF007596AA7596558597600035
:0F003B00D2AFE56030E203D38001C322021D5330
:10004B000237337523007524FFC20C7F017E00122B
:10005B00260E200C10E524152470021523E52445EB
:06006B002370E880FE2274
:10007300023ABF020437E86480F8E933E8336011D9
:100083000460F0ED33EC337009E8FCE9FDEAFEEBC4
:10009300FF220460DED3EB9FEA9EE99DE8C2E78C72
:1000A300F0C2F795F0400CE8CCF8E9CDF9EACEFAC6
:1000B300EBCFFB12040285D0F05804700320D5B3B4
:1000C300E80470075002B2D502044192D5EC0460F3
:1000D300F7E4CCC0E0C398F8603B94186008400D87
:1000E300D0E0FB020419E4FBFAC9FC8028E830E401
:1000F30006E4C9FBE4CAFCE830E305E4C9CACBFC67
:10010300E854076010F8C3E913F9EA13FAEB13FB99
:10011300EC13FCD8F130F52FC3E49CFCEF9BFFEE0E
:100123009AFEED99FDD0E0FBEF4E4D4C701222DBB1
:100133000302043EEC2CFCEF33FFEE33FEED33FD04
:10014300ED30E7EB020419EF2BFFEE3AFEED39FD3C
:10015300D0E0FB50130BBB0003020441ED13FDEE93
:1001630013FEEF13FFEC13FC020419EC4D6011E8CE
:10017300497017ED33EC3304600DE4FCFFFEFD2200
:10018300E933E8330470F8020437120402580460B8
:1001930009E4CC2481500628500902044128400375
:1001A30002043EC0E0EB4A7044B98006D0E0FB0293
:1001B300042DEF4E701CBD8008EBFFEAFEE9FD80C5
:1001C300EBE98DF0A4FEE5F0020257E9CDF9EAFE72
:1001D300EBFFEF89F0A4FCE5F0CE89F0A42EFFE459
:1001E30035F0CD89F0A42DFEE435F08067EF4E7035
:1001F30005BD80D780C3EF8BF0A4ACF0EE8BF0A4E9
:100203002CFCE435F0F8EF8AF0A42CE5F038FCE49C
:1002130033CB8DF0A42CFCE5F03BF8EE8AF0A42C54
:10022300FCE5F038F8E433CF89F0A42CFCE5F03892
:10023300CF3400CE89F0A42FFFE5F03EFEE433C9AE
:100243008DF0A42EFEE5F039CD8AF0A42FFFE5F062
:100253003EFEE43DFD33D0E0FB50070BBB000F0235
:100263000441EC2CFCEF33FFEE33FEED33FD0204CF
:1002730019020441EC5D046005E8590470030204AB
:1002830037120402580460F6EC4860F2EC7004FD87
:10029300FEFF22C860DB2481C85009C39860025066
:1002A3000602043E9850CAF582E9294B4A7005AB11
:1002B3008202042D75F0007C1A7880C3EF9BEE9ABE
:1002C300ED99400DC3EF9BFFEE9AFEED99FDE842D9
:1002D300F0DC23ACF0D0E0FFD0E0FED0E0FDAB8259
:1002E30020E7101BEB60BAEC2CFCEF33FFEE33FE80
:1002F300ED33FD020419E803F830E705C0F075F0AB
:1003030000EF2FFFEE33FEED33FD40B830E7C28040
:10031300AA74F8CC6480CCC86480C8F58204604FAA
:10032300C3EB9FF5F0EA9E42F0E99D42F0E89C455D
:10033300F0603C501DE5825FFFE582D313CB5BCBBE
:10034300F42B5582FB50280ABA002409B90020086F
:10035300801DE5825BFBE582D313CF5FCFF4C3132C
:100363002F5582FF50090EBE00050DBD00010CC3C1
:10037300EB9FF5F0EA9E42F0E99D42F0E89C45F0E0
:100383006007CC4820E701B3EC2275F020800E759E
:10039300F010800575F0087D007E007F003392D554
:1003A30030D503120778EC334010EF33FFEE33FE02
:1003B300ED33FDEC33FCD5F0ED22E5F0247EA2D540
:1003C30013CC92E7CDCEFF22EDD2E7CD33EC3392BF
:1003D300D524814006E4FFFEFDFC22FCE4CFCECD14
:1003E300CC24E0501174FF80EDC3CC13CCCD13CDDE
:1003F300CE13CECF13CF0470F030D5DE020778E9E9
:10040300D2E7C933E833F892D5EDD2E7CD33EC33F5
:10041300FC5002B2D522EC30E7100FBF000C0EBE29
:1004230000080DBD00040BEB6014A2D5EB13FCED2B
:1004330092E7FD2274FFFCFDFEFF22E480F8A2D5C3
:1004430074FF13FC7D80E480EFE709F608DFFA8090
:1004530046E709F208DFFA803E88828C83E709F0D9
:10046300A3DFFA8032E309F608DFFA8078E309F2C2
:1004730008DFFA807088828C83E309F0A3DFFA80B7
:100483006489828A83E0A3F608DFFA805889828A26
:1004930083E0A3F208DFFA804C80D280FA80C68022
:1004A300D4806980F28033801080A680EA809A80AD
:1004B300A880DA80E280CA803389828A83ECFAE4F6
:1004C30093A3C8C582C8CCC583CCF0A3C8C582C8D2
:1004D300CCC583CCDFE9DEE7800D89828A83E49390
:1004E300A3F608DFF9ECFAA9F0EDFB2289828A83EF
:1004F300ECFAE0A3C8C582C8CCC583CCF0A3C8C5B9
:1005030082C8CCC583CCDFEADEE880DB89828A83BC
:10051300E493A3F208DFF980CC88F0EF60010E4E7C
:1005230060C388F0ED2402B4040050B9F582EB24D3
:1005330002B4040050AF232345822390049C73C26A
:10054300D530F707B2D563F0FF05F030E70CB2D52D
:10055300F4048463F0FF05F080018430D502F404D1
:1005630022BB010689828A83E0225002E722BBFE76
:1005730002E32289828A83E49322BB010CE5822968
:10058300F582E5833AF583E0225006E92582F8E611
:1005930022BBFE06E92582F8E222E58229F582E5FF
:1005A300833AF583E49322BB010689828A83F0228E
:1005B3005002F722BBFE01F322EF8DF0A4A8F0CF87
:1005C3008CF0A428CE8DF0A42EFE22C2D5EC30E709
:1005D30009B2D5E4C39DFDE49CFCEE30E715B2D52A
:1005E300E4C39FFFE49EFE120819C3E49DFDE49C4F
:1005F300FC800312081930D507C3E49FFFE49EFE75
:1006030022BB0110E58229F582E5833AF583E0F503
:10061300F0A3E0225009E92582F886F008E622BB20
:10062300FE0AE92582F8E2F5F008E222E5832AF5DD
:1006330083E993F5F0A3E99322BB010A89828A83B4
:10064300F0E5F0A3F0225006F709A7F01922BBFE4C
:1006530006F3E5F009F31922E88FF0A4CC8BF0A49C
:100663002CFCE98EF0A42CFC8AF0EDA42CFCEA8E81
:10067300F0A4CDA8F08BF0A42DCC3825F0FDE98FA4
:10068300F0A42CCD35F0FCEB8EF0A4FEA9F0EB8F9B
:10069300F0A4CFC5F02ECD39FEE43CFCEAA42DCE68
:1006A30035F0FDE43CFC2275F008758200EF2FFF66
:1006B300EE33FECD33CDCC33CCC58233C5829BED37
:1006C3009AEC99E58298400CF582EE9BFEED9AFD3B
:1006D300EC99FC0FD5F0D6E4CEFBE4CDFAE4CCF9EB
:1006E300A88222B800C1B90059BA002DEC8BF0845E
:1006F300CFCECDFCE5F0CBF97818EF2FFFEE33FE2C
:10070300ED33FDEC33FCEB33FB10D703994004EBE3
:1007130099FB0FD8E5E4F9FA227818EF2FFFEE33AF
:10072300FEED33FDEC33FCC933C910D7059BE99AC1
:100733004007EC9BFCE99AF90FD8E0E4C9FAE4CC52
:10074300FB2275F010EF2FFFEE33FEED33FDCC33BC
:10075300CCC833C810D7079BEC9AE899400AED9BA5
:10076300FDEC9AFCE899F80FD5F0DAE4CDFBE4CC84
:10077300FAE4C8F922C3E49FFFE49EFEE49DFDE48E
:100783009CFC22EB9FF5F0EA9E42F0E99D42F0ECDF
:100793006480C864809845F022EB9FF5F0EA9E429E
:1007A300F0E99D42F0E89C45F022E8600FECC313AA
:1007B300FCED13FDEE13FEEF13FFD8F122E493FCDF
:1007C300740193FD740293FE740393FF22ECF0A370
:1007D300EDF0A3EEF0A3EFF022A8828583F0D0839F
:1007E300D0821207F31207F31207F31207F3E4732D
:1007F300E493A3C583C5F0C583C8C582C8F0A3C568
:1008030083C5F0C583C8C582C822A42582F582E5C5
:10081300F03583F58322BC000BBE0029EF8DF084F5
:10082300FFADF022E4CCF875F008EF2FFFEE33FEB6
:10083300EC33FCEE9DEC984005FCEE9DFE0FD5F0ED
:10084300E9E4CEFD22EDF8F5F0EE8420D21CFEADF6
:10085300F075F008EF2FFFED33FD4007985006D5F4
:10086300F0F222C398FD0FD5F0EA22123C908F25B7
:10087300123D069207D208123B928E238F249000DA
:1008830045E06009C3940B74809480400690004552
:100893007404F01222B3EF64184E700AE004F012ED
:1008A3002254FF122AB0900046E0FF640170030255
:1008B3000C23EF64027003020C23122254B40B00C6
:1008C3004003020B759008CFF82828730209090228
:1008D30008F0020A9A020A31020AAB020ABC020AAF
:1008E300CC020ADC020AF6020B2C020B50C20520D2
:1008F3000703020B75900046E064067003020B7554
:10090300E4F0FF0209A0E524640545237011C20544
:10091300D3300401C392049000447408F08018306B
:100923000415D3E5249400E52364809480500512D4
:100933003C7D5003755E06300403020B75E52464A9
:10094300064523700DD3300501C39205900044740E
:1009530002F0300527123D244003020B757F667EAB
:10096300667D46122222600940072011047F088019
:100973002C12221C603240307F078060E524640122
:10098300452370267F9A7E997D391222226010407A
:100993000E3002047F028005900045E0FF803D1287
:1009A300221C60044002803C8050E52464024523FD
:1009B300702F30110280437F667E667D46122222AD
:1009C300600740057F08020B2712221C6011400FAD
:1009D3003002047F028005900045E0FF020B278070
:1009E300193007057F03020B271222D87012122237
:1009F3001C600740057F09020B27755E06020B7515
:100A0300E524640445237018D3300201C392027FA6
:100A1300082002027F098F5EC209122FB1020B75F3
:100A2300123D2B4003020B75123D1B020B757D0318
:100A33007F0112332DE52464014523700D30030536
:100A4300C209122FB1C203123BEE300303020B752E
:100A5300E524640445237002D20320070DAF251259
:100A630022AC64014E6003020B757F9A7E997D3937
:100A730012222260025003020B757F043002027FB0
:100A83000212318F30020312399E900048E0444035
:100A9300F0754F04020B75200603120C53121C4B06
:100AA300AF251218F3020B757D047F0112332D124B
:100AB3000C53AD257F05020B727D04120C24AD256A
:100AC3007F06123A707F0480257D05120C24AD2524
:100AD3007F07123A707F0580157D06120C3FAD2407
:100AE300AC23123822AD257F04123A707F06123CE4
:100AF3003D807F7D07120C3FEF64014E600BE524C0
:100B030064024523600330130A7F043002027F022C
:100B130012318FAF251222AC64034E60051222D826
:100B230070507F0912318F80497D09120C6970085A
:100B33002011057F0812318F1222D8700A7F0430EA
:100B430002027F0212318FAD257F0A80227D0A12B5
:100B53000C6970082011057F0812318F1222D8709A
:100B63000A7F043002027F0212318FAD257F091202
:100B73003A70900044122238400C9000001207DCB7
:100B830042A00000807EAF4FEF12223A400C90004B
:100B9300001207DCBF800000806A12225424FE602A
:100BA3002514604724F9603A047049300D0E900013
:100BB30001120604FFAEF0AC06FD803E7EFF7FFF10
:100BC3007CFF7DFF8034C3E54E954AE5491222A19F
:100BD3005006AE4DAF4E8004AE49AF4AAC06AD07EA
:100BE300801812249DAC06AD07800F123858AC064E
:100BF300AD078006122248FDACF0EC120392900080
:100C0300001207D0900000E0FCA3E0FDA3E0FEA3E8
:100C1300E0FF1203CB121B37900057EEF0A3EFF067
:100C230022E4FF12332DAF24AE23123CA2AF25EFF3
:100C33003395E0FEAD24AC2312382222E4FF1233B5
:100C43002DAF24AE23123CA2AF25EF3395E0FE2255
:100C5300AF24AE23123CA2AF25EF3395E0FEAD24C3
:100C6300AC23123822227F0112332DAF24AE23127C
:100C73003CA2E52464024523228F28120564FF1455
:100C8300601514602814603D14603A2404705C12EB
:100C930028D512291C80291228D5F5827401F52D37
:100CA30085822EE582F4F582752F0080131228D5F4
:100CB300F4F582752D0085822EEDF5827401F52FF2
:100CC3008582308026ED12291C858230EDF58274F1
:100CD30001F52985822AEF64047007EDFF7401FE94
:100CE3008005EDF4FF7E008E2B8F2C900001120502
:100CF3007D7007EDFF7401FE8005EDF4FF7E008E2D
:100D0300318F3290000212057D7007EDFF7401FEF2
:100D13008005EDF4FF7E00E528147003020DB8147E
:100D23007003020E3B147003020EBE240360030221
:100D33000F48E529AB9A30E006E52A4BFD8004E530
:100D43002A5BFD8D9AE52B30E00890F00912293CCF
:100D5300800690F00912294390F009EDF0E52D305B
:100D6300E00512292C800690F00A12294A90F00A15
:100D7300EDF0E52F30E005122934800690F00B12D8
:100D8300295190F00BEDF0EE30E005122960800858
:100D930090F00CE0FBEF5BFD90F00CEDF0E53130F3
:100DA300E005122958800690F00D122967AF0590CF
:100DB300F00DEDF022E529ABA130E006E52A4BFD6D
:100DC3008004E52A5BFD8DA1E52B30E00890F01946
:100DD30012293C800690F01912294390F019EDF086
:100DE300E52D30E00512292C800690F01A12294ACD
:100DF30090F01AEDF0E52F30E005122934800690CB
:100E0300F01B12295190F01BEDF0EE30E005122992
:100E130060800890F01CE0FBEF5BFD90F01CEDF0B0
:100E2300E53130E005122958800690F01D1229673C
:100E3300AF0590F01DEDF022E529ABA230E006E509
:100E43002A4BFD8004E52A5BFD8DA2E52B30E008EB
:100E530090F02912293C800690F02912294390F042
:100E630029EDF0E52D30E00512292C800690F02ABB
:100E730012294A90F02AEDF0E52F30E005122934CB
:100E8300800690F02B12295190F02BEDF0EE30E01C
:100E930005122960800890F02CE0FBEF5BFD90F0D9
:100EA3002CEDF0E53130E005122958800690F02D45
:100EB300122967AF0590F02DEDF022E529ABA330A1
:100EC300E006E52A4BFD8004E52A5BFD8DA3E52BB7
:100ED30030E00890F03912293C800690F03912294D
:100EE3004390F039EDF0E52D30E00512292C800612
:100EF30090F03A12294A90F03AEDF0E52F30E005F0
:100F0300122934800690F03B12295190F03BEDF00A
:100F1300EE30E008A3E0FDEF4DFF800890F03CE0E9
:100F2300FDEF5DFF90F03CEFF0E53130E009A3E029
:100F3300FDE5324DFF800990F03DE0FDE5325DFFB8
:100F430090F03DEFF022C390002AE0942C9000290A
:100F5300E0648094815071E4FFFE7D7A7C44AB11A0
:100F6300AA10A90FA80E12016E1203CB8F2C8E2B81
:100F73008D2A8C2990002AE004F07006900029E065
:100F830004F0121A5C252CFFEE352BFEED352AFDFD
:100F9300EC3529FC9000251207D0121AC6C3121B88
:100FA30014500A900021E52BF0A3E52CF0900023C8
:100FB300121AC9D3121B14500302104A900023E5DE
:100FC3002BF0A3E52CF0807F121A5CFFC004C00550
:100FD300C006C007900023E0FEA3E0FBAA06EA33A5
:100FE30095E0F9F8121AC6EF2BFBEE3AFAED39F950
:100FF300EC38F8D007D006D005D004C3EF9BFFEE42
:101003009AFEED99FDEC98FC121A56FFC006C00734
:1010130090002AE024FEFF900029E034FFAB07FA9A
:101023003395E0F9F8D007D0061235EC121A56FFC3
:10103300EC12038D121B1F90002C1207D0121A7A88
:101043001207DC00000000121B01900005120604C9
:1010530045F07006C214C2158079120564640270EB
:1010630006AC4BAD4C800C121B019000051206041C
:10107300FDACF0EC120392121B1F8F288E278D26D6
:101083008C25AB15AA14A913A812AF0DAE0CAD0B8A
:10109300AC0A1202777B527AB8795E783F12031456
:1010A3005004D2148015AF28AE27AD26AC25121AF2
:1010B3002160054003C38001D392147FCD7ECC7D94
:1010C3002C121A1F60054003C38001D392153015FB
:1010D30002C21490001FE014601F1460481460766D
:1010E300240360030211717466FFFEFD121A1F5080
:1010F3007D90001F7401F080757F337E337D731202
:101103001A1F60074005E490001FF07FCD7ECC7D61
:101113004C121A1F5003121B307433FFFEFD121AB8
:101123001F504B80297F667E667D76121A1F6007EB
:101133004005E490001FF0121A1A60074005E4907E
:10114300001FF07F9A7E997D39121A1F502090005C
:101153001F7403F08018121A1A60074005E4900008
:101163001FF07D40121A1C60054003121B30AF5E56
:10117300EF64066051AF5EEF6408604AAF5EEF64F0
:10118300096043900046E06003023030121B0112F5
:1011930005647005121B08602190001FE014600EA7
:1011A30014600F1460102403701C755E0122755EB9
:1011B3000422755E0222755E032290001EE0600326
:1011C3000213EFE4F55E2275230075244078007C5A
:1011D300007D017BFF7A3F79847E007F1412051C1A
:1011E30012002E50057F070213EBE4FFFE7DB07C57
:1011F30040AB15AA14A913A8121203145003021327
:10120300EE122F1D60030213EEC283C285C281D288
:10121300071239F5D2847F057E0012260E1200478D
:101223007F337E337DE37C40AB0DAA0CA90BA80A68
:101233001203146002500DE52415247002152312C5
:101243002EE350D2E52445237007C2847F010213A5
:10125300EB752300752464C2847F147E0012260E6E
:10126300C2071239F51200477F0A7E0012260E7557
:101273002500752604122EDCC333CE33CED8F924D1
:10128300FCF58274FF3EF583122EAFC004C005C087
:1012930006C007122EDCC333CE33CED8F9122F2665
:1012A300D007D006D005D0041207D0E52615267046
:1012B300021525E526452570BCAF0DAE0CAD0BAC74
:1012C3000A9000001207D09000141207DC000000FF
:1012D30000E4F525F526122EACC004C005C006C0F7
:1012E30007122EDCC333CE33CED8F9122EBBD00770
:1012F300D006D005D00412007D9000141207D0054B
:1013030026E526700205256405452570C9122EAC15
:10131300E4FBFA79A078401202779000141207D008
:101323009000181207DC00000000E4F525F5269074
:101333000018122EAFC004C005C006C007122EDC71
:10134300C333CE33CED8F9122EBB122EAC12007992
:10135300E4FBFAF9F8120314500F122EDCC333CE58
:1013630033CED8F9122EBB801A122EDCC333CE3300
:10137300CED8F9122F26122EAFE4FBFA798078BF6C
:10138300122F11122EAC120079AB07AA06A905A8D9
:1013930004D007D006D005D00412007D90001812A7
:1013A30007D00526E526700205256405452560035B
:1013B300021332C3E524945D122EE85013E4FFFEBA
:1013C300FD7C3F900018122EC412031460025010CB
:1013D300E524152470021523122EE340030212683C
:1013E300E524452370057F02123CB42290001EE0E1
:1013F30014B4090040030215D490140A75F003A431
:10140300C58325F0C583730214250214380214BD65
:101413000214E80215180215430215870215B302D8
:1014230015C5E4F55E121AE190001CE4F0A3740EF6
:10143300F0A37402F090001CE0FEA3E0FFD3940C31
:10144300EE648094804005755E018023D3EF940A97
:10145300EE648094804005755E048013D3EF940896
:10146300EE648094804005755E028003E4F55ED3EC
:10147300EF9400EE6480948040030215D490003012
:10148300121A5FFF1203CB7D64121AA1AE2DAF2E89
:101493007C007D0A1205CE8E2D8F2EE52E452D70F4
:1014A30005121AEF800D121B29C333CE33CED8F9A0
:1014B300121AAB90001E7403F02290001CE0B4FFDC
:1014C3000AA3E0B4FF057F021215D5121A324002B7
:1014D3007F02121AD540030215D4121AF8740AF0C7
:1014E300A37404F022121A6A40030215D490003048
:1014F300121A5F121A97E52E452D7005121AEF8006
:101503000D121B29C333CE33CED8F9121AAB900078
:101513001E7405F02290001CE0B4FF0AA3E0B4FFA0
:10152300057F041215D5121A3240027F04121AD510
:1015330040030215D4121AF8740AF0A37406F022B9
:10154300121A6A40030215D4900030121A5FFFE4A6
:10155300FBFA7920784112016E121AE990003012D9
:101563001A5F121A97E52E452D7005121AEF800D9A
:10157300121B29C333CE33CED8F9121AAB90001EF7
:101583007407F02290001CE0B4FF0EA3E0B4FF093F
:101593007F01123A1FE4121AF1121A3240027F013C
:1015A300121AD5502C121AF8740CF0A37408F022F6
:1015B300121A6A501C90002B7480F090001E74095C
:1015C300F022121B08700A123D2B4005E490001E06
:1015D300F022123A1FE490001CF0A3F022E51A70E7
:1015E300047F0580411239E4D3EF9441EE64809483
:1015F300804002D213D3EF943CEE64809480400485
:10160300D211800DC3EF9432EE648094805002C2F5
:1016130011301305201102C213D3EF944BEE6480F3
:10162300948040057F06023CB41239E4C3EF94373B
:10163300EE64809480500D900046E064067005F0DF
:10164300FF12318FAB51AA52A95390000812057DA6
:101653007004C212801F1239E4D3EF9435EE648014
:1016630094804004D212800DC3EF942BEE648094D7
:10167300805002C21220120AE4F51BF51CF51DF579
:101683001E22D3900058E09400900057E0648094A9
:101693008050030217741239E4EF24CBFFEE34FFBA
:1016A300AB07FAD3EB9400EA648094804004AE0263
:1016B300801AC3E49BFFE49AFED3EF9401EE6480A7
:1016C30094807E0040047F0180027F00EF4E6042E1
:1016D300900057E0FEA3E0FF7C177D701205CED388
:1016E300EF9400EE648094804002801D900057E0E8
:1016F300FEA3E0FFC3E49FFFE49EFE7C177D701210
:1017030005CEEF2401FFE43EFEAD03AC021205BC9F
:1017130080047E007F00EF251EF51EEE351DF51DAE
:10172300D3E51E9450E51D648094C64006751D469E
:10173300751E50C3E51D648094805005E4F51DF5C6
:101743001EEB251CF51CEA351BF51BD3E51C94E0A9
:10175300E51B648094AE4006751B2E751CE0C3E543
:101763001C9420E51B648094515006751BD1751C95
:1017730020228E2D8F2E8D2F90F692E030E708E4F5
:10178300FFFEFD7C408008AF19AE18AD17AC1612F2
:10179300341DAC2DAD2EEC120392C004C005C0065F
:1017A300C007E4FBFA79807845AF37AE36AD35AC88
:1017B30034120277D003D002D001D00012016E8F11
:1017C3003B8E3A8D398C38E52F604124FA70030241
:1017D300186724F9700302189C24EE60030218F2C0
:1017E300AC2DAD2EEC120392A804A905AA06AB07F3
:1017F3007F9A7E997D997C451202778F338E328D45
:10180300318C308F198E188D178C162275333575E0
:1018130032487531031233FE8F158E148D138C12DB
:10182300AB15AA14A913A8121234315013AF15AE75
:1018330014AD13AC121234268F158E148D138C1223
:10184300900020E0FC120397A804A905AA06AB07A1
:10185300AF15AE14AD13AC121202778F118E108D2B
:101863000F8C0E2275332D7532A67531331233FE6C
:101873008F0D8E0C8D0B8C0AAB0DAA0CA90BA80A2D
:10188300123431506AAF0DAE0CAD0BAC0A123426D4
:101893008F0D8E0C8D0B8C0A22AB3BAA3AA939A86B
:1018A30038AF19AE18AD17AC16120079C004C005D5
:1018B300C006C007E4FFFE7DA57C43AB3BAA3AA963
:1018C30039A83812016ED003D002D001D000120221
:1018D3007712341DE4FBFA797A784412016E1234DC
:1018E3001D1203CB7B007A00791A1222FE8F092284
:1018F3008F26123D2B4005123D245003D38001C394
:101903009208122248122299500AAC4DAD4EAE04F1
:10191300AF0580008E278F28900001120604FFC3B5
:10192300E5289FE5F06480F8E527648098500B3044
:10193300080812228A40031222F720060C1222AA58
:1019430064014E704ED206804A30010A054AE54AC8
:10195300700C05498008E54A154A70021549900044
:101963000312224BFFAEF0D3E54A9FEE12229050B2
:1019730006D2018E498F4A1222894005C2011222E2
:10198300F71222AA64014E6005123C7D5005C2067F
:1019930075501E123D24500D20000A054AE54A7079
:1019A3001E0549801A123D2B500D20000AE54A15E9
:1019B3004A700215498008200805300002C200124F
:1019C3003D24501020000D1222894008754F041247
:1019D30022F7D200123D2B5025200022AB51AA52F0
:1019E300A953900003120604FFAEF0D3E54A9FEE1D
:1019F3001222905009754F048E498F4AD200300845
:101A030004E4F55022AF501222AC64204E70070557
:101A130050C209122FB1227D60E4FFFE7C4090008A
:101A23002CE0F8A3E0F9A3E0FAA3E0FB020314908F
:101A3300001CE0FAA3E0FB7C007D04FFAE0212056C
:101A4300CE8C2D8D2ED3E52E9401E52D64809480CC
:101A53007F00229000251207D0900025E0FCA3E030
:101A6300FDA3E0FEA3E022D390001DE094009000CC
:101A73001CE06480948022900021747FF0A374FEA4
:101A8300F0A37480F0A37402F0E4900029F0A3F0B3
:101A930090002522FF1203CB8E2D8F2E7D0A7C0012
:101AA3001205CE8C2D8D2E2224FFFFEE34FF9000E5
:101AB3001CF0A3EFF0227C40AB11AA10A90FA80ED3
:101AC300020314900021E0FEA3E0FFEE3395E0FD56
:101AD300FC228F5ED3EB9400EA6480948022AF15DE
:101AE300AE14AD13AC129000300207D074FF900017
:101AF3001CF0A3F022E4F55E90001CF0A322AB518E
:101B0300AA52A9532290002BE05480FF3395E04F53
:101B130022AB2CAA2BA92AA829020786E4FBFA796F
:101B23007A7844020277AE2DE52E78022290001FC8
:101B33007402F0228E268F2730120DD3E5279400EE
:101B4300E526648094805005AE26AF2722AC1DADF8
:101B53001EEC1203927B007AA0798C7846120277EE
:101B63001239ECE4FBFA79C8784212016E1239ECAF
:101B7300AC1BAD1CEC1203927B007A80793B784658
:101B83001202778F338E328D318C301239DBC000E5
:101B9300C001C002C003E4FFFE7D207C41AB33AA39
:101BA30032A931A83012016ED003D002D001D00087
:101BB30012007D1239ECE4FFFEFDFC1239DB120347
:101BC300145009E4F52BF52AF529F528E4FFFE7DE9
:101BD300C87C421239DB120314600D400BE4F52B71
:101BE300F52A7529C8752842C3E5279484E5266438
:101BF30080948350057E037F8422AC26AD27EC12AC
:101C0300039278C41239CAE4FBFA79C87842120203
:101C1300771239D2AB2FAA2EA92DA82CC000C00150
:101C2300C002C0031239DBE4FFFE7DC87C42120010
:101C330079D003D002D001D00012016E1239D278CC
:101C4300441239CA1203CB22301403021CD83015B4
:101C530003021CD8E4900042F090001FE0600302EE
:101C63001D52122248122299506590004CE0FD70DB
:101C73000404F08010ED1222E99409EC648094804E
:101C83005003021D5290004C7401F090000512069F
:101C930004FDACF0D3E54C9DEC6480F8E54B648027
:101CA3009840068C4B8D4C800B7432254CF54CE4DC
:101CB300354BF54BD312229D4009122248F54E8530
:101CC300F04D2274FA254EF54EE4354DF54D22E4E0
:101CD30090004CF022E490004CF09000421222B6A7
:101CE300EF4E70037480F0900042E0547FF526308D
:101CF3001513FF3395E0FED3EF9404EE64809480D4
:101D03004003023BEEAF26EF3395E0FED3EF940999
:101D1300EE648094804038D3E54E94EEE54D6480C4
:101D23009482400C7406254EF54E74FF354DF54DE7
:101D3300D3E54C94BEE54B6480948A400C74E7254C
:101D43004CF54C74FF354BF54B9000427480F022F8
:101D5300E50864037002F508E50814604214700393
:101D6300021E03147003021E4A24036003021E476B
:101D7300D208123C53E4F528F52974A72529F582E6
:101D8300743F3528F583E493FF1233F1EFF005290F
:101D9300E529700205286404452870DE021E42E42A
:101DA300F528F5291233F1E0FF12343B400F1234CA
:101DB300454018EF941FEE64809480500E0529E58A
:101DC30029700205286404452870D9C3E5299404C1
:101DD300E5286480948050231233F1E0F52CFF331F
:101DE30095E0FE4F6006EF64064E7005C208123C94
:101DF30053AF2C123508750802804C7508038047D1
:101E030075300075310075322C7B007A00792A1207
:101E13002778EF4E6031AD2CAF2BAE2A121775E445
:101E2300F528F5291233F1E0B52C061233F174FECF
:101E3300F00529E529700205286404452870E57535
:101E430008018003E4F508900040E06009E50864B8
:101E5300036003021D5322301223900062E0FF331C
:101E630095E0FEC3EF940CEE648094805005E0048B
:101E7300F0800AE4900062F0C2A4C2A522E55EB439
:101E83000A004003021F5B901E91F8282873021E6C
:101E9300AF021EB7021EBC021EC6021EC1021EC630
:101EA300021F01021F5B021F01021F01C2A4C2A580
:101EB300E4F55D22C2A4D2A522D2A4C2A522D2A453
:101EC300D2A522C2A5E55D547FFFAE5EEE64037E1C
:101ED3000070027E03C3EE6480F8EF6480985009BB
:101EE3000F535D80EF425D800B123D117F806002D6
:101EF3007F008F5D123D11C36001D392A422535D15
:101F03007FAF5EEF64096007AF5EEF640870047F24
:101F13000680027F0AD3EF6480F8E55D6480984011
:101F230008C2A5C2A4E4F55E22E55D75F0021205C0
:101F330042AFF0EFC36001D39207AF5EEF64087066
:101F430003C38002A20792A4AF5EEF64087004A2E9
:101F5300078001C392A5055D22900059E0600A2025
:101F63000E0714F0E07002D28490005EE0FF339518
:101F7300E0FEC3EF9403EE648094805007E4900086
:101F830057F0A3F0900057E0FEA3E0FF900055E068
:101F93006E7003A3E06F7003022040900055EEF0D3
:101FA300A3EFF0D39400EE648094805029122F1D88
:101FB3006409600C90005A1207DC00000000D20E86
:101FC300900055E0B4FF08A3E0B4FF03D38001C33E
:101FD3009281122F0A22900055E0FEA3E0FFC394E2
:101FE300F4EE64809481502A8E278F28E4F52CF533
:101FF3002B752A8075293FFFFE7DC87C4212204144
:10200300C281208406900059740AF0D283C285D21B
:102013000E22900055E0F527A3E0F528752CC37533
:102023002BF5752A8875293F7F007E007D407C4013
:10203300122041D281D284C283D285D20E221228A9
:102043002190005A1207D0228B368A3789388F3C69
:102053008E3B8D3A8C39E4F53DF545F544F543F572
:1020630042E4FFFEFDFCAB3CAA3BA93AA839D312DC
:10207300078650030220FEAB36AA37A9388545826E
:1020830085448312057D623DE4754108F540F53FC3
:10209300F53EE4FFD31236B3402DE53D30E7082586
:1020A300E06407F53D8006E53D25E0F53D74FF2539
:1020B30041F541E54034FFF540E53F34FFF53FE5A9
:1020C3003E34FFF53E80CBE4FAF9F8E5452401F50B
:1020D30045EA3544F544E93543F543E83542F542ED
:1020E30074FF253CF53CE53B34FFF53BE53A34FF13
:1020F300F53AE53934FFF539022064E4F541F5405A
:10210300F53FF53EE47F0FC31236B35023E541900C
:102113003F9893623DE4FAF9F8E5412401F541EA79
:102123003540F540E9353FF53FE8353EF53E80D48F
:10213300AF3D22752501E4F526752701FB7D027F5E
:102143000212311D12220E7F057E0012260E7F021F
:1021530030A2027F03900020EFF0C2A27525031284
:10216300220E1200477F9A7E997D39121AB95008C0
:1021730090001F7403F080277FCD7ECC7D4C121A14
:10218300B95005121B3080177466FFFEFD121AB991
:10219300500890001F7401F08005E490001FF0C206
:1021A30014C215121A7A1207DC00000000AF11AE38
:1021B30010AD0FAC0E90002C1207D0121AE1E49070
:1021C300001EF0121B01120564703FF523F52490E5
:1021D3000020E0FF3395E0FEC3E5249FEE6480F822
:1021E300E52364809850167F04123A1F7FA07E0077
:1021F30012260E0524E52470D6052380D27F907E17
:102203000112260E90002B7480F0227B007A007955
:10221300257D047F02120C7C227FCD7ECC7D2C7C1D
:102223004090002CE0F8A3E0F9A3E0FAA3E0FB025E
:10223300031490004AE0FF3395E0FED3EF9400EEE1
:102243006480948022900001AB51AA52A9530206E4
:1022530004AB51AA52A95302056475F00490004AD5
:10226300E0FD120542AFF0EF3395E0F5268F27D35B
:10227300E5272275F009ED12080DEC75F009A42588
:1022830083F583E49322C3E54A9528E5276480F820
:10229300E54964809822FFAEF0C3E54E9FEE64806B
:1022A300F8E54D64809822AF26EF3395E0FEEF22E8
:1022B300900041E0FF3395E0FE22E054C0F0C3ED0F
:1022C3009406EC6480948022E0FF543FF523FD33B1
:1022D30095E0FC4D22E52464034523229401E52681
:1022E3006480948022FD3395E0FCC3ED22EDFF333F
:1022F30095E04F2285274985284A228B3C8A3D89D0
:102303003E8F428E418D408C3F7FD57E2C7D517C0C
:1023130000D3123B464006123B3C7FD822E47FE3C6
:102323007E0AC3123B2F5006123B3C7F7D22740171
:10233300123B3DE47FF57EF5D3123B2F4038E4F5A5
:1023430043F544AE43E5447802C333CE33CED8F9E4
:10235300243FF582743D3EF5831207C0C3123B460A
:102363004006E54424D8FF220544E54470020543B2
:10237300644B454370CDE4F543F544E54425E0FF64
:10238300E54333FE746B2FF582743E3EF583E4938D
:10239300FE740193FFE48F488E47F546F545E54803
:1023A300F548E547F547E4F546F545AF42AE41AD9F
:1023B30040AC3FAB48AA47A946A845D312079C5057
:1023C30006E5442423FF220544E5447002054364E3
:1023D3005B454370A6123B3CFF22123B0460149002
:1023E300005EE0FF3395E0FEC3EF9403EE64809458
:1023F300805006E4900054F022D3900058E09400FB
:10240300900057E064809480500302249C90005411
:10241300E0547FF523E4FFFE7D90123AF750191242
:102423003AE65007E5232402FF80027F088F2390BA
:102433000054E0547FF080417FCD7ECC7DE4123A9E
:10244300F7601A4018123AE65006E52304FF8002AB
:102453007F088F23900054E04480F0801CAF23EF6B
:102463003395E0FED3EF9400EE648094804006E55C
:102473002314FF80027F008F23900054E05480F0E8
:102483004523F0123AE64011E05480FF3395E04FC4
:102493007F0360027F04123CB42290004BE0B40738
:1024A3000040030225519024B0F82828730224C564
:1024B3000224D20224ED0224FB02251B0225290259
:1024C300254990004A740BF0A37401F002255112C0
:1024D300225D1222DF400280551222F070709000BC
:1024E3004A7407F0A37402F08064122235505F74BB
:1024F30023F0A37403F0805675F00C122260940548
:102503001222E1400280271222F0704290004A74A6
:1025130007F0A37404F080361222355031740BF0A7
:10252300A37405F0802812225D1222DF40071222D5
:1025330048FFAEF0221222F0701490004A7423F088
:10254300A37406F080081222355003E4A3F07EFF43
:102553007FFF22EF14603814605F1470030225E6D6
:102563002403600302260D1228FF400302260D30C8
:10257300080EA8057401088002C333D8FC428022E8
:10258300A8057401088002C333D8FCF452802212D8
:1025930028EA50761228F6407130080EA805740117
:1025A300088002C333D8FC429022A8057401088036
:1025B30002C333D8FCF45290221228C9504C12297A
:1025C30008404730080EA8057401088002C333D8B9
:1025D300FC42A022A8057401088002C333D8FCF48E
:1025E30052A022ED1228CD502130080EA805740107
:1025F300088002C333D8FC42B022AF05A807740198
:10260300088002C333D8FCF452B0228E2F8F30E4FB
:10261300F535F536E530452F70030226C30536E55B
:102623003670020535AE2FAF30EE3395E0FDFCE496
:102633007BA07A0FF9F812065B8F348E338D328CC0
:1026430031C006C007AE35AF36AB07AA06EA3395ED
:10265300E0F9F8D007D0061206E68F348E338D32B8
:102663008C31E47FFF7EFFFDFCAB34AA33A932A893
:1026730031C312079C50A6C374FF9534F53474FF1D
:102683009533F533E49532F532E49531F531AF34D2
:10269300AE33AD32AC3178081207AD8F8CE534FF21
:1026A3008F8AC20B438810E58820E503300BF8536B
:1026B30088CFE536153670021535E536453570CECB
:1026C30022200E0302277730101990F129E06003CE
:1026D3000227777F01300F01FF90F164EFF0C20E04
:1026E300C21022E4FFFE7DC87C42123CF7120314A1
:1026F300600C400A90005A1207DC42C80000E4FF55
:10270300FEFDFC123CF7120314500A90005A120704
:10271300DC00000000AF26AE25AD24AC23EC4D4E0B
:102723004FC36001D3920F7F007E807DBB7C451237
:102733003CF712016EE4FBFA798078BF12007D8FBB
:10274300268E258D248C23E4FBFA79C87842120265
:10275300778F268E258D248C231203CBAD07AC06F1
:10276300ECFFEF90F141F0ED90F140F0D21090F1D9
:10277300297401F0228B2D8A2E892FE5DF30E102A7
:10278300805090003DE004F0700690003CE004F0BF
:10279300900038E0F8A3E0F9A3E0FAA3E0FBAFDD93
:1027A300EFFEADDCEDFFEE3395E0FDFCEB2FFFEA32
:1027B3003EFEE93DFDE83CFC9000381207D0C39093
:1027C300003DE0940A90003CE0648094805007430D
:1027D300DF02E4FEFF22900038E0FCA3E0FDA3E06B
:1027E300FEA3E0FFE47B0AFAF9F81235EC90003817
:1027F3001207D0900038A3A3E0FFA3E0AB2DAA2ECD
:10280300A92FCF8FF012063C90003EE0AB30AA31E7
:10281300A9321205AAE490003FF0FE7F01228F2621
:102823008E258D248C23AC27AD28EC120392AB2686
:10283300AA25A924A823122ED0E4FBFA797A784496
:10284300120277122ED37B9D7A69795C783C12024F
:1028530077122ED3AB2CAA2BA92AA829122ED0C0CB
:1028630004C005C006C007E4FFFE7D7A7C44AB19B3
:10287300AA18A917A816122F11D007D006D005D071
:1028830004120277122ED3E4FBFA79C87842122E8F
:10289300D0E4FFFE7DC87C42122EEF600D400BE4B6
:1028A300F530F52F752EC8752D42E4FFFEFDFC12A1
:1028B3002EEF5009E4F530F52FF52EF52DAF30AEA0
:1028C3002FAD2EAC2D22EDFF7E00D39406748094A1
:1028D3008022EDF4F58275830085832985822A851C
:1028E300832B85822CED22EDFF7E00D39407748029
:1028F300948022C3EF94037480948022EDD39405D3
:102903007480948022C3EF94017480948022FBE44A
:1029130034F0FAA80574010822F4F5827583008562
:10292300832D85822E85832F22A3E0FBE52E4BFD8D
:1029330022A3E0FBE5304BFD22E0FBE52C4BFD221F
:10294300E0FBE52C5BFD22E0FBE52E5BFD22E0FBDB
:10295300E5305BFD22A3E0FBE5324BFD22A3E0FB68
:10296300EF4BFD22E0FBE5325BFD227D087F021287
:10297300391A404F900061E025E0F030A306E044AF
:1029830001F08007900061E054FEF0900061E0FFE9
:10299300540FFEFD7C00640F6003EF7026E4F5B472
:1029A300ED640F4CD37001C39216AF06EF640F7B37
:1029B3000170027B027D037F021234AD7D087F022A
:1029C300123BD0301608E55730E7037557803016B1
:1029D30027E55664857021120003D3EF9400EE645B
:1029E3008094804005123C25800BE4F55AF55C7514
:1029F3005901755801E4F556201613E557648470A0
:102A03000DF557E5587004755B0122E4F55822E48F
:102A1300F525F526F527FB7A0079257D027F01123E
:102A23000C7C7B007A0079257D01E4FF120C7C7D10
:102A330002122AA47B017D017F0312311D7B017DDC
:102A4300037F0112311D7B01E4FDFF12311D75254A
:102A530003E4F526752701FBFD7F0312311D7D017C
:102A6300122AA4D208E4FD7F0312255675DF4075B0
:102A7300DE60E4F5E9F5D1F5D375D50F75D4FF9094
:102A8300F69274A0F0E4F5089000381207DC000019
:102A93000000123414F0A3F0A304F043DE8002001C
:102AA300477B007A0079257F03120C7C228F2EEF5F
:102AB30064017003022B3CD20A123CC6752F0275C7
:102AC30030007F11122B3DAF32123C0C401D123CE3
:102AD3001B5018E53214F5310530E5307002052F2F
:102AE300C394FCE52F6480948340D7AF2EEF640832
:102AF300600FEF6409600AEF640A6005EF64037016
:102B03000385312EE531B52E028029E530B4FC1062
:102B1300E52FB4030B752F027530007F1D122B3D7B
:102B2300E52E04F5327B007A007932AD30AC2F7F8D
:102B3300191238BEC20A123CC6227B007A007932CF
:102B4300AD30AC2F1238BE2278FFE4F6D8FD9000EA
:102B5300007F007E04E4F0A3DFFCDEFA75816102EE
:102B63002BA0022E27E493A3F8E493A34003F6805B
:102B730001F208DFF48029E493A3F85407240CC876
:102B8300C333C4540F4420C8834004F45680014621
:102B9300F6DFE4800B0102040810204080903261CC
:102BA300E47E019360BCA3FF543F30E509541FFE4C
:102BB300E493A360010ECF54C025E060A840B8E4BD
:102BC30093A3FAE493A3F8E493A3C8C582C8CAC540
:102BD30083CAF0A3C8C582C8CAC583CADFE9DEE7D2
:102BE30080BEEF14602214603C146056240370749A
:102BF3001228FF4002806DED24801229118002C348
:102C030033D8FC55ACFC80601228EA50051228F634
:102C130050028050ED24881229118002C333D8FC5E
:102C230055ADFC80431228C9500512290850028073
:102C330033ED24901229118002C333D8FC55AEFC26
:102C43008026ED1228CD4002801AED2498FBE4344F
:102C5300F0FAAF05A8077401088002C333D8FC5506
:102C6300AFFC8004E4FEFF22EC7003FEFF228B82A4
:102C73008A83E05403FF7E0022E4F5DE90F692F0AF
:102C830090004004F0E4F508FFEFFD3395E0FCC34A
:102C9300ED9404EC648094805015EF3395E0FC745C
:102CA300342DF58274003CF58374FEF00F80DA90C6
:102CB30000381207DC00000000123414F0A3F0FB0C
:102CC3007D017F0312311DE4FB7D037F0112311D62
:102CD300752503E4F526F527FB7A0079257D027F28
:102CE30003120C7C7B007A0079257D087F01120C8E
:102CF3007CC2087D017F03122556C2087D037F0134
:102D0300122556C208E4FD7F0302255690001EE0FB
:102D1300700BAB51AA52A953120564600775540096
:102D230075552822D3E5559400E55464809480407A
:102D330009E5551555700215542290F500E4F0C2CB
:102D430007123972438704438702123C68D2081280
:102D53003A98123B727F017E0012260E12296E12E0
:102D63003C7D50F1D207123972E4F523F5241200A9
:102D730047120F493015130524E52470020523C3B8
:102D83009403E5236480948040E4E52464034523AD
:102D93007005F55475550FE4900040F02275250336
:102DA300E4F526752701C2087D02FF1225567B0034
:102DB3007A0079257D04E4FF120C7C7B127D02E40A
:102DC300FF12311D90F120E4F0A304F090F123F001
:102DD30090F12A74FFF090F122E4F090F12704F0CF
:102DE300A3F090F160E4F090F165F090F16404F0E9
:102DF30090F1317417F090F130746FF090F141E479
:102E0300F090F140F090005A1207DC00000000C27D
:102E130010C20E90F1267401F090F129F090F1297F
:102E2300E070FA22123C68D208123A9812004E124D
:102E33003A48122A12123B5112344F1235A2123859
:102E4300ED122DA01237E81233921211CA12213655
:102E530012000EE4900040F012004712296E12395E
:102E630046120F4912086E1215E0121F5C1226C497
:102E7300300CE5C20C123CE71237AD123771122F3A
:102E8300301230A9123630123672122D0F90005EB6
:102E9300E0FF3395E0FED3EF9402EE64809480402C
:102EA30003121E5A1223DD80AF900014E0FCA3E04E
:102EB300FDA3E0FEA3E0FF222400F58274003EF5AB
:102EC30083E0F8A3E0F9A3E0FAA3E0FB2212016E8A
:102ED3008F308E2F8D2E8C2D22AE25E52678022263
:102EE300D3E5249400E5236480948022AB30AA2F99
:102EF300A92EA82D020314E4900057F0A3F090002C
:102F030055F0A3F022C281C284C283C2852212017A
:102F13006EA804A905AA06AB0722AB51AA52A9536E
:102F23000205642400F58274003EF58322122235E3
:102F33004003E014F01222B3C3EF9418EE648094BC
:102F4300805003E004F090004C122238400DEF94BF
:102F530009EE648094805003E004F0AF50EF3395A2
:102F6300E0FEC3EF9420EE6480948050020550AFDE
:102F73004FEF12223A4002154F900044122238407C
:102F830003E014F0900042E0FF30E71C547FFEEFB3
:102F93005480F0EE1222E8940AEC6480948050018D
:102FA3000E900042E04EF022E4900042F022D20A5A
:102FB300123CC620091CE4F52AF52B742C1236DFCB
:102FC3007F111238BE052BE52B7002052A1236EA53
:102FD30040E9900047E0F534854931854A327F0066
:102FE3003002027F018F337A0079311236D41220F6
:102FF3004B8F35200907E535B53002802A7B007AEF
:1030030000792CE4FDFC7F1D1238BEE4F52AF52B74
:1030130074311236DF7F191238BE052BE52B70028F
:10302300052A1236EA40E9C20A123CC62290004D34
:10303300E0FEA3E0FFC39405EE64809480501AEE93
:103043007015EF14600B14600C24027055755E014B
:1030530022755E042280458049900046E0FF7E0091
:103063007C007D061205BCEF2405FFE43EFE9000C4
:103073004DE0FCA3E0FDC39FEE6480F8EC64809810
:103083005020ED24FBFFEC34FFFE7C007D03120592
:10309300CE7C007D021205CEED4C7004755E0222DB
:1030A3008000E4F55E22123D24500512225470077D
:1030B300E4900048F080299000481222CB7007EF7B
:1030C30020E6034480F09000481222BD5008E0201F
:1030D300E60405238003E4F523900048E04523F04C
:1030E300123D2B50051222547006E4900049F02241
:1030F3009000491222CB7007EF20E6034480F09042
:1031030000491222BD5008E020E60405238003E4B1
:10311300F523900049E04523F022EBF58264026039
:103123006AE58264036064E5826419605ED3E582C4
:10313300941C748094805053EF1460141460201412
:10314300602F240370451228FF5040ED2400802A8D
:103153001228EA50361228F64031ED2410800D1261
:1031630028C950271229084022ED2420F529EE8092
:103173000CED1228CD5014ED2430F529E434F0F58C
:1031830028EB541F852982852883F0228F2A122257
:1031930054F52DE4F52BF52C903F2175F009E52C22
:1031A30012080DE52B12227E652A703390004BF036
:1031B300AE2BAF2CFC7D091205BC74212FF9743F93
:1031C3003E7551FFF5528953E52D700AE52A6006D5
:1031D300FF122AB08005E4900041F0E4FEFF2205CF
:1031E3002CE52C7002052BC3940BE52B6480948093
:1031F30040A67E007F01227D037F02122BE5EF6450
:10320300014E7034C216E556547FFFE4F556E55877
:103213007004E55C6007E4F55CF5588033EFC39414
:1032230005502D120003C3EF940AEE64809480507E
:1032330002055A7557808018D216755400755528A3
:10324300E55730E703755780E55620E70375568049
:103253007D087F02123B0D900061740AF022C10CBD
:10326300C10BC10DC116015D00410062004100594F
:103273000041005F0041005E03410060000161FF07
:1032830041002B004100200342001C0000021B00F0
:1032930000021D0000C112C111C113C117C10641B3
:1032A3000042004100480041004400410049004100
:1032B30000430041004A004100411941004C00C154
:1032C30000C10100D20A123CC6E4F523F52474259B
:1032D3002524F9E4FAFBAD24AC237F111238BE0593
:1032E30024E52470020523C39405E52364809480B8
:1032F30040DCC20A123CC67A0079251236D4122069
:103303004BEFB52915900047E528F085254985261B
:103313004AE527C36001D3920222E4900047F012EA
:10332300399EC202D209122FB1228D262014092000
:103333001506E4900042F022900042E0FD3395E050
:10334300FCED4C70037480F0900042E0547FF5274D
:103353002015057528098003752802EF60183015BC
:1033630015AF27EF3395E0FEC3EF9403EE6480942B
:10337300804003023BEED3E5286480F8E5276480B0
:1033830098400B9000427480F0AF2612318F22E4F4
:10339300F526D20A123CC67523027524007B007AF7
:1033A300007925AD24AC237F111238BEAF25123C22
:1033B3000C401D123C1B5018E52514F5260524E589
:1033C3002470020523C394FCE5236480948340CDD9
:1033D300AF26EF6408600AEF64096005EF640A70C2
:1033E30003752604AF2612318FC20A023CC6743419
:1033F3002529F58274003528F5832275303EAB33D9
:10340300AA32A931A830AF3BAE3AAD39AC3802028B
:1034130077E490003CF0A3F0A3228F378E368D35EE
:103423008C34227BCD7ACC79CC783D020079E4FFD1
:10343300FE7D407C400203143395E0FEC364809418
:103443008022D3EF9416EE6480948022E4F54FFF3C
:10345300EF1222E8940BEC64809480502C903F216F
:103463001222766402701FEF3395E0FC903F261220
:103473002276F54B740193F54C903F22122276F598
:103483004D740193F54E0F80C71232C7E490004B81
:10349300F09000457404F0E4A3F07551FF75523FBA
:1034A300755321C204C203C20522EBD31228F8507C
:1034B30053EF14601414602014602F24037045121A
:1034C30028FF5040ED2480802A1228EA5036122823
:1034D300F64031ED2488800D1228C950271229089F
:1034E3004022ED2490F527EE800CED1228CD5014E8
:1034F300ED2498F527E434F0F526EB540385278271
:10350300852683F022AB0790003FE07046EB123430
:103513003B4040123445400AEF941FEE6480948090
:1035230040319000381207DC00000000123414EB25
:10353300F0A37401F0EB30E40543DF80800353DF35
:103543007F53DEF0EB540F42DE7F967E001236F49B
:1035530043DF0222C0E0C0F0C083C082C0D075D078
:1035630000C000C001C002C003C004C005C006C043
:103573000775C900151FB20DE51F7008751F04D22A
:103583000C12388CD007D006D005D004D003D0025B
:10359300D001D000D0D0D082D083D0F0D0E032752B
:1035A3002301E4F524F525FB7D037F0212311D7B06
:1035B300007A0079237D087F02120C7C7D087F024C
:1035C300123BD07B027D037F021234AD43B90475F5
:1035D300540075552890006174FFF0E4F556F557D3
:1035E300F559F55AF55BF55C22C2D5E830E70FB221
:1035F300D5E4C39BFBE49AFAE499F9E498F8EC3038
:10360300E717B2D51236221206E6E4C39BFBE49A0F
:10361300FAE499F9E498F880031206E630D50DE44C
:10362300C39FFFE49EFEE49DFDE49CFC22900046C4
:10363300E0FF7E00700590004D803090004EE00466
:10364300F0700690004DE004F07C007D061205BC8E
:10365300EF240FFFE43EFEC390004EE09FEE648034
:10366300F890004DE06480984004E4F0A3F0223029
:10367300030712225464036006E4900043F022908F
:103683000043E004F01222B6C3EF9410EE6480947A
:1036930080401CE4F0900047E0FF94057480948020
:1036A30050060FBF00008002E4FF900047EFF022B6
:1036B300FEFDFCAB41AA40A93FA83E02078675F078
:1036C30009EF12080DEE75F009A42583F583E49341
:1036D300227B007F047E007D007C0022252BF9E401
:1036E300FAFBAD2BAC2A22C39405E52A64809480AF
:1036F30022AD07AC06A2AF9208ED7802C333CE33F6
:10370300CED8F9FDAC06C374FF9DFD74FF9CFFEF9B
:10371300F58CAF05EFF58A53A87D438810E5883013
:10372300E5FB5388CF30080443A8822243A8022232
:10373300C0E0C0F0C083C082C0D075D000C000C05C
:1037430001C002C003C004C005C006C0071231FA9D
:1037530075B600D007D006D005D004D003D002D070
:1037630001D000D0D0D082D083D0F0D0E032121A72
:103773006A400CA3E024FFF090001CE034FFF090BB
:10378300002BE0FF30E71D547FFEEF5480F0EEFD89
:103793003395E0FCC3ED940CEC6480948050050EEB
:1037A300E04EF022E490002BF02290005EE0FF3325
:1037B30095E0FEC3EF9402EE648094805004E0042D
:1037C300F022EF64024E701C90005EE004F0A3E070
:1037D300FF3395E0FED3EF9400EE648094804004C1
:1037E300A37401F022752503752601752701122F95
:1037F300087D021238107D10E4FF120C7C7D081244
:1038030038107D20E4FF120C7C122EFA227B007A02
:10381300007925E4FF120C7C7B007A007925228E47
:10382300268F278C288D29E527640245266008E525
:10383300296402452870082011057F0812318FE59D
:1038430027640345266008E5296403452870057F3E
:103853000912318F22900047E0146012146014148F
:103863006016146018240470197E007F0A227E00FB
:103873007F19227E007F32227E007F64227E007FBA
:10388300C822122248FFAEF022E55630E711547FDA
:10389300FFC3940550010F535680EF42568003E453
:1038A300F556E55730E710547FFFC3940450010FDA
:1038B300535780EF425722E4F557228F36EF6419AE
:1038C3007005120564F5FEEDF5FCECFFEFF5FD0068
:1038D3008536FF000000000000E5FF20E0FBE53631
:1038E30064117005E5FE1205AA2290F5007409F033
:1038F30090F502E4F090F50CF090F5067439F0A31E
:10390300E4F090F500E04480F090F509E4F075B937
:103913008090F50804F022EF146011146015146010
:10392300192403701CE5AC5D6017D322E5AD5D601F
:1039330010D322E5AE5D6009D322E5AF5D6002D30B
:1039430022C322E56170277F057E0012260EE56102
:1039530025E0F56190F501E030E7020561AF61EF25
:10396300F470E490005FE004F0E490005EF0223035
:103973000717123A48122A12122DA01237E8E490C0
:10398300001EF012000E0238ED123CD7C208123AA4
:1039930098123BB1122C7C123D3222754903754AB1
:1039A30020E4FFFE903F211236C16402700D903F68
:1039B300241236C1F549740193F54A0FBF00010E75
:1039C300EF640B4E70DE22E4FBFA796112007D8F07
:1039D3002F8E2E8D2D8C2C22AB2BAA2AA929A82819
:1039E30022AF09EF3395E0FE228F2B8E2A8D298C8F
:1039F300282290F1417401F07F003007027FFF908D
:103A0300F140EFF090F1297401F090F129E070FAA0
:103A13007F01300F01FF90F164EFF022EF24FE608D
:103A23000E24FE601024037010C2A4D2A5800AD213
:103A3300A4C2A58004D2A4D2A57F147E0012260EB0
:103A4300C2A4C2A522752503E4F526752701C2A4E5
:103A5300C2A5FB7D10123A667B007D20123A66E414
:103A6300F55E227A0079257F02120C7C22A9079049
:103A73000048E0FE5480FB3395E04B700BED33952B
:103A8300E0FCED64014C700CEE547F900048F0AF05
:103A93000112318F22E4200806F5C853A8DF22F56E
:103AA300CE75CB0B75CADB75CD5D75CC6643A8208F
:103AB300F5C975CF80751F0475C89122C0E0C08316
:103AC300C0825380DF5380F75380FD5380EF53A0B0
:103AD300EF53A0DF75610090F509E4F0D082D08345
:103AE300D0E032AF23EF3395E0FEC3EF9408EE64EA
:103AF300809480227C40AB0DAA0CA90BA80A020378
:103B030014AB51AA52A953020564EF14600F146059
:103B13001114601324037013EDF452AC22EDF4522C
:103B2300AD22EDF452AE22EDF452AF22FDFCAB42D6
:103B3300AA41A940A83F02079CE4AB3CAA3DA93E89
:103B43000205AAAB42AA41A940A83F02079C7523DC
:103B5300407F0A7E0012260E120047E51A7003D535
:103B630023EFE5237008755E04121E5A80FE227D42
:103B7300087F02123B0D90006174AAF0D216E5573C
:103B830030E703755780E55620E70375568022E535
:103B9300587004E55C6004E4FEFF22E55B7003FEFD
:103BA300FF22120003300805E4F55BF55A22E4FB1B
:103BB3007D02FF12311DC2087D02E4FF12255690DB
:103BC300F121E4F090F126F090F123F022EF14605C
:103BD3000E14600F1460102403700FED42AC22ED3D
:103BE30042AD22ED42AE22ED42AF22122254FF60DB
:103BF3001790000712057D6005900045EFF0E4FF84
:103C030012318FE4FF122AB022EF3395E0FEC3EFA7
:103C13009401EE6480948022D3EF940BEE6480943D
:103C23008022E4F557F55BF55AF558F559EF640131
:103C33004E7F0070027F018F5C22900049E0FE54AA
:103C430080FD3395E04D6007EE547FF012318F22F3
:103C530053DE7F007F002008027FA090F692EFF0F2
:103C63000043DE80225388CF5389F0438901E4F572
:103C73008CF58A75A80243A88022E5596002D322F5
:103C8300E55B6002D322E55CC36001D32290006050
:103C9300E07002FF2290005FE0FFE4F0A3F022EF68
:103CA30064014E700B200505123D244003123BEEC8
:103CB30022900046EFF0123B04640160057F01127D
:103CC300318F22300A07C2AF0075FBAA2275FB555C
:103CD30000D2AF22C2AF007596AA7596555397FDD1
:103CE30000D2AF22C2AF007596AA759655439701CD
:103CF30000D2AF2290005AE0F8A3E0F9A3E0FAA3C0
:103D0300E0FB22E5597002C322E4F559D322E55DB5
:103D13005480FF3395E04F2290001EE0700204F0C0
:103D230022E558C36001D322E55CC36001D32212AC
:103D33002EFA122F08225388EFD20B3200512CD5C2
:103D4300004B18690045845700406521003BB06271
:103D530000375CB60033619B002FB760002C570718
:103D630000293A3D00265B410023B4DC0021424D8B
:103D7300001EFF45001CE7D5001AF86900192DBE87
:103D8300001784DA0015FB0600148DC700133ADA16
:103D93000012002B0010DBD6000FCC1E000ECF6CE0
:103DA300000DE44B000D0965000C3D80000B7F7C8A
:103DB300000ACE50000A290700098EC30008FEB589
:103DC3000008781F0007FA52000784AE0007169D0B
:103DD3000006AF9700064F1C0005F4B800059FFED0
:103DE3000005508B000506020004C00D00047E5D33
:103DF300000440A9000406AC0003D02700039CE1A3
:103E030000036CA100033F37000314720002EC2887
:103E13000002C62F0002A2630002809F000260C35B
:103E2300000242B10002264C00020B7B0001F22388
:103E33000001DA2E0001C3870001AE19000199D2F7
:103E4300000186A0000174720001633A000152EA86
:103E530000014372000134C8000126DF000119ACE0
:103E630000010D2500010141F5F5EB3AE107D755B6
:103E7300CE1DC558BD00B50EAD7FA64C9F7098E70B
:103E830092AC8CBB871181AA7C82779772E46E67B0
:103E93006A1E6606621C5E5F5ACB575F541950F860
:103EA3004DF84B1A485A45B8433340C83E773C3E19
:103EB3003A1D3812361D343B326D30B22F082D6F48
:103EC3002BE62A6C290127A42655251323DD22B2CC
:103ED3002193207F1F751E751D7E1C901BAC1ACF6E
:103EE30019FB192E186917AA16F31642159714F21F
:103EF300145313B913251296120C11861105108849
:103F030010100F9B0F2B0EBE0E550DEF0D8C0D2DAC
:103F13000CD10C780C210BCE0B7D0B2E0AE3000089
:103F2300000000000001000100000000000000008C
:103F330003015E00000AF0000004032000000B549C
:103F430001000505DC00000BB80100060BB80000FA
:103F53000BEA0101071D4C00000C1C0101083A98F3
:103F630000000C80000109271000000BB8000102BB
:103F73001D4C01F40C1C00010A271000000BB800B3
:103F8300010000000000000000000000000000002D
:103F930000000000005854524C69746520465731A4
:083FA3002E3161001F0D000624
:00000001FF
