:10000000022C2EAF19EF3395E0FE22023D3AE58E29
:10001000541FF5684368C085688EC2AF007596AA04
:0A00200075965543970200D2AF22F7
:10002B000235F375247F123D40E56170117F05FEAB
:0F003B00122580D524F0756602121F9480FE22D4
:10004B000237DB121A98400CA3E024FFF090001C3F
:10005B00E034FFF090002AE0FF3395E0FE121B51D5
:06006B004003E014F02246
:10007300023A76020437E86480F8E933E833601122
:100083000460F0ED33EC337009E8FCE9FDEAFEEBC4
:10009300FF220460DED3EB9FEA9EE99DE8C2E78C72
:1000A300F0C2F795F0400CE8CCF8E9CDF9EACEFAC6
:1000B300EBCFFB12040285D0F05804700320D5B3B4
:1000C300E80470075002B2D502044192D5EC0460F3
:1000D300F7E4CCC0E0C398F8603B94186008400D87
:1000E300D0E0FB020419E4FBFAC9FC8028E830E401
:1000F30006E4C9FBE4CAFCE830E305E4C9CACBFC67
:10010300E854076010F8C3E913F9EA13FAEB13FB99
:10011300EC13FCD8F130F52FC3E49CFCEF9BFFEE0E
:100123009AFEED99FDD0E0FBEF4E4D4C701222DBB1
:100133000302043EEC2CFCEF33FFEE33FEED33FD04
:10014300ED30E7EB020419EF2BFFEE3AFEED39FD3C
:10015300D0E0FB50130BBB0003020441ED13FDEE93
:1001630013FEEF13FFEC13FC020419EC4D6011E8CE
:10017300497017ED33EC3304600DE4FCFFFEFD2200
:10018300E933E8330470F8020437120402580460B8
:1001930009E4CC2481500628500902044128400375
:1001A30002043EC0E0EB4A7044B98006D0E0FB0293
:1001B300042DEF4E701CBD8008EBFFEAFEE9FD80C5
:1001C300EBE98DF0A4FEE5F0020257E9CDF9EAFE72
:1001D300EBFFEF89F0A4FCE5F0CE89F0A42EFFE459
:1001E30035F0CD89F0A42DFEE435F08067EF4E7035
:1001F30005BD80D780C3EF8BF0A4ACF0EE8BF0A4E9
:100203002CFCE435F0F8EF8AF0A42CE5F038FCE49C
:1002130033CB8DF0A42CFCE5F03BF8EE8AF0A42C54
:10022300FCE5F038F8E433CF89F0A42CFCE5F03892
:10023300CF3400CE89F0A42FFFE5F03EFEE433C9AE
:100243008DF0A42EFEE5F039CD8AF0A42FFFE5F062
:100253003EFEE43DFD33D0E0FB50070BBB000F0235
:100263000441EC2CFCEF33FFEE33FEED33FD0204CF
:1002730019020441EC5D046005E8590470030204AB
:1002830037120402580460F6EC4860F2EC7004FD87
:10029300FEFF22C860DB2481C85009C39860025066
:1002A3000602043E9850CAF582E9294B4A7005AB11
:1002B3008202042D75F0007C1A7880C3EF9BEE9ABE
:1002C300ED99400DC3EF9BFFEE9AFEED99FDE842D9
:1002D300F0DC23ACF0D0E0FFD0E0FED0E0FDAB8259
:1002E30020E7101BEB60BAEC2CFCEF33FFEE33FE80
:1002F300ED33FD020419E803F830E705C0F075F0AB
:1003030000EF2FFFEE33FEED33FD40B830E7C28040
:10031300AA74F8CC6480CCC86480C8F58204604FAA
:10032300C3EB9FF5F0EA9E42F0E99D42F0E89C455D
:10033300F0603C501DE5825FFFE582D313CB5BCBBE
:10034300F42B5582FB50280ABA002409B90020086F
:10035300801DE5825BFBE582D313CF5FCFF4C3132C
:100363002F5582FF50090EBE00050DBD00010CC3C1
:10037300EB9FF5F0EA9E42F0E99D42F0E89C45F0E0
:100383006007CC4820E701B3EC2275F020800E759E
:10039300F010800575F0087D007E007F003392D554
:1003A30030D503120778EC334010EF33FFEE33FE02
:1003B300ED33FDEC33FCD5F0ED22E5F0247EA2D540
:1003C30013CC92E7CDCEFF22EDD2E7CD33EC3392BF
:1003D300D524814006E4FFFEFDFC22FCE4CFCECD14
:1003E300CC24E0501174FF80EDC3CC13CCCD13CDDE
:1003F300CE13CECF13CF0470F030D5DE020778E9E9
:10040300D2E7C933E833F892D5EDD2E7CD33EC33F5
:10041300FC5002B2D522EC30E7100FBF000C0EBE29
:1004230000080DBD00040BEB6014A2D5EB13FCED2B
:1004330092E7FD2274FFFCFDFEFF22E480F8A2D5C3
:1004430074FF13FC7D80E480EFE709F608DFFA8090
:1004530046E709F208DFFA803E88828C83E709F0D9
:10046300A3DFFA8032E309F608DFFA8078E309F2C2
:1004730008DFFA807088828C83E309F0A3DFFA80B7
:100483006489828A83E0A3F608DFFA805889828A26
:1004930083E0A3F208DFFA804C80D280FA80C68022
:1004A300D4806980F28033801080A680EA809A80AD
:1004B300A880DA80E280CA803389828A83ECFAE4F6
:1004C30093A3C8C582C8CCC583CCF0A3C8C582C8D2
:1004D300CCC583CCDFE9DEE7800D89828A83E49390
:1004E300A3F608DFF9ECFAA9F0EDFB2289828A83EF
:1004F300ECFAE0A3C8C582C8CCC583CCF0A3C8C5B9
:1005030082C8CCC583CCDFEADEE880DB89828A83BC
:10051300E493A3F208DFF980CC88F0EF60010E4E7C
:1005230060C388F0ED2402B4040050B9F582EB24D3
:1005330002B4040050AF232345822390049C73C26A
:10054300D530F707B2D563F0FF05F030E70CB2D52D
:10055300F4048463F0FF05F080018430D502F404D1
:1005630022BB010689828A83E0225002E722BBFE76
:1005730002E32289828A83E49322BB010CE5822968
:10058300F582E5833AF583E0225006E92582F8E611
:1005930022BBFE06E92582F8E222E58229F582E5FF
:1005A300833AF583E49322BB010689828A83F0228E
:1005B3005002F722BBFE01F322EF8DF0A4A8F0CF87
:1005C3008CF0A428CE8DF0A42EFE22C2D5EC30E709
:1005D30009B2D5E4C39DFDE49CFCEE30E715B2D52A
:1005E300E4C39FFFE49EFE120839C3E49DFDE49C2F
:1005F300FC800312083930D507C3E49FFFE49EFE55
:1006030022BB0110E58229F582E5833AF583E0F503
:10061300F0A3E0225009E92582F886F008E622BB20
:10062300FE0AE92582F8E2F5F008E222E5832AF5DD
:1006330083E993F5F0A3E99322BB010A89828A83B4
:10064300F0E5F0A3F0225006F709A7F01922BBFE4C
:1006530006F3E5F009F31922E88FF0A4CC8BF0A49C
:100663002CFCE98EF0A42CFC8AF0EDA42CFCEA8E81
:10067300F0A4CDA8F08BF0A42DCC3825F0FDE98FA4
:10068300F0A42CCD35F0FCEB8EF0A4FEA9F0EB8F9B
:10069300F0A4CFC5F02ECD39FEE43CFCEAA42DCE68
:1006A30035F0FDE43CFC2275F008758200EF2FFF66
:1006B300EE33FECD33CDCC33CCC58233C5829BED37
:1006C3009AEC99E58298400CF582EE9BFEED9AFD3B
:1006D300EC99FC0FD5F0D6E4CEFBE4CDFAE4CCF9EB
:1006E300A88222B800C1B90059BA002DEC8BF0845E
:1006F300CFCECDFCE5F0CBF97818EF2FFFEE33FE2C
:10070300ED33FDEC33FCEB33FB10D703994004EBE3
:1007130099FB0FD8E5E4F9FA227818EF2FFFEE33AF
:10072300FEED33FDEC33FCC933C910D7059BE99AC1
:100733004007EC9BFCE99AF90FD8E0E4C9FAE4CC52
:10074300FB2275F010EF2FFFEE33FEED33FDCC33BC
:10075300CCC833C810D7079BEC9AE899400AED9BA5
:10076300FDEC9AFCE899F80FD5F0DAE4CDFBE4CC84
:10077300FAE4C8F922C3E49FFFE49EFEE49DFDE48E
:100783009CFC22EB9FF5F0EA9E42F0E99D42F0ECDF
:100793006480C864809845F022EB9FF5F0EA9E429E
:1007A300F0E99D42F0E89C45F022E8600FECC313AA
:1007B300FCED13FDEE13FEEF13FFD8F122E493FCDF
:1007C300740193FD740293FE740393FF227401FF7B
:1007D3003395E0FEFDFC080808E62FFFF618E63E19
:1007E300FEF618E63DFDF618E63CFCF622ECF0A317
:1007F300EDF0A3EEF0A3EFF022A8828583F0D0837F
:10080300D082120813120813120813120813E47388
:10081300E493A3C583C5F0C583C8C582C8F0A3C547
:1008230083C5F0C583C8C582C822A42582F582E5A5
:10083300F03583F58322BC000BBE0029EF8DF084D5
:10084300FFADF022E4CCF875F008EF2FFFEE33FE96
:10085300EC33FCEE9DEC984005FCEE9DFE0FD5F0CD
:10086300E9E4CEFD22EDF8F5F0EE8420D21CFEADD6
:10087300F075F008EF2FFFED33FD4007985006D5D4
:10088300F0F222C398FD0FD5F0EA22123CCE8F2658
:10089300123D079206C207123B498E248F25900012
:1008A30045E06009C3940B74809480400690004532
:1008B3007404F012214BEF64184E700AE004F01236
:1008C30020FAFF122B8A900046E0FF6401700302B6
:1008D3000C6BEF64027003020C6BEF64087003028D
:1008E3000C6BEF64047003020C6B1220FAB40B0060
:1008F3004003020BB89008FFF82828730209390255
:100903000920020AB9020A61020ADA020AEE020B9C
:1009130001020B14020B3B020B6F020B93C2042068
:100923000603020BB8900046E064077003020BB89D
:10093300E4F0FF0209D0E525640545247011C204E3
:10094300D3300301C392039000447408F08018303D
:100953000315D3E5259400E52464809480500512A3
:100963003C665003756606300303020BB8E5256445
:10097300064524700DD3300401C3920490004474DF
:1009830002F0300427123D254003020BB87F667E38
:10099300667D4612209C600940072010047F088072
:1009A3002C122096603240307F078060E525640179
:1009B300452470267F9A7E997D3912209C601040D1
:1009C3000E3002047F028005900045E0FF803D1257
:1009D300209660044002803C8050E5256402452453
:1009E300702F30100280437F667E667D4612209C06
:1009F300600740057F08020B6A1220966011400FC2
:100A03003002047F028005900045E0FF020B6A80FC
:100A1300193006057F03020B6A122162701212203D
:100A230096600740057F09020B6A756606020BB8DC
:100A3300E525640445247018D3300201C392027F74
:100A4300082002027F098F66C208122FF8020BB832
:100A5300123D2C4003020BB8123D1C020BB87D0360
:100A63007F01123376E525640145247003123BA50B
:100A730020060B12211364014E6003020BB87F9A08
:100A83007E997D3912209C60025003020BB87F04CB
:100A93003002027F0212323B12211364014E7003B3
:100AA300020BB83002031239D3900047E04440F000
:100AB300750E04020BB820051312211364044E7043
:100AC300057F0312323B120C94120CB6121C7DAF3D
:100AD3002612191C020BB87D047F01123376120C07
:100AE30094120CB6AD267F05020BB57D04120C6C77
:100AF300120CBEAD267F06123A277F0480357D0592
:100B0300120C6C120CBEAD267F07123A277F0580AC
:100B1300227D06120C80AD25AC24123853E4FD7FF0
:100B230004123A2712211364014E70057F03123217
:100B33003B7F06123C26807D7D07120C80EF64010B
:100B43004E600BE52564024524600330120A7F04DE
:100B53003002027F0212323B12211364034E6005FE
:100B630012216270507F0912323B80497D09120CB9
:100B7300A370082010057F0812323B122162700A0D
:100B83007F043002027F0212323BAD267F0A8022AD
:100B93007D0A120CA370082010057F0812323B1245
:100BA3002162700A7F043002027F0212323BAD26BB
:100BB3007F09123A279000441220B2400C900000A3
:100BC3001207FC42A00000806EAF0EEF1220B4406B
:100BD3000C9000001207FCBF800000805A1220FA1C
:100BE30024FE602224F8603A047040300C0E90001A
:100BF30001120604FFAEF0AC06FD80357EFF7FFFD9
:100C03007CFF7DFF802BC3E50D9509E508122124A8
:100C13005006AE0CAF0D8004AE08AF09AC06AD07AD
:100C2300800F1224C8AC06AD0780061220C2FDACAB
:100C3300F01221351207F012212D1220A160084075
:100C43000612212D1207F0D207123B49900000E053
:100C5300FCA3E0FDA3E0FEA3E0FF1203CB121B699C
:100C630090004EEEF0A3EFF022E4FF123376AF25AF
:100C7300AE24123C79AF26EF3395E0FE22E4FF1257
:100C83003376AF25AE24123C79AF26EF3395E0FEE1
:100C930022AF25AE24123C79AF26EF3395E0FE2236
:100CA3007F01123376AF25AE24123C79E525640229
:100CB300452422AD25AC2412385322AD25AC241291
:100CC3003853228F29120564FF1460151460281409
:100CD300603D14603A2404705C122A4D122A9480F9
:100CE30029122A4DF5827401F52E85822FE582F4AF
:100CF300F5827530008013122A4DF4F582752E00AB
:100D030085822FEDF5827401F5308582318026EDE1
:100D1300122A94858231EDF5827401F52A85822B9E
:100D2300EF64047007EDFF7401FE8005EDF4FF7EB0
:100D3300008E2C8F2D90000112057D7007EDFF743E
:100D430001FE8005EDF4FF7E008E328F33900002AA
:100D530012057D7007EDFF7401FE8005EDF4FF7E43
:100D630000E529147003020E02147003020E8514A9
:100D73007003020F0824036003020F92E52AAB9A63
:100D830030E006E52B4BFD8004E52B5BFD8D9AE5FA
:100D93002C30E00890F009122AB4800690F0091272
:100DA3002ABB90F009EDF0E52E30E005122AA4806D
:100DB3000690F00A122AC290F00AEDF0E53030E016
:100DC30005122AAC800690F00B122AC990F00BEDA5
:100DD300F0EE30E005122AD8800890F00CE0FBEF2B
:100DE3005BFD90F00CEDF0E53230E005122AD08087
:100DF3000690F00D122ADFAF0590F00DEDF022E51D
:100E03002AABA130E006E52B4BFD8004E52B5BFD0F
:100E13008DA1E52C30E00890F019122AB4800690D9
:100E2300F019122ABB90F019EDF0E52E30E005120F
:100E33002AA4800690F01A122AC290F01AEDF0E567
:100E43003030E005122AAC800690F01B122AC990BC
:100E5300F01BEDF0EE30E005122AD8800890F01C6C
:100E6300E0FBEF5BFD90F01CEDF0E53230E00512A6
:100E73002AD0800690F01D122ADFAF0590F01DEDF9
:100E8300F022E52AABA230E006E52B4BFD8004E51A
:100E93002B5BFD8DA2E52C30E00890F029122AB4DB
:100EA300800690F029122ABB90F029EDF0E52E3050
:100EB300E005122AA4800690F02A122AC290F02A92
:100EC300EDF0E53030E005122AAC800690F02B12ED
:100ED3002AC990F02BEDF0EE30E005122AD88008F5
:100EE30090F02CE0FBEF5BFD90F02CEDF0E5323061
:100EF300E005122AD0800690F02D122ADFAF05906C
:100F0300F02DEDF022E52AABA330E006E52B4BFDF7
:100F13008004E52B5BFD8DA3E52C30E00890F039D0
:100F2300122AB4800690F039122ABB90F039EDF002
:100F3300E52E30E005122AA4800690F03A122AC268
:100F430090F03AEDF0E53030E005122AAC800690DF
:100F5300F03B122AC990F03BEDF0EE30E008A3E03D
:100F6300FDEF4DFF800890F03CE0FDEF5DFF90F05A
:100F73003CEFF0E53230E009A3E0FDE5334DFF80BF
:100F83000990F03DE0FDE5335DFF90F03DEFF02289
:100F9300C3900029E0942C900028E0648094815051
:100FA30071E4FFFE7D7A7C44AB52AA51A950A84F4D
:100FB30012016E1203CB8F2D8E2C8D2B8C2A900059
:100FC30029E004F07006900028E004F0121A8A2544
:100FD3002DFFEE352CFEED352BFDEC352AFC900074
:100FE300241207F0121AF8C3121B3C500A90002077
:100FF300E52CF0A3E52DF0900022121AFBD3121B6F
:101003003C5003021094900022E52CF0A3E52DF050
:10101300807F121A8AFFC004C005C006C007900073
:1010230022E0FEA3E0FBAA06EA3395E0F9F8121AE0
:10103300F8EF2BFBEE3AFAED39F9EC38F8D007D09C
:1010430006D005D004C3EF9BFFEE9AFEED99FDECAD
:1010530098FC121A84FFC006C007900029E024FE02
:10106300FF900028E034FFAB07FA3395E0F9F8D09E
:1010730007D0061236D3121A84FFEC12038D121B0B
:101083004790002B1207F0121AB91207FC00000058
:1010930000121B2A64027006AC0AAD0B800FAB1062
:1010A300AA11A912900005120604FDACF0EC12037C
:1010B30092121B478F298E288D278C267D2C121A7E
:1010C3004960054003C38001D39214301404C21352
:1010D3008039AB56AA55A954A853AF4EAE4DAD4C6B
:1010E300AC4B1202777B9A7A997959783F120314A1
:1010F3005004D2138015AF29AE28AD27AC26121A9F
:101103004F60054003C38001D3921390001FE01486
:10111300601A14603014604F240370587FCD7ECC66
:101123007D6C121A4D504D121B6280487F9A7E9936
:101133007D79121A4D60074005E490001FF0121AE2
:101143004750318029E4FFFE7D60121A4D6005404F
:1011530003121B627F9A7E997D39121A4D501590A6
:10116300001F7403F0800D121A47600840069000B8
:101173001F7402F0AF66EF6406604FAF66EF64085A
:101183006048AF66EF64096041900046E060030287
:1011930032A6121B2A700690002AE0602190001FDD
:1011A300E014600E14600F1460102403701C756645
:1011B3000322756602227566012275660422900079
:1011C3001EE060030213F3E4F5662275240075251F
:1011D3004078007C007D017BFF7A3F79887E007F29
:1011E3001412051C123BC350057F0A0213EFE4FFE0
:1011F300FE7DB07C40AB56AA55A954A853120314E4
:1012030050030213F2122E6160030213F2C283C26F
:1012130085C281D206123B07D2847F057E00122548
:1012230080123D407F667E667D867C40AB4EAA4D34
:10123300A94CA84B1203146002500DE52515257027
:10124300021524122E2750D2E52545247007C284A7
:101253007F010213EF752400752564C2847F147E19
:1012630000122580C206123B07123D407F0A7E0012
:10127300122580752600752704122E20C333CE3322
:10128300CED8F924FCF58274FF3EF583122DF3C00A
:1012930004C005C006C007122E20C333CE33CED8F8
:1012A300F9122E6AD007D006D005D0041207F0E554
:1012B30027152770021526E527452670BCAF4EAECD
:1012C3004DAD4CAC4B9000001207F0900014120788
:1012D300FC00000000E4F526F527122DF0C004C041
:1012E30005C006C007122E20C333CE33CED8F91261
:1012F3002DFFD007D006D005D00412007D90001436
:101303001207F00527E527700205266405452670B8
:10131300C9122DF0E4FBFA79A0784012027790000D
:10132300141207F09000181207FC00000000E4F507
:1013330026F527900018122DF3C004C005C006C07F
:1013430007122E20C333CE33CED8F9122DFF122D20
:10135300F0120079E4FBFAF9F8120314500F122E7D
:1013630020C333CE33CED8F9122DFF801A122E208C
:10137300C333CE33CED8F9122E6A122DF3E4FBFA1F
:10138300798078BF122E55122DF0120079AB07AA7F
:1013930006A905A804D007D006D005D00412007D05
:1013A3009000181207F00527E5277002052664054B
:1013B30045266003021336C3E525945D122E2C5097
:1013C30013E4FFFEFD7C3F900018122E0812031455
:1013D30060025010E525152570021524122E2740B2
:1013E3000302126CE525452470057F02123C8B2213
:1013F30090001EE014B4090040030215D390140EAC
:1014030075F003A4C58325F0C58373021429021460
:101413003C0214BB0214E60215160215410215859F
:101423000215B10215C3E4F566121B1390001CE408
:10143300F0A3740EF0A37402F090001CE0FEA3E08E
:10144300FFD3940CEE64809480400575660380237B
:10145300D3EF940AEE64809480400575660280138E
:10146300D3EF9408EE648094804005756601800391
:10147300E4F566121B5140030215D390002F121A94
:101483008DFF1203CB7D64121AE0AE2EAF2F7C00CA
:101493007D0A1205CE8E2E8F2FE52F452E70051255
:1014A3001B21800D121B5BC333CE33CED8F9121A26
:1014B300EA90001E7403F02290001CE0B4FF0AA31C
:1014C300E0B4FF057F011215D4121A6040027F01B8
:1014D300121B0740030215D3121B33740AF0A374C3
:1014E30004F022121A9840030215D390002F121A07
:1014F3008D121AD6E52F452E7005121B21800D1271
:101503001B5BC333CE33CED8F9121AEA90001E7494
:1015130005F02290001CE0B4FF0AA3E0B4FF057FAE
:10152300021215D4121A6040027F02121B074003F5
:101533000215D3121B33740AF0A37406F022121A95
:101543009840030215D390002F121A8DFFE4FBFA83
:101553007920784112016E121B1B90002F121A8DF5
:10156300121AD6E52F452E7005121B21800D121B72
:101573005BC333CE33CED8F9121AEA90001E740738
:10158300F02290001CE0B4FF0EA3E0B4FF097F0338
:10159300123A9DE4121B23121A6040027F03121BAE
:1015A30007502D121B33740CF0A37408F022121A87
:1015B30098501D90002A740CF090001E7409F022BC
:1015C30090002AE0700A123D2C4005E490001EF0C2
:1015D30022123A9DE490001CF0A3F0228E2D8F2E50
:1015E3008D2F90F692E030E708E4FFFEFD7C40800B
:1015F300031230B71230A5AC2DAD2EEC120392C0FE
:1016030004C005C006C007E4FBFA79807845AF370C
:10161300AE36AD35AC34120277D003D002D001D050
:101623000012016E8F3B8E3A8D398C38E52F60594D
:1016330024FA70030216E424FE700302171C24FB31
:10164300700302174724EE60142411600302178607
:10165300853B5E853A5D85395C85385B22AC2DAD73
:101663002EEC120392A804A905AA06AB077F9A7E63
:10167300997D997C451202778F338E328D318C3070
:101683008F5A8E598D588C5722753335753248755C
:10169300310312308C8F568E558D548C53AB56AA12
:1016A30055A954A8531230CB5013AF56AE55AD5471
:1016B300AC531230C08F568E558D548C53900059B5
:1016C300E0FC120397A804A905AA06AB07AF56AE20
:1016D30055AD54AC531202778F528E518D508C4FAF
:1016E3002275332D7532A675313312308C8F4E8EA1
:1016F3004D8D4C8C4BAB4EAA4DA94CA84B1230CB05
:101703004003021786AF4EAE4DAD4CAC4B1230C00A
:101713008F4E8E4D8D4C8C4B221230831230B7126C
:101723000079C004C005C006C0077D4812307E1290
:10173300016ED003D002D001D0001230A21203CB2D
:101743008E5F8F601230831230B7120079C004C0ED
:1017530005C006C0077DA512307E12016ED003D0EE
:1017630002D001D0001230A2E4FBFA797A78441255
:10177300016E1230A51203CB7B007A00796112222D
:10178300758F4A22E56170047F068041123996D332
:10179300EF9441EE648094804002D212D3EF943CE4
:1017A300EE648094804004D210800DC3EF9432EE37
:1017B300648094805002C210301205201002C212BD
:1017C300D3EF944BEE6480948040057F07023C8BFB
:1017D300123996C3EF9437EE64809480500D9000D5
:1017E30046E064077005F0FF12323BAB10AA11A963
:1017F3001290000812057D7004C211801F123996E1
:10180300D3EF9432EE648094804004D211800DC3F0
:10181300EF9428EE648094805002C21120110AE4F0
:10182300F51CF51DF51EF51F22D390004FE0940023
:1018330090004EE064809480500302191B12399685
:10184300EF24CEFFEE34FFAB07FAD3EB9400EA6448
:101853008094804004AE02801AC3E49BFFE49AFEA6
:10186300D3EF9401EE648094807E0040047F018076
:10187300027F00EF4E604290004EE0FEA3E0FF7C4B
:10188300177D701205CED3EF9400EE6480948040F0
:1018930002801D90004EE0FEA3E0FFC3E49FFFE43F
:1018A3009EFE7C177D701205CEEF2401FFE43EFE01
:1018B300AD03AC021205BC80047E007F00EF251F40
:1018C300F51FEE351EF51ED3E51F9450E51E64800B
:1018D30094C64006751E46751F50C3E51E6480946A
:1018E300805005E4F51EF51FEB251DF51DEA351C9B
:1018F300F51CD3E51D94E0E51C648094AE400675A9
:101903001C2E751DE0C3E51D9420E51C64809451D5
:101913005006751CD1751D20228F27123D2C4005C2
:10192300123D255003D38001C392071220C2122116
:101933001C500AAC0CAD0DAE04AF0580008E288F91
:1019430029900001120604FFC3E5299FE5F0648096
:10195300F8E528648098500B3007081221044003EF
:1019630012218120050EAF2712211564014E7050FC
:10197300D205804C30010A0509E509700C05088081
:1019830008E5091509700215089000031220C5FF28
:10199300AEF0D3E5099FEE12210A5006D2018E085C
:1019A3008F091221034005C201122181AF271221A1
:1019B3001564014E6005123C665005C205750F1E85
:1019C300123D25500D20000A0509E509701E050882
:1019D300801A123D2C500D20000AE50915097002EA
:1019E30015088008200705300002C200123D25506B
:1019F3001020000D1221034008750E04122181D21C
:101A030000123D2C5025200022AB10AA11A91290E0
:101A13000003120604FFAEF0D3E5099FEE12210A7C
:101A23005009750E048E088F09D200300704E4F5BF
:101A33000F22AF0F12211564204E7007050FC20845
:101A4300122FF8227D4C7FCD7ECC7C4090002BE082
:101A5300F8A3E0F9A3E0FAA3E0FB02031490001C4F
:101A6300E0FAA3E0FB7C007D04FFAE021205CE8CFE
:101A73002E8D2FD3E52F9401E52E648094807F0073
:101A8300229000241207F0900024E0FCA3E0FDA3C1
:101A9300E0FEA3E022D390001DE0940090001CE040
:101AA30064809480227F9A7E997C40AB52AA51A98C
:101AB30050A84F020314900020747FF0A374FEF02B
:101AC300A37480F0A37402F0E4900028F0A3F090D4
:101AD300002422FF1203CB8E2E8F2F7D0A7C00124F
:101AE30005CE8C2E8D2F2224FFFFEE34FF90001C99
:101AF300F0A3EFF022900020E0FEA3E0FFEE339589
:101B0300E0FDFC228F66D3EB9400EA64809480228C
:101B1300AF56AE55AD54AC5390002F0207F074FF8F
:101B230090001CF0A3F022AB10AA11A912020564C5
:101B3300E4F56690001CF0A322AB2DAA2CA92BA8D8
:101B43002A020786E4FBFA797A7844020277D3EF14
:101B53009400EE6480948022AE2EE52F78022290CA
:101B6300001F7401F0228E278F2830110DD3E52832
:101B73009400E527648094805005AE27AF2822ACFB
:101B83001EAD1FEC1203927B007AA0798C7846126B
:101B9300027712399EE4FBFA79C8784212016E1279
:101BA300399EAC1CAD1DEC1203927B007A80793B0D
:101BB30078461202778F348E338D328C3112398D01
:101BC300C000C001C002C003E4FFFE7D207C41AB26
:101BD30034AA33A932A83112016ED003D002D00146
:101BE300D00012007D12399EE4FFFEFDFC12398DF8
:101BF3001203145009E4F52CF52BF52AF529E4FF1B
:101C0300FE7DC87C4212398D120314600D400BE433
:101C1300F52CF52B752AC8752942C3E52894DCE514
:101C2300276480948550057E057FDC22AC27AD2890
:101C3300EC12039278C412397BE4FBFA79C8784238
:101C4300120277123984AB30AA2FA92EA82DC00017
:101C5300C001C002C00312398DE4FFFE7DC87C427F
:101C6300120079D003D002D001D00012016E1239D4
:101C730084784412397B1203CB22301303021D0AEA
:101C8300301403021D0AE4900043F090001FE0604B
:101C930003021D841220C212211C506590004BE0E8
:101CA300FD700404F08010ED1221739409EC64803C
:101CB30094805003021D8490004B7401F090000542
:101CC300120604FDACF0D3E50B9DEC6480F8E50A45
:101CD30064809840068C0A8D0B800B7432250BF5BB
:101CE3000BE4350AF50AD312212040091220C2F56C
:101CF3000D85F00C2274FA250DF50DE4350CF50C69
:101D030022E490004BF022E490004BF09000431249
:101D1300214EEF4E70037480F0900043E0547FF542
:101D230027301413FF3395E0FED3EF9404EE648061
:101D330094804003023BA5AF27EF3395E0FED3EF3A
:101D43009409EE648094804038D3E50D94EEE50C5D
:101D530064809482400C7406250DF50D74FF350CD8
:101D6300F50CD3E50B94BEE50A6480948A400C74A9
:101D7300E7250BF50B74FF350AF50A9000437480D1
:101D8300F0221237C8600CAF64EF3395E0FE1237D0
:101D9300D15006E4900058F022D390004FE0940015
:101DA30090004EE0648094805003021E8C90005893
:101DB300E0540FF5247D861237AC60054003D380D1
:101DC30001C392067FCD7ECC7D8C7C40AB52AA5161
:101DD300A950A84F120314600740057F04123C8BDF
:101DE3007D061237AC400F7F9A7E997D997C401215
:101DF30037BD6017401512379B5007E5242402FFB7
:101E030080027F088F24E4F525804FE4FFFE7D8068
:101E13007C3E1237BD4008A215300601B3501F1295
:101E2300379B5006E52404FF80027F088F24A21508
:101E3300300601B37F0150027F028F25801CAF243F
:101E4300EF3395E0FED3EF9400EE64809480400678
:101E5300E52414FF80027F008F24E525C454F04558
:101E630024900058F012379B401FE0FF7804A2E74C
:101E730013D8FB540F24FE60070470087F05800607
:101E83007F0980027F03123C8B22E54964037002C1
:101E9300F549E549146042147003021F3D147003B1
:101EA300021F8424036003021F81D206123C3CE418
:101EB300F528F52974A42529F582743F3528F5837F
:101EC300E493FF123071EFF00529E529700205282C
:101ED3006406452870DE021F7CE4F528F5291230DC
:101EE30071E0FF1230D5400F1230DF4018EF941F1E
:101EF300EE64809480500E0529E52970020528645C
:101F030006452870D9C3E5299406E52864809480A2
:101F13005023123071E0F52CFF3395E0FE4F60063D
:101F2300EF64064E7005C206123C3CAF2C1235A777
:101F3300754902804C75490380477530007531003F
:101F430075322C7B007A00792A122849EF4E6031D2
:101F5300AD2CAF2BAE2A1215DFE4F528F52912308C
:101F630071E0B52C0612307174FEF00529E5297075
:101F73000205286406452870E57549018003E4F5E8
:101F830049900041E06009E54964036003021E8D46
:101F93002230112390005DE0FF3395E0FEC3EF9400
:101FA3000CEE648094805005E004F0800AE4900015
:101FB3005DF0C2A4C2A522E566B40A004003022074
:101FC30095901FCBF8282873021FE9021FFB021FFD
:101FD300F1021FF602200002200002203B0220959E
:101FE30002203B02203BC2A4C2A5E4F56522D2A491
:101FF300D2A522C2A4D2A522D2A4C2A522C2A5E5FB
:1020030065547FFFAE66EE64047E0070027E03C3F8
:10201300EE6480F8EF64809850090F536580EF42B7
:1020230065800B123D127F8060027F008F65123D39
:1020330012C36001D392A42253657FAF66EF640994
:102043006007AF66EF640870047F0680027F0AD3DF
:10205300EF6480F8E5656480984008C2A5C2A4E4F3
:10206300F56622E56575F002120542AFF0EFC36035
:1020730001D39206AF66EF64087003C38002A20621
:1020830092A4AF66EF64087004A2068001C392A510
:102093000565227FCD7ECC7D2C7C4090002BE0F823
:1020A300A3E0F9A3E0FAA3E0FB020314900049E0E4
:1020B300FF3395E0FED3EF9400EE6480948022908A
:1020C3000001AB10AA11A91202060475F0049000D6
:1020D30049E0FD120542AFF0EF3395E0F5278F2875
:1020E300D3E5282275F009ED12082DEC75F009A44B
:1020F3002583F583E49322AB10AA11A91202056488
:10210300C3E5099529E5286480F8E50864809822E9
:10211300AF26EF3395E0FEEF22FFAEF0C3E50D9F50
:10212300EE6480F8E50C6480982290005AE0FCA3EA
:10213300E0FDEC12039290000022E054C0F0C3EDE6
:102143009406EC6480948022900042E0FF3395E093
:10215300FE22E0FF543FF524FD3395E0FC4D22E5DC
:102163002564034524229401E5276480948022FD9D
:102173003395E0FCC3ED22EDFF3395E04F22852834
:102183000885290922900050E0600A200D0714F009
:10219300E07002D284AF64EF3395E0FEC3EF9403A3
:1021A300EE648094805007E490004EF0A3F090001A
:1021B3004EE0FEA3E0FF90004CE06E7003A3E06FDF
:1021C300700302226A90004CEEF0A3EFF0D3940068
:1021D300EE648094805029122E616409600C900093
:1021E300511207FC00000000D20D90004CE0B4FF38
:1021F30008A3E0B4FF03D38001C39281122E4E22C1
:1022030090004CE0FEA3E0FFC394F4EE648094815D
:10221300502A8E288F29E4F52DF52C752B80752AED
:102223003FFFFE7DFA7C4312226BC281208406901D
:10223300005074FAF0D283C285D20D2290004CE094
:10224300F528A3E0F529752DC3752CF5752B887535
:102253002A3F7F007E007D007C4012226BD281D218
:1022630084C283D285D20D221228F2900051120724
:10227300F0228B3C8A3D893E8F428E418D408C3FBC
:102283007FD57E2C7D517C00D3123AFC4006123A56
:10229300F27FD822E47FE37E0AC3123AE5500612A6
:1022A3003AF27F7D227401123AF3E47FF57EF5D38F
:1022B300123AE54038E4F543F544AE43E544780289
:1022C300C333CE33CED8F92443F582743D3EF58330
:1022D3001207C0C3123AFC4006E54424D8FF220586
:1022E30044E54470020543644B454370CDE4F54334
:1022F300F544E54425E0FFE54333FE746F2FF58293
:10230300743E3EF583E493FE740193FFE48F488E9D
:1023130047F546F545E548F548E547F547E4F5460D
:10232300F545AF42AE41AD40AC3FAB48AA47A946E5
:10233300A845D312079C5006E5442423FF220544F5
:10234300E54470020543645B454370A6123AF2FF0D
:1023530022123D40855F24856025D3E5259464E5FD
:1023630024648094804010749C2525F52574FF35E2
:1023730024F524C2168002D216C3E525941EE52453
:10238300648094805003C38001D39215E4FBFA74F4
:10239300A02BF582743F3AF583E493F9FF7E002482
:1023A3001EFDEE33FCD3E5259DEC6480F8E5246443
:1023B30080985048C3E5259F7480F8652498403C75
:1023C300749C2BF582743F3AF583E493FF7C007D84
:1023D300641205BC90005AEEF0A3EFF0E9240AFF63
:1023E300E433FED3E5259FEE6480F8E5246480980A
:1023F3007F0240027F03900059EFF0220BBB0001E4
:102403000AEB64044A70887F08123C8B22EF146045
:102413003814605F1470030224A0240360030224B1
:10242300C7122A7740030224C730070EA805740198
:10243300088002C333D8FC428022A80574010880B7
:1024430002C333D8FCF4528022122A625076122A35
:102453006E407130070EA8057401088002C333D89B
:10246300FC429022A8057401088002C333D8FCF40F
:10247300529022122A41504C122A80404730070EB4
:10248300A8057401088002C333D8FC42A022A80522
:102493007401088002C333D8FCF452A022ED122A3F
:1024A30045502130070EA8057401088002C333D8B4
:1024B300FC42B022AF05A8077401088002C333D8D9
:1024C300FCF452B02290004AE0B407004003022516
:1024D3007C9024DBF82828730224F00224FD0225D3
:1024E3001802252602254602255402257490004928
:1024F300740BF0A37401F002257C1220CE12216923
:102503004002805512217A70709000497407F0A33D
:102513007402F080641220AF505F7423F0A374033D
:10252300F0805675F00C1220D1940512216B4002F5
:10253300802712217A70429000497407F0A3740433
:10254300F080361220AF5031740BF0A37405F08085
:10255300281220CE12216940071220C2FFAEF022BA
:1025630012217A70149000497423F0A37406F0804A
:10257300081220AF5003E4A3F0E4FEFF228E308F55
:1025830031E4F536F537E53145307003022635057C
:1025930037E53770020536AE30AF31EE3395E0FDE7
:1025A300FCE47BA07A0FF9F812065B8F358E348D2D
:1025B300338C32C006C007AE36AF37AB07AA06EA84
:1025C3003395E0F9F8D007D0061206E68F358E343E
:1025D3008D338C32E47FFF7EFFFDFCAB35AA34A93B
:1025E30033A832C312079C50A6C374FF9535F53543
:1025F30074FF9534F534E49533F533E49532F532CD
:10260300AF35AE34AD33AC3278081207AD8F8CE5FD
:1026130035FF8F8AC20A438810E58820E503300A14
:10262300F85388CFE537153770021536E537453649
:1026330070CE22200D030226E9300F1990F129E014
:1026430060030226E97F01300E01FF90F164EFF091
:10265300C20DC20F22E4FFFE7DC87C42123CDE1293
:102663000314600C400A9000511207FC42C800009A
:10267300E4FFFEFDFC123CDE120314500A900051ED
:102683001207FC00000000AF27AE26AD25AC24ECFA
:102693004D4E4FC36001D3920E7F007E807DBB7C85
:1026A30045123CDE12016EE4FBFA798078BF12001A
:1026B3007D8F278E268D258C24E4FBFA79C87842FA
:1026C3001202778F278E268D258C241203CBAD071C
:1026D300AC06ECFFEF90F141F0ED90F140F0D20F3A
:1026E30090F1297401F022E4F526F527F528FB7A09
:1026F3000079267D047F02120CC67F011227907B8E
:10270300007A0079267D01E4FF120CC67F031227AD
:10271300907B017D027F0212315D7B017D017F038E
:1027230012315D7B017D037F0112315D7B01E4FD8D
:10273300FF12315D752603E4F527752801FBFD7F44
:102743000312315D7B007A0079267D017F03120C31
:10275300C6D207E4FD7F0312241075DF4075DE60E7
:10276300E4F5E9F5D1F5D375D50F75D4FF90F6925D
:1027730074A0F0E4F5499000391207FC0000000052
:102783001230AEF0A3F0A304F043DE80227B007A84
:102793000079267D02120CC6227D39121AA8500830
:1027A30090001F7403F080277FCD7ECC7D4C121ADE
:1027B300AC500890001F7402F080147466FFFEFD95
:1027C300121AAC5005121B628005E490001FF07DC5
:1027D30089121AA8600740057F04123C8BC213C2FA
:1027E30014121AB91207FC00000000AF52AE51AD2B
:1027F30050AC4F90002B1207F0121B13E490001EF5
:10280300F0121B2A703FF524F525900059E0FF33A1
:1028130095E0FEC3E5259FEE6480F8E52464809887
:1028230050167F02123A9D7FA07E00122580052557
:10283300E52570D6052480D27F907E0112258090F5
:10284300002A740CF0228B2D8A2E892FE5DF30E1CC
:1028530002805090003EE004F0700690003DE004DA
:10286300F0900039E0F8A3E0F9A3E0FAA3E0FBAFAE
:10287300DDEFFEADDCEDFFEE3395E0FDFCEB2FFF6E
:10288300EA3EFEE93DFDE83CFC9000391207F0C347
:1028930090003EE0940A90003DE0648094805007ED
:1028A30043DF02E4FEFF22900039E0FCA3E0FDA336
:1028B300E0FEA3E0FFE47B0AFAF9F81236D39000B6
:1028C300391207F0900039A3A3E0FFA3E0AB2DAAD0
:1028D3002EA92FCF8FF012063C90003FE0AB30AA19
:1028E30031A9321205AAE4900040F0FE7F01228F45
:1028F300278E268D258C24AC28AD29EC120392ABB0
:1029030027AA26A925A824122E14E4FBFA797A789B
:1029130044120277122E177B9D7A69795C783C12F8
:102923000277122E17AB2DAA2CA92BA82A122E142C
:10293300C004C005C006C007E4FFFE7D7A7C44AB3B
:102943005AAA59A958A857122E55D007D006D00510
:10295300D004120277122E17E4FBFA79C8784212D8
:102963002E14E4FFFE7DC87C42122E33600D400B13
:10297300E4F531F530752FC8752E42E4FFFEFDFCFA
:10298300122E335009E4F531F530F52FF52EAF3122
:10299300AE30AD2FAC2E22E4F5DE90F692F090002F
:1029A3004104F0E4F549FFEFFD3395E0FCC3ED94FA
:1029B30006EC648094805015EF3395E0FC74332D5E
:1029C300F58274003CF58374FEF00F80DA900039D1
:1029D3001207FC000000001230AEF0A3F0FB7D01F3
:1029E3007F0312315DE4FB7D037F0112315D7526A8
:1029F30003E4F527F528FB7A0079267D027F03128D
:102A03000CC67D087F01122A377D047F02122A3704
:102A1300C2077D027F02122410C2077D017F0312C9
:102A23002410C2077D037F01122410C207E4FD7F37
:102A3300030224107B007A007926120CC622EDFFD4
:102A43007E00D394067480948022EDF4F58275831E
:102A53000085832A85822B85832C85822DED22EDAB
:102A6300FF7E00D394077480948022C3EF94037491
:102A730080948022EDD394057480948022C3EF94D4
:102A8300017480948022FBE434F0FAA805740108F1
:102A930022F4F58275830085832E85822F8583300A
:102AA30022A3E0FBE52F4BFD22A3E0FBE5314BFD29
:102AB30022E0FBE52D4BFD22E0FBE52D5BFD22E053
:102AC300FBE52F5BFD22E0FBE5315BFD22A3E0FB91
:102AD300E5334BFD22A3E0FBEF4BFD22E0FBE533A7
:102AE3005BFD227D087F0212394F404F90005CE06E
:102AF30025E0F030A306E04401F0800790005CE09D
:102B030054FEF090005CE0FF540FFEFD7C00640F68
:102B13006003EF7026E4F5B4ED640F4CD37001C38A
:102B23009217AF06EF640F7B0170027B027D037F78
:102B3300021234967D087F02123B87301708E51690
:102B430030E703751680301727E515648570211269
:102B53000003D3EF9400EE648094804005123C0E92
:102B6300800BE4F519F51B751801751701E4F515CC
:102B7300201713E5166484700DF516E517700475B8
:102B83001A0122E4F517228F2EEF64017003022C41
:102B93001FD209123C9D752F027530007F11122C34
:102BA30020AF32123BF5401D123C045018E532149D
:102BB300F5310530E5307002052FC394FCE52F6431
:102BC30080948340D7AF2EEF6408600AEF640960F6
:102BD30005EF640A7011AF31EF3395E04F6005855F
:102BE300312E8003752E04E531B52E028029E530A0
:102BF300B4FC10E52FB4030B752F027530007F1D55
:102C0300122C20E52E04F5327B007A007932AD30A8
:102C1300AC2F7F19123920C209123C9D227B007A06
:102C2300007932AD30AC2F1239202278FFE4F6D888
:102C3300FD9000007F007E04E4F0A3DFFCDEFA7564
:102C43008169022C83022F78E493A3F8E493A340D1
:102C530003F68001F208DFF48029E493A3F8540714
:102C6300240CC8C333C4540F4420C8834004F4560F
:102C7300800146F6DFE4800B010204081020408047
:102C83009034F1E47E019360BCA3FF543F30E50927
:102C9300541FFEE493A360010ECF54C025E060A847
:102CA30040B8E493A3FAE493A3F8E493A3C8C582DA
:102CB300C8CAC583CAF0A3C8C582C8CAC583CADF48
:102CC300E9DEE780BEEF14602214603C14605624F2
:102CD300037074122A774002806DED2480122A89D2
:102CE3008002C333D8FC55ACFC8060122A625005C5
:102CF300122A6E50028050ED2488122A898002C362
:102D030033D8FC55ADFC8043122A415005122A806A
:102D130050028033ED2490122A898002C333D8FCF9
:102D230055AEFC8026ED122A454002801AED249808
:102D3300FBE434F0FAAF05A8077401088002C3333B
:102D4300D8FC55AFFC8004E4FEFF22EC7003FEFFC9
:102D5300228B828A83E05403FF7E002290001EE0D0
:102D6300700BAB10AA11A91212056460077513004A
:102D730075142822D3E5149400E5136480948040ED
:102D830009E5141514700215132290F500E4F0C23E
:102D9300061239A7438704438702123C51D2071214
:102DA3003A4F123B297F017E00122580122AE61238
:102DB3003C6650F1D2061239A7E4F524F525123DFD
:102DC30040120F933014130525E52570020524C323
:102DD3009403E5246480948040E4E525640345245A
:102DE3007005F51375140FE4900041F02290001460
:102DF300E0FCA3E0FDA3E0FEA3E0FF222400F582B4
:102E030074003EF583E0F8A3E0F9A3E0FAA3E0FB46
:102E13002212016E8F318E308D2F8C2E22AE26E53D
:102E230027780222D3E5259400E524648094802248
:102E3300AB31AA30A92FA82E020314E490004EF060
:102E4300A3F090004CF0A3F022C281C284C283C2DB
:102E5300852212016EA804A905AA06AB0722AB10AE
:102E6300AA11A9120205642400F58274003EF583B9
:102E730022752603E4F527752801C2077D02FF1298
:102E830024107B007A0079267D04E4FF120CC67BB4
:102E9300127D02E4FF12315D90F120E4F0A304F00F
:102EA30090F123F090F12A74FFF090F122E4F09076
:102EB300F12704F0A3F090F160E4F090F165F09055
:102EC300F16404F090F1317417F090F130746FF005
:102ED30090F141E4F090F140F09000511207FC00B2
:102EE300000000C20FC20D90F166E4F090F12604D9
:102EF300F0023CED1220AF4003E014F012214BC36B
:102F0300EF9418EE648094805003E004F090004B3B
:102F13001220B2400DEF9409EE648094805003E0D8
:102F230004F0AF0FEF3395E0FEC3EF9420EE64801F
:102F330094805002050FAF0EEF1220B44002150E1D
:102F43009000441220B24003E014F0900043E0FFED
:102F530030E71C547FFEEF5480F0EE122172940A86
:102F6300EC6480948050010E900043E04EF022E424
:102F7300900043F022123C51D207123A4F1226EA34
:102F83001223541237171239FF12002E12343A1239
:102F93003689122E741238191233DB1211CE12270E
:102FA3009C12000EE4900041F0123D40122AE612FA
:102FB3003888120F9312088E12178712218812264F
:102FC30036300BE5C20B123CBE1231CF12004E124B
:102FD3002EF71230E9123759122D5FAF64EF339594
:102FE300E0FED3EF9402EE648094804003121F94BA
:102FF300121D8580B4D209123C9D20081CE4F52AD9
:10300300F52B742C1238D97F11123920052BE52B9F
:103013007002052A1238E440E98508308509317FBA
:10302300003002027F018F327A0079301238CE12DB
:10303300363E8F33200807E533B52F02802A7B0005
:103043007A00792CE4FDFC7F1D123920E4F52AF582
:103053002B74301238D97F19123920052BE52B70C8
:1030630002052A1238E440E9C209123C9D22743356
:103073002529F58274003528F58322E4FFFE7C437D
:10308300AB3BAA3AA939A8382275303EAB33AA32F2
:10309300A931A830AF3BAE3AAD39AC380202771252
:1030A30002778F378E368D358C3422E490003DF0D5
:1030B300A3F0A322AF5AAE59AD58AC57227BCD7AB9
:1030C300CC79CC783D020079E4FFFE7D407C400260
:1030D30003143395E0FEC36480948022D3EF9416E7
:1030E300EE6480948022123D2550051220FA700769
:1030F300E4900047F080299000471221557007EFB4
:1031030020E6034480F090004712213D5008E02060
:10311300E60405248003E4F524900047E04524F009
:10312300123D2C50051220FA7006E4900048F0225C
:103133009000481221557007EF20E6034480F09079
:10314300004812213D5008E020E60405248003E4F2
:10315300F524900048E04524F022EBF582640260F8
:103163006AE58264036064E5826419605ED3E58284
:10317300941C748094805053EF14601414602014D2
:10318300602F24037045122A775040ED2400802AD3
:10319300122A625036122A6E4031ED2410800D122D
:1031A3002A415027122A804022ED2420F52AEE805E
:1031B3000CED122A455014ED2430F52AE434F0F5D1
:1031C30029EB541F852A82852983F022AB10AA118B
:1031D300A912120564600464017008123CFAE4F554
:1031E300638021AF63EF3395E0FEC3EF9403EE6496
:1031F30080948050040563800BEF64034E700512C6
:103203003BDC0563AF64EF3395E0FEC3EF9402EE5E
:10321300648094805003056422EF64024E701805A5
:103223006490005EE0FF3395E0FED3EF9400EE641C
:103233008094804002D218228F2A1220FAF52DE4BE
:10324300F52BF52C903F2575F009E52C12082DE59B
:103253002B1220EF652A703390004AF0AE2BAF2C6F
:10326300FC7D091205BC74252FF9743F3E7510FFD0
:10327300F5118912E52D700AE52A6006FF122B8AE3
:103283008005E4900042F0E4FEFF22052CE52C705B
:1032930002052BC3940BE52B6480948040A67E002B
:1032A3007F0122900055E0FEA3E0FFC39405EE6486
:1032B300809480500A1237D1504EEF04F566229065
:1032C3000046E0FF7E007C007D061205BCEF24056E
:1032D300FFE43EFE900055E0FCA3E0FDC39FEE64D7
:1032E30080F8EC6480985020ED24FBFFEC34FFFE63
:1032F3007C007D031205CE7C007D021205CEED4CD1
:103303007004756601228000E4F566227D037F0266
:10331300122CC8EF64014E7034C217E515547FFFB9
:10332300E4F515E5177004E51B6007E4F51BF517D5
:103333008033EFC39405502D120003C3EF940AEEBC
:1033430064809480500205197516808018D2177511
:103353001300751428E51630E703751680E515206C
:10336300E7037515807D087F02123AC390005C74F1
:103373000AF0228D27201309201406E4900043F05D
:1033830022900043E0FD3395E0FCED4C7003748024
:10339300F0900043E0547FF5282014057529098037
:1033A30003752902EF6018301415AF28EF3395E049
:1033B300FEC3EF9403EE648094804003023BA5D3E5
:1033C300E5296480F8E528648098400B90004374F5
:1033D30080F0AF2712323B22E4F527D209123C9D3D
:1033E3007524027525007B007A007926AD25AC246F
:1033F3007F11123920AF26123BF5401D123C0450B9
:1034030018E52614F5270525E52570020524C39440
:10341300FCE5246480948340CDAF27EF6408600A01
:10342300EF64096005EF640A7003752704AF271280
:10343300323BC209023C9DE4F50EFFEF1221729468
:103443000BEC64809480502C903F251220E764029B
:10345300701FEF3395E0FC903F2A1220E7F50A74C2
:103463000193F50B903F261220E7F50C740193F5B9
:103473000D0F80C712354CE490004AF0900045745C
:1034830004F0E4A3F07510FF75113F751225C20314
:10349300C20422EBD3122A705053EF146014146049
:1034A3002014602F24037045122A775040ED2480A6
:1034B300802A122A625036122A6E4031ED24888007
:1034C3000D122A415027122A804022ED2490F5281C
:1034D300EE800CED122A455014ED2498F528E434BF
:1034E300F0F527EB5403852882852783F022C10B4F
:1034F300C10AC10CC11701650041005D00410050C4
:103503000041005E00016300C1180162FF41002A0F
:103513000042001C0000021C0000021E0000C1113A
:10352300C110C112C119C105410043004100470048
:103533004100440041004800410049004100421954
:1035430041004B00C100C10100D209123C9DE4F5CA
:1035530024F52574262525F9E4FAFBAD25AC247F53
:10356300111239200525E52570020524C39404E5CD
:10357300246480948040DCC209123C9D7A00792641
:103583001238CE12363EEFB5290F85260885270956
:10359300E528C36001D39202221239D3C202D208B2
:1035A300122FF822AB077AFF900040E07041EB1234
:1035B30030D5403B1230DF400AEF941FEE64809415
:1035C30080402C9000391207FC000000001230AE3E
:1035D300EBF0A37401F0EB30E40543DF8080035389
:1035E300DF7F53DEF0EB540F42DEDAFE43DF0222CD
:1035F300C0E0C0F0C083C082C0D075D000C000C09E
:1036030001C002C003C004C005C006C00775C900DD
:103613001567B20CE5677008756704D20B1238EEB4
:10362300D007D006D005D004D003D002D001D000FB
:10363300D0D0D082D083D0F0D0E0328B348A358999
:10364300368F3A8E398D388C37E4F53BAB340536FB
:10365300E536AA357002053514F9120564623B7F1D
:1036630008E53B30E70825E06407F53B8006E53BCA
:1036730025E0F53BDFEB783774FF1207D2EC4D4EB4
:103683004F70C9AF3B22752401E4F525F526FB7D78
:10369300037F0212315D7B007A0079247D087F026B
:1036A300120CC67D087F02123B877B027D037F02DB
:1036B30012349643B90475130075142890005C7492
:1036C300FFF0E4F515F516F518F519F51AF51B22B3
:1036D300C2D5E830E70FB2D5E4C39BFBE49AFAE422
:1036E30099F9E498F8EC30E717B2D51237091206C6
:1036F300E6E4C39BFBE49AFAE499F9E498F88003BF
:103703001206E630D50DE4C39FFFE49EFEE49DFD63
:10371300E49CFC2290F5007409F090F5027419F012
:1037230090F50CE4F090F5067438F0A37405F07589
:10373300B98030162075263C123BDC7564027F0588
:103743007E00122580123888E564700375263CD507
:1037530026E9123CFA22900046E0FF7E00700590B5
:1037630000558030900056E004F07006900055E05C
:1037730004F07C007D061205BCEF240FFFE43EFE3F
:10378300C3900056E09FEE6480F8900055E064809B
:10379300984004E4F0A3F022AF24EF3395E0FEC396
:1037A300EF9408EE64809480227F667E667C40AB53
:1037B3004EAA4DA94CA84B020314AB5EAA5DA95CAB
:1037C300A85B020314AB10AA11A912020564C3EF8C
:1037D3009403EE6480948022C0E0C0F0C083C08272
:1037E300C0D075D000C000C001C002C003C004C077
:1037F30005C006C00712330F75B600D007D006D038
:1038030005D004D003D002D001D000D0D0D082D0D4
:1038130083D0F0D0E0327526037527017528011295
:103823002E4C7D021238417D10E4FF120CC67D0838
:103833001238417D20E4FF120CC6122E3E227B007B
:103843007A007926E4FF120CC67B007A00792622DF
:10385300D3EF9DEC6480F8EE64809840028004AE60
:1038630004AF058E278F28E52864024527700820BA
:1038730010057F0812323BE5286403452770057F56
:103883000912323B22E562702E7F057E00122580ED
:10389300E56225E0F56290F501E030E7020562AFED
:1038A30062EFF470E490F166F090F12604F090007A
:1038B3005EE004F0E4F5642275F009EF12082DEEE2
:1038C30075F009A42583F583E493227B007F037EAF
:1038D300007D007C0022252BF9E4FAFBAD2BAC2AFA
:1038E30022C39404E52A6480948022E51530E7110D
:1038F300547FFFC3940550010F531580EF42158089
:1039030003E4F515E51630E710547FFFC394045024
:10391300010F531680EF421622E4F516228F34EF7F
:1039230064197005120564F5FEEDF5FCECFFEFF587
:10393300FD008534FF000000000000E5FF20E0FBF0
:10394300E53464117005E5FE1205AA22EF14601137
:103953001460151460192403701CE5AC5D6017D363
:1039630022E5AD5D6010D322E5AE5D6009D322E5AB
:10397300AF5D6002D322C3227B007A8079BB120041
:103983007D8F308E2F8D2E8C2D22AB2CAA2BA92A26
:10399300A82922AF4AEF3395E0FE228F2C8E2B8D80
:1039A3002A8C29223006171239FF1226EA122E74A6
:1039B300123819E490001EF012000E023717123C61
:1039C300AEC207123A4F123B6812299A123D3322B4
:1039D300750803750920E4FFFE903F251238BB6488
:1039E30002700D903F281238BBF508740193F50956
:1039F3000FBF00010EEF640B4E70DE22752603E449
:103A0300F527752801C2A4C2A5FB7D10123A1D7BC0
:103A1300007D20123A1DE4F566227A0079267F02A2
:103A2300120CC622A907900047E0FE5480FB339591
:103A3300E04B700BED3395E0FCED64014C700CEE44
:103A4300547F900047F0AF0112323B22E420070677
:103A5300F5C853A8DF22F5CE75CB0B75CADB75CD40
:103A63005D75CC6643A820F5C975CF80756704756D
:103A7300C89122C0E0C083C0825380DF5380F753D4
:103A830080FD5380EF53A0EF53A0DF75620090F5E4
:103A930009E4F0D082D083D0E032EF14600C1460DC
:103AA3000F147010C2A4D2A5800AD2A4C2A58004A8
:103AB300D2A4D2A57F147E00122580C2A4C2A5225F
:103AC300EF14600F14601114601324037013EDF4EA
:103AD30052AC22EDF452AD22EDF452AE22EDF4528B
:103AE300AF22FDFCAB42AA41A940A83F02079CE4D8
:103AF300AB3CAA3DA93E0205AAAB42AA41A940A8F4
:103B03003F02079C90F1417401F07F003006027F71
:103B1300FF90F140EFF0123CED7F01300E027F0089
:103B230090F164EFF0227D087F02123AC390005CAB
:103B330074AAF0D217E51630E703751680E5152051
:103B4300E70375158022E5177004E51B6004E4FEA6
:103B5300FF22E51A7003FEFF22120003300705E47B
:103B6300F51AF51922E4FB7D02FF12315DC2077DD0
:103B730002E4FF12241090F121E4F090F126F0907A
:103B8300F123F022EF14600E14600F14601024036D
:103B9300700FED42AC22ED42AD22ED42AE22ED427A
:103BA300AF221220FAFF601790000712057D60050F
:103BB300900045EFF0E4FF12323BE4FF122B8A2220
:103BC300C2AF007596AA75965585976900D2AFE581
:103BD3006930E203D38001C32290F500E04480F012
:103BE3007F057E0012258090F509E4F090F5080426
:103BF300F022EF3395E0FEC3EF9401EE64809480EE
:103C030022D3EF940BEE6480948022E4F516F51A28
:103C1300F519F517F518EF64014E7F0070027F0167
:103C23008F1B22900048E0FE5480FD3395E04D60E9
:103C330007EE547FF012323B2253DE7F007F0020D9
:103C430006027FA090F692EFF00043DE80225388B5
:103C5300CF5389F0438901E4F58CF58A75A80243B3
:103C6300A88022E5186002D322E51A6002D322E578
:103C73001BC36001D322EF64014E700B20040512B5
:103C83003D254003123BA522900046EFF01237C8B2
:103C9300640160057F0112323B22300907C2AF0085
:103CA30075FBAA2275FB5500D2AF22C2AF007596F1
:103CB300AA7596555397FD00D2AF22C2AF007596F1
:103CC300AA75965543970100D2AF222018037F00AF
:103CD3002290005EE0FFE4F0C21822900051E0F869
:103CE300A3E0F9A3E0FAA3E0FB2290F1297401F029
:103CF30090F129E070FA2290F508E4F090F500E0E5
:103D0300547FF022E5187002C322E4F518D322E5AC
:103D1300655480FF3395E04F2290001EE07002044B
:103D2300F022E517C36001D322E51BC36001D32250
:103D3300122E3E122E4C225388EFD20A32021E8DCF
:103D430000512CD5004B186900458457004065216C
:103D5300003BB06200375CB60033619B002FB76055
:103D6300002C570700293A3D00265B410023B4DCB1
:103D73000021424D001EFF45001CE7D5001AF869DB
:103D830000192DBE001784DA0015FB0600148DC739
:103D930000133ADA0012002B0010DBD6000FCC1E02
:103DA300000ECF6C000DE44B000D0965000C3D8047
:103DB300000B7F7C000ACE50000A290700098EC33E
:103DC3000008FEB50008781F0007FA52000784AE0A
:103DD3000007169D0006AF9700064F1C0005F4B8B8
:103DE30000059FFE0005508B000506020004C00D70
:103DF30000047E5D000440A9000406AC0003D02744
:103E030000039CE100036CA100033F37000314721D
:103E13000002EC280002C62F0002A2630002809F6A
:103E2300000260C3000242B10002264C00020B7B79
:103E33000001F2230001DA2E0001C3870001AE194D
:103E4300000199D2000186A0000174720001633A57
:103E5300000152EA00014372000134C8000126DF69
:103E6300000119AC00010D2500010141F5F5EB3A04
:103E7300E107D755CE1DC558BD00B50EAD7FA64C85
:103E83009F7098E792AC8CBB871181AA7C8277974D
:103E930072E46E676A1E6606621C5E5F5ACB575FEA
:103EA300541950F84DF84B1A485A45B8433340C893
:103EB3003E773C3E3A1D3812361D343B326D30B2EC
:103EC3002F082D6F2BE62A6C290127A426552513CD
:103ED30023DD22B22193207F1F751E751D7E1C904A
:103EE3001BAC1ACF19FB192E186917AA16F3164221
:103EF300159714F2145313B913251296120C118645
:103F03001105108810100F9B0F2B0EBE0E550DEFD1
:103F13000D8C0D2D0CD10C780C210BCE0B7D0B2EA3
:103F23000AE300000000000000010001000000009F
:103F33000000000003000F00000AF000000403204B
:103F430000000B5401000505DC00000BB80100065E
:103F53000BB800000BEA0101071D4C00000C1C010B
:103F630001084E2000000C800001092EE000000B28
:103F7300B80001021D4C03200C1C00010A2EE000B6
:103F8300000BB8000100000000000000000000006A
:103F93000000000000000000006491B4C846321E17
:073FA3000A1F0D080E0006C5
:00000001FF
