:100000000226F7AF19EF3395E0FE22023D6F900014
:1000100048EFF0AB10AA11A9121205646401600A3E
:100020007F011233BA7F01122AC522023C75D20821
:10003000123CE87B007A007924122FA8E4FDAF245B
:10004000123758122AC5C208023CE80236AAE4FF59
:10005000FE7C40AB4EAA4DA94CA84B0203147D0177
:10006000AF24123C328F2422AB5EAA5DA95CA85B50
:10007000020314023A1A020437E86480F8E933E80C
:100080003360110460F0ED33EC337009E8FCE9FDF6
:10009000EAFEEBFF220460DED3EB9FEA9EE99DE8D7
:1000A000C2E78CF0C2F795F0400CE8CCF8E9CDF946
:1000B000EACEFAEBCFFB12040285D0F058047003AD
:1000C00020D5B3E80470075002B2D502044192D59E
:1000D000EC0460F7E4CCC0E0C398F8603B9418608F
:1000E00008400DD0E0FB020419E4FBFAC9FC8028AB
:1000F000E830E406E4C9FBE4CAFCE830E305E4C9FF
:10010000CACBFCE854076010F8C3E913F9EA13FA04
:10011000EB13FBEC13FCD8F130F52FC3E49CFCEFA0
:100120009BFFEE9AFEED99FDD0E0FBEF4E4D4C703B
:100130001222DB0302043EEC2CFCEF33FFEE33FE15
:10014000ED33FDED30E7EB020419EF2BFFEE3AFE45
:10015000ED39FDD0E0FB50130BBB0003020441ED71
:1001600013FDEE13FEEF13FFEC13FC020419EC4D2C
:100170006011E8497017ED33EC3304600DE4FCFFC7
:10018000FEFD22E933E8330470F80204371204025A
:1001900058046009E4CC2481500628500902044127
:1001A00028400302043EC0E0EB4A7044B98006D008
:1001B000E0FB02042DEF4E701CBD8008EBFFEAFE51
:1001C000E9FD80EBE98DF0A4FEE5F0020257E9CDF0
:1001D000F9EAFEEBFFEF89F0A4FCE5F0CE89F0A48C
:1001E0002EFFE435F0CD89F0A42DFEE435F08067D4
:1001F000EF4E7005BD80D780C3EF8BF0A4ACF0EE5E
:100200008BF0A42CFCE435F0F8EF8AF0A42CE5F098
:1002100038FCE433CB8DF0A42CFCE5F03BF8EE8AFF
:10022000F0A42CFCE5F038F8E433CF89F0A42CFCE2
:10023000E5F038CF3400CE89F0A42FFFE5F03EFE84
:10024000E433C98DF0A42EFEE5F039CD8AF0A42F59
:10025000FFE5F03EFEE43DFD33D0E0FB50070BBB75
:10026000000F020441EC2CFCEF33FFEE33FEED33C4
:10027000FD020419020441EC5D046005E8590470B4
:1002800003020437120402580460F6EC4860F2ECF2
:100290007004FDFEFF22C860DB2481C85009C398AA
:1002A0006002500602043E9850CAF582E9294B4A82
:1002B0007005AB8202042D75F0007C1A7880C3EFC4
:1002C0009BEE9AED99400DC3EF9BFFEE9AFEED99E0
:1002D000FDE842F0DC23ACF0D0E0FFD0E0FED0E05F
:1002E000FDAB8220E7101BEB60BAEC2CFCEF33FF78
:1002F000EE33FEED33FD020419E803F830E705C0E4
:10030000F075F000EF2FFFEE33FEED33FD40B83017
:10031000E7C280AA74F8CC6480CCC86480C8F58237
:1003200004604FC3EB9FF5F0EA9E42F0E99D42F076
:10033000E89C45F0603C501DE5825FFFE582D313E9
:10034000CB5BCBF42B5582FB50280ABA002409B9A9
:10035000002008801DE5825BFBE582D313CF5FCFD1
:10036000F4C3132F5582FF50090EBE00050DBD00CA
:10037000010CC3EB9FF5F0EA9E42F0E99D42F0E8E4
:100380009C45F06007CC4820E701B3EC2275F020D3
:10039000800E75F010800575F0087D007E007F00EE
:1003A0003392D530D503120778EC334010EF33FF8A
:1003B000EE33FEED33FDEC33FCD5F0ED22E5F02419
:1003C0007EA2D513CC92E7CDCEFF22EDD2E7CD337E
:1003D000EC3392D524814006E4FFFEFDFC22FCE4D0
:1003E000CFCECDCC24E0501174FF80EDC3CC13CC24
:1003F000CD13CDCE13CECF13CF0470F030D5DE02A7
:100400000778E9D2E7C933E833F892D5EDD2E7CDE2
:1004100033EC33FC5002B2D522EC30E7100FBF00B2
:100420000C0EBE00080DBD00040BEB6014A2D5EB52
:1004300013FCED92E7FD2274FFFCFDFEFF22E48039
:10044000F8A2D574FF13FC7D80E480EFE709F6087D
:10045000DFFA8046E709F208DFFA803E88828C8363
:10046000E709F0A3DFFA8032E309F608DFFA8078C3
:10047000E309F208DFFA807088828C83E309F0A335
:10048000DFFA806489828A83E0A3F608DFFA805865
:1004900089828A83E0A3F208DFFA804C80D280FA56
:1004A00080C680D4806980F28033801080A680EA84
:1004B000809A80A880DA80E280CA803389828A8329
:1004C000ECFAE493A3C8C582C8CCC583CCF0A3C81A
:1004D000C582C8CCC583CCDFE9DEE7800D89828A7E
:1004E00083E493A3F608DFF9ECFAA9F0EDFB228987
:1004F000828A83ECFAE0A3C8C582C8CCC583CCF05D
:10050000A3C8C582C8CCC583CCDFEADEE880DB891E
:10051000828A83E493A3F208DFF980CC88F0EF604D
:10052000010E4E60C388F0ED2402B4040050B9F50A
:1005300082EB2402B4040050AF23234582239004AD
:100540009C73C2D530F707B2D563F0FF05F030E7F2
:100550000CB2D5F4048463F0FF05F080018430D53B
:1005600002F40422BB010689828A83E0225002E75A
:1005700022BBFE02E32289828A83E49322BB010C20
:10058000E58229F582E5833AF583E0225006E925E4
:1005900082F8E622BBFE06E92582F8E222E58229FE
:1005A000F582E5833AF583E49322BB010689828ACA
:1005B00083F0225002F722BBFE01F322EF8DF0A45C
:1005C000A8F0CF8CF0A428CE8DF0A42EFE22C2D5A8
:1005D000EC30E709B2D5E4C39DFDE49CFCEE30E7C6
:1005E00015B2D5E4C39FFFE49EFE120839C3E49D13
:1005F000FDE49CFC800312083930D507C3E49FFF5B
:10060000E49EFE22BB0110E58229F582E5833AF5DE
:1006100083E0F5F0A3E0225009E92582F886F0088E
:10062000E622BBFE0AE92582F8E2F5F008E222E5BF
:10063000832AF583E993F5F0A3E99322BB010A89A4
:10064000828A83F0E5F0A3F0225006F709A7F0199B
:1006500022BBFE06F3E5F009F31922E88FF0A4CCE3
:100660008BF0A42CFCE98EF0A42CFC8AF0EDA42CD9
:10067000FCEA8EF0A4CDA8F08BF0A42DCC3825F0A8
:10068000FDE98FF0A42CCD35F0FCEB8EF0A4FEA993
:10069000F0EB8FF0A4CFC5F02ECD39FEE43CFCEAA0
:1006A000A42DCE35F0FDE43CFC2275F008758200E7
:1006B000EF2FFFEE33FECD33CDCC33CCC58233C527
:1006C000829BED9AEC99E58298400CF582EE9BFEB8
:1006D000ED9AFDEC99FC0FD5F0D6E4CEFBE4CDFA13
:1006E000E4CCF9A88222B800C1B90059BA002DECB7
:1006F0008BF084CFCECDFCE5F0CBF97818EF2FFF4F
:10070000EE33FEED33FDEC33FCEB33FB10D70399F6
:100710004004EB99FB0FD8E5E4F9FA227818EF2FA3
:10072000FFEE33FEED33FDEC33FCC933C910D705C2
:100730009BE99A4007EC9BFCE99AF90FD8E0E4C9E1
:10074000FAE4CCFB2275F010EF2FFFEE33FEED3311
:10075000FDCC33CCC833C810D7079BEC9AE899403E
:100760000AED9BFDEC9AFCE899F80FD5F0DAE4CDA0
:10077000FBE4CCFAE4C8F922C3E49FFFE49EFEE464
:100780009DFDE49CFC22EB9FF5F0EA9E42F0E99D82
:1007900042F0EC6480C864809845F022EB9FF5F04D
:1007A000EA9E42F0E99D42F0E89C45F022E8600FA5
:1007B000ECC313FCED13FDEE13FEEF13FFD8F12293
:1007C000E493FC740193FD740293FE740393FF227F
:1007D0007401FF3395E0FEFDFC080808E62FFFF6E4
:1007E00018E63EFEF618E63DFDF618E63CFCF6225D
:1007F000ECF0A3EDF0A3EEF0A3EFF022A882858346
:10080000F0D083D0821208131208131208131208B2
:1008100013E473E493A3C583C5F0C583C8C582C838
:10082000F0A3C583C5F0C583C8C582C822A42582AC
:10083000F582E5F03583F58322BC000BBE0029EF7D
:100840008DF084FFADF022E4CCF875F008EF2FFFB7
:10085000EE33FEEC33FCEE9DEC984005FCEE9DFE85
:100860000FD5F0E9E4CEFD22EDF8F5F0EE8420D2CC
:100870001CFEADF075F008EF2FFFED33FD4007983B
:100880005006D5F0F222C398FD0FD5F0EA22123CB3
:10089000F98F26C206123B308E248F25900042E04D
:1008A0006009C3940B7480948040069000427404E5
:1008B000F0C21E122264B40B004003020AEF90083B
:1008C000C5F82828730209010208E6020A1D020978
:1008D000BA020A3E020A4D020A60020A73020A9A2A
:1008E000020AD1020ADDC204123D2F4003020AEFC0
:1008F0001237905003020AEFE4900048F0FF020A1A
:10090000CCE525640545247011C204D3300301C32E
:1009100092039000417408F08018300315D3E52548
:100920009400E524648094805005123C9F50037528
:100930006706300303020AEFE52564064524700DBF
:10094000D3300401C392049000417402F0300416C5
:10095000123D614003020AEF7D027C007F027E00AF
:100960001234F8020AEFE525640145246004E52607
:100970006005123976800EE526FD3395E0FCAF2543
:10098000AE241234F8123D2F50057F03122AC5E51C
:1009900025640445247015D3300201C392027F08F8
:1009A0002002027F098F67C207122B41123D684067
:1009B00003020AEF123D58020AEFD21E7D037F01A7
:1009C0001230DAAF26EF3395E0FEE4FDFC1234F886
:1009D000E525640145247003123BC9123D2F400BED
:1009E00012227D64014E6003020AEF122219600296
:1009F0005003020AEF7F043002027F02122AC5125E
:100A0000227D64014E7003020AEF30020312394A5C
:100A1000900043E04440F0750E04020AEF200513F5
:100A200012227D64044E70057F03122AC5120C1F2A
:100A3000120C2E121AFAAF26121794020AEF7D0436
:100A4000120BF7120C2EAD267F05020AEC7D041264
:100A50000BE3120C36AD267F061239CB7F048035AE
:100A60007D05120BE3120C36AD267F071239CB7FC2
:100A70000580227D06120C0BAD25AC241234F8E45F
:100A8000FD7F041239CB12227D64014E70057F0375
:100A9000122AC57F06123C4A80557D07120C0BEFC7
:100AA00064014E600BE525640245246003300D0AA5
:100AB0007F043002027F02122AC512227D64034E97
:100AC0006008E5256403452470257F09122AC58046
:100AD0001E7D09120BF7120C3E7F0A800F7D0A7FE4
:100AE000011230DA120C1F120C3E7F091239CB12A0
:100AF0002232400C900051E4F0A37432F0020BB4A7
:100B0000AF0EEF12223740028070122264FB24F6EF
:100B10006003047060AF63EF3395E0FE74C82FF597
:100B200082743F3EF583E493FF7E007C007D641277
:100B300005BC8E248F25EB640A7005122A45800FB0
:100B40002011067EFF7FFF8006122245FFAEF09047
:100B50000051EEF0A3EFF0D3900052E09525E5248C
:100B60006480F8900051E06480984048E524F0A348
:100B7000E525F0803F1239A1500A74FF900051F032
:100B8000A3F080301222646402701CC3E50D950945
:100B9000E50812228E5006AE0CAF0D8004AE08AFF1
:100BA00009900051EE80091222CEFF900051E5F02D
:100BB000F0A3EFF0D206123B30301708AF26EF1249
:100BC0002237500F90003FE0FF3395E0FEEF6418AE
:100BD0004E700FC21790003FE004F0122264FF1223
:100BE00033BA22E4FF1230DAAF25AE24123CC4AF90
:100BF00026EF3395E0FE227F011230DAAF25AE24D6
:100C0000123CC4AF26EF3395E0FE22E4FF1230DA47
:100C1000AF25AE24123CC4AF26EF3395E0FE22AFE1
:100C200025AE24123CC4AF26EF3395E0FE22AD255D
:100C3000AC241234F822AD25AC241234F822AD25B0
:100C4000AC24123890AD26228F27120564FF146061
:100C50001514602814603D14603A2404705C122658
:100C60005E1226A5802912265EF5827401F52C8578
:100C7000822DE582F4F582752E00801312265EF433
:100C8000F582752C0085822DEDF5827401F52E8597
:100C9000822F8026ED1226A585822FEDF582740124
:100CA000F528858229EF64047007EDFF7401FE804A
:100CB00005EDF4FF7E008E2A8F2B90000112057D3A
:100CC0007007EDFF7401FE8005EDF4FF7E008E30AD
:100CD0008F3190000212057D7007EDFF7401FE80D8
:100CE00005EDF4FF7E00E527147003020D841470F7
:100CF00003020E07147003020E8A24036003020F1E
:100D000014E528AB9A30E006E5294BFD8004E5297F
:100D10005BFD8D9AE52A30E00890F0091226C58027
:100D20000690F0091226CC90F009EDF0E52C30E0A9
:100D3000051226B5800690F00A1226D390F00AED2F
:100D4000F0E52E30E0051226BD800690F00B12264D
:100D5000DA90F00BEDF0EE30E0051226E980089015
:100D6000F00CE0FBEF5BFD90F00CEDF0E53030E0D7
:100D7000051226E1800690F00D1226F0AF0590F0E6
:100D80000DEDF022E528ABA130E006E5294BFD8012
:100D900004E5295BFD8DA1E52A30E00890F01912E9
:100DA00026C5800690F0191226CC90F019EDF0E5DA
:100DB0002C30E0051226B5800690F01A1226D3904A
:100DC000F01AEDF0E52E30E0051226BD800690F019
:100DD0001B1226DA90F01BEDF0EE30E0051226E94A
:100DE000800890F01CE0FBEF5BFD90F01CEDF0E55F
:100DF0003030E0051226E1800690F01D1226F0AF9B
:100E00000590F01DEDF022E528ABA230E006E529C3
:100E10004BFD8004E5295BFD8DA2E52A30E00890BA
:100E2000F0291226C5800690F0291226CC90F029D0
:100E3000EDF0E52C30E0051226B5800690F02A1280
:100E400026D390F02AEDF0E52E30E0051226BD8085
:100E50000690F02B1226DA90F02BEDF0EE30E00544
:100E60001226E9800890F02CE0FBEF5BFD90F02C5F
:100E7000EDF0E53030E0051226E1800690F02D120D
:100E800026F0AF0590F02DEDF022E528ABA330E081
:100E900006E5294BFD8004E5295BFD8DA3E52A309D
:100EA000E00890F0391226C5800690F0391226CC61
:100EB00090F039EDF0E52C30E0051226B580069073
:100EC000F03A1226D390F03AEDF0E52E30E005121C
:100ED00026BD800690F03B1226DA90F03BEDF0EE56
:100EE00030E008A3E0FDEF4DFF800890F03CE0FD0E
:100EF000EF5DFF90F03CEFF0E53030E009A3E0FD5E
:100F0000E5314DFF800990F03DE0FDE5315DFF905A
:100F1000F03DEFF02275240075254078007C007DBF
:100F2000017BFF7A3F79CC7E007F1412051CE4FF21
:100F3000FE7DB07C40AB56AA55A954A853120314A9
:100F4000500302112F122F21120564600302112F8A
:100F5000C283C285C281D206123A41D2847F057E05
:100F600000122393123D757F667E667D867C40ABC2
:100F70004EAA4DA94CA84B1203146002500DE52552
:100F8000152570021524122F0950D2E5254524702D
:100F900007C2847F0102112C752400752564C28468
:100FA0007F147E00122393C206123A41123D757FD0
:100FB0000A7E00122393752600752704122F02C3A0
:100FC00033CE33CED8F924FCF58274FF3EF583127C
:100FD0002ED5C004C005C006C007122F02C333CEF1
:100FE00033CED8F9122F28D007D006D005D004125E
:100FF00007F0E527152770021526E527452670BC62
:10100000AF4EAE4DAD4CAC4B9000001207F09000CF
:10101000141207FC00000000E4F526F527122ED27A
:10102000C004C005C006C007122F02C333CE33CEA2
:10103000D8F9122EE1D007D006D005D00412007DD9
:101040009000141207F00527E527700205266405B5
:10105000452670C9122ED279A07840122F32900006
:10106000141207F09000181207FC00000000E4F5CD
:1010700026F527900018122ED5C004C005C006C062
:1010800007122F02C333CE33CED8F9122EE1122E1F
:10109000D2120079E4FBFAF9F8120314500F122F60
:1010A00002C333CE33CED8F9122EE1801A122F02AA
:1010B000C333CE33CED8F9122F28122ED5E4FBFA43
:1010C000798078BF122F15122ED2120079AB07AAA1
:1010D00006A905A804D007D006D005D00412007DCB
:1010E0009000181207F00527E52770020526640511
:1010F00045266003021073C3E525945D122F0E5040
:1011000013E4FFFEFD7C3F900018122EEA12031438
:1011100060025010E525152570021524122F094094
:1011200003020FACE525452470057F0212000E2254
:10113000E56270047F068041123735D3EF9441EEAB
:10114000648094804002D20DD3EF943CEE6480948E
:10115000804004D20B800DC3EF9432EE6480948003
:101160005002C20B300D05200B02C20DD3EF944B81
:10117000EE6480948040057F0702000E123735C36D
:10118000EF9429EE64809480500D900048E064074D
:101190007005F0FF122AC512374C7002C20C1237CC
:1011A00035D3EF9433EE648094804004D20C8023D6
:1011B000C3EF942AEE648094805018900055E0703C
:1011C00002A3E0700E900053E0B49E07A3E0B45871
:1011D00002C20C200C0CE4900053F0A3F0A3F0A387
:1011E000F022201603021314123735EF24CDFFEE40
:1011F00034FFAB07FAD3EB9401EA64809480407625
:1012000090004FE0FEA3E0780CCEA2E713CE13D8F7
:10121000F82401FFE43EFEAD03AC021205BC8E24AF
:101220008F25900058E0FEA3E0FFD3900052E09F8E
:10123000EE6480F8900051E0648098400C90005873
:10124000E0F526A3E0F527800A900051E0F526A3FB
:10125000E0F527E5272424FFE52634FAFE90005523
:10126000E0FCA3E0FDC3EF9DF527EE9CF526C3123D
:10127000373D503D802EC3EA6480948050417C000D
:101280007D03AF03AE021205CE8E248F259000554C
:10129000E0FEA3E0FFC3E49FF527E49EF526D3120A
:1012A000373D400DE02525F0900055E03524F080D5
:1012B0000E900056E02527F0900055E03526F015F9
:1012C00068E568704F7568FFD3EB9400EA6480941A
:1012D00080401D900054E094A8900053E0648094F6
:1012E000E1500DA3E004F0702B900053E004F022D5
:1012F000C3EA64809480501C900054E0945890009D
:1013000053E06480941E400CA3E024FFF09000534F
:10131000E034FFF0228E2D8F2E8D2F90F692E0304C
:10132000E708E4FFFEFD7C4080031230BD1230ABC5
:10133000AC2DAD2EEC120392C004C005C006C00750
:10134000E4FBFA79807845AF37AE36AD35AC341270
:101350000277D003D002D001D00012016E8F3B8EF5
:101360003A8D398C38E52F605924FA70030213FA4C
:1013700024FE700302145424FB700302147F24EE35
:101380006014241160030214BE853B5E853A5D85BE
:10139000395C85385B22AC2DAD2EEC120392A8048B
:1013A000A905AA06AB077F9A7E997D997C45120212
:1013B000778F338E328D318C308F5A8E598D588C79
:1013C00057227533357532487531031230928F5676
:1013D0008E558D548C53900057E0FC120397A8044F
:1013E000A905AA06AB07AF56AE55AD54AC531202D1
:1013F000778F528E518D508C4F2275332D7532A6BA
:101400007531331230928F4E8E4D8D4C8C4BAB56C6
:10141000AA55A954A853120277E4FBFA79C8784276
:1014200012016E8F338E328D318C301203CB8F616F
:10143000EF3395E0FED3EF9464EE64809480400334
:10144000756164AF61EF3395E0C364809480506E42
:10145000E4F561221230891230BD120079C004C057
:1014600005C006C0077D4812308412016ED003D03B
:1014700002D001D0001230A81203CB8E5F8F601211
:1014800030891230BD120079C004C005C006C00703
:101490007DA512308412016ED003D002D001D0009D
:1014A0001230A8E4FBFA797A784412016E1230AB5C
:1014B0001203CB7B007A007962121E088F4A22AF9A
:1014C0001EEF3395E0FEC3EF9404EE6480948050E9
:1014D00007E4F524F5258028900058E0FEA3E0FFFE
:1014E000D3900052E09FEE900051122F38984006A2
:1014F0008E248F25800A900051E0F524A3E0F52585
:1015000012340FD3E5259FEE6480F8E524648098BB
:10151000400712340F8E248F2590004FE0FEA3E089
:10152000FF65257003EE6524700302164DC3E525A3
:101530009FFFE5249EFED3EF9470EE648094974065
:1015400002D215301574D3E5259400E52464809407
:1015500080406790004FE07002A3E0700C90004F55
:101560007405F0A374DCF0803B122F211205642473
:10157000F66013047020900050E024B8F090004F03
:10158000E0340BF0801E900050E024F4F090004F07
:10159000E03401F0800E900050E02414F090004FF1
:1015A000E03400F0C3900050E09525E52490004F12
:1015B000122F3898400EC215800390004FE524F09A
:1015C000A3E525F090004FE0FAA3E0FBD39400EAF6
:1015D000648094805020C28490004B1207FC00006D
:1015E0000000C216BAFF06BBFF03D38001C392817D
:1015F000C283C2858055C3900050E0947890004F1C
:10160000E06480948050028001C39206201619A2E3
:1016100006B39281D284A2069283A206B392857FFA
:10162000057E00122393D216E4FFFE3006067DFAF3
:101630007C4380047DC07C3F90004FE0F52AA3E00E
:10164000F52B121EE790004B1207F0D212229000E9
:101650001EE014B40900400302179390166975F058
:1016600003A4C58325F0C583730216840216920273
:10167000173502173B02174902174F02176F02175F
:101680007602178590001CE4F0A3740EF0A3740298
:10169000F02290001CE0FEA3E0FFD3940CEE6480E7
:1016A000948040057567038023D3EF940AEE64802D
:1016B000948040057567028013D3EF9408EE648030
:1016C000948040057567018003E4F56712298E4018
:1016D00003021793AF56AE55AD54AC5390002C1285
:1016E00007F0900057E0FF3395E0FEEF64024E7084
:1016F0001790002C122964FFE4FBFA79207841123C
:10170000016E90002C1207F090002C122964FF1239
:1017100003CBAB07AA067C007D641205CEEF4E60BA
:101720000575670980587C007D0AAF03AE0212057B
:10173000CE7D0380377D047F01803890002C1229F4
:1017400064FF1229A17D0580237D067F028024E4A9
:10175000FFFE7D207C4190002CE0F8A3E0F9A3E09F
:10176000FAA3E0FB12016E1229A17D070238F17D78
:10177000087F0302336212296F501875640C9000C1
:101780001E7409F022E564700A123D684005E49079
:10179000001EF0228F27123D684005123D61500364
:1017A000D38001C39206122245122286500AAC0C45
:1017B000AD0DAE04AF0580008E288F291222CEFF1A
:1017C000C3E5299FE5F06480F8E528648098500B14
:1017D00030060812226E40031222D420050EAF27D5
:1017E00012227F64014E7050D205804C30010A05F0
:1017F00009E509700C05088008E50915097002154E
:1018000008900003122248FFAEF0D3E5099FEE12C4
:1018100022745006D2018E088F0912226D4005C233
:10182000011222D4AF2712227F64014E6005123CC0
:101830009F5005C205750F1E123D61500D20000A14
:101840000509E509701E0508801A123D68500D2033
:10185000000AE50915097002150880082006053000
:101860000002C200123D61501020000D12226D4096
:1018700008750E041222D4D200123D6850252000B3
:1018800022AB10AA11A912900003120604FFAEF0B9
:10189000D3E5099FEE1222745009750E048E088F4D
:1018A00009D200300604E4F50F22AF0F12227F6444
:1018B000204E7007050FC207122B4122900027E02F
:1018C000C39428748094805069E4FFFE7D7A7C4440
:1018D000AB52AA51A950A84F12016E1203CB8F2709
:1018E0008E268D258C24900027E004F01229612596
:1018F00027FFEE3526FEED3525FDEC3524FC900066
:10190000231207F012297FC31229B0500A90001F3A
:10191000E526F0A3E527F0900021122982D31229B1
:10192000B050030219A5900021E526F0A3E527F0A9
:101930008073122961FFC004C005C006C007900073
:1019400021E0FEA3E0FBAA06EA3395E0F9F81229AC
:101950007FEF2BFBEE3AFAED39F9EC38F8D007D0EF
:1019600006D005D004C3EF9BFFEE9AFEED99FDEC87
:1019700098FC12295BFFC006C007A3E024FEFFE429
:1019800034FFAB07FA3395E0F9F8D007D0061236EA
:101990002412295BFFEC12038D1229BB9000281240
:1019A00007F0123ACDAF65EF3395E0FEEF64784E65
:1019B0007005756501800712298E400205651229A0
:1019C0006F400CA3E024FFF090001CE034FFF0AF68
:1019D00064EF3395E0FE12298E4002156422300E2A
:1019E0002590005DE0FF3395E0FEC3EF940CEE64BC
:1019F0008094805005E004F0800CE490005DF0C21B
:101A000009C20A021AF6E567B40A004003021AEB9B
:101A1000901A17F8282873021A35021A4D021A3F35
:101A2000021A46021A54021A54021A90021AEB02BF
:101A30001A90021A90C207C208E4F566021AEBD2A5
:101A400007D208021AEBC207D208021AEBD207C269
:101A500008021AEBC208E566547FFFAE67EE640425
:101A60007E0070027E03C3EE6480F8EF64809850BD
:101A7000090F536680EF4266800B123D3A7F80600B
:101A8000027F008F66123D3AC36001D39207805BEC
:101A900053667FAF67EF64096007AF67EF64087054
:101AA000047F0680027F0AD3EF6480F8E5666480D5
:101AB000984009C208C207E4F567802FE56675F013
:101AC00002120542AFF0EFC36001D39206AF67EF99
:101AD00064087003C38002A2069207AF67EF640830
:101AE0007004A2068001C3920805661236E8A207B8
:101AF0009209A208920A123AEF22301903021B85BA
:101B0000301A03021B85E4900040F0E56360030295
:101B10001C021222451222865065900045E0FD709D
:101B20000404F08010ED1222C79409EC64809480C4
:101B30005003021C029000457401F090000512064B
:101B400004FDACF0D3E50B9DEC6480F8E50A6480FD
:101B50009840068C0A8D0B800B7432250BF50BE434
:101B6000350AF50AD312228A4009122245F50D855D
:101B7000F00C2274FA250DF50DE4350CF50C22E479
:101B8000900045F022E4900045F0900040E0FF33E3
:101B900095E0FEEF4E70037480F0900040E0547FBB
:101BA000F527301A13FF3395E0FED3EF9404EE646B
:101BB0008094804003023BC9AF27EF3395E0FED30A
:101BC000EF9409EE648094804038D3E50D94EEE5FF
:101BD0000C64809482400C7406250DF50D74FF355D
:101BE0000CF50CD3E50B94BEE50A6480948A400C96
:101BF00074E7250BF50B74FF350AF50A9000407465
:101C000080F022E54964037002F549E54914604219
:101C1000147003021CB3147003021CFA2403600343
:101C2000021CF7D206123C60E4F528F52974F2256F
:101C300029F582743F3528F583E493FF123077EF5E
:101C4000F00529E529700205286406452870DE02A2
:101C50001CF2E4F528F529123077E0FF1230C64077
:101C60000F1230D04018EF941FEE64809480500E15
:101C70000529E529700205286406452870D9C3E5C1
:101C8000299406E528648094805023123077E0F58B
:101C90002CFF3395E0FE4F6006EF64064E7005C2E0
:101CA00006123C60AF2C1234AC754902804C754969
:101CB00003804775300075310075322C7B007A0047
:101CC000792A1225A9EF4E6031AD2CAF2BAE2A1226
:101CD0001315E4F528F529123077E0B52C061230FB
:101CE0007774FEF00529E529700205286406452869
:101CF00070E57549018003E4F54990003EE0600914
:101D0000E54964036003021C0322201606E49000E8
:101D10004AF02290004AE0FF3395E0FEC3EF9404BE
:101D2000EE648094805004E004F022900049E05476
:101D30000FF5247D9012004E60054003D38001C34F
:101D400092067FCD7ECC7D8C7C40AB52AA51A950AF
:101D5000A84F120314600740057F0412000E7F662F
:101D60007E667D06120051400F7F9A7E997D997C98
:101D700040120068600C400A7D02120060E4F52504
:101D80008049E4FFFE7D807C3E12006840097DF0C2
:101D900012004E600A400812005E752501802CA2D8
:101DA0001B300601B3500812005E752502801CAF7F
:101DB00024EF3395E0FED3EF9400EE6480948040EE
:101DC00006E52414FF80027F008F24E525C454F02B
:101DD0004524900049F0AF24EF3395E0FEC3EF9423
:101DE00008EE64809480401FE0FF7804A2E713D8D7
:101DF000FB540F24FE60070470087F0580067F09EE
:101E000080027F0312000E228B3C8A3D893E8F4266
:101E10008E418D408C3F7FD57E2C7D517C00D3122E
:101E20003AC24006123AB87FD822E47FE37E0AC362
:101E3000123AAB5006123AB87F7D227401123AB9B9
:101E4000E47FF57EF5D3123AAB4038E4F543F54430
:101E5000AE43E5447802C333CE33CED8F92478F5C7
:101E600082743D3EF5831207C0C3123AC24006E5B4
:101E70004424D8FF220544E54470020543644B45E1
:101E80004370CDE4F543F544E54425E0FFE54333F5
:101E9000FE74A42FF582743E3EF583E493FE740134
:101EA00093FFE48F488E47F546F545E548F548E54C
:101EB00047F547E4F546F545AF42AE41AD40AC3F8E
:101EC000AB48AA47A946A845D312079C5006E5444B
:101ED0002423FF220544E54470020543645B454327
:101EE00070A6123AB8FF228F298E288D278C2612D1
:101EF0002F2190000912057DF530120564640270EF
:101F00000FAE2AAF2BFC7DCD1205CEEF2530F5307C
:101F1000AC2AAD2BEC120392AB29AA28A927A8263C
:101F2000122EF6797A7844122F32122EF97B9D7A8E
:101F300069795C783C120277122EF9AB2FAA2EA990
:101F40002DA82CC000C001C002C003AC30EC1203AD
:101F500097E4FBFA79C87842120277D003D002D016
:101F600001D000122EF6C004C005C006C007E4FF71
:101F7000FE7D7A7C44AB5AAA59A958A857122F154E
:101F8000D007D006D005D004120277122EF9E4FB58
:101F9000FA79C87842122EF6E4FFFE7DC87C42AB87
:101FA0002FAA2EA92DA82C120314600A4008E4FFC2
:101FB000FE7DC87C4222AF2FAE2EAD2DAC2C22125E
:101FC0003D75855F24856025D3E5259464E524640B
:101FD0008094804010749C2525F52574FF3524F5E8
:101FE00024C21C8002D21CE4FBFA74E02BF582743C
:101FF0003F3AF583E493FF7E002404FDEE33FCD3E7
:10200000E5259DEC6480F8E524648098506DEF240C
:10201000FCFFEE34FFFEC3E5259FEE6480F8E52467
:10202000648098405674E82BF582743F3AF583E457
:1020300093FF7E007C007D641205BC900058EEF09A
:10204000A3123D178005C333CE33CED8F9FF903F9E
:10205000F1E493FDEF5D7F0260027F039000571271
:102060003D178005C333CE33CED8F9FF903FF0E45F
:1020700093FDEF5DC36001D3921B220BBB00010AED
:10208000EB64084A6003021FEA7F0812000E221266
:10209000299864027006AC0AAD0B800FAB10AA1130
:1020A000A912900005120604FDACF0EC1203921286
:1020B00029BB8F278E268D258C247FCD7ECC7D2C31
:1020C00012294860054003C38001D3921A301A04D4
:1020D000C219802BAF61EF3395E0FED3EF944BEE46
:1020E000648094804004D2198015AF27AE26AD25B8
:1020F000AC2412294A60054003C38001D39219120F
:102100003308AF67EF6406604BAF67EF6408604465
:10211000AF67EF6409603D900048E06003022DF571
:102120001229987004E564601FE56314600E146062
:102130000F1460102403701C756703227567022258
:10214000756701227567042290001EE06003021685
:102150004EE4F56722E4F524F525F526FB7F03120E
:10216000220F7B007F0212220F7F011221F97B00D8
:102170007A0079247D01E4FF120C487F031221F9D3
:102180007D021222057D027F02122CA57D01122202
:10219000057D037F01122CA57B01E4FDFF122CA518
:1021A000752403E4F525752601FBFD7F03122CA59C
:1021B0007B007A0079247D017F03120C48D207E46A
:1021C000FD7F031222DB75DF4075DE60E4F5E9F583
:1021D000D1F5D375D50F75D4FF90F69274A0F0E4C5
:1021E000F5499000361207FC000000001230B4F0F0
:1021F000A3F0A304F043DE80227B007A0079247DE3
:1022000002120C48227B017F03122CA57B01227A4B
:102210000079247D04120C48227F9A7E997D397CB6
:1022200040900028E0F8A3E0F9A3E0FAA3E0FB0265
:102230000314900041E0FF3395E0FED3EF9400EEED
:102240006480948022900001AB10AA11A9120206AA
:102250000475F00AED12082DEC75F00AA42583F53B
:1022600083E49322AB10AA11A912020564C3E50905
:102270009529E5286480F8E50864809822AF26EF68
:102280003395E0FEEF22FFAEF0C3E50D9FEE6480D4
:10229000F8E50C64809822EF3395E0FEC3EF22E06E
:1022A00054C0F0C3ED9406EC6480948022E0FF54A7
:1022B0003FF524FD3395E0FC4D22D3EF9DEC648087
:1022C000F8EE64809822FD3395E0FCC3ED22900087
:1022D0000102060485280885290922EF14603814B4
:1022E000605F14700302236B2403600302239212C5
:1022F0002688400302239230070EA8057401088047
:1023000002C333D8FC428022A8057401088002C3AE
:1023100033D8FCF4528022122673507612267F4066
:102320007130070EA8057401088002C333D8FC423F
:102330009022A8057401088002C333D8FCF452909F
:1023400022122652504C122691404730070EA80503
:102350007401088002C333D8FC42A022A80574018E
:10236000088002C333D8FCF452A022ED1226565046
:102370002130070EA8057401088002C333D8FC423F
:10238000B022AF05A8077401088002C333D8FCF45B
:1023900052B0228E2A8F2BE4F530F531E52B452AF9
:1023A00070030224480531E53170020530AE2AAFD2
:1023B0002BEE3395E0FDFCE47BA07A0FF9F81206D2
:1023C0005B8F2F8E2E8D2D8C2CC006C007AE30AFAC
:1023D00031AB07AA06EA3395E0F9F8D007D0061228
:1023E00006E68F2F8E2E8D2D8C2CE47FFF7EFFFD39
:1023F000FCAB2FAA2EA92DA82CC312079C50A6C354
:1024000074FF952FF52F74FF952EF52EE4952DF57D
:102410002DE4952CF52CAF2FAE2EAD2DAC2C7808DD
:102420001207AD8F8CE52FFF8F8AC20F438810E50E
:102430008820E503300FF85388CFE531153170025D
:102440001530E531453070CE222012030224FB30D6
:10245000141E90F129E030E0030224FB90F164E0C7
:1024600030130554FEF080034401F0C212C214225E
:102470007DC87C42123CB2120314600C400A9000EA
:102480004B1207FC42C80000E4FFFEFDFC123CB505
:10249000120314500A90004B1207FC00000000AF1A
:1024A00027AE26AD25AC24EC4D4E4FC36001D39230
:1024B000137DFA7C45123CB212016EE4FBFA79807E
:1024C00078BF12007D8F278E268D258C24E4FBFAA1
:1024D00079C878421202778F278E268D258C241298
:1024E00003CBAD07AC06ECFFEF90F141F0ED90F1BE
:1024F00040F0D21490F129E04401F022E4F5DE909E
:10250000F692F090003E04F0E4F549FFEFFD3395BC
:10251000E0FCC3ED9406EC648094805015EF339595
:10252000E0FC74302DF58274003CF58374FEF00FEE
:1025300080DA9000361207FC000000001230B4F080
:10254000A3F0FB7D027F03122CA5E4FB7D037F013A
:10255000122CA5E4FBFDFF122CA5752403E4F52540
:10256000F526FB7D047F0312259F7D027F01122546
:102570009F7A0079247D01E4FF120C48C2077D0296
:102580007F031222DBC207E4FDFF1222DBC2077DBC
:10259000037F011222DBC207E4FD7F030222DB7A04
:1025A000007924120C487B00228B2D8A2E892FE57E
:1025B000DF30E102805090003BE004F070069000B4
:1025C0003AE004F0900036E0F8A3E0F9A3E0FAA3C3
:1025D000E0FBAFDDEFFEADDCEDFFEE3395E0FDFCA3
:1025E000EB2FFFEA3EFEE93DFDE83CFC9000361291
:1025F00007F0C390003BE0940A90003AE0648094B6
:1026000080500743DF02E4FEFF22900036E0FCA387
:10261000E0FDA3E0FEA3E0FFE47B0AFAF9F812363E
:10262000249000361207F0900036A3A3E0FFA3E049
:10263000AB2DAA2EA92FCF8FF012063C90003CE0C4
:10264000AB30AA31A9321205AAE490003DF0FE7F1A
:102650000122EDFF7E00D394067480948022EDF475
:10266000F58275830085832885822985832A858262
:102670002BED22EDFF7E00D394077480948022C35B
:10268000EF94037480948022EDD394057480948039
:1026900022C3EF94017480948022FBE434F0FAA802
:1026A0000574010822F4F58275830085832C8582E8
:1026B0002D85832E22A3E0FBE52D4BFD22A3E0FB1D
:1026C000E52F4BFD22E0FBE52B4BFD22E0FBE52B4C
:1026D0005BFD22E0FBE52D5BFD22E0FBE52F5BFDD2
:1026E00022A3E0FBE5314BFD22A3E0FBEF4BFD22F3
:1026F000E0FBE5315BFD2278FFE4F6D8FD900000B9
:102700007F007E04E4F0A3DFFCDEFA758168022717
:102710004C0229C5E493A3F8E493A34003F6800197
:10272000F208DFF48029E493A3F85407240CC8C30B
:1027300033C4540F4420C8834004F456800146F645
:10274000DFE4800B0102040810204080903544E44F
:102750007E019360BCA3FF543F30E509541FFEE4A3
:1027600093A360010ECF54C025E060A840B8E49365
:10277000A3FAE493A3F8E493A3C8C582C8CAC583A7
:10278000CAF0A3C8C582C8CAC583CADFE9DEE7802C
:10279000BEEF14602214603C14605624037074125F
:1027A00026884002806DED248012269A8002C33371
:1027B000D8FC55ACFC8060122673500512267F5061
:1027C000028050ED248812269A8002C333D8FC552B
:1027D000ADFC8043122652500512269150028033E0
:1027E000ED249012269A8002C333D8FC55AEFC80AB
:1027F00026ED1226564002801AED2498FBE434F0B0
:10280000FAAF05A8077401088002C333D8FC55AF9E
:10281000FC8004E4FEFF22EC7003FEFF228B828A20
:1028200083E05403FF7E00227D087F0212391E40A0
:102830003D90005CE025E0F030A303E004F0900060
:102840005CE0FFFD7C00F46003ED7022E4F5B6ED82
:10285000F44CD37001C3921DEFF47B0170027B0234
:102860007D037F021232527D087F02123B8D301DA4
:1028700008E51630E703751680301D27E5156485D9
:102880007021120003D3EF9400EE64809480400521
:10289000123C1A800BE4F519F51B75180175170128
:1028A000E4F515201D13E5166484700DF516E51783
:1028B0007004751A0122E4F51722752403E4F52546
:1028C000752601C2077D02FF1222DB7B007A0079A8
:1028D000247D04E4FF120C487B127D02E4FF122CDD
:1028E000A590F120E4F0A3740DF090F1237401F0B1
:1028F00090F12A74FFF090F122E4F090F127740D2A
:10290000F0A3F090F160E4F090F165F090F1647460
:102910000DF090F131741FF090F130743FF090F1B0
:1029200041E4F090F140F090004B1207FC000000F1
:1029300000C214C21290F166E4F090F12604F00295
:102940003D097D4C7FCD7ECC7C40900028E0F8A3F3
:10295000E0F9A3E0FAA3E0FB0203149000231207BE
:10296000F0900023E0FCA3E0FDA3E0FEA3E022D36F
:1029700090001DE0940090001CE064809480229000
:10298000001FE0FEA3E0FFEE3395E0FDFC22D3EF55
:102990009400EE6480948022AB10AA11A912020563
:1029A000641203CB7C007D0A1205CEAE04AF052273
:1029B000AB27AA26A925A824020786E4FBFA797A80
:1029C0007844020277123C8AD2071239F312345F3C
:1029D000122155121FBF1231991228BA122D171247
:1029E00031F61235DA12002E120F15122F3FE49035
:1029F000003EF043A880123D751228281237F812C5
:102A0000208F12088E1211301214BF122449301078
:102A1000E5C21012385E122BBA1218BC123CD61244
:102A20002C30122D86123668122E64AF1EEF3395AD
:102A3000E0FEC3EF9403EE6480948040B91219DE87
:102A4000121D0A80B190005BE0B407005073902A19
:102A500055F8282873022A6A022A75022A92022A45
:102A600098022AB5022A75022ABBE490005AF07D2A
:102A70000B7F0180497F02123A655002802190004D
:102A80005BE0640170067D077F0280327D237F0654
:102A9000802C7D237F0380267F06123A655010AB81
:102AA00010AA11A912900001120604FFAEF0227DB7
:102AB000077F0480097D0B7F058003E4FDFF123D45
:102AC00023E4FEFF228F2A122264F52E1222CEF575
:102AD0002D85F02CE4F52BAF2B122297940BEE648E
:102AE000809480505B903F5A75F00AEF12082DEEEB
:102AF000122259652A7045123D44AF2BEF3395E001
:102B0000FE7C007D0A1205BC745A2FF9743F3E7595
:102B100010FFF5118912E52E6408700DE52A64088E
:102B20006007AF2DAE2C12313BE52E700AE52A600E
:102B300006FF1233BA8005E490003FF0052B809722
:102B400022D208123CE820071CE4F52AF52B742C4D
:102B50001238497F111238C2052BE52B7002052A65
:102B600012385440E98508308509317F003002026F
:102B70007F018F327A00793012383E12358F8F33D1
:102B8000200707E533B52F02802A7B007A00792CD5
:102B9000E4FDFC7F1D1238C2E4F52AF52B743012D7
:102BA00038497F191238C2052BE52B7002052A120D
:102BB000385440E9C208123CE822AB10AA11A9120D
:102BC00012056460046401701190F508E4F090F55A
:102BD00000E0547FF0E4F51D802DAF1D123BE7505F
:102BE00004051D8022EF64034E701C7F9A7E997D40
:102BF000B97C40AB56AA55A954A8531203146005DA
:102C00004003123C01051DAF1E123BE75003051E99
:102C100022EF64034E7018051E90005EE0FF3395AE
:102C2000E0FED3EF9400EE648094804002D218223C
:102C300090003FE0FF1222989418EE648094805038
:102C400003E004F0900045122235400DEF9409EEA8
:102C5000648094805003E004F0AF0F122297942018
:102C6000EE648094805002050FAF0EEF12223740C1
:102C700002150E1222324003E014F0900040E0FFF3
:102C800030E71C547FFEEF5480F0EE1222C6940A07
:102C9000EC6480948050010E900040E04EF022E4FD
:102CA000900040F022EBF5826402606AE5826403E2
:102CB0006064E5826419605ED3E582941C7480943C
:102CC000805053EF14601414602014602F2403709C
:102CD000451226885040ED2400802A122673503673
:102CE00012267F4031ED2410800D122652502712FB
:102CF00026914022ED2420F528EE800CED12265678
:102D00005014ED2430F528E434F0F527EB541F85FA
:102D10002882852783F022752403E4F52575260192
:102D200090005DF0F56790F12404F090F12C74FFB1
:102D3000F0A3F090F1357409F090F134745FF090E5
:102D4000F1377409F090F136745FF090F126E044A9
:102D50000CF01236E890F129E0540C70F8FB7D106D
:102D6000122D7C7B007D20122D7C7B147D047F0244
:102D7000122CA57B157D057F02022CA57A007924F3
:102D80007F02120C48221222646069123D614007E2
:102D9000E4900043F080299000431222AD7007EFC9
:102DA00020E6034480F090004312229F5008E02068
:102DB000E60405248003E4F524900043E04524F074
:102DC000123D684006E4900044F022900044122234
:102DD000AD7007EF20E6034480F090004412229F7C
:102DE0005008E020E60405248003E4F52490004424
:102DF000E04524F022900046E0FEA3E0FFC39405E6
:102E0000EE648094805010C3EF9403EE648094804D
:102E1000504EEF04F56722900048E0FF7E007C00F2
:102E20007D061205BCEF2405FFE43EFE900046E05F
:102E3000FCA3E0FDC39FEE6480F8EC648098502012
:102E4000ED24FBFFEC34FFFE7C007D031205CE7CFD
:102E5000007D021205CEED4C7004756701228000E2
:102E6000E4F5672290001EE0700BAB10AA11A912C6
:102E7000120564600775130075142822D3E51494B5
:102E800000E513648094804009E514151470421520
:102E9000132290F500E4F0C206123BAB43870443D3
:102EA0008702123C8AD2071239F3123B107F017E4F
:102EB00000122393122828301005C21012385E1217
:102EC0003C9F50E9D206123BABE490003EF043A891
:102ED0008022900014E0FCA3E0FDA3E0FEA3E0FF4D
:102EE000222400F58274003EF583E0F8A3E0F9A304
:102EF000E0FAA3E0FB2212016E8F2F8E2E8D2D8C17
:102F00002C22AE26E527780222D3E5259400E5247D
:102F1000648094802212016EA804A905AA06AB075A
:102F200022AB10AA11A912222400F58274003EF5EA
:102F30008322E4FBFA0202776480F8E0648022C214
:102F400019C21A122998702BF524900057E0C36417
:102F500080F8E52464809850107F021237C57FA066
:102F60007E00122393052480E17F907E011223933B
:102F700075640C123ACDE490001EF0F524AF24EFF6
:102F80003395E0FEC3EF9406EE64809480501812EF
:102F90003D75AF52AE51AD50AC4F9000281207F0C6
:102FA000123308052480D6228B348A35893675374A
:102FB000027538007B007A007939AD38AC377F1163
:102FC0001238C2AF39EF3395E0FEC3EF9401EE64DF
:102FD0008094804036D3EF940BEE6480948040025E
:102FE0008029E53914AB34AA35A9361205AA05386B
:102FF000E53870020537C394FCE53764809483405C
:10300000B3AB34AA35A936E41205AAAE37AF3822DD
:103010007D037F02122791EF64014E7034C21DE5DB
:1030200015547FFFE4F515E5177004E51B6007E410
:10303000F51BF5178033EFC39405502D120003C321
:10304000EF940AEE64809480500205197516808012
:1030500018D21D751300751428E51630E703751690
:1030600080E51520E7037515807D087F02123A89F7
:1030700090005C74AAF02274302529F58274003522
:1030800028F58322E4FFFE7C43AB3BAA3AA939A88A
:10309000382275303EAB33AA32A931A830AF3BAEEF
:1030A0003AAD39AC380202771202778F378E368DFF
:1030B000358C3422E490003AF0A3F0A322AF5AAE4C
:1030C00059AD58AC57223395E0FEC36480948022FA
:1030D000D3EF9416EE64809480228D272019092066
:1030E0001A06E4900040F022900040E0FD3395E0A5
:1030F000FCED4C70037480F0900040E0547FF528A4
:10310000201A057529098003752902EF6014301A09
:1031100029AF281222979403EE64809480401B020A
:103120003BC9D3E5296480F8E528648098400B907A
:1031300000407480F0AF27122AC5228E2F8F3012E4
:10314000374C6054900001120604FBAAF09000581E
:10315000E0FEA3E0FFC39BEA6480F8EE6480985031
:1031600004AA06AB07123720900055E03EC36480E6
:103170009480C3EB9530FFEA952FFE900055F0A3A5
:10318000EFF0C3EE648094805007E4900055F0A304
:10319000F0E4900053F0A3F022D206123B6EE4F567
:1031A0001E301C5175241E90F500E04480F07F070E
:1031B0007E00122393123BF630E702051CAF1CEF92
:1031C000F47006D20615248018E51C541F70127581
:1031D000241E30060CD217F51C90005EE004F0C2ED
:1031E00006E52470C97F043017027F038F1E90F517
:1031F00000E0547FF022E4F50EFFEF1222C6940B9C
:10320000EC64809480502C903F5A122251640270DA
:103210001FEF3395E0FC903F5F122251F50A7401D5
:1032200093F50B903F5B122251F50C740193F50D51
:103230000F80C71232AD123D449000427404F0E496
:10324000900048F07510FF75113F75125AC203C205
:103250000422EBD31226815053EF14601414602023
:1032600014602F240370451226885040ED2480807E
:103270002A122673503612267F4031ED2488800DA5
:1032800012265250271226914022ED2490F528EE66
:10329000800CED1226565014ED2498F528E434F0F5
:1032A000F527EB5403852882852783F022D2081264
:1032B0003CE8E4F524F52574262525F9E4FAFBAD70
:1032C00025AC247F111238C20525E525700205249E
:1032D000C39404E5246480948040DCC208123CE876
:1032E0007A00792612383E12358FEFB5290F8526E0
:1032F00008852709E528C36001D392022212394AC2
:10330000C202D207122B4122E56314601514602912
:103310001460442403704A7D6C1229445043756341
:1033200001227F9A7E997D7912294860054003E445
:10333000F563122942502A8025E4FFFE7D601229A0
:1033400048600540037563017F9A7E997D39122993
:1033500048500E75630322122942600540037563CD
:1033600002228F288D2990001CE0B4FF0FA3E0B447
:10337000FF0A1237C5E490001CF0A3F090001CE097
:10338000FAA3E0FB7C007D04FFAE021205CED3ED74
:103390009401EC648094807F004002AF288F67D353
:1033A000EB9400EA64809480500FE4F56790001C71
:1033B000F0A3740AF0A3E529F0228F2FD208123C63
:1033C000E87B007A007932122FA88E308F31AD322F
:1033D000AF2F123758E532B52F02801FE531B4FC0C
:1033E00010E530B4030B7530027531007F1D1234C7
:1033F00001E52F04F5337F19123401C208123CE8AD
:10340000227B007A007933AD31AC301238C22220F1
:103410000C0A900051E0FEA3E0FF8030123720FF3D
:10342000900055E03EFEC3648094805003E4FEFFAC
:10343000C3900052E09FFF900051E09EFEC3EF94C6
:10344000DCEE6480948550047E057FDC900051E0C2
:10345000B50608A3E0B50703C38001D3920E227519
:103460002403752501752601C281C284C283C285E9
:103470007D0212349A7D10E4FF120C487D0812344C
:103480009A7D20E4FF120C48E4900051F0A3F090E4
:10349000004FF0A3F0C216C215227B007A007924F7
:1034A000E4FF120C487B007A00792422AB077AFFF4
:1034B00090003DE07041EB1230C6403B1230D040EE
:1034C0000AEF941FEE64809480402C90003612071F
:1034D000FC000000001230B4EBF0A37401F0EB30FC
:1034E000E40543DF80800353DF7F53DEF0EB540FAE
:1034F00042DEDAFE43DF02221222BA40028004AE2C
:1035000004AF058E278F28E5286402452770177FB2
:10351000667E667D4612221F600940077F08122AD8
:10352000C58003123976E5286403452770157FCDE1
:103530007ECC7D2C12221F600740057F09022AC520
:1035400075670622C110C10FC111C11D41005E0087
:10355000C118C117011CFF42005300004200550072
:1035600000C10C0168FFC10EC10BC10DC1054100B6
:10357000400041004300410041004100440041003F
:103580003F1941004500C100C10141004900008BC5
:10359000348A3589368F3A8E398D388C37E4F53B4D
:1035A000AB340536E536AA357002053514F9120537
:1035B00064623B7F08E53B30E70825E06407F53BA4
:1035C0008006E53B25E0F53BDFEB783774FF12071B
:1035D000D2EC4D4E4F70C9AF3B22752401E4F52566
:1035E000F526FB7D037F02122CA57B007A0079244F
:1035F0007D087F02120C487D087F02123B8D7B0202
:103600007D037F0212325243B904751300751428EA
:1036100090005C74FFF0E4F515F516F518F519F552
:103620001AF51B22C2D5E830E70FB2D5E4C39BFBE5
:10363000E49AFAE499F9E498F8EC30E717B2D51275
:10364000365A1206E6E4C39BFBE49AFAE499F9E4DD
:1036500098F880031206E630D50DE4C39FFFE49E80
:10366000FEE49DFDE49CFC22900048E0FF7E00709B
:10367000059000468030900047E004F0700690000E
:1036800046E004F07C007D061205BCEF240FFFE449
:103690003EFEC3900047E09FEE6480F8900046E055
:1036A0006480984004E4F0A3F022C0E0C0F0C0833E
:1036B000C082C0D075D000C000C001C002C003C02D
:1036C00004C005C006C00712301075B600D007D080
:1036D00006D005D004D003D002D001D000D0D0D085
:1036E00082D083D0F0D0E0327F05301E027F009080
:1036F000F145EFF07F78301E027FFA90F144EFF051
:103700007F05301E027F0090F147EFF07F78301E7A
:10371000027FFA90F146EFF090F129E0440CF0229C
:10372000900053E0FEA3E0FF7C007D641205CE9084
:103730000056E02F22AF4AEF3395E0FE22E52595B3
:1037400027E5266480F8E52464809822AB10AA114E
:10375000A91290000802057DEF64017002FF22E4C7
:10376000FEEEFB3395E0FAC3EB9403EA64809480A9
:10377000501DEE3395E0FA74FB2BF582743F3AF559
:1037800083E493B50706ED7F046001FF0E80D2222B
:10379000E4FFEFFD3395E0FCC3ED9403EC6480940B
:1037A000805020EF3395E0FC74F82DF582743F3C97
:1037B000F583E493FE900048E0FDEEB50502C322D8
:1037C0000F80CFD322EF14600C14600F147010C25E
:1037D00006D207800AD206C2078004D206D207A208
:1037E000069209A207920A123AEF7F147E00122372
:1037F00093C209C20A023AEF90F500E030E72BE5E8
:103800001C70277F057E00122393123BF630E702DF
:10381000051CAF1CEFF470EB90F166F090F12604FC
:10382000F090005EE004F0E4F51E2275F00AEF125D
:10383000082DEE75F00AA42583F583E493227B001E
:103840007F037E007D007C0022252BF9E4FAFBAD8E
:103850002BAC2A22C39404E52A6480948022E515C7
:1038600030E711547FFFC3940550010F531580EFCB
:1038700042158003E4F515E51630E710547FFFC3C9
:10388000940450010F531680EF421622E4F51622DD
:103890001222BA40028004AE04AF058E278F28E5BD
:1038A00028640245277008200B057F08122AC5E509
:1038B0002864034527700A7F043002027F02122A1F
:1038C000C5228F3AEF64197005120564F5FEEDF517
:1038D000FCECFFEFF5FD00853AFF00000000000062
:1038E000E5FF20E0FBE53A64117005E5FE1205AA4C
:1038F0002212296F5027EF4E700774FFF0A3F0805B
:1039000017EF7802C333CE33CED8F924FFFFEE345D
:10391000FF90001CF0A3EFF090001EEDF022EF14DA
:1039200060111460151460192403701CE5AC5D600F
:1039300017D322E5AD5D6010D322E5AE5D6009D3FB
:1039400022E5AF5D6002D322C3227508037509200A
:10395000E4FFFE903F5A12382B6402700D903F5DD9
:1039600012382BF508740193F5090FBF00010EEF13
:10397000640B4E70DE221222196010400E300204D9
:103980007F028016900042E0FF800F7FCD7ECC7DCD
:103990002C12221F600740057F03022AC5756706A7
:1039A00022E56364036005E4F565801DE565700547
:1039B0007565018014AF65EF3395E0FED3EF947425
:1039C000EE648094804002D322C322A90790004372
:1039D000E0FE5480FB3395E04B700BED3395E0FC3B
:1039E000ED64014C700CEE547F900043F0AF011277
:1039F0002AC522E4200706F5C853A8DF22F5CE75B4
:103A0000CB0B75CADB75CD5D75CC6643A820F5C9B7
:103A100075CF80751F0475C89122C0E0C083C08235
:103A20005380DF5380F75380FD5380EF53A0EF5353
:103A3000A0DF751C0090F509E4F0D082D083D0E0BF
:103A40003290F1417401F07F003006027FFF90F167
:103A500040EFF0123D0990F164E030130454FEF0A1
:103A6000224401F022AB07EB3395E0FEEF25E0FDA9
:103A7000EE33FC123D4E1205CEEB14D36480F8ED0C
:103A80006480984002D322C322EF14600F146011A7
:103A900014601324037013EDF452AC22EDF452AD14
:103AA00022EDF452AE22EDF452AF22FDFCAB42AA5D
:103AB00041A940A83F02079CE4AB3CAA3DA93E02B5
:103AC00005AAAB42AA41A940A83F02079C90001F4B
:103AD000747FF0A374FEF0A37480F0A37402F0E48A
:103AE000900027F09000231207FC000000002290B5
:103AF000F164E0FF3009055307FB800343070430FE
:103B00000A055307F7800343070890F164EFF0229A
:103B10007D087F02123A8990005C74AAF0D21DE5FC
:103B20001630E703751680E51520E703751580222A
:103B3000E5177004E51B6004E4FEFF22E51A70033C
:103B4000FEFF22120003300605E4F51AF51922E4FF
:103B5000FB7D02FF122CA5C2077D02E4FF1222DBCF
:103B600090F121E4F090F126F090F123F02290F50D
:103B7000007409F090F5027419F090F50CE4F090DF
:103B8000F5067438F0A37405F075B98022EF14605F
:103B90000E14600F1460102403700FED42AC22ED80
:103BA00042AD22ED42AE22ED42AF2230060F12218D
:103BB000551228BA122D1712345F023B6EC207123B
:103BC00039F3123B4F1224FC22122264FF6017903B
:103BD000000712057D6005900042EFF0E4FF122A15
:103BE000C5E4FF1233BA22EF3395E0FEC3EF94032E
:103BF000EE6480948022E51C25E0F51C90F501E040
:103C00002290F500E04480F07F147E001223939010
:103C1000F509E4F090F50804F022E4F516F51AF53C
:103C200019F517F518EF64014E7F0070027F018FC0
:103C30001B22EFFB3395E0FAC3EB9408EA6480940F
:103C4000805004EF2DFF227F0822900044E0FE54B4
:103C500080FD3395E04D6007EE547FF0122AC522B7
:103C600053DE7F007F002006027FA090F692EFF0E7
:103C70000043DE8022C0E075C900151FB211E51FA8
:103C80007005751F04D210D0E0325388CF5389F0ED
:103C9000438901E4F58CF58A75A80243A88022E5E2
:103CA000186002D322E51A6002D322E51BC360012B
:103CB000D322E4FFFE90004BE0F8A3E0F9A3E0FA82
:103CC000A3E0FB22EF64014E700B200405123D615E
:103CD0004003123BC922123D4ED3EF9400EE6480A4
:103CE00094804003E014F022300807C2AF0075FB57
:103CF000AA2275FB5500D2AF222018037F00229024
:103D0000005EE0FFE4F0C2182290F1297401F09007
:103D1000F129E020E0F922EFF0AF037E007401A862
:103D200007082290005AE07005EDF0A3EFF022E5BD
:103D3000187002C322E4F518D322E5665480FF33DD
:103D400095E04F22E490005BF090005AF022900042
:103D50005AE0FF3395E0FE2290001EE0700204F06E
:103D600022E517C36001D322E51BC36001D32253B0
:103D700088EFD20F32021C0300512CD5004B18697A
:103D80000045845700406521003BB06200375CB6B7
:103D90000033619B002FB760002C570700293A3D84
:103DA00000265B410023B4DC0021424D001EFF458C
:103DB000001CE7D5001AF86900192DBE001784DA37
:103DC0000015FB0600148DC700133ADA0012002B11
:103DD0000010DBD6000FCC1E000ECF6C000DE44BA4
:103DE000000D0965000C3D80000B7F7C000ACE5061
:103DF000000A290700098EC30008FEB50008781FD5
:103E00000007FA52000784AE0007169D0006AF9720
:103E100000064F1C0005F4B800059FFE0005508BFE
:103E2000000506020004C00D00047E5D000440A9E8
:103E3000000406AC0003D02700039CE100036CA142
:103E400000033F37000314720002EC280002C62F63
:103E50000002A2630002809F000260C3000242B120
:103E60000002264C00020B7B0001F2230001DA2E37
:103E70000001C3870001AE19000199D2000186A09C
:103E8000000174720001633A000152EA00014372BA
:103E9000000134C8000126DF000119AC00010D2526
:103EA00000010141F5F5EB3AE107D755CE1DC558A4
:103EB000BD00B50EAD7FA64C9F7098E792AC8CBB51
:103EC000871181AA7C82779772E46E676A1E660604
:103ED000621C5E5F5ACB575F541950F84DF84B1A6D
:103EE000485A45B8433340C83E773C3E3A1D3812E5
:103EF000361D343B326D30B22F082D6F2BE62A6C05
:103F0000290127A42655251323DD22B22193207FE2
:103F10001F751E751D7E1C901BAC1ACF19FB192E28
:103F2000186917AA16F31642159714F2145313B909
:103F300013251296120C11861105108810100F9B74
:103F40000F2B0EBE0E550DEF0D8C0D2D0CD10C78D8
:103F50000C210BCE0B7D0B2E0AE3000000000000AD
:103F60000001006401000000000000000064030084
:103F70000F00000AF00000320403E800000B5401B7
:103F800000450507D000000BB8010056060FA00041
:103F9000000BEA010160071F4000000C1C010166D4
:103FA0000859D800000C8000016A092EE0000009C1
:103FB000C4000169021F4003E80C800001450A2E7D
:103FC000E0000009C400016978502D0100000000E4
:103FD00000000000000000000000000000000000E1
:103FE000524B44382F21180F91B464E6E678B4643C
:0E3FF000070F1F0D080E000605030408090A3E
:00000001FF
