:1000000002245AE515C36001D32222023C7C9000F1
:1000100041EFF0AB10AA11A91212053C6401600A6D
:100020007F011230947F0112283122023B1DD2073A
:10003000123B8F7B007A007924122DEAE4FDAF2475
:100040001234F6122831C207023B8F02340A02042E
:100050000FE86480F8E933E83360110460F0ED33B1
:10006000EC337009E8FCE9FDEAFEEBFF220460DEF8
:10007000D3EB9FEA9EE99DE8C2E78CF0C2F795F0CA
:10008000400CE8CCF8E9CDF9EACEFAEBCFFB12034D
:10009000DA85D0F05804700320D5B3E80470075017
:1000A00002B2D502041992D5EC0460F7E4CCC0E0AA
:1000B000C398F8603B94186008400DD0E0FB020341
:1000C000F1E4FBFAC9FC8028E830E406E4C9FBE46B
:1000D000CAFCE830E305E4C9CACBFCE85407601069
:1000E000F8C3E913F9EA13FAEB13FBEC13FCD8F1AC
:1000F00030F52FC3E49CFCEF9BFFEE9AFEED99FDDB
:10010000D0E0FBEF4E4D4C701222DB03020416ECE4
:100110002CFCEF33FFEE33FEED33FDED30E7EB0269
:1001200003F1EF2BFFEE3AFEED39FDD0E0FB50136B
:100130000BBB0003020419ED13FDEE13FEEF13FFDA
:10014000EC13FC0203F1EC4D6011E8497017ED333C
:10015000EC3304600DE4FCFFFEFD22E933E83304D8
:1001600070F802040F1203DA58046009E4CC248109
:100170005006285009020419284003020416C0E062
:10018000EB4A7044B98006D0E0FB020405EF4E70E4
:100190001CBD8008EBFFEAFEE9FD80EBE98DF0A4D1
:1001A000FEE5F002022FE9CDF9EAFEEBFFEF89F060
:1001B000A4FCE5F0CE89F0A42EFFE435F0CD89F063
:1001C000A42DFEE435F08067EF4E7005BD80D7802A
:1001D000C3EF8BF0A4ACF0EE8BF0A42CFCE435F074
:1001E000F8EF8AF0A42CE5F038FCE433CB8DF0A4D2
:1001F0002CFCE5F03BF8EE8AF0A42CFCE5F038F896
:10020000E433CF89F0A42CFCE5F038CF3400CE895C
:10021000F0A42FFFE5F03EFEE433C98DF0A42EFEDE
:10022000E5F039CD8AF0A42FFFE5F03EFEE43DFD78
:1002300033D0E0FB50070BBB000F020419EC2CFC81
:10024000EF33FFEE33FEED33FD0203F1020419EC50
:100250005D046005E85904700302040F1203DA58C4
:100260000460F6EC4860F2EC7004FDFEFF22C8600A
:10027000DB2481C85009C398600250060204169816
:1002800050CAF582E9294B4A7005AB820204057514
:10029000F0007C1A7880C3EF9BEE9AED99400DC375
:1002A000EF9BFFEE9AFEED99FDE842F0DC23ACF007
:1002B000D0E0FFD0E0FED0E0FDAB8220E7101BEBEA
:1002C00060BAEC2CFCEF33FFEE33FEED33FD02039E
:1002D000F1E803F830E705C0F075F000EF2FFFEE0E
:1002E00033FEED33FD40B830E7C280AA74F8CC6429
:1002F00080CCC86480C8F58204604FC3EB9FF5F0E2
:10030000EA9E42F0E99D42F0E89C45F0603C501DB9
:10031000E5825FFFE582D313CB5BCBF42B5582FBE9
:1003200050280ABA002409B9002008801DE5825B24
:10033000FBE582D313CF5FCFF4C3132F5582FF5059
:10034000090EBE00050DBD00010CC3EB9FF5F0EAE0
:100350009E42F0E99D42F0E89C45F06007CC4820C1
:10036000E701B3EC2275F020800E75F01080057562
:10037000F0087D007E007F003392D530D503120750
:1003800050EC334010EF33FFEE33FEED33FDEC3332
:10039000FCD5F0ED22E5F0247EA2D513CC92E7CD7A
:1003A000CEFF22EDD2E7CD33EC3392D52481400647
:1003B000E4FFFEFDFC22FCE4CFCECDCC24E05011C6
:1003C00074FF80EDC3CC13CCCD13CDCE13CECF13A1
:1003D000CF0470F030D5DE020750E9D2E7C933E828
:1003E00033F892D5EDD2E7CD33EC33FC5002B2D5E1
:1003F00022EC30E7100FBF000C0EBE00080DBD0050
:10040000040BEB6014A2D5EB13FCED92E7FD227414
:10041000FFFCFDFEFF22E480F8A2D574FF13FC7DF3
:1004200080E480EFE709F608DFFA8046E709F20882
:10043000DFFA803E88828C83E709F0A3DFFA8032FE
:10044000E309F608DFFA8078E309F208DFFA807042
:1004500088828C83E309F0A3DFFA806489828A832F
:10046000E0A3F608DFFA805889828A83E0A3F208C5
:10047000DFFA804C80D280FA80C680D4806980F216
:100480008033801080A680EA809A80A880DA80E29B
:1004900080CA803389828A83ECFAE493A3C8C58238
:1004A000C8CCC583CCF0A3C8C582C8CCC583CCDF7B
:1004B000E9DEE7800D89828A83E493A3F608DFF9F9
:1004C000ECFAA9F0EDFB2289828A83ECFAE0A3C85A
:1004D000C582C8CCC583CCF0A3C8C582C8CCC583AF
:1004E000CCDFEADEE880DB89828A83E493A3F2082A
:1004F000DFF980CC88F0EF60010E4E60C388F0ED2C
:100500002402B4040050B9F582EB2402B404005074
:10051000AF232345822390047473C2D530F707B20A
:10052000D563F0FF05F030E70CB2D5F4048463F036
:10053000FF05F080018430D502F40422BB01068956
:10054000828A83E0225002E722BBFE02E3228982F4
:100550008A83E49322BB010CE58229F582E5833A84
:10056000F583E0225006E92582F8E622BBFE06E983
:100570002582F8E222E58229F582E5833AF583E4D3
:100580009322BB010689828A83F0225002F722BBA4
:10059000FE01F322EF8DF0A4A8F0CF8CF0A428CEBA
:1005A0008DF0A42EFE22C2D5EC30E709B2D5E4C30B
:1005B0009DFDE49CFCEE30E715B2D5E4C39FFFE45B
:1005C0009EFE120811C3E49DFDE49CFC800312080A
:1005D0001130D507C3E49FFFE49EFE22BB0110E566
:1005E0008229F582E5833AF583E0F5F0A3E0225015
:1005F00009E92582F886F008E622BBFE0AE9258291
:10060000F8E2F5F008E222E5832AF583E993F5F0B4
:10061000A3E99322BB010A89828A83F0E5F0A3F063
:10062000225006F709A7F01922BBFE06F3E5F009F0
:10063000F31922E88FF0A4CC8BF0A42CFCE98EF007
:10064000A42CFC8AF0EDA42CFCEA8EF0A4CDA8F03A
:100650008BF0A42DCC3825F0FDE98FF0A42CCD35FE
:10066000F0FCEB8EF0A4FEA9F0EB8FF0A4CFC5F068
:100670002ECD39FEE43CFCEAA42DCE35F0FDE43C61
:10068000FC2275F008758200EF2FFFEE33FECD33AC
:10069000CDCC33CCC58233C5829BED9AEC99E582F3
:1006A00098400CF582EE9BFEED9AFDEC99FC0FD57F
:1006B000F0D6E4CEFBE4CDFAE4CCF9A88222B8006F
:1006C000C1B90059BA002DEC8BF084CFCECDFCE53A
:1006D000F0CBF97818EF2FFFEE33FEED33FDEC335E
:1006E000FCEB33FB10D703994004EB99FB0FD8E5E3
:1006F000E4F9FA227818EF2FFFEE33FEED33FDEC2C
:1007000033FCC933C910D7059BE99A4007EC9BFC21
:10071000E99AF90FD8E0E4C9FAE4CCFB2275F010AD
:10072000EF2FFFEE33FEED33FDCC33CCC833C810D2
:10073000D7079BEC9AE899400AED9BFDEC9AFCE800
:1007400099F80FD5F0DAE4CDFBE4CCFAE4C8F9224D
:10075000C3E49FFFE49EFEE49DFDE49CFC22EB9F2E
:10076000F5F0EA9E42F0E99D42F0EC6480C86480B6
:100770009845F022EB9FF5F0EA9E42F0E99D42F0A9
:10078000E89C45F022E8600FECC313FCED13FDEE8E
:1007900013FEEF13FFD8F122E493FC740193FD7470
:1007A0000293FE740393FF227401FF3395E0FEFD74
:1007B000FC080808E62FFFF618E63EFEF618E63DB0
:1007C000FDF618E63CFCF622ECF0A3EDF0A3EEF00B
:1007D000A3EFF022A8828583F0D083D0821207EBAA
:1007E0001207EB1207EB1207EBE473E493A3C58344
:1007F000C5F0C583C8C582C8F0A3C583C5F0C5834D
:10080000C8C582C822A42582F582E5F03583F58328
:1008100022BC000BBE0029EF8DF084FFADF022E476
:10082000CCF875F008EF2FFFEE33FEEC33FCEE9DB5
:10083000EC984005FCEE9DFE0FD5F0E9E4CEFD22DC
:10084000EDF8F5F0EE8420D21CFEADF075F008EF67
:100850002FFFED33FD4007985006D5F0F222C398E4
:10086000FD0FD5F0EA22E4F525E5687005123BC2DC
:100870008F25C205123AD88F24900052E06009C338
:10088000940B7480948040069000527404F0C21D52
:100890001228ADB40B004003020A659008A2F828A4
:1008A00028730208DC0208C302098402093A02091B
:1008B000A20209B10209C20209D30209F8020A41DF
:1008C000020A4FE4F568123C094003020A6512353A
:1008D0009B5003020A65123C6A020A65AF24122784
:1008E000B0E5686003020A65AF241228B864014EBF
:1008F0006004E525600A900052E0FF12384A800744
:10090000AD25AF241232AF123C0950057F031228E7
:1009100031AF241228B864044E7010B20C7F093035
:100920000C027F088F63C20612299C123AA4EF7052
:1009300003020A65123ABF020A65D21D7D03120B3B
:1009400077123779E4FDAF251232AF123C09400B24
:100950001228B664014E6003020A657F0412384A09
:100960001228AD64037003020A65300C031234854B
:10097000900053E04440F0E5256003020A65750EDF
:1009800004020A65200D101228B664044E70057F1B
:1009900003122831120B84121A79AF25121769023B
:1009A0000A657D04120B531232AFAD257F05020A92
:1009B000627D04120B67120B967F061238227F04A9
:1009C00080317D05120B67120B967F071238227F4C
:1009D0000580207D06E4FF123265120B84E4FD7F62
:1009E000041238221228B664014E70057F031228C3
:1009F000317F06123BEE806D7D07E4FF123265AF5A
:100A000024EF3395E0FE1237791228B664014E6068
:100A10000DAF241228B864024E600330030A7F042D
:100A2000300C027F021228311228B664034E600A8D
:100A3000AF241228B864034E702B7F09122831802E
:100A4000247D09120B53123639AD257F0A80137DA0
:100A50000A120B77123779AD24AF25123639AD253E
:100A60007F091238221228EF5003301E0C90004AE2
:100A7000E4F0A37432F0020B28AF0EEF1228F4401A
:100A800002806D1228AD24F6600304705EE51C142C
:100A900060171460201460292403702E1239AE9060
:100AA000004AEEF0A3EFF0802190004A7427F0A3F3
:100AB0007410F0801590004A7413F0A37488F080CD
:100AC0000990004AE4F0A3746EF01228ADFF7E0096
:100AD0006409700920100690004AF0A3F0EF640A40
:100AE0004E7045122A0FEF703F80061237F85009FA
:100AF000E490004AF0A3F0802F1228AD6402701D2C
:100B0000C3E50D9509E5086480F8E50C648098500C
:100B100006AE0CAF0D8009AE08AF0980031239AEE6
:100B200090004AEEF0A3EFF0D205123AD830160446
:100B3000E525700F900050E0FF3395E0FEEF64185C
:100B40004E700FC216900050E004F01228ADFF1254
:100B50003094227F01123265AF24EF3395E0FE120C
:100B60003779AD24AF2522E4FF123265AF24EF338D
:100B700095E0FE123779227F01123265AF24EF3300
:100B800095E0FE22AF24EF3395E0FE123779AD24D5
:100B9000AF251232AF22AD24AF251232AFAD2522E0
:100BA0008F2712053CFF14601514602814603D1453
:100BB000603A2404705C1222881222CF802912220B
:100BC00088F5827401F52C85822DE582F4F5827515
:100BD0002E008013122288F4F582752C0085822D58
:100BE000EDF5827401F52E85822F8026ED1222CF3D
:100BF00085822FEDF5827401F528858229EF640442
:100C00007007EDFF7401FE8005EDF4FF7E008E2A73
:100C10008F2B9000011205557007EDFF7401FE80C7
:100C200005EDF4FF7E008E308F31900002120555E5
:100C30007007EDFF7401FE8005EDF4FF7E00E527EF
:100C4000147003020CDC147003020D5F14700302B5
:100C50000DE224036003020E6CE528AB9A30E00637
:100C6000E5294BFD8004E5295BFD8D9AE52A30E0FE
:100C70000890F0091222EF800690F0091222F690F7
:100C8000F009EDF0E52C30E0051222DF800690F04F
:100C90000A1222FD90F00AEDF0E52E30E005122256
:100CA000E7800690F00B12230490F00BEDF0EE308D
:100CB000E005122313800890F00CE0FBEF5BFD9041
:100CC000F00CEDF0E53030E00512230B800690F0DB
:100CD0000D12231AAF0590F00DEDF022E528ABA11F
:100CE00030E006E5294BFD8004E5295BFD8DA1E59B
:100CF0002A30E00890F0191222EF800690F01912C5
:100D000022F690F019EDF0E52C30E0051222DF809C
:100D10000690F01A1222FD90F01AEDF0E52E30E068
:100D2000051222E7800690F01B12230490F01BEDC1
:100D3000F0EE30E005122313800890F01CE0FBEF8A
:100D40005BFD90F01CEDF0E53030E00512230B80E8
:100D50000690F01D12231AAF0590F01DEDF022E56C
:100D600028ABA230E006E5294BFD8004E5295BFDB8
:100D70008DA2E52A30E00890F0291222EF8006903B
:100D8000F0291222F690F029EDF0E52C30E0051262
:100D900022DF800690F02A1222FD90F02AEDF0E585
:100DA0002E30E0051222E7800690F02B12230490EB
:100DB000F02BEDF0EE30E005122313800890F02CBC
:100DC000E0FBEF5BFD90F02CEDF0E53030E005123C
:100DD000230B800690F02D12231AAF0590F02DED15
:100DE000F022E528ABA330E006E5294BFD8004E5C1
:100DF000295BFD8DA3E52A30E00890F0391222EF3F
:100E0000800690F0391222F690F039EDF0E52C30A2
:100E1000E0051222DF800690F03A1222FD90F03AAF
:100E2000EDF0E52E30E0051222E7800690F03B124F
:100E3000230490F03BEDF0EE30E008A3E0FDEF4D31
:100E4000FF800890F03CE0FDEF5DFF90F03CEFF09C
:100E5000E53030E009A3E0FDE5314DFF800990F079
:100E60003DE0FDE5315DFF90F03DEFF0227524009F
:100E700075254078007C007D017BFF7A3E796F7E8E
:100E8000007F141204F4E4FFFE7DB07C40AB55AA51
:100E900054A953A8521202EC500302107E122DB92D
:100EA000600302107ED2051238BED2847F057E0018
:100EB00012206A123C827F667E667D867C40AB4D46
:100EC000AA4CA94BA84A1202EC6002500DE5251568
:100ED0002570021524122DC250D2E5254524700735
:100EE000C2847F0102107B752400752564C2847F53
:100EF000147E0012206AC2051238BE123C827F0A9C
:100F00007E0012206A752600752704122DB2C333A5
:100F1000CE33CED8F924FCF58274FF3EF583122D32
:100F200085C004C005C006C007122DB2C333CE333E
:100F3000CED8F9122DDAD007D006D005D00412078A
:100F4000C8E527152770021526E527452670BCAF92
:100F50004DAE4CAD4BAC4A9000001207C890001447
:100F60001207D400000000E4F526F527122D82C0F8
:100F700004C005C006C007122DB2C333CE33CED88D
:100F8000F9122D91D007D006D005D004120055904B
:100F900000141207C80527E52770020526640545D9
:100FA0002670C9122D8279A07840122DE490001489
:100FB0001207C89000181207D400000000E4F526BC
:100FC000F527900018122D85C004C005C006C00783
:100FD000122DB2C333CE33CED8F9122D91122D82F9
:100FE000120051E4FBFAF9F81202EC500F122DB284
:100FF000C333CE33CED8F9122D91801A122DB2C33D
:1010000033CE33CED8F9122DDA122D85E4FBFA79DE
:101010008078BF122DCE122D82120051AB07AA0686
:10102000A905A804D007D006D005D0041200559019
:1010300000181207C80527E5277002052664054534
:10104000266003020FC2C3E525945D122DC750131D
:10105000E4FFFEFD7C3F900018122D9A1202EC6016
:10106000025010E525152570021524122DC24003EB
:10107000020EFBE525452470057F0212000E228E2C
:101080002C8F2D8D2E90F692E030E708E4FFFEFDC8
:101090007C40800312297F12296DAC2CAD2DEC12FF
:1010A000036AC004C005C006C007E4FBFA79807873
:1010B00045AF36AE35AD34AC3312024FD003D0025B
:1010C000D001D0001201468F3A8E398D388C37E529
:1010D0002E605924FA700302116424FE7003021179
:1010E000BE24FB70030211E924EE60142411600396
:1010F00002122A853A5D85395C85385B85375A222C
:10110000AC2CAD2DEC12036AA804A905AA06AB0706
:101110007F9A7E997D997C4512024F8F328E318D58
:10112000308C2F8F598E588D578C562275323575CD
:1011300031487530031229548F558E548D538C527B
:10114000900054E0FC12036FA804A905AA06AB079F
:10115000AF55AE54AD53AC5212024F8F518E508DDD
:101160004F8C4E2275322D7531A6753033122954AD
:101170008F4D8E4C8D4B8C4AAB55AA54A953A85217
:1011800012024FE4FBFA79C878421201468F328E80
:10119000318D308C2F1203A38F60EF3395E0FED397
:1011A000EF9464EE648094804003756064AF60EFF8
:1011B0003395E0C3648094805070E4F56022122976
:1011C0004B12297F120051C004C005C006C0077D24
:1011D00048122946120146D003D002D001D0001295
:1011E000296A1203A38E5E8F5F12294B12297F1288
:1011F0000051C004C005C006C0077DA512294612D3
:101200000146D003D002D001D00012296AE4FBFAD3
:10121000797A784412014612296D1203A37B007A71
:10122000007961121C578E488F4922AF1BEF33950E
:10123000E0FEC3EF9404EE648094805007E4F5244C
:10124000F525800A90004AE0F524A3E0F525122D4B
:1012500018900055E0FCA3E0FDC39FEE6480F8EC1D
:101260006480985004AE04AF05D3E5259FEE6480FA
:10127000F8E52464809840048E248F25900048E08F
:10128000FEA3E0FF65257003EE652470030213AF33
:10129000D3E5259400E524648094805003021392E2
:1012A000E5259FFFE5249EFED3EF9470EE648094C5
:1012B000974002D214E568706A301467900048E0E5
:1012C0007002A3E0700C9000487405F0A374DCF089
:1012D0008038122DB924F66013047020900049E084
:1012E00024B8F0900048E0340BF0801E900049E0F4
:1012F00024F4F0900048E03401F0800E900049E0C2
:101300002414F0900048E03400F0C3900049E095C8
:1013100025E5246480F8900048E0648098400EC27F
:10132000148003900048E524F0A3E525F0D3900055
:1013300049E09478900048E0648094804003D38032
:1013400001C39205201526A2059281D284D33005CF
:1013500001C39283A2059285122DB964097005FE1E
:101360007F0280047E007F0A12206AD215E4FFFE0D
:101370003005067DC07C3F80047DFA7C43900048A8
:10138000E0F52AA3E0F52B121D449000441207C893
:10139000801BC2849000441207D400000000C215D4
:1013A000C281C283C285E4900048F0A3F0D211222A
:1013B00090001EE014B40900400302150A9013CBFC
:1013C00075F003A4C58325F0C583730213E60214E8
:1013D000000214A90214AF0214BD0214C30214DBEC
:1013E0000214E20214F990001CE07002A3E0600312
:1013F00002150A90001CF0A3740EF0A37402F022F0
:1014000090001CE0FEA3E0FFD3940CEE6480948077
:1014100040057563038023D3EF940AEE64809480C3
:1014200040057563028013D3EF9408EE64809480C6
:1014300040057563018003E4F563D3EF9400EE6427
:10144000809480400302150AAF55AE54AD53AC52A0
:1014500090002C1207C8900054E0FF3395E0FEEF97
:1014600064024E701790002C122BF4FFE4FBFA7903
:1014700020784112014690002C1207C890002C12CF
:101480002BF4FF1203A3AB07AA067C007D641205B0
:10149000A6EF4E600575630980587C007D0AAF0396
:1014A000AE021205A67D03802F7D047F018030905F
:1014B000002C122BF4FF122C277D05801B7D067F4C
:1014C00002801CE4FFFE7D207C4190002C122BDF6B
:1014D000120146122C277D070236F47D087F030295
:1014E000303C122C175023122BFF7F0C60027F0020
:1014F0008F1D90001E7409F022E51D6003023A0C56
:10150000123AA4EF700490001EF02220020A123654
:1015100029A3F0A3F0C2042220150D1236221205D1
:101520003C64096003021641123B46AB07AA06D38E
:10153000E5499BEA12360A50030215E6E5499BF598
:1015400025E5489AF524756518D3E5259402E52428
:1015500064809480407C9000487C087DFC12361AA0
:10156000EF2401FBE43EFAD3E549943AE548648070
:101570009480400F7C007D05AF03AE02120594AA53
:1015800006AB07AC24AD25AF03AE02120594900064
:101590004FE02FF090004EE03EF0900056E0243CEB
:1015A000FF900055E034F6FED390004FE09FEE64CC
:1015B00080F890004EE06480984014900056E0243B
:1015C0003CFE900055E034F690004EF0A3CEF0754E
:1015D000653C12363194FD5068A3E004F07006902B
:1015E000004CE004F022C3E5499BEA12360A505150
:1015F000C3EB9549F525EA9548F524E565600415A2
:10160000658024E525547E600FC390004FE095254A
:10161000F090004EE09524F0C390004EE06480947A
:10162000805004E4F0A3F0D390004DE09400123613
:10163000329403400CA3E024FFF090004CE034FF10
:10164000F022900027E0C39428748094805069E4CD
:10165000FFFE7D7A7C44AB51AA50A94FA84E1201DF
:10166000461203A38F278E268D258C24900027E019
:1016700004F0122BF12527FFEE3526FEED3525FD72
:10168000EC3524FC9000231207C8122C08C3122C3E
:1016900036500A90001FE526F0A3E527F0900021C0
:1016A000122C0BD3122C365003021732900021E576
:1016B00026F0A3E527F0807A122BF1FFC004C005C5
:1016C000C006C007900021E0FEA3E0FBAA06EA33B3
:1016D00095E0F9F8122C08EF2BFBEE3AFAED39F908
:1016E000EC38F8D007D006D005D004C3EF9BFFEE4E
:1016F0009AFEED99FDEC98FC122BEBFFC006C0079B
:10170000A3E024FEFFE434FFAB07FA3395E0F9F8D9
:10171000D007D006123384122BEBFFEC120365E4E2
:10172000FBFA797A784412024F9000281207C81207
:10173000394BAF1EEF3395E0FEEF64784E700575C0
:101740001E018006E51E6002051E90001CE070026E
:10175000A3E0600E90001DE024FFF090001CE03438
:10176000FFF0E51D6002151D228F26123C61400529
:101770001200035003D38001C39205122902FFAE69
:10178000F0C3E50D9FEE6480F8E50C648098500A84
:10179000AC0CAD0DAE04AF0580008E278F2812294A
:1017A00008FFC3E5289FE5F06480F8E5276480988A
:1017B000500E30050B1229171228D3400312291E90
:1017C000200D0EAF261228B864014E703FD20D8056
:1017D0003B300B0A0509E509700C05088008E5098E
:1017E0001509700215081228BF5006D20B8E088FFB
:1017F000091229161228D34005C20B12291EE5260C
:101800007005123BFC5005C20D750F1E12000350EF
:101810001F200A1C1229161228D3500A0509E509AF
:10182000703805088034750E0412291ED20A802AE9
:10183000123C61501D200A1A1228BF400AE5091502
:1018400009700215088013750E048E088F09D20ADC
:101850008008200505300A02C20A300504E4F50FAD
:1018600022AF0F1228B864204E7007050FC206126F
:10187000299C22C206C207AF63C3EF940774809409
:101880008050141232F85008D21DD207D2068007B9
:101890001239065002D20630060302196BE563B412
:1018A0000A00400302196D9018AEF8282873021838
:1018B000CC0218DE0218D20218D90218E30218E38B
:1018C00002196D02191D02191D02191DE4F56202AB
:1018D000196DD206D20702196DD20702196DD20610
:1018E00002196DE562547FFFAE63EE64047E007002
:1018F000027E03C3EE6480F8EF64809850090F53B2
:101900006280EF4262800B123C397F8060027F0070
:101910008F62123C39C36001D39206805053627FBC
:10192000AF63EF64096007AF63EF640870047F067C
:1019300080027F0AD3EF6480F8E5626480984005F6
:10194000E4F5638028E56275F00212051AAFF0EF46
:10195000C36001D39205AF63EF64087006A20592DD
:10196000078004A205920605628002C2061234BEF8
:10197000A2069208A207920902396D201506E4908A
:101980000043F022900043E0FF3395E0FEC3EF9464
:1019900004EE648094805004E004F022900042E061
:1019A000540FF5247D9012389960054003D38001CF
:1019B000C392057FCD7ECC7D8C7C40AB51AA50A9D3
:1019C0004FA84E1202EC600740057F0412000E7F04
:1019D000667E667D0612389C400F7F9A7E997D99BF
:1019E0007C401238B3600C400A7D021238ABE4F53B
:1019F000258049E4FFFE7D807C3E1238B340097D9E
:101A0000F0123899600A40081238A9752501802C17
:101A1000A21A300501B350081238A9752502801C9E
:101A2000AF24EF3395E0FED3EF9400EE6480948012
:101A30004006E52414FF80027F008F24E525C4546E
:101A4000F04524900042F0AF24EF3395E0FEC3EF61
:101A50009408EE64809480401FE0FF7804A2E713AE
:101A6000D8FB540F24FE60070470087F0580067FB2
:101A70000980027F0312000E22301803021B0B3074
:101A80001903021B0BE4900059F0E51C6003021BD4
:101A9000691235ECFFAEF0C31235F8506890005A69
:101AA000E0FD700404F08013ED3395E0FCC3ED9489
:101AB00009EC648094805003021B6990005A740101
:101AC000F09000051205DCFDACF0D3E50B9DEC6455
:101AD00080F8E50A64809840068C0A8D0B800B74B0
:101AE00032250BF50BE4350AF50AD31235F8400917
:101AF0001235ECF50D85F00C2274FA250DF50DE488
:101B0000350CF50C22E490005AF022E490005AF0D3
:101B1000123C7330190F1235D09404EE6480948017
:101B20004003023A861235D0940AEE6480948040D5
:101B300038D3E50D94EEE50C64809482400C740675
:101B4000250DF50D74FF350CF50CD3E50B94BEE5B2
:101B50000A6480948A400C74E7250BF50B74FF35FA
:101B60000AF50A9000597401F022E54764037002F7
:101B7000F547E54714603E147003021C0714700318
:101B8000021C4724036003021C44D205123B08E4F4
:101B9000F52B122925501BEF3395E0FE74952FF598
:101BA00082743E3EF583E493FD12293BEDF0052B54
:101BB00080E0021C3FE4F52B122925501D12293626
:101BC000E0FF122988400F122992400EEF941FEE79
:101BD000648094805004052B80DE12292550231246
:101BE0002936E0F52AFF3395E0FE4F6006EF6406E4
:101BF0004E7005C205123B08AF2A123183754702A9
:101C000080457547038040752F0075300075312A77
:101C10007B007A0079281221D3EF4E602AAD2AAFDB
:101C200029AE2812107FE4F52B1229255011122914
:101C300036E0B52A0612293B74FEF0052B80EA75C2
:101C400047018003E4F54790003EE06009E5476402
:101C5000036003021B6A228B3B8A3C893D8F418EC5
:101C6000408D3F8C3E7FBE7E2D7D197C00D3123788
:101C7000C340081237B17EFF7FE822E47F427E1620
:101C8000C31237A450071237B1FE7F6422740112C9
:101C900037B2E47FF57EF5D31237A4403DE4F54238
:101CA0001237BBC3EF943BEE64809480502CEF78E6
:101CB00002C333CE33CED8F92487F582743C3EF587
:101CC00083120798C31237C3400C1237BBEF24E8C6
:101CD000FFEE34FFFE22054280C6E4F5421237BB18
:101CE000C3EF9447EE648094805053EF25E0FFEEFD
:101CF00033FE74732FF582743D3EF583E493FE74D6
:101D00000193FFE48F468E45F544F543E546F546DD
:101D1000E545F545E4F544F543AF41AE40AD3FAC94
:101D20003EAB46AA45A944A843D3120774500B12F0
:101D300037BBEF2423FFE43EFE220542809F12378B
:101D4000B1FEFF228F298E288D278C26AB10AA1179
:101D5000A912900009120555F53012053C64027075
:101D60000FAE2AAF2BFC7DCD1205A6EF2530F53046
:101D7000AC2AAD2BEC12036AAB29AA28A927A82606
:101D8000122DA6797A7844122DE4122DA97B9D7A22
:101D900069795C783C12024F122DA9AB2FAA2EA9AB
:101DA0002DA82CC000C001C002C003AC30EC12034F
:101DB0006FE4FBFA79C8784212024FD003D002D008
:101DC00001D000122DA6C004C005C006C007E4FF64
:101DD000FE7D7A7C44AB59AA58A957A856122DCE3D
:101DE000D007D006D005D00412024F122DA9E4FB73
:101DF000FA79C87842122DA6E4FFFE7DC87C42AB7A
:101E00002FAA2EA92DA82C1202EC600A4008E4FF8C
:101E1000FE7DC87C4222AF2FAE2EAD2DAC2C2212FF
:101E20003C82855E24855F25D3E5259464E52464A2
:101E30008094804010749C2525F52574FF3524F589
:101E400024C21B8002D21BE4FBFA74832BF582743C
:101E50003E3AF583E493FF7E002404FDEE33FCD389
:101E6000E5259DEC6480F8E524648098506DEF24AE
:101E7000FCFFEE34FFFEC3E5259FEE6480F8E52409
:101E80006480984056748B2BF582743E3AF583E457
:101E900093FF7E007C007D64120594900055EEF067
:101EA000A3123C168005C333CE33CED8F9FF903E43
:101EB00094E493FDEF5D7F0260027F039000541273
:101EC0003C168005C333CE33CED8F9FF903E93E461
:101ED00093FDEF5DC36001D3921A220BBB00010A90
:101EE000EB64084A6003021E4A7F0812000E22E4D7
:101EF000F524F525F526FB7A0079247D047F02126E
:101F00000BA07F01121F907B007A0079247D01E4F1
:101F1000FF120BA07F03121F907524027D04121F75
:101F20009C7D02121FA87D027F02122A827D01126F
:101F30001FA87D037F01122A827B01E4FDFF122A84
:101F400082752403752601E4FBFD7F03122A827D3E
:101F500001121F9CD206E4FD7F03121FB275DF4001
:101F600075DE60E4F5E9F5D1F5D375D50F75D4FFCD
:101F700090F69274A0F0E4F5479000361207D40072
:101F8000000000122976F0A3F0A304F043DE8022C3
:101F90007B007A0079247D02120BA0227B007A005C
:101FA00079247F03120BA0227B017F03122A827BFC
:101FB0000122EF14603814605F1470030220422481
:101FC0000360030220691222B24003022069300636
:101FD0000EA8057401088002C333D8FC428022A8F1
:101FE000057401088002C333D8FCF4528022122207
:101FF0009D50761222A9407130060EA80574010882
:102000008002C333D8FC429022A8057401088002E4
:10201000C333D8FCF452902212227C504C1222BBC3
:10202000404730060EA8057401088002C333D8FC6F
:1020300042A022A8057401088002C333D8FCF452E0
:10204000A022ED122280502130060EA8057401084E
:102050008002C333D8FC42B022AF05A80774010840
:102060008002C333D8FCF452B0228E288F29E4F5C5
:102070002EF52FE5294528700302211F052FE52F96
:102080007002052EAE28AF29EE3395E0FDFCE47B0F
:10209000A07A0FF9F81206338F2D8E2C8D2B8C2AF7
:1020A000C006C007AE2EAF2FAB07AA06EA3395E0F5
:1020B000F9F8D007D0061206BE8F2D8E2C8D2B8CF2
:1020C0002AE47FFF7EFFFDFCAB2DAA2CA92BA82ABA
:1020D000C312077450A6C374FF952DF52D74FF9598
:1020E0002CF52CE4952BF52BE4952AF52AAF2DAE93
:1020F0002CAD2BAC2A78081207858F8CE52DFF8F2D
:102100008AC20E438810E58820E503300EF8538814
:10211000CFE52F152F7002152EE52F452E70CE22FC
:102120002011030221D230131E90F129E030E00388
:102130000221D290F164E030120554FEF080034495
:1021400001F0C211C213227DC87C42123B6B120205
:10215000EC600C400A9000441207D442C80000E42E
:10216000FFFEFDFC123B6E1202EC500A900044127E
:1021700007D400000000AF27AE26AD25AC24EC4DFF
:102180004E4FC36001D392127DFA7C45123B6B1215
:102190000146E4FBFA798078BF1200558F278E261E
:1021A0008D258C24E4FBFA79C8784212024F8F27E0
:1021B0008E268D258C241203A3AD07AC06ECFFEF11
:1021C00090F141F0ED90F140F0D21390F129E0440C
:1021D00001F0228B2C8A2D892EE5DF30E102805020
:1021E00090003BE004F0700690003AE004F09000AC
:1021F00036E0F8A3E0F9A3E0FAA3E0FBAFDDEFFEE1
:10220000ADDCEDFFEE3395E0FDFCEB2FFFEA3EFE8B
:10221000E93DFDE83CFC9000361207C8C390003B46
:10222000E0940A90003AE064809480500743DF0213
:10223000E4FEFF22900036E0FCA3E0FDA3E0FEA355
:10224000E0FFE47B0AFAF9F81233849000361207B3
:10225000C8900036A3A3E0FFA3E0AB2CAA2DA92EC3
:10226000CF8FF012061490003CE0AB2FAA30A931BA
:10227000120582E490003DF0FE7F0122EDFF7E001A
:10228000D394067480948022EDF4F58275830085E2
:10229000832885822985832A85822BED22EDFF7E86
:1022A00000D394077480948022C3EF9403748094C5
:1022B0008022EDD394057480948022C3EF9401743E
:1022C00080948022FBE434F0FAA80574010822F41B
:1022D000F58275830085832C85822D85832E22A32C
:1022E000E0FBE52D4BFD22A3E0FBE52F4BFD22E0BB
:1022F000FBE52B4BFD22E0FBE52B5BFD22E0FBE544
:102300002D5BFD22E0FBE52F5BFD22A3E0FBE53129
:102310004BFD22A3E0FBEF4BFD22E0FBE5315BFD33
:10232000227D087F02123721404490005BE025E0C7
:10233000F030A303E004F090005BE0F524AF24EF5D
:10234000F46003EF7028123B32E4F5B6AF24FEEFE1
:10235000F4D37001C3921CEFF44E7B0170027B0238
:102360007D037F02122FE17D087F02123A4A301C62
:1023700008E51430E703751480E5687F8270027FFA
:10238000858F24301C21E513B5241CAF16EF33953F
:10239000E0123C2E4005123BD28009E4F516751878
:1023A00001751501E4F513201C13E5146484700D08
:1023B000F514E515700475170122E4F51522122BAA
:1023C000FF64027008850A24850B25800B900005A8
:1023D0001205DCF52585F024E4FFFE7D7A7C4412AD
:1023E0002BDC1201461203A3D3EF948CEE6480948D
:1023F0008A40028001D39219301904C218802AAD94
:1024000060ED3395E0FCD3ED944BEC648094804018
:1024100004D2188014D3EF9525E5246480F8EE6487
:10242000809840028001D39218122C41AF63D3EF01
:102430009406748094805021900041E06003022B48
:102440006590001EE060030213B0122BFF7004E5DC
:102450001D6003023A0CE4F5632278FFE4F6D8FD30
:102460009000007F007E04E4F0A3DFFCDEFA7581BB
:10247000680224AF02272BE493A3F8E493A340035C
:10248000F68001F208DFF48029E493A3F8540724CE
:102490000CC8C333C4540F4420C8834004F456808E
:1024A0000146F6DFE4800B01020408102040809012
:1024B00036C7E47E019360BCA3FF543F30E5095466
:1024C0001FFEE493A360010ECF54C025E060A84036
:1024D000B8E493A3FAE493A3F8E493A3C8C582C82D
:1024E000CAC583CAF0A3C8C582C8CAC583CADFE902
:1024F000DEE780BEEF14602214603C1460562403B3
:1025000070741222B24002806DED24801222C480C9
:1025100002C333D8FC55ACFC806012229D500512DA
:1025200022A950028050ED24881222C48002C333B5
:10253000D8FC55ADFC804312227C50051222BB50C2
:10254000028033ED24901222C48002C333D8FC559C
:10255000AEFC8026ED1222804002801AED2498FB0A
:10256000E434F0FAAF05A8077401088002C333D839
:10257000FC55AFFC8004E4FEFF22EC7003FEFF225A
:102580008B828A83E05403FF7E0022E4F5DE90F61E
:1025900092F090003E04F0E4F547FFEFFD3395E044
:1025A000FCC3ED9406EC648094805015EF3395E005
:1025B000FC74302DF58274003CF58374FEF00F80BE
:1025C000DA9000361207D400000000122976F0A33A
:1025D000F0FB7D037F01122A82E4FBFDFF122A82B9
:1025E000752403E4F525F526FB7A0079247D027F26
:1025F00001120BA07B007A0079247D01E4FF120B0D
:10260000A0C206E4FDFF121FB2C2067D037F0112C5
:102610001FB2C206E4FD7F03021FB2752403E4F576
:1026200025752601C2067D02FF121FB27B007A00CB
:1026300079247D04E4FF120BA07B127D02E4FF12DB
:102640002A8290F120E4F0A3740DF090F12374013C
:10265000F090F12A74FFF090F122E4F090F12774E9
:102660000DF0A3F090F160E4F090F165F090F1646A
:10267000740DF090F131741FF090F130743FF090D0
:10268000F141E4F090F140F09000441207D40000D2
:102690000000C213C21190F166E4F090F126740DAF
:1026A000F0023BE0E56170057F0602000EA2039296
:1026B00006752446752535123A2B9203A200920620
:1026C00075243F752535123A2B9200A201920675AA
:1026D0002450752528123A2B92013001077F0712EA
:1026E000000E800B900041E064077003123C6A12F8
:1026F00036229000081205557003C20222123B4692
:102700008F24A202920675252D123A2B92053005D0
:1027100003D2022220051390004EE07002A3E07065
:102720000912363194805002C20222123B59D2065D
:102730001238721230E9121EEF121E1F12000A1216
:10274000261B122CAD122F8312333F12002E120EB5
:102750006D122F1EE490003EF0D2AF123C82122385
:1027600021123C861223BE1208661226A412122BD6
:10277000122120300FE5C20F12150B123448123C03
:1027800085121642123B7D12356512352E122E52DD
:102790001233C8122AF4AF1BEF3395E0FEC3EF9457
:1027A00003EE6480948040B312187312197B80ABDF
:1027B0008F26C21EE5681460201460391460362428
:1027C00003706D12376664054E7003123BA012371A
:1027D0006664064E705A023BB112376664054E704D
:1027E00003023BA01200035003D21E22123BFC50F6
:1027F0003F7563072212376664064E7003123BB1C1
:1028000012376664024E7014E568640270087568D9
:10281000037563088006756802756309120003502A
:102820000FE56864037F0270027F03E4FD1232AF9C
:10283000228F291228ADF52D122908F52C85F02BB1
:10284000E4F52AAF2A12290E940BEE64809480508E
:102850005B903E0175F00AEF120805EE1228E46560
:10286000297045123C4DAF2AEF3395E0FE7C007D88
:102870000A12059474012FF9743E3E7510FFF5118C
:102880008912E52D6408700DE52964086007AF2CF6
:10289000AE2B1231CFE52D700AE5296006FF12300C
:1028A000948005E4900050F0052A809722AB10AA8E
:1028B00011A91202053CAF25EF3395E0FEEF22ABE4
:1028C00010AA11A9129000031205DCFFAEF0D3E5A7
:1028D000099FEE6480F8E5086480982275F00AED9F
:1028E000120805EC75F00AA42583F583E493229081
:1028F0000051E0FF3395E0FED3EF9400EE64809446
:102900008022AB10AA11A9129000010205DCEF335E
:1029100095E0FEC3EF22C3E5099528E52722852728
:102920000885280922AF2BEF3395E0FEC3EF94060C
:10293000EE6480948022EF3395E0FE74302FF582B0
:1029400074003EF58322E4FFFE7C43AB3AAA39A92A
:1029500038A83722752F3EAB32AA31A930A82FAF45
:102960003AAE39AD38AC3702024F12024F8F368E75
:10297000358D348C3322E490003AF0A3F0A322AFDB
:1029800059AE58AD57AC56223395E0FEC3648094DF
:102990008022D3EF9416EE6480948022D207123BFB
:1029A0008F200619E4F5291236985011742A25292A
:1029B000F9E4FAFB7F11123669052980EA85082EB1
:1029C00085092F7F00300C027F018F307A00792E2D
:1029D0001236BC12321A8F31200607E531B52D02AE
:1029E00080277B007A00792AE4FDFC7F1D1236697E
:1029F000E4F5291236985011742E2529F9E4FAFBD2
:102A00007F19123669052980EAC207123B8F22908E
:102A10000058E0B407005067902A1FF82828730276
:102A20002A34022A3F022A5D022A63022A73022AFA
:102A30003F022A79E4900057F07D0B7F01803D7FB3
:102A4000021238E250037F0122900058E0640170C6
:102A5000067D077F0280257D237F06801F7D237FE3
:102A60000380197F061238E250037F01227D077F21
:102A70000480097D0B7F058003E4FDFF123C227F6B
:102A80000022EBF5826402606AE58264036064E51B
:102A9000826419605ED3E582941C748094805053E4
:102AA000EF14601414602014602F24037045122268
:102AB000B25040ED2400802A12229D50361222A9E5
:102AC0004031ED2410800D12227C50271222BB4091
:102AD00022ED2420F528EE800CED1222805014ED1A
:102AE0002430F528E434F0F527EB541F852882853F
:102AF0002783F02290001EE0700BAB10AA11A912E0
:102B000012053C6003123B32D3E5679400E566642E
:102B10008094804009E56715677049156622123C6C
:102B2000434003E4F56890F500E4F0C205123A680A
:102B3000438704438702123B59D206123872123976
:102B40008E7F017E0012206A122321300F05C20FF2
:102B5000123448123BFC50E9D205123A68E4900066
:102B60003EF0D2AF2290003FE0FEA3E0FFC3940509
:102B7000EE648094805010C3EF9403EE64809480E0
:102B8000504EEF04F56322900041E0FF7E007C0090
:102B90007D06120594EF2405FFE43EFE90003FE021
:102BA000FCA3E0FDC39FEE6480F8EC6480985020A5
:102BB000ED24FBFFEC34FFFE7C007D031205A67CB8
:102BC000007D021205A6ED4C7004756301228000A1
:102BD000E4F563227D4C7FCD7ECC7C40900028E0E4
:102BE000F8A3E0F9A3E0FAA3E0FB22900023120788
:102BF000C8900023E0FCA3E0FDA3E0FEA3E022AB2D
:102C000010AA11A91202053C90001FE0FEA3E0FFEC
:102C1000EE3395E0FDFC22D390001DE0940090007F
:102C20001CE064809480221203A37C007D0A1205BC
:102C3000A6AE04AF0522AB27AA26A925A824020721
:102C40005EE51C1460181460321460532403705C39
:102C50007D6C122BD61202EC5052751C01227F9A09
:102C60007E997D79122BDA1202EC60054003E4F5BF
:102C70001C122BD41202EC5033802EE4FFFE7D6038
:102C8000122BDA1202EC60054003751C017F9A7E5C
:102C9000997D39122BDA1202EC5011751C032212A5
:102CA0002BD41202EC60054003751C02227524032C
:102CB000E4F525752601F56390F12404F090F12CDC
:102CC00074FFF0A3F090F1357409F090F134745F63
:102CD000F090F1377409F090F136745FF090F126BE
:102CE000E0440CF01234BE90F129E0540C70F8FB73
:102CF0007D10122D0E7B007D20122D0E7B147D0485
:102D00007F02122A827B157D057F02022A827A00C9
:102D100079247F02120BA02220020A90004AE0FED2
:102D2000A3E0FF804A12361390004FE02FFF90007F
:102D30004EE03EFEC3648094805003E4FEFFC390E7
:102D4000004BE09FFF90004AE09EFEC3EF94C4EE6C
:102D5000648094895019A3E0243CFE90004AE0343A
:102D6000F690004EF0A3CEF01236297E097FC49073
:102D7000004AE0B50608A3E0B50703C38001D3927B
:102D80000422900014E0FCA3E0FDA3E0FEA3E0FF1A
:102D9000222400F58274003EF583E0F8A3E0F9A355
:102DA000E0FAA3E0FB221201468F2F8E2E8D2D8C90
:102DB0002C22AE26E527780222AB10AA11A9120216
:102DC000053CD3E5259400E524648094802212011B
:102DD00046A804A905AA06AB07222400F5827400C0
:102DE0003EF58322E4FBFA02024F8B338A348935A5
:102DF0007536027537007B007A007938AD37AC360E
:102E00007F11123669AF38EF3395E0FEC3EF9401BE
:102E1000EE648094804036D3EF940BEE648094800F
:102E200040028029E53814AB33AA34A93512058253
:102E30000537E53770020536C394FCE536648094A7
:102E40008340B3AB33AA34A935E4120582AE36AF62
:102E50003722E568700F300C02800A120003400B25
:102E6000123C614006E4900053F022900053E0FFD2
:102E7000541FF524FD3395E04D7016EF20E612C087
:102E800007123C617E8050027E20D0E04E900053BD
:102E9000F0900053E054E0F0AF2412290E9406EEB7
:102EA000648094805008E020E60405248003E4F563
:102EB00024900053E04524F0227D037F021224F485
:102EC000EF64014E7038C21CE513547FFFE4F51324
:102ED000E5157004E5186007E4F518F5158031EF85
:102EE000C39405502BAF16EF3395E0FEC3EF940A61
:102EF000EE64809480500205167514808012D21CF6
:102F0000E51430E703751480E51320E7037513809B
:102F10007D087F0212392990005B74AAF0221239D1
:102F20004BE490001EF0F524AF24EF3395E0FEC390
:102F3000EF9406EE648094805018123C82AF51AE3C
:102F400050AD4FAC4E9000281207C8122C410524FA
:102F500080D6122BFF702BF524900054E0C36480C0
:102F6000F8E52464809850107F021237CE7FA07E4F
:102F70000012206A052480E17F907E0112206A758C
:102F80001D0C22E4F50EFFEFFD3395E0FCC3ED943C
:102F90000BEC64809480502C903E011228DC64027B
:102FA000701FEF3395E0FC903E061228DCF50A74A2
:102FB0000193F50B903E021228DCF50C740193F599
:102FC0000D0F80C3123136123C4D9000527404F044
:102FD000E4900041F07510FF75113E751201F5681F
:102FE00022EBD31222AB5053EF1460141460201460
:102FF000602F240370451222B25040ED2480802AB5
:1030000012229D50361222A94031ED2488800D12E3
:10301000227C50271222BB4022ED2490F528EE801E
:103020000CED1222805014ED2498F528E434F0F5CC
:1030300027EB5403852882852783F0228F268D274E
:1030400090001CE0B4FF0FA3E0B4FF0A1237CEE4F7
:1030500090001CF0A3F090001CE0FAA3E0FB7C00C1
:103060007D04FFAE021205A6D3ED9401EC648094BA
:10307000807F004002AF268F63D3EB9400EA648028
:103080009480500FE4F56390001CF0A3740AF0A341
:10309000E527F0228F2ED207123B8F7B007A007932
:1030A00031122DEA8E2F8F30AD31AF2E1234F6E56E
:1030B00031B52E02801FE530B4FC10E52FB4030BB0
:1030C000752F027530007F1D1230DBE52E04F532BE
:1030D0007F191230DBC207123B8F227B007A007906
:1030E00032AD30AC2F123669227524037525017577
:1030F0002601C281C284C283C2857D021231247D31
:1031000010E4FF120BA07D081231247D20E4FF1291
:103110000BA0E490004AF0A3F0900048F0A3F0C2A6
:1031200015C214227B007A007924E4FF120BA07BE5
:10313000007A00792422D207123B8FE4F524E5249B
:1031400012369A501174252524F9E4FAFB7F1112E6
:103150003669052480E8C207123B8F7A0079251270
:1031600036BC12321AEFB5280F852508852609E5E9
:1031700027C36001D3920C22123485C20CD20612EE
:10318000299C22AB077AFF90003DE07041EB1229A9
:1031900088403B122992400AEF941FEE648094808D
:1031A000402C9000361207D400000000122976EB64
:1031B000F0A37401F0EB30E40543DF80800353DFBC
:1031C0007F53DEF0EB540F42DEDAFE43DF02228E45
:1031D0002E8F2F123622900008120555603B1239AF
:1031E000AEAB07AA0612361390004FE02F90004EA8
:1031F000E03EC364809480C3EB952FFFEA952EFEDA
:1032000090004EF0A3EFF0C3EE648094805007E48A
:1032100090004EF0A3F0123629228B328A33893483
:103220008F388E378D368C35E4F539AB320534E581
:1032300034AA337002053314F912053C62397F0851
:10324000E53930E70825E06407F5398006E53925DA
:10325000E0F539DFEB783574FF1207AAEC4D4E4FDD
:1032600070C9AF39228F268D27123C614004C205F8
:103270008005120003920520191075280A301803E2
:1032800030050AE4900059F08006752802123C735C
:10329000E526700330050B3019141235DC400F029F
:1032A0003A861235DC4007E4F0AF271228312212AB
:1032B000376F40028002AF058F2712376864024ED5
:1032C000701C7F667E667D46123753600940077F1B
:1032D000081228318008900052E0FF12384AAF27C8
:1032E00012376864034E700F12374D600740057F38
:1032F0000902283175630722AB10AA11A912120521
:103300003C700DAF68FEC3EF940274809480500748
:10331000E490005DF0802690005DE004F0E0FD3375
:1033200095E0FCED640E4C7008EF64034E7002D320
:1033300022ED64104C700690005DF0D322C322751C
:103340002401E4F525F526FB7D037F02122A827B0A
:10335000007A0079247D087F02120BA07D087F028D
:10336000123A4A7B027D037F02122FE143B9041215
:103370003B3290005B74FFF0E4F513F514F516F59D
:1033800017F51822C2D5E830E70FB2D5E4C39BFB8E
:10339000E49AFAE499F9E498F8EC30E717B2D51218
:1033A00033BA1206BEE4C39BFBE49AFAE499F9E44B
:1033B00098F880031206BE30D50DE4C39FFFE49E4B
:1033C000FEE49DFDE49CFC22900041E0FF7E007045
:1033D0000590003F8030900040E004F070069000BF
:1033E0003FE004F07C007D06120594EF240FFFE41B
:1033F0003EFEC3900040E09FEE6480F890003FE006
:103400006480984004E4F0A3F022C0E0C0F0C083E0
:10341000C082C0D075D000C000C001C002C003C0CF
:1034200004C005C006C007122EB975B600D007D07B
:1034300006D005D004D003D002D001D000D0D0D027
:1034400082D083D0F0D0E032E4FEEEC394027480E8
:103450009480503074132EF8E630E725547FFDEE4B
:10346000700CE5687C0560027C02AF0480027F047A
:10347000EDC39F50010DE65480F674132EF8E64D0F
:10348000F60E80C622750803750920E4FFEFFD33B0
:1034900095E0FCC3ED940BEC64809480501F903E4B
:1034A000011236A964027012EF3395E0FC903E04DD
:1034B0001236A9F508740193F5090F80D0227F0513
:1034C000301D027F0090F145EFF07F78301D027FC4
:1034D000FA90F144EFF07F05301D027F0090F14734
:1034E000EFF07F78301D027FFA90F146EFF090F117
:1034F00029E0440CF022EF64017002FF22E4FEEEAA
:10350000FB3395E0FAC3EB9403EA64809480501D8A
:10351000EE3395E0FA749E2BF582743E3AF583E41F
:1035200093B50706ED7F046001FF0E80D222900064
:1035300050E0FF12290F9418EE648094805003E04D
:1035400004F0AF0F12290E9420EE64809480500294
:10355000050FAF0EEF1228F44002150E1228EF40AF
:1035600003E014F02290005A1235D39400EE6480E8
:103570009480400DEF9409EE648094805003E00441
:10358000F01235D09400EE64809480400DEF940BDF
:10359000EE648094805003E004F022E4FFEFFD33FA
:1035A00095E0FCC3ED9403EC648094805020EF33ED
:1035B00095E0FC749B2DF582743E3CF583E493FE0C
:1035C000900041E0FDEEB50502C3220F80CFD3226B
:1035D000900059E0FF3395E0FED3EF22900059E0D0
:1035E000FFD3E5286480F8EF64809822AB10AA111D
:1035F000A9129000010205DCE50D9FEE6480F8E55C
:103600000C64809822FEE5499FEE6480F8E54864EA
:1036100080982290004C7C007D10E0FEA3E0FF0229
:1036200005A6AB10AA11A91222E490004CF0A3F059
:1036300022C390004CE064802212376F4002800267
:10364000AF058F2612376864024E70082000057F90
:1036500008122831AF2612376864034E700A7F04BF
:10366000300C027F02122831228F39EF6419700565
:1036700012053CF5FEEDF5FCECFFEFF5FD0085399C
:10368000FF000000000000E5FF20E0FBE5396411C9
:103690007005E5FE12058222E529FD3395E0FCC3A5
:1036A000ED9404EC648094802275F00AED12080514
:1036B000EC75F00AA42583F583E493227B007F0355
:1036C0007E007D007C0022C10FC11041005C00C162
:1036D00017C1160119FF011B04C10D410051004122
:1036E000005019C10AC10B4100420041005900417C
:1036F000005A0000122C175027EF4E700774FFF08D
:10370000A3F08017EF7802C333CE33CED8F924FF6D
:10371000FFEE34FF90001CF0A3EFF090001EEDF0E0
:1037200022EF1460111460151460192403701CE555
:10373000AC5D6017D322E5AD5D6010D322E5AE5DD0
:103740006009D322E5AF5D6002D322C3227FCD7E24
:10375000CC7D2C7C40900028E0F8A3E0F9A3E0FAAF
:10376000A3E0FB0202ECAF26EF3395E0FEEF22D39D
:10377000ED6480F8EF648098228E268F27123AA499
:103780001228B864024E7003123ABFE5687008E56B
:103790002764014526700CE56860051200034003AC
:1037A000123A8622FDFCAB41AA40A93FA83E02077F
:1037B00074E4AB3BAA3CA93D020582AF42EF3395CE
:1037C000E0FE22AB41AA40A93FA83E020774EF14D5
:1037D000600A14600D14701FC2088008D208C20964
:1037E0008004D208D20912396D7F147E0012206A3B
:1037F000C208C20912396D22E51C64036005E4F5B4
:103800001E801DE51E7005751E018014AF1EEF336E
:1038100095E0FED3EF9474EE648094804002D3224E
:10382000C322A907900053E0FE5480FB3395E04B80
:10383000700BED3395E0FCED64014C700CEE547FA1
:10384000900053F0AF01122831228F287F9A7E9981
:103850007D39123753600B4009AF28300C027F02CC
:10386000800912374D600740057F030228317563D8
:103870000722E4200606F5C853A8DF22F5CE75CB53
:103880000B75CADB75CD5D75CC6643A820F5C9758F
:10389000CF80751F0475C89122E4FFFE7C40AB4DBC
:1038A000AA4CA94BA84A0202EC7D01AF24123AF0BF
:1038B0008F2422AB5DAA5CA95BA85A0202EC90F1AE
:1038C000417401F07F003005027FFF90F140EFF07E
:1038D000123BE090F164E030120454FEF022440107
:1038E000F022AB07EB3395E0FEEF25E0FDEE33FC75
:1038F000123C571205A6EB14D36480F8ED6480984F
:103900004002D322C32230040690001EE06005E48A
:10391000F56480130564AF64EF3395E0FEEF640C4B
:103920004E7004F564D322C322EF14600F146011AB
:1039300014601324037013EDF452AC22EDF452AD75
:1039400022EDF452AE22EDF452AF2290001F747FAC
:10395000F0A374FEF0A37480F0A37402F0E490006E
:1039600027F09000231207D4000000002290F16499
:10397000E0FF3008055307FB8003430704300905C7
:103980005307F7800343070890F164EFF0227D08A6
:103990007F0212392990005B74AAF0D21CE5143022
:1039A000E703751480E51320E703751380221229BD
:1039B00002FFAEF0900055E0FCA3E0FDD39FEE6463
:1039C00080F8EC648098400122AE04AF0522E4FB4D
:1039D0007D02FF122A82C2067D02E4FF121FB2900E
:1039E000F121E4F090F126F090F123F02290F5001F
:1039F0007409F090F5027419F090F50CE4F090F56C
:103A0000067438F0A37405F075B98022E51C1460C3
:103A10000E14600F1460102403700F756303227579
:103A20006302227563012275630422AF24EF33958C
:103A3000E0D31236054002D322AF25EF3395E0C321
:103A40001236055002C322A20622EF14600E146043
:103A50000F1460102403700FED42AC22ED42AD2232
:103A6000ED42AE22ED42AF2230050F121EEF1226BC
:103A70001B122CAD1230E90239EDC2061238721257
:103A800039CE12258B221228ADFF60179000071245
:103A900005556005900052EFF0E4FF122831E4FF75
:103AA00012309422AF18EF3395E0FEEF24FFFFEEC3
:103AB00034FF123C2E4005E51814FF227F002290AF
:103AC000001EE0701204F0122BFF600BE4F563900F
:103AD000001CF0A37408F022E51860037F0022E5C3
:103AE000177002FF22AF16300505E4F517F5162210
:103AF000EFFB3395E0FAC3EB9408EA6480948050BE
:103B000004EF2DFF227F082253DE7F007F00200577
:103B1000027FA090F692EFF00043DE8022C0E075B5
:103B2000C900151FB210E51F7005751F04D20FD014
:103B3000E032123C4340067E127FC080047E007F4C
:103B4000288E668F672212362212053C64087004A4
:103B5000FE7F37227E007F32225388CF5389F04385
:103B60008901E4F58CF58A75A88222E4FFFE9000B5
:103B700044E0F8A3E0F9A3E0FAA3E0FB22123C57EB
:103B8000D3EF9400EE648094804003E014F0223080
:103B90000707C2AF0075FBAA2275FB5500D2AF2202
:103BA0009000517408F0E5687F0070027F018F6813
:103BB000229000517402F0E5687F0070027F028F4E
:103BC00068222017037F002290005CE0FFE4F0C22F
:103BD0001722E4F514F517F516F515EF04F518227C
:103BE00090F1297401F090F129E020E0F922900091
:103BF00053E030E50654DFF012283122E518600268
:103C0000D322E517C36001D322E51864016002C323
:103C100022E4F518D322EFF0AF037E007401A80769
:103C20000822900057E07005EDF0A3EFF022FED3DC
:103C3000EF9400EE6480948022E5625480FF339517
:103C4000E04F22D3E56894017480948022E49000D0
:103C500058F0900057F022900057E0FF3395E0FEB7
:103C600022E5186402C37001D322E4900041F0FF02
:103C7000022831900059E0700204F0225388EFD2FC
:103C80000E32021B6A222200192DBE001784DA00B0
:103C900015FB0600148DC700133ADA0012002B0042
:103CA00010DBD6000FCC1E000ECF6C000DE44B00D5
:103CB0000D0965000C3D80000B7F7C000ACE500092
:103CC0000A290700098EC30008FEB50008781F0006
:103CD00007FA52000784AE0007169D0006AF970052
:103CE000064F1C0005F4B800059FFE0005508B0030
:103CF0000506020004C00D00047E5D000440A9001A
:103D00000406AC0003D02700039CE100036CA10073
:103D1000033F37000314720002EC280002C62F0094
:103D200002A2630002809F000260C3000242B10051
:103D300002264C00020B7B0001F2230001DA2E0068
:103D400001C3870001AE19000199D2000186A000CD
:103D50000174720001633A000152EA0001437200EB
:103D60000134C8000126DF000119AC00010D250057
:103D7000010141F5F5EB3AE107D755CE1DC558BD18
:103D800000B50EAD7FA64C9F7098E792AC8CBB87B8
:103D90001181AA7C82779772E46E676A1E6606625A
:103DA0001C5E5F5ACB575F541950F84DF84B1A48B8
:103DB0005A45B8433340C83E773C3E3A1D38123628
:103DC0001D343B326D30B22F082D6F2BE62A6C2943
:103DD0000127A42655251323DD22B22193207F1F1E
:103DE000751E751D7E1C901BAC1ACF19FB192E1861
:103DF0006917AA16F3164200000000000000000038
:103E0000000000000000000001006401000000004C
:103E1000000000006403000F00000AF000003204FC
:103E200003E800000B540100450507D000000BB863
:103E3000010056060FA000000BEA010160071F40B9
:103E400000000C1C0101660859D800000C8000011C
:103E50006A0955F0000009C4000169021F4003E827
:103E60000C800001450A2EE0000009C40001690031
:103E70000000000000000000000000000000000042
:103E8000000000524B44382F21180F91B464E6E62D
:103E900078B464070F1F0D080E0006050304080917
:013EA0000A17
:00000001FF
