:10000000022A53AF19EF3395E0FE22023D6F9000B4
:1000100052EFF0AB10AA11A9121205646401600A34
:100020007F011229AF7F01122C1622023C9CEF3374
:1000300095E0FEC3EF9403EE6480948022E51C25D6
:10004000E0F51C90F501E022021C82023800E4FF7A
:10005000FE7C40AB4EAA4DA94CA84B0203147D0177
:10006000AF24123C598F2422AB5EAA5DA95CA85B29
:10007000020314023A3E020437E86480F8E933E8E8
:100080003360110460F0ED33EC337009E8FCE9FDF6
:10009000EAFEEBFF220460DED3EB9FEA9EE99DE8D7
:1000A000C2E78CF0C2F795F0400CE8CCF8E9CDF946
:1000B000EACEFAEBCFFB12040285D0F058047003AD
:1000C00020D5B3E80470075002B2D502044192D59E
:1000D000EC0460F7E4CCC0E0C398F8603B9418608F
:1000E00008400DD0E0FB020419E4FBFAC9FC8028AB
:1000F000E830E406E4C9FBE4CAFCE830E305E4C9FF
:10010000CACBFCE854076010F8C3E913F9EA13FA04
:10011000EB13FBEC13FCD8F130F52FC3E49CFCEFA0
:100120009BFFEE9AFEED99FDD0E0FBEF4E4D4C703B
:100130001222DB0302043EEC2CFCEF33FFEE33FE15
:10014000ED33FDED30E7EB020419EF2BFFEE3AFE45
:10015000ED39FDD0E0FB50130BBB0003020441ED71
:1001600013FDEE13FEEF13FFEC13FC020419EC4D2C
:100170006011E8497017ED33EC3304600DE4FCFFC7
:10018000FEFD22E933E8330470F80204371204025A
:1001900058046009E4CC2481500628500902044127
:1001A00028400302043EC0E0EB4A7044B98006D008
:1001B000E0FB02042DEF4E701CBD8008EBFFEAFE51
:1001C000E9FD80EBE98DF0A4FEE5F0020257E9CDF0
:1001D000F9EAFEEBFFEF89F0A4FCE5F0CE89F0A48C
:1001E0002EFFE435F0CD89F0A42DFEE435F08067D4
:1001F000EF4E7005BD80D780C3EF8BF0A4ACF0EE5E
:100200008BF0A42CFCE435F0F8EF8AF0A42CE5F098
:1002100038FCE433CB8DF0A42CFCE5F03BF8EE8AFF
:10022000F0A42CFCE5F038F8E433CF89F0A42CFCE2
:10023000E5F038CF3400CE89F0A42FFFE5F03EFE84
:10024000E433C98DF0A42EFEE5F039CD8AF0A42F59
:10025000FFE5F03EFEE43DFD33D0E0FB50070BBB75
:10026000000F020441EC2CFCEF33FFEE33FEED33C4
:10027000FD020419020441EC5D046005E8590470B4
:1002800003020437120402580460F6EC4860F2ECF2
:100290007004FDFEFF22C860DB2481C85009C398AA
:1002A0006002500602043E9850CAF582E9294B4A82
:1002B0007005AB8202042D75F0007C1A7880C3EFC4
:1002C0009BEE9AED99400DC3EF9BFFEE9AFEED99E0
:1002D000FDE842F0DC23ACF0D0E0FFD0E0FED0E05F
:1002E000FDAB8220E7101BEB60BAEC2CFCEF33FF78
:1002F000EE33FEED33FD020419E803F830E705C0E4
:10030000F075F000EF2FFFEE33FEED33FD40B83017
:10031000E7C280AA74F8CC6480CCC86480C8F58237
:1003200004604FC3EB9FF5F0EA9E42F0E99D42F076
:10033000E89C45F0603C501DE5825FFFE582D313E9
:10034000CB5BCBF42B5582FB50280ABA002409B9A9
:10035000002008801DE5825BFBE582D313CF5FCFD1
:10036000F4C3132F5582FF50090EBE00050DBD00CA
:10037000010CC3EB9FF5F0EA9E42F0E99D42F0E8E4
:100380009C45F06007CC4820E701B3EC2275F020D3
:10039000800E75F010800575F0087D007E007F00EE
:1003A0003392D530D503120778EC334010EF33FF8A
:1003B000EE33FEED33FDEC33FCD5F0ED22E5F02419
:1003C0007EA2D513CC92E7CDCEFF22EDD2E7CD337E
:1003D000EC3392D524814006E4FFFEFDFC22FCE4D0
:1003E000CFCECDCC24E0501174FF80EDC3CC13CC24
:1003F000CD13CDCE13CECF13CF0470F030D5DE02A7
:100400000778E9D2E7C933E833F892D5EDD2E7CDE2
:1004100033EC33FC5002B2D522EC30E7100FBF00B2
:100420000C0EBE00080DBD00040BEB6014A2D5EB52
:1004300013FCED92E7FD2274FFFCFDFEFF22E48039
:10044000F8A2D574FF13FC7D80E480EFE709F6087D
:10045000DFFA8046E709F208DFFA803E88828C8363
:10046000E709F0A3DFFA8032E309F608DFFA8078C3
:10047000E309F208DFFA807088828C83E309F0A335
:10048000DFFA806489828A83E0A3F608DFFA805865
:1004900089828A83E0A3F208DFFA804C80D280FA56
:1004A00080C680D4806980F28033801080A680EA84
:1004B000809A80A880DA80E280CA803389828A8329
:1004C000ECFAE493A3C8C582C8CCC583CCF0A3C81A
:1004D000C582C8CCC583CCDFE9DEE7800D89828A7E
:1004E00083E493A3F608DFF9ECFAA9F0EDFB228987
:1004F000828A83ECFAE0A3C8C582C8CCC583CCF05D
:10050000A3C8C582C8CCC583CCDFEADEE880DB891E
:10051000828A83E493A3F208DFF980CC88F0EF604D
:10052000010E4E60C388F0ED2402B4040050B9F50A
:1005300082EB2402B4040050AF23234582239004AD
:100540009C73C2D530F707B2D563F0FF05F030E7F2
:100550000CB2D5F4048463F0FF05F080018430D53B
:1005600002F40422BB010689828A83E0225002E75A
:1005700022BBFE02E32289828A83E49322BB010C20
:10058000E58229F582E5833AF583E0225006E925E4
:1005900082F8E622BBFE06E92582F8E222E58229FE
:1005A000F582E5833AF583E49322BB010689828ACA
:1005B00083F0225002F722BBFE01F322EF8DF0A45C
:1005C000A8F0CF8CF0A428CE8DF0A42EFE22C2D5A8
:1005D000EC30E709B2D5E4C39DFDE49CFCEE30E7C6
:1005E00015B2D5E4C39FFFE49EFE120839C3E49D13
:1005F000FDE49CFC800312083930D507C3E49FFF5B
:10060000E49EFE22BB0110E58229F582E5833AF5DE
:1006100083E0F5F0A3E0225009E92582F886F0088E
:10062000E622BBFE0AE92582F8E2F5F008E222E5BF
:10063000832AF583E993F5F0A3E99322BB010A89A4
:10064000828A83F0E5F0A3F0225006F709A7F0199B
:1006500022BBFE06F3E5F009F31922E88FF0A4CCE3
:100660008BF0A42CFCE98EF0A42CFC8AF0EDA42CD9
:10067000FCEA8EF0A4CDA8F08BF0A42DCC3825F0A8
:10068000FDE98FF0A42CCD35F0FCEB8EF0A4FEA993
:10069000F0EB8FF0A4CFC5F02ECD39FEE43CFCEAA0
:1006A000A42DCE35F0FDE43CFC2275F008758200E7
:1006B000EF2FFFEE33FECD33CDCC33CCC58233C527
:1006C000829BED9AEC99E58298400CF582EE9BFEB8
:1006D000ED9AFDEC99FC0FD5F0D6E4CEFBE4CDFA13
:1006E000E4CCF9A88222B800C1B90059BA002DECB7
:1006F0008BF084CFCECDFCE5F0CBF97818EF2FFF4F
:10070000EE33FEED33FDEC33FCEB33FB10D70399F6
:100710004004EB99FB0FD8E5E4F9FA227818EF2FA3
:10072000FFEE33FEED33FDEC33FCC933C910D705C2
:100730009BE99A4007EC9BFCE99AF90FD8E0E4C9E1
:10074000FAE4CCFB2275F010EF2FFFEE33FEED3311
:10075000FDCC33CCC833C810D7079BEC9AE899403E
:100760000AED9BFDEC9AFCE899F80FD5F0DAE4CDA0
:10077000FBE4CCFAE4C8F922C3E49FFFE49EFEE464
:100780009DFDE49CFC22EB9FF5F0EA9E42F0E99D82
:1007900042F0EC6480C864809845F022EB9FF5F04D
:1007A000EA9E42F0E99D42F0E89C45F022E8600FA5
:1007B000ECC313FCED13FDEE13FEEF13FFD8F12293
:1007C000E493FC740193FD740293FE740393FF227F
:1007D0007401FF3395E0FEFDFC080808E62FFFF6E4
:1007E00018E63EFEF618E63DFDF618E63CFCF6225D
:1007F000ECF0A3EDF0A3EEF0A3EFF022A882858346
:10080000F0D083D0821208131208131208131208B2
:1008100013E473E493A3C583C5F0C583C8C582C838
:10082000F0A3C583C5F0C583C8C582C822A42582AC
:10083000F582E5F03583F58322BC000BBE0029EF7D
:100840008DF084FFADF022E4CCF875F008EF2FFFB7
:10085000EE33FEEC33FCEE9DEC984005FCEE9DFE85
:100860000FD5F0E9E4CEFD22EDF8F5F0EE8420D2CC
:100870001CFEADF075F008EF2FFFED33FD4007983B
:100880005006D5F0F222C398FD0FD5F0EA22123DB2
:100890000E8F26123D43920AC20B123B588E248FB4
:1008A00025900045E06009C3940B74809480400655
:1008B0009000457404F01220F1B40B004003020BC9
:1008C000929008C8F82828730209020208E9020A6F
:1008D00093020A2E020AB4020AC8020ADB020AEED6
:1008E000020B15020B49020B6DC204200A03020B16
:1008F000921238735003020B92E4900052F0FF0200
:10090000099DE525640545247011C204D330030117
:10091000C392039000447408F08018300315D3E5A7
:10092000259400E524648094805005123CC6500351
:10093000756406300303020B92E5256406452470B6
:100940000DD3300401C392049000447402F03004CB
:1009500027123D614003020B927F667E667D461240
:100960002083600940072006047F08803012207D24
:10097000603640347F078064E525640145246004C7
:10098000E52660267F9A7E997D391220836010408B
:100990000E3002047F028005900045E0FF803D128A
:1009A000207D60044002803C8050E525640245249F
:1009B000702F30060280437F667E667D461220835C
:1009C000600740057F08020B4412207D6011400F34
:1009D0003002047F028005900045E0FF020B448056
:1009E00019300A057F03020B4412213970121220BC
:1009F0007D600740057F09020B44756406020B9277
:100A0000E525640445247018D3300201C392027FA7
:100A1000082002027F098F64C20C122E98020B92EA
:100A2000123D684003020B92123D58020B927D0367
:100A30007F0112326EAF26EF3395E0FEE4FDFC122B
:100A4000383EE525640145247003123BF1200A0B72
:100A50001220FA64014E6003020B927F9A7E997D08
:100A60003912208360025003020B927F043002028D
:100A70007F02122C161220FA64014E7003020B92B0
:100A800030020312399B900046E04440F0750E049A
:100A9000020B922005131220FA64044E70057F03A6
:100AA000122C16120C55120C77121B7AAF26121A42
:100AB00052020B927D047F0112326E120C55120C01
:100AC00077AD267F05020B8F7D04120C2D120C7F53
:100AD000AD267F061239EF7F0480357D05120C2D7F
:100AE000120C7FAD267F071239EF7F0580227D062D
:100AF000120C41AD25AC2412383EE4FD7F041239BE
:100B0000EF1220FA64014E70057F03122C167F0647
:100B1000123C71807D7D07120C41EF64014E600B29
:100B2000E52564024524600330080A7F0430020290
:100B30007F02122C161220FA64034E60051221392E
:100B400070507F09122C1680497D09120C647008C0
:100B50002006057F08122C16122139700A7F0430F6
:100B600002027F02122C16AD267F0A80227D0A1215
:100B70000C6470082006057F08122C1612213970AB
:100B80000A7F043002027F02122C16AD267F091262
:100B900039EF900044122099400B90005BE4F0A3E1
:100BA0007450F0805FAF0EEF12209B400A74FF90EC
:100BB000005BF0A3F0804D1220F124FE601824F8B1
:100BC000602C047032301008122158FFAEF08021E2
:100BD0007EFF7FFF801BC3E50D9509E50812210B01
:100BE0005006AE0CAF0D8004AE08AF09800312268C
:100BF0004690005BEE80091220A9FF90005BE5F0B3
:100C0000F0A3EFF0D20B123B58301608AF26EF12CC
:100C1000209B5009122122EF64184E700FC21690CB
:100C20000042E004F01220F1FF1229AF22E4FF128B
:100C3000326EAF25AE24123CEBAF26EF3395E0FECB
:100C400022E4FF12326EAF25AE24123CEBAF26EF4A
:100C50003395E0FE22AF25AE24123CEBAF26EF33F6
:100C600095E0FE227F0112326EAF25AE24123CEBDE
:100C7000E5256402452422AD25AC2412383E22AD80
:100C800025AC2412383E228F27120564FF1460150C
:100C900014602814603D14603A2404705C12291614
:100CA00012295D8029122916F5827401F52C85829E
:100CB0002DE582F4F582752E008013122916F4F5C5
:100CC00082752C0085822DEDF5827401F52E8582CA
:100CD0002F8026ED12295D85822FEDF5827401F5B6
:100CE00028858229EF64047007EDFF7401FE8005FA
:100CF000EDF4FF7E008E2A8F2B90000112057D708F
:100D000007EDFF7401FE8005EDF4FF7E008E308F4D
:100D10003190000212057D7007EDFF7401FE800521
:100D2000EDF4FF7E00E527147003020DC314700379
:100D3000020E46147003020EC924036003020F530F
:100D4000E528AB9A30E006E5294BFD8004E5295BF8
:100D5000FD8D9AE52A30E00890F00912297D800681
:100D600090F00912298490F009EDF0E52C30E005AF
:100D700012296D800690F00A12298B90F00AEDF08E
:100D8000E52E30E005122975800690F00B122992AD
:100D900090F00BEDF0EE30E0051229A1800890F004
:100DA0000CE0FBEF5BFD90F00CEDF0E53030E00582
:100DB000122999800690F00D1229A8AF0590F00D28
:100DC000EDF022E528ABA130E006E5294BFD8004DB
:100DD000E5295BFD8DA1E52A30E00890F019122984
:100DE0007D800690F01912298490F019EDF0E52C21
:100DF00030E00512296D800690F01A12298B90F0D0
:100E00001AEDF0E52E30E005122975800690F01BF2
:100E100012299290F01BEDF0EE30E0051229A1802E
:100E20000890F01CE0FBEF5BFD90F01CEDF0E5306E
:100E300030E005122999800690F01D1229A8AF050F
:100E400090F01DEDF022E528ABA230E006E5294B3D
:100E5000FD8004E5295BFD8DA2E52A30E00890F0D5
:100E60002912297D800690F02912298490F029ED1D
:100E7000F0E52C30E00512296D800690F02A122949
:100E80008B90F02AEDF0E52E30E0051229758006F2
:100E900090F02B12299290F02BEDF0EE30E005123D
:100EA00029A1800890F02CE0FBEF5BFD90F02CED89
:100EB000F0E53030E005122999800690F02D1229D6
:100EC000A8AF0590F02DEDF022E528ABA330E006A9
:100ED000E5294BFD8004E5295BFD8DA3E52A30E083
:100EE0000890F03912297D800690F03912298490FB
:100EF000F039EDF0E52C30E00512296D800690F018
:100F00003A12298B90F03AEDF0E52E30E0051229E7
:100F100075800690F03B12299290F03BEDF0EE3098
:100F2000E008A3E0FDEF4DFF800890F03CE0FDEF0E
:100F30005DFF90F03CEFF0E53030E009A3E0FDE527
:100F4000314DFF800990F03DE0FDE5315DFF90F00F
:100F50003DEFF02275240075254078007C007D016E
:100F60007BFF7A3F79C57E007F1412051CE4FFFEEB
:100F70007DB07C40AB56AA55A954A8531203145017
:100F80000302116E122E7A120564600302116EC202
:100F900083C285C281D20A123B16D2847F057E00AD
:100FA0001226FE1200487F667E667D867C40AB4E30
:100FB000AA4DA94CA84B1203146002500DE525154B
:100FC0002570021524122E5450D2E52545247007B1
:100FD000C2847F0102116B752400752564C2847F71
:100FE000147E001226FEC20A123B161200487F0A27
:100FF0007E001226FE752600752704122E4DC3337F
:10100000CE33CED8F924FCF58274FF3EF583122E40
:1010100020C004C005C006C007122E4DC333CE3316
:10102000CED8F9122E81D007D006D005D0041207F1
:10103000F0E527152770021526E527452670BCAF79
:101040004EAE4DAD4CAC4B9000001207F09000142A
:101050001207FC00000000E4F526F527122E1DC043
:1010600004C005C006C007122E4DC333CE33CED800
:10107000F9122E2CD007D006D005D00412007D9096
:1010800000141207F00527E52770020526640545C0
:101090002670C9122E1D79A07840122E8B90001454
:1010A0001207F09000181207FC00000000E4F5267B
:1010B000F527900018122E20C004C005C006C007F6
:1010C000122E4DC333CE33CED8F9122E2C122E1D34
:1010D000120079E4FBFAF9F8120314500F122E4DA6
:1010E000C333CE33CED8F9122E2C801A122E4DC314
:1010F00033CE33CED8F9122E81122E20E4FBFA79AA
:101100008078BF122E6E122E1D120079AB07AA0630
:10111000A905A804D007D006D005D00412007D9000
:1011200000181207F00527E527700205266405451B
:101130002660030210B2C3E525945D122E595013A8
:10114000E4FFFEFD7C3F900018122E351203146060
:10115000025010E525152570021524122E54400367
:10116000020FEBE525452470057F0212000E229048
:10117000001EE014B40900400302136B90118A753D
:10118000F003A4C58325F0C583730211A50211B332
:101190000212690212940212C00212EB02131D0223
:1011A000134902135B90001CE4F0A3740EF0A374C7
:1011B00002F02290001CE0FEA3E0FFD3940CEE644A
:1011C00080948040057564038023D3EF940AEE6415
:1011D00080948040057564028013D3EF9408EE6418
:1011E00080948040057564018003E4F56412206CEE
:1011F000400302136BAF56AE55AD54AC5312202AC8
:1012000090005DE0FF3395E0FEEF64024E700990C0
:10121000002F121FAB12201F90002F121FABFF12C6
:1012200003CBAB07AA067C007D641205CEEF4E60AF
:10123000067564090213548A2C8B2DAE2CAF2D7CBD
:10124000007D0A1205CE8E2C8F2DE52D452C7005C4
:1012500012203C800D122076C333CE33CED8F91243
:101260001FEA90001E7403F02290001CE0B4FF0AF5
:10127000A3E0B4FF057F0112136C121FB640027F7A
:1012800001122030400302136B12204E740AF0A3A7
:101290007404F022121FDA400302136B90002F1225
:1012A0001FAB121FF8700512203C800D122076C370
:1012B00033CE33CED8F9121FEA90001E7405F02207
:1012C00090001CE0B4FF0AA3E0B4FF057F021213F4
:1012D0006C121FB640027F02122030400302136BD3
:1012E00012204E740AF0A37406F022121FDA507B0B
:1012F00090002F121FAB12201F90002F121FAB1255
:101300001FF8700512203C800D122076C333CE33B7
:10131000CED8F9121FEA90001E7407F02290001C2C
:10132000E0B4FF0EA3E0B4FF097F03123A65E412B4
:10133000203E121FB640027F03122030502D122093
:101340004E740CF0A37408F022121FDA501D9000A6
:101350002A740CF090001E7409F02290002AE070AC
:101360000A123D684005E490001EF022123A65E43E
:1013700090001CF0A3F022E56270047F0680411209
:101380003791D3EF9441EE648094804002D208D329
:10139000EF943CEE648094804004D206800DC3EF4D
:1013A0009432EE648094805002C206300805200614
:1013B00002C208D3EF944BEE6480948040057F070F
:1013C00002000E1237911237B4500D900052E064B3
:1013D000077005F0FF122C161237A87002C2071210
:1013E0003791D3EF9434EE648094804004D2078028
:1013F0001D1237B4501890004EE07002A3E0700E3A
:1014000090004BE0B49E07A3E0B45802C207200747
:101410000EE490004BF0A3F090004EF0A3F02220D9
:101420001503021554123791EF24CCFFEE34FFABB5
:1014300007FAD3EB9402EA648094804076900059D6
:10144000E0FEA3E0780CCEA2E713CE13D8F8240177
:10145000FFE43EFEAD03AC021205BC8E248F259046
:10146000005EE0FEA3E0FFD390005CE09FEE6480AE
:10147000F890005BE0648098400C90005EE0F526F8
:10148000A3E0F527800A90005BE0F526A3E0F527AE
:10149000E5272424FFE52634FAFE90004EE0FCA365
:1014A000E0FDC3EF9DF527EE9CF526C3123799505A
:1014B0003D802EC3EA6480948050417C007D03AF60
:1014C00003AE021205CE8E248F2590004EE0FEA3BF
:1014D000E0FFC3E49FF527E49EF526D31237994039
:1014E0000DE02525F090004EE03524F0800E9000B0
:1014F0004FE02527F090004EE03526F090004DE0BB
:1015000014F0E0704F74FFF0D3EB9400EA64809421
:1015100080401D90004CE094A890004BE0648094C3
:10152000E1500DA3E004F0702B90004BE004F0229A
:10153000C3EA64809480501C90004CE09458900062
:101540004BE06480941E400CA3E024FFF090004B1D
:10155000E034FFF022C3900029E0942C900028E0B2
:10156000648094815071E4FFFE7D7A7C44AB52AA82
:1015700051A950A84F12016E1203CB8F2B8E2A8DCA
:10158000298C28900029E004F07006900028E004DF
:10159000F0121FA8252BFFEE352AFEED3529FDECB4
:1015A0003528FC9000241207F0122010C312205797
:1015B000500A900020E52AF0A3E52BF090002212BB
:1015C0002013D3122057500302164F900022E52A11
:1015D000F0A3E52BF08078121FA8FFC004C005C05F
:1015E00006C007900022E0FEA3E0FBAA06EA3395BE
:1015F000E0F9F8122010EF2BFBEE3AFAED39F9EC96
:1016000038F8D007D006D005D004C3EF9BFFEE9A80
:10161000FEED99FDEC98FC121FA2FFC006C00790DA
:101620000029E024FEFF900028E034FFAB07FA33E6
:1016300095E0F9F8D007D0061236F5121FA2FFEC9C
:1016400012038D12206290002B1207F0123A8B12B7
:10165000204564027006AC0AAD0B800FAB10AA11D6
:10166000A912900005120604FDACF0EC12039212D0
:1016700020628F278E268D258C247FCD7ECC7D2CDD
:10168000121F8F60054003C38001D39219301904E3
:10169000C218802BAF61EF3395E0FED3EF944BEE91
:1016A000648094804004D2188015AF27AE26AD2503
:1016B000AC24121F9160054003C38001D39218121D
:1016C00030CFAF64EF6406604FAF64EF64086048EA
:1016D000AF64EF64096041900052E06003022FF2B2
:1016E000122045700690002AE0602190001FE0144F
:1016F000600E14600F1460102403701C75640322C4
:1017000075640222756401227564042290001EE053
:10171000600302116FE4F564228E2D8F2E8D2F90C1
:10172000F692E030E708E4FFFEFD7C4080031233D0
:1017300019123307AC2DAD2EEC120392C004C00574
:10174000C006C007E4FBFA79807845AF37AE36AD06
:1017500035AC34120277D003D002D001D000120190
:101760006E8F3B8E3A8D398C38E52F605924FA7094
:10177000030217FE24FE700302185824FB700302B4
:10178000188324EE6014241160030218C2853B5EA6
:10179000853A5D85395C85385B22AC2DAD2EEC1227
:1017A0000392A804A905AA06AB077F9A7E997D99A2
:1017B0007C451202778F338E328D318C308F5A8E6A
:1017C000598D588C5722753335753248753103124F
:1017D00032EE8F568E558D548C5390005DE0FC1286
:1017E0000397A804A905AA06AB07AF56AE55AD549A
:1017F000AC531202778F528E518D508C4F2275331D
:101800002D7532A67531331232EE8F4E8E4D8D4CC2
:101810008C4BAB56AA55A954A853120277E4FBFA95
:1018200079C8784212016E8F338E328D318C30122E
:1018300003CB8F61EF3395E0FED3EF9464EE6480C9
:1018400094804003756164AF61EF3395E0C36480B9
:101850009480506EE4F561221232E51233191200C1
:1018600079C004C005C006C0077D481232E01201ED
:101870006ED003D002D001D0001233041203CB8EFD
:101880005F8F601232E5123319120079C004C0056F
:10189000C006C0077DA51232E012016ED003D0024F
:1018A000D001D000123304E4FBFA797A78441201B3
:1018B0006E1233071203CB7B007A00796212216526
:1018C0008F4A22AF1EEF3395E0FEC3EF9404EE641F
:1018D0008094805007E4F524F525802890005EE090
:1018E000FEA3E0FFD390005CE09FEE90005B122E21
:1018F000919840068E248F25800A90005BE0F524A5
:10190000A3E0F5251235C4D3E5259FEE6480F8E504
:101910002464809840071235C48E248F2590005986
:10192000E0FEA3E0FF65257003EE65247003021A54
:1019300051C3E5259FFFE5249EFED3EF9470EE642E
:101940008094974002D214301474D3E5259400E5B6
:1019500024648094804067900059E07002A3E07096
:101960000C9000597405F0A374DCF0803B122E7AC1
:1019700012056424F6601304702090005AE024B825
:10198000F0900059E0340BF0801E90005AE024F4EF
:10199000F0900059E03401F0800E90005AE02405E8
:1019A000F0900059E03400F0C390005AE09525E52E
:1019B00024900059122E9198400EC214800390007A
:1019C00059E524F0A3E525F0900059E0FAA3E0FBE7
:1019D000D39400EA648094805020C2849000551211
:1019E00007FC00000000C215BAFF06BBFF03D3804E
:1019F00001C39281C283C2858055C390005AE0948E
:101A0000F4900059E06480948150028001C3920AEE
:101A1000201519A20AB39281D284A20A9283A20A43
:101A2000B392857F057E001226FED215E4FFFE30BC
:101A30000A067DFA7C4380047DC07C3F900059E01B
:101A4000F52AA3E0F52B1223229000551207F0D2BD
:101A500011228F27123D684005123D615003D3804B
:101A600001C3920B1220A9122103500AAC0CAD0D38
:101A7000AE04AF0580008E288F29122158FFC3E5E0
:101A8000299FE5F06480F8E528648098500B300BBE
:101A9000081220E2400312215E20050EAF2712201B
:101AA000FC64014E7050D205804C30010A0509E5F6
:101AB00009700C05088008E50915097002150890E1
:101AC00000031220ACFFAEF0D3E5099FEE1220E830
:101AD0005006D2018E088F091220E14005C2011282
:101AE000215EAF271220FC64014E6005123CC650F7
:101AF00005C205750F1E123D61500D20000A050933
:101B0000E509701E0508801A123D68500D20000A74
:101B1000E5091509700215088008200B0530000240
:101B2000C200123D61501020000D1220E1400875E6
:101B30000E0412215ED200123D685025200022AB17
:101B400010AA11A912900003120604FFAEF0D3E50B
:101B5000099FEE1220E85009750E048E088F09D2F5
:101B600000300B04E4F50F22AF0F1220FC64204E6E
:101B70007007050FC20C122E9822301803021C07A2
:101B8000301903021C07E4900043F090001FE0604E
:101B900003021C811220A9122103506590004AE023
:101BA000FD700404F08010ED12214A9409EC648069
:101BB00094805003021C8190004A7401F09000054B
:101BC000120604FDACF0D3E50B9DEC6480F8E50A49
:101BD00064809840068C0A8D0B800B7432250BF5BF
:101BE0000BE4350AF50AD312210740091220A9F5A2
:101BF0000D85F00C2274FA250DF50DE4350CF50C6D
:101C000022E490004AF022E490004AF0900043124F
:101C10002125EF4E70037480F0900043E0547FF56F
:101C200027301913FF3395E0FED3EF9404EE648060
:101C300094804003023BF1AF27EF3395E0FED3EFF2
:101C40009409EE648094804038D3E50D94EEE50C61
:101C500064809482400C7406250DF50D74FF350CDC
:101C6000F50CD3E50B94BEE50A6480948A400C74AD
:101C7000E7250BF50B74FF350AF50A9000437480D5
:101C8000F022E54964037002F549E5491460421405
:101C90007003021D32147003021D792403600302D5
:101CA0001D76D20A123C87E4F528F52974EB252924
:101CB000F582743F3528F583E493FF1232D3EFF0B9
:101CC0000529E529700205286406452870DE021DF5
:101CD00071E4F528F5291232D3E0FF123322400FC8
:101CE00012332C4018EF941FEE64809480500E0540
:101CF00029E529700205286406452870D9C3E5291D
:101D00009406E5286480948050231232D3E0F52CA9
:101D1000FF3395E0FE4F6006EF64064E7005C20A81
:101D2000123C87AF2C123614754902804C7549035A
:101D3000804775300075310075322C7B007A007950
:101D40002A122861EF4E6031AD2CAF2BAE2A12174C
:101D500019E4F528F5291232D3E0B52C061232D356
:101D600074FEF00529E529700205286406452870EF
:101D7000E57549018003E4F549900041E06009E51B
:101D80004964036003021C8222300923900061E051
:101D9000FF3395E0FEC3EF940CEE64809480500511
:101DA000E004F0800AE4900061F0C2A4C2A522E53C
:101DB00064B40A004003021E8A901DC0F8282873EC
:101DC000021DDE021DF0021DE6021DEB021DF502E2
:101DD0001DF5021E30021E8A021E30021E30C2A4F1
:101DE000C2A5E4F56322D2A4D2A522C2A4D2A52220
:101DF000D2A4C2A522C2A5E563547FFFAE64EE64FF
:101E0000047E0070027E03C3EE6480F8EF64809865
:101E100050090F536380EF4263800B123D4E7F8069
:101E200060027F008F63123D4EC36001D392A422F3
:101E300053637FAF64EF64096007AF64EF640870B9
:101E4000047F0680027F0AD3EF6480F8E563648034
:101E5000984008C2A5C2A4E4F56422E56375F002C7
:101E6000120542AFF0EFC36001D3920AAF64EF6492
:101E7000087003C38002A20A92A4AF64EF640870E2
:101E800004A20A8001C392A5056322201506E490EE
:101E90000054F022900054E0FF3395E0FEC3EF942D
:101EA00004EE648094805004E004F022900053E03B
:101EB000540FF5247D9012004E60054003D380013D
:101EC000C3920A7FCD7ECC7D8C7C40AB52AA51A9B7
:101ED00050A84F120314600740057F0412000E7FC4
:101EE000667E667D06120051400F7F9A7E997D992D
:101EF0007C40120068600C400A7D02120060E4F52C
:101F0000258049E4FFFE7D807C3E12006840097D0B
:101F1000F012004E600A400812005E752501802C08
:101F2000A21A300A01B3500812005E752502801C07
:101F3000AF24EF3395E0FED3EF9400EE64809480FD
:101F40004006E52414FF80027F008F24E525C45459
:101F5000F04524900053F0AF24EF3395E0FEC3EF3B
:101F60009408EE64809480401FE0FF7804A2E71399
:101F7000D8FB540F24FE60070470087F0580067F9D
:101F80000980027F0312000E227D4C7FCD7ECC7C27
:101F90004090002BE0F8A3E0F9A3E0FAA3E0FB02F5
:101FA00003149000241207F0900024E0FCA3E0FD4D
:101FB000A3E0FEA3E02290001CE0FAA3E0FB7C007B
:101FC0007D04FFAE021205CE8C2C8D2DD3E52D9411
:101FD00001E52C648094807F0022D390001DE09462
:101FE0000090001CE0648094802224FFFFEE34FF08
:101FF00090001CF0A3EFF022FF1203CB8E2C8F2D4C
:102000007C007D0A1205CE8C2C8D2DE52D452C22D1
:10201000900020E0FEA3E0FFEE3395E0FDFC22FF00
:10202000E4FBFA7920784112016E90002F0207F04C
:102030008F64D3EB9400EA648094802274FF900054
:102040001CF0A3F022AB10AA11A912020564E4F55A
:102050006490001CF0A322AB2BAA2AA929A828026D
:102060000786E4FBFA797A7844020277D3EF94008A
:10207000EE6480948022AE2CE52D7802227FCD7E06
:10208000CC7D2C7C4090002BE0F8A3E0F9A3E0FA93
:10209000A3E0FB020314900048E0FF3395E0FED379
:1020A000EF9400EE6480948022900001AB10AA119E
:1020B000A91202060475F004900048E0FD120542E2
:1020C000AFF0EF3395E0F5278F28D3E5282275F0A0
:1020D0000AED12082DEC75F00AA42583F583E4932C
:1020E00022C3E5099529E5286480F8E5086480980D
:1020F00022AB10AA11A912020564AF26EF3395E0B6
:10210000FEEF22FFAEF0C3E50D9FEE6480F8E50C14
:1021100064809822E054C0F0C3ED9406EC6480948F
:102120008022900042E0FF3395E0FE22E0FF543F22
:10213000F524FD3395E0FC4D22E52564034524227A
:102140009401E5276480948022FD3395E0FCC3ED83
:1021500022EDFF3395E04F2290000102060485280E
:1021600008852909228B3C8A3D893E8F428E418D0C
:10217000408C3F7FD57E2C7D517C00D3123B0B40A1
:1021800006123B017FD822E47FE37E0AC3123AF4B1
:102190005006123B017F7D227401123B02E47FF561
:1021A0007EF5D3123AF44038E4F543F544AE43E506
:1021B000447802C333CE33CED8F92475F582743D0A
:1021C0003EF5831207C0C3123B0B4006E54424D8FA
:1021D000FF220544E54470020543644B454370CD3E
:1021E000E4F543F544E54425E0FFE54333FE74A1FF
:1021F0002FF582743E3EF583E493FE740193FFE471
:102200008F488E47F546F545E548F548E547F547DB
:10221000E4F546F545AF42AE41AD40AC3FAB48AA10
:1022200047A946A845D312079C5006E5442423FF3E
:10223000220544E54470020543645B454370A612E1
:102240003B01FF22E4F5DE90F692F090004104F0AD
:10225000E4F549FFEFFD3395E0FCC3ED9406EC6433
:102260008094805015EF3395E0FC74332DF5827423
:10227000003CF58374FEF00F80DA9000391207FC01
:1022800000000000123310F0A3F07D021223117D34
:10229000027F02122F11E47D011223117D037F01C1
:1022A000122F11E4FBFDFF122F11752403E4F52515
:1022B000F526FB7D047F031223037D047F02120CAD
:1022C000877B007D027F011223037D01E4FF120C56
:1022D000877B007A0079247D027F03120C87C20B72
:1022E0007F0312231A7F0212231A7D017F03122516
:1022F0008EC20B7D037F0112258EC20BE4FD7F038E
:1023000002258E7A007924120C877B007A007924CA
:1023100022FB7F03122F11E4FB227D0212258EC2C5
:102320000B228F298E288D278C26122E7A90000959
:1023300012057DF5301205646402700FAE2AAF2BD2
:10234000FC7DCD1205CEEF2530F530AC2AAD2BEC5F
:10235000120392AB29AA28A927A826122E41797A1E
:102360007844122E8B122E447B9D7A69795C783CDE
:10237000120277122E44AB2FAA2EA92DA82CC00032
:10238000C001C002C003AC30EC120397E4FBFA7941
:10239000C87842120277D003D002D001D000122EAA
:1023A00041C004C005C006C007E4FFFE7D7A7C443E
:1023B000AB5AAA59A958A857122E6ED007D006D0EA
:1023C00005D004120277122E44E4FBFA79C8784251
:1023D000122E41E4FFFE7DC87C42AB2FAA2EA92D10
:1023E000A82C120314600A4008E4FFFE7DC87C425A
:1023F00022AF2FAE2EAD2DAC2C22120048855F24CB
:10240000856025D3E5259464E5246480948040109C
:10241000749C2525F52574FF3524F524C21B800204
:10242000D21BE4FBFA74D92BF582743F3AF583E4AE
:1024300093FF7E002404FDEE33FCD3E5259DEC6480
:1024400080F8E524648098506DEF24FCFFEE34FFA3
:10245000FEC3E5259FEE6480F8E52464809840562D
:1024600074E12BF582743F3AF583E493FF7E007CA0
:10247000007D641205BC90005EEEF0A3123D378033
:1024800005C333CE33CED8F9FF903FEAE493FDEF96
:102490005D7F0260027F0390005D123D378005C3BF
:1024A00033CE33CED8F9FF903FE9E493FDEF5DC31F
:1024B0006001D3921A220BBB00010AEB64084A6048
:1024C000030224257F0812000E22E4F524F525F5E9
:1024D00026FB7F031225847B007F021225847F0167
:1024E00012256E7B007A0079247D01E4FF120C87AF
:1024F0007F0312256E7D0212257A7D027F02122F44
:10250000117D0112257A7D037F01122F117B01E4D9
:10251000FDFF122F11752403E4F525752601FBFD3F
:102520007F03122F117B007A0079247D017F031233
:102530000C87D20BE4FD7F0312258E75DF4075DE1C
:1025400060E4F5E9F5D1F5D375D50F75D4FF90F6B4
:102550009274A0F0E4F5499000391207FC000000E5
:1025600000123310F0A3F0A304F043DE80227B00BE
:102570007A0079247D02120C87227B017F03122FBF
:10258000117B01227A0079247D04120C8722EF143A
:10259000603814605F14700302261E240360030277
:1025A00026451229404003022645300B0EA805742B
:1025B00001088002C333D8FC428022A805740108B8
:1025C0008002C333D8FCF452802212292B50761299
:1025D00029374071300B0EA8057401088002C333FF
:1025E000D8FC429022A8057401088002C333D8FCAD
:1025F000F452902212290A504C1229494047300BBC
:102600000EA8057401088002C333D8FC42A022A89A
:10261000057401088002C333D8FCF452A022ED12E5
:10262000290E5021300B0EA8057401088002C33317
:10263000D8FC42B022AF05A8077401088002C3335A
:10264000D8FCF452B022900049E0B40700400302E5
:1026500026FA902659F828287302266E02267B0255
:1026600026960226A40226C40226D20226F2900052
:1026700048740BF0A37401F00226FA1220B512215F
:10268000404002805512215170709000487407F04C
:10269000A37402F08064122096505F7423F0A37438
:1026A00003F0805675F00C1220B8940512214240B8
:1026B00002802712215170429000487407F0A374E1
:1026C00004F080361220965031740BF0A37405F09C
:1026D00080281220B512214040071220A9FFAEF039
:1026E0002212215170149000487423F0A37406F054
:1026F00080081220965003E4A3F0E4FEFF228E2E01
:102700008F2FE4F534F535E52F452E70030227B3FE
:102710000535E53570020534AE2EAF2FEE3395E06A
:10272000FDFCE47BA07A0FF9F812065B8F338E3242
:102730008D318C30C006C007AE34AF35AB07AA066A
:10274000EA3395E0F9F8D007D0061206E68F338E0B
:10275000328D318C30E47FFF7EFFFDFCAB33AA323B
:10276000A931A830C312079C50A6C374FF9533F556
:102770003374FF9532F532E49531F531E49530F557
:1027800030AF33AE32AD31AC3078081207AD8F8C3C
:10279000E533FF8F8AC20E438810E58820E50330B9
:1027A0000EF85388CFE535153570021534E53545FB
:1027B0003470CE2220110302286030131990F129C1
:1027C000E060030228607F01301201FF90F164EFA6
:1027D000F0C211C213227DC87C42123CD9120314EC
:1027E000600C400A9000551207FC42C80000E4FF4C
:1027F000FEFDFC123CDC120314500A900055120737
:10280000FC00000000AF27AE26AD25AC24EC4D4EF9
:102810004FC36001D392127DFA7C45123CD912015C
:102820006EE4FBFA798078BF12007D8F278E268DAB
:10283000258C24E4FBFA79C878421202778F278E20
:10284000268D258C241203CBAD07AC06ECFFEF9050
:10285000F141F0ED90F140F0D21390F1297401F0C4
:10286000228B2D8A2E892FE5DF30E10280509000E7
:102870003EE004F0700690003DE004F0900039E086
:10288000F8A3E0F9A3E0FAA3E0FBAFDDEFFEADDCD7
:10289000EDFFEE3395E0FDFCEB2FFFEA3EFEE93D58
:1028A000FDE83CFC9000391207F0C390003EE09434
:1028B0000A90003DE064809480500743DF02E4FE0C
:1028C000FF22900039E0FCA3E0FDA3E0FEA3E0FFBF
:1028D000E47B0AFAF9F81236F59000391207F09005
:1028E0000039A3A3E0FFA3E0AB2DAA2EA92FCF8F21
:1028F000F012063C90003FE0AB30AA31A93212053D
:10290000AAE4900040F0FE7F0122EDFF7E00D39408
:10291000067480948022EDF4F58275830085832807
:1029200085822985832A85822BED22EDFF7E00D3C7
:1029300094077480948022C3EF940374809480225F
:10294000EDD394057480948022C3EF940174809435
:102950008022FBE434F0FAA80574010822F4F58221
:1029600075830085832C85822D85832E22A3E0FB31
:10297000E52D4BFD22A3E0FBE52F4BFD22E0FBE51F
:102980002B4BFD22E0FBE52B5BFD22E0FBE52D5B05
:10299000FD22E0FBE52F5BFD22A3E0FBE5314BFDD3
:1029A00022A3E0FBEF4BFD22E0FBE5315BFD228F34
:1029B00030D20D123CFD7531027532007F11122AA2
:1029C00045AF34123C28401D123C375018E53414F2
:1029D000F5330532E53270020531C394FCE531640C
:1029E00080948340D7E53064017002F530AF30EF5A
:1029F0006408600AEF64096005EF640A7011AF3380
:102A0000EF3395E04F60058533308003753004E582
:102A100033B530028029E532B4FC10E531B4030B44
:102A20007531027532007F1D122A45E53004F534F8
:102A30007B007A007934AD32AC317F19123940C253
:102A40000D123CFD227B007A007934AD32AC31129C
:102A500039402278FFE4F6D8FD9000007F007E0424
:102A6000E4F0A3DFFCDEFA758164022AA8022DA03F
:102A7000E493A3F8E493A34003F68001F208DFF4A3
:102A80008029E493A3F85407240CC8C333C4540F1B
:102A90004420C8834004F456800146F6DFE4800BEE
:102AA0000102040810204080903336E47E019360D8
:102AB000BCA3FF543F30E509541FFEE493A360011B
:102AC0000ECF54C025E060A840B8E493A3FAE49385
:102AD000A3F8E493A3C8C582C8CAC583CAF0A3C833
:102AE000C582C8CAC583CADFE9DEE780BEEF1460CD
:102AF0002214603C14605624037074122940400272
:102B0000806DED24801229528002C333D8FC55AC6D
:102B1000FC806012292B500512293750028050ED9D
:102B200024881229528002C333D8FC55ADFC80435F
:102B300012290A500512294950028033ED249012BF
:102B400029528002C333D8FC55AEFC8026ED1229F1
:102B50000E4002801AED2498FBE434F0FAAF05A889
:102B6000077401088002C333D8FC55AFFC8004E42D
:102B7000FEFF22EC7003FEFF228B828A83E0540367
:102B8000FF7E00227D087F0212396F403D90006079
:102B9000E025E0F030A303E004F0900060E0FFFDEA
:102BA0007C00F46003ED7022E4F5B6EDF44CD370D4
:102BB00001C3921CEFF47B0170027B027D037F0254
:102BC0001234B47D087F02123BB5301C08E5163084
:102BD000E703751680301C27E51564857021120007
:102BE00003D3EF9400EE648094804005123C418052
:102BF0000BE4F519F51B751801751701E4F515209F
:102C00001C13E5166484700DF516E5177004751A2B
:102C10000122E4F517228F2A1220F1F52F122158F4
:102C2000F52E85F02DE4F52BF52C903F5775F00A25
:102C3000E52C12082DE52B1220D6652A704690004F
:102C400049F0AE2BAF2CFC7D0A1205BC74572FF94E
:102C5000743F3E7510FFF5118912E52F6408700D61
:102C6000E52A64086007AF2EAE2D123209E52F70F9
:102C70000AE52A6006FF1229AF8005E4900042F0C1
:102C8000E4FEFF22052CE52C7002052BC3940BE516
:102C90002B6480948040937E007F0122752403E49E
:102CA000F525752601C20B7D02FF12258E7B007A69
:102CB0000079247D04E4FF120C877B127D02E4FF7F
:102CC000122F1190F120E4F0A304F090F123F09082
:102CD000F12A74FFF090F122E4F090F12704F0A3C0
:102CE000F090F160E4F090F165F090F16404F09000
:102CF000F131741FF090F130743FF090F141E4F045
:102D000090F140F09000551207FC00000000C21343
:102D1000C21190F166E4F090F12604F0023D1E121B
:102D200020964003E014F0122122C3EF9418EE64C1
:102D30008094805003E004F090004A122099400DE6
:102D4000EF9409EE648094805003E004F0AF0FEF3D
:102D50003395E0FEC3EF9420EE648094805002052A
:102D60000FAF0EEF12209B4002150E900044122070
:102D7000994003E014F0900043E0FF30E71C547FDB
:102D8000FEEF5480F0EE122149940AEC64809480A6
:102D900050010E900043E04EF022E4900043F022F8
:102DA000123CB1D20B123A171237391224CA12232D
:102DB000FA12356A1239C71234561236AB122C9CED
:102DC0001233F7120F54123139E4900041F043A846
:102DD00080120048122B841238A812155512088E42
:102DE0001213771218C31227B4300FE5C20F12392D
:102DF0000E123398123AAF122D1F122F831237BEC4
:102E0000123061AF1EEF3395E0FEC3EF9403EE6422
:102E100080948040BC121D89121E8B80B4900014D7
:102E2000E0FCA3E0FDA3E0FEA3E0FF222400F58286
:102E300074003EF583E0F8A3E0F9A3E0FAA3E0FB19
:102E40002212016E8F2F8E2E8D2D8C2C22AE26E518
:102E500027780222D3E5259400E52464809480221B
:102E6000E490005BF0A3F0900059F0A3F02212016F
:102E70006EA804A905AA06AB0722AB10AA11A912D5
:102E8000222400F58274003EF58322E4FBFA02025C
:102E9000776480F8E0648022D20D123CFD200C1C87
:102EA000E4F52AF52B742C1238F97F1112394005FC
:102EB0002BE52B7002052A12390440E9850830857C
:102EC00009317F003002027F018F327A007930129F
:102ED00038EE1236608F33200C07E533B52F0280B1
:102EE0002A7B007A00792CE4FDFC7F1D123940E436
:102EF000F52AF52B74301238F97F19123940052B59
:102F0000E52B7002052A12390440E9C20D123CFD7E
:102F100022EBF5826402606AE58264036064E58204
:102F20006419605ED3E582941C748094805053EFE2
:102F300014601414602014602F240370451229407B
:102F40005040ED2400802A12292B50361229374098
:102F500031ED2410800D12290A50271229494022F0
:102F6000ED2420F528EE800CED12290E5014ED24EE
:102F700030F528E434F0F527EB541F8528828527A7
:102F800083F0221220F16069123D614007E4900055
:102F900046F0802990004612212C7007EF20E603AE
:102FA0004480F09000461221145008E020E6040509
:102FB000248003E4F524900046E04524F0123D68A7
:102FC0004006E4900047F02290004712212C700741
:102FD000EF20E6034480F09000471221145008E0EF
:102FE00020E60405248003E4F524900047E045240E
:102FF000F022900050E0FEA3E0FFC39405EE648051
:1030000094805010C3EF9403EE64809480504EEF90
:1030100004F56422900052E0FF7E007C007D0612E1
:1030200005BCEF2405FFE43EFE900050E0FCA3E069
:10303000FDC39FEE6480F8EC6480985020ED24FB83
:10304000FFEC34FFFE7C007D031205CE7C007D0288
:103050001205CEED4C7004756401228000E4F56425
:103060002290001EE0700BAB10AA11A91212056489
:10307000600775130075142822D3E5149400E51336
:10308000648094804009E514151470421513229051
:10309000F500E4F0C20A123BD343870443870212CF
:1030A0003CB1D20B123A17123B387F017E00122638
:1030B000FE122B84300F05C20F12390E123CC6507F
:1030C000E9D20A123BD3E4900041F043A880229059
:1030D000001FE014601814602E14604F2403705811
:1030E0007D6C121F8B505190001F7401F0227F9A4B
:1030F0007E997D79121F8F60074005E490001FF0D4
:10310000121F895033802BE4FFFE7D60121F8F60F9
:1031100008400690001F7401F07F9A7E997D391255
:103120001F8F501490001F7403F022121F89600833
:10313000400690001F7402F022C218C219123A8B86
:10314000AF52AE51AD50AC4F90002B1207F0E4904F
:10315000001EF0F524AF24EF3395E0FEC3EF940A90
:10316000EE6480948050071230CF052480E712204F
:1031700045702EF52490005DE0C36480F8E524647A
:10318000809850107F02123A657FA07E001226FEC2
:10319000052480E17F907E011226FE90002A740CA7
:1031A000F0227D037F02122AEDEF64014E7034C2DB
:1031B0001CE515547FFFE4F515E5177004E51B6069
:1031C00007E4F51BF5178033EFC39405502D12006B
:1031D00003C3EF940AEE64809480500205197516BB
:1031E000808018D21C751300751428E51630E7038B
:1031F000751680E51520E7037515807D087F02129E
:103200003AD290006074AAF0228E308F311237A823
:10321000605B900001120604FFAEF04E604FAB07FA
:10322000AA0690005EE0FEA3E0FFC39BEA6480F87C
:10323000EE6480985004AA06AB0712377C90004ECB
:10324000E03EC364809480C3EB9531FFEA9530FE85
:1032500090004EF0A3EFF0C3EE648094805007E43A
:1032600090004EF0A3F0E490004BF0A3F0228D27E5
:10327000201809201906E4900043F022900043E052
:10328000FD3395E0FCED4C70037480F0900043E05A
:10329000547FF5282019057529098003752902EF47
:1032A0006018301915AF28EF3395E0FEC3EF940393
:1032B000EE648094804003023BF1D3E5296480F8FA
:1032C000E528648098400B9000437480F0AF27128B
:1032D0002C162274332529F58274003528F58322B3
:1032E000E4FFFE7C43AB3BAA3AA939A838227530EB
:1032F0003EAB33AA32A931A830AF3BAE3AAD39ACC0
:10330000380202771202778F378E368D358C342251
:10331000E490003DF0A3F0A322AF5AAE59AD58ACF3
:1033200057223395E0FEC36480948022D3EF941635
:10333000EE6480948022C10FC10EC110C11C0163D4
:10334000004100610041006200C117C116011CFF6D
:1033500041002A0042001C000042004B00004200D5
:103360004E0000C10741004DFFC109C106C108C19F
:103370001DC1054100430041004600410044004199
:10338000004700410048004100421941004A00C185
:1033900000C1014100530000AB10AA11A91212058F
:1033A0006460046401701190F508E4F090F500E0A9
:1033B000547FF0E4F51D8016AF1D12002E50040559
:1033C0001D800BEF64034E7005123C0F051DAF1EF0
:1033D00012002E5003051E22EF64034E7018051EC6
:1033E000900062E0FF3395E0FED3EF9400EE64803E
:1033F00094804002D21722E4F527D20D123CFD75CD
:1034000024027525007B007A007926AD25AC247F47
:1034100011123940AF26123C28401D123C3750187B
:10342000E52614F5270525E52570020524C394FC3F
:10343000E5246480948340CDAF27EF6408600AEFF1
:1034400064096005EF640A7003752704AF27122C26
:1034500016C20D023CFDE4F50EFFEF122149940B5C
:10346000EC64809480502C903F571220CE64027000
:103470001FEF3395E0FC903F5C1220CEF50A7401FB
:1034800093F50B903F581220CEF50C740193F50D77
:103490000F80C712350FE4900049F0900045740486
:1034A000F0E4900052F07510FF75113F751257C28D
:1034B00003C20422EBD31229395053EF14601414C1
:1034C000602014602F240370451229405040ED24E1
:1034D00080802A12292B50361229374031ED24885A
:1034E000800D12290A50271229494022ED2490F517
:1034F00028EE800CED12290E5014ED2498F528E4E6
:1035000034F0F527EB5403852882852783F022D2F7
:103510000D123CFDE4F524F52574262525F9E4FA81
:10352000FBAD25AC247F111239400525E52570023D
:103530000524C39404E5246480948040DCC20D1209
:103540003CFD7A0079261238EE123660EFB5290F6D
:10355000852608852709E528C36001D39202221237
:10356000399BC202D20C122E9822D20A123B96E448
:10357000F51E301B4E75241C90F500E04480F07F52
:10358000077E001226FE12003D30E702051CAF1C2C
:10359000EFF47006D20A15248018E51C541F70122F
:1035A00075241C300A0CD216F51C900062E004F061
:1035B000C20AE52470C9301603751E0390F500E0B9
:1035C000547FF02220070A90005BE0FEA3E0FF801A
:1035D0003012377CFF90004EE03EFEC36480948042
:1035E0005003E4FEFFC390005CE09FFF90005BE0AF
:1035F0009EFEC3EF94DCEE6480948550047E057FCC
:10360000DC90005BE0B50608A3E0B50703C38001CA
:10361000D3920922AB077AFF900040E07041EB1291
:103620003322403B12332C400AEF941FEE64809407
:1036300080402C9000391207FC000000001233106B
:10364000EBF0A37401F0EB30E40543DF808003531B
:10365000DF7F53DEF0EB540F42DEDAFE43DF02225F
:103660008B348A3589368F3A8E398D388C37E4F52C
:103670003BAB340536E536AA357002053514F91230
:103680000564623B7F08E53B30E70825E06407F509
:103690003B8006E53B25E0F53BDFEB783774FF1216
:1036A00007D2EC4D4E4F70C9AF3B22752401E4F5B3
:1036B00025F526FB7D037F02122F117B007A00790E
:1036C000247D087F02120C877D087F02123BB57BA8
:1036D000027D037F021234B443B9047513007514DC
:1036E0002890006074FFF0E4F515F516F518F5194B
:1036F000F51AF51B22C2D5E830E70FB2D5E4C39B1B
:10370000FBE49AFAE499F9E498F8EC30E717B2D5BB
:1037100012372B1206E6E4C39BFBE49AFAE499F90C
:10372000E498F880031206E630D50DE4C39FFFE469
:103730009EFEE49DFDE49CFC227524037525017525
:103740002601C281C284C283C2857D0212376A7D8E
:1037500010E4FF120C877D0812376A7D20E4FF1207
:103760000C87122E60C215C214227B007A007924C5
:10377000E4FF120C877B007A0079242290004BE052
:10378000FEA3E0FF7C007D641205CE90004FE02F89
:1037900022AF4AEF3395E0FE22E5259527E5266422
:1037A00080F8E52464809822AB10AA11A912900039
:1037B0000802057DC3EF942AEE6480948022900075
:1037C00052E0FF7E0070059000508030900051E084
:1037D00004F07006900050E004F07C007D061205B5
:1037E000BCEF240FFFE43EFEC3900051E09FEE6467
:1037F00080F8900050E06480984004E4F0A3F02248
:10380000C0E0C0F0C083C082C0D075D000C000C08E
:1038100001C002C003C004C005C006C0071231A227
:1038200075B600D007D006D005D004D003D002D0A2
:1038300001D000D0D0D082D083D0F0D0E032D3EF0E
:103840009DEC6480F8EE64809840028004AE04AF82
:10385000058E278F28E52864024527700820060575
:103860007F08122C16E5286403452770057F09128E
:103870002C1622E4FFEFFD3395E0FCC3ED9403EC3E
:10388000648094805020EF3395E0FC74F12DF58234
:10389000743F3CF583E493FE900052E0FDEEB505E5
:1038A00002C3220F80CFD32290F500E030E72BE552
:1038B0001C70277F057E001226FE12003D30E702B5
:1038C000051CAF1CEFF470EB90F166F090F126044C
:1038D000F0900062E004F0E4F51E2275F00AEF12A9
:1038E000082DEE75F00AA42583F583E493227B006E
:1038F0007F037E007D007C0022252BF9E4FAFBADDE
:103900002BAC2A22C39404E52A6480948022E51516
:1039100030E711547FFFC3940550010F531580EF1A
:1039200042158003E4F515E51630E710547FFFC318
:10393000940450010F531680EF421622E4F516222C
:103940008F35EF64197005120564F5FEEDF5FCEC9A
:10395000FFEFF5FD008535FF000000000000E5FFEA
:1039600020E0FBE53564117005E5FE1205AA22EFA3
:103970001460111460151460192403701CE5AC5D0B
:103980006017D322E5AD5D6010D322E5AE5D60091E
:10399000D322E5AF5D6002D322C322750803750907
:1039A00020E4FFFE903F571238DB6402700D903F19
:1039B0005A1238DBF508740193F5090FBF00010EA8
:1039C000EF640B4E70DE22752403E4F525752601A5
:1039D000C2A4C2A5FB7D101239E57B007D201239FF
:1039E000E5E4F564227A0079247F02120C8722A98B
:1039F00007900046E0FE5480FB3395E04B700BEDE2
:103A00003395E0FCED64014C700CEE547F90004661
:103A1000F0AF01122C1622E4200B06F5C853A8DFE4
:103A200022F5CE75CB0B75CADB75CD5D75CC6643C3
:103A3000A820F5C975CF80751F0475C89122C0E014
:103A4000C083C0825380DF5380F75380FD5380EFE3
:103A500053A0EF53A0DF751C0090F509E4F0D0826D
:103A6000D083D0E032EF14600C14600F147010C2D9
:103A7000A4D2A5800AD2A4C2A58004D2A4D2A57FD4
:103A8000147E001226FEC2A4C2A522900020747FDC
:103A9000F0A374FEF0A37480F0A37402F0E490002D
:103AA00028F0A3F09000241207FC0000000022126E
:103AB0001FDA400CA3E024FFF090001CE034FFF07C
:103AC00090002AE0FF3395E0FE12206C4003E014E2
:103AD000F022EF14600F14601114601324037013AC
:103AE000EDF452AC22EDF452AD22EDF452AE22EDE3
:103AF000F452AF22FDFCAB42AA41A940A83F020705
:103B00009CE4AB3CAA3DA93E0205AAAB42AA41A94E
:103B100040A83F02079C90F1417401F07F00300AF9
:103B2000027FFF90F140EFF0123D1E7F0130120244
:103B30007F0090F164EFF0227D087F02123AD2906C
:103B4000006074AAF0D21CE51630E703751680E514
:103B50001520E70375158022E5177004E51B600446
:103B6000E4FEFF22E51A7003FEFF22120003300B71
:103B700005E4F51AF51922E4FB7D02FF122F11C2AC
:103B80000B7D02E4FF12258E90F121E4F090F126E6
:103B9000F090F123F02290F5007409F090F5027492
:103BA00019F090F50CE4F090F5067438F0A3740564
:103BB000F075B98022EF14600E14600F14601024A9
:103BC00003700FED42AC22ED42AD22ED42AE22ED8C
:103BD00042AF22300A0C1224CA122C9C123739022E
:103BE0003B96C20B123A17123B77122244123D2B1E
:103BF000221220F1FF601790000712057D600590EA
:103C00000045EFF0E4FF122C16E4FF1229AF2290DA
:103C1000F500E04480F07F147E001226FE90F50946
:103C2000E4F090F50804F022EF3395E0FEC3EF9442
:103C300001EE6480948022D3EF940BEE6480948034
:103C400022E4F516F51AF519F517F518EF64014E8B
:103C50007F0070027F018F1B22EFFB3395E0FAC3D8
:103C6000EB9408EA648094805004EF2DFF227F08D3
:103C700022900047E0FE5480FD3395E04D6007EE52
:103C8000547FF0122C162253DE7F007F00200A02A0
:103C90007FA090F692EFF00043DE8022C0E075C96D
:103CA00000151FB210E51F7005751F04D20FD0E07C
:103CB000325388CF5389F0438901E4F58CF58A7536
:103CC000A80243A88022E5186002D322E51A600208
:103CD000D322E51BC36001D322E4FFFE900055E030
:103CE000F8A3E0F9A3E0FAA3E0FB22EF64014E7031
:103CF0000B200405123D614003123BF122300D07F9
:103D0000C2AF0075FBAA2275FB5500D2AF22201767
:103D1000037F0022900062E0FFE4F0C2172290F1DE
:103D2000297401F090F129E070FA22122E60C2810C
:103D3000C284C283C28522EFF0AF037E007401A863
:103D4000070822E5187002C322E4F518D322E563C0
:103D50005480FF3395E04F2290001EE0700204F083
:103D600022E517C36001D322E51BC36001D32253B0
:103D700088EFD20E3200512CD5004B1869004584D3
:103D80005700406521003BB06200375CB6003361EC
:103D90009B002FB760002C570700293A3D00265B97
:103DA000410023B4DC0021424D001EFF45001CE70A
:103DB000D5001AF86900192DBE001784DA0015FB2A
:103DC0000600148DC700133ADA0012002B0010DB36
:103DD000D6000FCC1E000ECF6C000DE44B000D0979
:103DE00065000C3D80000B7F7C000ACE50000A2944
:103DF0000700098EC30008FEB50008781F0007FA07
:103E000052000784AE0007169D0006AF9700064FCC
:103E10001C0005F4B800059FFE0005508B00050648
:103E2000020004C00D00047E5D000440A9000406E9
:103E3000AC0003D02700039CE100036CA100033F0A
:103E400037000314720002EC280002C62F0002A201
:103E5000630002809F000260C3000242B10002269C
:103E60004C00020B7B0001F2230001DA2E0001C39B
:103E7000870001AE19000199D2000186A0000174EB
:103E8000720001633A000152EA00014372000134FA
:103E9000C8000126DF000119AC00010D2500010159
:103EA00041F5F5EB3AE107D755CE1DC558BD00B534
:103EB0000EAD7FA64C9F7098E792AC8CBB871181AA
:103EC000AA7C82779772E46E676A1E6606621C5E41
:103ED0005F5ACB575F541950F84DF84B1A485A4562
:103EE000B8433340C83E773C3E3A1D3812361D3445
:103EF0003B326D30B22F082D6F2BE62A6C2901273B
:103F0000A42655251323DD22B22193207F1F751E81
:103F1000751D7E1C901BAC1ACF19FB192E18691742
:103F2000AA16F31642159714F2145313B913251257
:103F300096120C11861105108810100F9B0F2B0E76
:103F4000BE0E550DEF0D8C0D2D0CD10C780C210BE8
:103F5000CE0B7D0B2E0AE3000000000000000100E4
:103F6000640100000000000000006403000F000076
:103F70000AF00000320403E800000B54010045057C
:103F800007D000000BB8010056060FA000000BEA96
:103F9000010160071F4000000C1C0101660855F07C
:103FA00000000C80000169092EE000000BB8000140
:103FB00069021F4003E80C1C0001450A2EE00000C6
:103FC0000BB80001690000000000000000000000C4
:103FD000000000000000000000524B44382F211860
:103FE0000F91B464DCDC78B464070F1F0D080E0079
:043FF00006050304BB
:00000001FF
