:10000000022B27AF52EF3395E0FE22023BCAE58E6A
:10001000541FF55E435EC0855E8EC2AF007596AA22
:0A00200075965543970200D2AF22F7
:10002B0002348EC2AF007596AA75965585975F0000
:0F003B00D2AFE55F30E203D38001C322021CC4C1
:10004B0002366C02040FE86480F8E933E833601180
:10005B000460F0ED33EC337009E8FCE9FDEAFEEBEC
:10006B00FF220460DED3EB9FEA9EE99DE8C2E78C9A
:10007B00F0C2F795F0400CE8CCF8E9CDF9EACEFAEE
:10008B00EBCFFB1203DA85D0F05804700320D5B305
:10009B00E80470075002B2D502041992D5EC046043
:1000AB00F7E4CCC0E0C398F8603B94186008400DAF
:1000BB00D0E0FB0203F1E4FBFAC9FC8028E830E452
:1000CB0006E4C9FBE4CAFCE830E305E4C9CACBFC8F
:1000DB00E854076010F8C3E913F9EA13FAEB13FBC2
:1000EB00EC13FCD8F130F52FC3E49CFCEF9BFFEE37
:1000FB009AFEED99FDD0E0FBEF4E4D4C701222DBDA
:10010B0003020416EC2CFCEF33FFEE33FEED33FD54
:10011B00ED30E7EB0203F1EF2BFFEE3AFEED39FD8D
:10012B00D0E0FB50130BBB0003020419ED13FDEEE3
:10013B0013FEEF13FFEC13FC0203F1EC4D6011E81F
:10014B00497017ED33EC3304600DE4FCFFFEFD2228
:10015B00E933E8330470F802040F1203DA58046031
:10016B0009E4CC24815006285009020419284003C5
:10017B00020416C0E0EB4A7044B98006D0E0FB02E3
:10018B000405EF4E701CBD8008EBFFEAFEE9FD8015
:10019B00EBE98DF0A4FEE5F002022FE9CDF9EAFEC2
:1001AB00EBFFEF89F0A4FCE5F0CE89F0A42EFFE481
:1001BB0035F0CD89F0A42DFEE435F08067EF4E705D
:1001CB0005BD80D780C3EF8BF0A4ACF0EE8BF0A411
:1001DB002CFCE435F0F8EF8AF0A42CE5F038FCE4C5
:1001EB0033CB8DF0A42CFCE5F03BF8EE8AF0A42C7D
:1001FB00FCE5F038F8E433CF89F0A42CFCE5F038BB
:10020B00CF3400CE89F0A42FFFE5F03EFEE433C9D6
:10021B008DF0A42EFEE5F039CD8AF0A42FFFE5F08A
:10022B003EFEE43DFD33D0E0FB50070BBB000F025D
:10023B000419EC2CFCEF33FFEE33FEED33FD020320
:10024B00F1020419EC5D046005E859047003020423
:10025B000F1203DA580460F6EC4860F2EC7004FD00
:10026B00FEFF22C860DB2481C85009C3986002508E
:10027B00060204169850CAF582E9294B4A7005AB61
:10028B008202040575F0007C1A7880C3EF9BEE9A0E
:10029B00ED99400DC3EF9BFFEE9AFEED99FDE84201
:1002AB00F0DC23ACF0D0E0FFD0E0FED0E0FDAB8281
:1002BB0020E7101BEB60BAEC2CFCEF33FFEE33FEA8
:1002CB00ED33FD0203F1E803F830E705C0F075F0FC
:1002DB0000EF2FFFEE33FEED33FD40B830E7C28069
:1002EB00AA74F8CC6480CCC86480C8F58204604FD3
:1002FB00C3EB9FF5F0EA9E42F0E99D42F0E89C4586
:10030B00F0603C501DE5825FFFE582D313CB5BCBE6
:10031B00F42B5582FB50280ABA002409B900200897
:10032B00801DE5825BFBE582D313CF5FCFF4C31354
:10033B002F5582FF50090EBE00050DBD00010CC3E9
:10034B00EB9FF5F0EA9E42F0E99D42F0E89C45F008
:10035B006007CC4820E701B3EC2275F020800E75C6
:10036B00F010800575F0087D007E007F003392D57C
:10037B0030D503120750EC334010EF33FFEE33FE52
:10038B00ED33FDEC33FCD5F0ED22E5F0247EA2D568
:10039B0013CC92E7CDCEFF22EDD2E7CD33EC3392E7
:1003AB00D524814006E4FFFEFDFC22FCE4CFCECD3C
:1003BB00CC24E0501174FF80EDC3CC13CCCD13CD06
:1003CB00CE13CECF13CF0470F030D5DE020750E939
:1003DB00D2E7C933E833F892D5EDD2E7CD33EC331E
:1003EB00FC5002B2D522EC30E7100FBF000C0EBE52
:1003FB0000080DBD00040BEB6014A2D5EB13FCED54
:10040B0092E7FD2274FFFCFDFEFF22E480F8A2D5EB
:10041B0074FF13FC7D80E480EFE709F608DFFA80B8
:10042B0046E709F208DFFA803E88828C83E709F001
:10043B00A3DFFA8032E309F608DFFA8078E309F2EA
:10044B0008DFFA807088828C83E309F0A3DFFA80DF
:10045B006489828A83E0A3F608DFFA805889828A4E
:10046B0083E0A3F208DFFA804C80D280FA80C6804A
:10047B00D4806980F28033801080A680EA809A80D5
:10048B00A880DA80E280CA803389828A83ECFAE41E
:10049B0093A3C8C582C8CCC583CCF0A3C8C582C8FA
:1004AB00CCC583CCDFE9DEE7800D89828A83E493B8
:1004BB00A3F608DFF9ECFAA9F0EDFB2289828A8317
:1004CB00ECFAE0A3C8C582C8CCC583CCF0A3C8C5E1
:1004DB0082C8CCC583CCDFEADEE880DB89828A83E5
:1004EB00E493A3F208DFF980CC88F0EF60010E4EA5
:1004FB0060C388F0ED2402B4040050B9F582EB24FC
:10050B0002B4040050AF232345822390047473C2BA
:10051B00D530F707B2D563F0FF05F030E70CB2D555
:10052B00F4048463F0FF05F080018430D502F404F9
:10053B0022BB010689828A83E0225002E722BBFE9E
:10054B0002E32289828A83E49322BB010CE5822990
:10055B00F582E5833AF583E0225006E92582F8E639
:10056B0022BBFE06E92582F8E222E58229F582E527
:10057B00833AF583E49322BB010689828A83F022B6
:10058B005002F722BBFE01F322EF8DF0A4A8F0CFAF
:10059B008CF0A428CE8DF0A42EFE22C2D5EC30E731
:1005AB0009B2D5E4C39DFDE49CFCEE30E715B2D552
:1005BB00E4C39FFFE49EFE1207F1C3E49DFDE49CA0
:1005CB00FC80031207F130D507C3E49FFFE49EFEC6
:1005DB0022BB0110E58229F582E5833AF583E0F52C
:1005EB00F0A3E0225009E92582F886F008E622BB49
:1005FB00FE0AE92582F8E2F5F008E222E5832AF506
:10060B0083E993F5F0A3E99322BB010A89828A83DC
:10061B00F0E5F0A3F0225006F709A7F01922BBFE74
:10062B0006F3E5F009F31922E88FF0A4CC8BF0A4C4
:10063B002CFCE98EF0A42CFC8AF0EDA42CFCEA8EA9
:10064B00F0A4CDA8F08BF0A42DCC3825F0FDE98FCC
:10065B00F0A42CCD35F0FCEB8EF0A4FEA9F0EB8FC3
:10066B00F0A4CFC5F02ECD39FEE43CFCEAA42DCE90
:10067B0035F0FDE43CFC2275F008758200EF2FFF8E
:10068B00EE33FECD33CDCC33CCC58233C5829BED5F
:10069B009AEC99E58298400CF582EE9BFEED9AFD63
:1006AB00EC99FC0FD5F0D6E4CEFBE4CDFAE4CCF913
:1006BB00A88222B800C1B90059BA002DEC8BF08486
:1006CB00CFCECDFCE5F0CBF97818EF2FFFEE33FE54
:1006DB00ED33FDEC33FCEB33FB10D703994004EB0C
:1006EB0099FB0FD8E5E4F9FA227818EF2FFFEE33D8
:1006FB00FEED33FDEC33FCC933C910D7059BE99AEA
:10070B004007EC9BFCE99AF90FD8E0E4C9FAE4CC7A
:10071B00FB2275F010EF2FFFEE33FEED33FDCC33E4
:10072B00CCC833C810D7079BEC9AE899400AED9BCD
:10073B00FDEC9AFCE899F80FD5F0DAE4CDFBE4CCAC
:10074B00FAE4C8F922C3E49FFFE49EFEE49DFDE4B6
:10075B009CFC22EB9FF5F0EA9E42F0E99D42F0EC07
:10076B006480C864809845F022EB9FF5F0EA9E42C6
:10077B00F0E99D42F0E89C45F022E8600FECC313D2
:10078B00FCED13FDEE13FEEF13FFD8F122E493FC07
:10079B00740193FD740293FE740393FF22ECF0A398
:1007AB00EDF0A3EEF0A3EFF022A8828583F0D083C7
:1007BB00D0821207CB1207CB1207CB1207CBE473F5
:1007CB00E493A3C583C5F0C583C8C582C8F0A3C590
:1007DB0083C5F0C583C8C582C822A42582F582E5EE
:1007EB00F03583F58322BC000BBE0029EF8DF0841E
:1007FB00FFADF022E4CCF875F008EF2FFFEE33FEDF
:10080B00EC33FCEE9DEC984005FCEE9DFE0FD5F015
:10081B00E9E4CEFD22EDF8F5F0EE8420D21CFEAD1E
:10082B00F075F008EF2FFFED33FD4007985006D51C
:10083B00F0F222C398FD0FD5F0EA22123BA19206EB
:10084B00D207123AA78E238F24900046E06009C38B
:10085B00940B7480948040069000467404F09000D2
:10086B0047E0FF64017003020CDBEF6402700302CC
:10087B000CDB122322B40B004003020BF790088F02
:10088B00F82828730208C90208B0020A630209EEAD
:10089B00020A92020AC0020AF2020B24020B5A024B
:1008AB000B8A020BBCC205200603020BF790004714
:1008BB00E064067003020BF7E4F0FF020960E52425
:1008CB00640545237011C205D3300301C392039015
:1008DB0000457408F08018300315D3E5249400E527
:1008EB0023648094805005123B3F5003755D0630A6
:1008FB000303020BF7E52464064523700DD3300583
:10090B0001C392059000457402F0300527123BB5E8
:10091B004003020BF77F667E667D461222FC600960
:10092B0040072011047F08802C1222F660324030E1
:10093B007F07805DE5246401452370267F9A7E99AD
:10094B007D391222FC6010400E3001047F028005BD
:10095B00900046E0FF803A1222F660044002803994
:10096B00804D122350702F30110280437F667E66BC
:10097B007D461222FC600740057F08020B85122280
:10098B00F66011400F3001047F028005900046E0B5
:10099B00FF020B8580193006057F03020B8512239E
:1009AB005770121222F6600740057F09020B8575FE
:1009BB005D06020BF7E524640445237018D3300160
:1009CB0001C392017F082001027F098F5DC20712CC
:1009DB00216B020BF7123BBC4003020BF7123BAC33
:1009EB00020BF77D03120CDC70122002033004059E
:1009FB00C20712216BC202C204123AE4E524640559
:100A0B0045237005200402D2043004031231503008
:100A1B000203020BF7300403020BF7E524640445D1
:100A2B00237002D202200603020BF77F9A7E997D78
:100A3B00391222FC60025003020BF77F04300102D3
:100A4B007F02122F8B3001031236E6900049E044EF
:100A5B0040F0755704020BF77D02120CDC60083076
:100A6B000508123BB54003123AE4122350700820DC
:100A7B0011057F08122F8B12235770057F09122F38
:100A8B008B122E8E020BF77D04120CF460083005CE
:100A9B0008123BB54003123AE412235070082011A0
:100AAB00057F08122F8B12235770057F09122F8B8E
:100ABB007F05020BF47D04120CE860083005081268
:100ACB003BB54003123AE412235070082011057F06
:100ADB0008122F8B12235770057F09122F8B7F065D
:100AEB00123B727F0480627D05120CE860083005B2
:100AFB0008123BB54003123AE41223507008201140
:100B0B00057F08122F8B12235770057F09122F8B2D
:100B1B007F07123B727F0580307D06120D00600847
:100B2B00300508123BB54003123AE412235070080B
:100B3B002011057F08122F8B12235770057F091286
:100B4B002F8B7F04123B727F06123B82020BF77DC9
:100B5B0007120D006008300508123BB54003123A2E
:100B6B00E4122350600330130A7F043001027F022A
:100B7B00122F8B12235770747F09122F8B806D7D70
:100B8B0009120CF46008300508123BB54003123A09
:100B9B00E412235070082011057F08122F8B1223AB
:100BAB0057700A7F043001027F02122F8B7F0A805D
:100BBB00387D0A7F01123220E52464014523600849
:100BCB00300508123BB54003123AE412235070086B
:100BDB002011057F08122F8B122357700A7F0430C8
:100BEB0001027F02122F8B7F09123B72900045127C
:100BFB002312400D9000001207B442A00000020C1B
:100C0B00BF200D09122322640970028008AF57EF31
:100C1B00122314400D9000001207B4BF8000000295
:100C2B000CBF12232264027006AC55AD56807B12AA
:100C3B002322640A70091223B5AC06AD07806B1230
:100C4B0023226403705E900048E014601C1460253E
:100C5B0014602E1460371460402405705790000008
:100C6B001207B441200000804B9000001207B441E2
:100C7B00C80000803F9000001207B442480000807B
:100C8B00339000001207B442C80000802790000088
:100C9B001207B443480000801B9000011205DCFDD5
:100CAB00ACF08006122344FDACF0EC12036A90000A
:100CBB00001207A8900000E0FCA3E0FDA3E0FEA358
:100CCB00E0FF1203A3121BB6900057EEF0A3EFF058
:100CDB00227F01123220E5246401452322E4FF1216
:100CEB003220E52464014523227F01123220E524C2
:100CFB006401452322E4FF123220E52464014523DD
:100D0B00228F2812053CFF14601514602814603DD7
:100D1B0014603A2404705C12294C12299380291216
:100D2B00294CF5827401F52D85822EE582F4F5822E
:100D3B00752F00801312294CF4F582752D008582D6
:100D4B002EEDF5827401F52F8582308026ED122968
:100D5B0093858230EDF5827401F52985822AEF6443
:100D6B00047007EDFF7401FE8005EDF4FF7E008E2D
:100D7B002B8F2C9000011205557007EDFF7401FEAF
:100D8B008005EDF4FF7E008E318F3290000212054C
:100D9B00557007EDFF7401FE8005EDF4FF7E00E555
:100DAB0028147003020E48147003020ECB14700348
:100DBB00020F4E24036003020FD8E529AB9A30E0F3
:100DCB0006E52A4BFD8004E52A5BFD8D9AE52B3069
:100DDB00E00890F0091229B3800690F0091229BAA5
:100DEB0090F009EDF0E52D30E0051229A380069077
:100DFB00F00A1229C190F00AEDF0E52F30E0051250
:100E0B0029AB800690F00B1229C890F00BEDF0EE99
:100E1B0030E0051229D7800890F00CE0FBEF5BFD6A
:100E2B0090F00CEDF0E53130E0051229CF80069003
:100E3B00F00D1229DEAF0590F00DEDF022E529AB98
:100E4B00A130E006E52A4BFD8004E52A5BFD8DA170
:100E5B00E52B30E00890F0191229B3800690F019B9
:100E6B001229BA90F019EDF0E52D30E0051229A307
:100E7B00800690F01A1229C190F01AEDF0E52F3090
:100E8B00E0051229AB800690F01B1229C890F01BCD
:100E9B00EDF0EE30E0051229D7800890F01CE0FB56
:100EAB00EF5BFD90F01CEDF0E53130E0051229CF42
:100EBB00800690F01D1229DEAF0590F01DEDF0229B
:100ECB00E529ABA230E006E52A4BFD8004E52A5B61
:100EDB00FD8DA2E52B30E00890F0291229B3800696
:100EEB0090F0291229BA90F029EDF0E52D30E005AC
:100EFB001229A3800690F02A1229C190F02AEDF056
:100F0B00E52F30E0051229AB800690F02B1229C893
:100F1B0090F02BEDF0EE30E0051229D7800890F021
:100F2B002CE0FBEF5BFD90F02CEDF0E53130E005B4
:100F3B001229CF800690F02D1229DEAF0590F02DEF
:100F4B00EDF022E529ABA330E006E52A4BFD80044A
:100F5B00E52A5BFD8DA3E52B30E00890F0391229D3
:100F6B00B3800690F0391229BA90F039EDF0E52DE7
:100F7B0030E0051229A3800690F03A1229C190F0B7
:100F8B003AEDF0E52F30E0051229AB800690F03BEF
:100F9B001229C890F03BEDF0EE30E008A3E0FDEF36
:100FAB004DFF800890F03CE0FDEF5DFF90F03CEFD3
:100FBB00F0E53130E009A3E0FDE5324DFF8009900B
:100FCB00F03DE0FDE5325DFF90F03DEFF022C39088
:100FDB00002AE0942C900029E0648094815071E405
:100FEB00FFFE7D7A7C44AB11AA10A90FA80E12014B
:100FFB00461203A38F2C8E2B8D2A8C2990002AE06E
:10100B0004F07006900029E004F0121AE2252CFF80
:10101B00EE352BFEED352AFDEC3529FC9000251223
:10102B0007A8121B4CC3121B93500A900021E52BEF
:10103B00F0A3E52CF0900023121B4FD3121B9350FF
:10104B00030210DA900023E52BF0A3E52CF0807F50
:10105B00121AE2FFC004C005C006C007900023E0CF
:10106B00FEA3E0FBAA06EA3395E0F9F8121B4CEF5E
:10107B002BFBEE3AFAED39F9EC38F8D007D006D065
:10108B0005D004C3EF9BFFEE9AFEED99FDEC98FCA7
:10109B00121ADCFFC006C00790002AE024FEFF9066
:1010AB000029E034FFAB07FA3395E0F9F8D007D00D
:1010BB0006123566121ADCFFEC120365121B9E90AA
:1010CB00002C1207A8121B001207B400000000AB83
:1010DB0059AA5AA95B9000051205DCFDACF04C70C7
:1010EB0006C214C2158060EC12036A121B9E8F2875
:1010FB008E278D268C25AB15AA14A913A812AF0D1C
:10110B00AE0CAD0BAC0A12024F7BF67A28795C78E9
:10111B003F1202EC5004D2148015AF28AE27AD2637
:10112B00AC25121AA760054003C38001D392147F2C
:10113B00CD7ECC7D2C121AA560054003C38001D354
:10114B009215301502C21490001FE0146023146036
:10115B004C14607A240360030212037466FFFEFDD5
:10116B00121AA5400302120390001F7401F0021221
:10117B00037F337E337D73121AA560074005E4901D
:10118B00001FF07FCD7ECC7D4C121AA55003121B95
:10119B00AF7433FFFEFD121AA5505D80297F667E6A
:1011AB00667D76121AA560074005E490001FF012C9
:1011BB001AA060074005E490001FF07F9A7E997D8E
:1011CB0039121AA5503290001F7403F0802A7F66E3
:1011DB007E667D76121AA560074005E490001FF02D
:1011EB00121AA060074005E490001FF07D40121A10
:1011FB00A260054003121BAFAF5DEF64066054AFF6
:10120B005DEF6408604DAF5DEF6409604690004789
:10121B00E06003022F12AB59AA5AA95B12053C706E
:10122B0005121B87602190001FE014600E14600FE5
:10123B001460102403701C755D0122755D0422750A
:10124B005D0222755D032290001EE0600302149084
:10125B00E4F55D2275230075244078007C007D0148
:10126B007BFF7A3E793E7E007F141204F412002E2F
:10127B00500F7408122C7C6401700302148F02143B
:10128B008A7DB07C40122C9C500302148FC283C207
:10129B0085C281D206123796D2847F057E00122535
:1012AB00261200477F337E337DE37C40AB0DAA0CC7
:1012BB00A90BA80A1202EC6002500DE5241524704C
:1012CB00021523122CAA50D2E52445237010C28498
:1012DB0004122C7C6401700302148F02148A752390
:1012EB0000752464C2847F147E00122526C2061268
:1012FB0037961200477F0A7E00122526752500754A
:10130B002604122C95C333CE33CED8F924FCF582A8
:10131B0074FF3EF583122C5BC004C005C006C007EA
:10132B00122C95C333CE33CED8F9122CE4D007D080
:10133B0006D005D0041207A8E52615267002152540
:10134B00E526452570BCAF0DAE0CAD0BAC0A90007D
:10135B00001207A89000141207B400000000E4F577
:10136B0025F526122C58C004C005C006C007122C48
:10137B0095C333CE33CED8F9122C67D007D006D015
:10138B0005D0041200559000141207A80526E52677
:10139B00700205256405452570C9122C58E4FBFA2B
:1013AB0079A0784012024F9000141207A8900018F1
:1013BB001207B400000000E4F525F5269000181282
:1013CB002C5BC004C005C006C007122C95C333CEDE
:1013DB0033CED8F9122C67122C58120051E4FBFAB9
:1013EB00F9F81202EC500F122C95C333CE33CED832
:1013FB00F9122C67801A122C95C333CE33CED8F941
:10140B00122CE4122C5BE4FBFA798078BF122CCD02
:10141B00122C58120051AB07AA06A905A804D00735
:10142B00D006D005D0041200559000181207A8055D
:10143B0026E526700205256405452560030213C7C2
:10144B00C3E524945D122CAF5013E4FFFEFD7C3FEB
:10145B00900018122C701202EC60025010E524154B
:10146B002470021523122CAA40030212FDE5244519
:10147B002370119000477402122C7F640160057F6A
:10148B0001122F8B2290001EE014B40900400302BE
:10149B0016759014AB75F003A4C58325F0C5837343
:1014AB000214C60214D902155E0215890215B9027F
:1014BB0015E4021628021654021666E4F55D121B9B
:1014CB006790001CE4F0A3740EF0A37402F090007C
:1014DB001CE0FEA3E0FFD3940CEE648094804005E7
:1014EB00755D018023D3EF940AEE648094804005F0
:1014FB00755D048013D3EF9408EE648094804005EF
:10150B00755D028003E4F55DD3EF9400EE64809487
:10151B00804003021675900030121AE5FF1203A3E8
:10152B007D64121B27AE2DAF2E7C007D0A1205A603
:10153B008E2D8F2EE52E452D7005121B75800D12ED
:10154B001BA8C333CE33CED8F9121B3190001E74B7
:10155B0003F02290001CE0B4FF0AA3E0B4FF057F68
:10156B0002121676121AB840027F02121B5B40035E
:10157B00021675121B7E740AF0A37404F022121A61
:10158B00F04003021675900030121AE5121B1DE590
:10159B002E452D7005121B75800D121BA8C333CE63
:1015AB0033CED8F9121B3190001E7405F022900037
:1015BB001CE0B4FF0AA3E0B4FF057F0412167612F9
:1015CB001AB840027F04121B5B4003021675121BF4
:1015DB007E740AF0A37406F022121AF0400302166E
:1015EB0075900030121AE5FFE4FBFA79207841126E
:1015FB000146121B6F900030121AE5121B1DE52ECF
:10160B00452D7005121B75800D121BA8C333CE33ED
:10161B00CED8F9121B3190001E7407F02290001CDB
:10162B00E0B4FF0EA3E0B4FF097F01123722E412EE
:10163B001B77121AB840027F01121B5B502C121B36
:10164B007E740CF0A37408F022121AF0501C900058
:10165B002B7480F090001E7409F022121B87700A05
:10166B00123BBC4005E490001EF022123722E4909E
:10167B00001CF0A3F022E51A700C740512391170DE
:10168B00030218028049123921D3EF9441EE648092
:10169B0094804002D213D3EF943CEE64809480404C
:1016AB0004D211800DC3EF9432EE6480948050020B
:1016BB00C211301305201102C213D3EF944BEE6409
:1016CB00809480400F740612391170030218027F48
:1016DB0001022F8B123921C3EF9437EE6480948073
:1016EB00500D900047E064067005F0FF122F8BAB96
:1016FB0059AA5AA95B9000081205557004C21280B2
:10170B001F123921D3EF9434EE648094804004D2BD
:10171B0012800DC3EF942AEE648094805002C212A3
:10172B0020120AE4F51BF51CF51DF51E22D39000C3
:10173B0058E09400900057E06480948050030218A6
:10174B0002123921EF24CCFFEE34FFAB07FAD3EBB7
:10175B009401EA64809480403FE0FEA3E0FF7C1795
:10176B007D701205A6D3EF9400EE64809480400246
:10177B00801D900057E0FEA3E0FFC3E49FFFE49EB3
:10178B00FE7C177D701205A6EF2401FFE43EFEAD33
:10179B0003AC0212059480047E007F00EF251EF53A
:1017AB001EEE351DF51DD3E51E9450E51D6480948A
:1017BB00C64006751D46751E50C3E51D648094809A
:1017CB005005E4F51DF51EEB251CF51CEA351BF544
:1017DB001BD3E51C94E0E51B648094AE4006751B9F
:1017EB002E751CE0C3E51C9420E51B6480945150BE
:1017FB0006751BD1751C20228E2D8F2E8D2F90F6EA
:10180B0092E030E708E4FFFEFD7C408008AF19AEA4
:10181B0018AD17AC161232ADAC2DAD2EEC12036A0F
:10182B00C004C005C006C007E4FBFA79807845AF59
:10183B0037AE36AD35AC3412024FD003D002D001E7
:10184B00D0001201468F3B8E3A8D398C38E52F60D4
:10185B004124FA70030218F524F9700302192A24A3
:10186B00EE6003021980AC2DAD2EEC12036AA804B6
:10187B00A905AA06AB077F9A7E997D997C45120232
:10188B004F8F338E328D318C308F198E188D178C84
:10189B00162275333575324875310312328E8F151A
:1018AB008E148D138C12AB15AA14A913A812123215
:1018BB00C15013AF15AE14AD13AC121232B68F1557
:1018CB008E148D138C12900020E0FC12036FA80471
:1018DB00A905AA06AB07AF15AE14AD13AC121202D5
:1018EB004F8F118E108D0F8C0E2275332D7532A6E6
:1018FB0075313312328E8F0D8E0C8D0B8C0AAB0D16
:10190B00AA0CA90BA80A1232C1506AAF0DAE0CADCE
:10191B000BAC0A1232B68F0D8E0C8D0B8C0A22ABD0
:10192B003BAA3AA939A838AF19AE18AD17AC1612A5
:10193B000051C004C005C006C007E4FFFE7DA57CB6
:10194B0043AB3BAA3AA939A838120146D003D002BF
:10195B00D001D00012024F1232ADE4FBFA797A7843
:10196B00441201461232AD1203A37B007A00791A9E
:10197B0012208C8F0922201207E490005EF0802346
:10198B0090005EE0FF3395E0FED3EF9408EE6480A9
:10199B0094804009C207C208E4F55CF02290005E17
:1019AB00E004F0E55DB40A004003021A949019BFFD
:1019BB00F82828730219DD0219E70219EE0219FC47
:1019CB000219F50219FC021A38021A94021A68025B
:1019DB001A38C207C208E4F55C021A94C207D2088F
:1019EB00021A94D207C208021A94D207D208021A1A
:1019FB0094C208E55C547FFFAE5DEE64037E00701D
:101A0B00027E03C3EE6480F8EF64809850090F5395
:101A1B005C80EF425C800B12355C7F8060027F0044
:101A2B008F5C12355CC36001D39207805CC2085394
:101A3B005C7FAF5DEF64097F0A70027F06D3EF64B2
:101A4B0080F8E55C6480984004C207802912354F0A
:101A5B006001D39206A2069207055C802CC2075345
:101A6B005C7FAF5CEF3395E0FED3EF9406EE6480C2
:101A7B0094804007C208E4F55D800E12354F60017B
:101A8B00D39206A2069208055CA2079209A20892BD
:101A9B000A1237FD227D60E4FFFE7C4090002CE0B3
:101AAB00F8A3E0F9A3E0FAA3E0FB0202EC90001C20
:101ABB00E0FAA3E0FB7C007D04FFAE021205A68CCE
:101ACB002D8D2ED3E52E9401E52D648094807F001F
:101ADB00229000251207A8900025E0FCA3E0FDA3AF
:101AEB00E0FEA3E022D390001DE0940090001CE0E8
:101AFB006480948022900021747FF0A374FEF0A385
:101B0B007480F0A37402F0E4900029F0A3F090002D
:101B1B002522FF1203A38E2D8F2E7D0A7C0012052A
:101B2B00A68C2D8D2E2224FFFFEE34FF90001CF08F
:101B3B00A3EFF0227C40AB11AA10A90FA80E020252
:101B4B00EC900021E0FEA3E0FFEE3395E0FDFC22DC
:101B5B008F5DD3EB9400EA6480948022AF15AE14B2
:101B6B00AD13AC129000300207A874FF90001CF06C
:101B7B00A3F022E4F55D90001CF0A32290002BE073
:101B8B005480FF3395E04F22AB2CAA2BA92AA8290E
:101B9B0002075EE4FBFA797A784402024FAE2DE538
:101BAB002E78022290001F7402F0228E258F263091
:101BBB00120DD3E5269400E525648094805005AE84
:101BCB0025AF2622AC1DAD1EEC12036A7B007AA05A
:101BDB00798C784612024F8F2A8E298D288C27E418
:101BEB00FBFA79C87842120146121CB0AC1BAD1C33
:101BFB00EC12036A7B007A80793B784612024F8F96
:101C0B00328E318D308C2FAB2AAA29A928A827C058
:101C1B0000C001C002C003E4FFFE7D207C41AB325B
:101C2B00AA31A930A82F120146D003D002D001D07F
:101C3B0000120055121CB0D3E5269484E525648070
:101C4B00948350057E037F8422E526247CFDE525C5
:101C5B0034FCFC12036AE4FBFA79C8784212024F97
:101C6B008F2E8E2D8D2C8C2BAB2EAA2DA92CA82B29
:101C7B00C000C001C002C003AB2AAA29A928A8270B
:101C8B00123929120051D003D002D001D000120119
:101C9B00468F2E8E2D8D2C8C2B1203A3EF2484FFBD
:101CAB00EE3403FE228F2A8E298D288C2712382F93
:101CBB008F2A8E298D288C2722E50864037002F564
:101CCB0008E508146042147003021D7414700302BB
:101CDB001DBB24036003021DB8D207123B15E4F5AC
:101CEB0028F52974522529F582743E3528F583E4AD
:101CFB0093FF123281EFF00529E529700205286464
:101D0B0004452870DE021DB3E4F528F52912328153
:101D1B00E0FF1232CB400F1232D54018EF941FEE7A
:101D2B0064809480500E0529E5297002052864040F
:101D3B00452870D9C3E5299404E528648094805024
:101D4B0023123281E0F52CFF3395E0FE4F6006EF56
:101D5B0064064E7005C207123B15AF2C1233F0759B
:101D6B000802804C7508038047753000753100758B
:101D7B00322C7B007A00792A1227EFEF4E6031ADBF
:101D8B002CAF2BAE2A121803E4F528F52912328159
:101D9B00E0B52C0612328174FEF00529E52970029C
:101DAB0005286404452870E57508018003E4F508EF
:101DBB00900040E06009E50864036003021CC42244
:101DCB00900059E0600A200E0714F0E07002D284F4
:101DDB00900057E0FEA3E0FF900055E06E7003A368
:101DEB00E06F7003021EB2900055EEF0A3EFF0D33C
:101DFB009400EE648094805029122C806409600C4E
:101E0B0090005A1207B400000000D20E900055E06B
:101E1B00B4FF08A3E0B4FF03D38001C39281122C5B
:101E2B00C622900055E0FEA3E0FFC394F4EE64805D
:101E3B00948150368E278F28E4F52CF52B752A804C
:101E4B0075293FFFFE7DC87C42121EB37D187C4175
:101E5B00122C9C50028001C3928120840690005961
:101E6B00740AF0D283C285D20E22900055E0F5277A
:101E7B00A3E0F528752CC3752BF5752A8875293FBA
:101E8B007F007E007D407C40121EB3D281122C80DD
:101E9B0064097004D2848009208406900059740A66
:101EAB00F0C283D285D20E2212289890005A1207C4
:101EBB00A8228B3C8A3D893E8F428E418D408C3FC0
:101ECB00E4F543F54BF54AF549F548E4FFFEFDFC17
:101EDB00AB42AA41A940A83FD312075E5003021F91
:101EEB0070AB3CAA3DA93E854B82854A83120555B2
:101EFB006243E4754708F546F545F544E4FFD31214
:101F0B003873402DE54330E70825E06407F543803F
:101F1B0006E54325E0F54374FF2547F547E54634D1
:101F2B00FFF546E54534FFF545E54434FFF54480C0
:101F3B00CBE4FAF9F8E54B2401F54BEA354AF54ABF
:101F4B00E93549F549E83548F54874FF2542F5422E
:101F5B00E54134FFF541E54034FFF540E53F34FF03
:101F6B00F53F021ED6E4F547F546F545F544E47F0B
:101F7B0029C31238735023E547903E15936243E40F
:101F8B00FAF9F8E5472401F547EA3546F546E93510
:101F9B0045F545E83544F54480D4AF43227523011C
:101FAB00E4F524752501FB7D027F021230731220AC
:101FBB007E7F057E001225267F0230A2027F0390D2
:101FCB000020EFF0C2A275230312207E1200477F80
:101FDB009A7E997D39121B3F500890001F7403F0B5
:101FEB0080277FCD7ECC7D4C121B3F5005121BAF43
:101FFB0080177466FFFEFD121B3F500890001F7484
:10200B0001F08005E490001FF0C214C215121B00F2
:10201B001207B400000000AF11AE10AD0FAC0E9064
:10202B00002C1207A8121B67E490001EF0900047CB
:10203B00E0703FF526F527900020E0FF3395E0FE9A
:10204B00C3E5279FEE6480F8E52664809850167FE1
:10205B00041237227FA07E001225260527E5277064
:10206B00D6052680D27F907E0112252690002B74F8
:10207B0080F0227B007A0079237D047F02120D0C05
:10208B00228B3C8A3D893E8F428E418D408C3F7F17
:10209B00D57E2C7D517C00D3123A5B4006123A510F
:1020AB007FD822E47FE37E0AC3123A445006123AE9
:1020BB00517F7D227401123A52E47FF57EF5D312E3
:1020CB003A444038E4F543F544AE43E5447802C363
:1020DB0033CE33CED8F924D0F582743B3EF5831240
:1020EB000798C3123A5B4006E54424D8FF22054407
:1020FB00E54470020543644B454370CDE4F543F56D
:10210B0044E54425E0FFE54333FE74FC2FF5827470
:10211B003C3EF583E493FE740193FFE48F488E47B6
:10212B00F546F545E548F548E547F547E4F546F549
:10213B0045AF42AE41AD40AC3FAB48AA47A946A81C
:10214B0045D31207745006E5442423FF220544E5CA
:10215B004470020543645B454370A6123A51FF225B
:10216B00C2AF0075FBAA200733E4F52CF52DE52D46
:10217B00F5FCE52CFFEFF5FD0075FF1100000000ED
:10218B000000E5FF20E0FB742E252DF8A6FE052DA3
:10219B00E52D7002052C6407452C70D290005FE092
:1021AB00F537A3E0F538900048E0F53A85553585CD
:1021BB0056367F003001027F018F397A0079351254
:1021CB003881121EBD8F3B200707E53BB5340280DB
:1021DB0054E4F5FCF5FD0075FF1D00000000000048
:1021EB00E5FF30E006E5FF30E5F622E4F52CF52DB2
:1021FB00AF2D74352FF8E6F5FEEFF5FCE52CFFEF70
:10220B00F5FD0075FF19000000000000E5FF30E050
:10221B0006E5FF30E5F622052DE52D7002052C6451
:10222B0007452C70CB75FB5500D2AF22200E030255
:10223B0022F530102390F129E030E0030222F590D3
:10224B00F164E0300F0554FEFF80034401FF90F171
:10225B0064EFF0C20EC21022E4FFFE7DC87C421276
:10226B003B921202EC600C400A90005A1207B442E7
:10227B00C80000E4FFFEFDFC123B921202EC500A78
:10228B0090005A1207B400000000AF26AE25AD2413
:10229B00AC23EC4D4E4FC36001D3920F7F007E8079
:1022AB007DBB7C45123B92120146E4FBFA798078A8
:1022BB00BF1200558F268E258D248C23E4FBFA79D3
:1022CB00C8784212024F8F268E258D248C23120341
:1022DB00A3AD07AC06ECFFEF90F141F0ED90F140B0
:1022EB00F0D21090F129E04401F0227FCD7ECC7D1D
:1022FB002C7C4090002CE0F8A3E0F9A3E0FAA3E0DB
:10230B00FB0202EC90004BE0FF3395E0FED3EF9421
:10231B0000EE6480948022AB59AA5AA95B02053C5B
:10232B0075F00490004BE0FD12051AAFF0EF3395FA
:10233B00E0F5258F26D3E52622900001AB59AA5A4A
:10234B00A95B0205DCE5246402452322E524640332
:10235B00452322FFAEF0E5569FEE6480F8E5556409
:10236B00809822E054C0F0C3ED9406EC6480948016
:10237B0022E0FF543FF523FD3395E0FC4D22940101
:10238B00E5256480948022EF3395E0FEC3EF22EDC8
:10239B00FF3395E04F22E0FE5480FD3395E04D2254
:1023AB007557048E558F56D2002290004CE0B4071F
:1023BB000040030224699023C8F82828730223DD08
:1023CB000223EA02240502241302243302244102CD
:1023DB00246190004B740BF0A37401F0022469127A
:1023EB00232B1223894002805512239A7070900080
:1023FB004B7407F0A37402F0806412230F505F74C8
:10240B0023F0A37403F0805675F00C12232E940561
:10241B0012238B4002802712239A704290004B7438
:10242B0007F0A37404F0803612230F5031740BF0B5
:10243B00A37405F0802812232B1223894007122343
:10244B0044FFAEF02212239A701490004B7423F0C9
:10245B00A37406F0800812230F5003E4A3F07EFF51
:10246B007FFF22EF14603814605F1470030224FEA8
:10247B00240360030225251229764003022525300B
:10248B00070EA8057401088002C333D8FC428022D2
:10249B00A8057401088002C333D8FCF452802212C1
:1024AB002961507612296D407130070EA805740111
:1024BB00088002C333D8FC429022A805740108801F
:1024CB0002C333D8FCF4529022122940504C1229EB
:1024DB007F404730070EA8057401088002C333D82C
:1024EB00FC42A022A8057401088002C333D8FCF477
:1024FB0052A022ED122944502130070EA805740179
:10250B00088002C333D8FC42B022AF05A807740180
:10251B00088002C333D8FCF452B0228E2F8F30E4E4
:10252B00F535F536E530452F70030225DB0536E52D
:10253B003670020535AE2FAF30EE3395E0FDFCE47F
:10254B007BA07A0FF9F81206338F348E338D328CD1
:10255B0031C006C007AE35AF36AB07AA06EA3395D6
:10256B00E0F9F8D007D0061206BE8F348E338D32C9
:10257B008C31E47FFF7EFFFDFCAB34AA33A932A87C
:10258B0031C312077450A6C374FF9534F53474FF2E
:10259B009533F533E49532F532E49531F531AF34BB
:1025AB00AE33AD32AC3178081207858F8CE534FF32
:1025BB008F8AC20B438810E58820E503300BF85354
:1025CB0088CFE536153670021535E536453570CEB4
:1025DB00221239517005900054F022D3900058E02C
:1025EB009400900057E064809480500302269090F2
:1025FB000054E0547FF523E4FFFE7D9012395A50CE
:10260B001912393C5007E5232402FF80027F088F03
:10261B0023900054E0547FF080417FCD7ECC7DE44D
:10262B0012395A601A401812393C5006E52304FF40
:10263B0080027F088F23900054E04480F0801CAF11
:10264B0023EF3395E0FED3EF9400EE64809480404B
:10265B0006E52314FF80027F008F23900054E05483
:10266B0080F04523F012393C401BE05480FF33953A
:10267B00E04F7F0360027F04EF12394D6401600568
:10268B007F01122F8B22C2AF0075FBAAE4F523F555
:10269B00248524FCE523FF8FFD0075FF110000004E
:1026AB00000000E5FF20E0FB74252524F8A6FE05BD
:1026BB0024E524700205236407452370D475FB556C
:1026CB0000D2AF7A007925123881121EBDEFB52BDF
:1026DB001F90005FE527F0A3E528F0900048E52A5E
:1026EB00F0852555852656E529C36001D392012235
:1026FB00E4900048F075550375562090005F7409FF
:10270B00F0A3745FF0E4F523F524903DB212385E2C
:10271B006402700D903DB512385EF555740193F55A
:10272B00560524E52470020523640B452370DBC298
:10273B0001D20712216B22E4F5DE90F692F09000A5
:10274B004004F0E4F508FFEFFD3395E0FCC3ED9496
:10275B0004EC648094805015EF3395E0FC74342DB9
:10276B00F58274003CF58374FEF00F80DA9000382C
:10277B001207B4000000001232A4F0A3F0FB7D019D
:10278B007F03123073E4FB7D037F01123073E4FB94
:10279B00FDFF123073752503E4F526F527FB7D024B
:1027AB007F031227E57D087F011227E57A00792543
:1027BB007D01E4FF120D0CC2077D017F0312246E15
:1027CB00C2077D037F0112246EC207E4FDFF1224B2
:1027DB006EC207E4FD7F0302246E7A007925120D89
:1027EB000C7B00228B2D8A2E892FE5DF30E10280B6
:1027FB005090003DE004F0700690003CE004F09037
:10280B000038E0F8A3E0F9A3E0FAA3E0FBAFDDEFBB
:10281B00FEADDCEDFFEE3395E0FDFCEB2FFFEA3E6A
:10282B00FEE93DFDE83CFC9000381207A8C3900080
:10283B003DE0940A90003CE064809480500743DFB5
:10284B0002E4FEFF22900038E0FCA3E0FDA3E0FED3
:10285B00A3E0FFE47B0AFAF9F81235669000381210
:10286B0007A8900038A3A3E0FFA3E0AB2DAA2EA9E5
:10287B002FCF8FF012061490003EE0AB30AA31A997
:10288B0032120582E490003FF0FE7F01228F268EEC
:10289B00258D248C23AC27AD28EC12036AAB26AA1A
:1028AB0025A924A823122C89E4FBFA797A784412FF
:1028BB00024F122C8C7B9D7A69795C783C12024F0B
:1028CB00122C8CAB2CAA2BA92AA829122C89C00458
:1028DB00C005C006C007E4FFFE7D7A7C44AB19AA95
:1028EB0018A917A816122CCDD007D006D005D004E6
:1028FB0012024F122C8CE4FBFA79C87842122C8905
:10290B00E4FFFE7DC87C42122CD9600D400BE4F530
:10291B0030F52F752EC8752D42E4FFFEFDFC122CF1
:10292B00D95009E4F530F52FF52EF52DAF30AE2F3C
:10293B00AD2EAC2D22EDFF7E00D3940674809480D7
:10294B0022EDF4F58275830085832985822A8583A0
:10295B002B85822CED22EDFF7E00D394077480949F
:10296B008022C3EF94037480948022EDD39405747A
:10297B0080948022C3EF94017480948022FBE43412
:10298B00F0FAA80574010822F4F58275830085839B
:10299B002D85822E85832F22A3E0FBE52E4BFD2276
:1029AB00A3E0FBE5304BFD22E0FBE52C4BFD22E0E9
:1029BB00FBE52C5BFD22E0FBE52E5BFD22E0FBE55E
:1029CB00305BFD22A3E0FBE5324BFD22A3E0FBEFE6
:1029DB004BFD22E0FBE5325BFD227D087F021238C6
:1029EB00B9404F900061E025E0F030A306E04401D0
:1029FB00F08007900061E054FEF0900061E0FF541E
:102A0B000FFEFD7C00640F6003EF7026E4F5B4ED60
:102A1B00640F4CD37001C39216AF06EF640F7B01AA
:102A2B0070027B027D037F021232DF7D087F021270
:102A3B003AC6301608E54F30E703754F803016273E
:102A4B00E54E64857021120003D3EF9400EE648091
:102A5B0094804005123AFD800BE4F552F554755104
:102A6B0001755001E4F54E201613E54F6484700D8B
:102A7B00F54FE550700475530122E4F55022E4F54F
:102A8B0025F526F527FB7A0079257D027F01120DAE
:102A9B000C7B007A0079257D01E4FF120D0C7D0281
:102AAB00122B1B7B017D017F031230737B017D0396
:102ABB007F011230737B01E4FDFF12307375250328
:102ACB00E4F526752701FBFD7F031230737D0112A0
:102ADB002B1BD207E4FD7F0312246E75DF4075DEDE
:102AEB0060E4F5E9F5D1F5D375D50F75D4FF90F604
:102AFB009274A0F0E4F5089000381207B4000000BF
:102B0B00001232A4F0A3F0A304F043DE80020047CE
:102B1B007B007A0079257F03120D0C2278FFE4F6F7
:102B2B00D8FD9000007F007E04E4F0A3DFFCDEFA0A
:102B3B0075815F022B7C0230E5E493A3F8E493A349
:102B4B004003F68001F208DFF48029E493A3F854E4
:102B5B0007240CC8C333C4540F4420C8834004F467
:102B6B0056800146F6DFE4800B010204081020407A
:102B7B008090343FE47E019360BCA3FF543F30E56B
:102B8B0009541FFEE493A360010ECF54C025E060EF
:102B9B00A840B8E493A3FAE493A3F8E493A3C8C5BD
:102BAB0082C8CAC583CAF0A3C8C582C8CAC583CAAE
:102BBB00DFE9DEE780BEEF14602214603C14605640
:102BCB00240370741229764002806DED2480122943
:102BDB00888002C333D8FC55ACFC8060122961504D
:102BEB000512296D50028050ED248812298880022D
:102BFB00C333D8FC55ADFC80431229405005122934
:102C0B007F50028033ED24901229888002C333D881
:102C1B00FC55AEFC8026ED1229444002801AED24AF
:102C2B0098FBE434F0FAAF05A8077401088002C3DF
:102C3B0033D8FC55AFFC8004E4FEFF22EC7003FE9E
:102C4B00FF228B828A83E05403FF7E0022900014C4
:102C5B00E0FCA3E0FDA3E0FEA3E0FF222400F5824D
:102C6B0074003EF583E0F8A3E0F9A3E0FAA3E0FBE0
:102C7B0022900047F0AB59AA5AA95B02053C1201FE
:102C8B00468F308E2F8D2E8C2D22AE25E526780289
:102C9B0022E4FFFEAB15AA14A913A8120202ECD36F
:102CAB00E5249400E5236480948022E4900057F09F
:102CBB00A3F0900055F0A3F022C281C284C283C25C
:102CCB008522120146A804A905AA06AB0722AB3040
:102CDB00AA2FA92EA82D0202EC2400F58274003E27
:102CEB00F583227B147D047F021230737B157D05E7
:102CFB007F0212307390F121E0440CF090F12474B8
:102D0B0001F090F12C74FFF0A3F090F127E0440C4C
:102D1B00F0A3740CF090F164E0440CF090F1357476
:102D2B0009F090F134745FF090F1377409F090F181
:102D3B0036745FF0123541948940077409F0A3741F
:102D4B005FF0C3900060E0943212354894805006D7
:102D5B00E4F0A37432F012352090F126E0440CF02D
:102D6B0090F129E0440CF090F129E0540C70F8221A
:102D7B0090001EE0700BAB59AA5AA95B12053C6080
:102D8B0007754C00754D2822D3E54D9400E54C6436
:102D9B008094804009E54D154D7002154C22C206FA
:102DAB001238E5438704438702123B2AD2071239B4
:102DBB008F123A877F017E001225261229E5123BDE
:102DCB003F50F1D2061238E5E4F523F52412004703
:102DDB00120FD93015130524E52470020523C39473
:102DEB0003E5236480948040E4E524640345237069
:102DFB0005F54C754D0FE4900040F022752503E46A
:102E0B00F526752701C2077D02FF12246E7B007A1F
:102E1B000079257D04E4FF120D0C7B127D02E4FF8B
:102E2B0012307390F120E4F0A304F090F123F090B2
:102E3B00F12A74FFF090F122E4F090F12704F0A353
:102E4B00F090F160E4F090F165F090F16404F09093
:102E5B00F1317417F090F130746FF090F141E4F0B0
:102E6B0090F140F090005A1207B400000000C2101D
:102E7B00C20E90F1267401F090F129F090F129E047
:102E8B0070FA22123BB5500C20000974032556F53D
:102E9B0056E48010123BBC501120000E74FD2556D9
:102EAB00F55674FF3555F555800F123BBC400A1291
:102EBB003BB54005300002C200123BB5500F20005D
:102ECB000C122344C312235E40031223AB123BBCF0
:102EDB00501220000F900003122347D312235E5091
:102EEB00031223AB123BB54005123BBC5004E4F577
:102EFB005822AF58EF3395E0FEEF64204E70070574
:102F0B0058C20712216B2290004DE0FEA3E0FFC3D5
:102F1B009405EE64809480501AEE7015EF14600BDC
:102F2B0014600C24027055755D0122755D042280BE
:102F3B00458049900047E0FF7E007C007D0612052E
:102F4B0094EF2405FFE43EFE90004DE0FCA3E0FD72
:102F5B00C39FEE6480F8EC6480985020ED24FBFF57
:102F6B00EC34FFFE7C007D031205A67C007D021273
:102F7B0005A6ED4C7004755D02228000E4F55D2220
:102F8B008F28122322F52BE4F529F52A903DB275F3
:102F9B00F009E52A1207E5E52975F009A42583F563
:102FAB0083E4936528703A90004CF0AE29AF2AFC6D
:102FBB007D0912059474B22FF9743D3E7559FFF5D6
:102FCB005A895BE52864087014E52B6408600EAF22
:102FDB0015AE14AD13AC1290004F1207A8E4FEFF10
:102FEB0022052AE52A70020529640B4529709D7E6E
:102FFB00007F0122123BB550051223227007E4908B
:10300B000049F0802990004912237C7007EF20E6DD
:10301B00034480F090004912236E5008E020E60430
:10302B0005238003E4F523900049E04523F0123B90
:10303B00BC50051223227006E490004AF022900047
:10304B004A12237C7007EF20E6034480F090004A7D
:10305B0012236E5008E020E60405238003E4F523D9
:10306B0090004AE04523F022EBF5826402606AE5AA
:10307B008264036064E5826419605ED3E582941C0C
:10308B00748094805053EF14601414602014602FDC
:10309B00240370451229765040ED2400802A122912
:1030AB0061503612296D4031ED2410800D122940EC
:1030BB00502712297F4022ED2420F529EE800CEDBC
:1030CB001229445014ED2430F529E434F0F528EBA3
:1030DB00541F852982852883F022123B2AD207129E
:1030EB00398F1239DC123967122A89123A66123972
:1030FB00B61234D9122E0712375C12125F121FA8A8
:10310B00122CEE12000EE4900040F0120047122930
:10311B00E5120FD9120846121681121DCB12223757
:10312B00300CE8C20C123B621236AA121981123310
:10313B003A122FFF1235AA1235EC1225DC123395F9
:10314B00122D7B80C690F129E0540C7060900042E8
:10315B00E014F0E070577408F0900041E07027C362
:10316B00900060E0945F90005FE064809489500E63
:10317B00A3E004F0703490005FE004F0802C90002A
:10318B00417401F08024D3900060E0943290005F92
:10319B00E064809480400EA3E024FFF090005FE099
:1031AB0034FFF08005E4900041F012388C227D034F
:1031BB007F02122BC1EF64014E7034C216E54E54E0
:1031CB007FFFE4F54EE5507004E5546007E4F554D9
:1031DB00F5508033EFC39405502D120003C3EF94C9
:1031EB000AEE6480948050020552754F808018D28D
:1031FB0016754C00754D28E54F30E703754F80E58C
:10320B004E20E703754E807D087F02123A22900014
:10321B0061740AF0228D25201409201506E4900014
:10322B0043F022900043E0FD3395E0FCED4C70033E
:10323B007480F0900043E0547FF526201505752728
:10324B00098003752702EF6014301511AF26122386
:10325B00929403EE648094804003023AE4D3E52712
:10326B006480F8E526648098400B9000437480F0EE
:10327B00AF25122F8B2274342529F5827400352843
:10328B00F5832275303EAB33AA32A931A830AF3B60
:10329B00AE3AAD39AC3802024FE490003CF0A3F0EB
:1032AB00A3228F378E368D358C34227BCD7ACC7919
:1032BB00CC783D020051E4FFFE7D407C400202ECE5
:1032CB003395E0FEC36480948022D3EF9416EE64B2
:1032DB0080948022EBD312296F5053EF1460141497
:1032EB00602014602F240370451229765040ED2482
:1032FB0080802A122961503612296D4031ED2488C5
:10330B00800D122940502712297F4022ED2490F581
:10331B0027EE800CED1229445014ED2498F527E488
:10332B0034F0F526EB5403852782852683F0221291
:10333B00230F4003E014F0AF581223929420EE6455
:10334B0080948050020558AF57EF1223144002159A
:10335B00579000451223124003E014F0900043E015
:10336B00FF30E720547FFEEF5480F0EEFD3395E005
:10337B00FCC3ED940AEC6480948050010E900043E2
:10338B00E04EF022E4900043F022123951640860C1
:10339B0006E4900053F022900053E0FF3395E0FEDB
:1033AB00C3EF940AEE648094805039E004F0AB15BF
:1033BB00AA14A913A81290004FE0FCA3E0FDA3E010
:1033CB00FEA3E0FF1200517BCD7ACC794C784012F2
:1033DB0002EC6002500E740712394D640160057FD8
:1033EB0001122F8B22AB0790003FE07046EB12329D
:1033FB00CB40401232D5400AEF941FEE648094808C
:10340B0040319000381207B4000000001232A4EBD8
:10341B00F0A37401F0EB30E40543DF80800353DF4E
:10342B007F53DEF0EB540F42DE7F967E0012362D7B
:10343B0043DF0222C10CC10BC10DC116015C00415F
:10344B0000590041002B004100200342001C0000EA
:10345B00021B0000021D0000C112C111C113C117D4
:10346B0041004300410049004100450041004A0032
:10347B004100440041004B00410041004100420823
:10348B00C10000C0E0C0F0C083C082C0D075D000C6
:10349B00C000C001C002C003C004C005C006C00705
:1034AB0075C900151FB20DE51F7008751F04D20CEE
:1034BB001237CBD007D006D005D004D003D002D022
:1034CB0001D000D0D0D082D083D0F0D0E0327523A1
:1034DB0001E4F524F525FB7D037F021230737B009D
:1034EB007A0079237D087F02120D0C7D087F021272
:1034FB003AC67B027D037F021232DF754C00754D9D
:10350B002890006174FFF0E4F54EF54FF551F5523C
:10351B00F553F5542290005FE0FCA3E0FDECFFEFC8
:10352B0090F145F0AE05ED90F144F090F147EFF0DE
:10353B0090F146EEF022D3900060E0945F90005F34
:10354B00E0648022E55C75F00212051AAFF0EFC360
:10355B0022E55C5480FF3395E04F22C2D5E830E77B
:10356B000FB2D5E4C39BFBE49AFAE499F9E498F81B
:10357B00EC30E717B2D512359C1206BEE4C39BFBA9
:10358B00E49AFAE499F9E498F880031206BE30D570
:10359B000DE4C39FFFE49EFEE49DFDE49CFC2290A2
:1035AB000047E0FF7E00700590004D803090004E8C
:1035BB00E004F0700690004DE004F07C007D0612F4
:1035CB000594EF240FFFE43EFEC390004EE09FEE08
:1035DB006480F890004DE06480984004E4F0A3F020
:1035EB002230020712232264036006E4900044F0A9
:1035FB0022900044E004F0E0FF1223939410EE6459
:10360B00809480401CE4F0900048E0FF94057480A7
:10361B00948050060FBF00008002E4FF900048EF3B
:10362B00F022AD07AC06A2AF9207ED7802C333CE02
:10363B0033CED8F9FDAC06C374FF9DFD74FF9CFF20
:10364B00EFF58CAF05EFF58A53A87D438810E5881D
:10365B0030E5FB5388CF30070443A8822243A802EE
:10366B0022C0E0C0F0C083C082C0D075D000C000C3
:10367B00C001C002C003C004C005C006C0071231A0
:10368B00B975B600D007D006D005D004D003D00250
:10369B00D001D000D0D0D082D083D0F0D0E0321285
:1036AB001AF0400CA3E024FFF090001CE034FFF074
:1036BB0090002BE0FF30E71D547FFEEF5480F0EEBF
:1036CB00FD3395E0FCC3ED940CEC648094805005C5
:1036DB000EE04EF022E490002BF022755503755648
:1036EB0020E4FFFE903DB275F009EF1207E5EE12F4
:1036FB00386864027015903DB575F009EF1207E557
:10370B00EE123868F555740193F5560FBF00010E94
:10371B00EF640B4E70CE22C206C207EF24FE600E82
:10372B0024FE601024037010C206D207800AD20652
:10373B00C2078004D206D207A2069209A207920AF8
:10374B001237FD7F147E00122526C209C20A0237EA
:10375B00FD752503752601752701122CC47D0212F8
:10376B0037847D10E4FF120D0C7D081237847D2009
:10377B00E4FF120D0C122CB6227B007A007925E4A3
:10378B00FF120D0C7B007A0079252290F141740118
:10379B00F07F003006027FFF90F140EFF090F129AF
:1037AB00E04401F090F129E020E0F990F164E03081
:1037BB000F0554FEFF80034401FF90F164EFF022EC
:1037CB00E54E30E711547FFFC3940550010F534E64
:1037DB0080EF424E8003E4F54EE54F30E710547F07
:1037EB00FFC3940450010F534F80EF424F22E4F577
:1037FB004F2290F126E0540C7009A20992A4A20A60
:10380B0092A52290F164E0FF3009055307FB80037A
:10381B00430704300A055307F7800343070890F169
:10382B0064EFF0228F368E358D348C33123929129A
:10383B0039316006400412392922E4FFFEFDFC12E7
:10384B0039315006E4FFFEFDFC22AF36AE35AD3408
:10385B00AC332275F009E5241207E5E52375F00971
:10386B00A42583F583E49322FEFDFCAB47AA46A96E
:10387B0045A84402075E7B007F067E007D007C002E
:10388B0022123541948940077409F0A3745FF0C389
:10389B00900060E0943212354894805006E4F0A317
:1038AB007432F012352090F129E0440CF022EF1421
:1038BB0060111460151460192403701CE5AC5D6075
:1038CB0017D322E5AD5D6010D322E5AE5D6009D361
:1038DB0022E5AF5D6002D322C3223006171239678F
:1038EB00122A89122E0712375CE490001EF0122C5C
:1038FB00EE02000E123B52C20712398F1239FF1221
:10390B002742123BC322900047F0AB59AA5AA95B3E
:10391B0012053C640122AF09EF3395E0FE22E4FF70
:10392B00FE7DC87C4222AB36AA35A934A8330202ED
:10393B00ECAF23EF3395E0FEC3EF9408EE64809475
:10394B008022900047F0AB59AA5AA95B02053C7C38
:10395B0040AB0DAA0CA90BA80A0202EC752503E4D7
:10396B00F526752701C2A4C2A5FB7D101239857BF4
:10397B00007D20123985E4F55D227A0079257F02DE
:10398B00120D0C22E4200706F5C853A8DF22F5CE52
:10399B0075CB0B75CADB75CD5D75CC6643A820F571
:1039AB00C975CF80751F0475C89122E4F55712268F
:1039BB0091E490004CF09000467404F0E4A3F07591
:1039CB0059FF755A3D755BB2C203C202C204C205F0
:1039DB00227523007524FFC20C7F017E0012252661
:1039EB00200C10E524152470021523E524452370C3
:1039FB00E880FE22E4FB7D02FF123073C2077D02DA
:103A0B00E4FF12246E90F121E4F090F126F090F196
:103A1B0024F090F123F022EF14600F146011146066
:103A2B001324037013EDF452AC22EDF452AD22EDDE
:103A3B00F452AE22EDF452AF22FDFCAB42AA41A9E7
:103A4B0040A83F020774E4AB3CAA3DA93E020582A5
:103A5B00AB42AA41A940A83F0207747523407F0AD5
:103A6B007E00122526120047E51A7003D523EFE5D9
:103A7B00237008755D0412198180FE227D087F0278
:103A8B00123A2290006174AAF0D216E54F30E70388
:103A9B00754F80E54E20E703754E8022E55070048C
:103AAB00E5546004E4FEFF22E5537003FEFF22128F
:103ABB000003300705E4F553F55222EF14600E14A2
:103ACB00600F1460102403700FED42AC22ED42AD79
:103ADB0022ED42AE22ED42AF22122322FF60129062
:103AEB0000071205556005900046EFF0E4FF122F1A
:103AFB008B22E4F54FF553F552F550F551EF640178
:103B0B004E7F0070027F018F542253DE7F007F00B7
:103B1B002007027FA090F692EFF00043DE80225345
:103B2B0088CF5389F0438901E4F58CF58A75A80297
:103B3B0043A88022E5516002D322E5536002D322D1
:103B4B00E554C36001D322C2AF007596AA75965592
:103B5B005397FD00D2AF22C2AF007596AA7596554A
:103B6B0043970100D2AF229000491223A16007EEC8
:103B7B00547FF0122F8B2290004A1223A16007EE84
:103B8B00547FF0122F8B2290005AE0F8A3E0F9A398
:103B9B00E0FAA3E0FB22E5517002C322E4F551D316
:103BAB002290001EE0700204F022E550C36001D3A6
:103BBB0022E554C36001D322122CB6122CC422531B
:103BCB0088EFD20B3200512CD5004B18690045847D
:103BDB005700406521003BB06200375CB600336193
:103BEB009B002FB760002C570700293A3D00265B3E
:103BFB00410023B4DC0021424D001EFF45001CE7B1
:103C0B00D5001AF86900192DBE001784DA0015FBD0
:103C1B000600148DC700133ADA0012002B0010DBDC
:103C2B00D6000FCC1E000ECF6C000DE44B000D091F
:103C3B0065000C3D80000B7F7C000ACE50000A29EA
:103C4B000700098EC30008FEB50008781F0007FAAD
:103C5B0052000784AE0007169D0006AF9700064F73
:103C6B001C0005F4B800059FFE0005508B000506EF
:103C7B00020004C00D00047E5D000440A900040690
:103C8B00AC0003D02700039CE100036CA100033FB1
:103C9B0037000314720002EC280002C62F0002A2A8
:103CAB00630002809F000260C3000242B100022643
:103CBB004C00020B7B0001F2230001DA2E0001C342
:103CCB00870001AE19000199D2000186A000017492
:103CDB00720001633A000152EA00014372000134A1
:103CEB00C8000126DF000119AC00010D2500010100
:103CFB0041F5F5EB3AE107D755CE1DC558BD00B5DB
:103D0B000EAD7FA64C9F7098E792AC8CBB87118150
:103D1B00AA7C82779772E46E676A1E6606621C5EE7
:103D2B005F5ACB575F541950F84DF84B1A485A4508
:103D3B00B8433340C83E773C3E3A1D3812361D34EB
:103D4B003B326D30B22F082D6F2BE62A6C290127E1
:103D5B00A42655251323DD22B22193207F1F751E28
:103D6B00751D7E1C901BAC1ACF19FB192E186917E9
:103D7B00AA16F31642159714F2145313B9132512FE
:103D8B0096120C11861105108810100F9B0F2B0E1D
:103D9B00BE0E550DEF0D8C0D2D0CD10C780C210B8F
:103DAB00CE0B7D0B2E0AE30000000000000001008B
:103DBB0001000000000000000003015E00000AF09B
:103DCB00000004032000000B5401000505DC00007B
:103DDB000BB80100060BB800000BEA0101071D4CE4
:103DEB0000000C1C0101083A9800000C800001092E
:103DFB00271000000BB80001021D4C01F40BB8009A
:103E0B00010A271000000BB80001587465726E2070
:103E1B00526970706572204C6974652056312E3072
:103E2B002042793A52656473746F6E65725F3335F5
:103E3B000D0A000000000000000000000000000060
:0B3E4B00000000000000001F0D00063A
:00000001FF
