:10000000022BC2AF19EF3395E0FE22023D84752426
:100010007F120048E56270117F05FE122669D52423
:0A002000F0756702121FA880FE228F
:10002B0002367CEF3395E0FEC3EF9403EE648094CD
:10003B008022E56325E0F56390F501E022021EA125
:10004B000237E2900020747FF0A374FEF0A374805B
:10005B00F0A37402F0E4900028F0A3F090002412B7
:07006B0007FC000000002269
:10007300023A78020437E86480F8E933E833601120
:100083000460F0ED33EC337009E8FCE9FDEAFEEBC4
:10009300FF220460DED3EB9FEA9EE99DE8C2E78C72
:1000A300F0C2F795F0400CE8CCF8E9CDF9EACEFAC6
:1000B300EBCFFB12040285D0F05804700320D5B3B4
:1000C300E80470075002B2D502044192D5EC0460F3
:1000D300F7E4CCC0E0C398F8603B94186008400D87
:1000E300D0E0FB020419E4FBFAC9FC8028E830E401
:1000F30006E4C9FBE4CAFCE830E305E4C9CACBFC67
:10010300E854076010F8C3E913F9EA13FAEB13FB99
:10011300EC13FCD8F130F52FC3E49CFCEF9BFFEE0E
:100123009AFEED99FDD0E0FBEF4E4D4C701222DBB1
:100133000302043EEC2CFCEF33FFEE33FEED33FD04
:10014300ED30E7EB020419EF2BFFEE3AFEED39FD3C
:10015300D0E0FB50130BBB0003020441ED13FDEE93
:1001630013FEEF13FFEC13FC020419EC4D6011E8CE
:10017300497017ED33EC3304600DE4FCFFFEFD2200
:10018300E933E8330470F8020437120402580460B8
:1001930009E4CC2481500628500902044128400375
:1001A30002043EC0E0EB4A7044B98006D0E0FB0293
:1001B300042DEF4E701CBD8008EBFFEAFEE9FD80C5
:1001C300EBE98DF0A4FEE5F0020257E9CDF9EAFE72
:1001D300EBFFEF89F0A4FCE5F0CE89F0A42EFFE459
:1001E30035F0CD89F0A42DFEE435F08067EF4E7035
:1001F30005BD80D780C3EF8BF0A4ACF0EE8BF0A4E9
:100203002CFCE435F0F8EF8AF0A42CE5F038FCE49C
:1002130033CB8DF0A42CFCE5F03BF8EE8AF0A42C54
:10022300FCE5F038F8E433CF89F0A42CFCE5F03892
:10023300CF3400CE89F0A42FFFE5F03EFEE433C9AE
:100243008DF0A42EFEE5F039CD8AF0A42FFFE5F062
:100253003EFEE43DFD33D0E0FB50070BBB000F0235
:100263000441EC2CFCEF33FFEE33FEED33FD0204CF
:1002730019020441EC5D046005E8590470030204AB
:1002830037120402580460F6EC4860F2EC7004FD87
:10029300FEFF22C860DB2481C85009C39860025066
:1002A3000602043E9850CAF582E9294B4A7005AB11
:1002B3008202042D75F0007C1A7880C3EF9BEE9ABE
:1002C300ED99400DC3EF9BFFEE9AFEED99FDE842D9
:1002D300F0DC23ACF0D0E0FFD0E0FED0E0FDAB8259
:1002E30020E7101BEB60BAEC2CFCEF33FFEE33FE80
:1002F300ED33FD020419E803F830E705C0F075F0AB
:1003030000EF2FFFEE33FEED33FD40B830E7C28040
:10031300AA74F8CC6480CCC86480C8F58204604FAA
:10032300C3EB9FF5F0EA9E42F0E99D42F0E89C455D
:10033300F0603C501DE5825FFFE582D313CB5BCBBE
:10034300F42B5582FB50280ABA002409B90020086F
:10035300801DE5825BFBE582D313CF5FCFF4C3132C
:100363002F5582FF50090EBE00050DBD00010CC3C1
:10037300EB9FF5F0EA9E42F0E99D42F0E89C45F0E0
:100383006007CC4820E701B3EC2275F020800E759E
:10039300F010800575F0087D007E007F003392D554
:1003A30030D503120778EC334010EF33FFEE33FE02
:1003B300ED33FDEC33FCD5F0ED22E5F0247EA2D540
:1003C30013CC92E7CDCEFF22EDD2E7CD33EC3392BF
:1003D300D524814006E4FFFEFDFC22FCE4CFCECD14
:1003E300CC24E0501174FF80EDC3CC13CCCD13CDDE
:1003F300CE13CECF13CF0470F030D5DE020778E9E9
:10040300D2E7C933E833F892D5EDD2E7CD33EC33F5
:10041300FC5002B2D522EC30E7100FBF000C0EBE29
:1004230000080DBD00040BEB6014A2D5EB13FCED2B
:1004330092E7FD2274FFFCFDFEFF22E480F8A2D5C3
:1004430074FF13FC7D80E480EFE709F608DFFA8090
:1004530046E709F208DFFA803E88828C83E709F0D9
:10046300A3DFFA8032E309F608DFFA8078E309F2C2
:1004730008DFFA807088828C83E309F0A3DFFA80B7
:100483006489828A83E0A3F608DFFA805889828A26
:1004930083E0A3F208DFFA804C80D280FA80C68022
:1004A300D4806980F28033801080A680EA809A80AD
:1004B300A880DA80E280CA803389828A83ECFAE4F6
:1004C30093A3C8C582C8CCC583CCF0A3C8C582C8D2
:1004D300CCC583CCDFE9DEE7800D89828A83E49390
:1004E300A3F608DFF9ECFAA9F0EDFB2289828A83EF
:1004F300ECFAE0A3C8C582C8CCC583CCF0A3C8C5B9
:1005030082C8CCC583CCDFEADEE880DB89828A83BC
:10051300E493A3F208DFF980CC88F0EF60010E4E7C
:1005230060C388F0ED2402B4040050B9F582EB24D3
:1005330002B4040050AF232345822390049C73C26A
:10054300D530F707B2D563F0FF05F030E70CB2D52D
:10055300F4048463F0FF05F080018430D502F404D1
:1005630022BB010689828A83E0225002E722BBFE76
:1005730002E32289828A83E49322BB010CE5822968
:10058300F582E5833AF583E0225006E92582F8E611
:1005930022BBFE06E92582F8E222E58229F582E5FF
:1005A300833AF583E49322BB010689828A83F0228E
:1005B3005002F722BBFE01F322EF8DF0A4A8F0CF87
:1005C3008CF0A428CE8DF0A42EFE22C2D5EC30E709
:1005D30009B2D5E4C39DFDE49CFCEE30E715B2D52A
:1005E300E4C39FFFE49EFE120839C3E49DFDE49C2F
:1005F300FC800312083930D507C3E49FFFE49EFE55
:1006030022BB0110E58229F582E5833AF583E0F503
:10061300F0A3E0225009E92582F886F008E622BB20
:10062300FE0AE92582F8E2F5F008E222E5832AF5DD
:1006330083E993F5F0A3E99322BB010A89828A83B4
:10064300F0E5F0A3F0225006F709A7F01922BBFE4C
:1006530006F3E5F009F31922E88FF0A4CC8BF0A49C
:100663002CFCE98EF0A42CFC8AF0EDA42CFCEA8E81
:10067300F0A4CDA8F08BF0A42DCC3825F0FDE98FA4
:10068300F0A42CCD35F0FCEB8EF0A4FEA9F0EB8F9B
:10069300F0A4CFC5F02ECD39FEE43CFCEAA42DCE68
:1006A30035F0FDE43CFC2275F008758200EF2FFF66
:1006B300EE33FECD33CDCC33CCC58233C5829BED37
:1006C3009AEC99E58298400CF582EE9BFEED9AFD3B
:1006D300EC99FC0FD5F0D6E4CEFBE4CDFAE4CCF9EB
:1006E300A88222B800C1B90059BA002DEC8BF0845E
:1006F300CFCECDFCE5F0CBF97818EF2FFFEE33FE2C
:10070300ED33FDEC33FCEB33FB10D703994004EBE3
:1007130099FB0FD8E5E4F9FA227818EF2FFFEE33AF
:10072300FEED33FDEC33FCC933C910D7059BE99AC1
:100733004007EC9BFCE99AF90FD8E0E4C9FAE4CC52
:10074300FB2275F010EF2FFFEE33FEED33FDCC33BC
:10075300CCC833C810D7079BEC9AE899400AED9BA5
:10076300FDEC9AFCE899F80FD5F0DAE4CDFBE4CC84
:10077300FAE4C8F922C3E49FFFE49EFEE49DFDE48E
:100783009CFC22EB9FF5F0EA9E42F0E99D42F0ECDF
:100793006480C864809845F022EB9FF5F0EA9E429E
:1007A300F0E99D42F0E89C45F022E8600FECC313AA
:1007B300FCED13FDEE13FEEF13FFD8F122E493FCDF
:1007C300740193FD740293FE740393FF227401FF7B
:1007D3003395E0FEFDFC080808E62FFFF618E63E19
:1007E300FEF618E63DFDF618E63CFCF622ECF0A317
:1007F300EDF0A3EEF0A3EFF022A8828583F0D0837F
:10080300D082120813120813120813120813E47388
:10081300E493A3C583C5F0C583C8C582C8F0A3C547
:1008230083C5F0C583C8C582C822A42582F582E5A5
:10083300F03583F58322BC000BBE0029EF8DF084D5
:10084300FFADF022E4CCF875F008EF2FFFEE33FE96
:10085300EC33FCEE9DEC984005FCEE9DFE0FD5F0CD
:10086300E9E4CEFD22EDF8F5F0EE8420D21CFEADD6
:10087300F075F008EF2FFFED33FD4007985006D5D4
:10088300F0F222C398FD0FD5F0EA22123D198F260C
:10089300123D519206C207123B918E248F25900080
:1008A30045E06009C3940B74809480400690004532
:1008B3007404F0900046E0FF64017003020C8AEFB9
:1008C30064027003020C8AEF64087003020C8A123C
:1008D3002209B40B004003020BAE9008E4F8282869
:1008E3007302091E020905020AAF020A4A020AD06C
:1008F300020AE4020AF7020B0A020B31020B650239
:100903000B89C204200603020BAE900046E0640785
:100913007003020BAEE4F0FF0209B9E52564054557
:10092300247011C204D3300301C3920390004474B2
:1009330008F08018300315D3E5259400E52464807E
:1009430094805005123CE35003756706300303029D
:100953000BAEE52564064524700DD3300401C39224
:10096300049000447402F0300427123D6F400302E8
:100973000BAE7F667E667D461221A6600940072086
:1009830010047F0880301221A0603640347F078036
:1009930064E525640145246004E52660267F9A7E8C
:1009A300997D391221A66010400E3002047F028027
:1009B30005900045E0FF803D1221A06004400280C5
:1009C3003C8050E52564024524702F30100280439B
:1009D3007F667E667D461221A6600740057F08027A
:1009E3000B601221A06011400F3002047F028005CA
:1009F300900045E0FF020B6080193006057F03027B
:100A03000B6012226F70121221A0600740057F094C
:100A1300020B60756706020BAEE52564044524707E
:100A230018D3300201C392027F082002027F098F8C
:100A330067C2081230B1020BAE123D764003020BBF
:100A4300AE123D66020BAE7D037F011233B4AF26B7
:100A5300EF3395E0FEE4FDFC12385AE525640145C9
:100A6300247003123C0C20060B12222264014E60F8
:100A730003020BAE7F9A7E997D391221A660025044
:100A830003020BAE7F043002027F0212327F122276
:100A93002264014E7003020BAE3002031239D5906B
:100AA3000047E04440F0750E04020BAE200513121C
:100AB300222264044E70057F0312327F120CB3129C
:100AC3000CD5121C85AF26121934020BAE7D047FA0
:100AD300011233B4120CB3120CD5AD267F05020BF1
:100AE300AB7D04120C8B120CDDAD267F06123A2966
:100AF3007F0480357D05120C8B120CDDAD267F073C
:100B0300123A297F0580227D06120C9FAD25AC2465
:100B130012385AE4FD7F04123A2912222264014E4C
:100B230070057F0312327F7F06123CA3807D7D0711
:100B3300120C9FEF64014E600BE5256402452460AF
:100B43000330120A7F043002027F0212327F122224
:100B53002264034E600512226F70507F0912327FA8
:100B630080497D09120CC270082010057F081232DB
:100B73007F12226F700A7F043002027F0212327FDB
:100B8300AD267F0A80227D0A120CC2700820100550
:100B93007F0812327F12226F700A7F043002027FB5
:100BA3000212327FAD267F09123A299000441221A6
:100BB300BC400C9000001207FC42A00000806EAF06
:100BC3000EEF1221BE400C9000001207FCBF800004
:100BD30000805A12220924FE602224F8603A04702D
:100BE30040300C0E900001120604FFAEF0AC06FD7F
:100BF30080357EFF7FFF7CFF7DFF802BC3E50D9556
:100C030009E5081222335006AE0CAF0D8004AE087E
:100C1300AF09AC06AD07800F1225B1AC06AD078056
:100C2300061221E4FDACF01222441207F012223C1A
:100C33001221AB6008400612223C1207F0D20712C1
:100C43003B91900000E0FCA3E0FDA3E0FEA3E0FFE6
:100C53001203CB121A5F900052EEF0A3EFF03013A1
:100C630008AF26EF1221BE500F900042E0FF3395EC
:100C7300E0FEEF64184E700FC213900042E004F0E0
:100C8300122209FF122B1E22E4FF1233B4AF25AE4A
:100C930024123CF6AF26EF3395E0FE22E4FF123335
:100CA300B4AF25AE24123CF6AF26EF3395E0FE2217
:100CB300AF25AE24123CF6AF26EF3395E0FE227F3C
:100CC300011233B4AF25AE24123CF6E52564024588
:100CD3002422AD25AC2412385A22AD25AC24123877
:100CE3005A228F29120564FF1460151460281460BA
:100CF3003D14603A2404705C1229E1122A288029E9
:100D03001229E1F5827401F52E85822FE582F4F52F
:100D13008275300080131229E1F4F582752E008567
:100D2300822FEDF5827401F5308582318026ED1234
:100D33002A28858231EDF5827401F52A85822BEF0D
:100D430064047007EDFF7401FE8005EDF4FF7E007F
:100D53008E2C8F2D90000112057D7007EDFF74011D
:100D6300FE8005EDF4FF7E008E328F339000021279
:100D7300057D7007EDFF7401FE8005EDF4FF7E0035
:100D8300E529147003020E21147003020EA41470DB
:100D930003020F2724036003020FB1E52AAB9A3045
:100DA300E006E52B4BFD8004E52B5BFD8D9AE52CDE
:100DB30030E00890F009122A48800690F009122AC0
:100DC3004F90F009EDF0E52E30E005122A38800649
:100DD30090F00A122A5690F00AEDF0E53030E00563
:100DE300122A40800690F00B122A5D90F00BEDF072
:100DF300EE30E005122A6C800890F00CE0FBEF5B0C
:100E0300FD90F00CEDF0E53230E005122A64800627
:100E130090F00D122A73AF0590F00DEDF022E52A44
:100E2300ABA130E006E52B4BFD8004E52B5BFD8D8C
:100E3300A1E52C30E00890F019122A48800690F0C2
:100E430019122A4F90F019EDF0E52E30E005122A21
:100E530038800690F01A122A5690F01AEDF0E53019
:100E630030E005122A40800690F01B122A5D90F0B4
:100E73001BEDF0EE30E005122A6C800890F01CE0C8
:100E8300FBEF5BFD90F01CEDF0E53230E005122A3C
:100E930064800690F01D122A73AF0590F01DEDF0EB
:100EA30022E52AABA230E006E52B4BFD8004E52BBF
:100EB3005BFD8DA2E52C30E00890F029122A4880D2
:100EC3000690F029122A4F90F029EDF0E52E30E03C
:100ED30005122A38800690F02A122A5690F02AED3D
:100EE300F0E53030E005122A40800690F02B122AFC
:100EF3005D90F02BEDF0EE30E005122A6C80089047
:100F0300F02CE0FBEF5BFD90F02CEDF0E53230E0F0
:100F130005122A64800690F02D122A73AF0590F013
:100F23002DEDF022E52AABA330E006E52B4BFD8047
:100F330004E52B5BFD8DA3E52C30E00890F039121E
:100F43002A48800690F039122A4F90F039EDF0E5E7
:100F53002E30E005122A38800690F03A122A569075
:100F6300F03AEDF0E53030E005122A40800690F0CB
:100F73003B122A5D90F03BEDF0EE30E008A3E0FD7C
:100F8300EF4DFF800890F03CE0FDEF5DFF90F03CFB
:100F9300EFF0E53230E009A3E0FDE5334DFF8009D2
:100FA30090F03DE0FDE5335DFF90F03DEFF022C3AF
:100FB300900029E0942C900028E064809481507183
:100FC300E4FFFE7D7A7C44AB52AA51A950A84F128C
:100FD300016E1203CB8F2D8E2C8D2B8C2A90002922
:100FE300E004F07006900028E004F0121B92252D17
:100FF300FFEE352CFEED352BFDEC352AFC9000245D
:101003001207F0121C07C3121C58500A900020E567
:101013002CF0A3E52DF0900022121C0AD3121C58C9
:1010230050030210AC900022E52CF0A3E52DF080D4
:1010330078121B92FFC004C005C006C007900022AF
:10104300E0FEA3E0FBAA06EA3395E0F9F8121C07D9
:10105300EF2BFBEE3AFAED39F9EC38F8D007D0066E
:10106300D005D004C3EF9BFFEE9AFEED99FDEC98FB
:10107300FC121B8CFFC006C007900029E024FEFF72
:10108300900028E034FFAB07FA3395E0F9F8D00776
:10109300D00612375C121B8CFFEC12038D121C63FB
:1010A30090002B1207F012004E121C3C64027006D3
:1010B300AC0AAD0B800FAB10AA11A9129000051258
:1010C3000604FDACF0EC120392121C638F298E28E8
:1010D3008D278C267D2C121B7560054003C3800170
:1010E300D39216301604C215802BAF61EF3395E00F
:1010F300FED3EF944BEE648094804004D2158015A8
:10110300AF29AE28AD27AC26121B7B60054003C375
:101113008001D3921590001FE014601A14603014FC
:10112300604F240370587FCD7ECC7D6C121B7950A9
:101133004D121C7E80487F9A7E997D79121B7960BF
:10114300074005E490001FF0121B7350318029E41F
:10115300FFFE7D60121B7960054003121C7E7F9A9F
:101163007E997D39121B79501590001F7403F0800E
:101173000D121B736008400690001F7402F0AF67E6
:10118300EF6406604FAF67EF64086048AF67EF64D2
:10119300096041900046E06003023210121C3C706B
:1011A3000690002AE0602190001FE014600E146096
:1011B3000F1460102403701C7567032275670222E5
:1011C300756701227567042290001EE06003021315
:1011D300F3E4F5672275240075254078007C007DD3
:1011E300017BFF7A3F79CF7E007F1412051CE4FF59
:1011F300FE7DB07C40AB56AA55A954A853120314E4
:1012030050030213F2122F1D60030213F2C283C2B2
:1012130085C281D206123B2FD2847F057E0012261F
:10122300691200487F667E667D867C40AB4EAA4D80
:10123300A94CA84B1203146002500DE52515257027
:10124300021524122EE350D2E52545247007C284EB
:101253007F010213EF752400752564C2847F147E19
:1012630000122669C206123B2F1200487F0A7E0035
:10127300122669752600752704122EDCC333CE337C
:10128300CED8F924FCF58274FF3EF583122EAFC04D
:1012930004C005C006C007122EDCC333CE33CED83C
:1012A300F9122F26D007D006D005D0041207F0E597
:1012B30027152770021526E527452670BCAF4EAECD
:1012C3004DAD4CAC4B9000001207F0900014120788
:1012D300FC00000000E4F526F527122EACC004C084
:1012E30005C006C007122EDCC333CE33CED8F912A5
:1012F3002EBBD007D006D005D00412007D90001479
:101303001207F00527E527700205266405452670B8
:10131300C9122EACE4FBFA79A07840120277900050
:10132300141207F09000181207FC00000000E4F507
:1013330026F527900018122EAFC004C005C006C0C2
:1013430007122EDCC333CE33CED8F9122EBB122EA6
:10135300AC120079E4FBFAF9F8120314500F122EC1
:10136300DCC333CE33CED8F9122EBB801A122EDC57
:10137300C333CE33CED8F9122F26122EAFE4FBFAA5
:10138300798078BF122F11122EAC120079AB07AA05
:1013930006A905A804D007D006D005D00412007D05
:1013A3009000181207F00527E5277002052664054B
:1013B30045266003021336C3E525945D122EE850DB
:1013C30013E4FFFEFD7C3F900018122EC412031499
:1013D30060025010E525152570021524122EE340F6
:1013E3000302126CE525452470057F02123C8C2212
:1013F30090001EE014B4090040030215E990140E96
:1014030075F003A4C58325F0C58373021429021460
:10141300370214E702151202153E02156902159BE5
:101423000215C70215D990001CE4F0A3740EF0A3B3
:101433007402F02290001CE0FEA3E0FFD3940CEEB4
:101443006480948040057567038023D3EF940AEE8C
:101453006480948040057567028013D3EF9408EE8F
:101463006480948040057567018003E4F567121C6E
:101473006D40030215E9AF56AE55AD54AC53121C83
:1014830021121C4EEF64024E700990002F121B951F
:10149300121C1690002F121B95FF1203CBAB07AA49
:1014A300067C007D641205CEEF4E60067567090267
:1014B30015D28A2E8B2FAE2EAF2F7C007D0A1205FC
:1014C300CE8E2E8F2FE52F452E7005121C33800DE7
:1014D300121C77C333CE33CED8F9121BD490001E1F
:1014E3007403F02290001CE0B4FF0AA3E0B4FF05EC
:1014F3007F011215EA121BA040027F01121C274034
:10150300030215E9121C45740AF0A37404F02212B5
:101513001BC440030215E990002F121B95121BE216
:101523007005121C33800D121C77C333CE33CED813
:10153300F9121BD490001E7405F02290001CE0B435
:10154300FF0AA3E0B4FF057F021215EA121BA040B5
:10155300027F02121C2740030215E9121C45740A7C
:10156300F0A37406F022121BC4507B90002F121BB1
:1015730095121C1690002F121B95121BE270051278
:101583001C33800D121C77C333CE33CED8F9121B14
:10159300D490001E7407F02290001CE0B4FF0EA349
:1015A300E0B4FF097F03123A9FE4121C35121BA01B
:1015B30040027F03121C27502D121C45740CF0A30C
:1015C3007408F022121BC4501D90002A740CF09072
:1015D300001E7409F02290002AE0700A123D764042
:1015E30005E490001EF022123A9FE490001CF0A341
:1015F300F0228E2D8F2E8D2F90F692E030E708E4A7
:10160300FFFEFD7C408003123397123385AC2DAD72
:101613002EEC120392C004C005C006C007E4FBFA17
:1016230079807845AF37AE36AD35AC34120277D01A
:1016330003D002D001D00012016E8F3B8E3A8D3958
:101643008C38E52F605924FA70030216DA24FE70F1
:101653000302173424FB700302175F24EE60142483
:1016630011600302179E853B5E853A5D85395C8573
:10167300385B22AC2DAD2EEC120392A804A905AA67
:1016830006AB077F9A7E997D997C451202778F334B
:101693008E328D318C308F5A8E598D588C572275DE
:1016A300333575324875310312336C8F568E558D31
:1016B300548C5390005CE0FC120397A804A905AA7C
:1016C30006AB07AF56AE55AD54AC531202778F52EB
:1016D3008E518D508C4F2275332D7532A675313353
:1016E30012336C8F4E8E4D8D4C8C4BAB56AA55A935
:1016F30054A853120277E4FBFA79C8784212016EB8
:101703008F338E328D318C301203CB8F61EF339553
:10171300E0FED3EF9464EE648094804003756164CB
:10172300AF61EF3395E0C364809480506EE4F5615C
:1017330022123363123397120079C004C005C00626
:10174300C0077D4812335E12016ED003D002D00170
:10175300D0001233821203CB8E5F8F601233631279
:101763003397120079C004C005C006C0077DA512D7
:10177300335E12016ED003D002D001D00012338247
:10178300E4FBFA797A784412016E1233851203CBA3
:101793007B007A00796212228D8F4A22E5627004FF
:1017A3007F0680411239C4D3EF9441EE6480948064
:1017B3004002D212D3EF943CEE648094804004D272
:1017C30010800DC3EF9432EE648094805002C210F7
:1017D300301205201002C212D3EF944BEE648094B2
:1017E3008040057F07023C8C1239C4C3EF9437EE67
:1017F30064809480500D900046E064077005F0FF0C
:1018030012327FAB10AA11A91290000812057D7045
:1018130004C211801F1239C4D3EF9432EE64809452
:10182300804004D211800DC3EF9428EE648094802D
:101833005002C21120110AE4F51CF51DF51EF51F17
:1018430022D3900053E09400900052E0648094808F
:1018530050030219331239C4EF24CEFFEE34FFAB29
:1018630007FAD3EB9400EA648094804004AE0280CC
:101873001AC3E49BFFE49AFED3EF9401EE648094D1
:10188300807E0040047F0180027F00EF4E60429023
:101893000052E0FEA3E0FF7C177D701205CED3EF6C
:1018A3009400EE648094804002801D900052E0FE1C
:1018B300A3E0FFC3E49FFFE49EFE7C177D70120547
:1018C300CEEF2401FFE43EFEAD03AC021205BC8063
:1018D300047E007F00EF251FF51FEE351EF51ED396
:1018E300E51F9450E51E648094C64006751E467538
:1018F3001F50C3E51E648094805005E4F51EF51F58
:10190300EB251DF51DEA351CF51CD3E51D94E0E51B
:101913001C648094AE4006751C2E751DE0C3E51D46
:101923009420E51C648094515006751CD1751D20CC
:10193300228F27123D764005123D6F5003D380015D
:10194300C392071221E412222B500AAC0CAD0DAE48
:1019530004AF0580008E288F29900001120604FF32
:10196300C3E5299FE5F06480F8E528648098500B6F
:10197300300708122213400312228620050EAF27D8
:1019830012222464014E7050D205804C30010A05A6
:1019930009E509700C05088008E5091509700215A9
:1019A300089000031221E7FFAEF0D3E5099FEE1282
:1019B30022195006D2018E088F091222124005C245
:1019C30001122286AF2712222464014E6005123CC5
:1019D300E35005C205750F1E123D6F500D20000A1E
:1019E3000509E509701E0508801A123D76500D2081
:1019F300000AE5091509700215088008200705305B
:101A03000002C200123D6F501020000D122212403E
:101A130008750E04122286D200123D76502520004E
:101A230022AB10AA11A912900003120604FFAEF014
:101A3300D3E5099FEE1222195009750E048E088F03
:101A430009D200300704E4F50F22AF0F12222464F9
:101A5300204E7007050FC2081230B1228E278F283F
:101A630030110DD3E5289400E52764809480500558
:101A7300AE27AF2822AC1EAD1FEC1203927B007A77
:101A8300A0798C78461202771239CCE4FBFA79C834
:101A9300784212016E1239CCAC1CAD1DEC120392CC
:101AA3007B007A80793B78461202778F348E338DB0
:101AB300328C311239BBC000C001C002C003E4FF45
:101AC300FE7D207C41AB34AA33A932A83112016ECA
:101AD300D003D002D001D00012007D1239CCE4FF34
:101AE300FEFDFC1239BB1203145009E4F52CF52B4F
:101AF300F52AF529E4FFFE7DC87C421239BB1203A7
:101B030014600D400BE4F52CF52B752AC87529429A
:101B1300C3E52894DCE5276480948550057E057F22
:101B2300DC22AC27AD28EC12039278C41239A9E465
:101B3300FBFA79C878421202771239B2AB30AA2F76
:101B4300A92EA82DC000C001C002C0031239BBE4F6
:101B5300FFFE7DC87C42120079D003D002D001D0B1
:101B63000012016E1239B278441239A91203CB2242
:101B73007D4C7FCD7ECC7C4090002BE0F8A3E0F938
:101B8300A3E0FAA3E0FB0203149000241207F090F1
:101B93000024E0FCA3E0FDA3E0FEA3E02290001CF0
:101BA300E0FAA3E0FB7C007D04FFAE021205CE8CBD
:101BB3002E8D2FD3E52F9401E52E648094807F0032
:101BC30022D390001DE0940090001CE06480948078
:101BD3002224FFFFEE34FF90001CF0A3EFF022FF5E
:101BE3001203CB8E2E8F2F7C007D0A1205CE8C2EF6
:101BF3008D2FE52F452E227C40AB52AA51A950A828
:101C03004F020314900020E0FEA3E0FFEE3395E0C3
:101C1300FDFC22FFE4FBFA7920784112016E90006B
:101C23002F0207F08F67D3EB9400EA64809480223D
:101C330074FF90001CF0A3F022AB10AA11A91202AA
:101C43000564E4F56790001CF0A32290005CE0FFBC
:101C53003395E0FE22AB2DAA2CA92BA82A020786D6
:101C6300E4FBFA797A7844020277D3EF9400EE64C6
:101C730080948022AE2EE52F78022290001F7401FB
:101C8300F022301503021D15301603021D15E490D2
:101C93000043F090001FE06003021D921221E41242
:101CA300222B506890004BE0FD700404F08013ED8C
:101CB3003395E0FCC3ED9409EC64809480500302F7
:101CC3001D9290004B7401F0900005120604FDACC8
:101CD300F0D3E50B9DEC6480F8E50A648098400638
:101CE3008C0A8D0B800B7432250BF50BE4350AF54A
:101CF3000AD312222F40091221E4F50D85F00C229C
:101D030074FA250DF50DE4350CF50C22E490004B27
:101D1300F022E490004BF0900043E0FF3395E0FEA7
:101D2300EF4E70037480F0900043E0547FF527304A
:101D33001613FF3395E0FED3EF9404EE6480948092
:101D43004003023C0CAF27EF3395E0FED3EF940939
:101D5300EE648094804038D3E50D94EEE50C648006
:101D63009482400C7406250DF50D74FF350CF50CAB
:101D7300D3E50B94BEE50A6480948A400C74E7258E
:101D83000BF50B74FF350AF50A9000437480F022BB
:101D93001239486012AF65EF3395E0FEC3EF940448
:101DA300EE648094805006E490005BF022D39000B0
:101DB30053E09400900052E0648094805003021E2C
:101DC300A090005BE0540FF5247D90123923600549
:101DD3004003D38001C392067FCD7ECC7D8C7C40B3
:101DE300AB52AA51A950A84F120314600740057FB4
:101DF30004123C8C7F667E667D06123926400F7F77
:101E03009A7E997D997C4012393D600C400A7D028F
:101E1300123935E4F5258049E4FFFE7D807C3E12CE
:101E2300393D40097DF0123923600A4008123933E5
:101E3300752501802CA217300601B35008123933DF
:101E4300752502801CAF24EF3395E0FED3EF940099
:101E5300EE648094804006E52414FF80027F008FA7
:101E630024E525C454F0452490005BF0AF24EF3300
:101E730095E0FEC3EF9408EE64809480401FE0FF7A
:101E83007804A2E713D8FB540F24FE6007047008FC
:101E93007F0580067F0980027F03123C8C22E5497F
:101EA30064037002F549E549146042147003021F8C
:101EB30051147003021F9824036003021F95D20676
:101EC300123CB9E4F528F52974F52529F582743F08
:101ED3003528F583E493FF123351EFF00529E52903
:101EE300700205286406452870DE021F90E4F52879
:101EF300F529123351E0FF1233A0400F1233AA40E9
:101F030018EF941FEE64809480500E0529E5297024
:101F13000205286406452870D9C3E5299406E528F7
:101F2300648094805023123351E0F52CFF3395E005
:101F3300FE4F6006EF64064E7005C206123CB9AF51
:101F43002C123630754902804C7549038047753031
:101F53000075310075322C7B007A00792A122885AE
:101F6300EF4E6031AD2CAF2BAE2A1215F5E4F528F8
:101F7300F529123351E0B52C0612335174FEF005E6
:101F830029E529700205286406452870E57549018D
:101F93008003E4F549900041E06009E5496403608A
:101FA30003021EA122301123900060E0FF3395E06D
:101FB300FEC3EF940CEE648094805005E004F0803F
:101FC3000AE4900060F0C2A4C2A522E567B40A0047
:101FD30040030220A9901FDFF8282873021FFD0287
:101FE300200F02200502200A0220140220140220DE
:101FF3004F0220A902204F02204FC2A4C2A5E4F53C
:102003006622D2A4D2A522C2A4D2A522D2A4C2A55A
:1020130022C2A5E566547FFFAE67EE64047E0070BE
:10202300027E03C3EE6480F8EF64809850090F5377
:102033006680EF4266800B123D5C7F8060027F000A
:102043008F66123D5CC36001D392A42253667FAFB7
:1020530067EF64096007AF67EF640870047F068069
:10206300027F0AD3EF6480F8E5666480984008C273
:10207300A5C2A4E4F56722E56675F002120542AF36
:10208300F0EFC36001D39206AF67EF64087003C338
:102093008002A20692A4AF67EF64087004A20680D0
:1020A30001C392A5056622AF65EF3395E0FEC3EF4A
:1020B3009404EE648094805007E4900052F0A3F0FF
:1020C300900052E0FEA3E0FF90004CE06E7003A38B
:1020D300E06F700302219F90004CEEF0A3EFF0D36A
:1020E3009400EE6480948050229000541207FC0008
:1020F30000000090004CE0B4FF08A3E0B4FF03D35A
:102103008001C39281122F0A02219D90004CE0FEB0
:10211300A3E0FFC394F4EE6480948150318E298F41
:102123002AE4F52EF52D752C80752B3FFFFE7DFAE5
:102133007C4312243C9000541207F0C281A2849283
:1021430006D284D283C2852006507F0A8047122F8D
:102153001D6409700890004E122EAF802190004C30
:10216300E0F529A3E0F52A752EC3752DF5752C88A6
:10217300752B3F7F007E007D007C4012243C900045
:10218300541207F0D281A2849206D284C283D285EC
:102193002006077F047E00122669D20D227FCD7EA2
:1021A300CC7D2C7C4090002BE0F8A3E0F9A3E0FA6F
:1021B300A3E0FB020314900049E0FF3395E0FED354
:1021C300EF9400EE6480948022EF3395E0FE75F087
:1021D30009EF12082DEE75F009A42583F583E49326
:1021E30022900001AB10AA11A91202060475F00493
:1021F300900049E0FD120542AFF0EF3395E0F5277B
:102203008F28D3E52822AB10AA11A912020564C3B3
:10221300E5099529E5286480F8E50864809822AFEC
:1022230026EF3395E0FEEF22FFAEF0C3E50D9FEE00
:102233006480F8E50C6480982290005DE0FCA3E0E4
:10224300FDEC12039290000022EF3395E0FEC3EF02
:1022530022E054C0F0C3ED9406EC6480948022E045
:10226300FF543FF524FD3395E0FC4D22E52564033F
:102273004524229401E5276480948022EDFF339561
:10228300E04F22852808852909228B3C8A3D893E17
:102293008F428E418D408C3F7FD57E2C7D517C00BB
:1022A300D3123B244006123B1A7FD822E47FE37EFD
:1022B3000AC3123B0D5006123B1A7F7D2274011292
:1022C3003B1BE47FF57EF5D3123B0D4038E4F54329
:1022D300F544AE43E5447802C333CE33CED8F92474
:1022E3008AF582743D3EF5831207C0C3123B244036
:1022F30006E54424D8FF220544E5447002054364FF
:102303004B454370CDE4F543F544E54425E0FFE553
:102313004333FE74B62FF582743E3EF583E493FE99
:10232300740193FFE48F488E47F546F545E548F57C
:1023330048E547F547E4F546F545AF42AE41AD40C4
:10234300AC3FAB48AA47A946A845D312079C500601
:10235300E5442423FF220544E54470020543645BFE
:10236300454370A6123B1AFF22120048855F24855D
:102373006025D3E5259464E524648094804010743B
:102383009C2525F52574FF3524F524C2188002D237
:1023930018E4FBFA74E32BF582743F3AF583E49374
:1023A300FF7E002404FDEE33FCD3E5259DEC648021
:1023B300F8E524648098506DEF24FCFFEE34FFFEB3
:1023C300C3E5259FEE6480F8E52464809840567445
:1023D300EB2BF582743F3AF583E493FF7E007C0098
:1023E3007D641205BC90005DEEF0A3123D458005AF
:1023F300C333CE33CED8F9FF903FF4E493FDEF5DC2
:102403007F0260027F0390005C123D458005C33369
:10241300CE33CED8F9FF903FF3E493FDEF5DC36075
:1024230001D39217220BBB00010AEB64084A600335
:102433000223977F08123C8C228F288E278D268CAF
:1024430025AC29AD2AEC120392AB28AA27A926A80A
:1024530025122ED0E4FBFA797A7844120277122EF1
:10246300D37B9D7A69795C783C120277122ED3D3A1
:10247300E52A9440E5296480949F400BAB2EAA2D56
:10248300A92CA82B122ED0AF32AE31AD30AC2FC059
:1024930004C005C006C007E4FFFE7D7A7C44AB5A46
:1024A300AA59A958A857122F11D007D006D005D082
:1024B30004120277122ED3E4FBFA79C87842122E63
:1024C300D0E4FFFE7DC87C42122EEF600D400BE48A
:1024D300F532F5317530C8752F42E4FFFEFDFC126D
:1024E3002EEF5009E4F532F531F530F52FAF32AE6A
:1024F30031AD30AC2F22EF14603814605F147003D9
:10250300022589240360030225B0122A0B4003022B
:1025130025B030070EA8057401088002C333D8FC28
:10252300428022A8057401088002C333D8FCF45208
:1025330080221229F65076122A02407130070EA823
:10254300057401088002C333D8FC429022A80574A5
:1025530001088002C333D8FCF45290221229D550CB
:102563004C122A14404730070EA805740108800254
:10257300C333D8FC42A022A8057401088002C333E8
:10258300D8FCF452A022ED1229D9502130070EA80D
:10259300057401088002C333D8FC42B022AF05A8FA
:1025A300077401088002C333D8FCF452B0229000B0
:1025B3004AE0B4070040030226659025C4F82828A2
:1025C300730225D90225E602260102260F02262FD1
:1025D30002263D02265D900049740BF0A37401F0BE
:1025E3000226651221F01222764002805512227FC4
:1025F30070709000497407F0A37402F08064122194
:10260300B9505F7423F0A37403F0805675F00C1275
:1026130021F394051222784002802712227F704210
:102623009000497407F0A37404F080361221B95066
:1026330031740BF0A37405F080281221F012227676
:1026430040071221E4FFAEF02212227F70149000A3
:10265300497423F0A37406F080081221B95003E4EF
:10266300A3F0E4FEFF228E308F31E4F536F537E533
:10267300314530700302271E0537E53770020536F2
:10268300AE30AF31EE3395E0FDFCE47BA07A0FF979
:10269300F812065B8F358E348D338C32C006C0073B
:1026A300AE36AF37AB07AA06EA3395E0F9F8D007A1
:1026B300D0061206E68F358E348D338C32E47FFFDD
:1026C3007EFFFDFCAB35AA34A933A832C312079CA5
:1026D30050A6C374FF9535F53574FF9534F534E48E
:1026E3009533F533E49532F532AF35AE34AD33ACD3
:1026F3003278081207AD8F8CE535FF8F8AC20A4303
:102703008810E58820E503300AF85388CFE53715AC
:102713003770021536E537453670CE22200D030299
:1027230027D2300F1990F129E060030227D27F01ED
:10273300300E01FF90F164EFF0C20DC20F22E4FFEF
:10274300FE7DC87C42123D29120314600C400A909E
:1027530000541207FC42C80000E4FFFEFDFC123DDA
:1027630029120314500A9000541207FC00000000C1
:10277300AF27AE26AD25AC24EC4D4E4FC36001D33D
:10278300920E7F007E807DBB7C45123D2912016E37
:10279300E4FBFA798078BF12007D8F278E268D2582
:1027A3008C24E4FBFA79C878421202778F278E26AD
:1027B3008D258C241203CBAD07AC06ECFFEF90F113
:1027C30041F0ED90F140F0D20F90F1297401F02225
:1027D300E4F526F527F528FB7A0079267D047F02A8
:1027E300120CE57F011228797B007A0079267D019E
:1027F300E4FF120CE57F031228797B017D027F023F
:1028030012319E7B017D017F0312319E7B017D038B
:102813007F0112319E7B01E4FDFF12319E75260379
:10282300E4F527752801FBFD7F0312319E7B007AB7
:102833000079267D017F03120CE5D207E4FD7F03B7
:102843001224F975DF4075DE60E4F5E9F5D1F5D3BF
:1028530075D50F75D4FF90F69274A0F0E4F5499006
:1028630000391207FC0000000012338EF0A3F0A31E
:1028730004F043DE80227B007A0079267D02120C6D
:10288300E5228B2D8A2E892FE5DF30E102805090DF
:10289300003EE004F0700690003DE004F090003943
:1028A300E0F8A3E0F9A3E0FAA3E0FBAFDDEFFEADB0
:1028B300DCEDFFEE3395E0FDFCEB2FFFEA3EFEE996
:1028C3003DFDE83CFC9000391207F0C390003EE068
:1028D300940A90003DE064809480500743DF02E453
:1028E300FEFF22900039E0FCA3E0FDA3E0FEA3E09D
:1028F300FFE47B0AFAF9F812375C9000391207F00B
:10290300900039A3A3E0FFA3E0AB2DAA2EA92FCFFC
:102913008FF012063C90003FE0AB30AA31A932128F
:1029230005AAE4900040F0FE7F0122E4F5DE90F674
:1029330092F090004104F0E4F549FFEFFD3395E098
:10294300FCC3ED9406EC648094805015EF3395E05E
:10295300FC74332DF58274003CF58374FEF00F8014
:10296300DA9000391207FC0000000012338EF0A346
:10297300F0FB7D017F0312319EE4FB7D037F011297
:10298300319E752603E4F527F528FB7A0079267D29
:10299300027F03120CE57D087F011229CB7D047FA2
:1029A300021229CBC2077D027F021224F9C2077DDE
:1029B300017F031224F9C2077D037F011224F9C2A8
:1029C30007E4FD7F030224F97B007A007926120CC9
:1029D300E522EDFF7E00D394067480948022EDF40B
:1029E300F58275830085832A85822B85832C8582D6
:1029F3002DED22EDFF7E00D394077480948022C3D3
:102A0300EF94037480948022EDD3940574809480B2
:102A130022C3EF94017480948022FBE434F0FAA87B
:102A23000574010822F4F58275830085832E85825F
:102A33002F85833022A3E0FBE52F4BFD22A3E0FB90
:102A4300E5314BFD22E0FBE52D4BFD22E0FBE52DBF
:102A53005BFD22E0FBE52F5BFD22E0FBE5315BFD47
:102A630022A3E0FBE5334BFD22A3E0FBEF4BFD226A
:102A7300E0FBE5335BFD227D087F02123951404FB5
:102A830090005FE025E0F030A306E04401F080070A
:102A930090005FE054FEF090005FE0FF540FFEFDF6
:102AA3007C00640F6003EF7026E4F5B4ED640F4C13
:102AB300D37001C39219AF06EF640F7B0170027BE1
:102AC300027D037F021234D37D087F02123BEE3076
:102AD3001908E51630E703751680301927E51564E4
:102AE300857021120003D3EF9400EE64809480403C
:102AF30005123C5C800BE4F519F51B75180175177D
:102B030001E4F515201913E5166484700DF516E537
:102B1300177004751A0122E4F517228F2ED20912B9
:102B23003D08752F027530007F11122BB4AF32129E
:102B33003C43401D123C525018E53214F531053028
:102B4300E5307002052FC394FCE52F648094834025
:102B5300D7E52E64017002F52EAF2EEF6408600AEC
:102B6300EF64096005EF640A7011AF31EF3395E04C
:102B73004F600585312E8003752E04E531B52E0295
:102B83008029E530B4FC10E52FB4030B752F0275D3
:102B930030007F1D122BB4E52E04F5327B007A0042
:102BA3007932AD30AC2F7F191238F4C209123D08C7
:102BB300227B007A007932AD30AC2F1238F42278C0
:102BC300FFE4F6D8FD9000007F007E04E4F0A3DF6D
:102BD300FCDEFA758168022C17023037E493A3F800
:102BE300E493A34003F68001F208DFF48029E49321
:102BF300A3F85407240CC8C333C4540F4420C88318
:102C03004004F456800146F6DFE4800B0102040819
:102C130010204080903589E47E019360BCA3FF546B
:102C23003F30E509541FFEE493A360010ECF54C067
:102C330025E060A840B8E493A3FAE493A3F8E493EF
:102C4300A3C8C582C8CAC583CAF0A3C8C582C8CAF7
:102C5300C583CADFE9DEE780BEEF14602214603C5F
:102C630014605624037074122A0B4002806DED2405
:102C730080122A1D8002C333D8FC55ACFC8060123D
:102C830029F65005122A0250028050ED2488122A98
:102C93001D8002C333D8FC55ADFC80431229D550A7
:102CA30005122A1450028033ED2490122A1D80024B
:102CB300C333D8FC55AEFC8026ED1229D9400280DF
:102CC3001AED2498FBE434F0FAAF05A80774010861
:102CD3008002C333D8FC55AFFC8004E4FEFF22EC32
:102CE3007003FEFF228B828A83E05403FF7E00225F
:102CF300E4F50EF524AF2412224C940BEE64809479
:102D0300805063903F6C1221D16409702A903F6D0B
:102D13001221CCF529740193F52A752EC3752DF56F
:102D2300752C88752B3F7F007E007D007C4012242C
:102D33003C90004E1207F0AF24903F6C1221CC64FC
:102D430002701FEF3395E0FE903F711221D1F50A17
:102D5300740193F50B903F6D1221D1F50C7401931F
:102D6300F50D0524808F12352EE490004AF0900073
:102D7300457404F0E4A3F07510FF75113F75126CF0
:102D8300C203C204227F9A7E997D39121BFA50082E
:102D930090001F7403F080277FCD7ECC7D4C121BE7
:102DA300FA500890001F7402F080147466FFFEFD51
:102DB300121BFA5005121C7E8005E490001FF0C21E
:102DC30015C21612004EAF52AE51AD50AC4F90002B
:102DD3002B1207F0E490001EF0121C3C7039F5240E
:102DE300F525121C4EC3E5259FEE6480F8E52464A7
:102DF300809850167F02123A9F7FA07E00122669A8
:102E03000525E52570DC052480D87F907E011226F8
:102E13006990002A740CF02290001EE0700BAB1036
:102E2300AA11A912120564600775130075142822EC
:102E3300D3E5149400E513648094804009E51415E8
:102E430014700215132290F500E4F0C206123AC57D
:102E5300438704438702123CCED207123A51123BF6
:102E6300517F017E00122669122A7A123CE350F147
:102E7300D206123AC5E4F524F525120048120FB222
:102E83003016130525E52570020524C39403E524B4
:102E93006480948040E4E525640345247005F513BC
:102EA30075140FE4900041F022900014E0FCA3E0BD
:102EB300FDA3E0FEA3E0FF222400F58274003EF5AB
:102EC30083E0F8A3E0F9A3E0FAA3E0FB2212016E8A
:102ED3008F328E318D308C2F22AE26E52778022259
:102EE300D3E5259400E5246480948022AB32AA3193
:102EF300A930A82F020314E4900052F0A3F090002D
:102F03004CF0A3F022C281C284C283C28522120183
:102F13006EA804A905AA06AB0722AB10AA11A91231
:102F23000205642400F58274003EF583221221B960
:102F33004003E014F0900042E0FF12224D9418EE9B
:102F4300648094805003E004F090004B1221BC4055
:102F53000DEF9409EE648094805003E004F0AF0F0A
:102F630012224C9420EE648094805002050FAF0E21
:102F7300EF1221BE4002150E9000441221BC400303
:102F8300E014F0900043E0FF30E720547FFEEF545D
:102F930080F0EEFD3395E0FCC3ED940AEC6480947D
:102FA3008050010E900043E04EF022E4900043F085
:102FB30022752603E4F527752801C2077D02FF1257
:102FC30024F97B007A0079267D04E4FF120CE57B6B
:102FD300127D02E4FF12319E90F120E4F0A304F08D
:102FE30090F123F090F12A74FFF090F122E4F09035
:102FF300F12704F0A3F090F160E4F090F165F09014
:10300300F16404F090F1317417F090F130746FF0C3
:1030130090F141E4F090F140F09000541207FC006D
:10302300000000C20FC20D90F166E4F090F1260497
:10303300F0023D38123CCED207123A511227D31276
:10304300382012236C1235DF123A0112000E122CB3
:10305300F3123712122FB41234741211D8122D88AE
:10306300E4900041F0120048122A7A12397D120FBF
:10307300B212088E12179F1220AA12271F300BE5D7
:10308300C20B123415123B71122F3012312A123730
:10309300A0122E1BAF65EF3395E0FED3EF9403EE42
:1030A300648094804003121FA8121D9380B7D20935
:1030B300123D0820081CE4F52BF52C742D1238ADB5
:1030C3007F111238F4052CE52C7002052B1238B849
:1030D30040E98508318509327F003002027F018F84
:1030E300337A0079311238A21236C78F3420080799
:1030F300E534B53002802A7B007A00792DE4FDFCAB
:103103007F1D1238F4E4F52BF52C74311238AD7FA2
:10311300191238F4052CE52C7002052B1238B8402F
:10312300E9C209123D0822123D6F500512220970AF
:1031330007E4900047F0802990004712226270074D
:10314300EF20E6034480F09000471222545008E039
:1031530020E60405248003E4F524900047E0452499
:10316300F0123D7650051222097006E4900048F0F3
:10317300229000481222627007EF20E6034480F099
:103183009000481222545008E020E60405248003EE
:10319300E4F524900048E04524F022EBF582640234
:1031A300606AE58264036064E5826419605ED3E566
:1031B30082941C748094805053EF14601414602024
:1031C30014602F24037045122A0B5040ED24008015
:1031D3002A1229F65036122A024031ED2410800DAE
:1031E3001229D55027122A144022ED2420F52AEE65
:1031F300800CED1229D95014ED2430F52AE434F073
:10320300F529EB541F852A82852983F022900058E3
:10321300E0FEA3E0FFC39405EE648094805010C3E6
:10322300EF9403EE64809480504EEF04F567229090
:103233000046E0FF7E007C007D061205BCEF2405FE
:10324300FFE43EFE900058E0FCA3E0FDC39FEE6464
:1032530080F8EC6480985020ED24FBFFEC34FFFEF3
:103263007C007D031205CE7C007D021205CEED4C61
:103273007004756701228000E4F567228F2A122209
:1032830009F52DE4F52BF52C903F6C75F009E52C31
:1032930012082DE52B1221D9652A703390004AF0CC
:1032A300AE2BAF2CFC7D091205BC746C2FF9743F57
:1032B3003E7510FFF5118912E52D700AE52A6006A7
:1032C300FF122B1E8005E4900042F0E4FEFF22056E
:1032D3002CE52C7002052BC3940BE52B64809480A2
:1032E30040A67E007F01227D037F02122C5CEF64E7
:1032F300014E7034C219E515547FFFE4F515E51747
:103303007004E51B6007E4F51BF5178033EFC394E6
:1033130005502D120003C3EF940AEE64809480508D
:103323000205197516808018D219751300751428B3
:10333300E51630E703751680E51520E7037515805C
:103343007D087F02123AEB90005F740AF022743317
:103353002529F58274003528F58322E4FFFE7C439A
:10336300AB3BAA3AA939A8382275303EAB33AA320F
:10337300A931A830AF3BAE3AAD39AC38020277126F
:1033830002778F378E368D358C3422E490003DF0F2
:10339300A3F0A322AF5AAE59AD58AC57223395E0F0
:1033A300FEC36480948022D3EF9416EE64809480ED
:1033B300228D27201509201606E4900043F0229061
:1033C3000043E0FD3395E0FCED4C70037480F09016
:1033D3000043E0547FF528201605752909800375FD
:1033E3002902EF6014301611AF2812224C9403EE19
:1033F300648094804003023C0CD3E5296480F8E5A3
:1034030028648098400B9000437480F0AF271232F9
:103413007F22AB10AA11A912120564600464017023
:103423001190F508E4F090F500E0547FF0E4F564C2
:103433008016AF6412002E50040564800BEF640302
:103443004E7005123C2A0564AF6512002E50030529
:103453006522EF64034E70180565900061E0FF3349
:1034630095E0FED3EF9400EE648094804002D21482
:1034730022E4F527D209123D087524027525007B45
:10348300007A007926AD25AC247F111238F4AF26DB
:10349300123C43401D123C525018E52614F52705F3
:1034A30025E52570020524C394FCE52464809483F8
:1034B30040CDAF27EF6408600AEF64096005EF644D
:1034C3000A7003752704AF2712327FC209023D0831
:1034D300EBD3122A045053EF1460141460201460C9
:1034E3002F24037045122A0B5040ED2480802A12AA
:1034F30029F65036122A024031ED2488800D122914
:10350300D55027122A144022ED2490F528EE800C82
:10351300ED1229D95014ED2498F528E434F0F52759
:10352300EB5403852882852783F022D209123D08B4
:10353300E4F525F52674272526F9E4FAFBAD26AC38
:10354300257F111238F40526E52670020525C3945C
:1035530004E5256480948040DCC209123D087A00AA
:1035630079271238A21236C7EFB52A0F85270885A7
:103573002809E529C36001D39202221239D5C20278
:10358300D2081230B122C10BC10AC10CC1190166A4
:10359300004100600041006100C114C1130163FFD9
:1035A30041002A0042001C0000021C0000021E0011
:1035B30000C111C110C112C11AC10541004300412C
:1035C30000470041004400410048004100490041D8
:1035D30000421941004B00C100C10100D206123B59
:1035E300CF30184875241490F500E04480F07F0A2A
:1035F3007E0012266912003D30E7020563AF63EFD8
:10360300F47006D20615248018E563541F701275F2
:10361300241430060CD213F563900061E004F0C269
:1036230006E52470C990F500E0547FF022AB077AD9
:10363300FF900040E07041EB1233A0403B1233AAED
:10364300400AEF941FEE64809480402C900039125E
:1036530007FC0000000012338EEBF0A37401F0EBC3
:1036630030E40543DF80800353DF7F53DEF0EB5408
:103673000F42DEDAFE43DF0222C0E0C0F0C083C0A7
:1036830082C0D075D000C000C001C002C003C00416
:10369300C005C006C00775C9001568B20CE568709F
:1036A30008756804D20B1238C2D007D006D005D0F3
:1036B30004D003D002D001D000D0D0D082D083D0A8
:1036C300F0D0E0328B358A3689378F3B8E3A8D398D
:1036D3008C38E4F53CAB350537E537AA367002057F
:1036E3003614F9120564623C7F08E53C30E708258F
:1036F300E06407F53C8006E53C25E0F53CDFEB782C
:103703003874FF1207D2EC4D4E4F70C9AF3C22758F
:103713002401E4F525F526FB7D037F0212319E7B10
:10372300007A0079247D087F02120CE57D087F0270
:10373300123BEE7B027D037F021234D343B904753F
:10374300130075142890005F74FFF0E4F515F51667
:10375300F518F519F51AF51B22C2D5E830E70FB2B3
:10376300D5E4C39BFBE49AFAE499F9E498F8EC30C6
:10377300E717B2D51237921206E6E4C39BFBE49A2D
:10378300FAE499F9E498F880031206E630D50DE4DB
:10379300C39FFFE49EFEE49DFDE49CFC2290004653
:1037A300E0FF7E0070059000588030900059E004DF
:1037B300F07006900058E004F07C007D061205BC12
:1037C300EF240FFFE43EFEC3900059E09FEE6480B8
:1037D300F8900058E06480984004E4F0A3F022C01D
:1037E300E0C0F0C083C082C0D075D000C000C0016B
:1037F300C002C003C004C005C006C0071232EA7588
:10380300B600D007D006D005D004D003D002D00133
:10381300D000D0D0D082D083D0F0D0E03275260350
:10382300752701752801122F087D021238487D1073
:10383300E4FF120CE57D081238487D20E4FF120CEA
:10384300E5122EFA227B007A007926E4FF120CE5BA
:103853007B007A00792622D3EF9DEC6480F8EE6436
:10386300809840028004AE04AF058E278F28E52898
:103873006402452770082010057F0812327FE5286F
:103883006403452770057F0912327F2275F009EF23
:1038930012082DEE75F009A42583F583E493227BAA
:1038A300007F037E007D007C0022252CF9E4FAFBD7
:1038B300AD2CAC2B22C39404E52B6480948022E5C9
:1038C3001530E711547FFFC3940550010F53158042
:1038D300EF42158003E4F515E51630E710547FFF3A
:1038E300C3940450010F531680EF421622E4F516D9
:1038F300228F35EF64197005120564F5FEEDF5FCB2
:10390300ECFFEFF5FD008535FF000000000000E54A
:10391300FF20E0FBE53564117005E5FE1205AA22E0
:10392300E4FFFE7C40AB4EAA4DA94CA84B02031406
:103933007D01AF24123C748F2422AB5EAA5DA95C87
:10394300A85B020314AB10AA11A912020564EF14B9
:1039530060111460151460192403701CE5AC5D60DC
:1039630017D322E5AD5D6010D322E5AE5D6009D3C8
:1039730022E5AF5D6002D322C322E56370277F0592
:103983007E0012266912003D30E7020563AF63EF44
:10399300F470EB90F166F090F12604F0900061E092
:1039A30004F0E4F565227B007A8079BB12007D8FF9
:1039B300308E2F8D2E8C2D22AB2CAA2BA92AA82931
:1039C30022AF4AEF3395E0FE228F2C8E2B8D2A8C6B
:1039D3002922750803750920E4FFFE903F6C123815
:1039E3008F6402700D903F6F12388FF50874019346
:1039F300F5090FBF00010EEF640B4E70DE22752632
:103A030003E4F527752801C2A4C2A5FB7D10123A71
:103A13001F7B007D20123A1FE4F567227A00792686
:103A23007F02120CE522A907900047E0FE5480FBB9
:103A33003395E04B700BED3395E0FCED64014C7076
:103A43000CEE547F900047F0AF0112327F22E42046
:103A53000706F5C853A8DF22F5CE75CB0B75CADB75
:103A630075CD5D75CC6643A820F5C975CF807568A3
:103A73000475C89122C0E0C083C0825380DF5380A5
:103A8300F75380FD5380EF53A0EF53A0DF7563001E
:103A930090F509E4F0D082D083D0E032EF14600CCB
:103AA30014600F147010C2A4D2A5800AD2A4C2A5B8
:103AB3008004D2A4D2A57F147E00122669C2A4C2B8
:103AC300A522300614123A011227D3122FB412384A
:103AD30020E490001EF0023BCFC207123A51123B82
:103AE300B012292E123D7D22EF14600F14601114C1
:103AF300601324037013EDF452AC22EDF452AD22A3
:103B0300EDF452AE22EDF452AF22FDFCAB42AA41DA
:103B1300A940A83F02079CE4AB3CAA3DA93E02058D
:103B2300AAAB42AA41A940A83F02079C90F1417465
:103B330001F07F003006027FFF90F140EFF0123D6D
:103B4300387F01300E027F0090F164EFF0227D0890
:103B53007F02123AEB90005F74AAF0D219E5163097
:103B6300E703751680E51520E70375158022121B00
:103B7300C4400CA3E024FFF090001CE034FFF0905D
:103B8300002A121C51121C6D4003E014F022E517A9
:103B93007004E51B6004E4FEFF22E51A7003FEFFD8
:103BA30022120003300705E4F51AF51922E4FB7D20
:103BB30002FF12319EC2077D02E4FF1224F990F145
:103BC30021E4F090F126F090F123F02290F50074B7
:103BD30009F090F5027419F090F50CE4F090F506F5
:103BE3007438F0A37405F075B98022EF14600E14D5
:103BF300600F1460102403700FED42AC22ED42AD50
:103C030022ED42AE22ED42AF22122209FF6017904D
:103C1300000712057D6005900045EFF0E4FF1232C6
:103C23007FE4FF122B1E2290F500E04480F07F1406
:103C33007E0012266990F509E4F090F50804F0225D
:103C4300EF3395E0FEC3EF9401EE6480948022D3BA
:103C5300EF940BEE6480948022E4F516F51AF519BF
:103C6300F517F518EF64014E7F0070027F018F1B7B
:103C730022EFFB3395E0FAC3EB9408EA6480948067
:103C83005004EF2DFF227F0822900046EFF01239F7
:103C9300486401600A7F01122B1E7F0112327F22CA
:103CA300900048E0FE5480FD3395E04D6007EE54EC
:103CB3007FF012327F2253DE7F007F002006027FD7
:103CC300A090F692EFF00043DE80225388CF538911
:103CD300F0438901E4F58CF58A75A80243A8802294
:103CE300E5186002D322E51A6002D322E51BC36004
:103CF30001D322EF64014E700B200405123D6F4087
:103D030003123C0C22300907C2AF0075FBAA2275CF
:103D1300FB5500D2AF222014037F0022900061E004
:103D2300FFE4F0C21422900054E0F8A3E0F9A3E00A
:103D3300FAA3E0FB2290F1297401F090F129E070DD
:103D4300FA22EFF0AF037E007401A8070822E518FA
:103D53007002C322E4F518D322E5665480FF33953D
:103D6300E04F2290001EE0700204F022E517C360CA
:103D730001D322E51BC36001D322122EFA122F08AE
:103D8300225388EFD20A3200512CD5004B18690018
:103D930045845700406521003BB06200375CB600A4
:103DA30033619B002FB760002C570700293A3D0071
:103DB300265B410023B4DC0021424D001EFF450079
:103DC3001CE7D5001AF86900192DBE001784DA0024
:103DD30015FB0600148DC700133ADA0012002B00FE
:103DE30010DBD6000FCC1E000ECF6C000DE44B0091
:103DF3000D0965000C3D80000B7F7C000ACE50004E
:103E03000A290700098EC30008FEB50008781F00C1
:103E130007FA52000784AE0007169D0006AF97000D
:103E2300064F1C0005F4B800059FFE0005508B00EB
:103E33000506020004C00D00047E5D000440A900D5
:103E43000406AC0003D02700039CE100036CA1002F
:103E5300033F37000314720002EC280002C62F0050
:103E630002A2630002809F000260C3000242B1000D
:103E730002264C00020B7B0001F2230001DA2E0024
:103E830001C3870001AE19000199D2000186A00089
:103E93000174720001633A000152EA0001437200A7
:103EA3000134C8000126DF000119AC00010D250013
:103EB300010141F5F5EB3AE107D755CE1DC558BDD4
:103EC30000B50EAD7FA64C9F7098E792AC8CBB8774
:103ED3001181AA7C82779772E46E676A1E66066216
:103EE3001C5E5F5ACB575F541950F84DF84B1A4874
:103EF3005A45B8433340C83E773C3E3A1D381236E4
:103F03001D343B326D30B22F082D6F2BE62A6C29FE
:103F13000127A42655251323DD22B22193207F1FD9
:103F2300751E751D7E1C901BAC1ACF19FB192E181C
:103F33006917AA16F31642159714F2145313B913FB
:103F4300251296120C11861105108810100F9B0F65
:103F53002B0EBE0E550DEF0D8C0D2D0CD10C780CC8
:103F6300210BCE0B7D0B2E0AE300000000000000A6
:103F7300010001000000000000000003000F00002A
:103F83000AF0000004032000000B5401000505DCC7
:103F930000000BB80100060BB800000BEA01010793
:103FA3001D4C00000C1C0101084E2000000C800079
:103FB30001092EE000000BB80001021D4C03200C88
:103FC3001C00010A2EE000000BB8000100000000F5
:103FD30000000000000000000000000000000000DE
:103FE300524B44382F21180F91B464DCDC78B4644D
:083FF300070F1F0D080E000668
:00000001FF
