:10000000022B9AAF19EF3395E0FE22023C4E752485
:100010007F120047E56270117F05FE122641D5244C
:10002000F0756702121F8080FE22220235A7EF338F
:1000300095E0FEC3EF9401EE6480948022D3EF94A8
:100040000BEE6480948022021E792202370D020496
:100050000FE86480F8E933E83360110460F0ED33B1
:10006000EC337009E8FCE9FDEAFEEBFF220460DEF8
:10007000D3EB9FEA9EE99DE8C2E78CF0C2F795F0CA
:10008000400CE8CCF8E9CDF9EACEFAEBCFFB12034D
:10009000DA85D0F05804700320D5B3E80470075017
:1000A00002B2D502041992D5EC0460F7E4CCC0E0AA
:1000B000C398F8603B94186008400DD0E0FB020341
:1000C000F1E4FBFAC9FC8028E830E406E4C9FBE46B
:1000D000CAFCE830E305E4C9CACBFCE85407601069
:1000E000F8C3E913F9EA13FAEB13FBEC13FCD8F1AC
:1000F00030F52FC3E49CFCEF9BFFEE9AFEED99FDDB
:10010000D0E0FBEF4E4D4C701222DB03020416ECE4
:100110002CFCEF33FFEE33FEED33FDED30E7EB0269
:1001200003F1EF2BFFEE3AFEED39FDD0E0FB50136B
:100130000BBB0003020419ED13FDEE13FEEF13FFDA
:10014000EC13FC0203F1EC4D6011E8497017ED333C
:10015000EC3304600DE4FCFFFEFD22E933E83304D8
:1001600070F802040F1203DA58046009E4CC248109
:100170005006285009020419284003020416C0E062
:10018000EB4A7044B98006D0E0FB020405EF4E70E4
:100190001CBD8008EBFFEAFEE9FD80EBE98DF0A4D1
:1001A000FEE5F002022FE9CDF9EAFEEBFFEF89F060
:1001B000A4FCE5F0CE89F0A42EFFE435F0CD89F063
:1001C000A42DFEE435F08067EF4E7005BD80D7802A
:1001D000C3EF8BF0A4ACF0EE8BF0A42CFCE435F074
:1001E000F8EF8AF0A42CE5F038FCE433CB8DF0A4D2
:1001F0002CFCE5F03BF8EE8AF0A42CFCE5F038F896
:10020000E433CF89F0A42CFCE5F038CF3400CE895C
:10021000F0A42FFFE5F03EFEE433C98DF0A42EFEDE
:10022000E5F039CD8AF0A42FFFE5F03EFEE43DFD78
:1002300033D0E0FB50070BBB000F020419EC2CFC81
:10024000EF33FFEE33FEED33FD0203F1020419EC50
:100250005D046005E85904700302040F1203DA58C4
:100260000460F6EC4860F2EC7004FDFEFF22C8600A
:10027000DB2481C85009C398600250060204169816
:1002800050CAF582E9294B4A7005AB820204057514
:10029000F0007C1A7880C3EF9BEE9AED99400DC375
:1002A000EF9BFFEE9AFEED99FDE842F0DC23ACF007
:1002B000D0E0FFD0E0FED0E0FDAB8220E7101BEBEA
:1002C00060BAEC2CFCEF33FFEE33FEED33FD02039E
:1002D000F1E803F830E705C0F075F000EF2FFFEE0E
:1002E00033FEED33FD40B830E7C280AA74F8CC6429
:1002F00080CCC86480C8F58204604FC3EB9FF5F0E2
:10030000EA9E42F0E99D42F0E89C45F0603C501DB9
:10031000E5825FFFE582D313CB5BCBF42B5582FBE9
:1003200050280ABA002409B9002008801DE5825B24
:10033000FBE582D313CF5FCFF4C3132F5582FF5059
:10034000090EBE00050DBD00010CC3EB9FF5F0EAE0
:100350009E42F0E99D42F0E89C45F06007CC4820C1
:10036000E701B3EC2275F020800E75F01080057562
:10037000F0087D007E007F003392D530D503120750
:1003800050EC334010EF33FFEE33FEED33FDEC3332
:10039000FCD5F0ED22E5F0247EA2D513CC92E7CD7A
:1003A000CEFF22EDD2E7CD33EC3392D52481400647
:1003B000E4FFFEFDFC22FCE4CFCECDCC24E05011C6
:1003C00074FF80EDC3CC13CCCD13CDCE13CECF13A1
:1003D000CF0470F030D5DE020750E9D2E7C933E828
:1003E00033F892D5EDD2E7CD33EC33FC5002B2D5E1
:1003F00022EC30E7100FBF000C0EBE00080DBD0050
:10040000040BEB6014A2D5EB13FCED92E7FD227414
:10041000FFFCFDFEFF22E480F8A2D574FF13FC7DF3
:1004200080E480EFE709F608DFFA8046E709F20882
:10043000DFFA803E88828C83E709F0A3DFFA8032FE
:10044000E309F608DFFA8078E309F208DFFA807042
:1004500088828C83E309F0A3DFFA806489828A832F
:10046000E0A3F608DFFA805889828A83E0A3F208C5
:10047000DFFA804C80D280FA80C680D4806980F216
:100480008033801080A680EA809A80A880DA80E29B
:1004900080CA803389828A83ECFAE493A3C8C58238
:1004A000C8CCC583CCF0A3C8C582C8CCC583CCDF7B
:1004B000E9DEE7800D89828A83E493A3F608DFF9F9
:1004C000ECFAA9F0EDFB2289828A83ECFAE0A3C85A
:1004D000C582C8CCC583CCF0A3C8C582C8CCC583AF
:1004E000CCDFEADEE880DB89828A83E493A3F2082A
:1004F000DFF980CC88F0EF60010E4E60C388F0ED2C
:100500002402B4040050B9F582EB2402B404005074
:10051000AF232345822390047473C2D530F707B20A
:10052000D563F0FF05F030E70CB2D5F4048463F036
:10053000FF05F080018430D502F40422BB01068956
:10054000828A83E0225002E722BBFE02E3228982F4
:100550008A83E49322BB010CE58229F582E5833A84
:10056000F583E0225006E92582F8E622BBFE06E983
:100570002582F8E222E58229F582E5833AF583E4D3
:100580009322BB010689828A83F0225002F722BBA4
:10059000FE01F322EF8DF0A4A8F0CF8CF0A428CEBA
:1005A0008DF0A42EFE22C2D5EC30E709B2D5E4C30B
:1005B0009DFDE49CFCEE30E715B2D5E4C39FFFE45B
:1005C0009EFE120811C3E49DFDE49CFC800312080A
:1005D0001130D507C3E49FFFE49EFE22BB0110E566
:1005E0008229F582E5833AF583E0F5F0A3E0225015
:1005F00009E92582F886F008E622BBFE0AE9258291
:10060000F8E2F5F008E222E5832AF583E993F5F0B4
:10061000A3E99322BB010A89828A83F0E5F0A3F063
:10062000225006F709A7F01922BBFE06F3E5F009F0
:10063000F31922E88FF0A4CC8BF0A42CFCE98EF007
:10064000A42CFC8AF0EDA42CFCEA8EF0A4CDA8F03A
:100650008BF0A42DCC3825F0FDE98FF0A42CCD35FE
:10066000F0FCEB8EF0A4FEA9F0EB8FF0A4CFC5F068
:100670002ECD39FEE43CFCEAA42DCE35F0FDE43C61
:10068000FC2275F008758200EF2FFFEE33FECD33AC
:10069000CDCC33CCC58233C5829BED9AEC99E582F3
:1006A00098400CF582EE9BFEED9AFDEC99FC0FD57F
:1006B000F0D6E4CEFBE4CDFAE4CCF9A88222B8006F
:1006C000C1B90059BA002DEC8BF084CFCECDFCE53A
:1006D000F0CBF97818EF2FFFEE33FEED33FDEC335E
:1006E000FCEB33FB10D703994004EB99FB0FD8E5E3
:1006F000E4F9FA227818EF2FFFEE33FEED33FDEC2C
:1007000033FCC933C910D7059BE99A4007EC9BFC21
:10071000E99AF90FD8E0E4C9FAE4CCFB2275F010AD
:10072000EF2FFFEE33FEED33FDCC33CCC833C810D2
:10073000D7079BEC9AE899400AED9BFDEC9AFCE800
:1007400099F80FD5F0DAE4CDFBE4CCFAE4C8F9224D
:10075000C3E49FFFE49EFEE49DFDE49CFC22EB9F2E
:10076000F5F0EA9E42F0E99D42F0EC6480C86480B6
:100770009845F022EB9FF5F0EA9E42F0E99D42F0A9
:10078000E89C45F022E8600FECC313FCED13FDEE8E
:1007900013FEEF13FFD8F122E493FC740193FD7470
:1007A0000293FE740393FF227401FF3395E0FEFD74
:1007B000FC080808E62FFFF618E63EFEF618E63DB0
:1007C000FDF618E63CFCF622ECF0A3EDF0A3EEF00B
:1007D000A3EFF022A8828583F0D083D0821207EBAA
:1007E0001207EB1207EB1207EBE473E493A3C58344
:1007F000C5F0C583C8C582C8F0A3C583C5F0C5834D
:10080000C8C582C822A42582F582E5F03583F58328
:1008100022BC000BBE0029EF8DF084FFADF022E476
:10082000CCF875F008EF2FFFEE33FEEC33FCEE9DB5
:10083000EC984005FCEE9DFE0FD5F0E9E4CEFD22DC
:10084000EDF8F5F0EE8420D21CFEADF075F008EF67
:100850002FFFED33FD4007985006D5F0F222C398E4
:10086000FD0FD5F0EA22123BE38F26123C1B9206C5
:10087000C207123A8D8E248F25900045E06009C38F
:10088000940B7480948040069000457404F09000AE
:1008900046E0FF64017003020C62EF640270030221
:1008A0000C62EF64087003020C621221E1B40B00C9
:1008B0004003020B869008BCF82828730208F60251
:1008C00008DD020A87020A22020AA8020ABC020AFA
:1008D000CF020AE2020B09020B3D020B61C20420A7
:1008E0000603020B86900046E064077003020B8645
:1008F000E4F0FF020991E525640545247011C20466
:10090000D3300301C392039000447408F080183080
:100910000315D3E5259400E52464809480500512E6
:100920003BAD5003756706300303020B86E5256473
:10093000064524700DD3300401C392049000447422
:1009400002F0300427123C394003020B867F667E9A
:10095000667D4612217E600940072010047F0880D2
:1009600030122178603640347F078064E5256401C9
:1009700045246004E52660267F9A7E997D39122100
:100980007E6010400E3002047F028005900045E03A
:10099000FF803D12217860044002803C8050E525B4
:1009A00064024524702F30100280437F667E667D8E
:1009B0004612217E600740057F08020B381221781D
:1009C0006011400F3002047F028005900045E0FF77
:1009D000020B3880193006057F03020B38122247BC
:1009E0007012122178600740057F09020B38756785
:1009F00006020B86E525640445247018D3300201F5
:100A0000C392027F082002027F098F67C20812305A
:100A100089020B86123C404003020B86123C3002D6
:100A20000B867D037F0112338CAF26EF3395E0FEFA
:100A3000E4FDFC123785E525640145247003123B73
:100A40000820060B1221FA64014E6003020B867F18
:100A50009A7E997D3912217E60025003020B867FB7
:100A6000043002027F021232571221FA64014E70E2
:100A700003020B863002031238D4900047E0444052
:100A8000F0750E04020B862005131221FA64044E41
:100A900070057F03123257120C8B120CAD121C5DC5
:100AA000AF2612190C020B867D047F0112338C12C3
:100AB0000C8B120CADAD267F05020B837D04120C4E
:100AC00063120CB5AD267F061239287F0480357D70
:100AD00005120C63120CB5AD267F071239287F056D
:100AE00080227D06120C77AD25AC24123785E4FDFB
:100AF0007F041239281221FA64014E70057F031217
:100B000032577F06123B6D807D7D07120C77EF64B4
:100B1000014E600BE52564024524600330120A7F14
:100B2000043002027F021232571221FA64034E602F
:100B30000512224770507F0912325780497D0912F1
:100B40000C9A70082010057F081232571222477045
:100B50000A7F043002027F02123257AD267F0A80DC
:100B6000227D0A120C9A70082010057F0812325755
:100B7000122247700A7F043002027F02123257AD00
:100B8000267F09123928900044122194400C9000CD
:100B9000001207D442A00000806EAF0EEF12219623
:100BA000400C9000001207D4BF800000805A122130
:100BB000E124FE602224F8603A047040300C0E906C
:100BC00000011205DCFFAEF0AC06FD80357EFF7F34
:100BD000FF7CFF7DFF802BC3E50D9509E508122200
:100BE0000B5006AE0CAF0D8004AE08AF09AC06ADDD
:100BF00007800F122589AC06AD0780061221BCFDC7
:100C0000ACF012221C1207C81222141221836008B1
:100C100040061222141207C8D207123A8D90000023
:100C2000E0FCA3E0FDA3E0FEA3E0FF1203A3121A81
:100C300037900052EEF0A3EFF0301308AF26EF121A
:100C40002196500F900042E0FF3395E0FEEF6418CC
:100C50004E700FC213900042E004F01221E1FF1227
:100C60002AF622E4FF12338CAF25AE24123BC0AF2C
:100C700026EF3395E0FE22E4FF12338CAF25AE243D
:100C8000123BC0AF26EF3395E0FE22AF25AE241213
:100C90003BC0AF26EF3395E0FE227F0112338CAFCD
:100CA00025AE24123BC0E5256402452422AD25ACC7
:100CB0002412378522AD25AC24123785228F2912C4
:100CC000053CFF14601514602814603D14603A243C
:100CD00004705C1229B9122A0080291229B9F58200
:100CE0007401F52E85822FE582F4F582753000803F
:100CF000131229B9F4F582752E0085822FEDF58245
:100D00007401F5308582318026ED122A008582310A
:100D1000EDF5827401F52A85822BEF64047007EDEE
:100D2000FF7401FE8005EDF4FF7E008E2C8F2D9068
:100D300000011205557007EDFF7401FE8005EDF40A
:100D4000FF7E008E328F339000021205557007ED42
:100D5000FF7401FE8005EDF4FF7E00E529147003A9
:100D6000020DF9147003020E7C147003020EFF24AE
:100D7000036003020F89E52AAB9A30E006E52B4BAE
:100D8000FD8004E52B5BFD8D9AE52C30E00890F0AA
:100D900009122A20800690F009122A2790F009ED06
:100DA000F0E52E30E005122A10800690F00A122A93
:100DB0002E90F00AEDF0E53030E005122A1880069A
:100DC00090F00B122A3590F00BEDF0EE30E00512AA
:100DD0002A44800890F00CE0FBEF5BFD90F00CEDF6
:100DE000F0E53230E005122A3C800690F00D122A20
:100DF0004BAF0590F00DEDF022E52AABA130E006F7
:100E0000E52B4BFD8004E52B5BFD8DA1E52C30E04F
:100E10000890F019122A20800690F019122A2790C3
:100E2000F019EDF0E52E30E005122A10800690F062
:100E30001A122A2E90F01AEDF0E53030E005122A51
:100E400018800690F01B122A3590F01BEDF0EE3062
:100E5000E005122A44800890F01CE0FBEF5BFD9057
:100E6000F01CEDF0E53230E005122A3C800690F0EF
:100E70001D122A4BAF0590F01DEDF022E52AABA222
:100E800030E006E52B4BFD8004E52B5BFD8DA2E5F4
:100E90002C30E00890F029122A20800690F02912C8
:100EA0002A2790F029EDF0E52E30E005122A108077
:100EB0000690F02A122A2E90F02AEDF0E53030E06C
:100EC00005122A18800690F02B122A3590F02BED8F
:100ED000F0EE30E005122A44800890F02CE0FBEFA1
:100EE0005BFD90F02CEDF0E53230E005122A3C80FD
:100EF0000690F02D122A4BAF0590F02DEDF022E573
:100F00002AABA330E006E52B4BFD8004E52B5BFD0F
:100F10008DA3E52C30E00890F039122A208006904D
:100F2000F039122A2790F039EDF0E52E30E0051265
:100F30002A10800690F03A122A2E90F03AEDF0E551
:100F40003030E005122A18800690F03B122A3590C6
:100F5000F03BEDF0EE30E008A3E0FDEF4DFF800840
:100F600090F03CE0FDEF5DFF90F03CEFF0E53230BB
:100F7000E009A3E0FDE5334DFF800990F03DE0FD81
:100F8000E5335DFF90F03DEFF022C3900029E0943F
:100F90002C900028E0648094815071E4FFFE7D7AFB
:100FA0007C44AB52AA51A950A84F1201461203A388
:100FB0008F2D8E2C8D2B8C2A900029E004F070064A
:100FC000900028E004F0121B6A252DFFEE352CFE60
:100FD000ED352BFDEC352AFC9000241207C8121BBE
:100FE000DFC3121C30500A900020E52CF0A3E52D41
:100FF000F0900022121BE2D3121C30500302108426
:10100000900022E52CF0A3E52DF08078121B6AFFFA
:10101000C004C005C006C007900022E0FEA3E0FBAC
:10102000AA06EA3395E0F9F8121BDFEF2BFBEE3A44
:10103000FAED39F9EC38F8D007D006D005D004C362
:10104000EF9BFFEE9AFEED99FDEC98FC121B64FFFE
:10105000C006C007900029E024FEFF900028E0347D
:10106000FFAB07FA3395E0F9F8D007D006123687C0
:10107000121B64FFEC120365121C3B90002B12073D
:10108000C81239C3121C1464027006AC0AAD0B807E
:101090000FAB10AA11A9129000051205DCFDACF0EF
:1010A000EC12036A121C3B8F298E288D278C267D1B
:1010B0002C121B4D60054003C38001D392163016DD
:1010C00004C215802BAF61EF3395E0FED3EF944B54
:1010D000EE648094804004D2158015AF29AE28AD0F
:1010E00027AC26121B5360054003C38001D3921521
:1010F00090001FE014601A14603014604F240370D5
:10110000587FCD7ECC7D6C121B51504D121C5680E9
:10111000487F9A7E997D79121B5160074005E490C3
:10112000001FF0121B4B50318029E4FFFE7D60123E
:101130001B5160054003121C567F9A7E997D39121F
:101140001B51501590001F7403F0800D121B4B6053
:1011500008400690001F7402F0AF67EF6406604F0E
:10116000AF67EF64086048AF67EF640960419000C3
:1011700046E060030231E8121C14700690002AE079
:10118000602190001FE014600E14600F14601024A2
:1011900003701C756703227567022275670122754B
:1011A00067042290001EE060030213CBE4F567227F
:1011B00075240075254078007C007D017BFF7A3E18
:1011C000799A7E007F141204F4E4FFFE7DB07C4027
:1011D000AB56AA55A954A8531202EC50030213CAE5
:1011E000122EF560030213CAC283C285C281D206E1
:1011F000123A2BD2847F057E001226411200477FCF
:10120000667E667D867C40AB4EAA4DA94CA84B12EB
:1012100002EC6002500DE525152570021524122EF2
:10122000BB50D2E52545247007C2847F010213C755
:10123000752400752564C2847F147E00122641C285
:1012400006123A2B1200477F0A7E001226417526AD
:1012500000752704122EB4C333CE33CED8F924FC44
:10126000F58274FF3EF583122E87C004C005C006C8
:10127000C007122EB4C333CE33CED8F9122EFED00F
:1012800007D006D005D0041207C8E527152770023D
:101290001526E527452670BCAF4EAE4DAD4CAC4B88
:1012A0009000001207C89000141207D4000000003C
:1012B000E4F526F527122E84C004C005C006C00739
:1012C000122EB4C333CE33CED8F9122E93D007D01A
:1012D00006D005D0041200559000141207C8052747
:1012E000E527700205266405452670C9122E84E4A0
:1012F000FBFA79A0784012024F9000141207C890B0
:1013000000181207D400000000E4F526F52790002D
:1013100018122E87C004C005C006C007122EB4C321
:1013200033CE33CED8F9122E93122E84120051E40C
:10133000FBFAF9F81202EC500F122EB4C333CE337D
:10134000CED8F9122E93801A122EB4C333CE33CED8
:10135000D8F9122EFE122E87E4FBFA798078BF129C
:101360002EE9122E84120051AB07AA06A905A80483
:10137000D007D006D005D0041200559000181207EF
:10138000C80527E527700205266405452660030287
:10139000130EC3E525945D122EC05013E4FFFEFD2D
:1013A0007C3F900018122E9C1202EC60025010E557
:1013B00025152570021524122EBB4003021244E5A8
:1013C00025452470057F02123B562290001EE01432
:1013D000B4090040030215C19013E675F003A4C5DB
:1013E0008325F0C5837302140102140F0214BF0297
:1013F00014EA02151602154102157302159F021513
:10140000B190001CE4F0A3740EF0A37402F02290DB
:10141000001CE0FEA3E0FFD3940CEE6480948040B7
:10142000057567038023D3EF940AEE6480948040AF
:10143000057567028013D3EF9408EE6480948040B2
:10144000057567018003E4F567121C45400302152A
:10145000C1AF56AE55AD54AC53121BF9121C26EF5A
:1014600064024E700990002F121B6D121BEE90004B
:101470002F121B6DFF1203A3AB07AA067C007D642D
:101480001205A6EF4E60067567090215AA8A2E8B13
:101490002FAE2EAF2F7C007D0A1205A68E2E8F2F29
:1014A000E52F452E7005121C0B800D121C4FC33307
:1014B000CE33CED8F9121BAC90001E7403F02290EC
:1014C000001CE0B4FF0AA3E0B4FF057F011215C2BF
:1014D000121B7840027F01121BFF40030215C1124C
:1014E0001C1D740AF0A37404F022121B9C4003021A
:1014F00015C190002F121B6D121BBA7005121C0B28
:10150000800D121C4FC333CE33CED8F9121BAC90D2
:10151000001E7405F02290001CE0B4FF0AA3E0B4A2
:10152000FF057F021215C2121B7840027F02121BB8
:10153000FF40030215C1121C1D740AF0A37406F0CB
:1015400022121B9C507B90002F121B6D121BEE90E1
:10155000002F121B6D121BBA7005121C0B800D128E
:101560001C4FC333CE33CED8F9121BAC90001E747F
:1015700007F02290001CE0B4FF0EA3E0B4FF097F47
:1015800003123977E4121C0D121B7840027F0312FC
:101590001BFF502D121C1D740CF0A37408F02212B6
:1015A0001B9C501D90002A740CF090001E7409F0D2
:1015B0002290002AE0700A123C404005E490001E90
:1015C000F022123977E490001CF0A3F0228E2D8FC8
:1015D0002E8D2F90F692E030E708E4FFFEFD7C4070
:1015E000800312336F12335DAC2DAD2EEC12036A03
:1015F000C004C005C006C007E4FBFA79807845AF97
:1016000037AE36AD35AC3412024FD003D002D00124
:10161000D0001201468F3B8E3A8D398C38E52F6011
:101620005924FA70030216B224FE700302170C2428
:10163000FB700302173724EE6014241160030217B5
:1016400076853B5E853A5D85395C85385B22AC2DBD
:10165000AD2EEC12036AA804A905AA06AB077F9A6F
:101660007E997D997C4512024F8F338E328D318C5D
:10167000308F5A8E598D588C5722753335753248B4
:101680007531031233448F568E558D548C53900010
:101690005CE0FC12036FA804A905AA06AB07AF56CD
:1016A000AE55AD54AC5312024F8F528E518D508CAB
:1016B0004F2275332D7532A67531331233448F4E58
:1016C0008E4D8D4C8C4BAB56AA55A954A853120283
:1016D0004FE4FBFA79C878421201468F338E328D7F
:1016E000318C301203A38F61EF3395E0FED3EF947A
:1016F00064EE648094804003756164AF61EF33955C
:10170000E0C364809480506EE4F5612212333B1292
:10171000336F120051C004C005C006C0077D4812D7
:101720003336120146D003D002D001D00012335A12
:101730001203A38E5F8F6012333B12336F1200517E
:10174000C004C005C006C0077DA51233361201468D
:10175000D003D002D001D00012335AE4FBFA797AD8
:10176000784412014612335D1203A37B007A00799C
:10177000621222658F4A22E56270047F0680411260
:1017800038C3D3EF9441EE648094804002D212D3E8
:10179000EF943CEE648094804004D210800DC3EF3F
:1017A0009432EE648094805002C2103012052010F2
:1017B00002C212D3EF944BEE6480948040057F0701
:1017C000023B561238C3C3EF9437EE6480948050C6
:1017D0000D900046E064077005F0FF123257AB1021
:1017E000AA11A9129000081205557004C211801F99
:1017F0001238C3D3EF9432EE648094804004D21147
:10180000800DC3EF9428EE648094805002C21120B2
:10181000110AE4F51CF51DF51EF51F22D3900053A7
:10182000E09400900052E064809480500302190B11
:101830001238C3EF24CEFFEE34FFAB07FAD3EB949C
:1018400000EA648094804004AE02801AC3E49BFFE7
:10185000E49AFED3EF9401EE648094807E0040040D
:101860007F0180027F00EF4E6042900052E0FEA3B5
:10187000E0FF7C177D701205A6D3EF9400EE648024
:1018800094804002801D900052E0FEA3E0FFC3E47C
:101890009FFFE49EFE7C177D701205A6EF2401FFDA
:1018A000E43EFEAD03AC0212059480047E007F008E
:1018B000EF251FF51FEE351EF51ED3E51F9450E5ED
:1018C0001E648094C64006751E46751F50C3E51EF3
:1018D000648094805005E4F51EF51FEB251DF51D71
:1018E000EA351CF51CD3E51D94E0E51C648094AE3C
:1018F0004006751C2E751DE0C3E51D9420E51C6493
:101900008094515006751CD1751D20228F27123CE2
:10191000404005123C395003D38001C39207122185
:10192000BC122203500AAC0CAD0DAE04AF05800012
:101930008E288F299000011205DCFFC3E5299FE561
:10194000F06480F8E528648098500B300708122175
:10195000EB400312225E20050EAF271221FC64012A
:101960004E7050D205804C30010A0509E509700C13
:1019700005088008E5091509700215089000031292
:1019800021BFFFAEF0D3E5099FEE1221F15006D240
:10199000018E088F091221EA4005C20112225EAFB2
:1019A000271221FC64014E6005123BAD5005C205B3
:1019B000750F1E123C39500D20000A0509E509700B
:1019C0001E0508801A123C40500D20000AE509153A
:1019D00009700215088008200705300002C20012B5
:1019E0003C39501020000D1221EA4008750E0412F7
:1019F000225ED200123C405025200022AB10AA11DA
:101A0000A9129000031205DCFFAEF0D3E5099FEEAA
:101A10001221F15009750E048E088F09D20030078B
:101A200004E4F50F22AF0F1221FC64204E7007056D
:101A30000FC208123089228E278F2830110DD3E56E
:101A4000289400E527648094805005AE27AF2822B3
:101A5000AC1EAD1FEC12036A7B007AA0798C78462D
:101A600012024F1238CBE4FBFA79C87842120146D1
:101A70001238CBAC1CAD1DEC12036A7B007A807966
:101A80003B784612024F8F348E338D328C311238B0
:101A9000BAC000C001C002C003E4FFFE7D207C414B
:101AA000AB34AA33A932A831120146D003D002D0F8
:101AB00001D0001200551238CBE4FFFEFDFC1238B5
:101AC000BA1202EC5009E4F52CF52BF52AF529E4BD
:101AD000FFFE7DC87C421238BA1202EC600D400B4A
:101AE000E4F52CF52B752AC8752942C3E52894DC4A
:101AF000E5276480948550057E057FDC22AC27AD08
:101B000028EC12036A78C41238A8E4FBFA79C87882
:101B10004212024F1238B1AB30AA2FA92EA82DC005
:101B200000C001C002C0031238BAE4FFFE7DC87CC9
:101B300042120051D003D002D001D000120146124F
:101B400038B178441238A81203A3227D4C7FCD7E91
:101B5000CC7C4090002BE0F8A3E0F9A3E0FAA3E0EE
:101B6000FB0202EC9000241207C8900024E0FCA3C2
:101B7000E0FDA3E0FEA3E02290001CE0FAA3E0FB5E
:101B80007C007D04FFAE021205A68C2E8D2FD3E5BE
:101B90002F9401E52E648094807F0022D390001D55
:101BA000E0940090001CE0648094802224FFFFEE0B
:101BB00034FF90001CF0A3EFF022FF1203A38E2E3F
:101BC0008F2F7C007D0A1205A68C2E8D2FE52F45C8
:101BD0002E227C40AB52AA51A950A84F0202EC9091
:101BE0000020E0FEA3E0FFEE3395E0FDFC22FFE4E1
:101BF000FBFA7920784112014690002F0207C88F26
:101C000067D3EB9400EA648094802274FF90001CF8
:101C1000F0A3F022AB10AA11A91202053CE4F5676B
:101C200090001CF0A32290005CE0FF3395E0FE22C0
:101C3000AB2DAA2CA92BA82A02075EE4FBFA797A1D
:101C4000784402024FD3EF9400EE6480948022AE79
:101C50002EE52F78022290001F7401F02230150328
:101C6000021CED301603021CEDE4900043F09000DE
:101C70001FE06003021D6A1221BC1222035068900B
:101C8000004BE0FD700404F08013ED3395E0FCC3DD
:101C9000ED9409EC648094805003021D6A90004B1F
:101CA0007401F09000051205DCFDACF0D3E50B9D4E
:101CB000EC6480F8E50A64809840068C0A8D0B80FD
:101CC0000B7432250BF50BE4350AF50AD312220703
:101CD00040091221BCF50D85F00C2274FA250DF592
:101CE0000DE4350CF50C22E490004BF022E490005A
:101CF0004BF0900043E0FF3395E0FEEF4E7003742D
:101D000080F0900043E0547FF527301613FF3395A1
:101D1000E0FED3EF9404EE648094804003023B081D
:101D2000AF27EF3395E0FED3EF9409EE6480948003
:101D30004038D3E50D94EEE50C64809482400C7439
:101D400006250DF50D74FF350CF50CD3E50B94BE8F
:101D5000E50A6480948A400C74E7250BF50B74FF48
:101D6000350AF50A9000437480F02212387360122D
:101D7000AF65EF3395E0FEC3EF9404EE648094808A
:101D80005006E490005BF022D3900053E094009062
:101D90000052E0648094805003021E7890005BE063
:101DA000540FF5247D9012384E60054003D3800116
:101DB000C392067FCD7ECC7D8C7C40AB52AA51A9CC
:101DC00050A84F1202EC600740057F04123B567F7B
:101DD000667E667D06123851400F7F9A7E997D9906
:101DE0007C40123868600C400A7D02123860E4F5CD
:101DF000258049E4FFFE7D807C3E12386840097DE5
:101E0000F012384E600A400812385E752501802CA9
:101E1000A217300601B3500812385E752502801CE7
:101E2000AF24EF3395E0FED3EF9400EE648094800E
:101E30004006E52414FF80027F008F24E525C4546A
:101E4000F0452490005BF0AF24EF3395E0FEC3EF44
:101E50009408EE64809480401FE0FF7804A2E713AA
:101E6000D8FB540F24FE60070470087F0580067FAE
:101E70000980027F03123B5622E54964037002F594
:101E800049E549146042147003021F2914700302CB
:101E90001F7024036003021F6DD206123B83E4F51A
:101EA00028F52974C02529F582743E3528F583E488
:101EB00093FF123329EFF00529E529700205286404
:101EC00006452870DE021F68E4F528F5291233293B
:101ED000E0FF123378400F1233824018EF941FEE68
:101EE00064809480500E0529E52970020528640657
:101EF000452870D9C3E5299406E52864809480506C
:101F000023123329E0F52CFF3395E0FE4F6006EFF6
:101F100064064E7005C206123B83AF2C12355B750A
:101F20004902804C75490380477530007531007552
:101F3000322C7B007A00792A12285DEF4E6031AD99
:101F40002CAF2BAE2A1215CDE4F528F52912332932
:101F5000E0B52C0612332974FEF00529E52970023C
:101F600005286406452870E57549018003E4F549B4
:101F7000900041E06009E54964036003021E792294
:101F8000301123900060E0FF3395E0FEC3EF940C26
:101F9000EE648094805005E004F0800AE4900060D4
:101FA000F0C2A4C2A522E567B40A00400302208162
:101FB000901FB7F8282873021FD5021FE7021FDD04
:101FC000021FE2021FEC021FEC0220270220810206
:101FD0002027022027C2A4C2A5E4F56622D2A4D2FB
:101FE000A522C2A4D2A522D2A4C2A522C2A5E5667A
:101FF000547FFFAE67EE64047E0070027E03C3EE82
:102000006480F8EF64809850090F536680EF426651
:10201000800B123C267F8060027F008F66123C2678
:10202000C36001D392A42253667FAF67EF64096057
:1020300007AF67EF640870047F0680027F0AD3EF62
:102040006480F8E5666480984008C2A5C2A4E4F5FF
:102050006722E56675F00212051AAFF0EFC3600162
:10206000D39206AF67EF64087003C38002A20692A2
:10207000A4AF67EF64087004A2068001C392A505AF
:102080006622AF65EF3395E0FEC3EF9404EE648003
:1020900094805007E4900052F0A3F0900052E0FECC
:1020A000A3E0FF90004CE06E7003A3E06F700302AA
:1020B000217790004CEEF0A3EFF0D39400EE648013
:1020C000948050229000541207D400000000900029
:1020D0004CE0B4FF08A3E0B4FF03D38001C39281B6
:1020E000122EE202217590004CE0FEA3E0FFC394A3
:1020F000F4EE6480948150318E298F2AE4F52EF518
:102100002D752C80752B3FFFFE7DFA7C4312241425
:102110009000541207C8C281A2849206D284D2834E
:10212000C2852006507F0A8047122EF56409700888
:1021300090004E122E87802190004CE0F529A3E0FC
:10214000F52A752EC3752DF5752C88752B3F7F00EC
:102150007E007D007C401224149000541207C8D2E7
:1021600081A2849206D284C283D2852006077F048E
:102170007E00122641D20D227FCD7ECC7D2C7C406C
:1021800090002BE0F8A3E0F9A3E0FAA3E0FB020241
:10219000EC900049E0FF3395E0FED3EF9400EE644D
:1021A00080948022EF3395E0FE75F009EF12080568
:1021B000EE75F009A42583F583E49322900001AB2A
:1021C00010AA11A9120205DC75F004900049E0FD87
:1021D00012051AAFF0EF3395E0F5278F28D3E528E5
:1021E00022AB10AA11A91202053CC3E5099529E505
:1021F000286480F8E50864809822AF26EF3395E0E4
:10220000FEEF22FFAEF0C3E50D9FEE6480F8E50C13
:102210006480982290005DE0FCA3E0FDEC12036A6C
:1022200090000022EF3395E0FEC3EF22E054C0F0AF
:10223000C3ED9406EC6480948022E0FF543FF524C3
:10224000FD3395E0FC4D22E52564034524229401ED
:10225000E5276480948022EDFF3395E04F228528A6
:1022600008852909228B3C8A3D893E8F428E418D0B
:10227000408C3F7FD57E2C7D517C00D3123A20408C
:1022800006123A167FD822E47FE37E0AC3123A0987
:102290005006123A167F7D227401123A17E47FF538
:1022A0007EF5D3123A094038E4F543F544AE43E5F0
:1022B000447802C333CE33CED8F92455F582743C2A
:1022C0003EF583120798C3123A204006E54424D80D
:1022D000FF220544E54470020543644B454370CD3D
:1022E000E4F543F544E54425E0FFE54333FE74811E
:1022F0002FF582743D3EF583E493FE740193FFE471
:102300008F488E47F546F545E548F548E547F547DA
:10231000E4F546F545AF42AE41AD40AC3FAB48AA0F
:1023200047A946A845D31207745006E5442423FF65
:10233000220544E54470020543645B454370A612E0
:102340003A16FF22120047855F24856025D3E525D4
:102350009464E524648094804010749C2525F525C0
:1023600074FF3524F524C2188002D218E4FBFA74F5
:10237000AE2BF582743E3AF583E493FF7E0024048D
:10238000FDEE33FCD3E5259DEC6480F8E524648004
:1023900098506DEF24FCFFEE34FFFEC3E5259FEE61
:1023A0006480F8E524648098405674B62BF58274F6
:1023B0003E3AF583E493FF7E007C007D6412059431
:1023C00090005DEEF0A3123C0F8005C333CE33CEF8
:1023D000D8F9FF903EBFE493FDEF5D7F0260027F7E
:1023E0000390005C123C0F8005C333CE33CED8F986
:1023F000FF903EBEE493FDEF5DC36001D3921722D0
:102400000BBB00010AEB64084A600302236F7F08DC
:10241000123B56228F288E278D268C25AC29AD2A7B
:10242000EC12036AAB28AA27A926A825122EA8E435
:10243000FBFA797A784412024F122EAB7B9D7A69AF
:10244000795C783C12024F122EABD3E52A9440E51A
:10245000296480949F400BAB2EAA2DA92CA82B1287
:102460002EA8AF32AE31AD30AC2FC004C005C006CF
:10247000C007E4FFFE7D7A7C44AB5AAA59A958A84C
:1024800057122EE9D007D006D005D00412024F1201
:102490002EABE4FBFA79C87842122EA8E4FFFE7D49
:1024A000C87C42122EC7600D400BE4F532F5317541
:1024B00030C8752F42E4FFFEFDFC122EC75009E420
:1024C000F532F531F530F52FAF32AE31AD30AC2FFE
:1024D00022EF14603814605F147003022561240336
:1024E00060030225881229E3400302258830070E85
:1024F000A8057401088002C333D8FC428022A805D5
:102500007401088002C333D8FCF45280221229CE11
:1025100050761229DA407130070EA8057401088040
:1025200002C333D8FC429022A8057401088002C37C
:1025300033D8FCF45290221229AD504C1229EC40B1
:102540004730070EA8057401088002C333D8FC4247
:10255000A022A8057401088002C333D8FCF452A05D
:1025600022ED1229B1502130070EA8057401088010
:1025700002C333D8FC42B022AF05A807740108801B
:1025800002C333D8FCF452B02290004AE0B40700F2
:10259000400302263D90259CF82828730225B102AD
:1025A00025BE0225D90225E70226070226150226A6
:1025B00035900049740BF0A37401F002263D1221FE
:1025C000C812224E40028055122257707090004966
:1025D0007407F0A37402F08064122191505F742399
:1025E000F0A37403F0805675F00C1221CB94051201
:1025F00022504002802712225770429000497407EF
:10260000F0A37404F080361221915031740BF0A3C2
:102610007405F080281221C812224E40071221BCF6
:10262000FFAEF02212225770149000497423F0A3D9
:102630007406F080081221915003E4A3F0E4FEFF39
:10264000228E308F31E4F536F537E53145307003B1
:102650000226F60537E53770020536AE30AF31EEAB
:102660003395E0FDFCE47BA07A0FF9F81206338F76
:10267000358E348D338C32C006C007AE36AF37ABE3
:1026800007AA06EA3395E0F9F8D007D0061206BE8D
:102690008F358E348D338C32E47FFF7EFFFDFCABB3
:1026A00035AA34A933A832C312077450A6C374FFE5
:1026B0009535F53574FF9534F534E49533F533E409
:1026C0009532F532AF35AE34AD33AC3278081207FF
:1026D000858F8CE535FF8F8AC20A438810E58820F4
:1026E000E503300AF85388CFE53715377002153601
:1026F000E537453670CE22200D030227AA300F1988
:1027000090F129E060030227AA7F01300E01FF90BB
:10271000F164EFF0C20DC20F22E4FFFE7DC87C42DF
:10272000123BF31202EC600C400A9000541207D4E2
:1027300042C80000E4FFFEFDFC123BF31202EC5025
:102740000A9000541207D400000000AF27AE26AD57
:1027500025AC24EC4D4E4FC36001D3920E7F007E1A
:10276000807DBB7C45123BF3120146E4FBFA798085
:1027700078BF1200558F278E268D258C24E4FBFA16
:1027800079C8784212024F8F278E268D258C24120D
:1027900003A3AD07AC06ECFFEF90F141F0ED90F133
:1027A00040F0D20F90F1297401F022E4F526F527CC
:1027B000F528FB7A0079267D047F02120CBD7F018B
:1027C0001228517B007A0079267D01E4FF120CBDAE
:1027D0007F031228517B017D027F021231767B013B
:1027E0007D017F031231767B017D037F01123176FB
:1027F0007B01E4FDFF123176752603E4F527752889
:1028000001FBFD7F031231767B007A0079267D0182
:102810007F03120CBDD207E4FD7F031224D175DFC4
:102820004075DE60E4F5E9F5D1F5D375D50F75D4C3
:10283000FF90F69274A0F0E4F5499000391207D4A5
:1028400000000000123366F0A3F0A304F043DE8022
:10285000227B007A0079267D02120CBD228B2D8A04
:102860002E892FE5DF30E102805090003EE004F039
:10287000700690003DE004F0900039E0F8A3E0F924
:10288000A3E0FAA3E0FBAFDDEFFEADDCEDFFEE333E
:1028900095E0FDFCEB2FFFEA3EFEE93DFDE83CFC48
:1028A0009000391207C8C390003EE0940A90003DA2
:1028B000E064809480500743DF02E4FEFF22900032
:1028C00039E0FCA3E0FDA3E0FEA3E0FFE47B0AFA0D
:1028D000F9F81236879000391207C8900039A3A37F
:1028E000E0FFA3E0AB2DAA2EA92FCF8FF012061484
:1028F00090003FE0AB30AA31A932120582E490008B
:1029000040F0FE7F0122E4F5DE90F692F090004167
:1029100004F0E4F549FFEFFD3395E0FCC3ED9406C8
:10292000EC648094805015EF3395E0FC74332DF502
:102930008274003CF58374FEF00F80DA9000391247
:1029400007D400000000123366F0A3F0FB7D017F86
:1029500003123176E4FB7D037F0112317675260385
:10296000E4F527F528FB7A0079267D027F03120C17
:10297000BD7D087F011229A37D047F021229A3C215
:10298000077D027F021224D1C2077D017F0312243A
:10299000D1C2077D037F011224D1C207E4FD7F036A
:1029A0000224D17B007A007926120CBD22EDFF7E35
:1029B00000D394067480948022EDF4F58275830030
:1029C00085832A85822B85832C85822DED22EDFF40
:1029D0007E00D394077480948022C3EF94037480A4
:1029E000948022EDD394057480948022C3EF9401E7
:1029F0007480948022FBE434F0FAA8057401082264
:102A0000F4F58275830085832E85822F858330229D
:102A1000A3E0FBE52F4BFD22A3E0FBE5314BFD22BC
:102A2000E0FBE52D4BFD22E0FBE52D5BFD22E0FB0D
:102A3000E52F5BFD22E0FBE5315BFD22A3E0FBE53A
:102A4000334BFD22A3E0FBEF4BFD22E0FBE5335BC4
:102A5000FD227D087F0212387C404F90005FE02508
:102A6000E0F030A306E04401F0800790005FE054FE
:102A7000FEF090005FE0FF540FFEFD7C00640F60ED
:102A800003EF7026E4F5B4ED640F4CD37001C392EC
:102A900019AF06EF640F7B0170027B027D037F029A
:102AA00012344C7D087F02123AEA301908E51630DC
:102AB000E703751680301927E5156485702112002B
:102AC00003D3EF9400EE648094804005123B26808F
:102AD0000BE4F519F51B751801751701E4F51520C0
:102AE0001913E5166484700DF516E5177004751A50
:102AF0000122E4F517228F2ED209123BD2752F0244
:102B00007530007F11122B8CAF3212002E401D1237
:102B1000003D5018E53214F5310530E530700205FE
:102B20002FC394FCE52F6480948340D7E52E640185
:102B30007002F52EAF2EEF6408600AEF640960059D
:102B4000EF640A7011AF31EF3395E04F60058531C6
:102B50002E8003752E04E531B52E028029E530B4B0
:102B6000FC10E52FB4030B752F027530007F1D128A
:102B70002B8CE52E04F5327B007A007932AD30AC37
:102B80002F7F1912381FC209123BD2227B007A0014
:102B90007932AD30AC2F12381F2278FFE4F6D8FD21
:102BA0009000007F007E04E4F0A3DFFCDEFA758174
:102BB00068022BEF02300FE493A3F8E493A34003E1
:102BC000F68001F208DFF48029E493A3F854072487
:102BD0000CC8C333C4540F4420C8834004F4568047
:102BE0000146F6DFE4800B010204081020408090CB
:102BF0003502E47E019360BCA3FF543F30E50954E5
:102C00001FFEE493A360010ECF54C025E060A840EE
:102C1000B8E493A3FAE493A3F8E493A3C8C582C8E5
:102C2000CAC583CAF0A3C8C582C8CAC583CADFE9BA
:102C3000DEE780BEEF14602214603C14605624036B
:102C400070741229E34002806DED24801229F58012
:102C500002C333D8FC55ACFC80601229CE5005125B
:102C600029DA50028050ED24881229F58002C333FE
:102C7000D8FC55ADFC80431229AD50051229EC500B
:102C8000028033ED24901229F58002C333D8FC551D
:102C9000AEFC8026ED1229B14002801AED2498FB8B
:102CA000E434F0FAAF05A8077401088002C333D8F2
:102CB000FC55AFFC8004E4FEFF22EC7003FEFF2213
:102CC0008B828A83E05403FF7E0022E4F50EF52414
:102CD000AF24122224940BEE648094805063903EC3
:102CE000371221A96409702A903E381221A4F529CF
:102CF000740193F52A752EC3752DF5752C88752BE7
:102D00003F7F007E007D007C4012241490004E1214
:102D100007C8AF24903E371221A46402701FEF331E
:102D200095E0FE903E3C1221A9F50A740193F50B43
:102D3000903E381221A9F50C740193F50D052480FD
:102D40008F1234A7E490004AF09000457404F0E438
:102D5000A3F07510FF75113E751237C203C204222D
:102D60007F9A7E997D39121BD2500890001F740300
:102D7000F080277FCD7ECC7D4C121BD25008900076
:102D80001F7402F080147466FFFEFD121BD2500502
:102D9000121C568005E490001FF0C215C2161239AD
:102DA000C3AF52AE51AD50AC4F90002B1207C8E4E8
:102DB00090001EF0121C147039F524F525121C2603
:102DC000C3E5259FEE6480F8E52464809850167F63
:102DD000021239777FA07E001226410525E5257075
:102DE000DC052480D87F907E0112264190002A7451
:102DF0000CF02290001EE0700BAB10AA11A9121269
:102E0000053C600775130075142822D3E51494005F
:102E1000E513648094804009E514151470021513BD
:102E20002290F500E4F0C20612399D4387044387DF
:102E300002123B98D207123950123A4D7F017E00A0
:102E4000122641122A52123BAD50F1D20612399D80
:102E5000E4F524F525120047120F8A3016130525D4
:102E6000E52570020524C39403E524648094804022
:102E7000E4E525640345247005F51375140FE4900B
:102E80000041F022900014E0FCA3E0FDA3E0FEA3CB
:102E9000E0FF222400F58274003EF583E0F8A3E011
:102EA000F9A3E0FAA3E0FB221201468F328E318DA6
:102EB000308C2F22AE26E527780222D3E525940018
:102EC000E5246480948022AB32AA31A930A82F0275
:102ED00002ECE4900052F0A3F090004CF0A3F0223A
:102EE000C281C284C283C28522120146A804A905F8
:102EF000AA06AB0722AB10AA11A91202053C2400B6
:102F0000F58274003EF583221221914003E014F013
:102F1000900042E0FF1222259418EE6480948050C5
:102F200003E004F090004B122194400DEF9409EE61
:102F3000648094805003E004F0AF0F1222249420A8
:102F4000EE648094805002050FAF0EEF1221964080
:102F500002150E9000441221944003E014F09000FA
:102F600043E0FF30E720547FFEEF5480F0EEFD3366
:102F700095E0FCC3ED940AEC6480948050010E90BF
:102F80000043E04EF022E4900043F022752603E473
:102F9000F527752801C2077D02FF1224D17B007A34
:102FA0000079267D04E4FF120CBD7B127D02E4FF54
:102FB00012317690F120E4F0A304F090F123F09028
:102FC000F12A74FFF090F122E4F090F12704F0A3CD
:102FD000F090F160E4F090F165F090F16404F0900D
:102FE000F1317417F090F130746FF090F141E4F02A
:102FF00090F140F09000541207D400000000C20F7E
:10300000C20D90F166E4F090F12604F0023C021249
:103010003B98D2071239501227AB12374B12234478
:1030200012002A12390012000E122CCB12363D1259
:103030002F8C1233ED1211B0122D60E4900041F08C
:10304000120047122A52123C54120F8A12086612BA
:1030500017771220821226F7300BE5C20B12004AB6
:10306000123A6D122F081231021236CB122DF3AF25
:1030700065EF3395E0FED3EF9403EE6480948040D7
:1030800003121F80121D6B80B7D209123BD2200899
:103090001CE4F52BF52C742D1237D87F1112381F34
:1030A000052CE52C7002052B1237E340E985083129
:1030B0008509327F003002027F018F337A00793137
:1030C0001237CD1235F28F34200807E534B53002BF
:1030D000802A7B007A00792DE4FDFC7F1D12381FC9
:1030E000E4F52BF52C74311237D87F1912381F05EF
:1030F0002CE52C7002052B1237E340E9C209123B84
:10310000D222123C3950051221E17007E4900047A9
:10311000F0802990004712223A7007EF20E603441E
:1031200080F090004712222C5008E020E60405248D
:103130008003E4F524900047E04524F0123C405021
:10314000051221E17006E4900048F0229000481238
:10315000223A7007EF20E6034480F09000481222E4
:103160002C5008E020E60405248003E4F5249000B8
:1031700048E04524F022EBF5826402606AE582644F
:10318000036064E5826419605ED3E582941C7480F8
:1031900094805053EF14601414602014602F2403A3
:1031A00070451229E35040ED2400802A1229CE50A8
:1031B000361229DA4031ED2410800D1229AD502746
:1031C0001229EC4022ED2420F52AEE800CED122984
:1031D000B15014ED2430F52AE434F0F529EB541FF6
:1031E000852A82852983F022900058E0FEA3E0FF23
:1031F000C39405EE648094805010C3EF9403EE6492
:10320000809480504EEF04F56722900046E0FF7EE8
:10321000007C007D06120594EF2405FFE43EFE903D
:103220000058E0FCA3E0FDC39FEE6480F8EC6480EE
:10323000985020ED24FBFFEC34FFFE7C007D031250
:1032400005A67C007D021205A6ED4C700475670191
:10325000228000E4F567228F2A1221E1F52DE4F5A2
:103260002BF52C903E3775F009E52C120805E52B5F
:103270001221B1652A703390004AF0AE2BAF2CFCBE
:103280007D0912059474372FF9743E3E7510FFF5D1
:10329000118912E52D700AE52A6006FF122AF680D0
:1032A00005E4900042F0E4FEFF22052CE52C7002BC
:1032B000052BC3940BE52B6480948040A67E007F91
:1032C00001227D037F02122C34EF64014E7034C260
:1032D00019E515547FFFE4F515E5177004E51B604B
:1032E00007E4F51BF5178033EFC39405502D12004A
:1032F00003C3EF940AEE648094805002051975169A
:10330000808018D219751300751428E51630E7036C
:10331000751680E51520E7037515807D087F02127C
:1033200039E790005F740AF02274332529F582741E
:10333000003528F58322E4FFFE7C43AB3BAA3AA983
:1033400039A8382275303EAB33AA32A931A830AF44
:103350003BAE3AAD39AC3802024F12024F8F378E76
:10336000368D358C3422E490003DF0A3F0A322AFDB
:103370005AAE59AD58AC57223395E0FEC3648094E1
:103380008022D3EF9416EE64809480228D2720153E
:1033900009201606E4900043F022900043E0FD333C
:1033A00095E0FCED4C70037480F0900043E0547F96
:1033B000F5282016057529098003752902EF601488
:1033C000301611AF281222249403EE6480948040BA
:1033D00003023B08D3E5296480F8E528648098401F
:1033E0000B9000437480F0AF2712325722E4F52788
:1033F000D209123BD27524027525007B007A007930
:1034000026AD25AC247F1112381FAF2612002E40A6
:103410001D12003D5018E52614F5270525E52570F9
:10342000020524C394FCE5246480948340CDAF2737
:10343000EF6408600AEF64096005EF640A700375C1
:103440002704AF27123257C209023BD2EBD312290D
:10345000DC5053EF14601414602014602F240370A8
:10346000451229E35040ED2480802A1229CE50369F
:103470001229DA4031ED2488800D1229AD5027122F
:1034800029EC4022ED2490F528EE800CED1229B1B4
:103490005014ED2498F528E434F0F527EB54038517
:1034A0002882852783F022D209123BD2E4F525F544
:1034B0002674272526F9E4FAFBAD26AC257F1112E8
:1034C000381F0526E52670020525C39404E525640A
:1034D00080948040DCC209123BD27A0079271237EF
:1034E000CD1235F2EFB52A0F852708852809E52981
:1034F000C36001D39202221238D4C202D208123021
:103500008922C10BC10AC10CC119016600410060CA
:103510000041006100C114C1130163FF0165044152
:10352000002A0042001C0000021C0000021E0000D5
:10353000C111C110C112C11AC105410043004100AF
:10354000470041004400410048004100490041005B
:10355000421941004B00C100C10100AB077AFF9046
:103560000040E07041EB123378403B123382400A56
:10357000EF941FEE64809480402C9000391207D4A1
:1035800000000000123366EBF0A37401F0EB30E4AE
:103590000543DF80800353DF7F53DEF0EB540F429F
:1035A000DEDAFE43DF0222C0E0C0F0C083C082C08A
:1035B000D075D000C000C001C002C003C004C00567
:1035C000C006C00775C9001568B20CE568700875BB
:1035D0006804D20B1237EDD007D006D005D004D046
:1035E00003D002D001D000D0D0D082D083D0F0D090
:1035F000E0328B358A3689378F3B8E3A8D398C385D
:10360000E4F53CAB350537E537AA367002053614CC
:10361000F912053C623C7F08E53C30E70825E06490
:1036200007F53C8006E53C25E0F53CDFEB78387497
:10363000FF1207AAEC4D4E4F70C9AF3C2275240112
:10364000E4F525F526FB7D037F021231767B007AB7
:103650000079247D087F02120CBD7D087F02123A9A
:10366000EA7B027D037F0212344C43B904751300D8
:1036700075142890005F74FFF0E4F515F516F51841
:10368000F519F51AF51B22C2D5E830E70FB2D5E4DB
:10369000C39BFBE49AFAE499F9E498F8EC30E71755
:1036A000B2D51236BD1206BEE4C39BFBE49AFAE41F
:1036B00099F9E498F880031206BE30D50DE4C39F53
:1036C000FFE49EFEE49DFDE49CFC22900046E0FFAA
:1036D0007E0070059000588030900059E004F07032
:1036E00006900058E004F07C007D06120594EF245B
:1036F0000FFFE43EFEC3900059E09FEE6480F89017
:103700000058E06480984004E4F0A3F022C0E0C0D8
:10371000F0C083C082C0D075D000C000C001C0021C
:10372000C003C004C005C006C0071232C275B6008F
:10373000D007D006D005D004D003D002D001D000ED
:10374000D0D0D082D083D0F0D0E032752603752758
:1037500001752801122EE07D021237737D10E4FFFF
:10376000120CBD7D081237737D20E4FF120CBD12D0
:103770002ED2227B007A007926E4FF120CBD7B005A
:103780007A00792622D3EF9DEC6480F8EE6480986D
:1037900040028004AE04AF058E278F28E52864021E
:1037A000452770082010057F08123257E52864036A
:1037B000452770057F091232572275F009EF12086C
:1037C00005EE75F009A42583F583E493227B007F41
:1037D000037E007D007C0022252CF9E4FAFBAD2C51
:1037E000AC2B22C39404E52B6480948022E5153031
:1037F000E711547FFFC3940550010F531580EF422A
:10380000158003E4F515E51630E710547FFFC394E7
:103810000450010F531680EF421622E4F516228F52
:1038200035EF6419700512053CF5FEEDF5FCECFF73
:10383000EFF5FD008535FF000000000000E5FF20EA
:10384000E0FBE53564117005E5FE12058222E4FF18
:10385000FE7C40AB4EAA4DA94CA84B0202EC7D0168
:10386000AF24123B3E8F2422AB5EAA5DA95CA85B0D
:103870000202ECAB10AA11A91202053CEF14601170
:103880001460151460192403701CE5AC5D6017D337
:1038900022E5AD5D6010D322E5AE5D6009D322E57F
:1038A000AF5D6002D322C3227B007A8079BB120015
:1038B000558F308E2F8D2E8C2D22AB2CAA2BA92A22
:1038C000A82922AF4AEF3395E0FE228F2C8E2B8D54
:1038D0002A8C2922750803750920E4FFFE903E37E3
:1038E0001237BA6402700D903E3A1237BAF5087476
:1038F0000193F5090FBF00010EEF640B4E70DE223D
:10390000752603E4F527752801C2A4C2A5FB7D1026
:1039100012391E7B007D2012391EE4F567227A00E1
:1039200079267F02120CBD22A907900047E0FE54C1
:1039300080FB3395E04B700BED3395E0FCED6401BB
:103940004C700CEE547F900047F0AF0112325722BA
:10395000E4200706F5C853A8DF22F5CE75CB0B751A
:10396000CADB75CD5D75CC6643A820F5C975CF80DF
:1039700075680475C89122EF14600C14600F147000
:1039800010C2A4D2A5800AD2A4C2A58004D2A4D217
:10399000A57F147E00122641C2A4C2A522300614BF
:1039A0001239001227AB122F8C12374BE490001EF5
:1039B000F0023ACBC207123950123AAC1229061261
:1039C0003C4722900020747FF0A374FEF0A3748023
:1039D000F0A37402F0E4900028F0A3F09000241209
:1039E00007D40000000022EF14600F14601114606F
:1039F0001324037013EDF452AC22EDF452AD22ED1A
:103A0000F452AE22EDF452AF22FDFCAB42AA41A922
:103A100040A83F020774E4AB3CAA3DA93E020582E0
:103A2000AB42AA41A940A83F02077490F14174013A
:103A3000F07F003006027FFF90F140EFF0123C0271
:103A40007F01300E027F0090F164EFF0227D087F4D
:103A5000021239E790005F74AAF0D219E51630E738
:103A600003751680E51520E70375158022121B9C4F
:103A7000400CA3E024FFF090001CE034FFF0900025
:103A80002A121C29121C454003E014F022E517708D
:103A900004E51B6004E4FEFF22E51A7003FEFF222A
:103AA000120003300705E4F51AF51922E4FB7D0244
:103AB000FF123176C2077D02E4FF1224D190F1217A
:103AC000E4F090F126F090F123F02290F5007409D3
:103AD000F090F5027419F090F50CE4F090F506748E
:103AE00038F0A37405F075B98022EF14600E1460ED
:103AF0000F1460102403700FED42AC22ED42AD2292
:103B0000ED42AE22ED42AF221221E1FF601790009C
:103B1000071205556005900045EFF0E4FF1232579B
:103B2000E4FF122AF622E4F516F51AF519F517F551
:103B300018EF64014E7F0070027F018F1B22EFFBA4
:103B40003395E0FAC3EB9408EA648094805004EF64
:103B50002DFF227F0822900046EFF0123873640197
:103B6000600A7F01122AF67F011232572290004824
:103B7000E0FE5480FD3395E04D6007EE547FF01277
:103B800032572253DE7F007F002006027FA090F68E
:103B900092EFF00043DE80225388CF5389F04389AF
:103BA00001E4F58CF58A75A80243A88022E5186027
:103BB00002D322E51A6002D322E51BC36001D3229F
:103BC000EF64014E700B200405123C394003123B98
:103BD0000822300907C2AF0075FBAA2275FB550009
:103BE000D2AF222014037F0022900061E0FFE4F0B6
:103BF000C21422900054E0F8A3E0F9A3E0FAA3E095
:103C0000FB2290F1297401F090F129E070FA22EF83
:103C1000F0AF037E007401A8070822E5187002C304
:103C200022E4F518D322E5665480FF3395E04F2255
:103C300090001EE0700204F022E517C36001D32259
:103C4000E51BC36001D322122ED2122EE02253882C
:103C5000EFD20A322200512CD5004B18690045845E
:103C60005700406521003BB06200375CB60033610D
:103C70009B002FB760002C570700293A3D00265BB8
:103C8000410023B4DC0021424D001EFF45001CE72B
:103C9000D5001AF86900192DBE001784DA0015FB4B
:103CA0000600148DC700133ADA0012002B0010DB57
:103CB000D6000FCC1E000ECF6C000DE44B000D099A
:103CC00065000C3D80000B7F7C000ACE50000A2965
:103CD0000700098EC30008FEB50008781F0007FA28
:103CE00052000784AE0007169D0006AF9700064FEE
:103CF0001C0005F4B800059FFE0005508B0005066A
:103D0000020004C00D00047E5D000440A90004060A
:103D1000AC0003D02700039CE100036CA100033F2B
:103D200037000314720002EC280002C62F0002A222
:103D3000630002809F000260C3000242B1000226BD
:103D40004C00020B7B0001F2230001DA2E0001C3BC
:103D5000870001AE19000199D2000186A00001740C
:103D6000720001633A000152EA000143720001341B
:103D7000C8000126DF000119AC00010D250001017A
:103D800041F5F5EB3AE107D755CE1DC558BD00B555
:103D90000EAD7FA64C9F7098E792AC8CBB871181CB
:103DA000AA7C82779772E46E676A1E6606621C5E62
:103DB0005F5ACB575F541950F84DF84B1A485A4583
:103DC000B8433340C83E773C3E3A1D3812361D3466
:103DD0003B326D30B22F082D6F2BE62A6C2901275C
:103DE000A42655251323DD22B22193207F1F751EA3
:103DF000751D7E1C901BAC1ACF19FB192E18691764
:103E0000AA16F31642159714F2145313B913251278
:103E100096120C11861105108810100F9B0F2B0E97
:103E2000BE0E550DEF0D8C0D2D0CD10C780C210B09
:103E3000CE0B7D0B2E0AE300000000000000010005
:103E400001000000000000000003000F00000AF065
:103E5000000004032000000B5401000505DC0000F5
:103E60000BB80100060BB800000BEA0101071D4C5E
:103E700000000C1C0101084E2000000C800001090C
:103E80002EE000000BB80001021D4C03200C1C00AA
:103E9000010A2EE000000BB8000100000000000045
:103EA0000000000000000000000000000000524B75
:103EB00044382F21180F91B464DCDC78B464070F08
:063EC0001F0D080E0006B4
:00000001FF
