:10000000022549E517C36001D32222023C0F90006C
:1000100048EFF0AB10AA11A91212053C6401600A66
:100020007F0112310F7F0112292322023B0CD20DD6
:10003000123B7E7B007A007924122E11E4FDAF245E
:100040001235C2122923C20D023B7E0234D60204AD
:100050000FE86480F8E933E83360110460F0ED33B1
:10006000EC337009E8FCE9FDEAFEEBFF220460DEF8
:10007000D3EB9FEA9EE99DE8C2E78CF0C2F795F0CA
:10008000400CE8CCF8E9CDF9EACEFAEBCFFB12034D
:10009000DA85D0F05804700320D5B3E80470075017
:1000A00002B2D502041992D5EC0460F7E4CCC0E0AA
:1000B000C398F8603B94186008400DD0E0FB020341
:1000C000F1E4FBFAC9FC8028E830E406E4C9FBE46B
:1000D000CAFCE830E305E4C9CACBFCE85407601069
:1000E000F8C3E913F9EA13FAEB13FBEC13FCD8F1AC
:1000F00030F52FC3E49CFCEF9BFFEE9AFEED99FDDB
:10010000D0E0FBEF4E4D4C701222DB03020416ECE4
:100110002CFCEF33FFEE33FEED33FDED30E7EB0269
:1001200003F1EF2BFFEE3AFEED39FDD0E0FB50136B
:100130000BBB0003020419ED13FDEE13FEEF13FFDA
:10014000EC13FC0203F1EC4D6011E8497017ED333C
:10015000EC3304600DE4FCFFFEFD22E933E83304D8
:1001600070F802040F1203DA58046009E4CC248109
:100170005006285009020419284003020416C0E062
:10018000EB4A7044B98006D0E0FB020405EF4E70E4
:100190001CBD8008EBFFEAFEE9FD80EBE98DF0A4D1
:1001A000FEE5F002022FE9CDF9EAFEEBFFEF89F060
:1001B000A4FCE5F0CE89F0A42EFFE435F0CD89F063
:1001C000A42DFEE435F08067EF4E7005BD80D7802A
:1001D000C3EF8BF0A4ACF0EE8BF0A42CFCE435F074
:1001E000F8EF8AF0A42CE5F038FCE433CB8DF0A4D2
:1001F0002CFCE5F03BF8EE8AF0A42CFCE5F038F896
:10020000E433CF89F0A42CFCE5F038CF3400CE895C
:10021000F0A42FFFE5F03EFEE433C98DF0A42EFEDE
:10022000E5F039CD8AF0A42FFFE5F03EFEE43DFD78
:1002300033D0E0FB50070BBB000F020419EC2CFC81
:10024000EF33FFEE33FEED33FD0203F1020419EC50
:100250005D046005E85904700302040F1203DA58C4
:100260000460F6EC4860F2EC7004FDFEFF22C8600A
:10027000DB2481C85009C398600250060204169816
:1002800050CAF582E9294B4A7005AB820204057514
:10029000F0007C1A7880C3EF9BEE9AED99400DC375
:1002A000EF9BFFEE9AFEED99FDE842F0DC23ACF007
:1002B000D0E0FFD0E0FED0E0FDAB8220E7101BEBEA
:1002C00060BAEC2CFCEF33FFEE33FEED33FD02039E
:1002D000F1E803F830E705C0F075F000EF2FFFEE0E
:1002E00033FEED33FD40B830E7C280AA74F8CC6429
:1002F00080CCC86480C8F58204604FC3EB9FF5F0E2
:10030000EA9E42F0E99D42F0E89C45F0603C501DB9
:10031000E5825FFFE582D313CB5BCBF42B5582FBE9
:1003200050280ABA002409B9002008801DE5825B24
:10033000FBE582D313CF5FCFF4C3132F5582FF5059
:10034000090EBE00050DBD00010CC3EB9FF5F0EAE0
:100350009E42F0E99D42F0E89C45F06007CC4820C1
:10036000E701B3EC2275F020800E75F01080057562
:10037000F0087D007E007F003392D530D503120750
:1003800050EC334010EF33FFEE33FEED33FDEC3332
:10039000FCD5F0ED22E5F0247EA2D513CC92E7CD7A
:1003A000CEFF22EDD2E7CD33EC3392D52481400647
:1003B000E4FFFEFDFC22FCE4CFCECDCC24E05011C6
:1003C00074FF80EDC3CC13CCCD13CDCE13CECF13A1
:1003D000CF0470F030D5DE020750E9D2E7C933E828
:1003E00033F892D5EDD2E7CD33EC33FC5002B2D5E1
:1003F00022EC30E7100FBF000C0EBE00080DBD0050
:10040000040BEB6014A2D5EB13FCED92E7FD227414
:10041000FFFCFDFEFF22E480F8A2D574FF13FC7DF3
:1004200080E480EFE709F608DFFA8046E709F20882
:10043000DFFA803E88828C83E709F0A3DFFA8032FE
:10044000E309F608DFFA8078E309F208DFFA807042
:1004500088828C83E309F0A3DFFA806489828A832F
:10046000E0A3F608DFFA805889828A83E0A3F208C5
:10047000DFFA804C80D280FA80C680D4806980F216
:100480008033801080A680EA809A80A880DA80E29B
:1004900080CA803389828A83ECFAE493A3C8C58238
:1004A000C8CCC583CCF0A3C8C582C8CCC583CCDF7B
:1004B000E9DEE7800D89828A83E493A3F608DFF9F9
:1004C000ECFAA9F0EDFB2289828A83ECFAE0A3C85A
:1004D000C582C8CCC583CCF0A3C8C582C8CCC583AF
:1004E000CCDFEADEE880DB89828A83E493A3F2082A
:1004F000DFF980CC88F0EF60010E4E60C388F0ED2C
:100500002402B4040050B9F582EB2402B404005074
:10051000AF232345822390047473C2D530F707B20A
:10052000D563F0FF05F030E70CB2D5F4048463F036
:10053000FF05F080018430D502F40422BB01068956
:10054000828A83E0225002E722BBFE02E3228982F4
:100550008A83E49322BB010CE58229F582E5833A84
:10056000F583E0225006E92582F8E622BBFE06E983
:100570002582F8E222E58229F582E5833AF583E4D3
:100580009322BB010689828A83F0225002F722BBA4
:10059000FE01F322EF8DF0A4A8F0CF8CF0A428CEBA
:1005A0008DF0A42EFE22C2D5EC30E709B2D5E4C30B
:1005B0009DFDE49CFCEE30E715B2D5E4C39FFFE45B
:1005C0009EFE120811C3E49DFDE49CFC800312080A
:1005D0001130D507C3E49FFFE49EFE22BB0110E566
:1005E0008229F582E5833AF583E0F5F0A3E0225015
:1005F00009E92582F886F008E622BBFE0AE9258291
:10060000F8E2F5F008E222E5832AF583E993F5F0B4
:10061000A3E99322BB010A89828A83F0E5F0A3F063
:10062000225006F709A7F01922BBFE06F3E5F009F0
:10063000F31922E88FF0A4CC8BF0A42CFCE98EF007
:10064000A42CFC8AF0EDA42CFCEA8EF0A4CDA8F03A
:100650008BF0A42DCC3825F0FDE98FF0A42CCD35FE
:10066000F0FCEB8EF0A4FEA9F0EB8FF0A4CFC5F068
:100670002ECD39FEE43CFCEAA42DCE35F0FDE43C61
:10068000FC2275F008758200EF2FFFEE33FECD33AC
:10069000CDCC33CCC58233C5829BED9AEC99E582F3
:1006A00098400CF582EE9BFEED9AFDEC99FC0FD57F
:1006B000F0D6E4CEFBE4CDFAE4CCF9A88222B8006F
:1006C000C1B90059BA002DEC8BF084CFCECDFCE53A
:1006D000F0CBF97818EF2FFFEE33FEED33FDEC335E
:1006E000FCEB33FB10D703994004EB99FB0FD8E5E3
:1006F000E4F9FA227818EF2FFFEE33FEED33FDEC2C
:1007000033FCC933C910D7059BE99A4007EC9BFC21
:10071000E99AF90FD8E0E4C9FAE4CCFB2275F010AD
:10072000EF2FFFEE33FEED33FDCC33CCC833C810D2
:10073000D7079BEC9AE899400AED9BFDEC9AFCE800
:1007400099F80FD5F0DAE4CDFBE4CCFAE4C8F9224D
:10075000C3E49FFFE49EFEE49DFDE49CFC22EB9F2E
:10076000F5F0EA9E42F0E99D42F0EC6480C86480B6
:100770009845F022EB9FF5F0EA9E42F0E99D42F0A9
:10078000E89C45F022E8600FECC313FCED13FDEE8E
:1007900013FEEF13FFD8F122E493FC740193FD7470
:1007A0000293FE740393FF227401FF3395E0FEFD74
:1007B000FC080808E62FFFF618E63EFEF618E63DB0
:1007C000FDF618E63CFCF622ECF0A3EDF0A3EEF00B
:1007D000A3EFF022A8828583F0D083D0821207EBAA
:1007E0001207EB1207EB1207EBE473E493A3C58344
:1007F000C5F0C583C8C582C8F0A3C583C5F0C5834D
:10080000C8C582C822A42582F582E5F03583F58328
:1008100022BC000BBE0029EF8DF084FFADF022E476
:10082000CCF875F008EF2FFFEE33FEEC33FCEE9DB5
:10083000EC984005FCEE9DFE0FD5F0E9E4CEFD22DC
:10084000EDF8F5F0EE8420D21CFEADF075F008EF67
:100850002FFFED33FD4007985006D5F0F222C398E4
:10086000FD0FD5F0EA22123B8F8F26C20B123A956C
:100870008E248F25900042E06009C3940B7480940D
:100880008040069000427404F0C21F1220BFB40BD7
:10089000004003020AA690089DF82828730208D693
:1008A0000208BE0209CE0209880209FA020A0902F8
:1008B0000A1C020A2F020A56020A8D020A99C20471
:1008C000123BBA4003020AA61235FA5003020AA6E6
:1008D000123C06020AA6E525640545247011C204EF
:1008E000D3300301C392039000417408F0800B30B1
:1008F0000308123BAD5003751F06300303020AA61E
:10090000E52564064524700DD3300401C39204909C
:1009100000417402F03004161200034003020AA6DC
:100920007D027C007F027E001232EA020AA6E525E3
:10093000640145246004E526600A900042E0FF124D
:100940003824800EE526FD3395E0FCAF25AE241259
:1009500032EA123BBA50057F03122923E5256404CD
:1009600045247015D3300201C392027F0820020291
:100970007F098F1FC20C122A8E123A79EF70030280
:100980000AA6123AB0020AA6D21F7D03120B91E406
:10099000FDFC1232EA123BBA400B1220E964014E10
:1009A0006003020AA67F041238241220BF64037079
:1009B00003020AA6300203123551900043E044407E
:1009C000F0E5266003020AA6750E04020AA62005B9
:1009D0001E1220E964044E70057F03122923AF25FF
:1009E000AE241237D3AF26EF3395E0FE120BE1129F
:1009F0001A38AF2612191F020AA67D04120B911293
:100A00000BE1AD267F05020AA37D04120BA5120B94
:100A1000E9AD267F061237FC7F0480357D05120B79
:100A2000A5120BE9AD267F071237FC7F0580227DDA
:100A300006120BB9AD25AC241232EAE4FD7F041294
:100A400037FC1220E964014E70057F031229237FD1
:100A500006123AE180507D07120BB9EF64014E6037
:100A60000BE52564024524600330090A7F04300247
:100A7000027F021229231220E964034E6008E52553
:100A80006403452470207F0912292380197D0912EF
:100A90000BCD120BF17F0A800A7D0A120BCD120BCF
:100AA000F17F091237FC122074400C900051E4F0E1
:100AB000A37432F0020B62AF0EEF12207940028075
:100AC0006D1220BFFB24F6600304705DAF61EF334D
:100AD00095E0FE746A2FF582743E3EF583E493FF41
:100AE0007E007C007D641205948E248F25EB640AC1
:100AF0007005122B01800C2012067EFF7FFF800301
:100B0000123986900051EEF0A3EFF0D3900052E03E
:100B10009525E5246480F8900051E0648098404277
:100B2000E524F0A3E525F080391237A9500A74FFB7
:100B3000900051F0A3F0802A1220BF64027018C305
:100B4000E50D9509E5081220E05006AE0CAF0D80CA
:100B500009AE08AF098003123986900051EEF0A368
:100B6000EFF0D20B123A95301808AF26EF12207929
:100B7000500F90003FE0FF3395E0FEEF64184E7099
:100B80000FC21890003FE004F01220BFFF12310F97
:100B9000227F01122F45AF25AE241237D3AF26EFA7
:100BA0003395E0FE22E4FF122F45AF25AE24123725
:100BB000D3AF26EF3395E0FE22E4FF122F45AF2599
:100BC000AE241237D3AF26EF3395E0FE227F011219
:100BD0002F45AF25AE241237D3AF26EF3395E0FE75
:100BE00022AD25AC241232EA22AD25AC241232EA21
:100BF00022AD25AC24123694AD26228F2712053C57
:100C0000FF14601514602814603D14603A240470C9
:100C10005C1224B01224F780291224B0F5827401EA
:100C2000F52C85822DE582F4F582752E0080131255
:100C300024B0F4F582752C0085822DEDF5827401C7
:100C4000F52E85822F8026ED1224F785822FEDF573
:100C5000827401F528858229EF64047007EDFF7422
:100C600001FE8005EDF4FF7E008E2A8F2B9000019F
:100C70001205557007EDFF7401FE8005EDF4FF7E4F
:100C8000008E308F319000021205557007EDFF7411
:100C900001FE8005EDF4FF7E00E527147003020DD0
:100CA00037147003020DBA147003020E3D24036062
:100CB00003020EC7E528AB9A30E006E5294BFD801C
:100CC00004E5295BFD8D9AE52A30E00890F00912D1
:100CD0002517800690F00912251E90F009EDF0E529
:100CE0002C30E005122507800690F00A1225259089
:100CF000F00AEDF0E52E30E00512250F800690F0A9
:100D00000B12252C90F00BEDF0EE30E00512253B98
:100D1000800890F00CE0FBEF5BFD90F00CEDF0E54F
:100D20003030E005122533800690F00D122542AFD9
:100D30000590F00DEDF022E528ABA130E006E529A5
:100D40004BFD8004E5295BFD8DA1E52A30E008908C
:100D5000F019122517800690F01912251E90F0192F
:100D6000EDF0E52C30E005122507800690F01A1210
:100D7000252590F01AEDF0E52E30E00512250F80C4
:100D80000690F01B12252C90F01BEDF0EE30E005E4
:100D900012253B800890F01CE0FBEF5BFD90F01CFF
:100DA000EDF0E53030E005122533800690F01D129D
:100DB0002542AF0590F01DEDF022E528ABA230E012
:100DC00006E5294BFD8004E5295BFD8DA2E52A306F
:100DD000E00890F029122517800690F02912251EB0
:100DE00090F029EDF0E52C30E00512250780069003
:100DF000F02A12252590F02AEDF0E52E30E00512BC
:100E0000250F800690F02B12252C90F02BEDF0EEA4
:100E100030E00512253B800890F02CE0FBEF5BFDF5
:100E200090F02CEDF0E53030E0051225338006908F
:100E3000F02D122542AF0590F02DEDF022E528AB04
:100E4000A330E006E5294BFD8004E5295BFD8DA379
:100E5000E52A30E00890F039122517800690F03925
:100E600012251E90F039EDF0E52C30E00512250733
:100E7000800690F03A12252590F03AEDF0E52E30FC
:100E8000E00512250F800690F03B12252C90F03BD8
:100E9000EDF0EE30E008A3E0FDEF4DFF800890F0AC
:100EA0003CE0FDEF5DFF90F03CEFF0E53030E00915
:100EB000A3E0FDE5314DFF800990F03DE0FDE53117
:100EC0005DFF90F03DEFF02275240075254078001D
:100ED0007C007D017BFF7A3E796E7E007F141204D8
:100EE000F4E4FFFE7DB07C40AB54AA53A952A85154
:100EF0001202EC50030210D9122CFC60030210D92C
:100F0000D20B123898D2847F057E001221E8123C61
:100F1000157F667E667D867C40AB4CAA4BA94AA8AD
:100F2000491202EC6002500DE525152570021524CA
:100F3000122D0550D2E52545247007C2847F010299
:100F400010D6752400752564C2847F147E0012219A
:100F5000E8C20B123898123C157F0A7E001221E875
:100F6000752600752704122CF5C333CE33CED8F97D
:100F700024FCF58274FF3EF583122CC8C004C00522
:100F8000C006C007122CF5C333CE33CED8F9122DCC
:100F90001DD007D006D005D0041207C8E5271527B5
:100FA00070021526E527452670BCAF4CAE4BAD4A06
:100FB000AC499000001207C89000141207D400003A
:100FC0000000E4F526F527122CC5C004C005C006B4
:100FD000C007122CF5C333CE33CED8F9122CD4D09F
:100FE00007D006D005D0041200559000141207C88F
:100FF0000527E527700205266405452670C9122CD1
:10100000C579A07840122D279000141207C89000CF
:10101000181207D400000000E4F526F52790001808
:10102000122CC8C004C005C006C007122CF5C3337B
:10103000CE33CED8F9122CD4122CC5120051E4FBB9
:10104000FAF9F81202EC500F122CF5C333CE33CE5E
:10105000D8F9122CD4801A122CF5C333CE33CED843
:10106000F9122D1D122CC8E4FBFA798078BF122DDD
:1010700011122CC5120051AB07AA06A905A804D06D
:1010800007D006D005D0041200559000181207C8EA
:101090000527E52770020526640545266003021032
:1010A0001DC3E525945D122D0A5013E4FFFEFD7C5F
:1010B0003F900018122CDD1202EC60025010E52562
:1010C000152570021524122D054003020F56E52543
:1010D000452470057F0212000E228E2C8F2D8D2E3E
:1010E00090F692E030E708E4FFFEFD7C40800312BA
:1010F00029FC1229EAAC2CAD2DEC12036AC004C005
:1011000005C006C007E4FBFA79807845AF36AE35F6
:10111000AD34AC3312024FD003D002D001D0001254
:1011200001468F3A8E398D388C37E52E605924FA76
:1011300070030211BF24FE700302121924FB700316
:1011400002124424EE601424116003021283853AD3
:101150005C85395B85385A85375922AC2CAD2DEC2E
:1011600012036AA804A905AA06AB077F9A7E997D97
:10117000997C4512024F8F328E318D308C2F8F58D3
:101180008E578D568C552275323575314875300322
:101190001229D18F548E538D528C51900057E0FC00
:1011A00012036FA804A905AA06AB07AF54AE53AD4E
:1011B00052AC5112024F8F508E4F8D4E8C4D227576
:1011C000322D7531A67530331229D18F4C8E4B8D4F
:1011D0004A8C49AB54AA53A952A85112024FE4FBBE
:1011E000FA79C878421201468F328E318D308C2FB9
:1011F0001203A38F5FEF3395E0FED3EF9464EE64A8
:101200008094804003755F64AF5FEF3395E0C36403
:10121000809480506EE4F55F221229C81229FC12D6
:101220000051C004C005C006C0077D481229C31282
:101230000146D003D002D001D0001229E71203A347
:101240008E5D8F5E1229C81229FC120051C004C0A5
:1012500005C006C0077DA51229C3120146D003D0E0
:1012600002D001D0001229E7E4FBFA797A7844121F
:1012700001461229EA1203A37B007A007960121E4C
:10128000078F4822AF1DEF3395E0FEC3EF9404EEC5
:10129000648094805007E4F524F525802890005858
:1012A000E0FEA3E0FFD3900052E09FEE90005112C9
:1012B0002D2D9840068E248F25800A900051E0F550
:1012C00024A3E0F5251231B4D3E5259FEE6480F820
:1012D000E52464809840071231B48E248F25900055
:1012E0004FE0FEA3E0FF65257003EE652470030266
:1012F000141BC3E5259FFFE5249EFED3EF9470EEFB
:10130000648094974002D216301671D3E52594007C
:10131000E52464809480406490004FE07002A3E074
:10132000700C90004F7405F0A374DCF08038122C20
:10133000FC24F66013047020900050E024B8F09074
:10134000004FE0340BF0801E900050E024F4F09049
:10135000004FE03401F0800E900050E02414F09033
:10136000004FE03400F0C3900050E09525E5249054
:10137000004F122D2D98400EC216800390004FE5AD
:1013800024F0A3E525F090004FE0FAA3E0FBD3940E
:1013900000EA648094805020C28490004B1207D4ED
:1013A00000000000C217BAFF06BBFF03D38001C3D1
:1013B0009281C283C2858061D3900050E09478907E
:1013C000004FE06480948050028001C3920B20178C
:1013D00025A20BB39281D284A20B9283A20BB3926B
:1013E00085122CFC64097005FE7F0280047E007F5C
:1013F0000A1221E8D217E4FFFE300B067DFA7C4387
:1014000080047DC07C3F90004FE0F52AA3E0F52BDF
:10141000121D2C90004B1207C8D21322E5607005F4
:101420007F0602000EA209920C752841752932121E
:1014300039459209A206920C75283C752932123959
:10144000459206A207920C75284B7529251239453D
:1014500092073007077F0712000E800B900048E0CC
:1014600064077003123C061235457004C208802FD1
:10147000123B5A8F28A208920C75292912394592DD
:101480000B300B04D2088017200B14900055E0702D
:1014900002A3E0700AD312352994805002C20820BA
:1014A000080CE4900053F0A3F0A3F0A3F02220175F
:1014B00003021583123B5AC3E5489FF565FD33953A
:1014C000E0FCD3ED9402EC64809480406C90004F7B
:1014D000E0FEA3E0780CCEA2E713CE13D8F82401E7
:1014E000FFE43EFE1205948E248F25900058E0FE06
:1014F000A3E0FFD3900052E09FEE6480F89000518B
:10150000E064809840068E268F27800A900051E084
:10151000F526A3E0F527E5272424FFE52634FAFE87
:10152000900055E0FCA3E0FDC3EF9DF527EE9CF590
:1015300026C3123536503E8030AF65EF3395E0FE5E
:10154000C364809480503C7C007D051205A68E24E7
:101550008F25900055E0FEA3E0FFC3E49FF527E44C
:101560009EF526D3123536400CE02525F090005527
:10157000E03524F022900056E02527F0900055E059
:101580003526F02290001EE014B409004003021634
:10159000E090159F75F003A4C58325F0C583730201
:1015A00015BA0215D402167702167D02168B0216A2
:1015B000910216B10216B80216CF90001CE070021C
:1015C000A3E060030216E090001CF0A3740EF0A3E9
:1015D0007402F02290001CE0FEA3E0FFD3940CEE16
:1015E000648094804005751F038023D3EF940AEE36
:1015F000648094804005751F028013D3EF9408EE39
:10160000648094804005751F018003E4F51F122853
:10161000F540030216E0AF54AE53AD52AC5190000A
:101620002C1207C8900057E0FF3395E0FEEF6402EC
:101630004E701790002C1228C2FFE4FBFA79207834
:101640004112014690002C1207C890002C1228C2AB
:10165000FF1203A3AB07AA067C007D641205A6EF68
:101660004E6005751F0980607C007D0AAF03AE02E5
:101670001205A67D0380377D047F01803890002C01
:101680001228C2FF1228FF7D0580237D067F02807D
:1016900024E4FFFE7D207C4190002CE0F8A3E0F9DB
:1016A000A3E0FAA3E0FB1201461228FF7D070237F0
:1016B000247D087F030230B71228D650231228CD8C
:1016C0007F0C60027F008F6290001E7409F022E59B
:1016D0006260030239E4123A79EF700490001EF060
:1016E00022900027E0C39428748094805069E4FF1E
:1016F000FE7D7A7C44AB50AA4FA94EA84D120146FC
:101700001203A38F278E268D258C24900027E004BA
:10171000F01228BF2527FFEE3526FEED3525FDEC1E
:101720003524FC9000231207C81228E6C312290EA4
:10173000500A90001FE526F0A3E527F09000211243
:1017400028E9D312290E50030217CA900021E5267A
:10175000F0A3E527F080731228BFFFC004C005C0C6
:1017600006C007900021E0FEA3E0FBAA06EA33953D
:10177000E0F9F81228E6EF2BFBEE3AFAED39F9EC36
:1017800038F8D007D006D005D004C3EF9BFFEE9AFF
:10179000FEED99FDEC98FC1228B9FFC006C007A326
:1017A000E024FEFFE434FFAB07FA3395E0F9F8D00C
:1017B00007D0061234501228B9FFEC120365122923
:1017C000199000281207C8123902AF63EF3395E071
:1017D000FEEF64784E700575630180071228F540AE
:1017E0000205631228D6400CA3E024FFF090001CF1
:1017F000E034FFF0AF62EF3395E0FE1228F54002CF
:10180000156222300A2590005DE0FF3395E0FEC3AB
:10181000EF940CEE648094805005E004F0800CE4BA
:1018200090005DF0C20EC20F02191BE51FB40A0042
:10183000400302191090183CF828287302185A0225
:10184000187202186402186B0218790218790218CB
:10185000B50219100218B50218B5C20CC20DE4F594
:101860001E021910D20CD20D021910C20CD20D0298
:101870001910D20CC20D021910C20DE51E547FFFC3
:10188000AE1FEE64047E0070027E03C3EE6480F837
:10189000EF64809850090F531E80EF421E800B1298
:1018A0003BDF7F8060027F008F1E123BDFC3600141
:1018B000D3920C805B531E7FAF1FEF64096007AFAC
:1018C0001FEF640870047F0680027F0AD3EF6480F4
:1018D000F8E51E6480984009C20DC20CE4F51F8033
:1018E0002FE51E75F00212051AAFF0EFC36001D3A9
:1018F000920BAF1FEF64087003C38002A20B920C1F
:10190000AF1FEF64087004A20B8001C3920D051E87
:1019100012358AA20C920EA20D920F123924228F38
:1019200027123BFD40051200035003D38001C392F0
:101930000B1220A01220D8500AAC0CAD0DAE04AF93
:101940000580008E288F299000011205DCFFC3E579
:10195000299FE5F06480F8E528648098500B300BEF
:10196000081220C9400312212920050EAF2712209A
:10197000EB64014E704AD205804630010A0509E544
:1019800009700C05088008E5091509700215089012
:1019900000031220A3FFAEF0D3E5099FEE1220CF83
:1019A0005006D2018E088F091220C84005C20112CC
:1019B0002129E5277005123BAD5005C205750F1EA4
:1019C000120003501C2000191220C8500A0509E516
:1019D00009704C05088048750E04122129D2008038
:1019E0003E123BFD503120002EAB10AA11A91290DF
:1019F00000031205DCFFAEF0D3E5099FEE1220CF05
:101A0000400AE5091509700215088013750E048E49
:101A1000088F09D2008008200B05300002C2003078
:101A20000B04E4F50F22AF0F1220EB64204E700779
:101A3000050FC20C122A8E22301A03021AC3301B61
:101A400003021AC3E4900040F0E5616003021B400A
:101A50001220A01220D85065900045E0FD700404CB
:101A6000F08010ED1221229409EC648094805003E0
:101A7000021B409000457401F09000051205DCFD4A
:101A8000ACF0D3E50B9DEC6480F8E50A64809840E7
:101A9000068C0A8D0B800B7432250BF50BE4350A8E
:101AA000F50AD31220DC40091220A0F50D85F00CB8
:101AB0002274FA250DF50DE4350CF50C22E49000A6
:101AC00045F022E4900045F0900040E0FF3395E0BF
:101AD000FEEF4E70037480F0900040E0547FF527D5
:101AE000301B13FF3395E0FED3EF9404EE64809433
:101AF000804003023A3FAF27EF3395E0FED3EF94E7
:101B000009EE648094804038D3E50D94EEE50C64D2
:101B1000809482400C7406250DF50D74FF350CF58C
:101B20000CD3E50B94BEE50A6480948A400C74E7FC
:101B3000250BF50B74FF350AF50A9000407480F010
:101B400022201706E490004AF02290004AE0FF337A
:101B500095E0FEC3EF9404EE648094805004E004AA
:101B6000F022900049E0540FF5247D901238736004
:101B7000054003D38001C3920B7FCD7ECC7D8C7C4E
:101B800040AB50AA4FA94EA84D1202EC6007400589
:101B90007F0412000E7F667E667D06123876400F47
:101BA0007F9A7E997D997C4012388D600C400A7D29
:101BB00002123885E4F5258049E4FFFE7D807C3EF5
:101BC00012388D40097DF0123873600A40081238CF
:101BD00083752501802CA21C300B01B350081238EC
:101BE00083752502801CAF24EF3395E0FED3EF947C
:101BF00000EE648094804006E52414FF80027F009C
:101C00008F24E525C454F04524900049F0AF24EF1B
:101C10003395E0FEC3EF9408EE64809480401FE0AB
:101C2000FF7804A2E713D8FB540F24FE600704706A
:101C3000087F0580067F0980027F0312000E22E5DF
:101C40004764037002F547E54714603E14700302D1
:101C50001CDC147003021D1C24036003021D19D236
:101C60000B123AF7E4F52B1229A2501BEF3395E043
:101C7000FE74942FF582743E3EF583E493FD1229A1
:101C8000B8EDF0052B80E0021D14E4F52B1229A21B
:101C9000501D1229B3E0FF122A05400F122A0F40EF
:101CA0000EEF941FEE648094805004052B80DE12AA
:101CB00029A250231229B3E0F52AFF3395E0FE4F05
:101CC0006006EF64064E7005C20B123AF7AF2A1297
:101CD000329E75470280457547038040752F007519
:101CE000300075312A7B007A0079281223FBEF4EF1
:101CF000602AAD2AAF29AE281210DAE4F52B12299A
:101D0000A250111229B3E0B52A061229B874FEF0C8
:101D1000052B80EA7547018003E4F54790003EE01B
:101D20006009E54764036003021C3F228F298E2867
:101D30008D278C26AB10AA11A91290000912055507
:101D4000F53012053C6402700FAE2AAF2BFC7DCD3E
:101D50001205A6EF2530F530AC2AAD2BEC12036A44
:101D6000AB29AA28A927A826122CE9797A78441247
:101D70002D27122CEC7B9D7A69795C783C12024FFE
:101D8000122CECAB2FAA2EA92DA82CC000C001C08C
:101D900002C003AC30EC12036FE4FBFA79C878425E
:101DA00012024FD003D002D001D000122CE9C0049F
:101DB000C005C006C007E4FFFE7D7A7C44AB58AA8C
:101DC00057A956A855122D11D007D006D005D0041A
:101DD00012024F122CECE4FBFA79C87842122CE97B
:101DE000E4FFFE7DC87C42AB2FAA2EA92DA82C12A1
:101DF00002EC600A4008E4FFFE7DC87C4222AF2F5F
:101E0000AE2EAD2DAC2C228B3B8A3C893D8F418E72
:101E1000408D3F8C3E7FD57E2C7D517C00D3123788
:101E200094400612378A7FD822E47FE37E0AC312E9
:101E3000377D500612378A7F7D22740112378BE47A
:101E40007FF57EF5D312377D4035E4F54212379F9A
:101E5000944BEE648094805026EF7802C333CE33E7
:101E6000CED8F9241AF582743C3EF583120798C344
:101E70001237944006E54224D8FF22054280CEE482
:101E8000F54212379F945BEE64809480504EEF25AC
:101E9000E0FFEE33FE74462FF582743D3EF583E499
:101EA00093FE740193FFE48F468E45F544F543E5B8
:101EB00046F546E545F545E4F544F543AF41AE400A
:101EC000AD3FAC3EAB46AA45A944A843D312077424
:101ED0005006E5422423FF22054280A612378AFFDE
:101EE00022123C15855D24855E25D3E5259464E5A5
:101EF00024648094804010749C2525F52574FF355A
:101F000024F524C21D8002D21DE4FBFA74822BF555
:101F100082743E3AF583E493FF7E002404FDEE33A1
:101F2000FCD3E5259DEC6480F8E524648098506D31
:101F3000EF24FCFFEE34FFFEC3E5259FEE6480F83E
:101F4000E5246480984056748A2BF582743E3AF5F5
:101F500083E493FF7E007C007D641205949000581A
:101F6000EEF0A3123BC78005C333CE33CED8F9FFC2
:101F7000903E93E493FDEF5D7F0260027F0390004B
:101F800057123BC78005C333CE33CED8F9FF903EFE
:101F900092E493FDEF5DC36001D3921C220BBB0062
:101FA000010AEB64084A6003021F0C7F0812000E4E
:101FB00022E4F524F525F526FB7A0079247D047FBB
:101FC00002120BFB7F011220527B007A0079247DE4
:101FD00001E4FF120BFB7F031220527524027D04E3
:101FE00012205E7D0212206A7D027F02122B747D18
:101FF0000112206A7D037F01122B747B01E4FDFF37
:10200000122B74752403752601E4FBFD7F03122B4C
:10201000747D0112205ED20CE4FD7F031221307525
:10202000DF4075DE60E4F5E9F5D1F5D375D50F75C0
:10203000D4FF90F69274A0F0E4F5479000361207B2
:10204000D4000000001229F3F0A3F0A304F043DE53
:1020500080227B007A0079247D02120BFB227B0018
:102060007A0079247F03120BFB227B017F03122B62
:10207000747B0122900041E0FF3395E0FED3EF94A2
:1020800000EE64809480227FCD7ECC7D2C7C4090BD
:102090000028E0F8A3E0F9A3E0FAA3E0FB0202ECD9
:1020A000900001AB10AA11A9120205DC75F00AED2F
:1020B000120805EC75F00AA42583F583E49322AB9E
:1020C00010AA11A91202053CC3E5099529E5286467
:1020D00080F8E50864809822FFAEF0C3E50D9FEE1E
:1020E0006480F8E50C64809822AF26EF3395E0FE1B
:1020F000EF22EF3395E0FEC3EF22E054C0F0C3EDD2
:102100009406EC6480948022E0FF543FF524FD3374
:1021100095E0FC4D22D3EF9DEC6480F8EE6480984E
:1021200022FD3395E0FCC3ED22852808852909228C
:10213000EF14603814605F1470030221C024036040
:10214000030221E71224DA40030221E7300C0EA833
:10215000057401088002C333D8FC428022A80574AC
:1021600001088002C333D8FCF45280221224C550E7
:10217000761224D14071300C0EA80574010880023B
:10218000C333D8FC429022A8057401088002C333EF
:10219000D8FCF45290221224A4504C1224E340475D
:1021A000300C0EA8057401088002C333D8FC42A08D
:1021B00022A8057401088002C333D8FCF452A0227F
:1021C000ED1224A85021300C0EA8057401088002DD
:1021D000C333D8FC42B022AF05A8077401088002BF
:1021E000C333D8FCF452B0228E2A8F2BE4F530F59D
:1021F00031E52B452A700302229D0531E53170023D
:102200000530AE2AAF2BEE3395E0FDFCE47BA07ADF
:102210000FF9F81206338F2F8E2E8D2D8C2CC006C1
:10222000C007AE30AF31AB07AA06EA3395E0F9F844
:10223000D007D0061206BE8F2F8E2E8D2D8C2CE44B
:102240007FFF7EFFFDFCAB2FAA2EA92DA82CC31269
:10225000077450A6C374FF952FF52F74FF952EF5C4
:102260002EE4952DF52DE4952CF52CAF2FAE2EAD4B
:102270002DAC2C78081207858F8CE52FFF8F8AC232
:1022800010438810E58820E5033010F85388CFE527
:1022900031153170021530E531453070CE222013F2
:1022A0000302235030151E90F129E030E003022391
:1022B0005090F164E030140554FEF080034401F0C6
:1022C000C213C215227DC87C42123B481202EC6048
:1022D0000C400A90004B1207D442C80000E4FFFEF5
:1022E000FDFC123B4B1202EC500A90004B1207D43B
:1022F00000000000AF27AE26AD25AC24EC4D4E4FBC
:10230000C36001D392147DFA7C45123B481201460A
:10231000E4FBFA798078BF1200558F278E268D2531
:102320008C24E4FBFA79C8784212024F8F278E265C
:102330008D258C241203A3AD07AC06ECFFEF90F1C2
:1023400041F0ED90F140F0D21590F129E04401F018
:10235000221228CD64027006AC0AAD0B800FAB10C0
:10236000AA11A9129000051205DCFDACF0EC1203D5
:102370006A1229198F278E268D258C247FCD7ECC3D
:102380007D2C1228A660054003C38001D3921B3028
:102390001B04C21A802BAF5FEF3395E0FED3EF949E
:1023A0004BEE648094804004D21A8015AF27AE268D
:1023B000AD25AC241228A860054003C38001D39248
:1023C0001A12305DAF1FEF6406602FAF1FEF640875
:1023D0006028AF1FEF64096021900048E0600302AD
:1023E0002D3490001EE060030215841228CD700485
:1023F000E56260030239E4E4F51F228B2C8A2D8903
:102400002EE5DF30E102805090003BE004F07006E2
:1024100090003AE004F0900036E0F8A3E0F9A3E081
:10242000FAA3E0FBAFDDEFFEADDCEDFFEE3395E0B0
:10243000FDFCEB2FFFEA3EFEE93DFDE83CFC900091
:10244000361207C8C390003BE0940A90003AE0645B
:10245000809480500743DF02E4FEFF22900036E0C4
:10246000FCA3E0FDA3E0FEA3E0FFE47B0AFAF9F899
:102470001234509000361207C8900036A3A3E0FF34
:10248000A3E0AB2CAA2DA92ECF8FF012061490003A
:102490003CE0AB2FAA30A931120582E490003DF058
:1024A000FE7F0122EDFF7E00D3940674809480228B
:1024B000EDF4F58275830085832885822985832A3A
:1024C00085822BED22EDFF7E00D3940774809480EB
:1024D00022C3EF94037480948022EDD3940574801A
:1024E000948022C3EF94017480948022FBE434F042
:1024F000FAA80574010822F4F58275830085832CFF
:1025000085822D85832E22A3E0FBE52D4BFD22A3A2
:10251000E0FBE52F4BFD22E0FBE52B4BFD22E0FB32
:10252000E52B5BFD22E0FBE52D5BFD22E0FBE52FCB
:102530005BFD22A3E0FBE5314BFD22A3E0FBEF4B6B
:10254000FD22E0FBE5315BFD2278FFE4F6D8FD904B
:1025500000007F007E04E4F0A3DFFCDEFA758165F5
:1025600002259E02281DE493A3F8E493A34003F6FA
:102570008001F208DFF48029E493A3F85407240CC7
:10258000C8C333C4540F4420C8834004F4568001A8
:1025900046F6DFE4800B01020408102040809031F1
:1025A00064E47E019360BCA3FF543F30E509541FEF
:1025B000FEE493A360010ECF54C025E060A840B8AC
:1025C000E493A3FAE493A3F8E493A3C8C582C8CA2A
:1025D000C583CAF0A3C8C582C8CAC583CADFE9DEFD
:1025E000E780BEEF14602214603C14605624037030
:1025F000741224DA4002806DED24801224EC8002F3
:10260000C333D8FC55ACFC80601224C5500512249D
:10261000D150028050ED24881224EC8002C333D8BC
:10262000FC55ADFC80431224A450051224E3500253
:102630008033ED24901224EC8002C333D8FC55AED5
:10264000FC8026ED1224A84002801AED2498FBE4B9
:1026500034F0FAAF05A8077401088002C333D8FC30
:1026600055AFFC8004E4FEFF22EC7003FEFF228BDA
:10267000828A83E05403FF7E0022E4F5DE90F69226
:10268000F090003E04F0E4F547FFEFFD3395E0FCE9
:10269000C3ED9406EC648094805015EF3395E0FC14
:1026A00074302DF58274003CF58374FEF00F80DAEF
:1026B0009000361207D4000000001229F3F0A3F0B6
:1026C000FB7D037F01122B74E4FBFDFF122B74755D
:1026D0002403E4F525F526FB7A0079247D027F01A9
:1026E000120BFB7B007A0079247D01E4FF120BFBC7
:1026F000C20CE4FDFF122130C20C7D037F011221C8
:1027000030C20CE4FD7F030221307D087F021237C6
:1027100051403D90005CE025E0F030A303E004F080
:1027200090005CE0FFFD7C00F46003ED7022E4F5B6
:10273000B6EDF44CD37001C3921EEFF47B0170022E
:102740007B027D037F021230027D087F02123A0372
:10275000301E08E51630E703751680301E1FE5159C
:1027600064857019123B36123B3E4005123A5D807B
:1027700009E4F518751A01751701E4F515201E1303
:10278000E5166484700DF516E517700475190122BD
:10279000E4F51722752403E4F525752601C20C7DA6
:1027A00002FF1221307B007A0079247D04E4FF12BD
:1027B0000BFB7B127D02E4FF122B7490F120E4F0FE
:1027C000A3740DF090F1237401F090F12A74FFF0DE
:1027D00090F122E4F090F127740DF0A3F090F160F5
:1027E000E4F090F165F090F164740DF090F13174C3
:1027F0001FF090F130743FF090F141E4F090F1401F
:10280000F090004B1207D400000000C215C21390D4
:10281000F166E4F090F126740DF0023B9F123B212B
:10282000D20C12384C123204121FB1121EE11200E7
:102830000A122794122C56122FA612338012002E41
:10284000120EC8122EE0E490003EF043A880123C25
:102850001512270A123C1912235112086612141C71
:1028600012128412229E3011E5C21112340C12365B
:1028700062123C181216E1123B6C122A19122BE656
:10288000123494122DA3AF1DEF3395E0FEC3EF94E5
:1028900003EE6480948040B6121803121B4180AE90
:1028A0007D4C7FCD7ECC7C40900028E0F8A3E0F901
:1028B000A3E0FAA3E0FB0202EC9000231207C89009
:1028C0000023E0FCA3E0FDA3E0FEA3E022AB10AAFE
:1028D00011A91202053CD390001DE0940090001C49
:1028E000E0648094802290001FE0FEA3E0FFEE33BE
:1028F00095E0FDFC22D3EF9400EE648094802212D8
:1029000003A37C007D0A1205A6AE04AF0522AB2707
:10291000AA26A925A82402075EE4FBFA797A78445E
:1029200002024F8F2A1220BFF52E9000011205DC03
:10293000F52D85F02CE4F52BAF2B1220F2940BEE45
:1029400064809480505B903DFC75F00AEF1208059E
:10295000EE1220B4652A7045123BE9AF2BEF339598
:10296000E0FE7C007D0A12059474FC2FF9743D3E54
:102970007510FFF5118912E52E6408700DE52A64C3
:10298000086007AF2DAE2C1233C8E52E700AE52A79
:102990006006FF12310F8005E490003FF0052B80A8
:1029A0009722AF2BEF3395E0FEC3EF9406EE6480E1
:1029B000948022EF3395E0FE74302FF58274003E50
:1029C000F58322E4FFFE7C43AB3AAA39A938A83745
:1029D00022752F3EAB32AA31A930A82FAF3AAE39BB
:1029E000AD38AC3702024F12024F8F368E358D3420
:1029F0008C3322E490003AF0A3F0A322AF58AE57F4
:102A0000AD56AC55223395E0FEC36480948022D34A
:102A1000EF9416EE648094802290003FE0FF122035
:102A2000F39418EE648094805003E004F090004525
:102A3000122077400DEF9409EE648094805003E0FB
:102A400004F0AF0F1220F29420EE648094805002C4
:102A5000050FAF0EEF1220794002150E12207440C0
:102A600003E014F0900040E0FF30E71C547FFEEFDD
:102A70005480F0EE122121940AEC6480948050017D
:102A80000E900040E04EF022E4900040F022D20D83
:102A9000123B7E200C19E4F52A1236F55011742BE6
:102AA000252AF9E4FAFB7F111236C6052A80EA8549
:102AB000082F8509307F003002027F018F317A00B4
:102AC000792F1237191233358F32200C07E532B5C2
:102AD0002E0280277B007A00792BE4FDFC7F1D12FB
:102AE00036C6E4F52A1236F55011742F252AF9E47A
:102AF000FAFB7F191236C6052A80EAC20D123B7E08
:102B00002290005BE0B407005066902B11F8282853
:102B100073022B26022B31022B4E022B54022B6404
:102B2000022B31022B6AE490005AF07D0B7F01806A
:102B30003C7F021238BC5002802190005BE06401AF
:102B400070067D077F0280257D237F06801F7D2301
:102B50007F0380197F061238BC50030239867D0737
:102B60007F0480097D0B7F058003E4FDFF123BD3CA
:102B7000E4FEFF22EBF5826402606AE58264036092
:102B800064E5826419605ED3E582941C748094804D
:102B90005053EF14601414602014602F2403704508
:102BA0001224DA5040ED2400802A1224C550361237
:102BB00024D14031ED2410800D1224A4502712247A
:102BC000E34022ED2420F528EE800CED1224A850DD
:102BD00014ED2430F528E434F0F527EB541F852854
:102BE00082852783F0221200035003300407E4900B
:102BF0000043F080299000431221087007EF20E67F
:102C0000034480F09000431220FA5008E020E604CC
:102C100005248003E4F524900043E04524F0123BB2
:102C2000FD502D20042A9000441221087007EF2047
:102C3000E6034480F09000441220FA5008E020E6B9
:102C40000405248003E4F524900044E04524F022A8
:102C5000E4900044F022752403E4F52575260190E4
:102C6000005DF0F51F90F12404F090F12C74FFF05A
:102C7000A3F090F1357409F090F134745FF090F1A5
:102C8000377409F090F136745FF090F126E0440C4F
:102C9000F012358A90F129E0540C70F8FB7D101287
:102CA0002CBB7B007D20122CBB7B147D047F021289
:102CB0002B747B157D057F02022B747A0079247FAB
:102CC00002120BFB22900014E0FCA3E0FDA3E0FE47
:102CD000A3E0FF222400F58274003EF583E0F8A310
:102CE000E0F9A3E0FAA3E0FB221201468F2F8E2E1B
:102CF0008D2D8C2C22AE26E527780222AB10AA114E
:102D0000A91202053CD3E5259400E5246480948053
:102D100022120146A804A905AA06AB07222400F541
:102D20008274003EF58322E4FBFA02024F6480F8CD
:102D3000E0648022900046E0FEA3E0FFC39405EE2D
:102D4000648094805010C3EF9403EE6480948050AC
:102D50004EEF04F51F22900048E0FF7E007C007DCE
:102D600006120594EF2405FFE43EFE900046E0FCC9
:102D7000A3E0FDC39FEE6480F8EC6480985020EDE2
:102D800024FBFFEC34FFFE7C007D031205A67C00D3
:102D90007D021205A6ED4C7004751F01228000E42F
:102DA000F51F2290001EE0700BAB10AA11A91212A1
:102DB000053C600775130075142822D3E5149400B0
:102DC000E513648094804009E514151470421513CE
:102DD0002290F500E4F0C20B123A214387044387A6
:102DE00002123B21D20C12384C1239667F017E0050
:102DF0001221E812270A301105C211123662123B65
:102E0000AD50E9D20B123A21E490003EF043A88085
:102E1000228B348A3589367537027538007B007A03
:102E2000007939AD38AC377F111236C6AF39EF3380
:102E300095E0FEC3EF9401EE648094804036D3EFBA
:102E4000940BEE6480948040028029E53914AB3401
:102E5000AA35A9361205820538E53870020537C350
:102E600094FCE5376480948340B3AB34AA35A9362B
:102E7000E4120582AE37AF38227D037F021225E3CC
:102E8000EF64014E7034C21EE515547FFFE4F51562
:102E9000E5177004E51A6007E4F51AF5178033EFBB
:102EA000C39405502D123B36C3EF940AEE64809410
:102EB00080500205187516808018D21E7513007593
:102EC0001428E51630E703751680E51520E703752D
:102ED00015807D087F021238E090005C74AAF02211
:102EE000123902E490001EF0F524AF24EF3395E090
:102EF000FEC3EF9406EE648094805018123C15AF28
:102F000050AE4FAD4EAC4D9000281207C812305D48
:102F1000052480D61228CD702BF524900057E0C3ED
:102F20006480F8E52464809850107F0212362F7F69
:102F3000A07E001221E8052480E17F907E0112210D
:102F4000E875620C228D27201A09201B06E49000E8
:102F500040F022900040E0FD3395E0FCED4C700322
:102F60007480F0900040E0547FF528201B057529FF
:102F7000098003752902EF6014301B29AF28122045
:102F8000F29403EE64809480401B023A3FD3E5291B
:102F90006480F8E528648098400B9000407480F0CD
:102FA000AF2712292322E4F50EFFEF122121940B03
:102FB000EC64809480502C903DFC1220AC64027034
:102FC0001FEF3395E0FC903E011220ACF50A74012E
:102FD00093F50B903DFD1220ACF50C740193F50DAB
:102FE0000F80C7123251123BE99000427404F0E4A2
:102FF000900048F07510FF75113D7512FCC203C2B8
:103000000422EBD31224D35053EF14601414602025
:1030100014602F240370451224DA5040ED24808080
:103020002A1224C550361224D14031ED2488800D57
:103030001224A450271224E34022ED2490F528EE18
:10304000800CED1224A85014ED2498F528E434F0F7
:10305000F527EB5403852882852783F022E5611448
:1030600060151460291460442403704A7D6C122892
:10307000A25043756101227F9A7E997D791228A61C
:1030800060054003E4F5611228A0502A8025E4FF82
:10309000FE7D601228A6600540037561017F9A7E5F
:1030A000997D391228A6500E756103221228A0605E
:1030B000054003756102228F288D2990001CE0B421
:1030C000FF0FA3E0B4FF0A12362FE490001CF0A318
:1030D000F090001CE0FAA3E0FB7C007D04FFAE0250
:1030E0001205A6D3ED9401EC648094807F00400229
:1030F000AF288F1FD3EB9400EA64809480500FE4D4
:10310000F51F90001CF0A3740AF0A3E529F0228FAC
:103110002FD20D123B7E7B007A007932122E118E57
:10312000308F31AD32AF2F1235C2E532B52F02806C
:103130001FE531B4FC10E530B4030B753002753176
:10314000007F1D123156E52F04F5337F19123156D9
:10315000C20D123B7E227B007A007933AD31AC3058
:103160001236C622C111C110C112C11E41005E003B
:10317000C119C118011BFF011D0442005300004288
:1031800000550000C108016500C10AC106C109C19E
:1031900007C105410040004100430041004100419A
:1031A00000440041003F1941004500C100C10141F8
:1031B0000049000020080A900051E0FEA3E0FF80D3
:1031C00030123514FF900055E03EFEC364809480B9
:1031D0005003E4FEFFC3900052E09FFF900051E0D7
:1031E0009EFEC3EF94DCEE6480948550047E057FE0
:1031F000DC900051E0B50608A3E0B50703C38001E9
:10320000D3920A22752403752501752601C281C255
:1032100084C283C2857D0212323F7D10E4FF120B0F
:10322000FB7D0812323F7D20E4FF120BFBE490008F
:1032300051F0A3F090004FF0A3F0C217C216227B0A
:10324000007A007924E4FF120BFB7B007A007924DA
:1032500022D20D123B7EE4F524E5241236F75011FC
:1032600074252524F9E4FAFB7F111236C605248063
:10327000E8C20D123B7E7A007925123719123335D8
:10328000EFB5280F852508852609E527C36001D3FA
:10329000920222123551C202D20C122A8E22AB07A0
:1032A0007AFF90003DE07041EB122A05403B122A64
:1032B0000F400AEF941FEE64809480402C900036FB
:1032C0001207D4000000001229F3EBF0A37401F000
:1032D000EB30E40543DF80800353DF7F53DEF0EB08
:1032E000540F42DEDAFE43DF022212211540028033
:1032F00004AE04AF058E278F28E5286402452770A9
:103300001C7F667E667D4612208D600940077F081F
:103310001229238008900042E0FF123824E5286437
:10332000034527700F122087600740057F09022997
:1033300023751F06228B338A3489358F398E388D59
:10334000378C36E4F53AAB330535E535AA347002EF
:10335000053414F912053C623A7F08E53A30E70873
:1033600025E06407F53A8006E53A25E0F53ADFEB1B
:10337000783674FF1207AAEC4D4E4F70C9AF3A224F
:10338000752401E4F525F526FB7D037F02122B74DD
:103390007B007A0079247D087F02120BFB7D087F79
:1033A00002123A037B027D037F0212300243B9040A
:1033B00075130075142890005C74FFF0E4F515F5A2
:1033C00016F518F519F51A228E2F8F301235456033
:1033D0003A123986AB07AA06123514900055E03E22
:1033E000C364809480C3EB9530FFEA952FFE900074
:1033F00055F0A3EFF0C3EE648094805007E4900092
:1034000055F0A3F0E4900053F0A3F022301740AF42
:1034100065EF3395E0FED3EF9400EE648094804036
:103420001312352F94FD500CA3E004F070069000A9
:1034300053E004F0C3EE6480948050131235299455
:1034400003400CA3E024FFF0900053E034FFF0228F
:10345000C2D5E830E70FB2D5E4C39BFBE49AFAE4A7
:1034600099F9E498F8EC30E717B2D51234861206D1
:10347000BEE4C39BFBE49AFAE499F9E498F880036C
:103480001206BE30D50DE4C39FFFE49EFEE49DFD11
:10349000E49CFC22900048E0FF7E0070059000460E
:1034A0008030900047E004F07006900046E004F0A1
:1034B0007C007D06120594EF240FFFE43EFEC390CE
:1034C0000047E09FEE6480F8900046E064809840FA
:1034D00004E4F0A3F022C0E0C0F0C083C082C0D0FA
:1034E00075D000C000C001C002C003C004C005C048
:1034F00006C007122E7975B600D007D006D005D0C9
:1035000004D003D002D001D000D0D0D082D083D05C
:10351000F0D0E032900053E0FEA3E0FF7C007D1489
:103520001205A6900056E02F22900054E0940090DF
:103530000053E0648022E5259527E5266480F8E5C0
:103540002464809822AB10AA11A9129000080205E9
:1035500055750803750920E4FFEFFD3395E0FCC3C2
:10356000ED940BEC64809480501F903DFC12370664
:1035700064027012EF3395E0FC903DFF123706F5C0
:1035800008740193F5090F80D0227F05301F027F58
:103590000090F145EFF07F78301F027FFA90F14400
:1035A000EFF07F05301F027F0090F147EFF07F784A
:1035B000301F027FFA90F146EFF090F129E0440CC1
:1035C000F022EF64017002FF22E4FEEEFB3395E08F
:1035D000FAC3EB9403EA64809480501DEE3395E0C7
:1035E000FA749D2BF582743E3AF583E493B5070691
:1035F000ED7F046001FF0E80D222E4FFEFFD3395E2
:10360000E0FCC3ED9403EC648094805020EF33958C
:10361000E0FC749A2DF582743E3CF583E493FE90B1
:103620000048E0FDEEB50502C3220F80CFD322EFA4
:1036300014600C14600F147010C20BD20C800AD2EC
:103640000BC20C8004D20BD20CA20B920EA20C92D5
:103650000F1239247F147E001221E8C20EC20F021D
:103660003924E51530E711547FFFC3940550010F4D
:10367000531580EF42158003E4F515E51630E71089
:10368000547FFFC3940450010F531680EF4216225B
:10369000E4F5162212211540028004AE04AF058E17
:1036A000278F28E5286402452770082006057F0833
:1036B000122923E52864034527700A7F043002029B
:1036C0007F02122923228F3AEF6419700512053CFC
:1036D000F5FEEDF5FCECFFEFF5FD00853AFF00008F
:1036E00000000000E5FF20E0FBE53A64117005E50D
:1036F000FE12058222E52AFD3395E0FCC3ED940419
:10370000EC648094802275F00AED120805EC75F0E7
:103710000AA42583F583E493227B007F037E007D4A
:10372000007C00221228D65027EF4E700774FFF05D
:10373000A3F08017EF7802C333CE33CED8F924FF3D
:10374000FFEE34FF90001CF0A3EFF090001EEDF0B0
:1037500022EF1460111460151460192403701CE525
:10376000AC5D6017D322E5AD5D6010D322E5AE5DA0
:103770006009D322E5AF5D6002D322C322FDFCAB1A
:1037800041AA40A93FA83E020774E4AB3BAA3CA96A
:103790003D020582AB41AA40A93FA83E020774AF93
:1037A00042EF3395E0FEC3EF22E56164036005E478
:1037B000F563801DE56370057563018014AF63EFE9
:1037C0003395E0FED3EF9474EE648094804002D38E
:1037D00022C3228E278F28123A791220EB64024EE0
:1037E0007003123AB0200408E52864014527700BE5
:1037F0003004051200034003123A3F22A90790004B
:1038000043E0FE5480FB3395E04B700BED3395E0C5
:10381000FCED64014C700CEE547F900043F0AF015E
:10382000122923228F297F9A7E997D3912208D605B
:103830000B4009AF293002027F0280091220876005
:103840000740057F03022923751F0622E4200C068A
:10385000F5C853A8DF22F5CE75CB0B75CADB75CD45
:103860005D75CC6643A820F5C975CF807564047575
:10387000C89122E4FFFE7C40AB4CAA4BA94AA84960
:103880000202EC7D01AF24123AC98F2422AB5CAA5C
:103890005BA95AA8590202EC90F1417401F07F0033
:1038A000300B027FFF90F140EFF0123B9F90F164EC
:1038B000E030140454FEF0224401F022AB07EB3355
:1038C00095E0FEEF25E0FDEE33FC123BF31205A67A
:1038D000EB14D36480F8ED6480984002D322C322B5
:1038E000EF14600F14601114601324037013EDF4CF
:1038F00052AC22EDF452AD22EDF452AE22EDF45270
:10390000AF2290001F747FF0A374FEF0A37480F0C8
:10391000A37402F0E4900027F09000231207D40073
:103920000000002290F164E0FF300E055307FB8099
:1039300003430704300F055307F78003430708903C
:10394000F164EFF022D3E5286480F8E548648098BC
:103950004002D322C3E5296480F8E548648098508A
:1039600002C322A20C227D087F021238E090005C84
:1039700074AAF0D21EE51630E703751680E515200F
:10398000E703751580221220A0FFAEF0900058E0EA
:10399000FCA3E0FDD39FEE6480F8EC6480984001C6
:1039A00022AE04AF0522E4FB7D02FF122B74C20C91
:1039B0007D02E4FF12213090F121E4F090F126F035
:1039C00090F123F02290F5007409F090F50274193B
:1039D000F090F50CE4F090F5067438F0A37405F05F
:1039E00075B98022E56114600E14600F1460102414
:1039F00003700F751F0322751F0222751F012275A8
:103A00001F0422EF14600E14600F14601024037062
:103A10000FED42AC22ED42AD22ED42AE22ED42AFBF
:103A200022300B0F121FB1122794122C561232049F
:103A30000239C5C20C12384C1239A612267A22124B
:103A400020BFFF60179000071205556005900042E7
:103A5000EFF0E4FF122923E4FF12310F22E4F51600
:103A6000F519F518F517EE700FEF24FE60070470D6
:103A700007751A0222751A0322AF1AEF3395E0FE7A
:103A8000EF24FFFFEE34FFFE123B3E4005E51A1423
:103A9000FF227F0022E51A6004E4FEFF22E5197090
:103AA00003FEFF22123B36300B05E4F519F5182210
:103AB00090001EE0701204F01228CD600BE4F51F98
:103AC00090001CF0A37408F022EFFB3395E0FAC3DA
:103AD000EB9408EA648094805004EF2DFF227F0865
:103AE00022900044E0FE5480FD3395E04D6007EEE7
:103AF000547FF01229232253DE7F007F00200B0227
:103B00007FA090F692EFF00043DE8022C0E075C9FE
:103B1000001564B212E5647005756404D211D0E03A
:103B2000325388CF5389F0438901E4F58CF58A75C7
:103B3000A80243A88022AF18EF3395E0FE22D3EF0E
:103B40009400EE6480948022E4FFFE90004BE0F845
:103B5000A3E0F9A3E0FAA3E0FB22AB10AA11A9129B
:103B600012053C64087F2F70027F3422123BF3D38E
:103B7000EF9400EE648094804003E014F022300D56
:103B800007C2AF0075FBAA2275FB5500D2AF2220F9
:103B900019037F002290005EE0FFE4F0C21922903A
:103BA000F1297401F090F129E020E0F922E51A6092
:103BB00002D322E519C36001D322E51A6401600231
:103BC000C322E4F51AD322EFF0AF037E007401A8FC
:103BD00007082290005AE07005EDF0A3EFF022E50F
:103BE0001E5480FF3395E04F22E490005BF090007C
:103BF0005AF02290005AE0FF3395E0FE22E51A6465
:103C000002C37001D322E4900048F0FF022923533D
:103C100088EFD21032021C3F222200512CD5004BDB
:103C200018690045845700406521003BB0620037A9
:103C30005CB60033619B002FB760002C570700294A
:103C40003A3D00265B410023B4DC0021424D001EBA
:103C5000FF45001CE7D5001AF86900192DBE0017B2
:103C600084DA0015FB0600148DC700133ADA00123F
:103C7000002B0010DBD6000FCC1E000ECF6C000D09
:103C8000E44B000D0965000C3D80000B7F7C000AB1
:103C9000CE50000A290700098EC30008FEB50008AF
:103CA000781F0007FA52000784AE0007169D000631
:103CB000AF9700064F1C0005F4B800059FFE0005F5
:103CC000508B000506020004C00D00047E5D000458
:103CD00040A9000406AC0003D02700039CE10003C8
:103CE0006CA100033F37000314720002EC280002AD
:103CF000C62F0002A2630002809F000260C3000280
:103D000042B10002264C00020B7B0001F2230001AD
:103D1000DA2E0001C3870001AE19000199D200011B
:103D200086A0000174720001633A000152EA0001AA
:103D30004372000134C8000126DF000119AC000104
:103D40000D2500010141F5F5EB3AE107D755CE1DF0
:103D5000C558BD00B50EAD7FA64C9F7098E792ACDC
:103D60008CBB871181AA7C82779772E46E676A1E8A
:103D70006606621C5E5F5ACB575F541950F84DF8C7
:103D80004B1A485A45B8433340C83E773C3E3A1D2B
:103D90003812361D343B326D30B22F082D6F2BE6B2
:103DA0002A6C290127A42655251323DD22B221934D
:103DB000207F1F751E751D7E1C901BAC1ACF19FB32
:103DC000192E186917AA16F31642159714F21453F0
:103DD00013B913251296120C1186110510881010B4
:103DE0000F9B0F2B0EBE0E550DEF0D8C0D2D0CD114
:103DF0000C780C210BCE0B7D0B2E0AE3000000008B
:103E000000000001006401000000000000000064E8
:103E100003000F00000AF00000320403E800000B6A
:103E2000540100450507D000000BB8010056060FED
:103E3000A000000BEA010160071F4000000C1C01FC
:103E400001660859D800000C8000016A092EE000C4
:103E50000009C4000169021F4003E80C800001450D
:103E60000A2EE0000009C400016978502D0100000D
:103E70000000000000000000000000000000000042
:103E80000000524B44382F21180F91B464E6E678B5
:103E9000B464070F1F0D080E000605030408090A85
:00000001FF
