:10000000022C89AF19EF3395E0FE22023D46E58EC2
:10001000541FF5694369C085698EC2AF007596AA01
:0A00200075965543970200D2AF22F7
:10002B0002367F75247F123D4CE56270117F05FE11
:0F003B00122482D524F0756704121E6080FE2205
:10004B0002379A121A70400CA3E024FFF090001CA8
:10005B00E034FFF090002AE0FF3395E0FE121B2501
:06006B004003E014F02246
:10007300023A9D020437E86480F8E933E8336011FB
:100083000460F0ED33EC337009E8FCE9FDEAFEEBC4
:10009300FF220460DED3EB9FEA9EE99DE8C2E78C72
:1000A300F0C2F795F0400CE8CCF8E9CDF9EACEFAC6
:1000B300EBCFFB12040285D0F05804700320D5B3B4
:1000C300E80470075002B2D502044192D5EC0460F3
:1000D300F7E4CCC0E0C398F8603B94186008400D87
:1000E300D0E0FB020419E4FBFAC9FC8028E830E401
:1000F30006E4C9FBE4CAFCE830E305E4C9CACBFC67
:10010300E854076010F8C3E913F9EA13FAEB13FB99
:10011300EC13FCD8F130F52FC3E49CFCEF9BFFEE0E
:100123009AFEED99FDD0E0FBEF4E4D4C701222DBB1
:100133000302043EEC2CFCEF33FFEE33FEED33FD04
:10014300ED30E7EB020419EF2BFFEE3AFEED39FD3C
:10015300D0E0FB50130BBB0003020441ED13FDEE93
:1001630013FEEF13FFEC13FC020419EC4D6011E8CE
:10017300497017ED33EC3304600DE4FCFFFEFD2200
:10018300E933E8330470F8020437120402580460B8
:1001930009E4CC2481500628500902044128400375
:1001A30002043EC0E0EB4A7044B98006D0E0FB0293
:1001B300042DEF4E701CBD8008EBFFEAFEE9FD80C5
:1001C300EBE98DF0A4FEE5F0020257E9CDF9EAFE72
:1001D300EBFFEF89F0A4FCE5F0CE89F0A42EFFE459
:1001E30035F0CD89F0A42DFEE435F08067EF4E7035
:1001F30005BD80D780C3EF8BF0A4ACF0EE8BF0A4E9
:100203002CFCE435F0F8EF8AF0A42CE5F038FCE49C
:1002130033CB8DF0A42CFCE5F03BF8EE8AF0A42C54
:10022300FCE5F038F8E433CF89F0A42CFCE5F03892
:10023300CF3400CE89F0A42FFFE5F03EFEE433C9AE
:100243008DF0A42EFEE5F039CD8AF0A42FFFE5F062
:100253003EFEE43DFD33D0E0FB50070BBB000F0235
:100263000441EC2CFCEF33FFEE33FEED33FD0204CF
:1002730019020441EC5D046005E8590470030204AB
:1002830037120402580460F6EC4860F2EC7004FD87
:10029300FEFF22C860DB2481C85009C39860025066
:1002A3000602043E9850CAF582E9294B4A7005AB11
:1002B3008202042D75F0007C1A7880C3EF9BEE9ABE
:1002C300ED99400DC3EF9BFFEE9AFEED99FDE842D9
:1002D300F0DC23ACF0D0E0FFD0E0FED0E0FDAB8259
:1002E30020E7101BEB60BAEC2CFCEF33FFEE33FE80
:1002F300ED33FD020419E803F830E705C0F075F0AB
:1003030000EF2FFFEE33FEED33FD40B830E7C28040
:10031300AA74F8CC6480CCC86480C8F58204604FAA
:10032300C3EB9FF5F0EA9E42F0E99D42F0E89C455D
:10033300F0603C501DE5825FFFE582D313CB5BCBBE
:10034300F42B5582FB50280ABA002409B90020086F
:10035300801DE5825BFBE582D313CF5FCFF4C3132C
:100363002F5582FF50090EBE00050DBD00010CC3C1
:10037300EB9FF5F0EA9E42F0E99D42F0E89C45F0E0
:100383006007CC4820E701B3EC2275F020800E759E
:10039300F010800575F0087D007E007F003392D554
:1003A30030D503120778EC334010EF33FFEE33FE02
:1003B300ED33FDEC33FCD5F0ED22E5F0247EA2D540
:1003C30013CC92E7CDCEFF22EDD2E7CD33EC3392BF
:1003D300D524814006E4FFFEFDFC22FCE4CFCECD14
:1003E300CC24E0501174FF80EDC3CC13CCCD13CDDE
:1003F300CE13CECF13CF0470F030D5DE020778E9E9
:10040300D2E7C933E833F892D5EDD2E7CD33EC33F5
:10041300FC5002B2D522EC30E7100FBF000C0EBE29
:1004230000080DBD00040BEB6014A2D5EB13FCED2B
:1004330092E7FD2274FFFCFDFEFF22E480F8A2D5C3
:1004430074FF13FC7D80E480EFE709F608DFFA8090
:1004530046E709F208DFFA803E88828C83E709F0D9
:10046300A3DFFA8032E309F608DFFA8078E309F2C2
:1004730008DFFA807088828C83E309F0A3DFFA80B7
:100483006489828A83E0A3F608DFFA805889828A26
:1004930083E0A3F208DFFA804C80D280FA80C68022
:1004A300D4806980F28033801080A680EA809A80AD
:1004B300A880DA80E280CA803389828A83ECFAE4F6
:1004C30093A3C8C582C8CCC583CCF0A3C8C582C8D2
:1004D300CCC583CCDFE9DEE7800D89828A83E49390
:1004E300A3F608DFF9ECFAA9F0EDFB2289828A83EF
:1004F300ECFAE0A3C8C582C8CCC583CCF0A3C8C5B9
:1005030082C8CCC583CCDFEADEE880DB89828A83BC
:10051300E493A3F208DFF980CC88F0EF60010E4E7C
:1005230060C388F0ED2402B4040050B9F582EB24D3
:1005330002B4040050AF232345822390049C73C26A
:10054300D530F707B2D563F0FF05F030E70CB2D52D
:10055300F4048463F0FF05F080018430D502F404D1
:1005630022BB010689828A83E0225002E722BBFE76
:1005730002E32289828A83E49322BB010CE5822968
:10058300F582E5833AF583E0225006E92582F8E611
:1005930022BBFE06E92582F8E222E58229F582E5FF
:1005A300833AF583E49322BB010689828A83F0228E
:1005B3005002F722BBFE01F322EF8DF0A4A8F0CF87
:1005C3008CF0A428CE8DF0A42EFE22C2D5EC30E709
:1005D30009B2D5E4C39DFDE49CFCEE30E715B2D52A
:1005E300E4C39FFFE49EFE120819C3E49DFDE49C4F
:1005F300FC800312081930D507C3E49FFFE49EFE75
:1006030022BB0110E58229F582E5833AF583E0F503
:10061300F0A3E0225009E92582F886F008E622BB20
:10062300FE0AE92582F8E2F5F008E222E5832AF5DD
:1006330083E993F5F0A3E99322BB010A89828A83B4
:10064300F0E5F0A3F0225006F709A7F01922BBFE4C
:1006530006F3E5F009F31922E88FF0A4CC8BF0A49C
:100663002CFCE98EF0A42CFC8AF0EDA42CFCEA8E81
:10067300F0A4CDA8F08BF0A42DCC3825F0FDE98FA4
:10068300F0A42CCD35F0FCEB8EF0A4FEA9F0EB8F9B
:10069300F0A4CFC5F02ECD39FEE43CFCEAA42DCE68
:1006A30035F0FDE43CFC2275F008758200EF2FFF66
:1006B300EE33FECD33CDCC33CCC58233C5829BED37
:1006C3009AEC99E58298400CF582EE9BFEED9AFD3B
:1006D300EC99FC0FD5F0D6E4CEFBE4CDFAE4CCF9EB
:1006E300A88222B800C1B90059BA002DEC8BF0845E
:1006F300CFCECDFCE5F0CBF97818EF2FFFEE33FE2C
:10070300ED33FDEC33FCEB33FB10D703994004EBE3
:1007130099FB0FD8E5E4F9FA227818EF2FFFEE33AF
:10072300FEED33FDEC33FCC933C910D7059BE99AC1
:100733004007EC9BFCE99AF90FD8E0E4C9FAE4CC52
:10074300FB2275F010EF2FFFEE33FEED33FDCC33BC
:10075300CCC833C810D7079BEC9AE899400AED9BA5
:10076300FDEC9AFCE899F80FD5F0DAE4CDFBE4CC84
:10077300FAE4C8F922C3E49FFFE49EFEE49DFDE48E
:100783009CFC22EB9FF5F0EA9E42F0E99D42F0ECDF
:100793006480C864809845F022EB9FF5F0EA9E429E
:1007A300F0E99D42F0E89C45F022E8600FECC313AA
:1007B300FCED13FDEE13FEEF13FFD8F122E493FCDF
:1007C300740193FD740293FE740393FF22ECF0A370
:1007D300EDF0A3EEF0A3EFF022A8828583F0D0839F
:1007E300D0821207F31207F31207F31207F3E4732D
:1007F300E493A3C583C5F0C583C8C582C8F0A3C568
:1008030083C5F0C583C8C582C822A42582F582E5C5
:10081300F03583F58322BC000BBE0029EF8DF084F5
:10082300FFADF022E4CCF875F008EF2FFFEE33FEB6
:10083300EC33FCEE9DEC984005FCEE9DFE0FD5F0ED
:10084300E9E4CEFD22EDF8F5F0EE8420D21CFEADF6
:10085300F075F008EF2FFFED33FD4007985006D5F4
:10086300F0F222C398FD0FD5F0EA22123CE78F265F
:10087300123D139206C207123B4A8E248F25900025
:1008830045E06009C3940B74809480400690004552
:100893007404F0122017EF64184E700AE004F0128B
:1008A3001FC6FF122BE5900046E0FF6401700302B0
:1008B3000C43EF64027003020C43EF6408700302FD
:1008C3000C43121FC6B40B004003020B909008D7D1
:1008D300F82828730209110208F8020A91020A395A
:1008E300020AB2020AC6020AD9020AEC020B130276
:1008F3000B47020B6BC204200603020B90900046C9
:10090300E064067003020B90E4F0FF0209A8E525FA
:10091300640545247011C204D3300301C3920390CC
:1009230000447408F08018300315D3E5259400E5DE
:1009330024648094805005123C6D50037567063023
:100943000303020B90E52564064524700DD33004A0
:1009530001C392049000447402F0300427123D3125
:100963004003020B907F667E667D46121F68600916
:1009730040072010047F08802C121F626032403031
:100983007F078060E5256401452470267F9A7E9960
:100993007D39121F686010400E3002047F0280050B
:1009A300900045E0FF803D121F6260044002803CDE
:1009B3008050E52564024524702F30100280437F68
:1009C300667E667D46121F68600740057F08020B3E
:1009D30042121F626011400F3002047F02800590B3
:1009E3000045E0FF020B4280193006057F03020B2E
:1009F3004212202E7012121F62600740057F090207
:100A03000B42756706020B90E525640445247018B4
:100A1300D3300201C392027F082002027F098F674D
:100A2300C2081230DD020B90123D384003020B90D6
:100A3300123D28020B907D037F011233FFE52564ED
:100A43000145247003123BC520060B121FDF64010E
:100A53004E6003020B907F9A7E997D39121F686066
:100A6300025003020B907F043002027F0212332DE7
:100A7300121FDF64014E7003020B90300203123920
:100A8300D1900047E04440F0750E04020B9020051E
:100A930013121FDF64044E70057F0312332D120CF3
:100AA3006C120C8E121C51AF261218F4020B907D9F
:100AB300047F011233FF120C6C120C8EAD267F05DE
:100AC300020B8D7D04120C44120C96AD267F061288
:100AD3003A4E7F0480357D05120C44120C96AD26E8
:100AE3007F07123A4E7F0580227D06120C58AD25F2
:100AF300AC24123884E4FD7F04123A4E121FDF64E3
:100B0300014E70057F0312332D7F06123C2D807D2D
:100B13007D07120C58EF64014E600BE52564024516
:100B230024600330120A7F043002027F0212332D45
:100B3300121FDF64034E600512202E70507F0912CE
:100B4300332D80497D09120C7B70082010057F0826
:100B530012332D12202E700A7F043002027F0212FC
:100B6300332DAD267F0A80227D0A120C7B7008206C
:100B730010057F0812332D12202E700A7F043002D5
:100B8300027F0212332DAD267F09123A4E900044A4
:100B9300121F7E400C9000001207DC42A000008070
:100BA3006EAF0EEF121F80400C9000001207DCBFE7
:100BB300800000805A121FC624FE602224F8603A87
:100BC300047040300C0E900001120604FFAEF0AC2E
:100BD30006FD80357EFF7FFF7CFF7DFF802BC3E515
:100BE3000D9509E508121FF05006AE0CAF0D8004F9
:100BF300AE08AF09AC06AD07800F1223CAAC06AD31
:100C0300078006121F8EFDACF01220011207D012CE
:100C13001FF9121F6D60084006121FF91207D0D288
:100C230007123B4A900000E0FCA3E0FDA3E0FEA313
:100C3300E0FF1203CB121B3D90004EEEF0A3EFF04A
:100C430022E4FF1233FFAF25AE24123C80AF26EF20
:100C53003395E0FE22E4FF1233FFAF25AE24123CAE
:100C630080AF26EF3395E0FE22AF25AE24123C8001
:100C7300AF26EF3395E0FE227F011233FFAF25AE9F
:100C830024123C80E5256402452422AD25AC2412C0
:100C9300388422AD25AC24123884228F29120564AE
:100CA300FF14601514602814603D14603A24047026
:100CB3005C122AA8122AEF8029122AA8F58274014D
:100CC300F52E85822FE582F4F582753000801312AC
:100CD3002AA8F4F582752E0085822FEDF582740122
:100CE300F5308582318026ED122AEF858231EDF5CC
:100CF300827401F52A85822BEF64047007EDFF747B
:100D030001FE8005EDF4FF7E008E2C8F2D900001F7
:100D130012057D7007EDFF7401FE8005EDF4FF7E83
:100D2300008E328F3390000212057D7007EDFF7441
:100D330001FE8005EDF4FF7E00E529147003020D2A
:100D4300DA147003020E5D147003020EE0240360D4
:100D530003020F6AE52AAB9A30E006E52B4BFD80D0
:100D630004E52B5BFD8D9AE52C30E00890F0091229
:100D73002B0F800690F009122B1690F009EDF0E589
:100D83002E30E005122AFF800690F00A122B1D90E8
:100D9300F00AEDF0E53030E005122B07800690F005
:100DA3000B122B2490F00BEDF0EE30E005122B33F9
:100DB300800890F00CE0FBEF5BFD90F00CEDF0E5AC
:100DC3003230E005122B2B800690F00D122B3AAF38
:100DD3000590F00DEDF022E52AABA130E006E52BFE
:100DE3004BFD8004E52B5BFD8DA1E52C30E00890E5
:100DF300F019122B0F800690F019122B1690F01990
:100E0300EDF0E52E30E005122AFF800690F01A126D
:100E13002B1D90F01AEDF0E53030E005122B078022
:100E23000690F01B122B2490F01BEDF0EE30E00542
:100E3300122B33800890F01CE0FBEF5BFD90F01C5D
:100E4300EDF0E53230E005122B2B800690F01D12F9
:100E53002B3AAF0590F01DEDF022E52AABA230E06E
:100E630006E52B4BFD8004E52B5BFD8DA2E52C30C5
:100E7300E00890F029122B0F800690F029122B1610
:100E830090F029EDF0E52E30E005122AFF80069060
:100E9300F02A122B1D90F02AEDF0E53030E0051218
:100EA3002B07800690F02B122B2490F02BEDF0EE05
:100EB30030E005122B33800890F02CE0FBEF5BFD54
:100EC30090F02CEDF0E53230E005122B2B800690EC
:100ED300F02D122B3AAF0590F02DEDF022E52AAB61
:100EE300A330E006E52B4BFD8004E52B5BFD8DA3D2
:100EF300E52C30E00890F039122B0F800690F03982
:100F0300122B1690F039EDF0E52E30E005122AFF92
:100F1300800690F03A122B1D90F03AEDF0E5303058
:100F2300E005122B07800690F03B122B2490F03B38
:100F3300EDF0EE30E008A3E0FDEF4DFF800890F008
:100F43003CE0FDEF5DFF90F03CEFF0E53230E0096F
:100F5300A3E0FDE5334DFF800990F03DE0FDE5336F
:100F63005DFF90F03DEFF022C3900029E0942C90B8
:100F73000028E0648094815071E4FFFE7D7A7C4414
:100F8300AB53AA52A951A85012016E1203CB8F2D55
:100F93008E2C8D2B8C2A900029E004F07006900093
:100FA30028E004F0121A62252DFFEE352CFEED35F4
:100FB3002BFDEC352AFC9000241207D0121ACCC367
:100FC300121B10500A900020E52CF0A3E52DF090A1
:100FD3000022121ACFD3121B10500302106C900080
:100FE30022E52CF0A3E52DF0807F121A62FFC004E6
:100FF300C005C006C007900022E0FEA3E0FBAA06DE
:10100300EA3395E0F9F8121ACCEF2BFBEE3AFAED3E
:1010130039F9EC38F8D007D006D005D004C3EF9BDC
:10102300FFEE9AFEED99FDEC98FC121A5CFFC006E8
:10103300C007900029E024FEFF900028E034FFABB6
:1010430007FA3395E0F9F8D007D006123714121ACD
:101053005CFFEC12038D121B1B90002B1207D012A6
:101063001A801207DC00000000121AFE64027006E8
:10107300AC0AAD0B800FAB10AA11A9129000051298
:101083000604FDACF0EC120392121B1B8F298E2871
:101093008D278C267D2C121A2160054003C3800105
:1010A300D39214301404C2138039AB57AA56A955EE
:1010B300A854AF4FAE4EAD4DAC4C1202777B527A73
:1010C300B8795E783F1203145004D2138015AF2908
:1010D300AE28AD27AC26121A2760054003C3800152
:1010E300D3921390001FE014601A14603014604F01
:1010F300240370587FCD7ECC7D6C121A25504D127F
:101103001B3680487F9A7E997D79121A25600740A5
:1011130005E490001FF0121A1F50318029E4FFFEEE
:101123007D60121A2560054003121B367F9A7E9953
:101133007D39121A25501590001F7403F0800D128B
:101143001A1F6008400690001F7402F0AF67EF6437
:1011530006604FAF67EF64086048AF67EF640960EC
:1011630041900046E06003023156121AFE70069069
:10117300002AE0602190001FE014600E14600F1439
:1011830060102403701C756701227567042275675C
:1011930002227567032290001EE060030213CBE472
:1011A300F5672275240075254078007C007D017B5E
:1011B300FF7A3F79947E007F1412051C123BE350A3
:1011C300057F070213C7E4FFFE7DB07C40AB57AA3F
:1011D30056A955A85412031450030213CA122F46DA
:1011E30060030213CAC283C285C281D206123B08BE
:1011F300D2847F057E00122482123D4C7F667E6678
:101203007D867C40AB4FAA4EA94DA84C12031460B7
:1012130002500DE525152570021524122F0C50D20E
:10122300E52545247007C2847F010213C775240096
:10123300752564C2847F147E00122482C206123B89
:1012430008123D4C7F0A7E00122482752600752702
:1012530004122F05C333CE33CED8F924FCF58274A0
:10126300FF3EF583122ED8C004C005C006C0071286
:101273002F05C333CE33CED8F9122F4FD007D00664
:10128300D005D0041207D0E527152770021526E5EF
:1012930027452670BCAF4FAE4EAD4DAC4C90000011
:1012A3001207D09000141207DC00000000E4F526BA
:1012B300F527122ED5C004C005C006C007122F059E
:1012C300C333CE33CED8F9122EE4D007D006D005DF
:1012D300D00412007D9000141207D00527E5277073
:1012E3000205266405452670C9122ED5E4FBFA795A
:1012F300A078401202779000141207D090001812C1
:1013030007DC00000000E4F526F527900018122EF4
:10131300D8C004C005C006C007122F05C333CE339F
:10132300CED8F9122EE4122ED5120079E4FBFAF985
:10133300F8120314500F122F05C333CE33CED8F94E
:10134300122EE4801A122F05C333CE33CED8F912EE
:101353002F4F122ED8E4FBFA798078BF122F3A125E
:101363002ED5120079AB07AA06A905A804D007D089
:1013730006D005D00412007D9000181207D005276F
:10138300E5277002052664054526600302130EC394
:10139300E525945D122F115013E4FFFEFD7C3F9071
:1013A3000018122EED12031460025010E5251525C6
:1013B30070021524122F0C4003021244E525452424
:1013C30070057F02123C922290001EE014B40900C3
:1013D30040030215AB9013E675F003A4C58325F013
:1013E300C583730214010214140214930214BE027F
:1013F30014EE02151902155D02158902159BE4F519
:1014030067121AE790001CE4F0A3740EF0A37402B1
:10141300F090001CE0FEA3E0FFD3940CEE648094F4
:101423008040057567018023D3EF940AEE648094AE
:101433008040057567048013D3EF9408EE648094AD
:101443008040057567028003E4F567121B2540039E
:101453000215AB90002F121A65FF1203CB7D6412A5
:101463001AA7AE2EAF2F7C007D0A1205CE8E2E8FCB
:101473002FE52F452E7005121AF5800D121B2FC371
:1014830033CE33CED8F9121AB190001E7403F02272
:1014930090001CE0B4FF0AA3E0B4FF057F0212151D
:1014A300AC121A3840027F02121ADB40030215AB5A
:1014B300121B07740AF0A37404F022121A7040037B
:1014C3000215AB90002F121A65121A9DE52F452EB7
:1014D3007005121AF5800D121B2FC333CE33CED8ED
:1014E300F9121AB190001E7405F02290001CE0B4AA
:1014F300FF0AA3E0B4FF057F041215AC121A3840AB
:10150300027F04121ADB40030215AB121B07740A95
:10151300F0A37406F022121A7040030215AB900078
:101523002F121A65FFE4FBFA7920784112016E123B
:101533001AEF90002F121A65121A9DE52F452E708F
:1015430005121AF5800D121B2FC333CE33CED8F9F3
:10155300121AB190001E7407F02290001CE0B4FF31
:101563000EA3E0B4FF097F011239FDE4121AF7124A
:101573001A3840027F01121ADB502D121B07740C1C
:10158300F0A37408F022121A70501D90002A740CF4
:10159300F090001E7409F02290002AE0700A123DB8
:1015A300384005E490001EF0221239FDE490001C3F
:1015B300F0A3F0228E2E8F2F8D3090F692E030E73D
:1015C30008E4FFFEFD7C408003123215123203ACA7
:1015D3002EAD2FEC120392C004C005C006C007E471
:1015E300FBFA79807845AF38AE37AD36AC351202A9
:1015F30077D003D002D001D00012016E8F3C8E3B16
:101603008D3A8C39E530605924FA70030216BC24F4
:10161300FE70030216F424FB700302171F24EE600E
:10162300142411600302175E853C5F853B5E853A97
:101633005D85395C22AC2EAD2FEC120392A804A970
:1016430005AA06AB077F9A7E997D997C451202779E
:101653008F348E338D328C318F5B8E5A8D598C58EB
:10166300227534357533487532031231EA8F578E3C
:10167300568D558C54AB57AA56A955A854123229E6
:101683005013AF57AE56AD55AC5412321E8F578E12
:10169300568D558C54900059E0FC120397A804A969
:1016A30005AA06AB07AF57AE56AD55AC5412027739
:1016B3008F538E528D518C502275342D7533A675F0
:1016C30032331231EA8F4F8E4E8D4D8C4CAB4FAA75
:1016D3004EA94DA84C123229400302175EAF4FAEFC
:1016E3004EAD4DAC4C12321E8F4F8E4E8D4D8C4CE9
:1016F300221231E1123215120079C004C005C0066E
:10170300C0077D481231DC12016ED003D002D00134
:10171300D0001232001203CB8E608F611231E112BE
:101723003215120079C004C005C006C0077DA5129A
:1017330031DC12016ED003D002D001D0001232008E
:10174300E4FBFA797A784412016E1232031203CB66
:101753007B007A0079621222338F4B22E562700498
:101763007F058041123994D3EF9441EE64809480D5
:101773004002D212D3EF943CEE648094804004D2B2
:1017830010800DC3EF9432EE648094805002C21037
:10179300301205201002C212D3EF944BEE648094F2
:1017A3008040057F06023C92123994C3EF9437EED2
:1017B30064809480500D900046E064067005F0FF4D
:1017C30012332DAB10AA11A91290000812057D70D7
:1017D30004C211801F123994D3EF9432EE648094C3
:1017E300804004D211800DC3EF9428EE648094806E
:1017F3005002C21120110AE4F51CF51DF51EF51F58
:1018030022D390004FE0940090004EE064809480D7
:1018130050030218F3123994EF24CEFFEE34FFABDA
:1018230007FAD3EB9400EA648094804004AE02800C
:101833001AC3E49BFFE49AFED3EF9401EE64809411
:10184300807E0040047F0180027F00EF4E60429063
:10185300004EE0FEA3E0FF7C177D701205CED3EFB0
:101863009400EE648094804002801D90004EE0FE60
:10187300A3E0FFC3E49FFFE49EFE7C177D70120587
:10188300CEEF2401FFE43EFEAD03AC021205BC80A3
:10189300047E007F00EF251FF51FEE351EF51ED3D6
:1018A300E51F9450E51E648094C64006751E467578
:1018B3001F50C3E51E648094805005E4F51EF51F98
:1018C300EB251DF51DEA351CF51CD3E51D94E0E55C
:1018D3001C648094AE4006751C2E751DE0C3E51D87
:1018E3009420E51C648094515006751CD1751D200D
:1018F300228F27123D384005123D315003D380011A
:10190300C39207121F8E121FE8500AAC0CAD0DAE26
:1019130004AF0580008E288F29900001120604FF72
:10192300C3E5299FE5F06480F8E528648098500BAF
:10193300300708121FD0400312204D20050EAF2799
:10194300121FE164014E7050D205804C30010A052C
:1019530009E509700C05088008E5091509700215E9
:1019630008900003121F91FFAEF0D3E5099FEE121A
:101973001FD65006D2018E088F09121FCF4005C211
:101983000112204DAF27121FE164014E6005123C86
:101993006D5005C205750F1E123D31500D20000A12
:1019A3000509E509701E0508801A123D38500D20FF
:1019B300000AE5091509700215088008200705309B
:1019C3000002C200123D31501020000D121FCF4003
:1019D30008750E0412204DD200123D385025200008
:1019E30022AB10AA11A912900003120604FFAEF055
:1019F300D3E5099FEE121FD65009750E048E088F8A
:101A030009D200300704E4F50F22AF0F121FE1647F
:101A1300204E7007050FC2081230DD227D4C7FCDAA
:101A23007ECC7C4090002BE0F8A3E0F9A3E0FAA37E
:101A3300E0FB02031490001CE0FAA3E0FB7C007DB2
:101A430004FFAE021205CE8C2E8D2FD3E52F940109
:101A5300E52E648094807F00229000241207D090AA
:101A63000024E0FCA3E0FDA3E0FEA3E022D390006A
:101A73001DE0940090001CE064809480229000207C
:101A8300747FF0A374FEF0A37480F0A37402F0E4F7
:101A9300900028F0A3F090002422FF1203CB8E2E97
:101AA3008F2F7D0A7C001205CE8C2E8D2F2224FFD2
:101AB300FFEE34FF90001CF0A3EFF0227C40AB5309
:101AC300AA52A951A850020314900020E0FEA3E0FB
:101AD300FFEE3395E0FDFC228F67D3EB9400EA64BD
:101AE30080948022AF57AE56AD55AC5490002F0270
:101AF30007D074FF90001CF0A3F022AB10AA11A929
:101B030012020564E4F56790001CF0A322AB2DAA32
:101B13002CA92BA82A020786E4FBFA797A784402D7
:101B23000277D3EF9400EE6480948022AE2EE52FEB
:101B330078022290001F7401F0228E278F28301123
:101B43000DD3E5289400E527648094805005AE27E3
:101B5300AF2822AC1EAD1FEC1203927B007AA07952
:101B63008C784612027712399CE4FBFA79C87842E2
:101B730012016E12399CAC1CAD1DEC1203927B005A
:101B83007A80793B78461202778F348E338D328C8C
:101B93003112398BC000C001C002C003E4FFFE7DD7
:101BA300207C41AB34AA33A932A83112016ED00391
:101BB300D002D001D00012007D12399CE4FFFEFD5B
:101BC300FC12398B1203145009E4F52CF52BF52A7A
:101BD300F529E4FFFE7DC87C4212398B12031460A1
:101BE3000D400BE4F52CF52B752AC8752942C3E586
:101BF3002894DCE5276480948550057E057FDC22EC
:101C0300AC27AD28EC12039278C4123979E4FBFABD
:101C130079C87842120277123982AB30AA2FA92EE3
:101C2300A82DC000C001C002C00312398BE4FFFE1F
:101C33007DC87C42120079D003D002D001D00012BB
:101C4300016E12398278441239791203CB22301390
:101C530003021CDE301403021CDEE4900043F09008
:101C6300001FE06003021D58121F8E121FE850650B
:101C730090004BE0FD700404F08010ED12203F94BF
:101C830009EC648094805003021D5890004B74014A
:101C9300F0900005120604FDACF0D3E50B9DEC6457
:101CA30080F8E50A64809840068C0A8D0B800B74DB
:101CB30032250BF50BE4350AF50AD3121FEC400964
:101CC300121F8EF50D85F00C2274FA250DF50DE427
:101CD300350CF50C22E490004BF022E490004BF01D
:101CE30090004312201AEF4E70037480F09000436B
:101CF300E0547FF527301413FF3395E0FED3EF94C0
:101D030004EE648094804003023BC5AF27EF339514
:101D1300E0FED3EF9409EE648094804038D3E50D60
:101D230094EEE50C64809482400C7406250DF50D49
:101D330074FF350CF50CD3E50B94BEE50A6480946F
:101D43008A400C74E7250BF50B74FF350AF50A90EE
:101D530000437480F022E54A64037002F54AE54AC1
:101D6300146042147003021E09147003021E5024EF
:101D7300036003021E4DD207123C43E4F529F52A02
:101D830074A8252AF582743F3529F583E493FF125D
:101D930031CFEFF0052AE52A7002052964064529AB
:101DA30070DE021E48E4F529F52A1231CFE0FF1256
:101DB3003233400F12323D4018EF941FEE6480948B
:101DC30080500E052AE52A7002052964064529700C
:101DD300D9C3E52A9406E5296480948050231231FF
:101DE300CFE0F52DFF3395E0FE4F6006EF64064E1E
:101DF3007005C207123C43AF2D123633754A028079
:101E03004C754A03804775310075320075332D7B5D
:101E1300007A00792B122755EF4E6031AD2DAF2C90
:101E2300AE2B1215B7E4F529F52A1231CFE0B52D03
:101E3300061231CF74FEF0052AE52A7002052964E3
:101E430006452970E5754A018003E4F54A9000418F
:101E5300E06009E54A64036003021D59223011233F
:101E630090005DE0FF3395E0FEC3EF940CEE6480D9
:101E730094805005E004F0800AE490005DF0C2A471
:101E8300C2A522E567B40A004003021F61901E97B2
:101E9300F8282873021EB5021EC2021EC7021ECCFA
:101EA300021EBD021ECC021F07021F61021F070292
:101EB3001F07C2A4C2A5E4F56622D2A4D2A522C2FA
:101EC300A4D2A522D2A4C2A522C2A5E566547FFF4F
:101ED300AE67EE64037E0070027E03C3EE6480F897
:101EE300EF64809850090F536680EF4266800B12AF
:101EF3003D1E7F8060027F008F66123D1EC360011E
:101F0300D392A42253667FAF67EF64096007AF677C
:101F1300EF640870047F0680027F0AD3EF6480F8C1
:101F2300E5666480984008C2A5C2A4E4F56722E58B
:101F33006675F002120542AFF0EFC36001D392065B
:101F4300AF67EF64087003C38002A20692A4AF6771
:101F5300EF64087004A2068001C392A50566227F80
:101F6300CD7ECC7D2C7C4090002BE0F8A3E0F9A340
:101F7300E0FAA3E0FB020314900049E0FF3395E08D
:101F8300FED3EF9400EE6480948022900001AB10A6
:101F9300AA11A91202060475F004900049E0FD128B
:101FA3000542AFF0EF3395E0F5278F28D3E52822DC
:101FB30075F009ED12080DEC75F009A42583F5837E
:101FC300E49322AB10AA11A912020564C3E5099593
:101FD30029E5286480F8E50864809822AF26EF336A
:101FE30095E0FEEF22FFAEF0C3E50D9FEE6480F8AF
:101FF300E50C6480982290005AE0FCA3E0FDEC120B
:10200300039290000022E054C0F0C3ED9406EC6408
:1020130080948022900042E0FF3395E0FE22E0FFAF
:10202300543FF524FD3395E0FC4D22E5256403453B
:1020330024229401E5276480948022FD3395E0FCFB
:10204300C3ED22EDFF3395E04F228528088529094A
:102053002212387B6012AF65EF3395E0FEC3EF9435
:1020630003EE648094805006E4900058F022D390ED
:10207300004FE0940090004EE0648094805003028F
:102083002145900058E0540FF5247D8612385F6097
:10209300054003D38001C392067D0612385F400FCB
:1020A3007F9A7E997D997C40123870601740151293
:1020B300384E5007E5242402FF80027F088F24E472
:1020C300F525804FE4FFFE7D807C3E12387040088A
:1020D300A218300601B3501F12384E5006E52404EF
:1020E300FF80027F088F24A218300601B37F0150BE
:1020F300027F028F25801CAF24EF3395E0FED3EFE0
:102103009400EE648094804006E52414FF80027FEF
:10211300008F24E525C454F04524900058F012386C
:102123004E401FE0FF7804A2E713D8FB540F24FEB0
:1021330060070470087F0480067F0980027F031212
:102143003C9222900050E0600A200D0714F0E070EA
:1021530002D284AF65EF3395E0FEC3EF9403EE64E0
:102163008094805007E490004EF0A3F090004EE07E
:10217300FEA3E0FF90004CE06E7003A3E06F7003DA
:1021830002222890004CEEF0A3EFF0D39400EE640B
:102193008094805029122F466409600C90005112DC
:1021A30007DC00000000D20D90004CE0B4FF08A350
:1021B300E0B4FF03D38001C39281122F3322900036
:1021C3004CE0FEA3E0FFC394F4EE64809481502AB4
:1021D3008E288F29E4F52DF52C752B80752A3FFF6A
:1021E300FE7DFA7C43122229C2812084069000508E
:1021F30074FAF0D283C285D20D2290004CE0F52808
:10220300A3E0F529752DC3752CF5752B88752A3F29
:102213007F007E007D007C40122229D281D284C2BD
:1022230083D285D20D221228A79000511207D02203
:102233008B3D8A3E893F8F438E428D418C407FD5B3
:102243007E2C7D517C00D3123AFD4006123AF37F77
:10225300D822E47FE37E0AC3123AE65006123AF329
:102263007F7D227401123AF4E47FF57EF5D3123AAE
:10227300E64038E4F544F545AE44E5457802C3331A
:10228300CE33CED8F9244FF582743D3EF583120741
:10229300C0C3123AFD4006E54524D8FF220545E5B3
:1022A3004570020544644B454470CDE4F544F5455F
:1022B300E54525E0FFE54433FE747B2FF582743E4C
:1022C3003EF583E493FE740193FFE48F498E48F552
:1022D30047F546E549F549E548F548E4F547F54648
:1022E300AF43AE42AD41AC40AB49AA48A947A8466B
:1022F300D312079C5006E5452423FF220545E545F7
:1023030070020544645B454470A6123AF3FF22EF62
:1023130014603814605F1470030223A22403600363
:102323000223C9122AD240030223C930070EA8058B
:102333007401088002C333D8FC428022A8057401CB
:10234300088002C333D8FCF4528022122ABD50768F
:10235300122AC9407130070EA8057401088002C310
:1023630033D8FC429022A8057401088002C333D8F5
:10237300FCF4529022122A9C504C122ADB40473024
:10238300070EA8057401088002C333D8FC42A022BB
:10239300A8057401088002C333D8FCF452A022EDCF
:1023A300122AA0502130070EA8057401088002C329
:1023B30033D8FC42B022AF05A8077401088002C3DA
:1023C30033D8FCF452B02290004AE0B40700400333
:1023D30002247E9023DDF82828730223F20223FFD0
:1023E30002241A0224280224480224560224769046
:1023F3000049740BF0A37401F002247E121F9A1299
:1024030020354002805512204670709000497407B1
:10241300F0A37402F08064121F7B505F7423F0A357
:102423007403F0805675F00C121F9D94051220372B
:102433004002802712204670429000497407F0A39F
:102443007404F08036121F7B5031740BF0A37405B3
:10245300F08028121F9A1220354007121F8EFFAEFC
:10246300F02212204670149000497423F0A37406DE
:10247300F08008121F7B5003E4A3F0E4FEFF228EDA
:10248300308F31E4F536F537E531453070030225F9
:10249300370537E53770020536AE30AF31EE339589
:1024A300E0FDFCE47BA07A0FF9F812065B8F358E12
:1024B300348D338C32C006C007AE36AF37AB07AAB4
:1024C30006EA3395E0F9F8D007D0061206E68F3511
:1024D3008E348D338C32E47FFF7EFFFDFCAB35AA57
:1024E30034A933A832C312079C50A6C374FF953591
:1024F300F53574FF9534F534E49533F533E49532CB
:10250300F532AF35AE34AD33AC3278081207AD8F48
:102513008CE535FF8F8AC20A438810E58820E503DE
:10252300300AF85388CFE537153770021536E5378B
:10253300453670CE228B348A3589368F3A8E398D63
:10254300388C37E4F53BF543F542F541F540AB3ABA
:10255300AA39A938A83712380150030225EAAB3447
:10256300AA35A93685438285428312057D623BE401
:10257300753F08F53EF53DF53CAB3FAA3EA93DA8A6
:102583003C123801402DE53B30E70825E06407F5B0
:102593003B8006E53B25E0F53B74FF253FF53FE532
:1025A3003E34FFF53EE53D34FFF53DE53C34FFF5B4
:1025B3003C80C6E4FAF9F8E5432401F543EA3542E1
:1025C300F542E93541F541E83540F54074FF253AD8
:1025D300F53AE53934FFF539E53834FFF538E537B1
:1025E30034FFF537022551AF3B22E4F526F527F5F5
:1025F30028FB7A0079267D047F02120C9E7F01124C
:1026030026957B007A0079267D01E4FF120C9E7FDC
:10261300031226957B017D027F021232BB7B017D73
:10262300017F031232BB7B017D037F011232BB7B2F
:1026330001E4FDFF1232BB752603E4F5277528017B
:10264300FBFD7F031232BB7B007A0079267D017F7D
:1026530003120C9ED207E4FD7F0312231275DF40A1
:1026630075DE60E4F5E9F5D1F5D375D50F75D4FFC3
:1026730090F69274A0F0E4F54A9000391207DC005A
:1026830000000012320CF0A3F0A304F043DE80023A
:102693003D4C7B007A0079267D02120C9E22200D90
:1026A30003022754300F1990F129E06003022754E5
:1026B3007F01300E01FF90F164EFF0C20DC20F22D3
:1026C300E4FFFE7DC87C42123CF7120314600C4009
:1026D3000A9000511207DC42C80000E4FFFEFDFC33
:1026E300123CF7120314500A9000511207DC000049
:1026F3000000AF27AE26AD25AC24EC4D4E4FC36092
:1027030001D3920E7F007E807DBB7C45123CF71285
:10271300016EE4FBFA798078BF12007D8F278E2645
:102723008D258C24E4FBFA79C878421202778F272F
:102733008E268D258C241203CBAD07AC06ECFFEF60
:1027430090F141F0ED90F140F0D20F90F129740136
:10275300F0228B2E8A2F8930E5DF30E10280509002
:10276300003EE004F0700690003DE004F090003974
:10277300E0F8A3E0F9A3E0FAA3E0FBAFDDEFFEADE1
:10278300DCEDFFEE3395E0FDFCEB2FFFEA3EFEE9C7
:102793003DFDE83CFC9000391207D0C390003EE0B9
:1027A300940A90003DE064809480500743DF02E484
:1027B300FEFF22900039E0FCA3E0FDA3E0FEA3E0CE
:1027C300FFE47B0AFAF9F81237149000391207D0A4
:1027D300900039A3A3E0FFA3E0AB2EAA2FA930CF2B
:1027E3008FF012063C90003FE0AB31AA32A93312BE
:1027F30005AAE4900040F0FE7F01228560248561F4
:1028030025D3E5259478123CA8500AC3E525940CFA
:10281300123CA850057F08023C92C3123CA450030B
:10282300C38001D39218D3E5259446123CA84019DE
:10283300D3E5259450123CA87F0240027F03123C4B
:10284300AF743AF0A37498F022D3E5259432123C86
:10285300A84019D3E525943C123CA87F0240027F8F
:1028630003123CAF7446F0A37450F022D3123CA47D
:102873004019D3E5259428123CA87F0240027F0328
:10288300123CAF7427F0A37410F022D3E5259414FF
:10289300123CA87F0240027F03123CAF744EF0A3A8
:1028A3007420F0228F278E268D258C24AC28AD2909
:1028B300EC120392AB27AA26A925A824122EF9E429
:1028C300FBFA797A7844120277122EFC7B9D7A699F
:1028D300795C783C120277122EFCAB2DAA2CA92B23
:1028E300A82A122EF9C004C005C006C007E4FFFEE3
:1028F3007D7A7C44AB5BAA5AA959A858122F3AD0C7
:1029030007D006D005D004120277122EFCE4FBFA9E
:1029130079C87842122EF9E4FFFE7DC87C42122F5B
:1029230018600D400BE4F531F530752FC8752E4254
:10293300E4FFFEFDFC122F185009E4F531F530F5E4
:102943002FF52EAF31AE30AD2FAC2E22E4F5DE9055
:10295300F692F090004104F0E4F54AFFEFFD339561
:10296300E0FCC3ED9406EC648094805015EF33953E
:10297300E0FC74332DF58274003CF58374FEF00F94
:1029830080DA9000391207DC0000000012320CF0EC
:10299300A3F0FB7D017F031232BBE4FB7D037F01C8
:1029A3001232BB752603E4F527F528FB7A00792656
:1029B3007D027F03120C9E7D087F011229EC7D04AA
:1029C3007F021229ECC2077D027F02122312C20783
:1029D3007D017F03122312C2077D037F011223129D
:1029E300C207E4FD7F030223127B007A00792612DB
:1029F3000C9E22123D4C7F9A7E997D39121ABF504C
:102A03000890001F7403F080277FCD7ECC7D4C128D
:102A13001ABF500890001F7402F080147466FFFE02
:102A2300FD121ABF5005121B368005E490001FF0FB
:102A3300C213C214121A801207DC00000000AF5345
:102A4300AE52AD51AC5090002B1207D0121AE7E4EE
:102A530090001EF0121AFE703FF524F525900059E0
:102A6300E0FF3395E0FEC3E5259FEE6480F8E5249F
:102A730064809850167F041239FD7FA07E001224D3
:102A8300820525E52570D6052480D27F907E01122C
:102A9300248290002A740CF022EDFF7E00D394066A
:102AA3007480948022EDF4F58275830085832A85F2
:102AB300822B85832C85822DED22EDFF7E00D3941E
:102AC300077480948022C3EF94037480948022ED72
:102AD300D394057480948022C3EF9401748094800E
:102AE30022FBE434F0FAA80574010822F4F5827598
:102AF300830085832E85822F85833022A3E0FBE527
:102B03002F4BFD22A3E0FBE5314BFD22E0FBE52D3E
:102B13004BFD22E0FBE52D5BFD22E0FBE52F5BFD9A
:102B230022E0FBE5315BFD22A3E0FBE5334BFD2215
:102B3300A3E0FBEF4BFD22E0FBE5335BFD227D08C9
:102B43007F0212394D404F90005CE025E0F030A346
:102B530006E04401F0800790005CE054FEF0900032
:102B63005CE0FF540FFEFD7C00640F6003EF7026F2
:102B7300E4F5B4ED640F4CD37001C39215AF06EFC7
:102B8300640F7B0170027B027D037F0212357D7D22
:102B9300087F02123BA7301508E51630E7037516C8
:102BA30080301527E51564857021120003D3EF9457
:102BB30000EE648094804005123C15800BE4F51907
:102BC300F51B751801751701E4F515201513E516A6
:102BD3006484700DF516E5177004751A0122E4F587
:102BE30017228F2EEF64017003022C7AD209123C54
:102BF300B6752F027530007F11122C7BAF32123B5A
:102C0300FC401D123C0B5018E53214F5310530E53C
:102C1300307002052FC394FCE52F6480948340D762
:102C2300AF2EEF6408600AEF64096005EF640A7071
:102C330011AF31EF3395E04F600585312E80037579
:102C43002E04E531B52E028029E530B4FC10E52FC2
:102C5300B4030B752F027530007F1D122C7BE52EFC
:102C630004F5327B007A007932AD30AC2F7F191234
:102C7300391EC209123CB6227B007A007932AD308C
:102C8300AC2F12391E2278FFE4F6D8FD9000007FA6
:102C9300007E04E4F0A3DFFCDEFA75816A022CDE19
:102CA30002305DE493A3F8E493A34003F68001F2BA
:102CB30008DFF48029E493A3F85407240CC8C33332
:102CC300C4540F4420C8834004F456800146F6DF01
:102CD300E4800B01020408102040809034C3E47E9A
:102CE300019360BCA3FF543F30E509541FFEE493F6
:102CF300A360010ECF54C025E060A840B8E493A3BD
:102D0300FAE493A3F8E493A3C8C582C8CAC583CAE7
:102D1300F0A3C8C582C8CAC583CADFE9DEE780BE9F
:102D2300EF14602214603C14605624037074122A5A
:102D3300D24002806DED2480122AE48002C333D88E
:102D4300FC55ACFC8060122ABD5005122AC9500202
:102D53008050ED2488122AE48002C333D8FC55AD99
:102D6300FC8043122A9C5005122ADB50028033ED6B
:102D73002490122AE48002C333D8FC55AEFC80268B
:102D8300ED122AA04002801AED2498FBE434F0FAF5
:102D9300AF05A8077401088002C333D8FC55AFFC04
:102DA3008004E4FEFF22EC7003FEFF228B828A8301
:102DB300E05403FF7E002290001EE0700BAB10AACC
:102DC30011A912120564600775130075142822D324
:102DD300E5149400E513648094804009E514151408
:102DE300700215132290F500E4F0C2061239A543D0
:102DF3008704438702123C58D207123A76123B2AC1
:102E03007F017E00122482122B41123C6D50F1D2BD
:102E1300061239A5E4F524F525123D4C120F6B304B
:102E230014130525E52570020524C39403E52464E2
:102E330080948040E4E525640345247005F513750B
:102E4300140FE4900041F022AB10AA11A91212054D
:102E53006460046401701190F508E4F090F500E0FB
:102E6300547FF0E4F5648036AF64EF3395E0FEC33E
:102E7300EF9403EE64809480500405648020EF6433
:102E8300034E701A90F500E04480F07F147E001228
:102E9300248290F509E4F090F50804F00564AF6529
:102EA300EF3395E0FEC3EF9402EE64809480500309
:102EB300056522EF64024E7018056590005EE0FF21
:102EC3003395E0FED3EF9400EE648094804002D209
:102ED3001622900014E0FCA3E0FDA3E0FEA3E0FFB4
:102EE300222400F58274003EF583E0F8A3E0F9A301
:102EF300E0FAA3E0FB2212016E8F318E308D2F8C0E
:102F03002E22AE26E527780222D3E5259400E52478
:102F13006480948022AB31AA30A92FA82E02031417
:102F2300E490004EF0A3F090004CF0A3F022C28195
:102F3300C284C283C2852212016EA804A905AA060F
:102F4300AB0722AB10AA11A9120205642400F58273
:102F530074003EF58322752603E4F527752801C224
:102F6300077D02FF1223127B007A0079267D04E499
:102F7300FF120C9E7B127D02E4FF1232BB90F12004
:102F8300E4F0A304F090F123F090F12A74FFF090A1
:102F9300F122E4F090F12704F0A3F090F160E4F063
:102FA30090F165F090F16404F090F1317417F090B2
:102FB300F130746FF090F141E4F090F140F0900043
:102FC300511207DC00000000C20FC20D90F166E44D
:102FD300F090F12604F0023D06121F7B4003E0143B
:102FE300F0122017C3EF9418EE648094805003E02E
:102FF30004F090004B121F7E400DEF9409EE6480A5
:1030030094805003E004F0AF0FEF3395E0FEC3EF7D
:103013009420EE648094805002050FAF0EEF121FD0
:10302300804002150E900044121F7E4003E014F00E
:10303300900043E0FF30E71C547FFEEF5480F0EE36
:1030430012203E940AEC6480948050010E90004359
:10305300E04EF022E4900043F022123C58D20712D3
:103063003A76123A261225ED12002E1227FE123559
:10307300211236CA123B88122F59123814123464A3
:103083001211A61229F612000EE4900041F0123D2F
:103093004C122B411238B9120F6B12086E12175FC4
:1030A3001221461226A1300BE5C20B123CD7122E79
:1030B3004B12004E122FDC123247123758122DBA20
:1030C300AF65EF3395E0FED3EF9402EE6480948016
:1030D3004003121E6012205480B4D209123CB62061
:1030E300081CE4F52AF52B742C1237F67F111239DC
:1030F3001E052BE52B7002052A12380A40E98508C4
:10310300308509317F003002027F018F327A0079E6
:10311300301237EB1225388F33200807E533B52FEC
:1031230002802A7B007A00792CE4FDFC7F1D123992
:103133001EE4F52AF52B74301237F67F1912391E67
:10314300052BE52B7002052A12380A40E9C2091241
:103153003CB622900055E0FEA3E0FFC39405EE6465
:10316300809480501AEE7015EF14600B14600C24D9
:103173000270557567012275670422804580499066
:103183000046E0FF7E007C007D061205BCEF2405AF
:10319300FFE43EFE900055E0FCA3E0FDC39FEE6418
:1031A30080F8EC6480985020ED24FBFFEC34FFFEA4
:1031B3007C007D031205CE7C007D021205CEED4C12
:1031C3007004756702228000E4F567227433252AB0
:1031D300F58274003529F58322E4FFFE7C43AB3C82
:1031E300AA3BA93AA8392275313EAB34AA33A93296
:1031F300A831AF3CAE3BAD3AAC390202771202774D
:103203008F388E378D368C3522E490003DF0A3F055
:10321300A322AF5BAE5AAD59AC58227BCD7ACC79A1
:10322300CC783D020079E4FFFE7D407C400203142C
:103233003395E0FEC36480948022D3EF9416EE644A
:1032430080948022123D315005121FC67007E4900E
:103253000047F080299000471220217007EF20E6F5
:10326300034480F09000471220095008E020E60450
:1032730005248003E4F524900047E04524F0123D43
:10328300385005121FC67006E4900048F0229000E3
:10329300481220217007EF20E6034480F090004895
:1032A3001220095008E020E60405248003E4F524F5
:1032B300900048E04524F022EBF5826402606AE561
:1032C3008264036064E5826419605ED3E582941CC2
:1032D300748094805053EF14601414602014602F92
:1032E30024037045122AD25040ED2400802A122A6A
:1032F300BD5036122AC94031ED2410800D122A9C8C
:103303005027122ADB4022ED2420F52AEE800CED13
:10331300122AA05014ED2430F52AE434F0F529EBF9
:10332300541F852A82852983F0228F2A121FC6F50E
:103333002DE4F52BF52C903F3175F009E52C12089F
:103343000DE52B121FBB652A703390004AF0AE2B9C
:10335300AF2CFC7D091205BC74312FF9743F3E7507
:1033630010FFF5118912E52D700AE52A6006FF1298
:103373002BE58005E4900042F0E4FEFF22052CE5F6
:103383002C7002052BC3940BE52B6480948040A61C
:103393007E007F01227D037F02122D23EF64014E05
:1033A3007034C215E515547FFFE4F515E517700475
:1033B300E51B6007E4F51BF5178033EFC394055055
:1033C3002D120003C3EF940AEE648094805002052B
:1033D300197516808018D215751300751428E51613
:1033E30030E703751680E51520E7037515807D0822
:1033F3007F02123AC490005C740AF0228D272013D6
:1034030009201406E4900043F022900043E0FD33CA
:1034130095E0FCED4C70037480F0900043E0547F22
:10342300F5282014057529098003752902EF601812
:10343300301415AF28EF3395E0FEC3EF9403EE6429
:103443008094804003023BC5D3E5296480F8E528D6
:10345300648098400B9000437480F0AF2712332DA3
:1034630022E4F527D209123CB67524027525007BA8
:10347300007A007926AD25AC247F1112391EAF26C0
:10348300123BFC401D123C0B5018E52614F5270592
:1034930025E52570020524C394FCE5246480948308
:1034A30040CDAF27EF6408600AEF64096005EF645D
:1034B3000A7003752704AF2712332DC209023CB6E5
:1034C300C10BC10AC10CC11501660041005D004179
:1034D30000500041005E00016400C1160163FF015A
:1034E300650341002A0042001C0000021C00000288
:1034F3001E0000C111C110C112C117C10541004313
:103503000041004700410044004100480041004998
:10351300004100421941004B00C100C10100E4F524
:103523000EFFEF12203E940BEC64809480502C909D
:103533003F31121FB36402701FEF3395E0FC903FDD
:1035430036121FB3F50A740193F50B903F32121F25
:10355300B3F50C740193F50D0F80C71235D8E490C1
:10356300004AF09000457404F0E4A3F07510FF7571
:10357300113F751231C203C20422EBD3122ACB507E
:1035830053EF14601414602014602F240370451249
:103593002AD25040ED2480802A122ABD5036122AA6
:1035A300C94031ED2488800D122A9C5027122ADB52
:1035B3004022ED2490F528EE800CED122AA0501441
:1035C300ED2498F528E434F0F527EB54038528829D
:1035D300852783F022D209123CB6E4F524F525743D
:1035E300262525F9E4FAFBAD25AC247F1112391EFB
:1035F3000525E52570020524C39404E5246480941D
:103603008040DCC209123CB67A0079261237EB12ED
:103613002538EFB5290F852608852709E528C360D6
:1036230001D39202221239D1C202D2081230DD2212
:10363300AB077AFF900040E07041EB123233403B1E
:1036430012323D400AEF941FEE64809480402C9028
:1036530000391207DC0000000012320CEBF0A374F7
:1036630001F0EB30E40543DF80800353DF7F53DE5B
:10367300F0EB540F42DEDAFE43DF0222C0E0C0F07B
:10368300C083C082C0D075D000C000C001C002C0DA
:1036930003C004C005C006C00775C9001568B20C95
:1036A300E5687008756804D20B1238ECD007D006B1
:1036B300D005D004D003D002D001D000D0D0D08226
:1036C300D083D0F0D0E032752401E4F525F526FB54
:1036D3007D037F021232BB7B007A0079247D087F51
:1036E30002120C9E7D087F02123BA77B027D037FA3
:1036F3000212357D43B90475130075142890005CDC
:1037030074FFF0E4F515F516F518F519F51AF51B20
:1037130022C2D5E830E70FB2D5E4C39BFBE49AFAA3
:10372300E499F9E498F8EC30E717B2D512374A1266
:1037330006E6E4C39BFBE49AFAE499F9E498F8807B
:10374300031206E630D50DE4C39FFFE49EFEE49D1D
:10375300FDE49CFC22900046E0FF7E007005900093
:10376300558030900056E004F07006900055E00458
:10377300F07C007D061205BCEF240FFFE43EFEC380
:10378300900056E09FEE6480F8900055E0648098C6
:103793004004E4F0A3F022C0E0C0F0C083C082C0C4
:1037A300D075D000C000C001C002C003C004C00572
:1037B300C006C00712339875B600D007D006D005EF
:1037C300D004D003D002D001D000D0D0D082D08397
:1037D300D0F0D0E03275F009EF12080DEE75F00964
:1037E300A42583F583E493227B007F037E007D0081
:1037F3007C0022252BF9E4FAFBAD2BAC2A22E4FF53
:10380300FEFDFCD3020786C39404E52A64809480FA
:1038130022752603752701752801122F317D0212A7
:10382300383C7D10E4FF120C9E7D0812383C7D204D
:10383300E4FF120C9E122F23227B007A007926E4E8
:10384300FF120C9E7B007A00792622AF24EF33957A
:10385300E0FEC3EF9408EE64809480227F667E6668
:103863007C40AB4FAA4EA94DA84C020314AB5FAAF0
:103873005EA95DA85C020314AB10AA11A91202058C
:1038830064D3EF9DEC6480F8EE648098400280047A
:10389300AE04AF058E278F28E528640245277008FC
:1038A3002010057F0812332DE52864034527700592
:1038B3007F0912332D22E563702E7F057E001224CB
:1038C30082E56325E0F56390F501E030E7020563E7
:1038D300AF63EFF470E490F166F090F12604F0909A
:1038E300005EE004F0E4F56522E51530E711547F4E
:1038F300FFC3940550010F531580EF42158003E475
:10390300F515E51630E710547FFFC3940450010FFB
:10391300531680EF421622E4F516228F34EF641912
:103923007005120564F5FEEDF5FCECFFEFF5FD0007
:103933008534FF000000000000E5FF20E0FBE534D4
:1039430064117005E5FE1205AA22EF1460111460DC
:10395300151460192403701CE5AC5D6017D322E5D0
:10396300AD5D6010D322E5AE5D6009D322E5AF5DA6
:103973006002D322C3227B007A8079BB12007D8F41
:10398300308E2F8D2E8C2D22AB2CAA2BA92AA82961
:1039930022AF4BEF3395E0FE228F2C8E2B8D2A8C9A
:1039A3002922300617123A261225ED122F59123802
:1039B30014E490001EF012000E023B88123CC7C2B2
:1039C30007123A76123B6912294F123D3F227508BE
:1039D30003750920E4FFFE903F311237D86402706B
:1039E3000D903F341237D8F508740193F5090FBFD2
:1039F30000010EEF640B4E70DE22EF24FE600E24F6
:103A0300FE601024037010C2A4D2A5800AD2A4C2FF
:103A1300A58004D2A4D2A57F147E00122482C2A45E
:103A2300C2A522752603E4F527752801C2A4C2A501
:103A3300FB7D10123A447B007D20123A44E4F56783
:103A4300227A0079267F02120C9E22A90790004752
:103A5300E0FE5480FB3395E04B700BED3395E0FCB7
:103A6300ED64014C700CEE547F900047F0AF0112EF
:103A7300332D22E4200706F5C853A8DF22F5CE75BF
:103A8300CB0B75CADB75CD5D75CC6643A820F5C934
:103A930075CF8075680475C89122C0E0C083C08269
:103AA3005380DF5380F75380FD5380EF53A0EF53D0
:103AB300A0DF75630090F509E4F0D082D083D0E0F5
:103AC30032EF14600F14601114601324037013EDAC
:103AD300F452AC22EDF452AD22EDF452AE22EDF4E9
:103AE30052AF22FDFCAB43AA42A941A84002079C66
:103AF300E4AB3DAA3EA93F0205AAAB43AA42A941B2
:103B0300A84002079C90F1417401F07F0030060247
:103B13007FFF90F140EFF0123D067F01300E027FF0
:103B23000090F164EFF0227D087F02123AC4900006
:103B33005C74AAF0D215E51630E703751680E51517
:103B430020E70375158022E5177004E51B6004E484
:103B5300FEFF22E51A7003FEFF2212000330070561
:103B6300E4F51AF51922E4FB7D02FF1232BBC2070A
:103B73007D02E4FF12231290F121E4F090F126F08C
:103B830090F123F02290F5007409F090F502741976
:103B9300F090F50CE4F090F5067438F0A37405F09A
:103BA30075B98022EF14600E14600F1460102403A3
:103BB300700FED42AC22ED42AD22ED42AE22ED425A
:103BC300AF22121FC6FF601790000712057D600524
:103BD300900045EFF0E4FF12332DE4FF122BE522B2
:103BE300C2AF007596AA75965585976A00D2AFE560
:103BF3006A30E203D38001C322EF3395E0FEC3EFC3
:103C03009401EE6480948022D3EF940BEE6480944D
:103C13008022E4F516F51AF519F517F518EF640186
:103C23004E7F0070027F018F1B22900048E0FE54FC
:103C330080FD3395E04D6007EE547FF012332D2263
:103C430053DE7F007F002007027FA090F692EFF003
:103C53000043DE80225388CF5389F0438901E4F582
:103C63008CF58A75A80243A88022E5186002D32246
:103C7300E51A6002D322E51BC36001D322EF64017E
:103C83004E700B200405123D314003123BC52290B8
:103C93000046EFF012387B640160057F0112332D7B
:103CA30022E525941EE5246480948022900059EF38
:103CB300F0A322300907C2AF0075FBAA2275FB559A
:103CC30000D2AF22C2AF007596AA7596555397FDE1
:103CD30000D2AF22C2AF007596AA759655439701DD
:103CE30000D2AF222016037F002290005EE0FFE4A3
:103CF300F0C21622900051E0F8A3E0F9A3E0FAA382
:103D0300E0FB2290F1297401F090F129E070FA228E
:103D1300E5187002C322E4F518D322E5665480FF48
:103D23003395E04F2290001EE0700204F022E51765
:103D3300C36001D322E51BC36001D322122F2312D8
:103D43002F31225388EFD20A32021D5900512CD54C
:103D5300004B18690045845700406521003BB06261
:103D630000375CB60033619B002FB760002C570708
:103D730000293A3D00265B410023B4DC0021424D7B
:103D8300001EFF45001CE7D5001AF86900192DBE77
:103D9300001784DA0015FB0600148DC700133ADA06
:103DA3000012002B0010DBD6000FCC1E000ECF6CD0
:103DB300000DE44B000D0965000C3D80000B7F7C7A
:103DC300000ACE50000A290700098EC30008FEB579
:103DD3000008781F0007FA52000784AE0007169DFB
:103DE3000006AF9700064F1C0005F4B800059FFEC0
:103DF3000005508B000506020004C00D00047E5D23
:103E0300000440A9000406AC0003D02700039CE192
:103E130000036CA100033F37000314720002EC2877
:103E23000002C62F0002A2630002809F000260C34B
:103E3300000242B10002264C00020B7B0001F22378
:103E43000001DA2E0001C3870001AE19000199D2E7
:103E5300000186A0000174720001633A000152EA76
:103E630000014372000134C8000126DF000119ACD0
:103E730000010D2500010141F5F5EB3AE107D755A6
:103E8300CE1DC558BD00B50EAD7FA64C9F7098E7FB
:103E930092AC8CBB871181AA7C82779772E46E67A0
:103EA3006A1E6606621C5E5F5ACB575F541950F850
:103EB3004DF84B1A485A45B8433340C83E773C3E09
:103EC3003A1D3812361D343B326D30B22F082D6F38
:103ED3002BE62A6C290127A42655251323DD22B2BC
:103EE3002193207F1F751E751D7E1C901BAC1ACF5E
:103EF30019FB192E186917AA16F31642159714F20F
:103F0300145313B913251296120C11861105108838
:103F130010100F9B0F2B0EBE0E550DEF0D8C0D2D9C
:103F23000CD10C780C210BCE0B7D0B2E0AE3000079
:103F3300000000000001000100000000000000007C
:103F430003000F00000AF0000004032000000B54DC
:103F530001000505DC00000BB80100060BB80000EA
:103F63000BEA0101071D4C00000C1C0101084E2047
:103F730000000C800001092EE000000BB8000102D4
:103F83001D4C03200C1C00010A2EE000000BB8009E
:103F9300010000000000000000000000000000001D
:0B3FA30000000000001F0D080E0006CB
:00000001FF
