:03000000022EBE0F
:102EBE0078FFE4F6D8FD9000007F007E04E4F0A3D6
:0A2ECE00DFFCDEFA758163022F13AA
:1033D200123EDED207123D66123D8D123D3E122E86
:1033E20020123E171236351238ED123113123B2AD3
:1033F2001211E712223112350D12000EE490004034
:10340200F0120048122C2B120F571208461217F70F
:10341200122054122680300CE8C20C123F3D123AA0
:1034220078121F5C1233661232131239781239BACB
:0B3432001228B512374E12308780C6FA
:03004B00023A3A3C
:103A3A00C0E0C0F0C083C082C0D075D000C000C052
:103A4A0001C002C003C004C005C006C0071234A6E4
:103A5A0075B600D007D006D005D004D003D002D066
:0E3A6A0001D000D0D0D082D083D0F0D0E03296
:102D7B00EDFF7E00D394067480948022EDF4F582EF
:102D8B0075830085832985822A85832B85822CED8B
:102D9B0022EDFF7E00D394077480948022C3EF94BE
:102DAB00037480948022EDD394057480948022C3A5
:102DBB00EF94017480948022FBE434F0FAA805743C
:102DCB00010822F4F58275830085832D85822E857B
:102DDB00832F22A3E0FBE52E4BFD22A3E0FBE53086
:102DEB004BFD22E0FBE52C4BFD22E0FBE52C5BFDD4
:102DFB0022E0FBE52E5BFD22E0FBE5305BFD22A331
:102E0B00E0FBE5324BFD22A3E0FBEF4BFD22E0FBA9
:052E1B00E5325BFD2221
:020C8A008F28B1
:100C8C0012053CFF14601514602814603D14603A82
:100C9C002404705C122D87122DCE8029122D87F51D
:100CAC00827401F52D85822EE582F4F582752F0074
:100CBC008013122D87F4F582752D0085822EEDF5AB
:100CCC00827401F52F8582308026ED122DCE85821F
:100CDC0030EDF5827401F52985822AEF64047007E2
:100CEC00EDFF7401FE8005EDF4FF7E008E2B8F2C42
:100CFC009000011205557007EDFF7401FE8005EDA3
:100D0C00F4FF7E008E318F32900002120555700771
:100D1C00EDFF7401FE8005EDF4FF7E00E5281470F4
:100D2C0003020DC6147003020E49147003020ECC9C
:100D3C0024036003020F56E529AB9A30E006E52A3E
:100D4C004BFD8004E52A5BFD8D9AE52B30E0089085
:100D5C00F009122DEE800690F009122DF590F00995
:100D6C00EDF0E52D30E005122DDE800690F00A1234
:100D7C002DFC90F00AEDF0E52F30E005122DE68009
:100D8C000690F00B122E0390F00BEDF0EE30E00518
:100D9C00122E12800890F00CE0FBEF5BFD90F00C33
:100DAC00EDF0E53130E005122E0A800690F00D12C0
:100DBC002E19AF0590F00DEDF022E529ABA130E036
:100DCC0006E52A4BFD8004E52A5BFD8DA1E52B3061
:100DDC00E00890F019122DEE800690F019122DF506
:100DEC0090F019EDF0E52D30E005122DDE80069027
:100DFC00F01A122DFC90F01AEDF0E52F30E00512F0
:100E0C002DE6800690F01B122E0390F01BEDF0EEF9
:100E1C0030E005122E12800890F01CE0FBEF5BFD19
:100E2C0090F01CEDF0E53130E005122E0A800690B2
:100E3C00F01D122E19AF0590F01DEDF022E529AB37
:100E4C00A230E006E52A4BFD8004E52A5BFD8DA26D
:100E5C00E52B30E00890F029122DEE800690F02959
:100E6C00122DF590F029EDF0E52D30E005122DDE78
:100E7C00800690F02A122DFC90F02AEDF0E52F3030
:100E8C00E005122DE6800690F02B122E0390F02B2D
:100E9C00EDF0EE30E005122E12800890F02CE0FB05
:100EAC00EF5BFD90F02CEDF0E53130E005122E0AF1
:100EBC00800690F02D122E19AF0590F02DEDF0223A
:100ECC00E529ABA330E006E52A4BFD8004E52A5B5F
:100EDC00FD8DA3E52B30E00890F039122DEE800645
:100EEC0090F039122DF590F039EDF0E52D30E0054C
:100EFC00122DDE800690F03A122DFC90F03AEDF0B7
:100F0C00E52F30E005122DE6800690F03B122E0303
:100F1C0090F03BEDF0EE30E008A3E0FDEF4DFF80EC
:100F2C000890F03CE0FDEF5DFF90F03CEFF0E53118
:100F3C0030E009A3E0FDE5324DFF800990F03DE083
:0A0F4C00FDE5325DFF90F03DEFF08F
:010F56002278
:103E7700EF14600E14600F1460102403700FED42EE
:0E3E8700AC22ED42AD22ED42AE22ED42AF2262
:103C9000EF1460111460151460192403701CE5AC56
:103CA0005D6017D322E5AD5D6010D322E5AE5D60A7
:0C3CB00009D322E5AF5D6002D322C322DD
:103DD300EF14600F14601114601324037013EDF4D7
:103DE30052AC22EDF452AD22EDF452AE22EDF45278
:023DF300AF22FD
:1027FD00EF14603814605F14700302288D24036099
:10280D00030228B4122DB140030228B430070EA8DC
:10281D00057401088002C333D8FC428022A80574D8
:10282D0001088002C333D8FCF4528022122D9C5033
:10283D0076122DA8407130070EA80574010880028C
:10284D00C333D8FC429022A8057401088002C3331B
:10285D00D8FCF4529022122D7B504C122DBA4047C9
:10286D0030070EA8057401088002C333D8FC42A0BE
:10287D0022A8057401088002C333D8FCF452A022AB
:10288D00ED122D7F502130070EA80574010880022E
:10289D00C333D8FC42B022AF05A8077401088002EB
:0828AD00C333D8FCF452B02241
:1036F300EBD3122DAA5053EF1460141460201460FE
:103703002F24037045122DB15040ED2480802A12DE
:103713002D9C5036122DA84031ED2488800D122D9A
:103723007B5027122DBA4022ED2490F527EE800C12
:10373300ED122D7F5014ED2498F527E434F0F5268F
:0A374300EB5403852782852683F0EE
:01374D002259
:102F5800EF14602414603E14605824037076122D18
:102F6800B14003022FDCED2480122DC38002C3334D
:102F7800D8FC55ACFC022FE0122D9C5005122DA850
:102F880050028050ED2488122DC38002C333D8FC30
:102F980055ADFC8043122D7B5005122DBA5002808E
:102FA80033ED2490122DC38002C333D8FC55AEFCF8
:102FB8008026ED122D7F4002801AED2498FBE43420
:102FC800F0FAAF05A8077401088002C333D8FC558E
:102FD800AFFC8004E4FEFF22EC7003FEFF228B822C
:082FE8008A83E05403FF7E0020
:012FF00022BE
:10328700EBF5826402606AE58264036064E5826448
:1032970019605ED3E582941C748094805053EF14B8
:1032A700601414602014602F24037045122DB15050
:1032B70040ED2400802A122D9C5036122DA8403153
:1032C700ED2410800D122D7B5027122DBA4022EDD0
:1032D7002420F529EE800CED122D7F5014ED2430BB
:1032E700F529E434F0F528EB541F852982852883D6
:0132F700F0E6
:0132F80022B3
:043FC6001F0D0006C5
:1036950074342529F58274003528F5832275303E6A
:1036A500AB33AA32A931A830AF3BAE3AAD39AC380D
:1036B50002024FE490003CF0A3F0A3228F378E3630
:1036C5008D358C34227BCD7ACC79CC783D02005176
:1036D500E4FFFE7D407C400202EC3395E0FEC364CE
:0E36E50080948022D3EF9416EE6480948022AD
:10385300AB0790003FE07046EB1236DF4040123674
:10386300E9400AEF941FEE64809480403190003861
:103873001207B4000000001236B8EBF0A37401F095
:10388300EB30E40543DF80800353DF7F53DEF0EB4F
:0F389300540F42DE7F967E001239FB43DF022284
:102B82008B2D8A2E892FE5DF30E102805090003DA7
:102B9200E004F0700690003CE004F0900038E0F8A9
:102BA200A3E0F9A3E0FAA3E0FBAFDDEFFEADDCEDBD
:102BB200FFEE3395E0FDFCEB2FFFEA3EFEE93DFD23
:102BC200E83CFC9000381207A8C390003DE0940A4C
:102BD20090003CE064809480500743DF02E4FEFFF3
:102BE20022900038E0FCA3E0FDA3E0FEA3E0FFE4B6
:102BF2007B0AFAF9F81239349000381207A89000CB
:102C020038A3A3E0FFA3E0AB2DAA2EA92FCF8FF00C
:102C120012061490003EE0AB30AA31A932120582AE
:092C2200E490003FF0FE7F012266
:103EC70053DE7F002007047FA080027F0090F692D8
:073ED700EFF00043DE802242
:06199E008E2D8F2E8D2F0F
:1019A40090F692E030E708E4FFFEFD7C408008AF4B
:1019B40019AE18AD17AC161236C1AC2DAD2EEC1203
:1019C400036AC004C005C006C007E4FBFA79807846
:1019D40045AF37AE36AD35AC3412024FD003D0022A
:1019E400D001D0001201468F3B8E3A8D398C38E5F8
:1019F4002F604124FA7003021A9024F97003021A2A
:101A0400C524EE6003021B1BAC2DAD2EEC12036A41
:101A1400A804A905AA06AB077F9A7E997D997C45FF
:101A240012024F8F338E328D318C308F198E188D78
:101A3400178C16227533357532487531031236A268
:101A44008F158E148D138C12AB15AA14A913A8121A
:101A54001236D55013AF15AE14AD13AC121236CAEC
:101A64008F158E148D138C12900020E0FC12036FDE
:101A7400A804A905AA06AB07AF15AE14AD13AC12A2
:101A840012024F8F118E108D0F8C0E2275332D750F
:101A940032A67531331236A28F0D8E0C8D0B8C0A43
:101AA400AB0DAA0CA90BA80A1236D5506AAF0DAE1D
:101AB4000CAD0BAC0A1236CA8F0D8E0C8D0B8C0A32
:101AC40022AB3BAA3AA939A838AF19AE18AD17AC66
:101AD40016120051C004C005C006C007E4FFFE7D15
:101AE400A57C43AB3BAA3AA939A838120146D003D6
:101AF400D002D001D00012024F1236C1E4FBFA79B1
:101B04007A78441201461236C11203A37B007A008C
:071B1400791A1223FA8F0970
:011B1B0022A7
:101E5500E50864037002F508E50814604214700390
:101E6500021F05147003021F4C24036003021F495F
:101E7500D207123EC7E4F528F52974C62529F5824F
:101E8500743F3528F583E493FF123695EFF0052965
:101E9500E529700205286404452870DE021F44E424
:101EA500F528F529123695E0FF1236DF400F123678
:101EB500E94018EF941FEE64809480500E0529E5E3
:101EC50029700205286404452870D9C3E5299404BE
:101ED500E528648094805023123695E0F52CFF3375
:101EE50095E0FE4F6006EF64064E7005C207123E90
:101EF500C7AF2C123853750802804C75080380470C
:101F050075300075310075322C7B007A00792A1204
:101F15002B82EF4E6031AD2CAF2BAE2A12199EE409
:101F2500F528F529123695E0B52C0612369574FE7E
:101F3500F00529E529700205286404452870E57532
:101F450008018003E4F508900040E06009E50864B5
:061F5500036003021E55AB
:011F5B002263
:03004800021E5540
:102AD500E4F5DE90F692F090004004F0E4F508FF8E
:102AE500EFFD3395E0FCC3ED9404EC6480948050D5
:102AF50015EF3395E0FC74342DF58274003CF583B5
:102B050074FEF00F80DA9000381207B40000000060
:102B15001236B8F0A3F0FB7D017F03123287E4FB88
:102B25007D037F01123287E4FBFDFF123287752595
:102B350003E4F526F527FB7D027F03122B787D083C
:102B45007F01122B787A0079257D01E4FF120C8A2A
:102B5500C2077D017F031227FDC2077D037F011296
:102B650027FDC207E4FDFF1227FDC207E4FD7F0331
:032B75000227FD37
:0A2B78007A007925120C8A7B0022F6
:102E2000E4F525F526F527FB7A0079257D027F015B
:102E3000120C8A7B007A0079257D01E4FF120C8A4E
:102E40007D02122EB27B017D017F031232877B014E
:102E50007D037F011232877B01E4FDFF123287750B
:102E60002503E4F526752701FBFD7F031232877DDC
:102E700001122EB2D207E4FD7F031227FD75DF4059
:102E800075DE60E4F5E9F5D1F5D375D50F75D4FF9E
:102E900090F69274A0F0E4F5089000381207B400A0
:102EA0000000001236B8F0A3F0A304F043DE800265
:022EB0000048D8
:0C2EB2007B007A0079257F03120C8A2235
:06380000C10CC10BC10D5B
:103D6600E4200706F5C853A8DF22F5CE75CB0B7500
:103D7600CADB75CD5D75CC6643A820F5C975CF80C5
:073D8600751F0475C89122AE
:103D8D007523007524FFC20C7F017E0012296C2063
:103D9D000C10E524152470021523E524452370E845
:023DAD0080FE96
:013DAF0022F1
:03002B000238A2F6
:1038A200C0E0C0F0C083C082C0D075D000C000C0EC
:1038B20001C002C003C004C005C006C00775C9002C
:1038C200151FB20DE51F7008751F04D20C123BCFF5
:1038D200D007D006D005D004D003D002D001D0004A
:0B38E200D0D0D082D083D0F0D0E032F4
:03000B00023FC0F1
:063FC0005388EFD20B3222
:103EDE005388CF5389F0438901E4F58CF58A75A890
:053EEE000243A8802240
:0439FB00AD07AC0662
:1039FF00A2AF9207ED7802C333CE33CED8F9FDAC28
:103A0F0006C374FF9DFD74FF9CFFEFF58CAF05EFB0
:103A1F00F58A53A87D438810E58830E5FB5388CF9E
:0A3A2F0030070443A8822243A802D6
:013A3900226A
:04296C008E2F8F30EB
:10297000E4F535F536E530452F7003022A2105369A
:10298000E53670020535AE2FAF30EE3395E0FDFC35
:10299000E47BA07A0FF9F81206338F348E338D3230
:1029A0008C31C006C007AE35AF36AB07AA06EA3396
:1029B00095E0F9F8D007D0061206BE8F348E338D1D
:1029C000328C31E47FFF7EFFFDFCAB34AA33A932A9
:1029D000A831C312077450A6C374FF9534F534743C
:1029E000FF9533F533E49532F532E49531F531AFA7
:1029F00034AE33AD32AC3178081207858F8CE534B4
:102A0000FF8F8AC20B438810E58820E503300BF85E
:102A10005388CFE536153670021535E536453570E5
:012A2000CEE7
:012A21002292
:1016150000512CD5004B18690045845700406521C1
:10162500003BB06200375CB60033619B002FB760AA
:10163500002C570700293A3D00265B410023B4DC06
:101645000021424D001EFF45001CE7D5001AF86930
:1016550000192DBE001784DA0015FB0600148DC78E
:1016650000133ADA0012002B0010DBD6000FCC1E57
:10167500000ECF6C000DE44B000D0965000C3D809C
:10168500000B7F7C000ACE50000A290700098EC393
:101695000008FEB50008781F0007FA52000784AE5F
:1016A5000007169D0006AF9700064F1C0005F4B80D
:1016B50000059FFE0005508B000506020004C00DC5
:1016C50000047E5D000440A9000406AC0003D02799
:1016D50000039CE100036CA100033F370003147273
:1016E5000002EC280002C62F0002A2630002809FC0
:1016F500000260C3000242B10002264C00020B7BCF
:101705000001F2230001DA2E0001C3870001AE19A2
:10171500000199D2000186A0000174720001633AAC
:10172500000152EA00014372000134C8000126DFBE
:10173500000119AC00010D2500010141F5F5EB3A59
:10174500E107D755CE1DC558BD00B50EAD7FA64CDA
:101755009F7098E792AC8CBB871181AA7C827797A2
:1017650072E46E676A1E6606621C5E5F5ACB575F3F
:10177500541950F84DF84B1A485A45B8433340C8E8
:101785003E773C3E3A1D3812361D343B326D30B241
:101795002F082D6F2BE62A6C290127A42655251322
:1017A50023DD22B22193207F1F751E751D7E1C909F
:1017B5001BAC1ACF19FB192E186917AA16F3164276
:1017C500159714F2145313B913251296120C11869A
:1017D5001105108810100F9B0F2B0EBE0E550DEF27
:1017E5000D8C0D2D0CD10C780C210BCE0B7D0B2EF9
:0217F5000AE305
:103DF500FDFCAB42AA41A940A83F020774E4AB3CD5
:103E0500AA3DA93E020582AB42AA41A940A83F02AC
:023E1500077430
:0E23FA008B3C8A3D893E8F428E418D408C3F48
:102408007FD57E2C7D517C00D3123E0C4006123EB7
:10241800027FD822E47FE37E0AC3123DF5500612FC
:102428003E027F7D227401123E03E47FF57EF5D3E0
:10243800123DF54038E4F543F544AE43E5447802EF
:10244800C333CE33CED8F92415F58274163EF583FE
:10245800120798C3123E0C4006E54424D8FF220513
:1024680044E54470020543644B454370CDE4F543AD
:10247800F544E54425E0FFE54333FE74412FF5823A
:1024880074173EF583E493FE740193FFE48F488E3E
:1024980047F546F545E548F548E547F547E4F54687
:1024A800F545AF42AE41AD40AC3FAB48AA47A9465F
:1024B800A845D31207745006E5442423FF22054497
:1024C800E54470020543645B454370A6123E02FF73
:0124D80022E1
:02380600C116E9
:083FB100AF5DEF3395E0FE2245
:1038ED00752301E4F524F525FB7D037F0212328754
:1038FD007B007A0079237D087F02120C8A7D087F78
:10390D0002123E777B027D037F021236F37557005C
:10391D0075582890006274FFF0E4F559F55AF55C7E
:06392D00F55DF55EF55F9B
:013933002271
:103EF300E55C6002D322E55E6002D322E55F6002E7
:043F0300D322C322E0
:103BCF00E55930E711547FFFC3940550010F535946
:103BDF0080EF42598003E4F559E55A30E710547FDE
:103BEF00FFC3940450010F535A80EF425A22E4F559
:013BFF005A6B
:013C000022A1
:1034A6007D037F02122F58EF64014E7034C216E579
:1034B60059547FFFE4F559E55B7004E55F6007E466
:1034C600F55FF55B8033EFC39405502D123FB1C312
:1034D600EF940AEE648094805002055D755A8080F0
:1034E60018D216755700755828E55A30E703755AED
:1034F60080E55920E7037559807D087F02123DD388
:06350600900062740AF05F
:01350C00229C
:103E38007D087F02123DD390006274AAF0D216E585
:103E48005A30E703755A80E55920E70375598022EF
:10002E00E4F55AF55EF55DF55BF55CEF64014E7037
:0A003E00047F0180027F008F5F2223
:102C2B007D087F02123C904053900062E025E0F05B
:102C3B0030A306E04401F08007900062E054FEF000
:102C4B00900062E0FF540FFEFD7C00640F6003EF09
:102C5B00702AE4F5B4ED640F4C7003C38001D3927A
:102C6B0016AF06EF640F70047B0280027B017D03BD
:102C7B007F021236F37D087F02123E77301608E58D
:102C8B005A30E703755A80301627E5596485702151
:102C9B00123FB1D3EF9400EE648094804005120094
:102CAB002E800BE4F55DF55F755C01755B01E4F55A
:102CBB0059201613E55A6484700DF55AE55B7004C0
:072CCB00755E0122E4F55BD8
:012CD20022DF
:103E5800E55B7004E55F6004E4FEFF22E55E700345
:0E3E6800FEFF22123FB1300705E4F55EF55D66
:013E76002229
:0B3F8B00E55C7002C322E4F55CD32269
:08000300E55B6002D322C32279
:083FA900E55F6002D322C32290
:033808000160005C
:0A3F9600E5605480FF3395E04F22F0
:103D3E00752503E4F526752701C2A4C2A5FB7D10E7
:0D3D4E00123D5C7B007D20123D5CE4F561C0
:0B3D5B00227A0079257F02120C8A22D8
:10350D007B147D047F021232877B157D057F0212AD
:10351D00328790F121E0440CF090F1247401F09089
:10352D00F12C74FFF0A3F090F127E0440CF0A3749C
:10353D000CF090F164E0440CF090F1357409F090CA
:10354D00F134745FF090F1377409F090F136745FD7
:10355D00F01237A990F126E0440CF090F129E054D7
:04356D000C70F822C4
:103C010090F126E0540C7009A20992A4A20A92A58F
:103C11002290F164E0FF3009055307FB800343075D
:103C210004300A055307F7800343070890F164EF56
:013C3100F0A2
:013C3200226F
:1037A900D3900061E0945F900060E0648094894068
:1037B900077409F0A3745FF0C3900061E09432903C
:1037C9000060E0648094805006E4F0A37432F090C5
:1037D9000060E0FCA3E0FDECFFEF90F145F0AE05E1
:1037E900ED90F144F090F147EFF090F146EEF09052
:0737F900F129E0440CF0226D
:101F5C00E561B40A004003022049901F6DF828285F
:101F6C0073021F8B021F95021F9C021FAA021FA344
:101F7C00021FAA021FEC022049021FEC021FECC236
:101F8C0007C208E4F560022049C207D208022049C2
:101F9C00D207C208022049D207D208022049C2083F
:101FAC00E560547FFFAE61EE640370047E03800233
:101FBC007E00C3EE6480F8EF64809850090F536084
:101FCC0080EF4260800D123F9660047F0080027F9C
:101FDC00808F60123F966003D38001C39207805DAF
:101FEC0053607FAF61EF64096007AF61EF64087005
:101FFC00047F0680027F0AD3EF6480F8E56064807A
:10200C00984009C208C207E4F5618031E56075F0BB
:10201C000212051AAFF0EF6003D38001C39206AF32
:10202C0061EF64087003C38002A2069207AF61EFF0
:10203C0064087004A2068001C392080560A207928E
:08204C0009A208920A023C01FE
:103AF000C206C207EF24FE600E24FE60102403708D
:103B000010C206D207800AD206C2078004D206D2AB
:103B100007A2069209A207920A123C017F147E00B6
:0A3B200012296CC209C20A023C011E
:0F3F6D0090005BE0F8A3E0F9A3E0FAA3E0FB22E9
:103DB000E4FB7D02FF123287C2077D02E4FF122777
:103DC000FD90F121E4F090F126F090F124F090F1D3
:033DD00023F022BB
:10311300752503E4F526752701C2077D02FF1227F3
:10312300FD7B007A0079257D04E4FF120C8A7B1273
:103133007D02E4FF12328790F120E4F0A304F090C3
:10314300F123F090F12A74FFF090F122E4F090F172
:103153002704F0A3F090F160E4F090F165F090F1B2
:103163006404F090F1317417F090F130746FF090C3
:10317300F141E4F090F140F090005B1207B40000DD
:103183000000C210C20E90F1267401F090F129F0F4
:0631930090F129E070FA42
:013199002213
:103B640090F1417401F03006047FFF80027F0090E1
:103B7400F140EFF090F129E04401F090F129E020C8
:103B8400E0F990F164E0300F0554FEFF8003440136
:073B9400FF90F164EFF02245
:10268000200E0302274030102390F129E030E003B0
:1026900002274090F164E0300F0554FEFF800344B0
:1026A00001FF90F164EFF0C20EC21022E4FFFE7D44
:1026B000C87C42123F6D1202EC600C400A90005B35
:1026C0001207B442C80000E4FFFEFDFC123F6D1289
:1026D00002EC500A90005B1207B400000000AF2625
:1026E000AE25AD24AC23EC4D4E4F6003D38001C327
:1026F000920F7F007E807DBB7C45123F6D120146AC
:10270000E4FBFA798078BF1200558F268E258D2440
:102710008C23E4FBFA79C8784212024F8F268E256B
:102720008D248C231203A3AD07AC06ECFFEF90F1D0
:1027300041F0ED90F140F0D21090F129E04401F029
:012740002276
:103F070000000000000000000000000000000000AA
:043F170000000000A6
:04380B0041005A001E
:102FF100900014E0FCA3E0FDA3E0FEA3E0FF222487
:1030010000F58274003EF583E0F8A3E0F9A3E0FA4D
:10301100A3E0FB22900047F0AB54AA55A956020544
:103021003C1201468F308E2F8D2E8C2D22AE25E540
:1030310026780222E4FFFEAB15AA14A913A81202F6
:1030410002ECD3E5249400E5236480948022E4908B
:103051000058F0A3F0900056F0A3F022C281C28480
:10306100C283C28522120146A804A905AA06AB079C
:1030710022AB30AA2FA92EA82D0202EC2400F58242
:0630810074003EF58322FD
:103B2A0075250375260175270112305D7D02123B4A
:103B3A00527D10E4FF120C8A7D08123B527D20E46C
:073B4A00FF120C8A12304F3C
:103B5100227B007A007925E4FF120C8A7B007A002F
:033B6100792522A1
:1011E70075230075244078007C007D017BFF7A3FE2
:1011F70079077E007F141204F4123E95500F74088D
:10120700123015640170030214170214127DB07CAA
:10121700401230355003021417C283C285C281D2EF
:1012270006123B64D2847F057E0012296C120048A7
:101237007F337E337DE37C40AB0DAA0CA90BA80A54
:101247001202EC6002500DE52415247002152312DA
:10125700304350D2E52445237010C2840412301560
:1012670064017003021417021412752300752464B5
:10127700C2847F147E0012296CC206123B641200DE
:10128700487F0A7E0012296C7525007526041230E6
:101297002EC333CE33CED8F924FCF58274FF3EF546
:1012A70083122FF4C004C005C006C00712302EC336
:1012B70033CE33CED8F912307DD007D006D005D043
:1012C700041207A8E526152670021525E5264525EB
:1012D70070BCAF0DAE0CAD0BAC0A9000001207A8A6
:1012E7009000141207B400000000E4F525F526125B
:1012F7002FF1C004C005C006C00712302EC333CE7D
:1013070033CED8F9123000D007D006D005D004125A
:1013170000559000141207A80526E526700205253A
:101327006405452570C9122FF1E4FBFA79A07840CE
:1013370012024F9000141207A89000181207B40069
:10134700000000E4F525F526900018122FF4C004DC
:10135700C005C006C00712302EC333CE33CED8F92E
:10136700123000122FF1120051E4FBFAF9F81202C1
:10137700EC500F12302EC333CE33CED8F9123000D3
:10138700801A12302EC333CE33CED8F912307D12E5
:101397002FF4E4FBFA798078BF123066122FF1122E
:1013A7000051AB07AA06A905A804D007D006D005A7
:1013B700D0041200559000181207A80526E52670DC
:1013C70002052564054525600302134FC3E52494F0
:1013D7005D1230485013E4FFFEFD7C3F9000181269
:1013E70030091202EC60025010E524152470021532
:1013F700231230434003021285E5244523701190E0
:1014070000477402123018640160057F011232F937
:0114170022B2
:073FB90012304F12305D22AF
:082CD3008F268E258D248C2331
:102CDB00AC27AD28EC12036AAB26AA25A924A8239E
:102CEB00123022E4FBFA797A784412024F12302523
:102CFB007B9D7A69795C783C12024F123025AB2CA4
:102D0B00AA2BA92AA829123022C004C005C006C0CC
:102D1B0007E4FFFE7D7A7C44AB19AA18A917A81605
:102D2B00123066D007D006D005D00412024F1230F5
:102D3B0025E4FBFA79C87842123022E4FFFE7DC805
:102D4B007C42123072600D400BE4F530F52F752E7E
:102D5B00C8752D42E4FFFEFDFC1230725009E4F5FC
:0F2D6B0030F52FF52EF52DAF30AE2FAD2EAC2D50
:012D7A002236
:1020540090005AE0600A200E0714F0E07002D28467
:10206400900058E0FEA3E0FF900056E06E7003A3DA
:10207400E06F700302213B900056EEF0A3EFF0D323
:102084009400EE6480948050291230196409600C25
:1020940090005B1207B400000000D20E900056E0DE
:1020A400B4FF08A3E0B4FF03D38001C392811230CC
:1020B4005F22900056E0FEA3E0FFC394F4EE648038
:1020C400948150368E278F28E4F52CF52B752A80C1
:1020D40075293FFFFE7DC87C4212213C7D187C415E
:1020E40012303550028001C3928120840690005A38
:1020F400740AF0D283C285D20E22900056E0F527EE
:10210400A3E0F528752CC3752BF5752A8875293F2E
:102114007F007E007D407C4012213CD28112301928
:1021240064097004D284800920840690005A740AD9
:10213400F0C283D285D20E22122CD390005B1207F8
:02214400A822CF
:10000E00E58E541FF5624362C085628EC2AF0075E5
:0B001E0096AA75965543970200D2AFDA
:0100290022B4
:103F2D00C2AF007596AA7596555397FD00D2AF2274
:103F3D00C2AF007596AA75965543970100D2AF2270
:103E9500C2AF007596AA75965585976300D2AFE5B2
:083EA5006330E203D38001C386
:013EAD0022F2
:0D380F0041002B004100200342001C00007E
:101B1C007D60E4FFFE7C4090002CE0F8A3E0F9A38C
:101B2C00E0FAA3E0FB0202EC9000251207A890005B
:101B3C0025E0FCA3E0FDA3E0FEA3E02290001CE066
:101B4C00FAA3E0FB7C007D04FFAE021205A68C2DEF
:101B5C008D2ED3E52E9401E52D6480948022D390B4
:101B6C00001DE0940090001CE064809480229000A2
:101B7C0021747FF0A374FEF0A37480F0A37402F0C0
:101B8C00E4900029F0A3F090002522FF1203A38E0D
:101B9C002D8F2E7D0A7C001205A68C2D8D2E2224D5
:101BAC00FFFFEE34FF90001CF0A3EFF0227C40AB63
:101BBC0011AA10A90FA80E0202EC900021E0FEA3BE
:101BCC00E0FFEE3395E0FDFC228F61D3EB9400EA4D
:101BDC006480948022AF15AE14AD13AC129000301B
:101BEC000207A874FF90001CF0A3F022E4F56190AA
:101BFC00001CF0A322AB54AA55A95690000502056F
:101C0C00DC90002BE05480FF3395E04F22AB2CAAE4
:101C1C002BA92AA82902075EE4FBFA797A784402F8
:101C2C00024FAE2DE52E78022290001F7402F02296
:093FA00090001EE0700204F02202
:1014180090001EE014B4090040030216099014332A
:1014280075F003A4C58325F0C5837302144E021416
:10143800610214E60215150215450215740215B865
:101448000215E80215FAE4F561121BE190001CE4AC
:10145800F0A3740EF0A37402F090001CE0FEA3E069
:10146800FFD3940CEE64809480400575610180235D
:10147800D3EF940AEE64809480400575610480136C
:10148800D3EF9408EE648094804005756102800370
:10149800E4F561D3EF9400EE648094804003021673
:1014A80009900030121B3DFF1203A37D64121BA19B
:1014B800AE2DAF2E7C007D0A1205A68E2D8F2EE54F
:1014C8002E452D7005121BEF800D121C2EC333CE36
:1014D80033CED8F9121BAB90001E7403F022900093
:1014E8001CE0B4FF0AA3E0B4FF057F0212160A123B
:1014F8001B4840047F0280027F00121BD540030274
:101508001609121BF8740AF0A37404F022121B6A5D
:101518004003021609900030121B3D121B97E52E5E
:10152800452D7005121BEF800D121C2EC333CE33D0
:10153800CED8F9121BAB90001E7405F02290001C47
:10154800E0B4FF0AA3E0B4FF057F0412160A121BD9
:101558004840047F0480027F00121BD54003021616
:1015680009121BF8740AF0A37406F022121B6A40D1
:1015780003021609900030121B3DFFE4FBFA7920A4
:101588007841120146121BE9900030121B3D121BD4
:1015980097E52E452D7005121BEF800D121C2EC3EA
:1015A80033CE33CED8F9121BAB90001E7407F0224D
:1015B80090001CE0B4FF0EA3E0B4FF097F01123ACB
:1015C800F0E4121BF1121B4840047F0180027F00E7
:1015D800121BD5502C121BF8740CF0A37408F022BF
:1015E800121B6A501C90002B7480F090001E740926
:1015F800F022121C0D700A123FA94005E490001E4B
:01160800F0F1
:0C16090022123AF0E490001CF0A3F02242
:10223100752501E4F526752701FB7D027F02123227
:10224100871223097F057E0012296C30A2047F03C7
:1022510080027F02900020EFF0C2A27525031223B5
:10226100091200487F9A7E997D39121BB950089056
:10227100001F7403F080277FCD7ECC7D4C121BB9EB
:102281005005121C3580177466FFFEFD121BB950F4
:102291000890001F7401F08005E490001FF0C21443
:1022A100C215121B7A1207B400000000AF11AE1064
:1022B100AD0FAC0E90002C1207A8121BE1E49000A8
:1022C1001EF0900047E0703FF523F524900020E0D8
:1022D100FF3395E0FEC3E5249FEE6480F8E52364B7
:1022E100809850167F04123AF07FA07E0012296C6C
:1022F1000524E52470D6052380D27F907E01122922
:072301006C90002B7480F0CA
:0F230800227B007A0079257D047F02120C8A2245
:103A7800121B6A400CA3E024FFF090001CE034FF06
:103A8800F090002BE0FF30E71D547FFEEF5480F0EC
:103A9800EEFD3395E0FCC3ED940CEC64809480500B
:0B3AA800050EE04EF022E490002BF031
:013AB30022F0
:100F5700C390002AE0942C900029E064809481508B
:100F670072E4FFFE7D7A7C44AB11AA10A90FA80E8C
:100F77001201461203A38F2C8E2B8D2A8C299000E9
:100F87002AE004F07006900029E004F0121B3A25CD
:100F97002CFFEE352BFEED352AFDEC3529FC9000B4
:100FA700251207A8121BC6C3121C19500A9000214C
:100FB700E52BF0A3E52CF0900023121BC9D3121CDC
:100FC700195003021059900023E52BF0A3E52CF0EC
:100FD700021059121B3AFFC004C005C006C0079093
:100FE7000023E0FEA3E0FBAA06EA3395E0F9F81236
:100FF7001BC6EF2BFBEE3AFAED39F9EC38F8D007C0
:10100700D006D005D004C3EF9BFFEE9AFEED99FD05
:10101700EC98FC121B34FFC006C00790002AE0249E
:10102700FEFF900029E034FFAB07FA3395E0F9F8AB
:10103700D007D006123934121B34FFEC12036512A5
:101047001C2490002C1207A8121B7A1207B4000068
:101057000000121C0145F07007C214C2150210DA15
:1010670012053C64027006AC4EAD4F8006121C019F
:10107700FDACF0EC12036A121C248F288E278D26F4
:101087008C25AB15AA14A913A812AF0DAE0CAD0B86
:10109700AC0A12024F7B527AB8795E783F1202ECA3
:1010A7005004D2148015AF28AE27AD26AC25121BED
:1010B7002360054003C38001D392147FCD7ECC7D8E
:1010C7002C121B2160054003C38001D392153015F4
:1010D70002C21490001FE014602314604C14607A5D
:1010E7002403600302118B7466FFFEFD121B21406F
:1010F7000302118B90001F7401F002118B7F337E66
:10110700337D73121B2160074005E490001FF07FB9
:10111700CD7ECC7D4C121B215003121C357433FF3E
:10112700FEFD121B21505D80297F667E667D76124B
:101137001B2160074005E490001FF0121B1C60078D
:101147004005E490001FF07F9A7E997D39121B219C
:10115700503290001F7403F0802A7F667E667D768A
:10116700121B2160074005E490001FF0121B1C6052
:10117700074005E490001FF07D40121B1E600540EC
:1011870003121C35AF61EF64066054AF61EF64086A
:10119700604DAF61EF64096046900047E06003026D
:1011A700319AAB54AA55A95612053C7005121C0D6D
:1011B700602190001FE014600E14600F146010246B
:1011C70003701C7561012275610422756102227525
:0F11D70061032290001EE06003021418E4F5612A
:0111E60022E6
:0E381C00021B0000021D0000C112C111C113E9
:103CE800900047F0AB54AA55A95612053C6401222E
:103CF800AF09EF3395E0FE22E4FFFE7DC87C422247
:0B3D0800AB36AA35A934A8330202EC48
:103E17007523407F0A7E0012296C120048E51A704C
:103E270003D523EFE5237008756104121F5C80FE3C
:013E37002268
:103C33008F368E358D348C33123D00123D0860066D
:103C43004004123D0022E4FFFEFDFC123D08500635
:0F3C5300E4FFFEFDFC22AF36AE35AD34AC3322BC
:041C3C008E258F263C
:101C400030120DD3E5269400E5256480948050057C
:101C5000AE25AF2622AC1DAD1EEC12036A7B007AC6
:101C6000A0798C784612024F8F2A8E298D288C27D6
:101C7000E4FBFA79C87842120146121D36AC1BAD5E
:101C80001CEC12036A7B007A80793B784612024F83
:101C90008F328E318D308C2FAB2AAA29A928A82704
:101CA000C000C001C002C003E4FFFE7D207C41AB48
:101CB00032AA31A930A82F120146D003D002D00198
:101CC000D000120055121D36D3E5269484E5256414
:101CD00080948350057E037F8422E526247CFDE5E5
:101CE0002534FCFC12036AE4FBFA79C8784212023C
:101CF0004F8F2E8E2D8D2C8C2BAB2EAA2DA92CA880
:101D00002BC000C001C002C003AB2AAA29A928A881
:101D100027123D00120051D003D002D001D0001292
:101D200001468F2E8E2D8D2C8C2B1203A3EF248435
:051D3000FFEE3403FE8C
:101D3500228F2A8E298D288C27123C338F2A8E29B3
:051D45008D288C27220F
:1017F700E51A700C7405123CE8700302199D8049C4
:10180700123CF8D3EF9441EE648094804002D213E7
:10181700D3EF943CEE648094804004D211800DC3D2
:10182700EF9432EE648094805002C2113013052089
:101837001102C213D3EF944BEE64809480400F746F
:1018470006123CE8700302199D7F010232F9123C2F
:10185700F8C3EF9437EE64809480500D900047E012
:1018670064067005F0FF1232F9AB54AA55A95690D9
:1018770000081205557004C212801F123CF8D3EFFE
:101887009434EE648094804004D212800DC3EF94A8
:101897002AEE648094805002C21220120AE4F51BDB
:1018A700F51CF51DF51E22D3900059E09400900019
:1018B70058E064809480500302199D123CF8EF248D
:1018C700CCFFEE34FFAB07FAD3EB9400EA648094C5
:1018D700804004AE02801AC3E49BFFE49AFED3EF74
:1018E7009401EE648094807E0040047F0180027F33
:1018F70000EF4E6042900058E0FEA3E0FF7C177DAA
:10190700701205A6D3EF9400EE64809480400280A5
:101917001D900058E0FEA3E0FFC3E49FFFE49EFE96
:101927007C177D701205A6EF2401FFE43EFEAD0390
:10193700AC0212059480047E007F00EF251EF51E81
:10194700EE351DF51DD3E51E9450E51D648094C644
:101957004006751D46751E50C3E51D648094805072
:1019670005E4F51DF51EEB251CF51CEA351BF51BDB
:10197700D3E51C94E0E51B648094AE4006751B2EEE
:10198700751CE0C3E51C9420E51B64809451500648
:06199700751BD1751C2038
:01199D002227
:02382A00C117C4
:103CBC00300617123D3E122E20123113123B2AE40D
:103CCC0090001EF012350D02000E123F2DC207128D
:0C3CDC003D66123DB0122AD5123FB922FD
:1030870090001EE0700BAB54AA55A95612053C6080
:103097000775570075582822D3E5589400E55764FB
:1030A7008094804009E55815587002155722C206CA
:1030B700123CBC438704438702123EDED207123D0F
:1030C70066123E387F017E0012296C122C2B123EAD
:1030D700F350F1D206123CBCE4F523F52412004864
:1030E700120F573015130524E52470020523C394E6
:1030F70003E5236480948040E4E52464034523705A
:0B31070005F55775580FE4900040F0EC
:01311200229A
:103571000000000000000001000100000000000048
:10358100000003015E00000AF000000403200000B7
:103591000B5401000505DC00000BB80100060BB857
:1035A10000000BEA0101071D4C00000C1C01010881
:1035B1003A9800000C80000109271000000BB800A8
:1035C10001021D4C01F40C1C00010A271000000B24
:0335D100B800013E
:10382C0041004300410049004100450041004A006D
:10383C004100440041004B0041004D00410041005B
:06384C0041004208C1002A
:1024D9007FCD7ECC7D2C7C4090002CE0F8A3E0F9E8
:1024E900A3E0FAA3E0FB0202EC90004BE0FF339576
:1024F900E0FED3EF9400EE6480948022900001AB5B
:1025090054AA55A9560205DC75F00490004BE0FD6C
:1025190012051AAFF0EF3395E0F5258F26D3E5269E
:102529002275F009ED1207E5EC75F009A42583F58C
:1025390083E49322AB54AA55A95602053CFFAEF099
:10254900C3E5519FEE6480F8E55064809822E52444
:102559006403452322E54D9526E5256480F8E54C7D
:1025690064809822E054C0F0C3ED9406EC64809432
:102579008022E0FF543FF523FD3395E0FC4D229482
:1025890001E5256480948022FD3395E0FCC3ED22AA
:10259900EF3395E0FEC3EF22EDFF3395E04F22E0E4
:0925A900FE5480FD3395E04D2243
:10363500E4F552FFEF122591940BEC6480948050D1
:103645002C90357112252A6402701FEF3395E0FC2A
:1036550090357612252AF54E740193F54F90357203
:1036650012252AF550740193F5510F80C7122A22AD
:10367500E490004CF09000467404F0E4A3F0755417
:0F368500FF755535755671C203C202C204C205E6
:013694002213
:1027410090004CE0B4070040030227F8902754F8AA
:102751002828730227690227760227930227A202FB
:1027610027C20227D00227F090004B740BF0A3740C
:1027710001F00227F812251112258840030227D8FB
:102781001225A1707290004B7407F0A37402F0023D
:1027910027F81224F250607423F0A37403F0022787
:1027A100F875F00C122514940512258A4002802731
:1027B1001225A1704290004B7407F0A37404F080BD
:1027C100361224F25031740BF0A37405F0802812F4
:1027D10025111225884007122505FFAEF02212258A
:1027E100A1701490004B7423F0A37406F0800812BA
:0B27F10024F25003E4A3F07EFF7FFF02
:0127FC0022BA
:1039BA0030020712253D64036006E4900044F022B9
:1039CA00900044E004F0E0FF12259A9410EE64801F
:1039DA009480401CE4F0900048E0FF9405748094C1
:1039EA008050060FBF00008002E4FF900048EFF00D
:0139FA0022AA
:103366001224F24003E014F090004D1224F5400DB3
:10337600EF9409EE648094805003E004F0AF53129A
:1033860025999420EE6480948050020553AF52EF45
:103396001224F7400215529000451224F54003E02E
:1033A60014F0900043E0FF30E71C547FFEEF54809A
:1033B600F0EE122591940AEC6480948050010E90F0
:0B33C6000043E04EF022E4900043F0D2
:0133D10022D9
:0232F9008F281C
:1032FB0012253DF52BE4F529F52A90357175F0096A
:10330B00E52A1207E5E5291225326528703A900067
:10331B004CF0AE29AF2AFC7D0912059474712FF97C
:10332B0074353E7554FFF5558956E52864087014BD
:10333B00E52B6408600EAF15AE14AD13AC12900004
:10334B00501207A8E4FEFF22052AE52A7002052980
:0A335B00640B452970A47E007F0179
:013365002245
:101D4A00301403021DD7301503021DD7E490004357
:101D5A00F090001FE06003021E541225051225466A
:101D6A00506590004DE0FD700404F08010ED1225DE
:101D7A00929409EC648094805003021E5490004DA2
:101D8A007401F09000051205DCFDACF0D3E54F9D1F
:101D9A00EC6480F8E54E64809840068C4E8D4F8046
:101DAA000B7432254FF54FE4354EF54ED312254AC2
:101DBA004009122505F55185F0502274FA2551F58E
:101DCA0051E43550F55022E490004DF022E49000A1
:101DDA004DF0900043E0FF3395E0FEEF4E70037440
:101DEA0080F0900043E0547FF525301513FF3395BA
:101DFA00E0FED3EF9404EE648094804003023EAE8A
:101E0A00AF25EF3395E0FED3EF9409EE648094801A
:101E1A004038D3E55194EEE55064809482400C74C6
:101E2A00062551F55174FF3550F550D3E54F94BE50
:101E3A00E54E6480948A400C74E7254FF54F74FF91
:0A1E4A00354EF54E9000437480F011
:011E5400226B
:103EAE0012253DFF60129000071205556005900027
:093EBE0046EFF0E4FF1232F92294
:0235D4008D2543
:1035D600201409201506E4900043F022900043E0F1
:1035E600FD3395E0FCED4C70037480F0900043E0F1
:1035F600547FF5262015057527098003752702EFE8
:103606006014301511AF261225999403EE64809448
:10361600804003023EAED3E5276480F8E526648049
:0E36260098400B9000437480F0AF251232F9EB
:013634002273
:10321300120003500512253D7007E4900049F08029
:103223002990004912257B7007EF20E6034480F0C4
:1032330090004912256D5008E020E6040523800321
:10324300E4F523900049E04523F0123FA95005120D
:10325300253D7006E490004AF02290004A12257B37
:103263007007EF20E6034480F090004A12256D506A
:1032730008E020E60405238003E4F52390004AE0F8
:033283004523F0F0
:013286002225
:103F4D009000491225A86007EE547FF01232F92235
:103F5D0090004A1225A86007EE547FF01232F92224
:10343D0090F129E0540C7060900042E014F0E070BF
:10344D00577408F0900041E07027C3900061E0943C
:10345D005F900060E064809489500EA3E004F070EA
:10346D0034900060E004F0802C9000417401F080F5
:10347D0024D3900061E09432900060E064809480E9
:10348D00400EA3E024FFF0900060E034FFF08005D3
:08349D00E4900041F01237A990
:0134A5002204
:10231700123FA940051200035003D38001C392075F
:10232700122505122546500AAC50AD51AE04AF0533
:1023370080008E258F269000011205DCFFC3E5265D
:102347009FE5F06480F8E525648098500E30070B10
:1023570012255E400685254C85264D120003500C3C
:102367002000097403254DF54DE48010123FA95054
:102377001120000E74FD254DF54D74FF354CF54CBD
:10238700800F123FA9400A1200034005300002C225
:10239700001200035016200013C312255E400D756E
:1023A7005204122505F54D85F04CD200123FA95075
:1023B7001F20001C900003122508FFAEF0D3E54D47
:1023C7009FEE12256450097552048E4C8F4DD20032
:1023D7001200034005123FA95004E4F55322AF53FE
:1023E700EF3395E0FEEF64204E70070553C20812E5
:0223F70025B20D
:0123F90022C1
:103F1B00EF64014E700B2005051200034003123EA7
:023F2B00AE22C4
:103B9B00900048E01460121460141460161460183E
:103BAB00240470197E007F0A227E007F19227E007A
:103BBB007F32227E007F64227E007FC82212250581
:043BCB00FFAEF02237
:10084600123F8B9206D207123E588E238F249000B9
:1008560046E06009C3940B7480948040069000467D
:100866007404F0900047E0FF64017003020C42EF4D
:1008760064027003020C4212253DB40B00400302D1
:100886000B9390088FF82828730208C90208B00253
:100896000A7B0209FC020A9B020AB9020ADB020A67
:1008A600FD020B23020B45020B69C205200603025B
:1008B6000B93900047E064067003020B93E4F0FF8D
:1008C600020965E524640545237013C20530030358
:1008D600C38001D392039000457408F0801830035A
:1008E60015D3E5249400E523648094805005123ED8
:1008F600F35003756106300303020B93E524640687
:100906004523700F300503C38001D392059000453F
:100916007402F03005281200034003020B937F6631
:100926007E667D461224DF600940072011047F0899
:10093600802D1224D9603340317F070209A6E524B1
:100946006401452370277F9A7E997D391224DF60E2
:1009560010400E3001047F028005900046E0FF80C3
:100966003F1224D960044002803E0209C4E5246493
:1009760002452370303011030209C47F667E667D0E
:10098600461224DF600740057F08020B401224D977
:100996006011400F3001047F028005900046E0FFA1
:1009A600020B4080193006057F03020B40122557C3
:1009B60070121224D9600740057F09020B40756149
:1009C60006020B93E52464044523701C300103C31F
:1009D6008001D392012001047F0980027F088F6184
:1009E600C2081225B2020B93123FA94003020B93D1
:1009F600123FA0020B937D037F011235D4E52464D8
:100A06000145237012200203300405C2081225B2E4
:100A1600C202C204123EAEE52464054523700520D9
:100A26000402D20430040312343D300203020B9355
:100A3600300403020B93E524640445237002D202BA
:100A4600200603020B937F9A7E997D391224DF607C
:100A5600025003020B933001047F0280027F0412CE
:100A660032F9300103123AB4900049E04440F0757F
:100A76005204020B93120C7C70082011057F081299
:100A860032F912255770057F091232F9121D4A12E2
:100A96002317020B937D04120C5670082011057F54
:100AA600081232F912255770057F091232F97F05AF
:100AB600020B907D04120C4370082011057F08126A
:100AC60032F912255770057F091232F97F06123F57
:100AD6004D7F0480427D05120C4370082011057F6E
:100AE600081232F912255770057F091232F97F076D
:100AF600123F4D7F0580207D06120C69700820117B
:100B0600057F081232F912255770057F091232F94E
:100B16007F04123F4D7F06123F5D020B937D071245
:100B26000C69600330130C3001047F0280027F04DD
:100B36001232F912255770557F091232F9804E7D0F
:100B460009120C5670082011057F081232F9122579
:100B560057700C3001047F0280027F041232F97F45
:100B66000A80277D0A7F011235D4120C7C7008207A
:100B760011057F081232F9122557700C3001047FD7
:100B86000280027F041232F97F09123F4D90004520
:100B96001224F5400D9000001207B442A000000296
:100BA6000C26AF52EF1224F7400C9000001207B447
:100BB600BF800000806A12253D24FE602514604730
:100BC60024F9603A047049300D0E9000011205DCDC
:100BD600FFAEF0AC06FD803E7EFF7FFF7CFF7DFF13
:100BE6008034C3E551954DE54C12254E5006AE5066
:100BF600AF518004AE4CAF4DAC06AD07801812273E
:100C060041AC06AD07800F123B9BAC06AD078006D4
:100C1600122505FDACF0EC12036A9000001207A83D
:100C2600900000E0FCA3E0FDA3E0FEA3E0FF1203BA
:0C0C3600A3121C3C900058EEF0A3EFF05D
:100C420022E4FF1235D4AF24AE23123F1BE5246405
:100C5200024523227F011235D4AF24AE23123F1B5B
:100C6200E5246402452322E4FF1235D4AF24AE23E7
:100C7200123F1BE5246402452322AF24AE23123F18
:080C82001BE524640245232256
:0F3F7C005854524C697465204657312E316100FC
:103C620075F009E5241207E5E52375F009A425831B
:103C7200F583E49322FEFDFCAB47AA46A945A8447E
:0E3C820002075E7B007F067E007D007C002234
:0E2146008B3C8A3D893E8F428E418D408C3FFE
:10215400E4F543F54BF54AF549F548E4FFFEFDFC8B
:10216400AB42AA41A940A83FD312075E5003022103
:10217400F9AB3CAA3DA93E854B82854A831205559D
:102184006243E4754708F546F545F544E4FFD31288
:102194003C77402DE54330E70825E06407F54380AC
:1021A40006E54325E0F54374FF2547F547E5463446
:1021B400FFF546E54534FFF545E54434FFF5448035
:1021C400CBE4FAF9F8E54B2401F54BEA354AF54A34
:1021D400E93549F549E83548F54874FF2542F542A3
:1021E400E54134FFF541E54034FFF540E53F34FF78
:1021F400F53F02215FE4F547F546F545F544E47FF4
:102204000FC3123C775023E547903F7C936243E42D
:10221400FAF9F8E5472401F547EA3546F546E93584
:0C22240045F545E83544F54480D4AF434F
:01223000228B
:102A2200C2AF0075FBAAE4F523F5248524FCE52357
:102A3200FF8FFD0075FF11000000000000E5FF2080
:102A4200E0FB74252524F8A6FE0524E52470020582
:102A5200236407452370D475FB5500D2AF7A007901
:102A620025123C85122146EFB52B21900060E52707
:102A7200F0A3E528F0900048E52AF085254C85264C
:102A82004DE5296003D38001C3920122E4900048FE
:102A9200F0754C03754D209000607409F0A3745FCB
:102AA200F0E4F523F524903571123C626402700D56
:102AB200903574123C62F54C740193F54D0524E592
:102AC2002470020523640B452370DBC201D2081275
:022AD20025B22B
:012AD40022DF
:103AB400754C03754D20E4FFFE90357175F009EFE8
:103AC4001207E5EE123C6C6402701590357475F0C3
:103AD40009EF1207E5EE123C6CF54C740193F54DB9
:0B3AE4000FBF00010EEF640B4E70CE10
:013AEF0022B4
:1025B200C2AF0075FBAA200833E4F52CF52DE52DFA
:1025C200F5FCE52CFFEFF5FD0075FF1100000000A2
:1025D2000000E5FF20E0FB742E252DF8A6FE052D58
:1025E200E52D7002052C6407452C70D2900060E046
:1025F200F537A3E0F538900048E0F53A854C35858B
:102602004D363001047F0180027F008F397A0079D4
:1026120035123C851221468F3B200807E53BB53435
:10262200028054E4F5FCF5FD0075FF1D000000007A
:102632000000E5FF30E006E5FF30E5F622E4F52C88
:10264200F52DAF2D74352FF8E6F5FEEFF5FCE52CF0
:10265200FFEFF5FD0075FF19000000000000E5FF27
:1026620030E006E5FF30E5F622052DE52D70020586
:0D2672002C6407452C70CB75FB5500D2AFD2
:01267F002238
:103D1300AF23EF3395E0FEC3EF9408EE6480948005
:103D230022900047F0AB54AA55A95602053C7C40AB
:0B3D3300AB0DAA0CA90BA80A0202ECC1
:10397800900047E0FF7E00700590004E8030900078
:103988004FE004F0700690004EE004F07C007D06E5
:10399800120594EF240FFFE43EFEC390004FE09F12
:1039A800EE6480F890004EE06480984004E4F0A350
:0239B800F022FB
:10319A0090004EE0FEA3E0FFC39405EE64809480A5
:1031AA00501AEE7015EF14600B14600C240270555F
:1031BA00756101227561042280458049900047E0CB
:1031CA00FF7E007C007D06120594EF2405FFE43E95
:1031DA00FE90004EE0FCA3E0FDC39FEE6480F8EC95
:1031EA006480985020ED24FBFFEC34FFFE7C007DC8
:1031FA00031205A67C007D021205A6ED4C7004752B
:08320A006102228000E4F5617D
:013212002299
:10374E00123D2864086006E4900054F02290005464
:10375E00E0FF3395E0FEC3EF940AEE648094805050
:10376E0039E004F0AB15AA14A913A812900050E08A
:10377E00FCA3E0FDA3E0FEA3E0FF1200517BCD7A97
:10378E00CC794C78401202EC6002500E7407123D58
:0B379E0024640160057F011232F92253
:1028B500123D287005900055F022D3900059E09400
:1028C50000900058E064809480500302296B9000CA
:1028D50055E0547FF523E4FFFE7D90123D315019FC
:1028E500123D135007E5232402FF80027F088F2342
:1028F500900055E0547FF080417FCD7ECC7DE41281
:102905003D31601A4018123D135006E52304FF803F
:10291500027F088F23900055E04480F0801CAF2390
:10292500EF3395E0FED3EF9400EE6480948040068B
:10293500E52314FF80027F008F23900055E054802B
:10294500F04523F0123D13401DE05480FF3395E020
:102955004F60047F0480027F03EF123D2464016011
:06296500057F011232F9AA
:01296B002249
:10004E0002040FE86480F8E933E83360110460F0CD
:10005E00ED33EC337009E8FCE9FDEAFEEBFF220418
:10006E0060DED3EB9FEA9EE99DE8C2E78CF0C2F713
:10007E0095F0400CE8CCF8E9CDF9EACEFAEBCFFBDF
:10008E001203DA85D0F05804700320D5B3E804705B
:10009E00075002B2D502041992D5EC0460F7E4CCF5
:1000AE00C0E0C398F8603B94186008400DD0E0FBA8
:1000BE000203F1E4FBFAC9FC8028E830E406E4C947
:1000CE00FBE4CAFCE830E305E4C9CACBFCE85407FC
:1000DE006010F8C3E913F9EA13FAEB13FBEC13FC07
:1000EE00D8F130F52FC3E49CFCEF9BFFEE9AFEEDAA
:1000FE0099FDD0E0FBEF4E4D4C701222DB03020453
:10010E0016EC2CFCEF33FFEE33FEED33FDED30E756
:10011E00EB0203F1EF2BFFEE3AFEED39FDD0E0FBE3
:10012E0050130BBB0003020419ED13FDEE13FEEF8B
:08013E0013FFEC13FC0203F1B6
:10014600EC4D6011E8497017ED33EC3304600DE4B3
:10015600FCFFFEFD22E933E8330470F802040F12B7
:1001660003DA58046009E4CC2481500628500902B9
:100176000419284003020416C0E0EB4A7044B98013
:1001860006D0E0FB020405EF4E701CBD8008EBFFB5
:10019600EAFEE9FD80EBE98DF0A4FEE5F002022F10
:1001A600E9CDF9EAFEEBFFEF89F0A4FCE5F0CE8994
:1001B600F0A42EFFE435F0CD89F0A42DFEE435F051
:1001C6008067EF4E7005BD80D780C3EF8BF0A4AC7F
:1001D600F0EE8BF0A42CFCE435F0F8EF8AF0A42CBA
:1001E600E5F038FCE433CB8DF0A42CFCE5F03BF8CD
:1001F600EE8AF0A42CFCE5F038F8E433CF89F0A4BD
:100206002CFCE5F038CF3400CE89F0A42FFFE5F0C2
:100216003EFEE433C98DF0A42EFEE5F039CD8AF01A
:10022600A42FFFE5F03EFEE43DFD33D0E0FB500792
:100236000BBB000F020419EC2CFCEF33FFEE33FE70
:06024600ED33FD0203F19F
:10024C00020419EC5D046005E85904700302040F04
:10025C001203DA580460F6EC4860F2EC7004FDFE10
:10026C00FF22C860DB2481C85009C3986002500685
:10027C000204169850CAF582E9294B4A7005AB82E4
:10028C0002040575F0007C1A7880C3EF9BEE9AEDA2
:10029C0099400DC3EF9BFFEE9AFEED99FDE842F0FD
:1002AC00DC23ACF0D0E0FFD0E0FED0E0FDAB822050
:1002BC00E7101BEB60BAEC2CFCEF33FFEE33FEEDDA
:1002CC0033FD0203F1E803F830E705C0F075F000E8
:1002DC00EF2FFFEE33FEED33FD40B830E7C280AABE
:1002EC0074F8CC6480CCC86480C8F58204604FC3B9
:1002FC00EB9FF5F0EA9E42F0E99D42F0E89C45F058
:10030C00603C501DE5825FFFE582D313CB5BCBF4E1
:10031C002B5582FB50280ABA002409B9002008800A
:10032C001DE5825BFBE582D313CF5FCFF4C3132FA4
:10033C005582FF50090EBE00050DBD00010CC3EB2C
:10034C009FF5F0EA9E42F0E99D42F0E89C45F06092
:09035C0007CC4820E701B3EC22B4
:1003650075F020800E75F010800575F0087D007E13
:10037500007F003392D530D503120750EC3340107F
:10038500EF33FFEE33FEED33FDEC33FCD5F0ED221C
:0E039500E5F0247EA2D513CC92E7CDCEFF2258
:1003A300EDD2E7CD33EC3392D524814006E4FFFE52
:1003B300FDFC22FCE4CFCECDCC24E0501174FF80B1
:1003C300EDC3CC13CCCD13CDCE13CECF13CF04704E
:0703D300F030D5DE020750F7
:1003DA00E9D2E7C933E833F892D5EDD2E7CD33EC69
:0703EA0033FC5002B2D522E2
:1003F100EC30E7100FBF000C0EBE00080DBD00046D
:100401000BEB6014A2D5EB13FCED92E7FD2274FF18
:10041100FCFDFEFF22E480F8A2D574FF13FC7D8071
:03042100E480EF85
:102ED8000233D2E493A3F8E493A34003F68001F20B
:102EE80008DFF48029E493A3F85407240CC8C333FB
:102EF800C4540F4420C8834004F456800146F6DFCA
:102F0800E4800B0102040810204080903800E47E21
:102F1800019360BCA3FF543F30E509541FFEE493BE
:102F2800A360010ECF54C025E060A840B8E493A385
:102F3800FAE493A3F8E493A3C8C582C8CAC583CAB0
:102F4800F0A3C8C582C8CAC583CADFE9DEE780BE68
:013852000075
:10042400E709F608DFFA8046E709F208DFFA803EBA
:1004340088828C83E709F0A3DFFA8032E309F608A7
:10044400DFFA8078E309F208DFFA807088828C830F
:10045400E309F0A3DFFA806489828A83E0A3F608C3
:10046400DFFA805889828A83E0A3F208DFFA804C9D
:1004740080D280FA80C680D4806980F28033801074
:1004840080A680EA809A80A880DA80E280CA8033DD
:1004940089828A83ECFAE493A3C8C582C8CCC58355
:1004A400CCF0A3C8C582C8CCC583CCDFE9DEE78025
:1004B4000D89828A83E493A3F608DFF9ECFAA9F0A4
:1004C400EDFB2289828A83ECFAE0A3C8C582C8CCFA
:1004D400C583CCF0A3C8C582C8CCC583CCDFEADE13
:1004E400E880DB89828A83E493A3F208DFF980CC75
:1004F40088F0EF60010E4E60C388F0ED2402B4046E
:100504000050B9F582EB2402B4040050AF23234514
:06051400822390047473C1
:10051A00C2D530F707B2D563F0FF05F030E70CB269
:10052A00D5F4048463F0FF05F080018430D502F429
:02053A00042299
:10053C00BB010689828A83E0225002E722BBFE02BD
:09054C00E32289828A83E49322F0
:10055500BB010CE58229F582E5833AF583E022505B
:1005650006E92582F8E622BBFE06E92582F8E222A5
:0D057500E58229F582E5833AF583E49322BF
:10058200BB010689828A83F0225002F722BBFE0158
:02059200F32252
:10059400EF8DF0A4A8F0CF8CF0A428CE8DF0A42E7B
:0205A400FE2235
:1005A600C2D5EC30E709B2D5E4C39DFDE49CFCEE70
:1005B60030E715B2D5E4C39FFFE49EFE1207F1C3F0
:1005C600E49DFDE49CFC80031207F130D507C3E4EB
:0605D6009FFFE49EFE22DF
:1005DC00BB0110E58229F582E5833AF583E0F5F05D
:1005EC00A3E0225009E92582F886F008E622BBFE3A
:1005FC000AE92582F8E2F5F008E222E5832AF58380
:08060C00E993F5F0A3E9932244
:10061400BB010A89828A83F0E5F0A3F0225006F731
:0F06240009A7F01922BBFE06F3E5F009F319222E
:10063300E88FF0A4CC8BF0A42CFCE98EF0A42CFC66
:100643008AF0EDA42CFCEA8EF0A4CDA8F08BF0A4E4
:100653002DCC3825F0FDE98FF0A42CCD35F0FCEB43
:100663008EF0A4FEA9F0EB8FF0A4CFC5F02ECD3908
:0F067300FEE43CFCEAA42DCE35F0FDE43CFC2275
:1006820075F008758200EF2FFFEE33FECD33CDCC2F
:1006920033CCC58233C5829BED9AEC99E5829840B2
:1006A2000CF582EE9BFEED9AFDEC99FC0FD5F0D68F
:1006B200E4CEFBE4CDFAE4CCF9A88222B800C1B9B9
:1006C2000059BA002DEC8BF084CFCECDFCE5F0CBF7
:1006D200F97818EF2FFFEE33FEED33FDEC33FCEB30
:1006E20033FB10D703994004EB99FB0FD8E5E4F9EB
:1006F200FA227818EF2FFFEE33FEED33FDEC33FCD8
:10070200C933C910D7059BE99A4007EC9BFCE99ACB
:10071200F90FD8E0E4C9FAE4CCFB2275F010EF2F10
:10072200FFEE33FEED33FDCC33CCC833C810D70710
:100732009BEC9AE899400AED9BFDEC9AFCE899F84B
:0E0742000FD5F0DAE4CDFBE4CCFAE4C8F922DE
:10393400C2D5E830E70FB2D5E4C39BFBE49AFAE4BE
:1039440099F9E498F8EC30E717B2D512396A1206FF
:10395400BEE4C39BFBE49AFAE499F9E498F8800383
:103964001206BE30D50DE4C39FFFE49EFEE49DFD28
:04397400E49CFC22B1
:0E075000C3E49FFFE49EFEE49DFDE49CFC22BA
:10075E00EB9FF5F0EA9E42F0E99D42F0EC6480C812
:06076E0064809845F022B2
:10077400EB9FF5F0EA9E42F0E99D42F0E89C45F0DB
:010784002252
:10078500E8600FECC313FCED13FDEE13FEEF13FF52
:03079500D8F12276
:10079800E493FC740193FD740293FE740393FF22A7
:0C07A800ECF0A3EDF0A3EEF0A3EFF022C4
:1007B400A8828583F0D083D0821207CB1207CB1294
:1007C40007CB1207CBE473E493A3C583C5F0C583B9
:1007D400C8C582C8F0A3C583C5F0C583C8C582C88F
:0107E40022F2
:0C07E500A42582F582E5F03583F583221F
:1007F100BC000BBE0029EF8DF084FFADF022E4CCEC
:10080100F875F008EF2FFFEE33FEEC33FCEE9DECB4
:10081100984005FCEE9DFE0FD5F0E9E4CEFD22EDFA
:10082100F8F5F0EE8420D21CFEADF075F008EF2F44
:10083100FFED33FD4007985006D5F0F222C398FD35
:050841000FD5F0EA22D2
:00000001FF
