:100000000229E8AF56EF3395E0FE22023942E58E31
:10001000541FF5624362C085628EC2AF007596AA16
:0A00200075965543970200D2AF22F7
:10002B00023278E4FB7D02FF122E0DC2117D02E439
:0E003B00FF1222B890F121E4F090F126F0229D
:10004B0002322C02040FE86480F8E933E8336011C4
:10005B000460F0ED33EC337009E8FCE9FDEAFEEBEC
:10006B00FF220460DED3EB9FEA9EE99DE8C2E78C9A
:10007B00F0C2F795F0400CE8CCF8E9CDF9EACEFAEE
:10008B00EBCFFB1203DA85D0F05804700320D5B305
:10009B00E80470075002B2D502041992D5EC046043
:1000AB00F7E4CCC0E0C398F8603B94186008400DAF
:1000BB00D0E0FB0203F1E4FBFAC9FC8028E830E452
:1000CB0006E4C9FBE4CAFCE830E305E4C9CACBFC8F
:1000DB00E854076010F8C3E913F9EA13FAEB13FBC2
:1000EB00EC13FCD8F130F52FC3E49CFCEF9BFFEE37
:1000FB009AFEED99FDD0E0FBEF4E4D4C701222DBDA
:10010B0003020416EC2CFCEF33FFEE33FEED33FD54
:10011B00ED30E7EB0203F1EF2BFFEE3AFEED39FD8D
:10012B00D0E0FB50130BBB0003020419ED13FDEEE3
:10013B0013FEEF13FFEC13FC0203F1EC4D6011E81F
:10014B00497017ED33EC3304600DE4FCFFFEFD2228
:10015B00E933E8330470F802040F1203DA58046031
:10016B0009E4CC24815006285009020419284003C5
:10017B00020416C0E0EB4A7044B98006D0E0FB02E3
:10018B000405EF4E701CBD8008EBFFEAFEE9FD8015
:10019B00EBE98DF0A4FEE5F002022FE9CDF9EAFEC2
:1001AB00EBFFEF89F0A4FCE5F0CE89F0A42EFFE481
:1001BB0035F0CD89F0A42DFEE435F08067EF4E705D
:1001CB0005BD80D780C3EF8BF0A4ACF0EE8BF0A411
:1001DB002CFCE435F0F8EF8AF0A42CE5F038FCE4C5
:1001EB0033CB8DF0A42CFCE5F03BF8EE8AF0A42C7D
:1001FB00FCE5F038F8E433CF89F0A42CFCE5F038BB
:10020B00CF3400CE89F0A42FFFE5F03EFEE433C9D6
:10021B008DF0A42EFEE5F039CD8AF0A42FFFE5F08A
:10022B003EFEE43DFD33D0E0FB50070BBB000F025D
:10023B000419EC2CFCEF33FFEE33FEED33FD020320
:10024B00F1020419EC5D046005E859047003020423
:10025B000F1203DA580460F6EC4860F2EC7004FD00
:10026B00FEFF22C860DB2481C85009C3986002508E
:10027B00060204169850CAF582E9294B4A7005AB61
:10028B008202040575F0007C1A7880C3EF9BEE9A0E
:10029B00ED99400DC3EF9BFFEE9AFEED99FDE84201
:1002AB00F0DC23ACF0D0E0FFD0E0FED0E0FDAB8281
:1002BB0020E7101BEB60BAEC2CFCEF33FFEE33FEA8
:1002CB00ED33FD0203F1E803F830E705C0F075F0FC
:1002DB0000EF2FFFEE33FEED33FD40B830E7C28069
:1002EB00AA74F8CC6480CCC86480C8F58204604FD3
:1002FB00C3EB9FF5F0EA9E42F0E99D42F0E89C4586
:10030B00F0603C501DE5825FFFE582D313CB5BCBE6
:10031B00F42B5582FB50280ABA002409B900200897
:10032B00801DE5825BFBE582D313CF5FCFF4C31354
:10033B002F5582FF50090EBE00050DBD00010CC3E9
:10034B00EB9FF5F0EA9E42F0E99D42F0E89C45F008
:10035B006007CC4820E701B3EC2275F020800E75C6
:10036B00F010800575F0087D007E007F003392D57C
:10037B0030D503120750EC334010EF33FFEE33FE52
:10038B00ED33FDEC33FCD5F0ED22E5F0247EA2D568
:10039B0013CC92E7CDCEFF22EDD2E7CD33EC3392E7
:1003AB00D524814006E4FFFEFDFC22FCE4CFCECD3C
:1003BB00CC24E0501174FF80EDC3CC13CCCD13CD06
:1003CB00CE13CECF13CF0470F030D5DE020750E939
:1003DB00D2E7C933E833F892D5EDD2E7CD33EC331E
:1003EB00FC5002B2D522EC30E7100FBF000C0EBE52
:1003FB0000080DBD00040BEB6014A2D5EB13FCED54
:10040B0092E7FD2274FFFCFDFEFF22E480F8A2D5EB
:10041B0074FF13FC7D80E480EFE709F608DFFA80B8
:10042B0046E709F208DFFA803E88828C83E709F001
:10043B00A3DFFA8032E309F608DFFA8078E309F2EA
:10044B0008DFFA807088828C83E309F0A3DFFA80DF
:10045B006489828A83E0A3F608DFFA805889828A4E
:10046B0083E0A3F208DFFA804C80D280FA80C6804A
:10047B00D4806980F28033801080A680EA809A80D5
:10048B00A880DA80E280CA803389828A83ECFAE41E
:10049B0093A3C8C582C8CCC583CCF0A3C8C582C8FA
:1004AB00CCC583CCDFE9DEE7800D89828A83E493B8
:1004BB00A3F608DFF9ECFAA9F0EDFB2289828A8317
:1004CB00ECFAE0A3C8C582C8CCC583CCF0A3C8C5E1
:1004DB0082C8CCC583CCDFEADEE880DB89828A83E5
:1004EB00E493A3F208DFF980CC88F0EF60010E4EA5
:1004FB0060C388F0ED2402B4040050B9F582EB24FC
:10050B0002B4040050AF232345822390047473C2BA
:10051B00D530F707B2D563F0FF05F030E70CB2D555
:10052B00F4048463F0FF05F080018430D502F404F9
:10053B0022BB010689828A83E0225002E722BBFE9E
:10054B0002E32289828A83E49322BB010CE5822990
:10055B00F582E5833AF583E0225006E92582F8E639
:10056B0022BBFE06E92582F8E222E58229F582E527
:10057B00833AF583E49322BB010689828A83F022B6
:10058B005002F722BBFE01F322EF8DF0A4A8F0CFAF
:10059B008CF0A428CE8DF0A42EFE22C2D5EC30E731
:1005AB0009B2D5E4C39DFDE49CFCEE30E715B2D552
:1005BB00E4C39FFFE49EFE1207F1C3E49DFDE49CA0
:1005CB00FC80031207F130D507C3E49FFFE49EFEC6
:1005DB0022BB0110E58229F582E5833AF583E0F52C
:1005EB00F0A3E0225009E92582F886F008E622BB49
:1005FB00FE0AE92582F8E2F5F008E222E5832AF506
:10060B0083E993F5F0A3E99322BB010A89828A83DC
:10061B00F0E5F0A3F0225006F709A7F01922BBFE74
:10062B0006F3E5F009F31922E88FF0A4CC8BF0A4C4
:10063B002CFCE98EF0A42CFC8AF0EDA42CFCEA8EA9
:10064B00F0A4CDA8F08BF0A42DCC3825F0FDE98FCC
:10065B00F0A42CCD35F0FCEB8EF0A4FEA9F0EB8FC3
:10066B00F0A4CFC5F02ECD39FEE43CFCEAA42DCE90
:10067B0035F0FDE43CFC2275F008758200EF2FFF8E
:10068B00EE33FECD33CDCC33CCC58233C5829BED5F
:10069B009AEC99E58298400CF582EE9BFEED9AFD63
:1006AB00EC99FC0FD5F0D6E4CEFBE4CDFAE4CCF913
:1006BB00A88222B800C1B90059BA002DEC8BF08486
:1006CB00CFCECDFCE5F0CBF97818EF2FFFEE33FE54
:1006DB00ED33FDEC33FCEB33FB10D703994004EB0C
:1006EB0099FB0FD8E5E4F9FA227818EF2FFFEE33D8
:1006FB00FEED33FDEC33FCC933C910D7059BE99AEA
:10070B004007EC9BFCE99AF90FD8E0E4C9FAE4CC7A
:10071B00FB2275F010EF2FFFEE33FEED33FDCC33E4
:10072B00CCC833C810D7079BEC9AE899400AED9BCD
:10073B00FDEC9AFCE899F80FD5F0DAE4CDFBE4CCAC
:10074B00FAE4C8F922C3E49FFFE49EFEE49DFDE4B6
:10075B009CFC22EB9FF5F0EA9E42F0E99D42F0EC07
:10076B006480C864809845F022EB9FF5F0EA9E42C6
:10077B00F0E99D42F0E89C45F022E8600FECC313D2
:10078B00FCED13FDEE13FEEF13FFD8F122E493FC07
:10079B00740193FD740293FE740393FF22ECF0A398
:1007AB00EDF0A3EEF0A3EFF022A8828583F0D083C7
:1007BB00D0821207CB1207CB1207CB1207CBE473F5
:1007CB00E493A3C583C5F0C583C8C582C8F0A3C590
:1007DB0083C5F0C583C8C582C822A42582F582E5EE
:1007EB00F03583F58322BC000BBE0029EF8DF0841E
:1007FB00FFADF022E4CCF875F008EF2FFFEE33FEDF
:10080B00EC33FCEE9DEC984005FCEE9DFE0FD5F015
:10081B00E9E4CEFD22EDF8F5F0EE8420D21CFEAD1E
:10082B00F075F008EF2FFFED33FD4007985006D51C
:10083B00F0F222C398FD0FD5F0EA2212391992106B
:10084B00D2111237EF8E238F2490002EE06009C354
:10085B00940B74809480400690002E7404F09000EA
:10086B002FE0FF64017003020CACEF640270030213
:10087B000CAC122001B40B004003020BC890088F84
:10088B00F82828730208C90208B0020A340209DDED
:10089B00020A63020A91020AC3020AF5020B2B0237
:1008AB000B5B020B8DC204201003020BC890002FB0
:1008BB00E064067003020BC8E4F0FF020960E52454
:1008CB00640545237011C204D3300301C392039016
:1008DB00002D7408F08018300315D3E5249400E53F
:1008EB00236480948050051238B75003756106302D
:1008FB000303020BC8E52464064523700DD33004B3
:10090B0001C3920490002D7402F030042712392D8C
:10091B004003020BC8121FE860094007200B047F3D
:10092B000880327FCD7ECC7D2C121FEE6038403696
:10093B007F07805BE5246401452370307F9A7E99A5
:10094B007D39121FEE6010400E3001047F028005CE
:10095B0090002EE0FF80387FCD7ECC7D2C121FEED9
:10096B0060044002802F756106020BC812202F70A5
:10097B0021300B03020BC8121FE8600740057F08EC
:10098B00020B563001047F02800590002EE0FF021F
:10099B000B563010057F03020B5612203670057F65
:1009AB0009020B56E524640445237018D33001016A
:1009BB00C392017F082001027F098F61C211121FB0
:1009CB0013020BC81239344003020BC8123924022C
:1009DB000BC87D03120CAD700D300205C211121F36
:1009EB0013C202123845300203020BC8E52464041B
:1009FB0045237002D202201003020BC87F9A7E9906
:100A0B007D39121FEE60025003020BC87F043001C8
:100A1B00027F02122D253001031234D3900031E0F6
:100A2B004440F0755B04020BC87D02120CAD6008EC
:100A3B0030040812392D400312384512202F70084C
:100A4B00200B057F08122D2512203670057F091209
:100A5B002D25122C28020BC87D04120CC560083002
:100A6B00040812392D400312384512202F7008202C
:100A7B000B057F08122D2512203670057F09122DCC
:100A8B00257F05020BC57D04120CB96008300408E4
:100A9B0012392D400312384512202F7008200B05F8
:100AAB007F08122D2512203670057F09122D257F08
:100ABB00061238EA7F0480627D05120CB96008309B
:100ACB00040812392D400312384512202F700820CC
:100ADB000B057F08122D2512203670057F09122D6C
:100AEB00257F071238EA7F0580307D06120CD16016
:100AFB000830040812392D400312384512202F708C
:100B0B0008200B057F08122D2512203670057F0952
:100B1B00122D257F041238EA7F061238FA020BC811
:100B2B007D07120CD1600830040812392D400312D6
:100B3B00384512202F6003300D0A7F043001027FED
:100B4B0002122D2512203670747F09122D25806D0F
:100B5B007D09120CC5600830040812392D400312B0
:100B6B00384512202F7008200B057F08122D2512F7
:100B7B002036700A7F043001027F02122D257F0A76
:100B8B0080387D0A7F01122FB9E52464014523606B
:100B9B000830040812392D400312384512202F70EB
:100BAB0008200B057F08122D25122036700A7F04B2
:100BBB003001027F02122D257F091238EA90002D99
:100BCB00121FD8400D9000331207B442A000000250
:100BDB000C90200709122001640970028008AF5B9A
:100BEB00EF121FDA400D9000331207B4BF800000E4
:100BFB00020C9012200164027006AC59AD5A807B36
:100C0B00122001640A7009122094AC06AD07806BA8
:100C1B001220016403705E900030E014601C1460BD
:100C2B002514602E14603714604024057057900013
:100C3B00331207B441200000804B9000331207B4ED
:100C4B0041C80000803F9000331207B442480000B7
:100C5B0080339000331207B442C800008027900005
:100C6B00331207B443480000801B9000011205DCCF
:100C7B00FDACF08006122023FDACF0EC12036A9061
:100C8B0000331207A8900033E0FCA3E0FDA3E0FEC5
:100C9B00A3E0FF1203A3121C4C900054EEF0A3EF41
:100CAB00F0227F01122FB9E5246401452322E4FFD2
:100CBB00122FB9E52464014523227F01122FB9E5D8
:100CCB00246401452322E4FF122FB9E52464014576
:100CDB0023228F2812053CFF146015146028146022
:100CEB003D14603A2404705C12242C122473802966
:100CFB0012242CF5827401F52D85822EE582F4F5F4
:100D0B0082752F00801312242CF4F582752D00852B
:100D1B00822EEDF5827401F52F8582308026ED123F
:100D2B002473858230EDF5827401F52985822AEFD3
:100D3B0064047007EDFF7401FE8005EDF4FF7E0087
:100D4B008E2B8F2C9000011205557007EDFF74014F
:100D5B00FE8005EDF4FF7E008E318F329000021283
:100D6B0005557007EDFF7401FE8005EDF4FF7E0065
:100D7B00E528147003020E19147003020E9C1470F4
:100D8B0003020F1F24036003020FA9E529AB9A305E
:100D9B00E006E52A4BFD8004E52A5BFD8D9AE52BE9
:100DAB0030E00890F00912249B800690F009122481
:100DBB00A290F009EDF0E52D30E0051224838006BA
:100DCB0090F00A1224A990F00AEDF0E52F30E0051F
:100DDB0012248B800690F00B1224B090F00BEDF0E8
:100DEB00EE30E0051224BF800890F00CE0FBEF5BC7
:100DFB00FD90F00CEDF0E53130E0051224B78006E4
:100E0B0090F00D1224C6AF0590F00DEDF022E52900
:100E1B00ABA130E006E52A4BFD8004E52A5BFD8D96
:100E2B00A1E52B30E00890F01912249B800690F07E
:100E3B00191224A290F019EDF0E52D30E0051224E3
:100E4B0083800690F01A1224A990F01AEDF0E52F8A
:100E5B0030E00512248B800690F01B1224B090F02A
:100E6B001BEDF0EE30E0051224BF800890F01CE083
:100E7B00FBEF5BFD90F01CEDF0E53130E00512244B
:100E8B00B7800690F01D1224C6AF0590F01DEDF053
:100E9B0022E529ABA230E006E52A4BFD8004E52ACA
:100EAB005BFD8DA2E52B30E00890F02912249B808E
:100EBB000690F0291224A290F029EDF0E52D30E0F8
:100ECB0005122483800690F02A1224A990F02AEDB3
:100EDB00F0E52F30E00512248B800690F02B1224C6
:100EEB00B090F02BEDF0EE30E0051224BF800890AF
:100EFB00F02CE0FBEF5BFD90F02CEDF0E53130E0FA
:100F0B00051224B7800690F02D1224C6AF0590F081
:100F1B002DEDF022E529ABA330E006E52A4BFD8051
:100F2B0004E52A5BFD8DA3E52B30E00890F0391228
:100F3B00249B800690F0391224A290F039EDF0E555
:100F4B002D30E005122483800690F03A1224A990EC
:100F5B00F03AEDF0E52F30E00512248B800690F08F
:100F6B003B1224B090F03BEDF0EE30E008A3E0FD37
:100F7B00EF4DFF800890F03CE0FDEF5DFF90F03C03
:100F8B00EFF0E53130E009A3E0FDE5324DFF8009DC
:100F9B0090F03DE0FDE5325DFF90F03DEFF022C3B8
:100FAB0090000DE0942C90000CE0648094815071C3
:100FBB00E4FFFE7D7A7C44AB11AA10A90FA80E1298
:100FCB0001461203A38F288E278D268C2590000DAA
:100FDB00E004F0700690000CE004F012196825286C
:100FEB00FFEE3527FEED3526FDEC3525FC90000890
:100FFB001207A81219D2C3121A19500A900004E54D
:10100B0027F0A3E528F09000061219D5D3121A1970
:10101B0050030210AB900006E527F0A3E528F08003
:10102B007F121968FFC004C005C006C007900006F8
:10103B00E0FEA3E0FBAA06EA3395E0F9F81219D219
:10104B00EF2BFBEE3AFAED39F9EC38F8D007D00676
:10105B00D005D004C3EF9BFFEE9AFEED99FDEC9803
:10106B00FC121962FFC006C00790000DE024FEFFC2
:10107B0090000CE034FFAB07FA3395E0F9F8D0079A
:10108B00D006123352121962FFEC120365121A24A6
:10109B0090000F1207A81219861207B40000000067
:1010AB00AB5DAA5EA95F9000051205DCFDACF04CB0
:1010BB007006C20EC20F802CEC12036A121A241295
:1010CB00192D60054003C38001D3920E7FCD7ECCDA
:1010DB007D2C12192B60054003C38001D3920F3076
:1010EB000F02C20E900003E014602314604C1460D6
:1010FB007A240360030211A07466FFFEFD12192B04
:10110B0040030211A09000037401F00211A07F3381
:10111B007E337D7312192B60074005E4900003F0BA
:10112B007FCD7ECC7D4C12192B5003121A357433A4
:10113B00FFFEFD12192B505D80297F667E667D7642
:10114B0012192B60074005E4900003F0121926607A
:10115B00074005E4900003F07F9A7E997D391219C0
:10116B002B50329000037403F0802A7F667E667DDD
:10117B007612192B60074005E4900003F012192634
:10118B0060074005E4900003F07D401219286005CC
:10119B004003121A35AF61EF64066054AF61EF6420
:1011AB0008604DAF61EF6409604690002FE060036B
:1011BB00022CACAB5DAA5EA95F12053C7005121A3E
:1011CB000D6021900003E014600E14600F1460108A
:1011DB002403701C75610122756104227561022262
:1011EB0075610322900002E0600302143EE4F56196
:1011FB002275230075244078177C007D017BFF7AD4
:10120B003B79B97E007F141204F412382C500D7404
:10121B00081226F0700302143D021438E4FFFE7D21
:10122B00B07C40AB15AA14A913A8121202EC500300
:10123B0002143DC283C285C281D21012365AD284A7
:10124B007F057E0012214D1239487F337E337DE3BB
:10125B007C40AB0DAA0CA90BA80A1202EC60025041
:10126B000DE52415247002152312271B50D2E524FB
:10127B004523700EC284041226F0700302143D0243
:10128B001438752300752464C2847F147E001221E8
:10129B004DC21012365A1239487F0A7E0012214D68
:1012AB00752500752604122700C333CE33CED8F92B
:1012BB002413F5827400122727C004C005C006C092
:1012CB0007122700C333CE33CED8F92417F5827417
:1012DB00003EF583D007D006D005D0041207A8E551
:1012EB0026152670021525E526452570B9AF0DAEDE
:1012FB000CAD0BAC0A9000171207A8E4F52AF529E0
:10130B00F528F527F525F526122707C004C005C0DB
:10131B0006C007122700C333CE33CED8F91226CF1F
:10132B00D007D006D005D0041200558F2A8E298DF8
:10133B00288C270526E526700205256405452570B2
:10134B00C7122707E4FBFA79A0784012024F8F2AC5
:10135B008E298D288C27E4F52EF52DF52CF52BF504
:10136B0025F526AF2EAE2DAD2CAC2BC004C005C081
:10137B0006C007122700C333CE33CED8F91226CFBF
:10138B00122707120051E4FBFAF9F81202EC500F86
:10139B00122700C333CE33CED8F91226CF801D12BD
:1013AB002700C333CE33CED8F92417F5827400123D
:1013BB002727E4FBFA798078BF12275B12270712E5
:1013CB000051AB07AA06A905A804D007D006D00583
:1013DB00D0041200558F2E8E2D8D2C8C2B0526E5CF
:1013EB00267002052564054525600302136EC3E5CF
:1013FB0024945D1227205015E4FFFEFD7C3FAB2E9D
:10140B00AA2DA92CA82B1202EC60025010E5241572
:10141B00247002152312271B40030212A1E5244559
:10142B0023700F90002F74021226F360057F0112B8
:10143B002D2522900002E014B4090040030216236C
:10144B0090145975F003A4C58325F0C5837302145A
:10145B007402148702150C021537021567021592D8
:10146B000215D6021602021614E4F5611219ED905C
:10147B000000E4F0A3740EF0A37402F0900000E0FF
:10148B00FEA3E0FFD3940CEE64809480400575615D
:10149B00018023D3EF940AEE64809480400575613C
:1014AB00048013D3EF9408EE64809480400575613B
:1014BB00028003E4F561D3EF9400EE6480948040E6
:1014CB000302162390001312196BFF1203A37D6402
:1014DB001219ADAE29AF2A7C007D0A1205A68E2902
:1014EB008F2AE52A452970051219FB800D121A2E39
:1014FB00C333CE33CED8F91219B79000027403F070
:10150B0022900000E0B4FF0AA3E0B4FF057F0212B3
:10151B00162412193E40027F021219E140030216F3
:10152B0023121A04740AF0A37404F02212197640E1
:10153B000302162390001312196B1219A3E52A4507
:10154B002970051219FB800D121A2EC333CE33CE20
:10155B00D8F91219B79000027405F022900000E040
:10156B00B4FF0AA3E0B4FF057F0412162412193E40
:10157B0040027F041219E14003021623121A04746D
:10158B000AF0A37406F02212197640030216239078
:10159B00001312196BFFE4FBFA7920784112014614
:1015AB001219F590001312196B1219A3E52A45298C
:1015BB0070051219FB800D121A2EC333CE33CED801
:1015CB00F91219B79000027407F022900000E0B4F2
:1015DB00FF0EA3E0B4FF097F01123684E41219FD5C
:1015EB0012193E40027F011219E1502C121A047499
:1015FB000CF0A37408F022121976501C90000E7494
:10160B0080F09000027409F022121A0D700A123940
:10161B00344005E4900002F022123684E49000007E
:10162B00F0A3F022E51A700C740512360470030255
:10163B0017B08049123614D3EF9441EE6480948036
:10164B004002D20DD3EF943CEE648094804004D2E0
:10165B000B800DC3EF9432EE648094805002C20B6A
:10166B00300D05200B02C20DD3EF944BEE6480942A
:10167B0080400F740612360470030217B07F01020C
:10168B002D25123614C3EF9437EE64809480500DE1
:10169B0090002FE064067005F0FF122D25AB5DAABC
:1016AB005EA95F9000081205557004C20C801F12D2
:1016BB003614D3EF9434EE648094804004D20C80C3
:1016CB000DC3EF942AEE648094805002C20C200C60
:1016DB000AE4F51BF51CF51DF51E22D3900055E011
:1016EB009400900054E06480948050030217B01271
:1016FB003614EF24CCFFEE34FFAB07FAD3EB940197
:10170B00EA64809480403FE0FEA3E0FF7C177D708D
:10171B001205A6D3EF9400EE648094804002801DE6
:10172B00900054E0FEA3E0FFC3E49FFFE49EFE7C29
:10173B00177D701205A6EF2401FFE43EFEAD03AC4E
:10174B000212059480047E007F00EF251EF51EEE2D
:10175B00351DF51DD3E51E9450E51D648094C640E0
:10176B0006751D46751E50C3E51D6480948050059B
:10177B00E4F51DF51EEB251CF51CEA351BF51BD3FB
:10178B00E51C94E0E51B648094AE4006751B2E753A
:10179B001CE0C3E51C9420E51B6480945150067536
:1017AB001BD1751C20228E348F358D3690F692E02E
:1017BB0030E708E4FFFEFD7C408008AF19AE18ADA2
:1017CB0017AC16123046AC34AD35EC12036AC004BC
:1017DB00C005C006C007E4FBFA79807845AF3EAE82
:1017EB003DAD3CAC3B12024FD003D002D001D00038
:1017FB001201468F428E418D408C3FE5366041246D
:10180B00FA700302189A24F970030218CF24EE60C1
:10181B0003021925AC34AD35EC12036AA804A905F3
:10182B00AA06AB077F9A7E997D997C4512024F8F52
:10183B003A8E398D388C378F198E188D178C16225E
:10184B00753A357539487538031230278F158E1454
:10185B008D138C12AB15AA14A913A81212305A505F
:10186B0013AF15AE14AD13AC1212304F8F158E147F
:10187B008D138C12E4FBFA79407840AF15AE14ADA2
:10188B0013AC1212024F8F118E108D0F8C0E22750E
:10189B003A2D7539A67538331230278F0D8E0C8D76
:1018AB000B8C0AAB0DAA0CA90BA80A12305A506A62
:1018BB00AF0DAE0CAD0BAC0A12304F8F0D8E0C8DE5
:1018CB000B8C0A22AB42AA41A940A83FAF19AE1814
:1018DB00AD17AC16120051C004C005C006C007E41A
:1018EB00FFFE7DA57C43AB42AA41A940A83F120154
:1018FB0046D003D002D001D00012024F123046E482
:10190B00FBFA797A78441201461230461203A37B14
:10191B00007A00791A121E348F09227D60E4FFFED3
:10192B007C4090000FE0F8A3E0F9A3E0FAA3E0FB02
:10193B000202EC900000E0FAA3E0FB7C007D04FFC8
:10194B00AE021205A68C298D2AD3E52A9401E5292E
:10195B00648094807F00229000081207A8900008F2
:10196B00E0FCA3E0FDA3E0FEA3E022D3900001E0A6
:10197B009400900000E06480948022900004747FB7
:10198B00F0A374FEF0A37480F0A37402F0E4900053
:10199B000CF0A3F090000822FF1203A38E298F2ACC
:1019AB007D0A7C001205A68C298D2A2224FFFFEECE
:1019BB0034FF900000F0A3EFF0227C40AB11AA1093
:1019CB00A90FA80E0202EC900004E0FEA3E0FFEECC
:1019DB003395E0FDFC228F61D3EB9400EA64809495
:1019EB008022AF15AE14AD13AC129000130207A8F2
:1019FB0074FF900000F0A3F022E4F561900000F07A
:101A0B00A32290000EE05480FF3395E04F22AB28C9
:101A1B00AA27A926A82502075EE4FBFA797A78445F
:101A2B0002024FAE29E52A7802229000037402F0DD
:101A3B0022200C07E4900057F08023900057E0FF22
:101A4B003395E0FED3EF9408EE648094804009C296
:101A5B00A4C2A5E4F560F022900057E004F0E56124
:101A6B00B40A004003021B44901A7AF82828730228
:101A7B001A98021AA0021AA5021AAF021AAA021A7F
:101A8B00AF021AEA021B44021B19021AEAC2A4C2D1
:101A9B00A5E4F56022C2A4D2A522D2A4C2A522D26B
:101AAB00A4D2A522C2A5E560547FFFAE61EE64030C
:101ABB007E0070027E03C3EE6480F8EF6480985062
:101ACB00090F536080EF4260800B1238837F806078
:101ADB00027F008F60123883C36001D392A422C2AD
:101AEB00A553607FAF61EF64097F0A70027F06D355
:101AFB00EF6480F8E5606480984004C2A4802812EB
:101B0B0038766001D39210A21092A4056022C2A471
:101B1B0053607FAF60EF3395E0FED3EF9406EE6436
:101B2B008094804006C2A5E4F561221238766001EC
:101B3B00D39210A21092A5056022E50864037002EF
:101B4B00F508E508146042147003021BF5147003CA
:101B5B00021C3C24036003021C39D21112388DE4A1
:101B6B00F52FF53074CD2530F582743B352FF58389
:101B7B00E493FF12301AEFF00530E5307002052FB9
:101B8B006404452F70DE021C34E4F52FF53012305F
:101B9B001AE0FF123064400F12306E4018EF941FA2
:101BAB00EE64809480500E0530E5307002052F6492
:101BBB0004452F70D9C3E5309404E52F64809480DD
:101BCB00502312301AE0F533FF3395E0FE4F6006D9
:101BDB00EF64064E7005C21112388DAF331231DD32
:101BEB00750802804C7508038047753700753800FF
:101BFB007539337B007A007931122626EF4E60312E
:101C0B00AD33AF32AE311217B1E4F52FF5301230E0
:101C1B001AE0B5330612301A74FEF00530E5307059
:101C2B0002052F6404452F70E57508018003E4F568
:101C3B0008900045E06009E50864036003021B455A
:101C4B00228E258F26200C0122AC1DAD1EEC12031B
:101C5B006A7B007AA0798C784612024F8F2A8E29E4
:101C6B008D288C27E4FBFA79C87842120146121DA5
:101C7B0035AC1BAD1CEC12036A7B007A80793B7888
:101C8B004612024F8F328E318D308C2FAB2AAA2900
:101C9B00A928A827C000C001C002C003E4FFFE7D35
:101CAB00207C41AB32AA31A930A82F120146D003B8
:101CBB00D002D001D000120055121D35D3E5269469
:101CCB0084E5256480948350057E037F8422E5267A
:101CDB00247CFDE52534FCFC12036AE4FBFA79C88D
:101CEB00784212024F8F2E8E2D8D2C8C2BAB2EAA61
:101CFB002DA92CA82BC000C001C002C003AB2AAA7F
:101D0B0029A928A82712361C120051D003D002D0C3
:101D1B0001D0001201468F2E8E2D8D2C8C2B120391
:101D2B00A3EF2484FFEE3403FE228F2A8E298D2805
:101D3B008C2712357B8F2A8E298D288C27228B3668
:101D4B008A3789388F3C8E3B8D3A8C39E4F53DF5DB
:101D5B0045F544F543F542E4FFFEFDFCAB3CAA3BE5
:101D6B00A93AA839D312075E5003021DFCAB36AA61
:101D7B0037A938854582854483120555623DE47544
:101D8B004108F540F53FF53EE4FFD31235BF402D3A
:101D9B00E53D30E70825E06407F53D8006E53D2588
:101DAB00E0F53D74FF2541F541E54034FFF540E595
:101DBB003F34FFF53FE53E34FFF53E80CBE4FAF9C7
:101DCB00F8E5452401F545EA3544F544E93543F595
:101DDB0043E83542F54274FF253CF53CE53B34FFC7
:101DEB00F53BE53A34FFF53AE53934FFF539021D99
:101DFB0062E4F541F540F53FF53EE47F29C312352A
:101E0B00BF5023E541903B9093623DE4FAF9F8E52E
:101E1B00412401F541EA3540F540E9353FF53FE80E
:101E2B00353EF53E80D4AF3D228B438A4489458FA6
:101E3B00498E488D478C467FD57E2C7D517C00D3B7
:101E4B0012378140061237777FD822E47FE37E0A70
:101E5B00C312376A50061237777F7D22740112370F
:101E6B0078E47FF57EF5D312376A4038E4F54AF50E
:101E7B004BAE4AE54B7802C333CE33CED8F9244B65
:101E8B00F58274393EF583120798C31237814006E9
:101E9B00E54B24D8FF22054BE54B7002054A644BFA
:101EAB00454A70CDE4F54AF54BE54B25E0FFE54A95
:101EBB0033FE74772FF582743A3EF583E493FE7408
:101ECB000193FFE48F4F8E4EF54DF54CE54FF54FDB
:101EDB00E54EF54EE4F54DF54CAF49AE48AD47AC8C
:101EEB0046AB4FAA4EA94DA84CD31207745006E52A
:101EFB004B2423FF22054BE54B7002054A645B45DF
:101F0B004A70A6123777FF22C2AF0075FBAA2011C9
:101F1B0033E4F52AF52BE52BF5FCE52AFFEFF5FD70
:101F2B000075FF11000000000000E5FF20E0FB74CE
:101F3B002C252BF8A6FE052BE52B7002052A640534
:101F4B00452A70D2900030E0F534855931855A32EC
:101F5B007F003001027F018F337A0079311235CD4A
:101F6B00121D498F35201107E535B530028054E439
:101F7B00F5FCF5FD0075FF1D000000000000E5FFFE
:101F8B0030E006E5FF30E5F622E4F52AF52BAF2B22
:101F9B0074312FF8E6F5FEEFF5FCE52AFFEFF5FDC2
:101FAB000075FF19000000000000E5FF30E006E5BA
:101FBB00FF30E5F622052BE52B7002052A6405455B
:101FCB002A70CB75FB5500D2AF22900037E0FF3360
:101FDB0095E0FED3EF9400EE64809480227F667EC2
:101FEB00667D467C4090000FE0F8A3E0F9A3E0FA91
:101FFB00A3E0FB0202ECAB5DAA5EA95F02053C7598
:10200B00F004900037E0FD12051AAFF0EF3395E0C6
:10201B00F5258F26D3E52622900001AB5DAA5EA99C
:10202B005F0205DCE5246402452322E524640345B5
:10203B002322FFAEF0E55A9FEE6480F8E5596480E9
:10204B009822E054C0F0C3ED9406EC648094802297
:10205B00E0FF543FF523FD3395E0FC4D229401E561
:10206B00256480948022EF3395E0FEC3EF22EDFFD1
:10207B003395E04F22E0FE5480FD3395E04D227501
:10208B005B048E598F5AD20022900038E0B40700BF
:10209B0040030221489020A7F82828730220BC0295
:1020AB0020C90220E40220F2022112022120022187
:1020BB0040900037740BF0A37401F00221481220FA
:1020CB000A122068400280551220797070900037F8
:1020DB007407F0A37402F08064121FD5505F742351
:1020EB00F0A37403F0805675F00C12200D940512BA
:1020FB00206A4002802712207970429000377407C3
:10210B00F0A37404F08036121FD55031740BF0A37A
:10211B007405F0802812200A122068400712202331
:10212B00FFAEF02212207970149000377423F0A3C5
:10213B007406F08008121FD55003E4A3F07EFF7FD6
:10214B00FF228E2F8F30E4F535F536E530452F70B5
:10215B00030222020536E53670020535AE2FAF308D
:10216B00EE3395E0FDFCE47BA07A0FF9F812063311
:10217B008F348E338D328C31C006C007AE35AF36FF
:10218B00AB07AA06EA3395E0F9F8D007D00612069A
:10219B00BE8F348E338D328C31E47FFF7EFFFDFC9E
:1021AB00AB34AA33A932A831C312077450A6C37437
:1021BB00FF9534F53474FF9533F533E49532F532EE
:1021CB00E49531F531AF34AE33AD32AC3178081222
:1021DB0007858F8CE534FF8F8AC205438810E5880D
:1021EB0020E5033005F85388CFE536153670021518
:1021FB0035E536453570CE22123644700590004DCC
:10220B00F022D3900055E09400900054E064809449
:10221B008050030222B790004DE0547FF523E4FF7A
:10222B00FE7D9012364D501912362F5007E52324A0
:10223B0002FF80027F088F2390004DE0547FF080D7
:10224B00417FCD7ECC7DE412364D601A401812369C
:10225B002F5006E52304FF80027F088F2390004D4B
:10226B00E04480F0801CAF23EF3395E0FED3EF9476
:10227B0000EE648094804006E52314FF80027F000B
:10228B008F2390004DE05480F04523F012362F4001
:10229B001BE05480FF3395E04F7F0360027F04EF18
:1022AB00123640640160057F01122D2522EF146068
:1022BB003814605F14700302234824036003022365
:1022CB006B122456400302236B30110EA8057401C8
:1022DB00088002C333D8FC428022A8057401088011
:1022EB0002C333D8FCF452802212244150721224C0
:1022FB004D406D30110EA8057401088002C333D810
:10230B00FC429022A8057401088002C333D8FCF468
:10231B00529022122420504812245F404330110E59
:10232B00A8057401088002C333D8FC42A022A8057B
:10233B007401088002C333D8FCF452A022ED12249E
:10234B0024501D30110EA8057401088002C333D828
:10235B00FC42B0221224938002C333D8FCF452B057
:10236B002220080302241F300A1990F129E0600390
:10237B0002241F7F01300901FF90F164EFF0C208C6
:10238B00C20A22E4FFFE7DC87C4212390A1202EC1B
:10239B00600C400A90004E1207B442C80000E4FFE4
:1023AB00FEFDFC12390A1202EC500A90004E120785
:1023BB00B400000000AF26AE25AD24AC23EC4D4E8F
:1023CB004FC36001D392097F007E807DBB7C451299
:1023DB00390A120146E4FBFA798078BF1200558F57
:1023EB00268E258D248C23E4FBFA79C878421202C1
:1023FB004F8F268E258D248C231203A3AD07AC069D
:10240B00ECFFEF90F141F0ED90F140F0D20A90F13A
:10241B00297401F022EDFF7E00D394067480948022
:10242B0022EDF4F58275830085832985822A8583C5
:10243B002B85822CED22EDFF7E00D39407748094C4
:10244B008022C3EF94037480948022EDD39405749F
:10245B0080948022C3EF94017480948022FBE43437
:10246B00F0FAA80574010822F4F5827583008583C0
:10247B002D85822E85832F22A3E0FBE52E4BFD229B
:10248B00A3E0FBE5304BFD22AF05A8077401082242
:10249B00E0FBE52C4BFD22E0FBE52C5BFD22E0FB9A
:1024AB00E52E5BFD22E0FBE5305BFD22A3E0FBE5C7
:1024BB00324BFD22A3E0FBEF4BFD22E0FBE5325B51
:1024CB00FD22E4F5DE90F692F090004504F0E4F581
:1024DB0008FFEFFD3395E0FCC3ED9404EC648094AE
:1024EB00805015EF3395E0FC74392DF58274003C68
:1024FB00F58374FEF00F80DA90003D1207B40000F4
:10250B00000012303DF0A3F0FB7D017F03122E0D76
:10251B00E4FB7D037F01122E0DE4FBFDFF122E0D5C
:10252B00752503E4F526F527FB7D027F0312257045
:10253B007D087F011225707A0079257D01E4FF1259
:10254B000CDDC2117D017F031222B8C2117D037F06
:10255B00011222B8C211E4FDFF1222B8C211E4FD30
:10256B007F030222B87A007925120CDD7B002290C2
:10257B000054E0FEA3E0FF900052E06E7003A3E076
:10258B006F700302261B900052EEF0A3EFF0D39472
:10259B0000EE64809480502190004E1207B400002E
:1025AB000000900052E0B4FF08A3E0B4FF03D38017
:1025BB0001C392811227548055900052E0FEA3E094
:1025CB00FFC394F4EE6480948150278E278F2812DA
:1025DB0027447DC87C4212261C7D187C411227673C
:1025EB001202EC50028001C39281D284D283C28545
:1025FB00801C900052E0F527A3E0F5281227447DBC
:10260B00407C4012261CD281D284C283D285D20850
:10261B00221228AF90004E1207A8228B348A3589DC
:10262B0036E5DF30E1028050900042E004F07006A6
:10263B00900041E004F090003DE0F8A3E0F9A3E046
:10264B00FAA3E0FBAFDDEFFEADDCEDFFEE3395E083
:10265B00FDFCEB2FFFEA3EFEE93DFDE83CFC900064
:10266B003D1207A8C3900042E0940A900041E06439
:10267B00809480500743DF02E4FEFF2290003DE090
:10268B00FCA3E0FDA3E0FEA3E0FFE47B0AFAF9F86C
:10269B0012335290003D1207A890003DA3A3E0FF18
:1026AB00A3E0AB34AA35A936CF8FF01206149000F5
:1026BB0043E0AB37AA38A939120582E4900044F005
:1026CB00FE7F01222417F58274003EF583E0F8A308
:1026DB00E0F9A3E0FAA3E0FB2212024F8F308E2F1A
:1026EB008D2E8C2D2290002FF0AB5DAA5EA95F1270
:1026FB00053C640122AE25E526780222AF2AAE29DD
:10270B00AD28AC2722AB30AA2FA92EA82D0202ECA4
:10271B00D3E5249400E52364809480223EF583E086
:10272B00FCA3E0FDA3E0FEA3E0FF22E4900054F045
:10273B00A3F0900052F0A3F022E4F52CF52B752AB0
:10274B008075293FFFFE22C281C284C283C28522CB
:10275B00120146A804A905AA06AB0722E4FFFEABAB
:10276B0019AA18A917A81622E4F525F526F527FBB3
:10277B007A0079257D027F01120CDD7B007A0079CE
:10278B00257D01E4FF120CDD7D021228057B017D06
:10279B00017F03122E0D7B017D037F01122E0D7B1A
:1027AB0001E4FDFF122E0D752503E4F526752701B7
:1027BB00FBFD7F03122E0D7D01122805D211E4FDC6
:1027CB007F031222B875DF4075DE60E4F5E9F5D1C1
:1027DB00F5D375D50F75D4FF90F69274A0F0E4F590
:1027EB000890003D1207B40000000012303DF0A32A
:1027FB00F0A304F043DE800239487B007A00792590
:10280B007F03120CDD227D087F021235D8404990E0
:10281B000056E025E0F030A306E04401F08007907D
:10282B000056E054FEF0900056E0FF7E00F460038B
:10283B00EF7025E4F5B4EFF44ED37001C392129010
:10284B000056E0F47B0170027B027D037F021230A5
:10285B00787D087F0212380E301208E55330E703FB
:10286B00755380301227E55264897021120003D30F
:10287B00EF9400EE64809480400512385E800BE488
:10288B00F556F558755501755401E4F552201213A0
:10289B00E5536484700DF553E554700475570122AC
:1028AB00E4F554228F268E258D248C23AC27AD285E
:1028BB00EC12036AAB2CAA2BA92AA829120146AB4E
:1028CB0026AA25A924A8231201461226E7E4FBFA1F
:1028DB00797A78441226E47B9D7A69795C783C128C
:1028EB0026E4C004C005C006C0077D7A7C441227CD
:1028FB006712275BD007D006D005D0041226E4E47C
:10290B00FBFA79C878421201461226E7E4FFFE7DF6
:10291B00C87C42122710600D400BE4F530F52F7583
:10292B002EC8752D42E4FFFEFDFC1227105009E462
:10293B00F530F52FF52EF52DAF30AE2FAD2EAC2D8E
:10294B0022C2AF0075FBAAE4F523F5248524FCE530
:10295B0023FF8FFD0075FF11000000000000E5FF55
:10296B0020E0FB74252524F8A6FE0524E52470023F
:10297B0005236405452370D475FB5500D2AF7A004F
:10298B0079251235CD121D49EFB52915900030E58B
:10299B0028F085255985265AE527C36001D3920176
:1029AB0022E4900030F0755903755A20F523F52475
:1029BB00903B2D1235AA6402700D903B301235AA54
:1029CB00F559740193F55A0524E524700205236427
:1029DB000B452370DBC201D211121F132278FFE4C7
:1029EB00F6D8FD9000007F007E04E4F0A3DFFCDE50
:1029FB00FA758163022A3D022EEAE493A3F8E4936D
:102A0B00A34003F68001F208DFF48029E493A3F8D6
:102A1B005407240CC8C333C4540F4420C883400448
:102A2B00F456800146F6DFE4800B01020408102007
:102A3B004080903458E47E019360BCA3FF543F3038
:102A4B00E509541FFEE493A360010ECF54C025E0AB
:102A5B0060A840B8E493A3FAE493A3F8E493A3C863
:102A6B00C582C8CAC583CAF0A3C8C582C8CAC583F4
:102A7B00CADFE9DEE780BEEF14602214603C14600D
:102A8B00562403707012245640028069ED24801284
:102A9B0024688002C333D8FC55ACFC805C12244103
:102AAB00500512244D5002804CED2488122468806E
:102ABB0002C333D8FC55ADFC803F122420500512C5
:102ACB00245F5002802FED24901224688002C333C0
:102ADB00D8FC55AEFC8022ED12242440028016ED6A
:102AEB002498FBE434F0FA1224938002C333D8FC0D
:102AFB0055AFFC8004E4FEFF22EC7003FEFF228B3B
:102B0B00828A83E05403FF7E0022900002E0700B68
:102B1B00AB5DAA5EA95F12053C600775500075514D
:102B2B002822D3E5519400E550648094804009E558
:102B3B005115517002155022C2101236AD43870445
:102B4B004387021238A2D2111236FE1237CF7F0101
:102B5B007E0012214D1228111238B750F1D21012EB
:102B6B0036ADE4F523F524123948120FAA300F13B2
:102B7B000524E52470020523C39403E523648094A4
:102B8B008040E4E524640345237005F55075510F2F
:102B9B00E4900045F022752503E4F526752701C264
:102BAB00117D02FF1222B87B007A0079257D04E4A7
:102BBB00FF120CDD7B127D02E4FF122E0D90F12033
:102BCB00E4F0A304F090F123F090F12A74FFF0905D
:102BDB00F122E4F090F12704F0A3F090F160E4F01F
:102BEB0090F165F090F16404F090F1317417F0906E
:102BFB00F130746FF090F141E4F090F140F09000FF
:102C0B004E1207B400000000C20AC20890F12674ED
:102C1B0001F090F129F090F129E070FA2212392D90
:102C2B00500C2000097403255AF55AE48010123910
:102C3B0034501120000E74FD255AF55A74FF355986
:102C4B00F559800F123934400A12392D40053000E6
:102C5B0002C20012392D500F20000C122023C31278
:102C6B00203D400312208A123934501220000F905D
:102C7B000003122026D312203D500312208A123952
:102C8B002D40051239345004E4F55C22AF5CEF3370
:102C9B0095E0FEEF64204E7007055CC211121F1306
:102CAB0022900046E0FEA3E0FFC39405EE648094FF
:102CBB0080501AEE7015EF14600B14600C24027028
:102CCB005575610122756104228045804990002F62
:102CDB00E0FF7E007C007D06120594EF2405FFE4E7
:102CEB003EFE900046E0FCA3E0FDC39FEE6480F83F
:102CFB00EC6480985020ED24FBFFEC34FFFE7C004D
:102D0B007D031205A67C007D021205A6ED4C700416
:102D1B00756102228000E4F561228F2F122001F5EC
:102D2B0032E4F530F531903B2D75F009E5311207A2
:102D3B00E5E53075F009A42583F583E493652F70E1
:102D4B003A900038F0AE30AF31FC7D091205947427
:102D5B002D2FF9743B3E755DFFF55E895FE52F64A2
:102D6B00087014E5326408600EAF15AE14AD13ACE9
:102D7B00129000481207A8E4FEFF220531E53170DE
:102D8B00020530640B4530709D7E007F01221239A5
:102D9B002D50051220017007E4900031F08029902E
:102DAB00003112205B7007EF20E6034480F09000A7
:102DBB003112204D5008E020E60405238003E4F592
:102DCB0023900031E04523F01239345005122001D5
:102DDB007006E4900032F02290003212205B7007F4
:102DEB00EF20E6034480F090003212204D5008E0B3
:102DFB0020E60405238003E4F523900032E045230D
:102E0B00F022EBF5826402606AE58264036064E59C
:102E1B00826419605ED3E582941C74809480505355
:102E2B00EF14601414602014602F240370451224D7
:102E3B00565040ED2400802A122441503612244D66
:102E4B004031ED2410800D122420502712245F40B6
:102E5B0022ED2420F529EE800CED1224245014EDE4
:102E6B002430F529E434F0F528EB541F85298285AD
:102E7B002883F0227F9A7E997D391219C5500890CC
:102E8B0000037403F080277FCD7ECC7D4C1219C5D7
:102E9B005005121A3580177466FFFEFD1219C550C6
:102EAB00089000037401F08005E4900003F0C20E5B
:102EBB00C20F1219861207B400000000AF11AE103A
:102ECB00AD0FAC0E90000F1207A81219EDE4900095
:102EDB0002F090002FE0700690000E7480F022122A
:102EEB0038A2D2111236FE1237251236D61227739C
:102EFB001237AE12378C12330B122BA112350F1265
:102F0B0011FC122E7F12000EE4900045F01239488E
:102F1B00122811120FAA12084612162F12257A1216
:102F2B00236C3006E8C2061238DA123497121A3CB8
:102F3B001230D3122D991233961233D81222031258
:102F4B00312E122B1580C67D037F02122A82EF646D
:102F5B00014E7034C212E552547FFFE4F552E55432
:102F6B007004E5586007E4F558F5548033EFC394CB
:102F7B0009502D120003C3EF940AEE648094805025
:102F8B000205567553808018D21275500075512862
:102F9B00E55330E703755380E55220E70375528004
:102FAB007D087F0212374890005674AAF0228D25B7
:102FBB00200E09200F06E490002BF02290002BE04E
:102FCB00FD3395E0FCED4C70037480F090002BE02A
:102FDB00547FF526200F057527098003752702EF0F
:102FEB006014300F11AF261220719403EE6480949D
:102FFB00804003023845D3E5276480F8E5266480DA
:10300B0098400B90002B7480F0AF25122D25227465
:10301B00392530F5827400352FF5832275373EAB99
:10302B003AAA39A938A837AF42AE41AD40AC3F02FE
:10303B00024FE4900041F0A3F0A3228F3E8E3D8D12
:10304B003C8C3B227BCD7ACC79CC783D020051E491
:10305B00FFFE7D407C400202EC3395E0FEC36480B2
:10306B00948022D3EF9416EE6480948022EBD312DB
:10307B00244F5053EF14601414602014602F24035A
:10308B0070451224565040ED2480802A1224415062
:10309B003612244D4031ED2488800D122420502708
:1030AB0012245F4022ED2490F527EE800CED1224C4
:1030BB00245014ED2498F527E434F0F526EB540353
:1030CB00852782852683F022121FD54003E014F05A
:1030DB00AF5C1220719420EE648094805002055CEA
:1030EB00AF5BEF121FDA4002155B90002D121FD859
:1030FB004003E014F090002BE0FF30E720547FFEFC
:10310B00EF5480F0EEFD3395E0FCC3ED940AEC64D4
:10311B0080948050010E90002BE04EF022E4900042
:10312B002BF02212364464086006E490004CF02227
:10313B0090004CE0FF3395E0FEC3EF940AEE648001
:10314B0094805039E004F0AB15AA14A913A812907F
:10315B000048E0FCA3E0FDA3E0FEA3E0FF1200515A
:10316B007BCD7ACC794C78401202EC6002500E7415
:10317B0007123640640160057F01122D2522E4FE03
:10318B00EF14601A1460271460342403703CA805F4
:10319B007401088002C333D8FC55B4FE802CA805FB
:1031AB007401088002C333D8FC55B5FE801CA805FA
:1031BB007401088002C333D8FC55B6FE800C122470
:1031CB00938002C333D8FC55B7FEEE7F0060027FBD
:1031DB000122AB07900044E07046EB123064404094
:1031EB0012306E400AEF941FEE6480948040319051
:1031FB00003D1207B40000000012303DEBF0A37449
:10320B0001F0EB30E40543DF80800353DF7F53DEB7
:10321B00F0EB540F42DE7F967E0012341943DF022F
:10322B0022C0E0C0F0C083C082C0D075D000C00007
:10323B00C001C002C003C004C005C006C0077D03A7
:10324B007F02123189EF600A122F527D037F021227
:10325B0032C3D007D006D005D004D003D002D001A2
:10326B00D000D0D0D082D083D0F0D0E032C0E0C03C
:10327B00F0C083C082C0D075D000C000C001C002B6
:10328B00C003C004C005C006C00775C900151FB236
:10329B0007E51F7008751F04D206123549D007D0F9
:1032AB0006D005D004D003D002D001D000D0D0D0AE
:1032BB0082D083D0F0D0E032EF1460191460251463
:1032CB00603124037039A8057401088002C333D818
:1032DB00FCF4F5B422A8057401088002C333D8FCB2
:1032EB00F4F5B522A8057401088002C333D8FCF4A9
:1032FB00F5B6221224938002C333D8FCF4F5B7221F
:10330B00752301E4F524F525FB7D037F02122E0DB9
:10331B007B007A0079237D087F02120CDD7D087F0C
:10332B000212380E7B027D037F021230787550003B
:10333B0075512890005674FFF0E4F552F553F5558E
:10334B00F556F557F55822C2D5E830E70FB2D5E45C
:10335B00C39BFBE49AFAE499F9E498F8EC30E7178D
:10336B00B2D51233881206BEE4C39BFBE49AFAE48F
:10337B0099F9E498F880031206BE30D50DE4C39F8B
:10338B00FFE49EFEE49DFDE49CFC2290002FE0FFF9
:10339B007E0070059000468030900047E004F0708E
:1033AB0006900046E004F07C007D06120594EF24A5
:1033BB000FFFE43EFEC3900047E09FEE6480F89061
:1033CB000046E06480984004E4F0A3F0223002074A
:1033DB0012200164036006E490002CF02290002C74
:1033EB00E004F0E0FF1220729410EE6480948040B1
:1033FB001CE4F0900030E0FF94057480948050063C
:10340B000FBF00008002E4FF900030EFF022AD0709
:10341B00AC06A2AF9211ED7802C333CE33CED8F9FE
:10342B00FDAC06C374FF9DFD74FF9CFFEFF58CAFE5
:10343B0005EFF58A53A87D438810E58830E5FB53EB
:10344B0088CF30110443A8822243A80222C106C1AF
:10345B0005C107C11201600041000E0042000000CF
:10346B0000021B0000021D0000C10CC10BC10DC1ED
:10347B001341002B004100310041002D004100326F
:10348B000041002C0041003700C1000012197640AA
:10349B000CA3E024FFF0900000E034FFF090000E4E
:1034AB00E0FF30E71D547FFEEF5480F0EEFD3395C7
:1034BB00E0FCC3ED940CEC6480948050050EE04E60
:1034CB00F022E490000EF022755903755A20E4FFA8
:1034DB00FE903B2D75F009EF1207E5EE1235B46443
:1034EB00027015903B3075F009EF1207E5EE1235BF
:1034FB00B4F559740193F55A0FBF00010EEF640B2D
:10350B004E70CE22752503752601752701122752A1
:10351B007D021235377D10E4FF120CDD7D0812356C
:10352B00377D20E4FF120CDD122736227B007A0058
:10353B007925E4FF120CDD7B007A00792522E55218
:10354B0030E711547FFFC3940950010F535280EFA2
:10355B0042528003E4F552E55330E710547FFFC32A
:10356B00940450010F535380EF425322E4F553223E
:10357B008F368E358D348C3312361C123624600602
:10358B00400412361C22E4FFFEFDFC1236245006CA
:10359B00E4FFFEFDFC22AF36AE35AD34AC33227505
:1035AB00F009E5241207E5E52375F009A42583F559
:1035BB0083E49322FEFDFCAB41AA40A93FA83E0247
:1035CB00075E7B007F047E007D007C0022EF146091
:1035DB00111460151460192403701CE5AC5D6017A1
:1035EB00D322E5AD5D6010D322E5AE5D6009D32239
:1035FB00E5AF5D6002D322C32290002FF0AB5DAA32
:10360B005EA95F12053C640122AF09EF3395E0FE22
:10361B0022E4FFFE7DC87C4222AB36AA35A934A832
:10362B00330202ECAF23EF3395E0FEC3EF9408EEC9
:10363B00648094802290002FF0AB5DAA5EA95F029C
:10364B00053C7C40AB0DAA0CA90BA80A0202EC901E
:10365B00F1417401F07F003010027FFF90F140EFD9
:10366B00F090F1297401F090F129E070FA7F0130AC
:10367B001001FF90F164EFF022EF24FE600E24FEA8
:10368B00601024037010C2A4D2A5800AD2A4C2A5D4
:10369B008004D2A4D2A57F147E0012214DC2A4C2F5
:1036AB00A5223010141236D6122773122BA1123505
:1036BB000FE4900002F002000E1238CAC21112364B
:1036CB00FE12002E1224CD12393B22752503E4F590
:1036DB0026752701C2A4C2A5FB7D101236F47B0010
:1036EB007D201236F4E4F561227A0079257F0212EF
:1036FB000CDD22E4201106F5C853A8DF22F5CE75A8
:10370B00CB0B75CADB75CD5D75CC6643A820F5C9AF
:10371B0075CF80751F0475C891227523007524FF22
:10372B00C2067F017E0012214D200610E5241524D0
:10373B0070021523E524452370E880FE22EF146008
:10374B000F14601114601324037013EDF452AC22A8
:10375B00EDF452AD22EDF452AE22EDF452AF22FD58
:10376B00FCAB49AA48A947A846020774E4AB43AA95
:10377B0044A945020582AB49AA48A947A8460207B6
:10378B0074E4F55B12294CE4900038F090002E7431
:10379B0004F0E4A3F0755DFF755E3B755F2DC2030E
:1037AB00C204227523407F0A7E0012214D12394834
:1037BB00E51A7003D523EFE5237008756104121A1F
:1037CB003C80FE227D087F0212374890005674AA77
:1037DB00F0D212E55330E703755380E55220E7032F
:1037EB0075528022E5547004E5586004E4FEFF2214
:1037FB00E5577003FEFF22120003301105E4F55765
:10380B00F55622EF14600E14600F14601024037031
:10381B000FED42AC22ED42AD22ED42AE22ED42AFB6
:10382B0022C2AF007596AA75965585976300D2AFE5
:10383B00E56330E203D38001C322122001FF601243
:10384B00900007120555600590002EEFF0E4FF1273
:10385B002D2522E4F553F557F556F554F555EF6440
:10386B00014E7F0070027F018F5822E56075F002D8
:10387B0012051AAFF0EFC322E5605480FF3395E0D9
:10388B004F2253DE7F007F002011027FA090F69223
:10389B00EFF00043DE80225388CF5389F043890138
:1038AB00E4F58CF58A75A80243A88022E5556002E1
:1038BB00D322E5576002D322E558C36001D322C25D
:1038CB00AF007596AA7596555397FD00D2AF22C2DD
:1038DB00AF007596AA75965543970100D2AF22900B
:1038EB0000311220806007EE547FF0122D252290BC
:1038FB0000321220806007EE547FF0122D252290AB
:10390B00004EE0F8A3E0F9A3E0FAA3E0FB22E555B3
:10391B007002C322E4F555D322900002E07002043A
:10392B00F022E554C36001D322E558C36001D322D2
:10393B00122736122752225388EFD20532021B452B
:10394B0000512CD5004B1869004584570040652168
:10395B00003BB06200375CB60033619B002FB76051
:10396B00002C570700293A3D00265B410023B4DCAD
:10397B000021424D001EFF45001CE7D5001AF869D7
:10398B0000192DBE001784DA0015FB0600148DC735
:10399B0000133ADA0012002B0010DBD6000FCC1EFE
:1039AB00000ECF6C000DE44B000D0965000C3D8043
:1039BB00000B7F7C000ACE50000A290700098EC33A
:1039CB000008FEB50008781F0007FA52000784AE06
:1039DB000007169D0006AF9700064F1C0005F4B8B4
:1039EB0000059FFE0005508B000506020004C00D6C
:1039FB0000047E5D000440A9000406AC0003D02740
:103A0B0000039CE100036CA100033F370003147219
:103A1B000002EC280002C62F0002A2630002809F66
:103A2B00000260C3000242B10002264C00020B7B75
:103A3B000001F2230001DA2E0001C3870001AE1949
:103A4B00000199D2000186A0000174720001633A53
:103A5B00000152EA00014372000134C8000126DF65
:103A6B00000119AC00010D2500010141F5F5EB3A00
:103A7B00E107D755CE1DC558BD00B50EAD7FA64C81
:103A8B009F7098E792AC8CBB871181AA7C82779749
:103A9B0072E46E676A1E6606621C5E5F5ACB575FE6
:103AAB00541950F84DF84B1A485A45B8433340C88F
:103ABB003E773C3E3A1D3812361D343B326D30B2E8
:103ACB002F082D6F2BE62A6C290127A426552513C9
:103ADB0023DD22B22193207F1F751E751D7E1C9046
:103AEB001BAC1ACF19FB192E186917AA16F316421D
:103AFB00159714F2145313B913251296120C118641
:103B0B001105108810100F9B0F2B0EBE0E550DEFCD
:103B1B000D8C0D2D0CD10C780C210BCE0B7D0B2E9F
:103B2B000AE300000000000000010001000000009B
:103B3B000000000003015E00000AF00000040320F7
:103B4B0000000B5401000505DC00000BB80100065A
:103B5B000BB800000BEA0101071D4C00000C1C0107
:103B6B00010836B000000C80000109271000000B83
:103B7B00B80001021D4C01F40BB800010A2710001C
:103B8B00000BB80001587465726E20526970706535
:103B9B0072204C6974652056312E302042793A528E
:103BAB00656473746F6E65725F33350D0A000000C8
:103BBB0000000000000000000000000000000000FA
:063BCB0000001F0D0006C2
:00000001FF
